{
	"RWAPSSF.sol": {
		"RWAPSSF": {
			"abi": [
				{
					"anonymous": false,
					"inputs": [
						{
							"indexed": false,
							"internalType": "address",
							"name": "sender",
							"type": "address"
						},
						{
							"indexed": false,
							"internalType": "bytes32",
							"name": "dataHash",
							"type": "bytes32"
						},
						{
							"indexed": false,
							"internalType": "uint64",
							"name": "block",
							"type": "uint64"
						}
					],
					"name": "CommitHash",
					"type": "event"
				},
				{
					"anonymous": false,
					"inputs": [
						{
							"indexed": false,
							"internalType": "address",
							"name": "sender",
							"type": "address"
						},
						{
							"indexed": false,
							"internalType": "bytes32",
							"name": "answer",
							"type": "bytes32"
						},
						{
							"indexed": false,
							"internalType": "bytes32",
							"name": "salt",
							"type": "bytes32"
						}
					],
					"name": "RevealAnswer",
					"type": "event"
				},
				{
					"anonymous": false,
					"inputs": [
						{
							"indexed": false,
							"internalType": "address",
							"name": "sender",
							"type": "address"
						},
						{
							"indexed": false,
							"internalType": "bytes32",
							"name": "revealHash",
							"type": "bytes32"
						},
						{
							"indexed": false,
							"internalType": "uint256",
							"name": "random",
							"type": "uint256"
						}
					],
					"name": "RevealHash",
					"type": "event"
				},
				{
					"inputs": [],
					"name": "IDLE_TIME",
					"outputs": [
						{
							"internalType": "uint256",
							"name": "",
							"type": "uint256"
						}
					],
					"stateMutability": "view",
					"type": "function"
				},
				{
					"inputs": [],
					"name": "addPlayer",
					"outputs": [],
					"stateMutability": "payable",
					"type": "function"
				},
				{
					"inputs": [
						{
							"internalType": "bytes32",
							"name": "data",
							"type": "bytes32"
						}
					],
					"name": "getHash",
					"outputs": [
						{
							"internalType": "bytes32",
							"name": "",
							"type": "bytes32"
						}
					],
					"stateMutability": "view",
					"type": "function"
				},
				{
					"inputs": [
						{
							"internalType": "uint256",
							"name": "choice1",
							"type": "uint256"
						},
						{
							"internalType": "uint256",
							"name": "choice2",
							"type": "uint256"
						},
						{
							"internalType": "string",
							"name": "salt",
							"type": "string"
						}
					],
					"name": "getHashChoice",
					"outputs": [
						{
							"internalType": "bytes32",
							"name": "",
							"type": "bytes32"
						}
					],
					"stateMutability": "pure",
					"type": "function"
				},
				{
					"inputs": [],
					"name": "getPlayerIdx",
					"outputs": [
						{
							"internalType": "uint256",
							"name": "",
							"type": "uint256"
						}
					],
					"stateMutability": "view",
					"type": "function"
				},
				{
					"inputs": [
						{
							"internalType": "bytes32",
							"name": "data",
							"type": "bytes32"
						},
						{
							"internalType": "bytes32",
							"name": "salt",
							"type": "bytes32"
						}
					],
					"name": "getSaltedHash",
					"outputs": [
						{
							"internalType": "bytes32",
							"name": "",
							"type": "bytes32"
						}
					],
					"stateMutability": "view",
					"type": "function"
				},
				{
					"inputs": [
						{
							"internalType": "uint256",
							"name": "choice1",
							"type": "uint256"
						},
						{
							"internalType": "uint256",
							"name": "choice2",
							"type": "uint256"
						},
						{
							"internalType": "string",
							"name": "salt",
							"type": "string"
						},
						{
							"internalType": "uint256",
							"name": "idx",
							"type": "uint256"
						}
					],
					"name": "input",
					"outputs": [],
					"stateMutability": "nonpayable",
					"type": "function"
				},
				{
					"inputs": [
						{
							"internalType": "bytes32",
							"name": "hashedChoice",
							"type": "bytes32"
						},
						{
							"internalType": "uint256",
							"name": "idx",
							"type": "uint256"
						}
					],
					"name": "inputHashChoice",
					"outputs": [],
					"stateMutability": "nonpayable",
					"type": "function"
				},
				{
					"inputs": [],
					"name": "latestActionTime",
					"outputs": [
						{
							"internalType": "uint256",
							"name": "",
							"type": "uint256"
						}
					],
					"stateMutability": "view",
					"type": "function"
				},
				{
					"inputs": [],
					"name": "numHashedInput",
					"outputs": [
						{
							"internalType": "uint256",
							"name": "",
							"type": "uint256"
						}
					],
					"stateMutability": "view",
					"type": "function"
				},
				{
					"inputs": [],
					"name": "numInput",
					"outputs": [
						{
							"internalType": "uint256",
							"name": "",
							"type": "uint256"
						}
					],
					"stateMutability": "view",
					"type": "function"
				},
				{
					"inputs": [],
					"name": "numPlayer",
					"outputs": [
						{
							"internalType": "uint256",
							"name": "",
							"type": "uint256"
						}
					],
					"stateMutability": "view",
					"type": "function"
				},
				{
					"inputs": [
						{
							"internalType": "uint256",
							"name": "",
							"type": "uint256"
						}
					],
					"name": "player",
					"outputs": [
						{
							"internalType": "uint256",
							"name": "choice1",
							"type": "uint256"
						},
						{
							"internalType": "uint256",
							"name": "choice2",
							"type": "uint256"
						},
						{
							"internalType": "address",
							"name": "addr",
							"type": "address"
						}
					],
					"stateMutability": "view",
					"type": "function"
				},
				{
					"inputs": [],
					"name": "refund",
					"outputs": [],
					"stateMutability": "nonpayable",
					"type": "function"
				},
				{
					"inputs": [],
					"name": "reward",
					"outputs": [
						{
							"internalType": "uint256",
							"name": "",
							"type": "uint256"
						}
					],
					"stateMutability": "view",
					"type": "function"
				}
			],
			"devdoc": {
				"kind": "dev",
				"methods": {},
				"version": 1
			},
			"evm": {
				"assembly": "    /* \"RWAPSSF.sol\":106:6734  contract RWAPSSF is CommitReveal {... */\n  mstore(0x40, 0x80)\n    /* \"CommitReveal.sol\":118:121  100 */\n  0x64\n    /* \"CommitReveal.sol\":97:121  uint8 internal max = 100 */\n  0x00\n  dup1\n  0x0100\n  exp\n  dup2\n  sload\n  dup2\n  0xff\n  mul\n  not\n  and\n  swap1\n  dup4\n  0xff\n  and\n  mul\n  or\n  swap1\n  sstore\n  pop\n    /* \"RWAPSSF.sol\":409:410  0 */\n  0x00\n    /* \"RWAPSSF.sol\":385:410  uint public numPlayer = 0 */\n  0x03\n  sstore\n    /* \"RWAPSSF.sol\":438:439  0 */\n  0x00\n    /* \"RWAPSSF.sol\":417:439  uint public reward = 0 */\n  0x04\n  sstore\n    /* \"RWAPSSF.sol\":469:470  0 */\n  0x00\n    /* \"RWAPSSF.sol\":446:470  uint public numInput = 0 */\n  0x05\n  sstore\n    /* \"RWAPSSF.sol\":506:507  0 */\n  0x00\n    /* \"RWAPSSF.sol\":477:507  uint public numHashedInput = 0 */\n  0x06\n  sstore\n    /* \"RWAPSSF.sol\":551:566  block.timestamp */\n  timestamp\n    /* \"RWAPSSF.sol\":520:566  uint public latestActionTime = block.timestamp */\n  0x07\n  sstore\n    /* \"RWAPSSF.sol\":106:6734  contract RWAPSSF is CommitReveal {... */\n  callvalue\n  dup1\n  iszero\n  tag_1\n  jumpi\n  0x00\n  dup1\n  revert\ntag_1:\n  pop\n  dataSize(sub_0)\n  dup1\n  dataOffset(sub_0)\n  0x00\n  codecopy\n  0x00\n  return\nstop\n\nsub_0: assembly {\n        /* \"RWAPSSF.sol\":106:6734  contract RWAPSSF is CommitReveal {... */\n      mstore(0x40, 0x80)\n      jumpi(tag_1, lt(calldatasize, 0x04))\n      shr(0xe0, calldataload(0x00))\n      dup1\n      0x4537d1e0\n      gt\n      tag_17\n      jumpi\n      dup1\n      0x8dddbf36\n      gt\n      tag_18\n      jumpi\n      dup1\n      0x8dddbf36\n      eq\n      tag_13\n      jumpi\n      dup1\n      0x90d5d0c3\n      eq\n      tag_14\n      jumpi\n      dup1\n      0x9e0551c6\n      eq\n      tag_15\n      jumpi\n      dup1\n      0xbac4b2b4\n      eq\n      tag_16\n      jumpi\n      jump(tag_1)\n    tag_18:\n      dup1\n      0x4537d1e0\n      eq\n      tag_9\n      jumpi\n      dup1\n      0x590e1ae3\n      eq\n      tag_10\n      jumpi\n      dup1\n      0x5940e9e7\n      eq\n      tag_11\n      jumpi\n      dup1\n      0x7bab61bc\n      eq\n      tag_12\n      jumpi\n      jump(tag_1)\n    tag_17:\n      dup1\n      0x2703da2f\n      gt\n      tag_19\n      jumpi\n      dup1\n      0x2703da2f\n      eq\n      tag_5\n      jumpi\n      dup1\n      0x27b5db8a\n      eq\n      tag_6\n      jumpi\n      dup1\n      0x3cf5040a\n      eq\n      tag_7\n      jumpi\n      dup1\n      0x3d72ab0b\n      eq\n      tag_8\n      jumpi\n      jump(tag_1)\n    tag_19:\n      dup1\n      0x086f7815\n      eq\n      tag_2\n      jumpi\n      dup1\n      0x2226f2fa\n      eq\n      tag_3\n      jumpi\n      dup1\n      0x228cb733\n      eq\n      tag_4\n      jumpi\n    tag_1:\n      0x00\n      dup1\n      revert\n        /* \"RWAPSSF.sol\":446:470  uint public numInput = 0 */\n    tag_2:\n      callvalue\n      dup1\n      iszero\n      tag_20\n      jumpi\n      0x00\n      dup1\n      revert\n    tag_20:\n      pop\n      tag_21\n      tag_22\n      jump\t// in\n    tag_21:\n      mload(0x40)\n      tag_23\n      swap2\n      swap1\n      tag_24\n      jump\t// in\n    tag_23:\n      mload(0x40)\n      dup1\n      swap2\n      sub\n      swap1\n      return\n        /* \"RWAPSSF.sol\":2244:2961  function input(uint choice1, uint choice2, string memory salt, uint idx) public  {... */\n    tag_3:\n      callvalue\n      dup1\n      iszero\n      tag_25\n      jumpi\n      0x00\n      dup1\n      revert\n    tag_25:\n      pop\n      tag_26\n      0x04\n      dup1\n      calldatasize\n      sub\n      dup2\n      add\n      swap1\n      tag_27\n      swap2\n      swap1\n      tag_28\n      jump\t// in\n    tag_27:\n      tag_29\n      jump\t// in\n    tag_26:\n      stop\n        /* \"RWAPSSF.sol\":417:439  uint public reward = 0 */\n    tag_4:\n      callvalue\n      dup1\n      iszero\n      tag_30\n      jumpi\n      0x00\n      dup1\n      revert\n    tag_30:\n      pop\n      tag_31\n      tag_32\n      jump\t// in\n    tag_31:\n      mload(0x40)\n      tag_33\n      swap2\n      swap1\n      tag_24\n      jump\t// in\n    tag_33:\n      mload(0x40)\n      dup1\n      swap2\n      sub\n      swap1\n      return\n        /* \"RWAPSSF.sol\":573:615  uint public constant IDLE_TIME = 5 minutes */\n    tag_5:\n      callvalue\n      dup1\n      iszero\n      tag_34\n      jumpi\n      0x00\n      dup1\n      revert\n    tag_34:\n      pop\n      tag_35\n      tag_36\n      jump\t// in\n    tag_35:\n      mload(0x40)\n      tag_37\n      swap2\n      swap1\n      tag_24\n      jump\t// in\n    tag_37:\n      mload(0x40)\n      dup1\n      swap2\n      sub\n      swap1\n      return\n        /* \"RWAPSSF.sol\":1610:1950  function addPlayer() public payable {... */\n    tag_6:\n      tag_38\n      tag_39\n      jump\t// in\n    tag_38:\n      stop\n        /* \"CommitReveal.sol\":1824:1949  function getHash(bytes32 data) public view returns(bytes32){... */\n    tag_7:\n      callvalue\n      dup1\n      iszero\n      tag_40\n      jumpi\n      0x00\n      dup1\n      revert\n    tag_40:\n      pop\n      tag_41\n      0x04\n      dup1\n      calldatasize\n      sub\n      dup2\n      add\n      swap1\n      tag_42\n      swap2\n      swap1\n      tag_43\n      jump\t// in\n    tag_42:\n      tag_44\n      jump\t// in\n    tag_41:\n      mload(0x40)\n      tag_45\n      swap2\n      swap1\n      tag_46\n      jump\t// in\n    tag_45:\n      mload(0x40)\n      dup1\n      swap2\n      sub\n      swap1\n      return\n        /* \"RWAPSSF.sol\":686:1024  function getHashChoice( uint choice1, uint choice2, string memory salt ) external pure returns ( bytes32 ) {... */\n    tag_8:\n      callvalue\n      dup1\n      iszero\n      tag_47\n      jumpi\n      0x00\n      dup1\n      revert\n    tag_47:\n      pop\n      tag_48\n      0x04\n      dup1\n      calldatasize\n      sub\n      dup2\n      add\n      swap1\n      tag_49\n      swap2\n      swap1\n      tag_50\n      jump\t// in\n    tag_49:\n      tag_51\n      jump\t// in\n    tag_48:\n      mload(0x40)\n      tag_52\n      swap2\n      swap1\n      tag_46\n      jump\t// in\n    tag_52:\n      mload(0x40)\n      dup1\n      swap2\n      sub\n      swap1\n      return\n        /* \"RWAPSSF.sol\":1032:1602  function getPlayerIdx() public view returns ( uint ) {... */\n    tag_9:\n      callvalue\n      dup1\n      iszero\n      tag_53\n      jumpi\n      0x00\n      dup1\n      revert\n    tag_53:\n      pop\n      tag_54\n      tag_55\n      jump\t// in\n    tag_54:\n      mload(0x40)\n      tag_56\n      swap2\n      swap1\n      tag_24\n      jump\t// in\n    tag_56:\n      mload(0x40)\n      dup1\n      swap2\n      sub\n      swap1\n      return\n        /* \"RWAPSSF.sol\":4862:6731  function refund() public {... */\n    tag_10:\n      callvalue\n      dup1\n      iszero\n      tag_57\n      jumpi\n      0x00\n      dup1\n      revert\n    tag_57:\n      pop\n      tag_58\n      tag_59\n      jump\t// in\n    tag_58:\n      stop\n        /* \"RWAPSSF.sol\":1958:2236  function inputHashChoice( bytes32 hashedChoice, uint idx ) public {... */\n    tag_11:\n      callvalue\n      dup1\n      iszero\n      tag_60\n      jumpi\n      0x00\n      dup1\n      revert\n    tag_60:\n      pop\n      tag_61\n      0x04\n      dup1\n      calldatasize\n      sub\n      dup2\n      add\n      swap1\n      tag_62\n      swap2\n      swap1\n      tag_63\n      jump\t// in\n    tag_62:\n      tag_64\n      jump\t// in\n    tag_61:\n      stop\n        /* \"RWAPSSF.sol\":520:566  uint public latestActionTime = block.timestamp */\n    tag_12:\n      callvalue\n      dup1\n      iszero\n      tag_65\n      jumpi\n      0x00\n      dup1\n      revert\n    tag_65:\n      pop\n      tag_66\n      tag_67\n      jump\t// in\n    tag_66:\n      mload(0x40)\n      tag_68\n      swap2\n      swap1\n      tag_24\n      jump\t// in\n    tag_68:\n      mload(0x40)\n      dup1\n      swap2\n      sub\n      swap1\n      return\n        /* \"CommitReveal.sol\":2530:2680  function getSaltedHash(bytes32 data,bytes32 salt) public view returns(bytes32){... */\n    tag_13:\n      callvalue\n      dup1\n      iszero\n      tag_69\n      jumpi\n      0x00\n      dup1\n      revert\n    tag_69:\n      pop\n      tag_70\n      0x04\n      dup1\n      calldatasize\n      sub\n      dup2\n      add\n      swap1\n      tag_71\n      swap2\n      swap1\n      tag_72\n      jump\t// in\n    tag_71:\n      tag_73\n      jump\t// in\n    tag_70:\n      mload(0x40)\n      tag_74\n      swap2\n      swap1\n      tag_46\n      jump\t// in\n    tag_74:\n      mload(0x40)\n      dup1\n      swap2\n      sub\n      swap1\n      return\n        /* \"RWAPSSF.sol\":385:410  uint public numPlayer = 0 */\n    tag_14:\n      callvalue\n      dup1\n      iszero\n      tag_75\n      jumpi\n      0x00\n      dup1\n      revert\n    tag_75:\n      pop\n      tag_76\n      tag_77\n      jump\t// in\n    tag_76:\n      mload(0x40)\n      tag_78\n      swap2\n      swap1\n      tag_24\n      jump\t// in\n    tag_78:\n      mload(0x40)\n      dup1\n      swap2\n      sub\n      swap1\n      return\n        /* \"RWAPSSF.sol\":340:378  mapping (uint => Player) public player */\n    tag_15:\n      callvalue\n      dup1\n      iszero\n      tag_79\n      jumpi\n      0x00\n      dup1\n      revert\n    tag_79:\n      pop\n      tag_80\n      0x04\n      dup1\n      calldatasize\n      sub\n      dup2\n      add\n      swap1\n      tag_81\n      swap2\n      swap1\n      tag_82\n      jump\t// in\n    tag_81:\n      tag_83\n      jump\t// in\n    tag_80:\n      mload(0x40)\n      tag_84\n      swap4\n      swap3\n      swap2\n      swap1\n      tag_85\n      jump\t// in\n    tag_84:\n      mload(0x40)\n      dup1\n      swap2\n      sub\n      swap1\n      return\n        /* \"RWAPSSF.sol\":477:507  uint public numHashedInput = 0 */\n    tag_16:\n      callvalue\n      dup1\n      iszero\n      tag_86\n      jumpi\n      0x00\n      dup1\n      revert\n    tag_86:\n      pop\n      tag_87\n      tag_88\n      jump\t// in\n    tag_87:\n      mload(0x40)\n      tag_89\n      swap2\n      swap1\n      tag_24\n      jump\t// in\n    tag_89:\n      mload(0x40)\n      dup1\n      swap2\n      sub\n      swap1\n      return\n        /* \"RWAPSSF.sol\":446:470  uint public numInput = 0 */\n    tag_22:\n      sload(0x05)\n      dup2\n      jump\t// out\n        /* \"RWAPSSF.sol\":2244:2961  function input(uint choice1, uint choice2, string memory salt, uint idx) public  {... */\n    tag_29:\n        /* \"RWAPSSF.sol\":2357:2358  2 */\n      0x02\n        /* \"RWAPSSF.sol\":2344:2353  numPlayer */\n      sload(0x03)\n        /* \"RWAPSSF.sol\":2344:2358  numPlayer == 2 */\n      eq\n        /* \"RWAPSSF.sol\":2336:2359  require(numPlayer == 2) */\n      tag_91\n      jumpi\n      0x00\n      dup1\n      revert\n    tag_91:\n        /* \"RWAPSSF.sol\":2392:2398  player */\n      0x02\n        /* \"RWAPSSF.sol\":2392:2403  player[idx] */\n      0x00\n        /* \"RWAPSSF.sol\":2399:2402  idx */\n      dup3\n        /* \"RWAPSSF.sol\":2392:2403  player[idx] */\n      dup2\n      mstore\n      0x20\n      add\n      swap1\n      dup2\n      mstore\n      0x20\n      add\n      0x00\n      keccak256\n        /* \"RWAPSSF.sol\":2392:2408  player[idx].addr */\n      0x02\n      add\n      0x00\n      swap1\n      sload\n      swap1\n      0x0100\n      exp\n      swap1\n      div\n      0xffffffffffffffffffffffffffffffffffffffff\n      and\n        /* \"RWAPSSF.sol\":2378:2408  msg.sender == player[idx].addr */\n      0xffffffffffffffffffffffffffffffffffffffff\n      and\n        /* \"RWAPSSF.sol\":2378:2388  msg.sender */\n      caller\n        /* \"RWAPSSF.sol\":2378:2408  msg.sender == player[idx].addr */\n      0xffffffffffffffffffffffffffffffffffffffff\n      and\n      eq\n        /* \"RWAPSSF.sol\":2370:2409  require(msg.sender == player[idx].addr) */\n      tag_92\n      jumpi\n      0x00\n      dup1\n      revert\n    tag_92:\n        /* \"RWAPSSF.sol\":2439:2440  0 */\n      0x00\n        /* \"RWAPSSF.sol\":2428:2435  choice1 */\n      dup5\n        /* \"RWAPSSF.sol\":2428:2440  choice1 >= 0 */\n      lt\n      iszero\n        /* \"RWAPSSF.sol\":2428:2456  choice1 >= 0 && choice1 <= 6 */\n      dup1\n      iszero\n      tag_93\n      jumpi\n      pop\n        /* \"RWAPSSF.sol\":2455:2456  6 */\n      0x06\n        /* \"RWAPSSF.sol\":2444:2451  choice1 */\n      dup5\n        /* \"RWAPSSF.sol\":2444:2456  choice1 <= 6 */\n      gt\n      iszero\n        /* \"RWAPSSF.sol\":2428:2456  choice1 >= 0 && choice1 <= 6 */\n    tag_93:\n        /* \"RWAPSSF.sol\":2420:2457  require(choice1 >= 0 && choice1 <= 6) */\n      tag_94\n      jumpi\n      0x00\n      dup1\n      revert\n    tag_94:\n        /* \"RWAPSSF.sol\":2487:2488  0 */\n      0x00\n        /* \"RWAPSSF.sol\":2476:2483  choice2 */\n      dup4\n        /* \"RWAPSSF.sol\":2476:2488  choice2 >= 0 */\n      lt\n      iszero\n        /* \"RWAPSSF.sol\":2476:2504  choice2 >= 0 && choice2 <= 6 */\n      dup1\n      iszero\n      tag_95\n      jumpi\n      pop\n        /* \"RWAPSSF.sol\":2503:2504  6 */\n      0x06\n        /* \"RWAPSSF.sol\":2492:2499  choice2 */\n      dup4\n        /* \"RWAPSSF.sol\":2492:2504  choice2 <= 6 */\n      gt\n      iszero\n        /* \"RWAPSSF.sol\":2476:2504  choice2 >= 0 && choice2 <= 6 */\n    tag_95:\n        /* \"RWAPSSF.sol\":2468:2505  require(choice2 >= 0 && choice2 <= 6) */\n      tag_96\n      jumpi\n      0x00\n      dup1\n      revert\n    tag_96:\n        /* \"RWAPSSF.sol\":2516:2536  bytes32 encodeChoice */\n      0x00\n        /* \"RWAPSSF.sol\":2566:2573  choice1 */\n      dup5\n        /* \"RWAPSSF.sol\":2575:2582  choice2 */\n      dup5\n        /* \"RWAPSSF.sol\":2548:2584  abi.encodePacked( choice1, choice2 ) */\n      add(0x20, mload(0x40))\n      tag_97\n      swap3\n      swap2\n      swap1\n      tag_98\n      jump\t// in\n    tag_97:\n      mload(0x40)\n      0x20\n      dup2\n      dup4\n      sub\n      sub\n      dup2\n      mstore\n      swap1\n      0x40\n      mstore\n        /* \"RWAPSSF.sol\":2539:2586  bytes32( abi.encodePacked( choice1, choice2 ) ) */\n      tag_99\n      swap1\n      tag_100\n      jump\t// in\n    tag_99:\n        /* \"RWAPSSF.sol\":2516:2586  bytes32 encodeChoice = bytes32( abi.encodePacked( choice1, choice2 ) ) */\n      swap1\n      pop\n        /* \"RWAPSSF.sol\":2597:2615  bytes32 encodeSalt */\n      0x00\n        /* \"RWAPSSF.sol\":2645:2649  salt */\n      dup4\n        /* \"RWAPSSF.sol\":2627:2651  abi.encodePacked( salt ) */\n      add(0x20, mload(0x40))\n      tag_101\n      swap2\n      swap1\n      tag_102\n      jump\t// in\n    tag_101:\n      mload(0x40)\n      0x20\n      dup2\n      dup4\n      sub\n      sub\n      dup2\n      mstore\n      swap1\n      0x40\n      mstore\n        /* \"RWAPSSF.sol\":2618:2653  bytes32( abi.encodePacked( salt ) ) */\n      tag_103\n      swap1\n      tag_100\n      jump\t// in\n    tag_103:\n        /* \"RWAPSSF.sol\":2597:2653  bytes32 encodeSalt = bytes32( abi.encodePacked( salt ) ) */\n      swap1\n      pop\n        /* \"RWAPSSF.sol\":2664:2731  reveal( keccak256( abi.encodePacked( encodeChoice, encodeSalt ) ) ) */\n      tag_104\n        /* \"RWAPSSF.sol\":2701:2713  encodeChoice */\n      dup3\n        /* \"RWAPSSF.sol\":2715:2725  encodeSalt */\n      dup3\n        /* \"RWAPSSF.sol\":2683:2727  abi.encodePacked( encodeChoice, encodeSalt ) */\n      add(0x20, mload(0x40))\n      tag_105\n      swap3\n      swap2\n      swap1\n      tag_106\n      jump\t// in\n    tag_105:\n      mload(0x40)\n      0x20\n      dup2\n      dup4\n      sub\n      sub\n      dup2\n      mstore\n      swap1\n      0x40\n      mstore\n        /* \"RWAPSSF.sol\":2672:2729  keccak256( abi.encodePacked( encodeChoice, encodeSalt ) ) */\n      dup1\n      mload\n      swap1\n      0x20\n      add\n      keccak256\n        /* \"RWAPSSF.sol\":2664:2670  reveal */\n      tag_107\n        /* \"RWAPSSF.sol\":2664:2731  reveal( keccak256( abi.encodePacked( encodeChoice, encodeSalt ) ) ) */\n      jump\t// in\n    tag_104:\n        /* \"RWAPSSF.sol\":2764:2771  choice1 */\n      dup6\n        /* \"RWAPSSF.sol\":2742:2748  player */\n      0x02\n        /* \"RWAPSSF.sol\":2742:2753  player[idx] */\n      0x00\n        /* \"RWAPSSF.sol\":2749:2752  idx */\n      dup6\n        /* \"RWAPSSF.sol\":2742:2753  player[idx] */\n      dup2\n      mstore\n      0x20\n      add\n      swap1\n      dup2\n      mstore\n      0x20\n      add\n      0x00\n      keccak256\n        /* \"RWAPSSF.sol\":2742:2761  player[idx].choice1 */\n      0x00\n      add\n        /* \"RWAPSSF.sol\":2742:2771  player[idx].choice1 = choice1 */\n      dup2\n      swap1\n      sstore\n      pop\n        /* \"RWAPSSF.sol\":2804:2811  choice2 */\n      dup5\n        /* \"RWAPSSF.sol\":2782:2788  player */\n      0x02\n        /* \"RWAPSSF.sol\":2782:2793  player[idx] */\n      0x00\n        /* \"RWAPSSF.sol\":2789:2792  idx */\n      dup6\n        /* \"RWAPSSF.sol\":2782:2793  player[idx] */\n      dup2\n      mstore\n      0x20\n      add\n      swap1\n      dup2\n      mstore\n      0x20\n      add\n      0x00\n      keccak256\n        /* \"RWAPSSF.sol\":2782:2801  player[idx].choice2 */\n      0x01\n      add\n        /* \"RWAPSSF.sol\":2782:2811  player[idx].choice2 = choice2 */\n      dup2\n      swap1\n      sstore\n      pop\n        /* \"RWAPSSF.sol\":2822:2830  numInput */\n      0x05\n      0x00\n        /* \"RWAPSSF.sol\":2822:2832  numInput++ */\n      dup2\n      sload\n      dup1\n      swap3\n      swap2\n      swap1\n      tag_108\n      swap1\n      tag_109\n      jump\t// in\n    tag_108:\n      swap2\n      swap1\n      pop\n      sstore\n      pop\n        /* \"RWAPSSF.sol\":2862:2877  block.timestamp */\n      timestamp\n        /* \"RWAPSSF.sol\":2843:2859  latestActionTime */\n      0x07\n        /* \"RWAPSSF.sol\":2843:2877  latestActionTime = block.timestamp */\n      dup2\n      swap1\n      sstore\n      pop\n        /* \"RWAPSSF.sol\":2904:2905  2 */\n      0x02\n        /* \"RWAPSSF.sol\":2892:2900  numInput */\n      sload(0x05)\n        /* \"RWAPSSF.sol\":2892:2905  numInput == 2 */\n      sub\n        /* \"RWAPSSF.sol\":2888:2954  if (numInput == 2) {... */\n      tag_110\n      jumpi\n        /* \"RWAPSSF.sol\":2922:2942  _checkWinnerAndPay() */\n      tag_111\n        /* \"RWAPSSF.sol\":2922:2940  _checkWinnerAndPay */\n      tag_112\n        /* \"RWAPSSF.sol\":2922:2942  _checkWinnerAndPay() */\n      jump\t// in\n    tag_111:\n        /* \"RWAPSSF.sol\":2888:2954  if (numInput == 2) {... */\n    tag_110:\n        /* \"RWAPSSF.sol\":2325:2961  {... */\n      pop\n      pop\n        /* \"RWAPSSF.sol\":2244:2961  function input(uint choice1, uint choice2, string memory salt, uint idx) public  {... */\n      pop\n      pop\n      pop\n      pop\n      jump\t// out\n        /* \"RWAPSSF.sol\":417:439  uint public reward = 0 */\n    tag_32:\n      sload(0x04)\n      dup2\n      jump\t// out\n        /* \"RWAPSSF.sol\":573:615  uint public constant IDLE_TIME = 5 minutes */\n    tag_36:\n        /* \"RWAPSSF.sol\":606:615  5 minutes */\n      0x012c\n        /* \"RWAPSSF.sol\":573:615  uint public constant IDLE_TIME = 5 minutes */\n      dup2\n      jump\t// out\n        /* \"RWAPSSF.sol\":1610:1950  function addPlayer() public payable {... */\n    tag_39:\n        /* \"RWAPSSF.sol\":1677:1678  2 */\n      0x02\n        /* \"RWAPSSF.sol\":1665:1674  numPlayer */\n      sload(0x03)\n        /* \"RWAPSSF.sol\":1665:1678  numPlayer < 2 */\n      lt\n        /* \"RWAPSSF.sol\":1657:1679  require(numPlayer < 2) */\n      tag_114\n      jumpi\n      0x00\n      dup1\n      revert\n    tag_114:\n        /* \"RWAPSSF.sol\":1711:1718  1 ether */\n      0x0de0b6b3a7640000\n        /* \"RWAPSSF.sol\":1698:1707  msg.value */\n      callvalue\n        /* \"RWAPSSF.sol\":1698:1718  msg.value == 1 ether */\n      eq\n        /* \"RWAPSSF.sol\":1690:1719  require(msg.value == 1 ether) */\n      tag_115\n      jumpi\n      0x00\n      dup1\n      revert\n    tag_115:\n        /* \"RWAPSSF.sol\":1740:1749  msg.value */\n      callvalue\n        /* \"RWAPSSF.sol\":1730:1736  reward */\n      0x04\n      0x00\n        /* \"RWAPSSF.sol\":1730:1749  reward += msg.value */\n      dup3\n      dup3\n      sload\n      tag_116\n      swap2\n      swap1\n      tag_117\n      jump\t// in\n    tag_116:\n      swap3\n      pop\n      pop\n      dup2\n      swap1\n      sstore\n      pop\n        /* \"RWAPSSF.sol\":1785:1795  msg.sender */\n      caller\n        /* \"RWAPSSF.sol\":1760:1766  player */\n      0x02\n        /* \"RWAPSSF.sol\":1760:1777  player[numPlayer] */\n      0x00\n        /* \"RWAPSSF.sol\":1767:1776  numPlayer */\n      sload(0x03)\n        /* \"RWAPSSF.sol\":1760:1777  player[numPlayer] */\n      dup2\n      mstore\n      0x20\n      add\n      swap1\n      dup2\n      mstore\n      0x20\n      add\n      0x00\n      keccak256\n        /* \"RWAPSSF.sol\":1760:1782  player[numPlayer].addr */\n      0x02\n      add\n      0x00\n        /* \"RWAPSSF.sol\":1760:1795  player[numPlayer].addr = msg.sender */\n      0x0100\n      exp\n      dup2\n      sload\n      dup2\n      0xffffffffffffffffffffffffffffffffffffffff\n      mul\n      not\n      and\n      swap1\n      dup4\n      0xffffffffffffffffffffffffffffffffffffffff\n      and\n      mul\n      or\n      swap1\n      sstore\n      pop\n        /* \"RWAPSSF.sol\":1834:1835  7 */\n      0x07\n        /* \"RWAPSSF.sol\":1806:1812  player */\n      0x02\n        /* \"RWAPSSF.sol\":1806:1823  player[numPlayer] */\n      0x00\n        /* \"RWAPSSF.sol\":1813:1822  numPlayer */\n      sload(0x03)\n        /* \"RWAPSSF.sol\":1806:1823  player[numPlayer] */\n      dup2\n      mstore\n      0x20\n      add\n      swap1\n      dup2\n      mstore\n      0x20\n      add\n      0x00\n      keccak256\n        /* \"RWAPSSF.sol\":1806:1831  player[numPlayer].choice1 */\n      0x00\n      add\n        /* \"RWAPSSF.sol\":1806:1835  player[numPlayer].choice1 = 7 */\n      dup2\n      swap1\n      sstore\n      pop\n        /* \"RWAPSSF.sol\":1874:1875  7 */\n      0x07\n        /* \"RWAPSSF.sol\":1846:1852  player */\n      0x02\n        /* \"RWAPSSF.sol\":1846:1863  player[numPlayer] */\n      0x00\n        /* \"RWAPSSF.sol\":1853:1862  numPlayer */\n      sload(0x03)\n        /* \"RWAPSSF.sol\":1846:1863  player[numPlayer] */\n      dup2\n      mstore\n      0x20\n      add\n      swap1\n      dup2\n      mstore\n      0x20\n      add\n      0x00\n      keccak256\n        /* \"RWAPSSF.sol\":1846:1871  player[numPlayer].choice2 */\n      0x01\n      add\n        /* \"RWAPSSF.sol\":1846:1875  player[numPlayer].choice2 = 7 */\n      dup2\n      swap1\n      sstore\n      pop\n        /* \"RWAPSSF.sol\":1886:1895  numPlayer */\n      0x03\n      0x00\n        /* \"RWAPSSF.sol\":1886:1897  numPlayer++ */\n      dup2\n      sload\n      dup1\n      swap3\n      swap2\n      swap1\n      tag_118\n      swap1\n      tag_109\n      jump\t// in\n    tag_118:\n      swap2\n      swap1\n      pop\n      sstore\n      pop\n        /* \"RWAPSSF.sol\":1927:1942  block.timestamp */\n      timestamp\n        /* \"RWAPSSF.sol\":1908:1924  latestActionTime */\n      0x07\n        /* \"RWAPSSF.sol\":1908:1942  latestActionTime = block.timestamp */\n      dup2\n      swap1\n      sstore\n      pop\n        /* \"RWAPSSF.sol\":1610:1950  function addPlayer() public payable {... */\n      jump\t// out\n        /* \"CommitReveal.sol\":1824:1949  function getHash(bytes32 data) public view returns(bytes32){... */\n    tag_44:\n        /* \"CommitReveal.sol\":1875:1882  bytes32 */\n      0x00\n        /* \"CommitReveal.sol\":1931:1935  this */\n      address\n        /* \"CommitReveal.sol\":1938:1942  data */\n      dup3\n        /* \"CommitReveal.sol\":1906:1943  abi.encodePacked(address(this), data) */\n      add(0x20, mload(0x40))\n      tag_120\n      swap3\n      swap2\n      swap1\n      tag_121\n      jump\t// in\n    tag_120:\n      mload(0x40)\n      0x20\n      dup2\n      dup4\n      sub\n      sub\n      dup2\n      mstore\n      swap1\n      0x40\n      mstore\n        /* \"CommitReveal.sol\":1896:1944  keccak256(abi.encodePacked(address(this), data)) */\n      dup1\n      mload\n      swap1\n      0x20\n      add\n      keccak256\n        /* \"CommitReveal.sol\":1889:1944  return keccak256(abi.encodePacked(address(this), data)) */\n      swap1\n      pop\n        /* \"CommitReveal.sol\":1824:1949  function getHash(bytes32 data) public view returns(bytes32){... */\n      swap2\n      swap1\n      pop\n      jump\t// out\n        /* \"RWAPSSF.sol\":686:1024  function getHashChoice( uint choice1, uint choice2, string memory salt ) external pure returns ( bytes32 ) {... */\n    tag_51:\n        /* \"RWAPSSF.sol\":783:790  bytes32 */\n      0x00\n        /* \"RWAPSSF.sol\":804:824  bytes32 encodeChoice */\n      dup1\n        /* \"RWAPSSF.sol\":854:861  choice1 */\n      dup5\n        /* \"RWAPSSF.sol\":863:870  choice2 */\n      dup5\n        /* \"RWAPSSF.sol\":836:872  abi.encodePacked( choice1, choice2 ) */\n      add(0x20, mload(0x40))\n      tag_123\n      swap3\n      swap2\n      swap1\n      tag_98\n      jump\t// in\n    tag_123:\n      mload(0x40)\n      0x20\n      dup2\n      dup4\n      sub\n      sub\n      dup2\n      mstore\n      swap1\n      0x40\n      mstore\n        /* \"RWAPSSF.sol\":827:874  bytes32( abi.encodePacked( choice1, choice2 ) ) */\n      tag_124\n      swap1\n      tag_100\n      jump\t// in\n    tag_124:\n        /* \"RWAPSSF.sol\":804:874  bytes32 encodeChoice = bytes32( abi.encodePacked( choice1, choice2 ) ) */\n      swap1\n      pop\n        /* \"RWAPSSF.sol\":885:903  bytes32 encodeSalt */\n      0x00\n        /* \"RWAPSSF.sol\":933:937  salt */\n      dup4\n        /* \"RWAPSSF.sol\":915:939  abi.encodePacked( salt ) */\n      add(0x20, mload(0x40))\n      tag_125\n      swap2\n      swap1\n      tag_102\n      jump\t// in\n    tag_125:\n      mload(0x40)\n      0x20\n      dup2\n      dup4\n      sub\n      sub\n      dup2\n      mstore\n      swap1\n      0x40\n      mstore\n        /* \"RWAPSSF.sol\":906:941  bytes32( abi.encodePacked( salt ) ) */\n      tag_126\n      swap1\n      tag_100\n      jump\t// in\n    tag_126:\n        /* \"RWAPSSF.sol\":885:941  bytes32 encodeSalt = bytes32( abi.encodePacked( salt ) ) */\n      swap1\n      pop\n        /* \"RWAPSSF.sol\":988:1000  encodeChoice */\n      dup2\n        /* \"RWAPSSF.sol\":1002:1012  encodeSalt */\n      dup2\n        /* \"RWAPSSF.sol\":970:1014  abi.encodePacked( encodeChoice, encodeSalt ) */\n      add(0x20, mload(0x40))\n      tag_127\n      swap3\n      swap2\n      swap1\n      tag_106\n      jump\t// in\n    tag_127:\n      mload(0x40)\n      0x20\n      dup2\n      dup4\n      sub\n      sub\n      dup2\n      mstore\n      swap1\n      0x40\n      mstore\n        /* \"RWAPSSF.sol\":959:1016  keccak256( abi.encodePacked( encodeChoice, encodeSalt ) ) */\n      dup1\n      mload\n      swap1\n      0x20\n      add\n      keccak256\n        /* \"RWAPSSF.sol\":952:1016  return keccak256( abi.encodePacked( encodeChoice, encodeSalt ) ) */\n      swap3\n      pop\n      pop\n      pop\n        /* \"RWAPSSF.sol\":686:1024  function getHashChoice( uint choice1, uint choice2, string memory salt ) external pure returns ( bytes32 ) {... */\n      swap4\n      swap3\n      pop\n      pop\n      pop\n      jump\t// out\n        /* \"RWAPSSF.sol\":1032:1602  function getPlayerIdx() public view returns ( uint ) {... */\n    tag_55:\n        /* \"RWAPSSF.sol\":1078:1082  uint */\n      0x00\n        /* \"RWAPSSF.sol\":1117:1118  0 */\n      dup1\n        /* \"RWAPSSF.sol\":1105:1114  numPlayer */\n      sload(0x03)\n        /* \"RWAPSSF.sol\":1105:1118  numPlayer > 0 */\n      gt\n        /* \"RWAPSSF.sol\":1096:1120  require( numPlayer > 0 ) */\n      tag_129\n      jumpi\n      0x00\n      dup1\n      revert\n    tag_129:\n        /* \"RWAPSSF.sol\":1148:1149  1 */\n      0x01\n        /* \"RWAPSSF.sol\":1135:1144  numPlayer */\n      sload(0x03)\n        /* \"RWAPSSF.sol\":1135:1149  numPlayer == 1 */\n      sub\n        /* \"RWAPSSF.sol\":1131:1561  if( numPlayer == 1 ){... */\n      tag_130\n      jumpi\n        /* \"RWAPSSF.sol\":1189:1195  player */\n      0x02\n        /* \"RWAPSSF.sol\":1189:1198  player[0] */\n      0x00\n        /* \"RWAPSSF.sol\":1196:1197  0 */\n      dup1\n        /* \"RWAPSSF.sol\":1189:1198  player[0] */\n      dup2\n      mstore\n      0x20\n      add\n      swap1\n      dup2\n      mstore\n      0x20\n      add\n      0x00\n      keccak256\n        /* \"RWAPSSF.sol\":1189:1203  player[0].addr */\n      0x02\n      add\n      0x00\n      swap1\n      sload\n      swap1\n      0x0100\n      exp\n      swap1\n      div\n      0xffffffffffffffffffffffffffffffffffffffff\n      and\n        /* \"RWAPSSF.sol\":1175:1203  msg.sender == player[0].addr */\n      0xffffffffffffffffffffffffffffffffffffffff\n      and\n        /* \"RWAPSSF.sol\":1175:1185  msg.sender */\n      caller\n        /* \"RWAPSSF.sol\":1175:1203  msg.sender == player[0].addr */\n      0xffffffffffffffffffffffffffffffffffffffff\n      and\n      eq\n        /* \"RWAPSSF.sol\":1166:1205  require( msg.sender == player[0].addr ) */\n      tag_131\n      jumpi\n      0x00\n      dup1\n      revert\n    tag_131:\n        /* \"RWAPSSF.sol\":1227:1228  0 */\n      0x00\n        /* \"RWAPSSF.sol\":1220:1228  return 0 */\n      swap1\n      pop\n      jump(tag_128)\n        /* \"RWAPSSF.sol\":1131:1561  if( numPlayer == 1 ){... */\n    tag_130:\n        /* \"RWAPSSF.sol\":1272:1273  2 */\n      0x02\n        /* \"RWAPSSF.sol\":1259:1268  numPlayer */\n      sload(0x03)\n        /* \"RWAPSSF.sol\":1259:1273  numPlayer == 2 */\n      sub\n        /* \"RWAPSSF.sol\":1255:1561  if( numPlayer == 2 ){... */\n      tag_133\n      jumpi\n        /* \"RWAPSSF.sol\":1313:1319  player */\n      0x02\n        /* \"RWAPSSF.sol\":1313:1322  player[0] */\n      0x00\n        /* \"RWAPSSF.sol\":1320:1321  0 */\n      dup1\n        /* \"RWAPSSF.sol\":1313:1322  player[0] */\n      dup2\n      mstore\n      0x20\n      add\n      swap1\n      dup2\n      mstore\n      0x20\n      add\n      0x00\n      keccak256\n        /* \"RWAPSSF.sol\":1313:1327  player[0].addr */\n      0x02\n      add\n      0x00\n      swap1\n      sload\n      swap1\n      0x0100\n      exp\n      swap1\n      div\n      0xffffffffffffffffffffffffffffffffffffffff\n      and\n        /* \"RWAPSSF.sol\":1299:1327  msg.sender == player[0].addr */\n      0xffffffffffffffffffffffffffffffffffffffff\n      and\n        /* \"RWAPSSF.sol\":1299:1309  msg.sender */\n      caller\n        /* \"RWAPSSF.sol\":1299:1327  msg.sender == player[0].addr */\n      0xffffffffffffffffffffffffffffffffffffffff\n      and\n      eq\n        /* \"RWAPSSF.sol\":1299:1359  msg.sender == player[0].addr || msg.sender == player[1].addr */\n      dup1\n      tag_134\n      jumpi\n      pop\n        /* \"RWAPSSF.sol\":1345:1351  player */\n      0x02\n        /* \"RWAPSSF.sol\":1345:1354  player[1] */\n      0x00\n        /* \"RWAPSSF.sol\":1352:1353  1 */\n      0x01\n        /* \"RWAPSSF.sol\":1345:1354  player[1] */\n      dup2\n      mstore\n      0x20\n      add\n      swap1\n      dup2\n      mstore\n      0x20\n      add\n      0x00\n      keccak256\n        /* \"RWAPSSF.sol\":1345:1359  player[1].addr */\n      0x02\n      add\n      0x00\n      swap1\n      sload\n      swap1\n      0x0100\n      exp\n      swap1\n      div\n      0xffffffffffffffffffffffffffffffffffffffff\n      and\n        /* \"RWAPSSF.sol\":1331:1359  msg.sender == player[1].addr */\n      0xffffffffffffffffffffffffffffffffffffffff\n      and\n        /* \"RWAPSSF.sol\":1331:1341  msg.sender */\n      caller\n        /* \"RWAPSSF.sol\":1331:1359  msg.sender == player[1].addr */\n      0xffffffffffffffffffffffffffffffffffffffff\n      and\n      eq\n        /* \"RWAPSSF.sol\":1299:1359  msg.sender == player[0].addr || msg.sender == player[1].addr */\n    tag_134:\n        /* \"RWAPSSF.sol\":1290:1361  require( msg.sender == player[0].addr || msg.sender == player[1].addr ) */\n      tag_135\n      jumpi\n      0x00\n      dup1\n      revert\n    tag_135:\n        /* \"RWAPSSF.sol\":1394:1400  player */\n      0x02\n        /* \"RWAPSSF.sol\":1394:1403  player[0] */\n      0x00\n        /* \"RWAPSSF.sol\":1401:1402  0 */\n      dup1\n        /* \"RWAPSSF.sol\":1394:1403  player[0] */\n      dup2\n      mstore\n      0x20\n      add\n      swap1\n      dup2\n      mstore\n      0x20\n      add\n      0x00\n      keccak256\n        /* \"RWAPSSF.sol\":1394:1408  player[0].addr */\n      0x02\n      add\n      0x00\n      swap1\n      sload\n      swap1\n      0x0100\n      exp\n      swap1\n      div\n      0xffffffffffffffffffffffffffffffffffffffff\n      and\n        /* \"RWAPSSF.sol\":1380:1408  msg.sender == player[0].addr */\n      0xffffffffffffffffffffffffffffffffffffffff\n      and\n        /* \"RWAPSSF.sol\":1380:1390  msg.sender */\n      caller\n        /* \"RWAPSSF.sol\":1380:1408  msg.sender == player[0].addr */\n      0xffffffffffffffffffffffffffffffffffffffff\n      and\n      sub\n        /* \"RWAPSSF.sol\":1376:1550  if( msg.sender == player[0].addr ){... */\n      tag_136\n      jumpi\n        /* \"RWAPSSF.sol\":1436:1437  0 */\n      0x00\n        /* \"RWAPSSF.sol\":1429:1437  return 0 */\n      swap1\n      pop\n      jump(tag_128)\n        /* \"RWAPSSF.sol\":1376:1550  if( msg.sender == player[0].addr ){... */\n    tag_136:\n        /* \"RWAPSSF.sol\":1490:1496  player */\n      0x02\n        /* \"RWAPSSF.sol\":1490:1499  player[1] */\n      0x00\n        /* \"RWAPSSF.sol\":1497:1498  1 */\n      0x01\n        /* \"RWAPSSF.sol\":1490:1499  player[1] */\n      dup2\n      mstore\n      0x20\n      add\n      swap1\n      dup2\n      mstore\n      0x20\n      add\n      0x00\n      keccak256\n        /* \"RWAPSSF.sol\":1490:1504  player[1].addr */\n      0x02\n      add\n      0x00\n      swap1\n      sload\n      swap1\n      0x0100\n      exp\n      swap1\n      div\n      0xffffffffffffffffffffffffffffffffffffffff\n      and\n        /* \"RWAPSSF.sol\":1476:1504  msg.sender == player[1].addr */\n      0xffffffffffffffffffffffffffffffffffffffff\n      and\n        /* \"RWAPSSF.sol\":1476:1486  msg.sender */\n      caller\n        /* \"RWAPSSF.sol\":1476:1504  msg.sender == player[1].addr */\n      0xffffffffffffffffffffffffffffffffffffffff\n      and\n      sub\n        /* \"RWAPSSF.sol\":1472:1550  if( msg.sender == player[1].addr ){... */\n      tag_138\n      jumpi\n        /* \"RWAPSSF.sol\":1532:1533  1 */\n      0x01\n        /* \"RWAPSSF.sol\":1525:1533  return 1 */\n      swap1\n      pop\n      jump(tag_128)\n        /* \"RWAPSSF.sol\":1472:1550  if( msg.sender == player[1].addr ){... */\n    tag_138:\n        /* \"RWAPSSF.sol\":1255:1561  if( numPlayer == 2 ){... */\n    tag_133:\n        /* \"RWAPSSF.sol\":1571:1594  revert(\"Invalid state\") */\n      mload(0x40)\n      0x08c379a000000000000000000000000000000000000000000000000000000000\n      dup2\n      mstore\n      0x04\n      add\n      tag_139\n      swap1\n      tag_140\n      jump\t// in\n    tag_139:\n      mload(0x40)\n      dup1\n      swap2\n      sub\n      swap1\n      revert\n        /* \"RWAPSSF.sol\":1032:1602  function getPlayerIdx() public view returns ( uint ) {... */\n    tag_128:\n      swap1\n      jump\t// out\n        /* \"RWAPSSF.sol\":4862:6731  function refund() public {... */\n    tag_59:\n        /* \"RWAPSSF.sol\":606:615  5 minutes */\n      0x012c\n        /* \"RWAPSSF.sol\":4935:4951  latestActionTime */\n      sload(0x07)\n        /* \"RWAPSSF.sol\":4917:4932  block.timestamp */\n      timestamp\n        /* \"RWAPSSF.sol\":4917:4951  block.timestamp - latestActionTime */\n      tag_142\n      swap2\n      swap1\n      tag_143\n      jump\t// in\n    tag_142:\n        /* \"RWAPSSF.sol\":4917:4963  block.timestamp - latestActionTime > IDLE_TIME */\n      gt\n        /* \"RWAPSSF.sol\":4908:4965  require( block.timestamp - latestActionTime > IDLE_TIME ) */\n      tag_144\n      jumpi\n      0x00\n      dup1\n      revert\n    tag_144:\n        /* \"RWAPSSF.sol\":5016:5017  0 */\n      0x00\n        /* \"RWAPSSF.sol\":5004:5013  numPlayer */\n      sload(0x03)\n        /* \"RWAPSSF.sol\":5004:5017  numPlayer > 0 */\n      gt\n        /* \"RWAPSSF.sol\":4995:5019  require( numPlayer > 0 ) */\n      tag_145\n      jumpi\n      0x00\n      dup1\n      revert\n    tag_145:\n        /* \"RWAPSSF.sol\":5112:5113  1 */\n      0x01\n        /* \"RWAPSSF.sol\":5099:5108  numPlayer */\n      sload(0x03)\n        /* \"RWAPSSF.sol\":5099:5113  numPlayer == 1 */\n      sub\n        /* \"RWAPSSF.sol\":5095:6722  if( numPlayer == 1 ) {... */\n      tag_146\n      jumpi\n        /* \"RWAPSSF.sol\":5154:5160  player */\n      0x02\n        /* \"RWAPSSF.sol\":5154:5163  player[0] */\n      0x00\n        /* \"RWAPSSF.sol\":5161:5162  0 */\n      dup1\n        /* \"RWAPSSF.sol\":5154:5163  player[0] */\n      dup2\n      mstore\n      0x20\n      add\n      swap1\n      dup2\n      mstore\n      0x20\n      add\n      0x00\n      keccak256\n        /* \"RWAPSSF.sol\":5154:5168  player[0].addr */\n      0x02\n      add\n      0x00\n      swap1\n      sload\n      swap1\n      0x0100\n      exp\n      swap1\n      div\n      0xffffffffffffffffffffffffffffffffffffffff\n      and\n        /* \"RWAPSSF.sol\":5140:5168  msg.sender == player[0].addr */\n      0xffffffffffffffffffffffffffffffffffffffff\n      and\n        /* \"RWAPSSF.sol\":5140:5150  msg.sender */\n      caller\n        /* \"RWAPSSF.sol\":5140:5168  msg.sender == player[0].addr */\n      0xffffffffffffffffffffffffffffffffffffffff\n      and\n      eq\n        /* \"RWAPSSF.sol\":5131:5170  require( msg.sender == player[0].addr ) */\n      tag_147\n      jumpi\n      0x00\n      dup1\n      revert\n    tag_147:\n        /* \"RWAPSSF.sol\":5230:5253  address payable account */\n      0x00\n        /* \"RWAPSSF.sol\":5265:5271  player */\n      0x02\n        /* \"RWAPSSF.sol\":5265:5274  player[0] */\n      0x00\n        /* \"RWAPSSF.sol\":5272:5273  0 */\n      dup1\n        /* \"RWAPSSF.sol\":5265:5274  player[0] */\n      dup2\n      mstore\n      0x20\n      add\n      swap1\n      dup2\n      mstore\n      0x20\n      add\n      0x00\n      keccak256\n        /* \"RWAPSSF.sol\":5265:5279  player[0].addr */\n      0x02\n      add\n      0x00\n      swap1\n      sload\n      swap1\n      0x0100\n      exp\n      swap1\n      div\n      0xffffffffffffffffffffffffffffffffffffffff\n      and\n        /* \"RWAPSSF.sol\":5230:5281  address payable account = payable( player[0].addr ) */\n      swap1\n      pop\n        /* \"RWAPSSF.sol\":5296:5303  account */\n      dup1\n        /* \"RWAPSSF.sol\":5296:5312  account.transfer */\n      0xffffffffffffffffffffffffffffffffffffffff\n      and\n        /* \"RWAPSSF.sol\":5296:5322  account.transfer( reward ) */\n      0x08fc\n        /* \"RWAPSSF.sol\":5314:5320  reward */\n      sload(0x04)\n        /* \"RWAPSSF.sol\":5296:5322  account.transfer( reward ) */\n      swap1\n      dup2\n      iszero\n      mul\n      swap1\n      mload(0x40)\n      0x00\n      mload(0x40)\n      dup1\n      dup4\n      sub\n      dup2\n      dup6\n      dup9\n      dup9\n      call\n      swap4\n      pop\n      pop\n      pop\n      pop\n      iszero\n      dup1\n      iszero\n      tag_149\n      jumpi\n      returndatasize\n      0x00\n      dup1\n      returndatacopy\n      revert(0x00, returndatasize)\n    tag_149:\n      pop\n        /* \"RWAPSSF.sol\":5337:5349  _resetGame() */\n      tag_150\n        /* \"RWAPSSF.sol\":5337:5347  _resetGame */\n      tag_151\n        /* \"RWAPSSF.sol\":5337:5349  _resetGame() */\n      jump\t// in\n    tag_150:\n        /* \"RWAPSSF.sol\":5116:5361  {... */\n      pop\n        /* \"RWAPSSF.sol\":5095:6722  if( numPlayer == 1 ) {... */\n      jump(tag_152)\n    tag_146:\n        /* \"RWAPSSF.sol\":5393:5394  2 */\n      0x02\n        /* \"RWAPSSF.sol\":5380:5389  numPlayer */\n      sload(0x03)\n        /* \"RWAPSSF.sol\":5380:5394  numPlayer == 2 */\n      sub\n        /* \"RWAPSSF.sol\":5376:6722  if( numPlayer == 2 ){... */\n      tag_153\n      jumpi\n        /* \"RWAPSSF.sol\":5434:5440  player */\n      0x02\n        /* \"RWAPSSF.sol\":5434:5443  player[0] */\n      0x00\n        /* \"RWAPSSF.sol\":5441:5442  0 */\n      dup1\n        /* \"RWAPSSF.sol\":5434:5443  player[0] */\n      dup2\n      mstore\n      0x20\n      add\n      swap1\n      dup2\n      mstore\n      0x20\n      add\n      0x00\n      keccak256\n        /* \"RWAPSSF.sol\":5434:5448  player[0].addr */\n      0x02\n      add\n      0x00\n      swap1\n      sload\n      swap1\n      0x0100\n      exp\n      swap1\n      div\n      0xffffffffffffffffffffffffffffffffffffffff\n      and\n        /* \"RWAPSSF.sol\":5420:5448  msg.sender == player[0].addr */\n      0xffffffffffffffffffffffffffffffffffffffff\n      and\n        /* \"RWAPSSF.sol\":5420:5430  msg.sender */\n      caller\n        /* \"RWAPSSF.sol\":5420:5448  msg.sender == player[0].addr */\n      0xffffffffffffffffffffffffffffffffffffffff\n      and\n      eq\n        /* \"RWAPSSF.sol\":5420:5480  msg.sender == player[0].addr || msg.sender == player[1].addr */\n      dup1\n      tag_154\n      jumpi\n      pop\n        /* \"RWAPSSF.sol\":5466:5472  player */\n      0x02\n        /* \"RWAPSSF.sol\":5466:5475  player[1] */\n      0x00\n        /* \"RWAPSSF.sol\":5473:5474  1 */\n      0x01\n        /* \"RWAPSSF.sol\":5466:5475  player[1] */\n      dup2\n      mstore\n      0x20\n      add\n      swap1\n      dup2\n      mstore\n      0x20\n      add\n      0x00\n      keccak256\n        /* \"RWAPSSF.sol\":5466:5480  player[1].addr */\n      0x02\n      add\n      0x00\n      swap1\n      sload\n      swap1\n      0x0100\n      exp\n      swap1\n      div\n      0xffffffffffffffffffffffffffffffffffffffff\n      and\n        /* \"RWAPSSF.sol\":5452:5480  msg.sender == player[1].addr */\n      0xffffffffffffffffffffffffffffffffffffffff\n      and\n        /* \"RWAPSSF.sol\":5452:5462  msg.sender */\n      caller\n        /* \"RWAPSSF.sol\":5452:5480  msg.sender == player[1].addr */\n      0xffffffffffffffffffffffffffffffffffffffff\n      and\n      eq\n        /* \"RWAPSSF.sol\":5420:5480  msg.sender == player[0].addr || msg.sender == player[1].addr */\n    tag_154:\n        /* \"RWAPSSF.sol\":5411:5482  require( msg.sender == player[0].addr || msg.sender == player[1].addr ) */\n      tag_155\n      jumpi\n      0x00\n      dup1\n      revert\n    tag_155:\n        /* \"RWAPSSF.sol\":5602:5603  0 */\n      0x00\n        /* \"RWAPSSF.sol\":5590:5598  numInput */\n      sload(0x05)\n        /* \"RWAPSSF.sol\":5590:5603  numInput == 0 */\n      sub\n        /* \"RWAPSSF.sol\":5586:6711  if( numInput == 0 ){... */\n      tag_156\n      jumpi\n        /* \"RWAPSSF.sol\":5663:5687  address payable account0 */\n      0x00\n        /* \"RWAPSSF.sol\":5699:5705  player */\n      0x02\n        /* \"RWAPSSF.sol\":5699:5708  player[0] */\n      0x00\n        /* \"RWAPSSF.sol\":5706:5707  0 */\n      dup1\n        /* \"RWAPSSF.sol\":5699:5708  player[0] */\n      dup2\n      mstore\n      0x20\n      add\n      swap1\n      dup2\n      mstore\n      0x20\n      add\n      0x00\n      keccak256\n        /* \"RWAPSSF.sol\":5699:5713  player[0].addr */\n      0x02\n      add\n      0x00\n      swap1\n      sload\n      swap1\n      0x0100\n      exp\n      swap1\n      div\n      0xffffffffffffffffffffffffffffffffffffffff\n      and\n        /* \"RWAPSSF.sol\":5663:5715  address payable account0 = payable( player[0].addr ) */\n      swap1\n      pop\n        /* \"RWAPSSF.sol\":5734:5758  address payable account1 */\n      0x00\n        /* \"RWAPSSF.sol\":5770:5776  player */\n      0x02\n        /* \"RWAPSSF.sol\":5770:5779  player[1] */\n      0x00\n        /* \"RWAPSSF.sol\":5777:5778  1 */\n      0x01\n        /* \"RWAPSSF.sol\":5770:5779  player[1] */\n      dup2\n      mstore\n      0x20\n      add\n      swap1\n      dup2\n      mstore\n      0x20\n      add\n      0x00\n      keccak256\n        /* \"RWAPSSF.sol\":5770:5784  player[1].addr */\n      0x02\n      add\n      0x00\n      swap1\n      sload\n      swap1\n      0x0100\n      exp\n      swap1\n      div\n      0xffffffffffffffffffffffffffffffffffffffff\n      and\n        /* \"RWAPSSF.sol\":5734:5786  address payable account1 = payable( player[1].addr ) */\n      swap1\n      pop\n        /* \"RWAPSSF.sol\":5805:5813  account0 */\n      dup2\n        /* \"RWAPSSF.sol\":5805:5822  account0.transfer */\n      0xffffffffffffffffffffffffffffffffffffffff\n      and\n        /* \"RWAPSSF.sol\":5805:5836  account0.transfer( reward / 2 ) */\n      0x08fc\n        /* \"RWAPSSF.sol\":5833:5834  2 */\n      0x02\n        /* \"RWAPSSF.sol\":5824:5830  reward */\n      sload(0x04)\n        /* \"RWAPSSF.sol\":5824:5834  reward / 2 */\n      tag_157\n      swap2\n      swap1\n      tag_158\n      jump\t// in\n    tag_157:\n        /* \"RWAPSSF.sol\":5805:5836  account0.transfer( reward / 2 ) */\n      swap1\n      dup2\n      iszero\n      mul\n      swap1\n      mload(0x40)\n      0x00\n      mload(0x40)\n      dup1\n      dup4\n      sub\n      dup2\n      dup6\n      dup9\n      dup9\n      call\n      swap4\n      pop\n      pop\n      pop\n      pop\n      iszero\n      dup1\n      iszero\n      tag_160\n      jumpi\n      returndatasize\n      0x00\n      dup1\n      returndatacopy\n      revert(0x00, returndatasize)\n    tag_160:\n      pop\n        /* \"RWAPSSF.sol\":5855:5863  account1 */\n      dup1\n        /* \"RWAPSSF.sol\":5855:5872  account1.transfer */\n      0xffffffffffffffffffffffffffffffffffffffff\n      and\n        /* \"RWAPSSF.sol\":5855:5886  account1.transfer( reward / 2 ) */\n      0x08fc\n        /* \"RWAPSSF.sol\":5883:5884  2 */\n      0x02\n        /* \"RWAPSSF.sol\":5874:5880  reward */\n      sload(0x04)\n        /* \"RWAPSSF.sol\":5874:5884  reward / 2 */\n      tag_161\n      swap2\n      swap1\n      tag_158\n      jump\t// in\n    tag_161:\n        /* \"RWAPSSF.sol\":5855:5886  account1.transfer( reward / 2 ) */\n      swap1\n      dup2\n      iszero\n      mul\n      swap1\n      mload(0x40)\n      0x00\n      mload(0x40)\n      dup1\n      dup4\n      sub\n      dup2\n      dup6\n      dup9\n      dup9\n      call\n      swap4\n      pop\n      pop\n      pop\n      pop\n      iszero\n      dup1\n      iszero\n      tag_163\n      jumpi\n      returndatasize\n      0x00\n      dup1\n      returndatacopy\n      revert(0x00, returndatasize)\n    tag_163:\n      pop\n        /* \"RWAPSSF.sol\":5905:5917  _resetGame() */\n      tag_164\n        /* \"RWAPSSF.sol\":5905:5915  _resetGame */\n      tag_151\n        /* \"RWAPSSF.sol\":5905:5917  _resetGame() */\n      jump\t// in\n    tag_164:\n        /* \"RWAPSSF.sol\":5605:5933  {... */\n      pop\n      pop\n        /* \"RWAPSSF.sol\":5586:6711  if( numInput == 0 ){... */\n      jump(tag_165)\n    tag_156:\n        /* \"RWAPSSF.sol\":6031:6032  1 */\n      0x01\n        /* \"RWAPSSF.sol\":6019:6027  numInput */\n      sload(0x05)\n        /* \"RWAPSSF.sol\":6019:6032  numInput == 1 */\n      sub\n        /* \"RWAPSSF.sol\":6015:6711  if( numInput == 1 ){... */\n      tag_166\n      jumpi\n        /* \"RWAPSSF.sol\":6140:6141  7 */\n      0x07\n        /* \"RWAPSSF.sol\":6119:6125  player */\n      0x02\n        /* \"RWAPSSF.sol\":6119:6128  player[0] */\n      0x00\n        /* \"RWAPSSF.sol\":6126:6127  0 */\n      dup1\n        /* \"RWAPSSF.sol\":6119:6128  player[0] */\n      dup2\n      mstore\n      0x20\n      add\n      swap1\n      dup2\n      mstore\n      0x20\n      add\n      0x00\n      keccak256\n        /* \"RWAPSSF.sol\":6119:6136  player[0].choice1 */\n      0x00\n      add\n      sload\n        /* \"RWAPSSF.sol\":6119:6141  player[0].choice1 == 7 */\n      sub\n        /* \"RWAPSSF.sol\":6115:6665  if( player[0].choice1 == 7 ){... */\n      tag_167\n      jumpi\n        /* \"RWAPSSF.sol\":6229:6252  address payable account */\n      0x00\n        /* \"RWAPSSF.sol\":6264:6270  player */\n      0x02\n        /* \"RWAPSSF.sol\":6264:6273  player[1] */\n      0x00\n        /* \"RWAPSSF.sol\":6271:6272  1 */\n      0x01\n        /* \"RWAPSSF.sol\":6264:6273  player[1] */\n      dup2\n      mstore\n      0x20\n      add\n      swap1\n      dup2\n      mstore\n      0x20\n      add\n      0x00\n      keccak256\n        /* \"RWAPSSF.sol\":6264:6278  player[1].addr */\n      0x02\n      add\n      0x00\n      swap1\n      sload\n      swap1\n      0x0100\n      exp\n      swap1\n      div\n      0xffffffffffffffffffffffffffffffffffffffff\n      and\n        /* \"RWAPSSF.sol\":6229:6280  address payable account = payable( player[1].addr ) */\n      swap1\n      pop\n        /* \"RWAPSSF.sol\":6303:6310  account */\n      dup1\n        /* \"RWAPSSF.sol\":6303:6319  account.transfer */\n      0xffffffffffffffffffffffffffffffffffffffff\n      and\n        /* \"RWAPSSF.sol\":6303:6329  account.transfer( reward ) */\n      0x08fc\n        /* \"RWAPSSF.sol\":6321:6327  reward */\n      sload(0x04)\n        /* \"RWAPSSF.sol\":6303:6329  account.transfer( reward ) */\n      swap1\n      dup2\n      iszero\n      mul\n      swap1\n      mload(0x40)\n      0x00\n      mload(0x40)\n      dup1\n      dup4\n      sub\n      dup2\n      dup6\n      dup9\n      dup9\n      call\n      swap4\n      pop\n      pop\n      pop\n      pop\n      iszero\n      dup1\n      iszero\n      tag_169\n      jumpi\n      returndatasize\n      0x00\n      dup1\n      returndatacopy\n      revert(0x00, returndatasize)\n    tag_169:\n      pop\n        /* \"RWAPSSF.sol\":6143:6349  {... */\n      pop\n        /* \"RWAPSSF.sol\":6115:6665  if( player[0].choice1 == 7 ){... */\n      jump(tag_170)\n    tag_167:\n        /* \"RWAPSSF.sol\":6457:6458  7 */\n      0x07\n        /* \"RWAPSSF.sol\":6436:6442  player */\n      0x02\n        /* \"RWAPSSF.sol\":6436:6445  player[1] */\n      0x00\n        /* \"RWAPSSF.sol\":6443:6444  1 */\n      0x01\n        /* \"RWAPSSF.sol\":6436:6445  player[1] */\n      dup2\n      mstore\n      0x20\n      add\n      swap1\n      dup2\n      mstore\n      0x20\n      add\n      0x00\n      keccak256\n        /* \"RWAPSSF.sol\":6436:6453  player[1].choice1 */\n      0x00\n      add\n      sload\n        /* \"RWAPSSF.sol\":6436:6458  player[1].choice1 == 7 */\n      sub\n        /* \"RWAPSSF.sol\":6432:6665  if( player[1].choice1 == 7 ){... */\n      tag_171\n      jumpi\n        /* \"RWAPSSF.sol\":6545:6568  address payable account */\n      0x00\n        /* \"RWAPSSF.sol\":6580:6586  player */\n      0x02\n        /* \"RWAPSSF.sol\":6580:6589  player[0] */\n      0x00\n        /* \"RWAPSSF.sol\":6587:6588  0 */\n      dup1\n        /* \"RWAPSSF.sol\":6580:6589  player[0] */\n      dup2\n      mstore\n      0x20\n      add\n      swap1\n      dup2\n      mstore\n      0x20\n      add\n      0x00\n      keccak256\n        /* \"RWAPSSF.sol\":6580:6594  player[0].addr */\n      0x02\n      add\n      0x00\n      swap1\n      sload\n      swap1\n      0x0100\n      exp\n      swap1\n      div\n      0xffffffffffffffffffffffffffffffffffffffff\n      and\n        /* \"RWAPSSF.sol\":6545:6596  address payable account = payable( player[0].addr ) */\n      swap1\n      pop\n        /* \"RWAPSSF.sol\":6619:6626  account */\n      dup1\n        /* \"RWAPSSF.sol\":6619:6635  account.transfer */\n      0xffffffffffffffffffffffffffffffffffffffff\n      and\n        /* \"RWAPSSF.sol\":6619:6645  account.transfer( reward ) */\n      0x08fc\n        /* \"RWAPSSF.sol\":6637:6643  reward */\n      sload(0x04)\n        /* \"RWAPSSF.sol\":6619:6645  account.transfer( reward ) */\n      swap1\n      dup2\n      iszero\n      mul\n      swap1\n      mload(0x40)\n      0x00\n      mload(0x40)\n      dup1\n      dup4\n      sub\n      dup2\n      dup6\n      dup9\n      dup9\n      call\n      swap4\n      pop\n      pop\n      pop\n      pop\n      iszero\n      dup1\n      iszero\n      tag_173\n      jumpi\n      returndatasize\n      0x00\n      dup1\n      returndatacopy\n      revert(0x00, returndatasize)\n    tag_173:\n      pop\n        /* \"RWAPSSF.sol\":6460:6665  {... */\n      pop\n        /* \"RWAPSSF.sol\":6432:6665  if( player[1].choice1 == 7 ){... */\n    tag_171:\n        /* \"RWAPSSF.sol\":6115:6665  if( player[0].choice1 == 7 ){... */\n    tag_170:\n        /* \"RWAPSSF.sol\":6683:6695  _resetGame() */\n      tag_174\n        /* \"RWAPSSF.sol\":6683:6693  _resetGame */\n      tag_151\n        /* \"RWAPSSF.sol\":6683:6695  _resetGame() */\n      jump\t// in\n    tag_174:\n        /* \"RWAPSSF.sol\":6015:6711  if( numInput == 1 ){... */\n    tag_166:\n        /* \"RWAPSSF.sol\":5586:6711  if( numInput == 0 ){... */\n    tag_165:\n        /* \"RWAPSSF.sol\":5376:6722  if( numPlayer == 2 ){... */\n    tag_153:\n        /* \"RWAPSSF.sol\":5095:6722  if( numPlayer == 1 ) {... */\n    tag_152:\n        /* \"RWAPSSF.sol\":4862:6731  function refund() public {... */\n      jump\t// out\n        /* \"RWAPSSF.sol\":1958:2236  function inputHashChoice( bytes32 hashedChoice, uint idx ) public {... */\n    tag_64:\n        /* \"RWAPSSF.sol\":2057:2058  2 */\n      0x02\n        /* \"RWAPSSF.sol\":2044:2053  numPlayer */\n      sload(0x03)\n        /* \"RWAPSSF.sol\":2044:2058  numPlayer == 2 */\n      eq\n        /* \"RWAPSSF.sol\":2035:2060  require( numPlayer == 2 ) */\n      tag_176\n      jumpi\n      0x00\n      dup1\n      revert\n    tag_176:\n        /* \"RWAPSSF.sol\":2094:2100  player */\n      0x02\n        /* \"RWAPSSF.sol\":2094:2105  player[idx] */\n      0x00\n        /* \"RWAPSSF.sol\":2101:2104  idx */\n      dup3\n        /* \"RWAPSSF.sol\":2094:2105  player[idx] */\n      dup2\n      mstore\n      0x20\n      add\n      swap1\n      dup2\n      mstore\n      0x20\n      add\n      0x00\n      keccak256\n        /* \"RWAPSSF.sol\":2094:2110  player[idx].addr */\n      0x02\n      add\n      0x00\n      swap1\n      sload\n      swap1\n      0x0100\n      exp\n      swap1\n      div\n      0xffffffffffffffffffffffffffffffffffffffff\n      and\n        /* \"RWAPSSF.sol\":2080:2110  msg.sender == player[idx].addr */\n      0xffffffffffffffffffffffffffffffffffffffff\n      and\n        /* \"RWAPSSF.sol\":2080:2090  msg.sender */\n      caller\n        /* \"RWAPSSF.sol\":2080:2110  msg.sender == player[idx].addr */\n      0xffffffffffffffffffffffffffffffffffffffff\n      and\n      eq\n        /* \"RWAPSSF.sol\":2071:2112  require( msg.sender == player[idx].addr ) */\n      tag_177\n      jumpi\n      0x00\n      dup1\n      revert\n    tag_177:\n        /* \"RWAPSSF.sol\":2123:2156  commit( getHash( hashedChoice ) ) */\n      tag_178\n        /* \"RWAPSSF.sol\":2131:2154  getHash( hashedChoice ) */\n      tag_179\n        /* \"RWAPSSF.sol\":2140:2152  hashedChoice */\n      dup4\n        /* \"RWAPSSF.sol\":2131:2138  getHash */\n      tag_44\n        /* \"RWAPSSF.sol\":2131:2154  getHash( hashedChoice ) */\n      jump\t// in\n    tag_179:\n        /* \"RWAPSSF.sol\":2123:2129  commit */\n      tag_180\n        /* \"RWAPSSF.sol\":2123:2156  commit( getHash( hashedChoice ) ) */\n      jump\t// in\n    tag_178:\n        /* \"RWAPSSF.sol\":2167:2181  numHashedInput */\n      0x06\n      0x00\n        /* \"RWAPSSF.sol\":2167:2183  numHashedInput++ */\n      dup2\n      sload\n      dup1\n      swap3\n      swap2\n      swap1\n      tag_181\n      swap1\n      tag_109\n      jump\t// in\n    tag_181:\n      swap2\n      swap1\n      pop\n      sstore\n      pop\n        /* \"RWAPSSF.sol\":2213:2228  block.timestamp */\n      timestamp\n        /* \"RWAPSSF.sol\":2194:2210  latestActionTime */\n      0x07\n        /* \"RWAPSSF.sol\":2194:2228  latestActionTime = block.timestamp */\n      dup2\n      swap1\n      sstore\n      pop\n        /* \"RWAPSSF.sol\":1958:2236  function inputHashChoice( bytes32 hashedChoice, uint idx ) public {... */\n      pop\n      pop\n      jump\t// out\n        /* \"RWAPSSF.sol\":520:566  uint public latestActionTime = block.timestamp */\n    tag_67:\n      sload(0x07)\n      dup2\n      jump\t// out\n        /* \"CommitReveal.sol\":2530:2680  function getSaltedHash(bytes32 data,bytes32 salt) public view returns(bytes32){... */\n    tag_73:\n        /* \"CommitReveal.sol\":2600:2607  bytes32 */\n      0x00\n        /* \"CommitReveal.sol\":2656:2660  this */\n      address\n        /* \"CommitReveal.sol\":2663:2667  data */\n      dup4\n        /* \"CommitReveal.sol\":2669:2673  salt */\n      dup4\n        /* \"CommitReveal.sol\":2631:2674  abi.encodePacked(address(this), data, salt) */\n      add(0x20, mload(0x40))\n      tag_183\n      swap4\n      swap3\n      swap2\n      swap1\n      tag_184\n      jump\t// in\n    tag_183:\n      mload(0x40)\n      0x20\n      dup2\n      dup4\n      sub\n      sub\n      dup2\n      mstore\n      swap1\n      0x40\n      mstore\n        /* \"CommitReveal.sol\":2621:2675  keccak256(abi.encodePacked(address(this), data, salt)) */\n      dup1\n      mload\n      swap1\n      0x20\n      add\n      keccak256\n        /* \"CommitReveal.sol\":2614:2675  return keccak256(abi.encodePacked(address(this), data, salt)) */\n      swap1\n      pop\n        /* \"CommitReveal.sol\":2530:2680  function getSaltedHash(bytes32 data,bytes32 salt) public view returns(bytes32){... */\n      swap3\n      swap2\n      pop\n      pop\n      jump\t// out\n        /* \"RWAPSSF.sol\":385:410  uint public numPlayer = 0 */\n    tag_77:\n      sload(0x03)\n      dup2\n      jump\t// out\n        /* \"RWAPSSF.sol\":340:378  mapping (uint => Player) public player */\n    tag_83:\n      mstore(0x20, 0x02)\n      dup1\n      0x00\n      mstore\n      keccak256(0x00, 0x40)\n      0x00\n      swap2\n      pop\n      swap1\n      pop\n      dup1\n      0x00\n      add\n      sload\n      swap1\n      dup1\n      0x01\n      add\n      sload\n      swap1\n      dup1\n      0x02\n      add\n      0x00\n      swap1\n      sload\n      swap1\n      0x0100\n      exp\n      swap1\n      div\n      0xffffffffffffffffffffffffffffffffffffffff\n      and\n      swap1\n      pop\n      dup4\n      jump\t// out\n        /* \"RWAPSSF.sol\":477:507  uint public numHashedInput = 0 */\n    tag_88:\n      sload(0x06)\n      dup2\n      jump\t// out\n        /* \"CommitReveal.sol\":600:1751  function reveal(bytes32 revealHash) internal {... */\n    tag_107:\n        /* \"CommitReveal.sol\":756:761  false */\n      0x00\n        /* \"CommitReveal.sol\":726:761  commits[msg.sender].revealed==false */\n      iszero\n      iszero\n        /* \"CommitReveal.sol\":726:733  commits */\n      0x01\n        /* \"CommitReveal.sol\":726:745  commits[msg.sender] */\n      0x00\n        /* \"CommitReveal.sol\":734:744  msg.sender */\n      caller\n        /* \"CommitReveal.sol\":726:745  commits[msg.sender] */\n      0xffffffffffffffffffffffffffffffffffffffff\n      and\n      0xffffffffffffffffffffffffffffffffffffffff\n      and\n      dup2\n      mstore\n      0x20\n      add\n      swap1\n      dup2\n      mstore\n      0x20\n      add\n      0x00\n      keccak256\n        /* \"CommitReveal.sol\":726:754  commits[msg.sender].revealed */\n      0x01\n      add\n      0x08\n      swap1\n      sload\n      swap1\n      0x0100\n      exp\n      swap1\n      div\n      0xff\n      and\n        /* \"CommitReveal.sol\":726:761  commits[msg.sender].revealed==false */\n      iszero\n      iszero\n      eq\n        /* \"CommitReveal.sol\":718:803  require(commits[msg.sender].revealed==false,\"CommitReveal::reveal: Already revealed\") */\n      tag_186\n      jumpi\n      mload(0x40)\n      0x08c379a000000000000000000000000000000000000000000000000000000000\n      dup2\n      mstore\n      0x04\n      add\n      tag_187\n      swap1\n      tag_188\n      jump\t// in\n    tag_187:\n      mload(0x40)\n      dup1\n      swap2\n      sub\n      swap1\n      revert\n    tag_186:\n        /* \"CommitReveal.sol\":838:842  true */\n      0x01\n        /* \"CommitReveal.sol\":809:816  commits */\n      dup1\n        /* \"CommitReveal.sol\":809:828  commits[msg.sender] */\n      0x00\n        /* \"CommitReveal.sol\":817:827  msg.sender */\n      caller\n        /* \"CommitReveal.sol\":809:828  commits[msg.sender] */\n      0xffffffffffffffffffffffffffffffffffffffff\n      and\n      0xffffffffffffffffffffffffffffffffffffffff\n      and\n      dup2\n      mstore\n      0x20\n      add\n      swap1\n      dup2\n      mstore\n      0x20\n      add\n      0x00\n      keccak256\n        /* \"CommitReveal.sol\":809:837  commits[msg.sender].revealed */\n      0x01\n      add\n      0x08\n        /* \"CommitReveal.sol\":809:842  commits[msg.sender].revealed=true */\n      0x0100\n      exp\n      dup2\n      sload\n      dup2\n      0xff\n      mul\n      not\n      and\n      swap1\n      dup4\n      iszero\n      iszero\n      mul\n      or\n      swap1\n      sstore\n      pop\n        /* \"CommitReveal.sol\":932:939  commits */\n      0x01\n        /* \"CommitReveal.sol\":932:951  commits[msg.sender] */\n      0x00\n        /* \"CommitReveal.sol\":940:950  msg.sender */\n      caller\n        /* \"CommitReveal.sol\":932:951  commits[msg.sender] */\n      0xffffffffffffffffffffffffffffffffffffffff\n      and\n      0xffffffffffffffffffffffffffffffffffffffff\n      and\n      dup2\n      mstore\n      0x20\n      add\n      swap1\n      dup2\n      mstore\n      0x20\n      add\n      0x00\n      keccak256\n        /* \"CommitReveal.sol\":932:958  commits[msg.sender].commit */\n      0x00\n      add\n      sload\n        /* \"CommitReveal.sol\":911:930  getHash(revealHash) */\n      tag_189\n        /* \"CommitReveal.sol\":919:929  revealHash */\n      dup3\n        /* \"CommitReveal.sol\":911:918  getHash */\n      tag_44\n        /* \"CommitReveal.sol\":911:930  getHash(revealHash) */\n      jump\t// in\n    tag_189:\n        /* \"CommitReveal.sol\":911:958  getHash(revealHash)==commits[msg.sender].commit */\n      eq\n        /* \"CommitReveal.sol\":903:1019  require(getHash(revealHash)==commits[msg.sender].commit,\"CommitReveal::reveal: Revealed hash does not match commit\") */\n      tag_190\n      jumpi\n      mload(0x40)\n      0x08c379a000000000000000000000000000000000000000000000000000000000\n      dup2\n      mstore\n      0x04\n      add\n      tag_191\n      swap1\n      tag_192\n      jump\t// in\n    tag_191:\n      mload(0x40)\n      dup1\n      swap2\n      sub\n      swap1\n      revert\n    tag_190:\n        /* \"CommitReveal.sol\":1125:1132  commits */\n      0x01\n        /* \"CommitReveal.sol\":1125:1144  commits[msg.sender] */\n      0x00\n        /* \"CommitReveal.sol\":1133:1143  msg.sender */\n      caller\n        /* \"CommitReveal.sol\":1125:1144  commits[msg.sender] */\n      0xffffffffffffffffffffffffffffffffffffffff\n      and\n      0xffffffffffffffffffffffffffffffffffffffff\n      and\n      dup2\n      mstore\n      0x20\n      add\n      swap1\n      dup2\n      mstore\n      0x20\n      add\n      0x00\n      keccak256\n        /* \"CommitReveal.sol\":1125:1150  commits[msg.sender].block */\n      0x01\n      add\n      0x00\n      swap1\n      sload\n      swap1\n      0x0100\n      exp\n      swap1\n      div\n      0xffffffffffffffff\n      and\n        /* \"CommitReveal.sol\":1104:1150  uint64(block.number)>commits[msg.sender].block */\n      0xffffffffffffffff\n      and\n        /* \"CommitReveal.sol\":1111:1123  block.number */\n      number\n        /* \"CommitReveal.sol\":1104:1150  uint64(block.number)>commits[msg.sender].block */\n      0xffffffffffffffff\n      and\n      gt\n        /* \"CommitReveal.sol\":1096:1220  require(uint64(block.number)>commits[msg.sender].block,\"CommitReveal::reveal: Reveal and commit happened on the same block\") */\n      tag_193\n      jumpi\n      mload(0x40)\n      0x08c379a000000000000000000000000000000000000000000000000000000000\n      dup2\n      mstore\n      0x04\n      add\n      tag_194\n      swap1\n      tag_195\n      jump\t// in\n    tag_194:\n      mload(0x40)\n      dup1\n      swap2\n      sub\n      swap1\n      revert\n    tag_193:\n        /* \"CommitReveal.sol\":1337:1340  250 */\n      0xfa\n        /* \"CommitReveal.sol\":1311:1318  commits */\n      0x01\n        /* \"CommitReveal.sol\":1311:1330  commits[msg.sender] */\n      0x00\n        /* \"CommitReveal.sol\":1319:1329  msg.sender */\n      caller\n        /* \"CommitReveal.sol\":1311:1330  commits[msg.sender] */\n      0xffffffffffffffffffffffffffffffffffffffff\n      and\n      0xffffffffffffffffffffffffffffffffffffffff\n      and\n      dup2\n      mstore\n      0x20\n      add\n      swap1\n      dup2\n      mstore\n      0x20\n      add\n      0x00\n      keccak256\n        /* \"CommitReveal.sol\":1311:1336  commits[msg.sender].block */\n      0x01\n      add\n      0x00\n      swap1\n      sload\n      swap1\n      0x0100\n      exp\n      swap1\n      div\n      0xffffffffffffffff\n      and\n        /* \"CommitReveal.sol\":1311:1340  commits[msg.sender].block+250 */\n      tag_196\n      swap2\n      swap1\n      tag_197\n      jump\t// in\n    tag_196:\n        /* \"CommitReveal.sol\":1289:1340  uint64(block.number)<=commits[msg.sender].block+250 */\n      0xffffffffffffffff\n      and\n        /* \"CommitReveal.sol\":1296:1308  block.number */\n      number\n        /* \"CommitReveal.sol\":1289:1340  uint64(block.number)<=commits[msg.sender].block+250 */\n      0xffffffffffffffff\n      and\n      gt\n      iszero\n        /* \"CommitReveal.sol\":1281:1383  require(uint64(block.number)<=commits[msg.sender].block+250,\"CommitReveal::reveal: Revealed too late\") */\n      tag_198\n      jumpi\n      mload(0x40)\n      0x08c379a000000000000000000000000000000000000000000000000000000000\n      dup2\n      mstore\n      0x04\n      add\n      tag_199\n      swap1\n      tag_200\n      jump\t// in\n    tag_199:\n      mload(0x40)\n      dup1\n      swap2\n      sub\n      swap1\n      revert\n    tag_198:\n        /* \"CommitReveal.sol\":1456:1473  bytes32 blockHash */\n      0x00\n        /* \"CommitReveal.sol\":1486:1493  commits */\n      0x01\n        /* \"CommitReveal.sol\":1486:1505  commits[msg.sender] */\n      0x00\n        /* \"CommitReveal.sol\":1494:1504  msg.sender */\n      caller\n        /* \"CommitReveal.sol\":1486:1505  commits[msg.sender] */\n      0xffffffffffffffffffffffffffffffffffffffff\n      and\n      0xffffffffffffffffffffffffffffffffffffffff\n      and\n      dup2\n      mstore\n      0x20\n      add\n      swap1\n      dup2\n      mstore\n      0x20\n      add\n      0x00\n      keccak256\n        /* \"CommitReveal.sol\":1486:1511  commits[msg.sender].block */\n      0x01\n      add\n      0x00\n      swap1\n      sload\n      swap1\n      0x0100\n      exp\n      swap1\n      div\n      0xffffffffffffffff\n      and\n        /* \"CommitReveal.sol\":1476:1512  blockhash(commits[msg.sender].block) */\n      0xffffffffffffffff\n      and\n      blockhash\n        /* \"CommitReveal.sol\":1456:1512  bytes32 blockHash = blockhash(commits[msg.sender].block) */\n      swap1\n      pop\n        /* \"CommitReveal.sol\":1622:1633  uint random */\n      0x00\n        /* \"CommitReveal.sol\":1692:1695  max */\n      dup1\n      0x00\n      swap1\n      sload\n      swap1\n      0x0100\n      exp\n      swap1\n      div\n      0xff\n      and\n        /* \"CommitReveal.sol\":1636:1695  uint(keccak256(abi.encodePacked(blockHash,revealHash)))%max */\n      0xff\n      and\n        /* \"CommitReveal.sol\":1668:1677  blockHash */\n      dup3\n        /* \"CommitReveal.sol\":1678:1688  revealHash */\n      dup5\n        /* \"CommitReveal.sol\":1651:1689  abi.encodePacked(blockHash,revealHash) */\n      add(0x20, mload(0x40))\n      tag_201\n      swap3\n      swap2\n      swap1\n      tag_106\n      jump\t// in\n    tag_201:\n      mload(0x40)\n      0x20\n      dup2\n      dup4\n      sub\n      sub\n      dup2\n      mstore\n      swap1\n      0x40\n      mstore\n        /* \"CommitReveal.sol\":1641:1690  keccak256(abi.encodePacked(blockHash,revealHash)) */\n      dup1\n      mload\n      swap1\n      0x20\n      add\n      keccak256\n        /* \"CommitReveal.sol\":1636:1691  uint(keccak256(abi.encodePacked(blockHash,revealHash))) */\n      0x00\n      shr\n        /* \"CommitReveal.sol\":1636:1695  uint(keccak256(abi.encodePacked(blockHash,revealHash)))%max */\n      tag_202\n      swap2\n      swap1\n      tag_203\n      jump\t// in\n    tag_202:\n        /* \"CommitReveal.sol\":1622:1695  uint random = uint(keccak256(abi.encodePacked(blockHash,revealHash)))%max */\n      swap1\n      pop\n        /* \"CommitReveal.sol\":1706:1746  RevealHash(msg.sender,revealHash,random) */\n      0xbc016dd1cadeaefcb851af7a0a93532e0023d536894b730801f7bcfe7065bcc2\n        /* \"CommitReveal.sol\":1717:1727  msg.sender */\n      caller\n        /* \"CommitReveal.sol\":1728:1738  revealHash */\n      dup5\n        /* \"CommitReveal.sol\":1739:1745  random */\n      dup4\n        /* \"CommitReveal.sol\":1706:1746  RevealHash(msg.sender,revealHash,random) */\n      mload(0x40)\n      tag_204\n      swap4\n      swap3\n      swap2\n      swap1\n      tag_205\n      jump\t// in\n    tag_204:\n      mload(0x40)\n      dup1\n      swap2\n      sub\n      swap1\n      log1\n        /* \"CommitReveal.sol\":645:1751  {... */\n      pop\n      pop\n        /* \"CommitReveal.sol\":600:1751  function reveal(bytes32 revealHash) internal {... */\n      pop\n      jump\t// out\n        /* \"RWAPSSF.sol\":2969:4495  function _checkWinnerAndPay() private {... */\n    tag_112:\n        /* \"RWAPSSF.sol\":3018:3032  uint p0Choice1 */\n      0x00\n        /* \"RWAPSSF.sol\":3035:3041  player */\n      0x02\n        /* \"RWAPSSF.sol\":3035:3044  player[0] */\n      0x00\n        /* \"RWAPSSF.sol\":3042:3043  0 */\n      dup1\n        /* \"RWAPSSF.sol\":3035:3044  player[0] */\n      dup2\n      mstore\n      0x20\n      add\n      swap1\n      dup2\n      mstore\n      0x20\n      add\n      0x00\n      keccak256\n        /* \"RWAPSSF.sol\":3035:3052  player[0].choice1 */\n      0x00\n      add\n      sload\n        /* \"RWAPSSF.sol\":3018:3052  uint p0Choice1 = player[0].choice1 */\n      swap1\n      pop\n        /* \"RWAPSSF.sol\":3063:3077  uint p0Choice2 */\n      0x00\n        /* \"RWAPSSF.sol\":3080:3086  player */\n      0x02\n        /* \"RWAPSSF.sol\":3080:3089  player[0] */\n      0x00\n        /* \"RWAPSSF.sol\":3087:3088  0 */\n      dup1\n        /* \"RWAPSSF.sol\":3080:3089  player[0] */\n      dup2\n      mstore\n      0x20\n      add\n      swap1\n      dup2\n      mstore\n      0x20\n      add\n      0x00\n      keccak256\n        /* \"RWAPSSF.sol\":3080:3097  player[0].choice2 */\n      0x01\n      add\n      sload\n        /* \"RWAPSSF.sol\":3063:3097  uint p0Choice2 = player[0].choice2 */\n      swap1\n      pop\n        /* \"RWAPSSF.sol\":3108:3122  uint p1Choice1 */\n      0x00\n        /* \"RWAPSSF.sol\":3125:3131  player */\n      0x02\n        /* \"RWAPSSF.sol\":3125:3134  player[1] */\n      0x00\n        /* \"RWAPSSF.sol\":3132:3133  1 */\n      0x01\n        /* \"RWAPSSF.sol\":3125:3134  player[1] */\n      dup2\n      mstore\n      0x20\n      add\n      swap1\n      dup2\n      mstore\n      0x20\n      add\n      0x00\n      keccak256\n        /* \"RWAPSSF.sol\":3125:3142  player[1].choice1 */\n      0x00\n      add\n      sload\n        /* \"RWAPSSF.sol\":3108:3142  uint p1Choice1 = player[1].choice1 */\n      swap1\n      pop\n        /* \"RWAPSSF.sol\":3153:3167  uint p1Choice2 */\n      0x00\n        /* \"RWAPSSF.sol\":3170:3176  player */\n      0x02\n        /* \"RWAPSSF.sol\":3170:3179  player[1] */\n      0x00\n        /* \"RWAPSSF.sol\":3177:3178  1 */\n      0x01\n        /* \"RWAPSSF.sol\":3170:3179  player[1] */\n      dup2\n      mstore\n      0x20\n      add\n      swap1\n      dup2\n      mstore\n      0x20\n      add\n      0x00\n      keccak256\n        /* \"RWAPSSF.sol\":3170:3187  player[1].choice2 */\n      0x01\n      add\n      sload\n        /* \"RWAPSSF.sol\":3153:3187  uint p1Choice2 = player[1].choice2 */\n      swap1\n      pop\n        /* \"RWAPSSF.sol\":3198:3210  uint p0Point */\n      0x00\n        /* \"RWAPSSF.sol\":3225:3237  uint p1Point */\n      dup1\n        /* \"RWAPSSF.sol\":3252:3276  address payable account0 */\n      0x00\n        /* \"RWAPSSF.sol\":3287:3293  player */\n      0x02\n        /* \"RWAPSSF.sol\":3287:3296  player[0] */\n      0x00\n        /* \"RWAPSSF.sol\":3294:3295  0 */\n      dup1\n        /* \"RWAPSSF.sol\":3287:3296  player[0] */\n      dup2\n      mstore\n      0x20\n      add\n      swap1\n      dup2\n      mstore\n      0x20\n      add\n      0x00\n      keccak256\n        /* \"RWAPSSF.sol\":3287:3301  player[0].addr */\n      0x02\n      add\n      0x00\n      swap1\n      sload\n      swap1\n      0x0100\n      exp\n      swap1\n      div\n      0xffffffffffffffffffffffffffffffffffffffff\n      and\n        /* \"RWAPSSF.sol\":3252:3302  address payable account0 = payable(player[0].addr) */\n      swap1\n      pop\n        /* \"RWAPSSF.sol\":3313:3337  address payable account1 */\n      0x00\n        /* \"RWAPSSF.sol\":3348:3354  player */\n      0x02\n        /* \"RWAPSSF.sol\":3348:3357  player[1] */\n      0x00\n        /* \"RWAPSSF.sol\":3355:3356  1 */\n      0x01\n        /* \"RWAPSSF.sol\":3348:3357  player[1] */\n      dup2\n      mstore\n      0x20\n      add\n      swap1\n      dup2\n      mstore\n      0x20\n      add\n      0x00\n      keccak256\n        /* \"RWAPSSF.sol\":3348:3362  player[1].addr */\n      0x02\n      add\n      0x00\n      swap1\n      sload\n      swap1\n      0x0100\n      exp\n      swap1\n      div\n      0xffffffffffffffffffffffffffffffffffffffff\n      and\n        /* \"RWAPSSF.sol\":3313:3363  address payable account1 = payable(player[1].addr) */\n      swap1\n      pop\n        /* \"RWAPSSF.sol\":3402:3411  p1Choice1 */\n      dup6\n        /* \"RWAPSSF.sol\":3397:3398  7 */\n      0x07\n        /* \"RWAPSSF.sol\":3392:3393  1 */\n      0x01\n        /* \"RWAPSSF.sol\":3380:3389  p0Choice1 */\n      dup11\n        /* \"RWAPSSF.sol\":3380:3393  p0Choice1 + 1 */\n      tag_207\n      swap2\n      swap1\n      tag_117\n      jump\t// in\n    tag_207:\n        /* \"RWAPSSF.sol\":3379:3398  (p0Choice1 + 1) % 7 */\n      tag_208\n      swap2\n      swap1\n      tag_203\n      jump\t// in\n    tag_208:\n        /* \"RWAPSSF.sol\":3379:3411  (p0Choice1 + 1) % 7 == p1Choice1 */\n      eq\n        /* \"RWAPSSF.sol\":3379:3447  (p0Choice1 + 1) % 7 == p1Choice1 || (p0Choice1 + 2) % 7 == p1Choice1 */\n      dup1\n      tag_209\n      jumpi\n      pop\n        /* \"RWAPSSF.sol\":3438:3447  p1Choice1 */\n      dup6\n        /* \"RWAPSSF.sol\":3433:3434  7 */\n      0x07\n        /* \"RWAPSSF.sol\":3428:3429  2 */\n      0x02\n        /* \"RWAPSSF.sol\":3416:3425  p0Choice1 */\n      dup11\n        /* \"RWAPSSF.sol\":3416:3429  p0Choice1 + 2 */\n      tag_210\n      swap2\n      swap1\n      tag_117\n      jump\t// in\n    tag_210:\n        /* \"RWAPSSF.sol\":3415:3434  (p0Choice1 + 2) % 7 */\n      tag_211\n      swap2\n      swap1\n      tag_203\n      jump\t// in\n    tag_211:\n        /* \"RWAPSSF.sol\":3415:3447  (p0Choice1 + 2) % 7 == p1Choice1 */\n      eq\n        /* \"RWAPSSF.sol\":3379:3447  (p0Choice1 + 1) % 7 == p1Choice1 || (p0Choice1 + 2) % 7 == p1Choice1 */\n    tag_209:\n        /* \"RWAPSSF.sol\":3379:3483  (p0Choice1 + 1) % 7 == p1Choice1 || (p0Choice1 + 2) % 7 == p1Choice1 || (p0Choice1 + 3) % 7 == p1Choice1 */\n      dup1\n      tag_212\n      jumpi\n      pop\n        /* \"RWAPSSF.sol\":3474:3483  p1Choice1 */\n      dup6\n        /* \"RWAPSSF.sol\":3469:3470  7 */\n      0x07\n        /* \"RWAPSSF.sol\":3464:3465  3 */\n      0x03\n        /* \"RWAPSSF.sol\":3452:3461  p0Choice1 */\n      dup11\n        /* \"RWAPSSF.sol\":3452:3465  p0Choice1 + 3 */\n      tag_213\n      swap2\n      swap1\n      tag_117\n      jump\t// in\n    tag_213:\n        /* \"RWAPSSF.sol\":3451:3470  (p0Choice1 + 3) % 7 */\n      tag_214\n      swap2\n      swap1\n      tag_203\n      jump\t// in\n    tag_214:\n        /* \"RWAPSSF.sol\":3451:3483  (p0Choice1 + 3) % 7 == p1Choice1 */\n      eq\n        /* \"RWAPSSF.sol\":3379:3483  (p0Choice1 + 1) % 7 == p1Choice1 || (p0Choice1 + 2) % 7 == p1Choice1 || (p0Choice1 + 3) % 7 == p1Choice1 */\n    tag_212:\n        /* \"RWAPSSF.sol\":3374:3768  if ( (p0Choice1 + 1) % 7 == p1Choice1 || (p0Choice1 + 2) % 7 == p1Choice1 || (p0Choice1 + 3) % 7 == p1Choice1 ) {... */\n      iszero\n      tag_215\n      jumpi\n        /* \"RWAPSSF.sol\":3512:3513  2 */\n      0x02\n        /* \"RWAPSSF.sol\":3501:3513  p0Point += 2 */\n      dup5\n      tag_216\n      swap2\n      swap1\n      tag_117\n      jump\t// in\n    tag_216:\n      swap4\n      pop\n        /* \"RWAPSSF.sol\":3374:3768  if ( (p0Choice1 + 1) % 7 == p1Choice1 || (p0Choice1 + 2) % 7 == p1Choice1 || (p0Choice1 + 3) % 7 == p1Choice1 ) {... */\n      jump(tag_217)\n    tag_215:\n        /* \"RWAPSSF.sol\":3568:3577  p0Choice1 */\n      dup8\n        /* \"RWAPSSF.sol\":3563:3564  7 */\n      0x07\n        /* \"RWAPSSF.sol\":3558:3559  1 */\n      0x01\n        /* \"RWAPSSF.sol\":3546:3555  p1Choice1 */\n      dup9\n        /* \"RWAPSSF.sol\":3546:3559  p1Choice1 + 1 */\n      tag_218\n      swap2\n      swap1\n      tag_117\n      jump\t// in\n    tag_218:\n        /* \"RWAPSSF.sol\":3545:3564  (p1Choice1 + 1) % 7 */\n      tag_219\n      swap2\n      swap1\n      tag_203\n      jump\t// in\n    tag_219:\n        /* \"RWAPSSF.sol\":3545:3577  (p1Choice1 + 1) % 7 == p0Choice1 */\n      eq\n        /* \"RWAPSSF.sol\":3545:3613  (p1Choice1 + 1) % 7 == p0Choice1 || (p1Choice1 + 2) % 7 == p0Choice1 */\n      dup1\n      tag_220\n      jumpi\n      pop\n        /* \"RWAPSSF.sol\":3604:3613  p0Choice1 */\n      dup8\n        /* \"RWAPSSF.sol\":3599:3600  7 */\n      0x07\n        /* \"RWAPSSF.sol\":3594:3595  2 */\n      0x02\n        /* \"RWAPSSF.sol\":3582:3591  p1Choice1 */\n      dup9\n        /* \"RWAPSSF.sol\":3582:3595  p1Choice1 + 2 */\n      tag_221\n      swap2\n      swap1\n      tag_117\n      jump\t// in\n    tag_221:\n        /* \"RWAPSSF.sol\":3581:3600  (p1Choice1 + 2) % 7 */\n      tag_222\n      swap2\n      swap1\n      tag_203\n      jump\t// in\n    tag_222:\n        /* \"RWAPSSF.sol\":3581:3613  (p1Choice1 + 2) % 7 == p0Choice1 */\n      eq\n        /* \"RWAPSSF.sol\":3545:3613  (p1Choice1 + 1) % 7 == p0Choice1 || (p1Choice1 + 2) % 7 == p0Choice1 */\n    tag_220:\n        /* \"RWAPSSF.sol\":3545:3649  (p1Choice1 + 1) % 7 == p0Choice1 || (p1Choice1 + 2) % 7 == p0Choice1 || (p1Choice1 + 3) % 7 == p0Choice1 */\n      dup1\n      tag_223\n      jumpi\n      pop\n        /* \"RWAPSSF.sol\":3640:3649  p0Choice1 */\n      dup8\n        /* \"RWAPSSF.sol\":3635:3636  7 */\n      0x07\n        /* \"RWAPSSF.sol\":3630:3631  3 */\n      0x03\n        /* \"RWAPSSF.sol\":3618:3627  p1Choice1 */\n      dup9\n        /* \"RWAPSSF.sol\":3618:3631  p1Choice1 + 3 */\n      tag_224\n      swap2\n      swap1\n      tag_117\n      jump\t// in\n    tag_224:\n        /* \"RWAPSSF.sol\":3617:3636  (p1Choice1 + 3) % 7 */\n      tag_225\n      swap2\n      swap1\n      tag_203\n      jump\t// in\n    tag_225:\n        /* \"RWAPSSF.sol\":3617:3649  (p1Choice1 + 3) % 7 == p0Choice1 */\n      eq\n        /* \"RWAPSSF.sol\":3545:3649  (p1Choice1 + 1) % 7 == p0Choice1 || (p1Choice1 + 2) % 7 == p0Choice1 || (p1Choice1 + 3) % 7 == p0Choice1 */\n    tag_223:\n        /* \"RWAPSSF.sol\":3540:3768  if ( (p1Choice1 + 1) % 7 == p0Choice1 || (p1Choice1 + 2) % 7 == p0Choice1 || (p1Choice1 + 3) % 7 == p0Choice1 ) {... */\n      iszero\n      tag_226\n      jumpi\n        /* \"RWAPSSF.sol\":3678:3679  2 */\n      0x02\n        /* \"RWAPSSF.sol\":3667:3679  p1Point += 2 */\n      dup4\n      tag_227\n      swap2\n      swap1\n      tag_117\n      jump\t// in\n    tag_227:\n      swap3\n      pop\n        /* \"RWAPSSF.sol\":3540:3768  if ( (p1Choice1 + 1) % 7 == p0Choice1 || (p1Choice1 + 2) % 7 == p0Choice1 || (p1Choice1 + 3) % 7 == p0Choice1 ) {... */\n      jump(tag_228)\n    tag_226:\n        /* \"RWAPSSF.sol\":3723:3732  p0Point++ */\n      dup4\n      dup1\n      tag_229\n      swap1\n      tag_109\n      jump\t// in\n    tag_229:\n      swap5\n      pop\n      pop\n        /* \"RWAPSSF.sol\":3747:3756  p1Point++ */\n      dup3\n      dup1\n      tag_230\n      swap1\n      tag_109\n      jump\t// in\n    tag_230:\n      swap4\n      pop\n      pop\n        /* \"RWAPSSF.sol\":3540:3768  if ( (p1Choice1 + 1) % 7 == p0Choice1 || (p1Choice1 + 2) % 7 == p0Choice1 || (p1Choice1 + 3) % 7 == p0Choice1 ) {... */\n    tag_228:\n        /* \"RWAPSSF.sol\":3374:3768  if ( (p0Choice1 + 1) % 7 == p1Choice1 || (p0Choice1 + 2) % 7 == p1Choice1 || (p0Choice1 + 3) % 7 == p1Choice1 ) {... */\n    tag_217:\n        /* \"RWAPSSF.sol\":3806:3815  p1Choice2 */\n      dup5\n        /* \"RWAPSSF.sol\":3801:3802  7 */\n      0x07\n        /* \"RWAPSSF.sol\":3796:3797  1 */\n      0x01\n        /* \"RWAPSSF.sol\":3784:3793  p0Choice2 */\n      dup10\n        /* \"RWAPSSF.sol\":3784:3797  p0Choice2 + 1 */\n      tag_231\n      swap2\n      swap1\n      tag_117\n      jump\t// in\n    tag_231:\n        /* \"RWAPSSF.sol\":3783:3802  (p0Choice2 + 1) % 7 */\n      tag_232\n      swap2\n      swap1\n      tag_203\n      jump\t// in\n    tag_232:\n        /* \"RWAPSSF.sol\":3783:3815  (p0Choice2 + 1) % 7 == p1Choice2 */\n      eq\n        /* \"RWAPSSF.sol\":3783:3851  (p0Choice2 + 1) % 7 == p1Choice2 || (p0Choice2 + 2) % 7 == p1Choice2 */\n      dup1\n      tag_233\n      jumpi\n      pop\n        /* \"RWAPSSF.sol\":3842:3851  p1Choice2 */\n      dup5\n        /* \"RWAPSSF.sol\":3837:3838  7 */\n      0x07\n        /* \"RWAPSSF.sol\":3832:3833  2 */\n      0x02\n        /* \"RWAPSSF.sol\":3820:3829  p0Choice2 */\n      dup10\n        /* \"RWAPSSF.sol\":3820:3833  p0Choice2 + 2 */\n      tag_234\n      swap2\n      swap1\n      tag_117\n      jump\t// in\n    tag_234:\n        /* \"RWAPSSF.sol\":3819:3838  (p0Choice2 + 2) % 7 */\n      tag_235\n      swap2\n      swap1\n      tag_203\n      jump\t// in\n    tag_235:\n        /* \"RWAPSSF.sol\":3819:3851  (p0Choice2 + 2) % 7 == p1Choice2 */\n      eq\n        /* \"RWAPSSF.sol\":3783:3851  (p0Choice2 + 1) % 7 == p1Choice2 || (p0Choice2 + 2) % 7 == p1Choice2 */\n    tag_233:\n        /* \"RWAPSSF.sol\":3783:3887  (p0Choice2 + 1) % 7 == p1Choice2 || (p0Choice2 + 2) % 7 == p1Choice2 || (p0Choice2 + 3) % 7 == p1Choice2 */\n      dup1\n      tag_236\n      jumpi\n      pop\n        /* \"RWAPSSF.sol\":3878:3887  p1Choice2 */\n      dup5\n        /* \"RWAPSSF.sol\":3873:3874  7 */\n      0x07\n        /* \"RWAPSSF.sol\":3868:3869  3 */\n      0x03\n        /* \"RWAPSSF.sol\":3856:3865  p0Choice2 */\n      dup10\n        /* \"RWAPSSF.sol\":3856:3869  p0Choice2 + 3 */\n      tag_237\n      swap2\n      swap1\n      tag_117\n      jump\t// in\n    tag_237:\n        /* \"RWAPSSF.sol\":3855:3874  (p0Choice2 + 3) % 7 */\n      tag_238\n      swap2\n      swap1\n      tag_203\n      jump\t// in\n    tag_238:\n        /* \"RWAPSSF.sol\":3855:3887  (p0Choice2 + 3) % 7 == p1Choice2 */\n      eq\n        /* \"RWAPSSF.sol\":3783:3887  (p0Choice2 + 1) % 7 == p1Choice2 || (p0Choice2 + 2) % 7 == p1Choice2 || (p0Choice2 + 3) % 7 == p1Choice2 */\n    tag_236:\n        /* \"RWAPSSF.sol\":3778:4172  if ( (p0Choice2 + 1) % 7 == p1Choice2 || (p0Choice2 + 2) % 7 == p1Choice2 || (p0Choice2 + 3) % 7 == p1Choice2 ) {... */\n      iszero\n      tag_239\n      jumpi\n        /* \"RWAPSSF.sol\":3916:3917  2 */\n      0x02\n        /* \"RWAPSSF.sol\":3905:3917  p0Point += 2 */\n      dup5\n      tag_240\n      swap2\n      swap1\n      tag_117\n      jump\t// in\n    tag_240:\n      swap4\n      pop\n        /* \"RWAPSSF.sol\":3778:4172  if ( (p0Choice2 + 1) % 7 == p1Choice2 || (p0Choice2 + 2) % 7 == p1Choice2 || (p0Choice2 + 3) % 7 == p1Choice2 ) {... */\n      jump(tag_241)\n    tag_239:\n        /* \"RWAPSSF.sol\":3972:3981  p0Choice2 */\n      dup7\n        /* \"RWAPSSF.sol\":3967:3968  7 */\n      0x07\n        /* \"RWAPSSF.sol\":3962:3963  1 */\n      0x01\n        /* \"RWAPSSF.sol\":3950:3959  p1Choice2 */\n      dup8\n        /* \"RWAPSSF.sol\":3950:3963  p1Choice2 + 1 */\n      tag_242\n      swap2\n      swap1\n      tag_117\n      jump\t// in\n    tag_242:\n        /* \"RWAPSSF.sol\":3949:3968  (p1Choice2 + 1) % 7 */\n      tag_243\n      swap2\n      swap1\n      tag_203\n      jump\t// in\n    tag_243:\n        /* \"RWAPSSF.sol\":3949:3981  (p1Choice2 + 1) % 7 == p0Choice2 */\n      eq\n        /* \"RWAPSSF.sol\":3949:4017  (p1Choice2 + 1) % 7 == p0Choice2 || (p1Choice2 + 2) % 7 == p0Choice2 */\n      dup1\n      tag_244\n      jumpi\n      pop\n        /* \"RWAPSSF.sol\":4008:4017  p0Choice2 */\n      dup7\n        /* \"RWAPSSF.sol\":4003:4004  7 */\n      0x07\n        /* \"RWAPSSF.sol\":3998:3999  2 */\n      0x02\n        /* \"RWAPSSF.sol\":3986:3995  p1Choice2 */\n      dup8\n        /* \"RWAPSSF.sol\":3986:3999  p1Choice2 + 2 */\n      tag_245\n      swap2\n      swap1\n      tag_117\n      jump\t// in\n    tag_245:\n        /* \"RWAPSSF.sol\":3985:4004  (p1Choice2 + 2) % 7 */\n      tag_246\n      swap2\n      swap1\n      tag_203\n      jump\t// in\n    tag_246:\n        /* \"RWAPSSF.sol\":3985:4017  (p1Choice2 + 2) % 7 == p0Choice2 */\n      eq\n        /* \"RWAPSSF.sol\":3949:4017  (p1Choice2 + 1) % 7 == p0Choice2 || (p1Choice2 + 2) % 7 == p0Choice2 */\n    tag_244:\n        /* \"RWAPSSF.sol\":3949:4053  (p1Choice2 + 1) % 7 == p0Choice2 || (p1Choice2 + 2) % 7 == p0Choice2 || (p1Choice2 + 3) % 7 == p0Choice2 */\n      dup1\n      tag_247\n      jumpi\n      pop\n        /* \"RWAPSSF.sol\":4044:4053  p0Choice2 */\n      dup7\n        /* \"RWAPSSF.sol\":4039:4040  7 */\n      0x07\n        /* \"RWAPSSF.sol\":4034:4035  3 */\n      0x03\n        /* \"RWAPSSF.sol\":4022:4031  p1Choice2 */\n      dup8\n        /* \"RWAPSSF.sol\":4022:4035  p1Choice2 + 3 */\n      tag_248\n      swap2\n      swap1\n      tag_117\n      jump\t// in\n    tag_248:\n        /* \"RWAPSSF.sol\":4021:4040  (p1Choice2 + 3) % 7 */\n      tag_249\n      swap2\n      swap1\n      tag_203\n      jump\t// in\n    tag_249:\n        /* \"RWAPSSF.sol\":4021:4053  (p1Choice2 + 3) % 7 == p0Choice2 */\n      eq\n        /* \"RWAPSSF.sol\":3949:4053  (p1Choice2 + 1) % 7 == p0Choice2 || (p1Choice2 + 2) % 7 == p0Choice2 || (p1Choice2 + 3) % 7 == p0Choice2 */\n    tag_247:\n        /* \"RWAPSSF.sol\":3944:4172  if ( (p1Choice2 + 1) % 7 == p0Choice2 || (p1Choice2 + 2) % 7 == p0Choice2 || (p1Choice2 + 3) % 7 == p0Choice2 ) {... */\n      iszero\n      tag_250\n      jumpi\n        /* \"RWAPSSF.sol\":4082:4083  2 */\n      0x02\n        /* \"RWAPSSF.sol\":4071:4083  p1Point += 2 */\n      dup4\n      tag_251\n      swap2\n      swap1\n      tag_117\n      jump\t// in\n    tag_251:\n      swap3\n      pop\n        /* \"RWAPSSF.sol\":3944:4172  if ( (p1Choice2 + 1) % 7 == p0Choice2 || (p1Choice2 + 2) % 7 == p0Choice2 || (p1Choice2 + 3) % 7 == p0Choice2 ) {... */\n      jump(tag_252)\n    tag_250:\n        /* \"RWAPSSF.sol\":4127:4136  p0Point++ */\n      dup4\n      dup1\n      tag_253\n      swap1\n      tag_109\n      jump\t// in\n    tag_253:\n      swap5\n      pop\n      pop\n        /* \"RWAPSSF.sol\":4151:4160  p1Point++ */\n      dup3\n      dup1\n      tag_254\n      swap1\n      tag_109\n      jump\t// in\n    tag_254:\n      swap4\n      pop\n      pop\n        /* \"RWAPSSF.sol\":3944:4172  if ( (p1Choice2 + 1) % 7 == p0Choice2 || (p1Choice2 + 2) % 7 == p0Choice2 || (p1Choice2 + 3) % 7 == p0Choice2 ) {... */\n    tag_252:\n        /* \"RWAPSSF.sol\":3778:4172  if ( (p0Choice2 + 1) % 7 == p1Choice2 || (p0Choice2 + 2) % 7 == p1Choice2 || (p0Choice2 + 3) % 7 == p1Choice2 ) {... */\n    tag_241:\n        /* \"RWAPSSF.sol\":4196:4203  p1Point */\n      dup3\n        /* \"RWAPSSF.sol\":4186:4193  p0Point */\n      dup5\n        /* \"RWAPSSF.sol\":4186:4203  p0Point > p1Point */\n      gt\n        /* \"RWAPSSF.sol\":4182:4465  if( p0Point > p1Point ){... */\n      iszero\n      tag_255\n      jumpi\n        /* \"RWAPSSF.sol\":4220:4228  account0 */\n      dup2\n        /* \"RWAPSSF.sol\":4220:4237  account0.transfer */\n      0xffffffffffffffffffffffffffffffffffffffff\n      and\n        /* \"RWAPSSF.sol\":4220:4247  account0.transfer( reward ) */\n      0x08fc\n        /* \"RWAPSSF.sol\":4239:4245  reward */\n      sload(0x04)\n        /* \"RWAPSSF.sol\":4220:4247  account0.transfer( reward ) */\n      swap1\n      dup2\n      iszero\n      mul\n      swap1\n      mload(0x40)\n      0x00\n      mload(0x40)\n      dup1\n      dup4\n      sub\n      dup2\n      dup6\n      dup9\n      dup9\n      call\n      swap4\n      pop\n      pop\n      pop\n      pop\n      iszero\n      dup1\n      iszero\n      tag_257\n      jumpi\n      returndatasize\n      0x00\n      dup1\n      returndatacopy\n      revert(0x00, returndatasize)\n    tag_257:\n      pop\n        /* \"RWAPSSF.sol\":4182:4465  if( p0Point > p1Point ){... */\n      jump(tag_258)\n    tag_255:\n        /* \"RWAPSSF.sol\":4288:4295  p0Point */\n      dup4\n        /* \"RWAPSSF.sol\":4278:4285  p1Point */\n      dup4\n        /* \"RWAPSSF.sol\":4278:4295  p1Point > p0Point */\n      gt\n        /* \"RWAPSSF.sol\":4274:4465  if( p1Point > p0Point ){... */\n      iszero\n      tag_259\n      jumpi\n        /* \"RWAPSSF.sol\":4312:4320  account1 */\n      dup1\n        /* \"RWAPSSF.sol\":4312:4329  account1.transfer */\n      0xffffffffffffffffffffffffffffffffffffffff\n      and\n        /* \"RWAPSSF.sol\":4312:4339  account1.transfer( reward ) */\n      0x08fc\n        /* \"RWAPSSF.sol\":4331:4337  reward */\n      sload(0x04)\n        /* \"RWAPSSF.sol\":4312:4339  account1.transfer( reward ) */\n      swap1\n      dup2\n      iszero\n      mul\n      swap1\n      mload(0x40)\n      0x00\n      mload(0x40)\n      dup1\n      dup4\n      sub\n      dup2\n      dup6\n      dup9\n      dup9\n      call\n      swap4\n      pop\n      pop\n      pop\n      pop\n      iszero\n      dup1\n      iszero\n      tag_261\n      jumpi\n      returndatasize\n      0x00\n      dup1\n      returndatacopy\n      revert(0x00, returndatasize)\n    tag_261:\n      pop\n        /* \"RWAPSSF.sol\":4274:4465  if( p1Point > p0Point ){... */\n      jump(tag_262)\n    tag_259:\n        /* \"RWAPSSF.sol\":4380:4388  account0 */\n      dup2\n        /* \"RWAPSSF.sol\":4380:4397  account0.transfer */\n      0xffffffffffffffffffffffffffffffffffffffff\n      and\n        /* \"RWAPSSF.sol\":4380:4409  account0.transfer(reward / 2) */\n      0x08fc\n        /* \"RWAPSSF.sol\":4407:4408  2 */\n      0x02\n        /* \"RWAPSSF.sol\":4398:4404  reward */\n      sload(0x04)\n        /* \"RWAPSSF.sol\":4398:4408  reward / 2 */\n      tag_263\n      swap2\n      swap1\n      tag_158\n      jump\t// in\n    tag_263:\n        /* \"RWAPSSF.sol\":4380:4409  account0.transfer(reward / 2) */\n      swap1\n      dup2\n      iszero\n      mul\n      swap1\n      mload(0x40)\n      0x00\n      mload(0x40)\n      dup1\n      dup4\n      sub\n      dup2\n      dup6\n      dup9\n      dup9\n      call\n      swap4\n      pop\n      pop\n      pop\n      pop\n      iszero\n      dup1\n      iszero\n      tag_265\n      jumpi\n      returndatasize\n      0x00\n      dup1\n      returndatacopy\n      revert(0x00, returndatasize)\n    tag_265:\n      pop\n        /* \"RWAPSSF.sol\":4424:4432  account1 */\n      dup1\n        /* \"RWAPSSF.sol\":4424:4441  account1.transfer */\n      0xffffffffffffffffffffffffffffffffffffffff\n      and\n        /* \"RWAPSSF.sol\":4424:4453  account1.transfer(reward / 2) */\n      0x08fc\n        /* \"RWAPSSF.sol\":4451:4452  2 */\n      0x02\n        /* \"RWAPSSF.sol\":4442:4448  reward */\n      sload(0x04)\n        /* \"RWAPSSF.sol\":4442:4452  reward / 2 */\n      tag_266\n      swap2\n      swap1\n      tag_158\n      jump\t// in\n    tag_266:\n        /* \"RWAPSSF.sol\":4424:4453  account1.transfer(reward / 2) */\n      swap1\n      dup2\n      iszero\n      mul\n      swap1\n      mload(0x40)\n      0x00\n      mload(0x40)\n      dup1\n      dup4\n      sub\n      dup2\n      dup6\n      dup9\n      dup9\n      call\n      swap4\n      pop\n      pop\n      pop\n      pop\n      iszero\n      dup1\n      iszero\n      tag_268\n      jumpi\n      returndatasize\n      0x00\n      dup1\n      returndatacopy\n      revert(0x00, returndatasize)\n    tag_268:\n      pop\n        /* \"RWAPSSF.sol\":4274:4465  if( p1Point > p0Point ){... */\n    tag_262:\n        /* \"RWAPSSF.sol\":4182:4465  if( p0Point > p1Point ){... */\n    tag_258:\n        /* \"RWAPSSF.sol\":4475:4487  _resetGame() */\n      tag_269\n        /* \"RWAPSSF.sol\":4475:4485  _resetGame */\n      tag_151\n        /* \"RWAPSSF.sol\":4475:4487  _resetGame() */\n      jump\t// in\n    tag_269:\n        /* \"RWAPSSF.sol\":3007:4495  {... */\n      pop\n      pop\n      pop\n      pop\n      pop\n      pop\n      pop\n      pop\n        /* \"RWAPSSF.sol\":2969:4495  function _checkWinnerAndPay() private {... */\n      jump\t// out\n        /* \"RWAPSSF.sol\":4503:4854  function _resetGame() private {... */\n    tag_151:\n        /* \"RWAPSSF.sol\":4556:4557  0 */\n      0x00\n        /* \"RWAPSSF.sol\":4544:4553  numPlayer */\n      0x03\n        /* \"RWAPSSF.sol\":4544:4557  numPlayer = 0 */\n      dup2\n      swap1\n      sstore\n      pop\n        /* \"RWAPSSF.sol\":4577:4578  0 */\n      0x00\n        /* \"RWAPSSF.sol\":4568:4574  reward */\n      0x04\n        /* \"RWAPSSF.sol\":4568:4578  reward = 0 */\n      dup2\n      swap1\n      sstore\n      pop\n        /* \"RWAPSSF.sol\":4600:4601  0 */\n      0x00\n        /* \"RWAPSSF.sol\":4589:4597  numInput */\n      0x05\n        /* \"RWAPSSF.sol\":4589:4601  numInput = 0 */\n      dup2\n      swap1\n      sstore\n      pop\n        /* \"RWAPSSF.sol\":4629:4630  0 */\n      0x00\n        /* \"RWAPSSF.sol\":4612:4626  numHashedInput */\n      0x06\n        /* \"RWAPSSF.sol\":4612:4630  numHashedInput = 0 */\n      dup2\n      swap1\n      sstore\n      pop\n        /* \"RWAPSSF.sol\":4671:4672  7 */\n      0x07\n        /* \"RWAPSSF.sol\":4651:4657  player */\n      0x02\n        /* \"RWAPSSF.sol\":4651:4660  player[0] */\n      0x00\n        /* \"RWAPSSF.sol\":4658:4659  0 */\n      dup1\n        /* \"RWAPSSF.sol\":4651:4660  player[0] */\n      dup2\n      mstore\n      0x20\n      add\n      swap1\n      dup2\n      mstore\n      0x20\n      add\n      0x00\n      keccak256\n        /* \"RWAPSSF.sol\":4651:4668  player[0].choice1 */\n      0x00\n      add\n        /* \"RWAPSSF.sol\":4651:4672  player[0].choice1 = 7 */\n      dup2\n      swap1\n      sstore\n      pop\n        /* \"RWAPSSF.sol\":4703:4704  7 */\n      0x07\n        /* \"RWAPSSF.sol\":4683:4689  player */\n      0x02\n        /* \"RWAPSSF.sol\":4683:4692  player[0] */\n      0x00\n        /* \"RWAPSSF.sol\":4690:4691  0 */\n      dup1\n        /* \"RWAPSSF.sol\":4683:4692  player[0] */\n      dup2\n      mstore\n      0x20\n      add\n      swap1\n      dup2\n      mstore\n      0x20\n      add\n      0x00\n      keccak256\n        /* \"RWAPSSF.sol\":4683:4700  player[0].choice2 */\n      0x01\n      add\n        /* \"RWAPSSF.sol\":4683:4704  player[0].choice2 = 7 */\n      dup2\n      swap1\n      sstore\n      pop\n        /* \"RWAPSSF.sol\":4740:4741  0 */\n      0x00\n        /* \"RWAPSSF.sol\":4715:4721  player */\n      0x02\n        /* \"RWAPSSF.sol\":4715:4724  player[0] */\n      0x00\n        /* \"RWAPSSF.sol\":4722:4723  0 */\n      dup1\n        /* \"RWAPSSF.sol\":4715:4724  player[0] */\n      dup2\n      mstore\n      0x20\n      add\n      swap1\n      dup2\n      mstore\n      0x20\n      add\n      0x00\n      keccak256\n        /* \"RWAPSSF.sol\":4715:4729  player[0].addr */\n      0x02\n      add\n      0x00\n        /* \"RWAPSSF.sol\":4715:4742  player[0].addr = address(0) */\n      0x0100\n      exp\n      dup2\n      sload\n      dup2\n      0xffffffffffffffffffffffffffffffffffffffff\n      mul\n      not\n      and\n      swap1\n      dup4\n      0xffffffffffffffffffffffffffffffffffffffff\n      and\n      mul\n      or\n      swap1\n      sstore\n      pop\n        /* \"RWAPSSF.sol\":4775:4776  7 */\n      0x07\n        /* \"RWAPSSF.sol\":4755:4761  player */\n      0x02\n        /* \"RWAPSSF.sol\":4755:4764  player[1] */\n      0x00\n        /* \"RWAPSSF.sol\":4762:4763  1 */\n      0x01\n        /* \"RWAPSSF.sol\":4755:4764  player[1] */\n      dup2\n      mstore\n      0x20\n      add\n      swap1\n      dup2\n      mstore\n      0x20\n      add\n      0x00\n      keccak256\n        /* \"RWAPSSF.sol\":4755:4772  player[1].choice1 */\n      0x00\n      add\n        /* \"RWAPSSF.sol\":4755:4776  player[1].choice1 = 7 */\n      dup2\n      swap1\n      sstore\n      pop\n        /* \"RWAPSSF.sol\":4807:4808  7 */\n      0x07\n        /* \"RWAPSSF.sol\":4787:4793  player */\n      0x02\n        /* \"RWAPSSF.sol\":4787:4796  player[1] */\n      0x00\n        /* \"RWAPSSF.sol\":4794:4795  1 */\n      0x01\n        /* \"RWAPSSF.sol\":4787:4796  player[1] */\n      dup2\n      mstore\n      0x20\n      add\n      swap1\n      dup2\n      mstore\n      0x20\n      add\n      0x00\n      keccak256\n        /* \"RWAPSSF.sol\":4787:4804  player[1].choice2 */\n      0x01\n      add\n        /* \"RWAPSSF.sol\":4787:4808  player[1].choice2 = 7 */\n      dup2\n      swap1\n      sstore\n      pop\n        /* \"RWAPSSF.sol\":4844:4845  0 */\n      0x00\n        /* \"RWAPSSF.sol\":4819:4825  player */\n      0x02\n        /* \"RWAPSSF.sol\":4819:4828  player[1] */\n      0x00\n        /* \"RWAPSSF.sol\":4826:4827  1 */\n      0x01\n        /* \"RWAPSSF.sol\":4819:4828  player[1] */\n      dup2\n      mstore\n      0x20\n      add\n      swap1\n      dup2\n      mstore\n      0x20\n      add\n      0x00\n      keccak256\n        /* \"RWAPSSF.sol\":4819:4833  player[1].addr */\n      0x02\n      add\n      0x00\n        /* \"RWAPSSF.sol\":4819:4846  player[1].addr = address(0) */\n      0x0100\n      exp\n      dup2\n      sload\n      dup2\n      0xffffffffffffffffffffffffffffffffffffffff\n      mul\n      not\n      and\n      swap1\n      dup4\n      0xffffffffffffffffffffffffffffffffffffffff\n      and\n      mul\n      or\n      swap1\n      sstore\n      pop\n        /* \"RWAPSSF.sol\":4503:4854  function _resetGame() private {... */\n      jump\t// out\n        /* \"CommitReveal.sol\":255:528  function commit(bytes32 dataHash) internal {... */\n    tag_180:\n        /* \"CommitReveal.sol\":333:341  dataHash */\n      dup1\n        /* \"CommitReveal.sol\":304:311  commits */\n      0x01\n        /* \"CommitReveal.sol\":304:323  commits[msg.sender] */\n      0x00\n        /* \"CommitReveal.sol\":312:322  msg.sender */\n      caller\n        /* \"CommitReveal.sol\":304:323  commits[msg.sender] */\n      0xffffffffffffffffffffffffffffffffffffffff\n      and\n      0xffffffffffffffffffffffffffffffffffffffff\n      and\n      dup2\n      mstore\n      0x20\n      add\n      swap1\n      dup2\n      mstore\n      0x20\n      add\n      0x00\n      keccak256\n        /* \"CommitReveal.sol\":304:330  commits[msg.sender].commit */\n      0x00\n      add\n        /* \"CommitReveal.sol\":304:341  commits[msg.sender].commit = dataHash */\n      dup2\n      swap1\n      sstore\n      pop\n        /* \"CommitReveal.sol\":382:394  block.number */\n      number\n        /* \"CommitReveal.sol\":347:354  commits */\n      0x01\n        /* \"CommitReveal.sol\":347:366  commits[msg.sender] */\n      0x00\n        /* \"CommitReveal.sol\":355:365  msg.sender */\n      caller\n        /* \"CommitReveal.sol\":347:366  commits[msg.sender] */\n      0xffffffffffffffffffffffffffffffffffffffff\n      and\n      0xffffffffffffffffffffffffffffffffffffffff\n      and\n      dup2\n      mstore\n      0x20\n      add\n      swap1\n      dup2\n      mstore\n      0x20\n      add\n      0x00\n      keccak256\n        /* \"CommitReveal.sol\":347:372  commits[msg.sender].block */\n      0x01\n      add\n      0x00\n        /* \"CommitReveal.sol\":347:395  commits[msg.sender].block = uint64(block.number) */\n      0x0100\n      exp\n      dup2\n      sload\n      dup2\n      0xffffffffffffffff\n      mul\n      not\n      and\n      swap1\n      dup4\n      0xffffffffffffffff\n      and\n      mul\n      or\n      swap1\n      sstore\n      pop\n        /* \"CommitReveal.sol\":432:437  false */\n      0x00\n        /* \"CommitReveal.sol\":401:408  commits */\n      0x01\n        /* \"CommitReveal.sol\":401:420  commits[msg.sender] */\n      0x00\n        /* \"CommitReveal.sol\":409:419  msg.sender */\n      caller\n        /* \"CommitReveal.sol\":401:420  commits[msg.sender] */\n      0xffffffffffffffffffffffffffffffffffffffff\n      and\n      0xffffffffffffffffffffffffffffffffffffffff\n      and\n      dup2\n      mstore\n      0x20\n      add\n      swap1\n      dup2\n      mstore\n      0x20\n      add\n      0x00\n      keccak256\n        /* \"CommitReveal.sol\":401:429  commits[msg.sender].revealed */\n      0x01\n      add\n      0x08\n        /* \"CommitReveal.sol\":401:437  commits[msg.sender].revealed = false */\n      0x0100\n      exp\n      dup2\n      sload\n      dup2\n      0xff\n      mul\n      not\n      and\n      swap1\n      dup4\n      iszero\n      iszero\n      mul\n      or\n      swap1\n      sstore\n      pop\n        /* \"CommitReveal.sol\":448:523  CommitHash(msg.sender,commits[msg.sender].commit,commits[msg.sender].block) */\n      0x3c1a1f8f38335b17f751c6da4ba7d1865f26b3997535176f5080de9fad891603\n        /* \"CommitReveal.sol\":459:469  msg.sender */\n      caller\n        /* \"CommitReveal.sol\":470:477  commits */\n      0x01\n        /* \"CommitReveal.sol\":470:489  commits[msg.sender] */\n      0x00\n        /* \"CommitReveal.sol\":478:488  msg.sender */\n      caller\n        /* \"CommitReveal.sol\":470:489  commits[msg.sender] */\n      0xffffffffffffffffffffffffffffffffffffffff\n      and\n      0xffffffffffffffffffffffffffffffffffffffff\n      and\n      dup2\n      mstore\n      0x20\n      add\n      swap1\n      dup2\n      mstore\n      0x20\n      add\n      0x00\n      keccak256\n        /* \"CommitReveal.sol\":470:496  commits[msg.sender].commit */\n      0x00\n      add\n      sload\n        /* \"CommitReveal.sol\":497:504  commits */\n      0x01\n        /* \"CommitReveal.sol\":497:516  commits[msg.sender] */\n      0x00\n        /* \"CommitReveal.sol\":505:515  msg.sender */\n      caller\n        /* \"CommitReveal.sol\":497:516  commits[msg.sender] */\n      0xffffffffffffffffffffffffffffffffffffffff\n      and\n      0xffffffffffffffffffffffffffffffffffffffff\n      and\n      dup2\n      mstore\n      0x20\n      add\n      swap1\n      dup2\n      mstore\n      0x20\n      add\n      0x00\n      keccak256\n        /* \"CommitReveal.sol\":497:522  commits[msg.sender].block */\n      0x01\n      add\n      0x00\n      swap1\n      sload\n      swap1\n      0x0100\n      exp\n      swap1\n      div\n      0xffffffffffffffff\n      and\n        /* \"CommitReveal.sol\":448:523  CommitHash(msg.sender,commits[msg.sender].commit,commits[msg.sender].block) */\n      mload(0x40)\n      tag_272\n      swap4\n      swap3\n      swap2\n      swap1\n      tag_273\n      jump\t// in\n    tag_272:\n      mload(0x40)\n      dup1\n      swap2\n      sub\n      swap1\n      log1\n        /* \"CommitReveal.sol\":255:528  function commit(bytes32 dataHash) internal {... */\n      pop\n      jump\t// out\n        /* \"#utility.yul\":7:84   */\n    tag_274:\n        /* \"#utility.yul\":44:51   */\n      0x00\n        /* \"#utility.yul\":73:78   */\n      dup2\n        /* \"#utility.yul\":62:78   */\n      swap1\n      pop\n        /* \"#utility.yul\":7:84   */\n      swap2\n      swap1\n      pop\n      jump\t// out\n        /* \"#utility.yul\":90:208   */\n    tag_275:\n        /* \"#utility.yul\":177:201   */\n      tag_332\n        /* \"#utility.yul\":195:200   */\n      dup2\n        /* \"#utility.yul\":177:201   */\n      tag_274\n      jump\t// in\n    tag_332:\n        /* \"#utility.yul\":172:175   */\n      dup3\n        /* \"#utility.yul\":165:202   */\n      mstore\n        /* \"#utility.yul\":90:208   */\n      pop\n      pop\n      jump\t// out\n        /* \"#utility.yul\":214:436   */\n    tag_24:\n        /* \"#utility.yul\":307:311   */\n      0x00\n        /* \"#utility.yul\":345:347   */\n      0x20\n        /* \"#utility.yul\":334:343   */\n      dup3\n        /* \"#utility.yul\":330:348   */\n      add\n        /* \"#utility.yul\":322:348   */\n      swap1\n      pop\n        /* \"#utility.yul\":358:429   */\n      tag_334\n        /* \"#utility.yul\":426:427   */\n      0x00\n        /* \"#utility.yul\":415:424   */\n      dup4\n        /* \"#utility.yul\":411:428   */\n      add\n        /* \"#utility.yul\":402:408   */\n      dup5\n        /* \"#utility.yul\":358:429   */\n      tag_275\n      jump\t// in\n    tag_334:\n        /* \"#utility.yul\":214:436   */\n      swap3\n      swap2\n      pop\n      pop\n      jump\t// out\n        /* \"#utility.yul\":442:517   */\n    tag_276:\n        /* \"#utility.yul\":475:481   */\n      0x00\n        /* \"#utility.yul\":508:510   */\n      0x40\n        /* \"#utility.yul\":502:511   */\n      mload\n        /* \"#utility.yul\":492:511   */\n      swap1\n      pop\n        /* \"#utility.yul\":442:517   */\n      swap1\n      jump\t// out\n        /* \"#utility.yul\":523:640   */\n    tag_277:\n        /* \"#utility.yul\":632:633   */\n      0x00\n        /* \"#utility.yul\":629:630   */\n      dup1\n        /* \"#utility.yul\":622:634   */\n      revert\n        /* \"#utility.yul\":646:763   */\n    tag_278:\n        /* \"#utility.yul\":755:756   */\n      0x00\n        /* \"#utility.yul\":752:753   */\n      dup1\n        /* \"#utility.yul\":745:757   */\n      revert\n        /* \"#utility.yul\":769:891   */\n    tag_279:\n        /* \"#utility.yul\":842:866   */\n      tag_339\n        /* \"#utility.yul\":860:865   */\n      dup2\n        /* \"#utility.yul\":842:866   */\n      tag_274\n      jump\t// in\n    tag_339:\n        /* \"#utility.yul\":835:840   */\n      dup2\n        /* \"#utility.yul\":832:867   */\n      eq\n        /* \"#utility.yul\":822:885   */\n      tag_340\n      jumpi\n        /* \"#utility.yul\":881:882   */\n      0x00\n        /* \"#utility.yul\":878:879   */\n      dup1\n        /* \"#utility.yul\":871:883   */\n      revert\n        /* \"#utility.yul\":822:885   */\n    tag_340:\n        /* \"#utility.yul\":769:891   */\n      pop\n      jump\t// out\n        /* \"#utility.yul\":897:1036   */\n    tag_280:\n        /* \"#utility.yul\":943:948   */\n      0x00\n        /* \"#utility.yul\":981:987   */\n      dup2\n        /* \"#utility.yul\":968:988   */\n      calldataload\n        /* \"#utility.yul\":959:988   */\n      swap1\n      pop\n        /* \"#utility.yul\":997:1030   */\n      tag_342\n        /* \"#utility.yul\":1024:1029   */\n      dup2\n        /* \"#utility.yul\":997:1030   */\n      tag_279\n      jump\t// in\n    tag_342:\n        /* \"#utility.yul\":897:1036   */\n      swap3\n      swap2\n      pop\n      pop\n      jump\t// out\n        /* \"#utility.yul\":1042:1159   */\n    tag_281:\n        /* \"#utility.yul\":1151:1152   */\n      0x00\n        /* \"#utility.yul\":1148:1149   */\n      dup1\n        /* \"#utility.yul\":1141:1153   */\n      revert\n        /* \"#utility.yul\":1165:1282   */\n    tag_282:\n        /* \"#utility.yul\":1274:1275   */\n      0x00\n        /* \"#utility.yul\":1271:1272   */\n      dup1\n        /* \"#utility.yul\":1264:1276   */\n      revert\n        /* \"#utility.yul\":1288:1390   */\n    tag_283:\n        /* \"#utility.yul\":1329:1335   */\n      0x00\n        /* \"#utility.yul\":1380:1382   */\n      0x1f\n        /* \"#utility.yul\":1376:1383   */\n      not\n        /* \"#utility.yul\":1371:1373   */\n      0x1f\n        /* \"#utility.yul\":1364:1369   */\n      dup4\n        /* \"#utility.yul\":1360:1374   */\n      add\n        /* \"#utility.yul\":1356:1384   */\n      and\n        /* \"#utility.yul\":1346:1384   */\n      swap1\n      pop\n        /* \"#utility.yul\":1288:1390   */\n      swap2\n      swap1\n      pop\n      jump\t// out\n        /* \"#utility.yul\":1396:1576   */\n    tag_284:\n        /* \"#utility.yul\":1444:1521   */\n      0x4e487b7100000000000000000000000000000000000000000000000000000000\n        /* \"#utility.yul\":1441:1442   */\n      0x00\n        /* \"#utility.yul\":1434:1522   */\n      mstore\n        /* \"#utility.yul\":1541:1545   */\n      0x41\n        /* \"#utility.yul\":1538:1539   */\n      0x04\n        /* \"#utility.yul\":1531:1546   */\n      mstore\n        /* \"#utility.yul\":1565:1569   */\n      0x24\n        /* \"#utility.yul\":1562:1563   */\n      0x00\n        /* \"#utility.yul\":1555:1570   */\n      revert\n        /* \"#utility.yul\":1582:1863   */\n    tag_285:\n        /* \"#utility.yul\":1665:1692   */\n      tag_348\n        /* \"#utility.yul\":1687:1691   */\n      dup3\n        /* \"#utility.yul\":1665:1692   */\n      tag_283\n      jump\t// in\n    tag_348:\n        /* \"#utility.yul\":1657:1663   */\n      dup2\n        /* \"#utility.yul\":1653:1693   */\n      add\n        /* \"#utility.yul\":1795:1801   */\n      dup2\n        /* \"#utility.yul\":1783:1793   */\n      dup2\n        /* \"#utility.yul\":1780:1802   */\n      lt\n        /* \"#utility.yul\":1759:1777   */\n      0xffffffffffffffff\n        /* \"#utility.yul\":1747:1757   */\n      dup3\n        /* \"#utility.yul\":1744:1778   */\n      gt\n        /* \"#utility.yul\":1741:1803   */\n      or\n        /* \"#utility.yul\":1738:1826   */\n      iszero\n      tag_349\n      jumpi\n        /* \"#utility.yul\":1806:1824   */\n      tag_350\n      tag_284\n      jump\t// in\n    tag_350:\n        /* \"#utility.yul\":1738:1826   */\n    tag_349:\n        /* \"#utility.yul\":1846:1856   */\n      dup1\n        /* \"#utility.yul\":1842:1844   */\n      0x40\n        /* \"#utility.yul\":1835:1857   */\n      mstore\n        /* \"#utility.yul\":1625:1863   */\n      pop\n        /* \"#utility.yul\":1582:1863   */\n      pop\n      pop\n      jump\t// out\n        /* \"#utility.yul\":1869:1998   */\n    tag_286:\n        /* \"#utility.yul\":1903:1909   */\n      0x00\n        /* \"#utility.yul\":1930:1950   */\n      tag_352\n      tag_276\n      jump\t// in\n    tag_352:\n        /* \"#utility.yul\":1920:1950   */\n      swap1\n      pop\n        /* \"#utility.yul\":1959:1992   */\n      tag_353\n        /* \"#utility.yul\":1987:1991   */\n      dup3\n        /* \"#utility.yul\":1979:1985   */\n      dup3\n        /* \"#utility.yul\":1959:1992   */\n      tag_285\n      jump\t// in\n    tag_353:\n        /* \"#utility.yul\":1869:1998   */\n      swap2\n      swap1\n      pop\n      jump\t// out\n        /* \"#utility.yul\":2004:2312   */\n    tag_287:\n        /* \"#utility.yul\":2066:2070   */\n      0x00\n        /* \"#utility.yul\":2156:2174   */\n      0xffffffffffffffff\n        /* \"#utility.yul\":2148:2154   */\n      dup3\n        /* \"#utility.yul\":2145:2175   */\n      gt\n        /* \"#utility.yul\":2142:2198   */\n      iszero\n      tag_355\n      jumpi\n        /* \"#utility.yul\":2178:2196   */\n      tag_356\n      tag_284\n      jump\t// in\n    tag_356:\n        /* \"#utility.yul\":2142:2198   */\n    tag_355:\n        /* \"#utility.yul\":2216:2245   */\n      tag_357\n        /* \"#utility.yul\":2238:2244   */\n      dup3\n        /* \"#utility.yul\":2216:2245   */\n      tag_283\n      jump\t// in\n    tag_357:\n        /* \"#utility.yul\":2208:2245   */\n      swap1\n      pop\n        /* \"#utility.yul\":2300:2304   */\n      0x20\n        /* \"#utility.yul\":2294:2298   */\n      dup2\n        /* \"#utility.yul\":2290:2305   */\n      add\n        /* \"#utility.yul\":2282:2305   */\n      swap1\n      pop\n        /* \"#utility.yul\":2004:2312   */\n      swap2\n      swap1\n      pop\n      jump\t// out\n        /* \"#utility.yul\":2318:2464   */\n    tag_288:\n        /* \"#utility.yul\":2415:2421   */\n      dup3\n        /* \"#utility.yul\":2410:2413   */\n      dup2\n        /* \"#utility.yul\":2405:2408   */\n      dup4\n        /* \"#utility.yul\":2392:2422   */\n      calldatacopy\n        /* \"#utility.yul\":2456:2457   */\n      0x00\n        /* \"#utility.yul\":2447:2453   */\n      dup4\n        /* \"#utility.yul\":2442:2445   */\n      dup4\n        /* \"#utility.yul\":2438:2454   */\n      add\n        /* \"#utility.yul\":2431:2458   */\n      mstore\n        /* \"#utility.yul\":2318:2464   */\n      pop\n      pop\n      pop\n      jump\t// out\n        /* \"#utility.yul\":2470:2895   */\n    tag_289:\n        /* \"#utility.yul\":2548:2553   */\n      0x00\n        /* \"#utility.yul\":2573:2639   */\n      tag_360\n        /* \"#utility.yul\":2589:2638   */\n      tag_361\n        /* \"#utility.yul\":2631:2637   */\n      dup5\n        /* \"#utility.yul\":2589:2638   */\n      tag_287\n      jump\t// in\n    tag_361:\n        /* \"#utility.yul\":2573:2639   */\n      tag_286\n      jump\t// in\n    tag_360:\n        /* \"#utility.yul\":2564:2639   */\n      swap1\n      pop\n        /* \"#utility.yul\":2662:2668   */\n      dup3\n        /* \"#utility.yul\":2655:2660   */\n      dup2\n        /* \"#utility.yul\":2648:2669   */\n      mstore\n        /* \"#utility.yul\":2700:2704   */\n      0x20\n        /* \"#utility.yul\":2693:2698   */\n      dup2\n        /* \"#utility.yul\":2689:2705   */\n      add\n        /* \"#utility.yul\":2738:2741   */\n      dup5\n        /* \"#utility.yul\":2729:2735   */\n      dup5\n        /* \"#utility.yul\":2724:2727   */\n      dup5\n        /* \"#utility.yul\":2720:2736   */\n      add\n        /* \"#utility.yul\":2717:2742   */\n      gt\n        /* \"#utility.yul\":2714:2826   */\n      iszero\n      tag_362\n      jumpi\n        /* \"#utility.yul\":2745:2824   */\n      tag_363\n      tag_282\n      jump\t// in\n    tag_363:\n        /* \"#utility.yul\":2714:2826   */\n    tag_362:\n        /* \"#utility.yul\":2835:2889   */\n      tag_364\n        /* \"#utility.yul\":2882:2888   */\n      dup5\n        /* \"#utility.yul\":2877:2880   */\n      dup3\n        /* \"#utility.yul\":2872:2875   */\n      dup6\n        /* \"#utility.yul\":2835:2889   */\n      tag_288\n      jump\t// in\n    tag_364:\n        /* \"#utility.yul\":2554:2895   */\n      pop\n        /* \"#utility.yul\":2470:2895   */\n      swap4\n      swap3\n      pop\n      pop\n      pop\n      jump\t// out\n        /* \"#utility.yul\":2915:3255   */\n    tag_290:\n        /* \"#utility.yul\":2971:2976   */\n      0x00\n        /* \"#utility.yul\":3020:3023   */\n      dup3\n        /* \"#utility.yul\":3013:3017   */\n      0x1f\n        /* \"#utility.yul\":3005:3011   */\n      dup4\n        /* \"#utility.yul\":3001:3018   */\n      add\n        /* \"#utility.yul\":2997:3024   */\n      slt\n        /* \"#utility.yul\":2987:3109   */\n      tag_366\n      jumpi\n        /* \"#utility.yul\":3028:3107   */\n      tag_367\n      tag_281\n      jump\t// in\n    tag_367:\n        /* \"#utility.yul\":2987:3109   */\n    tag_366:\n        /* \"#utility.yul\":3145:3151   */\n      dup2\n        /* \"#utility.yul\":3132:3152   */\n      calldataload\n        /* \"#utility.yul\":3170:3249   */\n      tag_368\n        /* \"#utility.yul\":3245:3248   */\n      dup5\n        /* \"#utility.yul\":3237:3243   */\n      dup3\n        /* \"#utility.yul\":3230:3234   */\n      0x20\n        /* \"#utility.yul\":3222:3228   */\n      dup7\n        /* \"#utility.yul\":3218:3235   */\n      add\n        /* \"#utility.yul\":3170:3249   */\n      tag_289\n      jump\t// in\n    tag_368:\n        /* \"#utility.yul\":3161:3249   */\n      swap2\n      pop\n        /* \"#utility.yul\":2977:3255   */\n      pop\n        /* \"#utility.yul\":2915:3255   */\n      swap3\n      swap2\n      pop\n      pop\n      jump\t// out\n        /* \"#utility.yul\":3261:4206   */\n    tag_28:\n        /* \"#utility.yul\":3357:3363   */\n      0x00\n        /* \"#utility.yul\":3365:3371   */\n      dup1\n        /* \"#utility.yul\":3373:3379   */\n      0x00\n        /* \"#utility.yul\":3381:3387   */\n      dup1\n        /* \"#utility.yul\":3430:3433   */\n      0x80\n        /* \"#utility.yul\":3418:3427   */\n      dup6\n        /* \"#utility.yul\":3409:3416   */\n      dup8\n        /* \"#utility.yul\":3405:3428   */\n      sub\n        /* \"#utility.yul\":3401:3434   */\n      slt\n        /* \"#utility.yul\":3398:3518   */\n      iszero\n      tag_370\n      jumpi\n        /* \"#utility.yul\":3437:3516   */\n      tag_371\n      tag_277\n      jump\t// in\n    tag_371:\n        /* \"#utility.yul\":3398:3518   */\n    tag_370:\n        /* \"#utility.yul\":3557:3558   */\n      0x00\n        /* \"#utility.yul\":3582:3635   */\n      tag_372\n        /* \"#utility.yul\":3627:3634   */\n      dup8\n        /* \"#utility.yul\":3618:3624   */\n      dup3\n        /* \"#utility.yul\":3607:3616   */\n      dup9\n        /* \"#utility.yul\":3603:3625   */\n      add\n        /* \"#utility.yul\":3582:3635   */\n      tag_280\n      jump\t// in\n    tag_372:\n        /* \"#utility.yul\":3572:3635   */\n      swap5\n      pop\n        /* \"#utility.yul\":3528:3645   */\n      pop\n        /* \"#utility.yul\":3684:3686   */\n      0x20\n        /* \"#utility.yul\":3710:3763   */\n      tag_373\n        /* \"#utility.yul\":3755:3762   */\n      dup8\n        /* \"#utility.yul\":3746:3752   */\n      dup3\n        /* \"#utility.yul\":3735:3744   */\n      dup9\n        /* \"#utility.yul\":3731:3753   */\n      add\n        /* \"#utility.yul\":3710:3763   */\n      tag_280\n      jump\t// in\n    tag_373:\n        /* \"#utility.yul\":3700:3763   */\n      swap4\n      pop\n        /* \"#utility.yul\":3655:3773   */\n      pop\n        /* \"#utility.yul\":3840:3842   */\n      0x40\n        /* \"#utility.yul\":3829:3838   */\n      dup6\n        /* \"#utility.yul\":3825:3843   */\n      add\n        /* \"#utility.yul\":3812:3844   */\n      calldataload\n        /* \"#utility.yul\":3871:3889   */\n      0xffffffffffffffff\n        /* \"#utility.yul\":3863:3869   */\n      dup2\n        /* \"#utility.yul\":3860:3890   */\n      gt\n        /* \"#utility.yul\":3857:3974   */\n      iszero\n      tag_374\n      jumpi\n        /* \"#utility.yul\":3893:3972   */\n      tag_375\n      tag_278\n      jump\t// in\n    tag_375:\n        /* \"#utility.yul\":3857:3974   */\n    tag_374:\n        /* \"#utility.yul\":3998:4061   */\n      tag_376\n        /* \"#utility.yul\":4053:4060   */\n      dup8\n        /* \"#utility.yul\":4044:4050   */\n      dup3\n        /* \"#utility.yul\":4033:4042   */\n      dup9\n        /* \"#utility.yul\":4029:4051   */\n      add\n        /* \"#utility.yul\":3998:4061   */\n      tag_290\n      jump\t// in\n    tag_376:\n        /* \"#utility.yul\":3988:4061   */\n      swap3\n      pop\n        /* \"#utility.yul\":3783:4071   */\n      pop\n        /* \"#utility.yul\":4110:4112   */\n      0x60\n        /* \"#utility.yul\":4136:4189   */\n      tag_377\n        /* \"#utility.yul\":4181:4188   */\n      dup8\n        /* \"#utility.yul\":4172:4178   */\n      dup3\n        /* \"#utility.yul\":4161:4170   */\n      dup9\n        /* \"#utility.yul\":4157:4179   */\n      add\n        /* \"#utility.yul\":4136:4189   */\n      tag_280\n      jump\t// in\n    tag_377:\n        /* \"#utility.yul\":4126:4189   */\n      swap2\n      pop\n        /* \"#utility.yul\":4081:4199   */\n      pop\n        /* \"#utility.yul\":3261:4206   */\n      swap3\n      swap6\n      swap2\n      swap5\n      pop\n      swap3\n      pop\n      jump\t// out\n        /* \"#utility.yul\":4212:4289   */\n    tag_291:\n        /* \"#utility.yul\":4249:4256   */\n      0x00\n        /* \"#utility.yul\":4278:4283   */\n      dup2\n        /* \"#utility.yul\":4267:4283   */\n      swap1\n      pop\n        /* \"#utility.yul\":4212:4289   */\n      swap2\n      swap1\n      pop\n      jump\t// out\n        /* \"#utility.yul\":4295:4417   */\n    tag_292:\n        /* \"#utility.yul\":4368:4392   */\n      tag_380\n        /* \"#utility.yul\":4386:4391   */\n      dup2\n        /* \"#utility.yul\":4368:4392   */\n      tag_291\n      jump\t// in\n    tag_380:\n        /* \"#utility.yul\":4361:4366   */\n      dup2\n        /* \"#utility.yul\":4358:4393   */\n      eq\n        /* \"#utility.yul\":4348:4411   */\n      tag_381\n      jumpi\n        /* \"#utility.yul\":4407:4408   */\n      0x00\n        /* \"#utility.yul\":4404:4405   */\n      dup1\n        /* \"#utility.yul\":4397:4409   */\n      revert\n        /* \"#utility.yul\":4348:4411   */\n    tag_381:\n        /* \"#utility.yul\":4295:4417   */\n      pop\n      jump\t// out\n        /* \"#utility.yul\":4423:4562   */\n    tag_293:\n        /* \"#utility.yul\":4469:4474   */\n      0x00\n        /* \"#utility.yul\":4507:4513   */\n      dup2\n        /* \"#utility.yul\":4494:4514   */\n      calldataload\n        /* \"#utility.yul\":4485:4514   */\n      swap1\n      pop\n        /* \"#utility.yul\":4523:4556   */\n      tag_383\n        /* \"#utility.yul\":4550:4555   */\n      dup2\n        /* \"#utility.yul\":4523:4556   */\n      tag_292\n      jump\t// in\n    tag_383:\n        /* \"#utility.yul\":4423:4562   */\n      swap3\n      swap2\n      pop\n      pop\n      jump\t// out\n        /* \"#utility.yul\":4568:4897   */\n    tag_43:\n        /* \"#utility.yul\":4627:4633   */\n      0x00\n        /* \"#utility.yul\":4676:4678   */\n      0x20\n        /* \"#utility.yul\":4664:4673   */\n      dup3\n        /* \"#utility.yul\":4655:4662   */\n      dup5\n        /* \"#utility.yul\":4651:4674   */\n      sub\n        /* \"#utility.yul\":4647:4679   */\n      slt\n        /* \"#utility.yul\":4644:4763   */\n      iszero\n      tag_385\n      jumpi\n        /* \"#utility.yul\":4682:4761   */\n      tag_386\n      tag_277\n      jump\t// in\n    tag_386:\n        /* \"#utility.yul\":4644:4763   */\n    tag_385:\n        /* \"#utility.yul\":4802:4803   */\n      0x00\n        /* \"#utility.yul\":4827:4880   */\n      tag_387\n        /* \"#utility.yul\":4872:4879   */\n      dup5\n        /* \"#utility.yul\":4863:4869   */\n      dup3\n        /* \"#utility.yul\":4852:4861   */\n      dup6\n        /* \"#utility.yul\":4848:4870   */\n      add\n        /* \"#utility.yul\":4827:4880   */\n      tag_293\n      jump\t// in\n    tag_387:\n        /* \"#utility.yul\":4817:4880   */\n      swap2\n      pop\n        /* \"#utility.yul\":4773:4890   */\n      pop\n        /* \"#utility.yul\":4568:4897   */\n      swap3\n      swap2\n      pop\n      pop\n      jump\t// out\n        /* \"#utility.yul\":4903:5021   */\n    tag_294:\n        /* \"#utility.yul\":4990:5014   */\n      tag_389\n        /* \"#utility.yul\":5008:5013   */\n      dup2\n        /* \"#utility.yul\":4990:5014   */\n      tag_291\n      jump\t// in\n    tag_389:\n        /* \"#utility.yul\":4985:4988   */\n      dup3\n        /* \"#utility.yul\":4978:5015   */\n      mstore\n        /* \"#utility.yul\":4903:5021   */\n      pop\n      pop\n      jump\t// out\n        /* \"#utility.yul\":5027:5249   */\n    tag_46:\n        /* \"#utility.yul\":5120:5124   */\n      0x00\n        /* \"#utility.yul\":5158:5160   */\n      0x20\n        /* \"#utility.yul\":5147:5156   */\n      dup3\n        /* \"#utility.yul\":5143:5161   */\n      add\n        /* \"#utility.yul\":5135:5161   */\n      swap1\n      pop\n        /* \"#utility.yul\":5171:5242   */\n      tag_391\n        /* \"#utility.yul\":5239:5240   */\n      0x00\n        /* \"#utility.yul\":5228:5237   */\n      dup4\n        /* \"#utility.yul\":5224:5241   */\n      add\n        /* \"#utility.yul\":5215:5221   */\n      dup5\n        /* \"#utility.yul\":5171:5242   */\n      tag_294\n      jump\t// in\n    tag_391:\n        /* \"#utility.yul\":5027:5249   */\n      swap3\n      swap2\n      pop\n      pop\n      jump\t// out\n        /* \"#utility.yul\":5255:6054   */\n    tag_50:\n        /* \"#utility.yul\":5342:5348   */\n      0x00\n        /* \"#utility.yul\":5350:5356   */\n      dup1\n        /* \"#utility.yul\":5358:5364   */\n      0x00\n        /* \"#utility.yul\":5407:5409   */\n      0x60\n        /* \"#utility.yul\":5395:5404   */\n      dup5\n        /* \"#utility.yul\":5386:5393   */\n      dup7\n        /* \"#utility.yul\":5382:5405   */\n      sub\n        /* \"#utility.yul\":5378:5410   */\n      slt\n        /* \"#utility.yul\":5375:5494   */\n      iszero\n      tag_393\n      jumpi\n        /* \"#utility.yul\":5413:5492   */\n      tag_394\n      tag_277\n      jump\t// in\n    tag_394:\n        /* \"#utility.yul\":5375:5494   */\n    tag_393:\n        /* \"#utility.yul\":5533:5534   */\n      0x00\n        /* \"#utility.yul\":5558:5611   */\n      tag_395\n        /* \"#utility.yul\":5603:5610   */\n      dup7\n        /* \"#utility.yul\":5594:5600   */\n      dup3\n        /* \"#utility.yul\":5583:5592   */\n      dup8\n        /* \"#utility.yul\":5579:5601   */\n      add\n        /* \"#utility.yul\":5558:5611   */\n      tag_280\n      jump\t// in\n    tag_395:\n        /* \"#utility.yul\":5548:5611   */\n      swap4\n      pop\n        /* \"#utility.yul\":5504:5621   */\n      pop\n        /* \"#utility.yul\":5660:5662   */\n      0x20\n        /* \"#utility.yul\":5686:5739   */\n      tag_396\n        /* \"#utility.yul\":5731:5738   */\n      dup7\n        /* \"#utility.yul\":5722:5728   */\n      dup3\n        /* \"#utility.yul\":5711:5720   */\n      dup8\n        /* \"#utility.yul\":5707:5729   */\n      add\n        /* \"#utility.yul\":5686:5739   */\n      tag_280\n      jump\t// in\n    tag_396:\n        /* \"#utility.yul\":5676:5739   */\n      swap3\n      pop\n        /* \"#utility.yul\":5631:5749   */\n      pop\n        /* \"#utility.yul\":5816:5818   */\n      0x40\n        /* \"#utility.yul\":5805:5814   */\n      dup5\n        /* \"#utility.yul\":5801:5819   */\n      add\n        /* \"#utility.yul\":5788:5820   */\n      calldataload\n        /* \"#utility.yul\":5847:5865   */\n      0xffffffffffffffff\n        /* \"#utility.yul\":5839:5845   */\n      dup2\n        /* \"#utility.yul\":5836:5866   */\n      gt\n        /* \"#utility.yul\":5833:5950   */\n      iszero\n      tag_397\n      jumpi\n        /* \"#utility.yul\":5869:5948   */\n      tag_398\n      tag_278\n      jump\t// in\n    tag_398:\n        /* \"#utility.yul\":5833:5950   */\n    tag_397:\n        /* \"#utility.yul\":5974:6037   */\n      tag_399\n        /* \"#utility.yul\":6029:6036   */\n      dup7\n        /* \"#utility.yul\":6020:6026   */\n      dup3\n        /* \"#utility.yul\":6009:6018   */\n      dup8\n        /* \"#utility.yul\":6005:6027   */\n      add\n        /* \"#utility.yul\":5974:6037   */\n      tag_290\n      jump\t// in\n    tag_399:\n        /* \"#utility.yul\":5964:6037   */\n      swap2\n      pop\n        /* \"#utility.yul\":5759:6047   */\n      pop\n        /* \"#utility.yul\":5255:6054   */\n      swap3\n      pop\n      swap3\n      pop\n      swap3\n      jump\t// out\n        /* \"#utility.yul\":6060:6534   */\n    tag_63:\n        /* \"#utility.yul\":6128:6134   */\n      0x00\n        /* \"#utility.yul\":6136:6142   */\n      dup1\n        /* \"#utility.yul\":6185:6187   */\n      0x40\n        /* \"#utility.yul\":6173:6182   */\n      dup4\n        /* \"#utility.yul\":6164:6171   */\n      dup6\n        /* \"#utility.yul\":6160:6183   */\n      sub\n        /* \"#utility.yul\":6156:6188   */\n      slt\n        /* \"#utility.yul\":6153:6272   */\n      iszero\n      tag_401\n      jumpi\n        /* \"#utility.yul\":6191:6270   */\n      tag_402\n      tag_277\n      jump\t// in\n    tag_402:\n        /* \"#utility.yul\":6153:6272   */\n    tag_401:\n        /* \"#utility.yul\":6311:6312   */\n      0x00\n        /* \"#utility.yul\":6336:6389   */\n      tag_403\n        /* \"#utility.yul\":6381:6388   */\n      dup6\n        /* \"#utility.yul\":6372:6378   */\n      dup3\n        /* \"#utility.yul\":6361:6370   */\n      dup7\n        /* \"#utility.yul\":6357:6379   */\n      add\n        /* \"#utility.yul\":6336:6389   */\n      tag_293\n      jump\t// in\n    tag_403:\n        /* \"#utility.yul\":6326:6389   */\n      swap3\n      pop\n        /* \"#utility.yul\":6282:6399   */\n      pop\n        /* \"#utility.yul\":6438:6440   */\n      0x20\n        /* \"#utility.yul\":6464:6517   */\n      tag_404\n        /* \"#utility.yul\":6509:6516   */\n      dup6\n        /* \"#utility.yul\":6500:6506   */\n      dup3\n        /* \"#utility.yul\":6489:6498   */\n      dup7\n        /* \"#utility.yul\":6485:6507   */\n      add\n        /* \"#utility.yul\":6464:6517   */\n      tag_280\n      jump\t// in\n    tag_404:\n        /* \"#utility.yul\":6454:6517   */\n      swap2\n      pop\n        /* \"#utility.yul\":6409:6527   */\n      pop\n        /* \"#utility.yul\":6060:6534   */\n      swap3\n      pop\n      swap3\n      swap1\n      pop\n      jump\t// out\n        /* \"#utility.yul\":6540:7014   */\n    tag_72:\n        /* \"#utility.yul\":6608:6614   */\n      0x00\n        /* \"#utility.yul\":6616:6622   */\n      dup1\n        /* \"#utility.yul\":6665:6667   */\n      0x40\n        /* \"#utility.yul\":6653:6662   */\n      dup4\n        /* \"#utility.yul\":6644:6651   */\n      dup6\n        /* \"#utility.yul\":6640:6663   */\n      sub\n        /* \"#utility.yul\":6636:6668   */\n      slt\n        /* \"#utility.yul\":6633:6752   */\n      iszero\n      tag_406\n      jumpi\n        /* \"#utility.yul\":6671:6750   */\n      tag_407\n      tag_277\n      jump\t// in\n    tag_407:\n        /* \"#utility.yul\":6633:6752   */\n    tag_406:\n        /* \"#utility.yul\":6791:6792   */\n      0x00\n        /* \"#utility.yul\":6816:6869   */\n      tag_408\n        /* \"#utility.yul\":6861:6868   */\n      dup6\n        /* \"#utility.yul\":6852:6858   */\n      dup3\n        /* \"#utility.yul\":6841:6850   */\n      dup7\n        /* \"#utility.yul\":6837:6859   */\n      add\n        /* \"#utility.yul\":6816:6869   */\n      tag_293\n      jump\t// in\n    tag_408:\n        /* \"#utility.yul\":6806:6869   */\n      swap3\n      pop\n        /* \"#utility.yul\":6762:6879   */\n      pop\n        /* \"#utility.yul\":6918:6920   */\n      0x20\n        /* \"#utility.yul\":6944:6997   */\n      tag_409\n        /* \"#utility.yul\":6989:6996   */\n      dup6\n        /* \"#utility.yul\":6980:6986   */\n      dup3\n        /* \"#utility.yul\":6969:6978   */\n      dup7\n        /* \"#utility.yul\":6965:6987   */\n      add\n        /* \"#utility.yul\":6944:6997   */\n      tag_293\n      jump\t// in\n    tag_409:\n        /* \"#utility.yul\":6934:6997   */\n      swap2\n      pop\n        /* \"#utility.yul\":6889:7007   */\n      pop\n        /* \"#utility.yul\":6540:7014   */\n      swap3\n      pop\n      swap3\n      swap1\n      pop\n      jump\t// out\n        /* \"#utility.yul\":7020:7349   */\n    tag_82:\n        /* \"#utility.yul\":7079:7085   */\n      0x00\n        /* \"#utility.yul\":7128:7130   */\n      0x20\n        /* \"#utility.yul\":7116:7125   */\n      dup3\n        /* \"#utility.yul\":7107:7114   */\n      dup5\n        /* \"#utility.yul\":7103:7126   */\n      sub\n        /* \"#utility.yul\":7099:7131   */\n      slt\n        /* \"#utility.yul\":7096:7215   */\n      iszero\n      tag_411\n      jumpi\n        /* \"#utility.yul\":7134:7213   */\n      tag_412\n      tag_277\n      jump\t// in\n    tag_412:\n        /* \"#utility.yul\":7096:7215   */\n    tag_411:\n        /* \"#utility.yul\":7254:7255   */\n      0x00\n        /* \"#utility.yul\":7279:7332   */\n      tag_413\n        /* \"#utility.yul\":7324:7331   */\n      dup5\n        /* \"#utility.yul\":7315:7321   */\n      dup3\n        /* \"#utility.yul\":7304:7313   */\n      dup6\n        /* \"#utility.yul\":7300:7322   */\n      add\n        /* \"#utility.yul\":7279:7332   */\n      tag_280\n      jump\t// in\n    tag_413:\n        /* \"#utility.yul\":7269:7332   */\n      swap2\n      pop\n        /* \"#utility.yul\":7225:7342   */\n      pop\n        /* \"#utility.yul\":7020:7349   */\n      swap3\n      swap2\n      pop\n      pop\n      jump\t// out\n        /* \"#utility.yul\":7355:7481   */\n    tag_295:\n        /* \"#utility.yul\":7392:7399   */\n      0x00\n        /* \"#utility.yul\":7432:7474   */\n      0xffffffffffffffffffffffffffffffffffffffff\n        /* \"#utility.yul\":7425:7430   */\n      dup3\n        /* \"#utility.yul\":7421:7475   */\n      and\n        /* \"#utility.yul\":7410:7475   */\n      swap1\n      pop\n        /* \"#utility.yul\":7355:7481   */\n      swap2\n      swap1\n      pop\n      jump\t// out\n        /* \"#utility.yul\":7487:7583   */\n    tag_296:\n        /* \"#utility.yul\":7524:7531   */\n      0x00\n        /* \"#utility.yul\":7553:7577   */\n      tag_416\n        /* \"#utility.yul\":7571:7576   */\n      dup3\n        /* \"#utility.yul\":7553:7577   */\n      tag_295\n      jump\t// in\n    tag_416:\n        /* \"#utility.yul\":7542:7577   */\n      swap1\n      pop\n        /* \"#utility.yul\":7487:7583   */\n      swap2\n      swap1\n      pop\n      jump\t// out\n        /* \"#utility.yul\":7589:7707   */\n    tag_297:\n        /* \"#utility.yul\":7676:7700   */\n      tag_418\n        /* \"#utility.yul\":7694:7699   */\n      dup2\n        /* \"#utility.yul\":7676:7700   */\n      tag_296\n      jump\t// in\n    tag_418:\n        /* \"#utility.yul\":7671:7674   */\n      dup3\n        /* \"#utility.yul\":7664:7701   */\n      mstore\n        /* \"#utility.yul\":7589:7707   */\n      pop\n      pop\n      jump\t// out\n        /* \"#utility.yul\":7713:8155   */\n    tag_85:\n        /* \"#utility.yul\":7862:7866   */\n      0x00\n        /* \"#utility.yul\":7900:7902   */\n      0x60\n        /* \"#utility.yul\":7889:7898   */\n      dup3\n        /* \"#utility.yul\":7885:7903   */\n      add\n        /* \"#utility.yul\":7877:7903   */\n      swap1\n      pop\n        /* \"#utility.yul\":7913:7984   */\n      tag_420\n        /* \"#utility.yul\":7981:7982   */\n      0x00\n        /* \"#utility.yul\":7970:7979   */\n      dup4\n        /* \"#utility.yul\":7966:7983   */\n      add\n        /* \"#utility.yul\":7957:7963   */\n      dup7\n        /* \"#utility.yul\":7913:7984   */\n      tag_275\n      jump\t// in\n    tag_420:\n        /* \"#utility.yul\":7994:8066   */\n      tag_421\n        /* \"#utility.yul\":8062:8064   */\n      0x20\n        /* \"#utility.yul\":8051:8060   */\n      dup4\n        /* \"#utility.yul\":8047:8065   */\n      add\n        /* \"#utility.yul\":8038:8044   */\n      dup6\n        /* \"#utility.yul\":7994:8066   */\n      tag_275\n      jump\t// in\n    tag_421:\n        /* \"#utility.yul\":8076:8148   */\n      tag_422\n        /* \"#utility.yul\":8144:8146   */\n      0x40\n        /* \"#utility.yul\":8133:8142   */\n      dup4\n        /* \"#utility.yul\":8129:8147   */\n      add\n        /* \"#utility.yul\":8120:8126   */\n      dup5\n        /* \"#utility.yul\":8076:8148   */\n      tag_297\n      jump\t// in\n    tag_422:\n        /* \"#utility.yul\":7713:8155   */\n      swap5\n      swap4\n      pop\n      pop\n      pop\n      pop\n      jump\t// out\n        /* \"#utility.yul\":8161:8240   */\n    tag_298:\n        /* \"#utility.yul\":8200:8207   */\n      0x00\n        /* \"#utility.yul\":8229:8234   */\n      dup2\n        /* \"#utility.yul\":8218:8234   */\n      swap1\n      pop\n        /* \"#utility.yul\":8161:8240   */\n      swap2\n      swap1\n      pop\n      jump\t// out\n        /* \"#utility.yul\":8246:8403   */\n    tag_299:\n        /* \"#utility.yul\":8351:8396   */\n      tag_425\n        /* \"#utility.yul\":8371:8395   */\n      tag_426\n        /* \"#utility.yul\":8389:8394   */\n      dup3\n        /* \"#utility.yul\":8371:8395   */\n      tag_274\n      jump\t// in\n    tag_426:\n        /* \"#utility.yul\":8351:8396   */\n      tag_298\n      jump\t// in\n    tag_425:\n        /* \"#utility.yul\":8346:8349   */\n      dup3\n        /* \"#utility.yul\":8339:8397   */\n      mstore\n        /* \"#utility.yul\":8246:8403   */\n      pop\n      pop\n      jump\t// out\n        /* \"#utility.yul\":8409:8806   */\n    tag_98:\n        /* \"#utility.yul\":8549:8552   */\n      0x00\n        /* \"#utility.yul\":8564:8639   */\n      tag_428\n        /* \"#utility.yul\":8635:8638   */\n      dup3\n        /* \"#utility.yul\":8626:8632   */\n      dup6\n        /* \"#utility.yul\":8564:8639   */\n      tag_299\n      jump\t// in\n    tag_428:\n        /* \"#utility.yul\":8664:8666   */\n      0x20\n        /* \"#utility.yul\":8659:8662   */\n      dup3\n        /* \"#utility.yul\":8655:8667   */\n      add\n        /* \"#utility.yul\":8648:8667   */\n      swap2\n      pop\n        /* \"#utility.yul\":8677:8752   */\n      tag_429\n        /* \"#utility.yul\":8748:8751   */\n      dup3\n        /* \"#utility.yul\":8739:8745   */\n      dup5\n        /* \"#utility.yul\":8677:8752   */\n      tag_299\n      jump\t// in\n    tag_429:\n        /* \"#utility.yul\":8777:8779   */\n      0x20\n        /* \"#utility.yul\":8772:8775   */\n      dup3\n        /* \"#utility.yul\":8768:8780   */\n      add\n        /* \"#utility.yul\":8761:8780   */\n      swap2\n      pop\n        /* \"#utility.yul\":8797:8800   */\n      dup2\n        /* \"#utility.yul\":8790:8800   */\n      swap1\n      pop\n        /* \"#utility.yul\":8409:8806   */\n      swap4\n      swap3\n      pop\n      pop\n      pop\n      jump\t// out\n        /* \"#utility.yul\":8812:8910   */\n    tag_300:\n        /* \"#utility.yul\":8863:8869   */\n      0x00\n        /* \"#utility.yul\":8897:8902   */\n      dup2\n        /* \"#utility.yul\":8891:8903   */\n      mload\n        /* \"#utility.yul\":8881:8903   */\n      swap1\n      pop\n        /* \"#utility.yul\":8812:8910   */\n      swap2\n      swap1\n      pop\n      jump\t// out\n        /* \"#utility.yul\":8916:9032   */\n    tag_301:\n        /* \"#utility.yul\":8967:8971   */\n      0x00\n        /* \"#utility.yul\":8990:8993   */\n      dup2\n        /* \"#utility.yul\":8982:8993   */\n      swap1\n      pop\n        /* \"#utility.yul\":9020:9024   */\n      0x20\n        /* \"#utility.yul\":9015:9018   */\n      dup3\n        /* \"#utility.yul\":9011:9025   */\n      add\n        /* \"#utility.yul\":9003:9025   */\n      swap1\n      pop\n        /* \"#utility.yul\":8916:9032   */\n      swap2\n      swap1\n      pop\n      jump\t// out\n        /* \"#utility.yul\":9038:9192   */\n    tag_302:\n        /* \"#utility.yul\":9081:9092   */\n      0x00\n        /* \"#utility.yul\":9117:9146   */\n      tag_433\n        /* \"#utility.yul\":9141:9144   */\n      dup3\n        /* \"#utility.yul\":9135:9145   */\n      mload\n        /* \"#utility.yul\":9117:9146   */\n      tag_291\n      jump\t// in\n    tag_433:\n        /* \"#utility.yul\":9180:9185   */\n      dup1\n        /* \"#utility.yul\":9156:9185   */\n      swap2\n      pop\n        /* \"#utility.yul\":9093:9192   */\n      pop\n        /* \"#utility.yul\":9038:9192   */\n      swap2\n      swap1\n      pop\n      jump\t// out\n        /* \"#utility.yul\":9198:9305   */\n    tag_303:\n        /* \"#utility.yul\":9242:9250   */\n      0x00\n        /* \"#utility.yul\":9292:9297   */\n      dup3\n        /* \"#utility.yul\":9286:9290   */\n      dup3\n        /* \"#utility.yul\":9282:9298   */\n      shl\n        /* \"#utility.yul\":9261:9298   */\n      swap1\n      pop\n        /* \"#utility.yul\":9198:9305   */\n      swap3\n      swap2\n      pop\n      pop\n      jump\t// out\n        /* \"#utility.yul\":9311:9905   */\n    tag_100:\n        /* \"#utility.yul\":9395:9400   */\n      0x00\n        /* \"#utility.yul\":9426:9464   */\n      tag_436\n        /* \"#utility.yul\":9458:9463   */\n      dup3\n        /* \"#utility.yul\":9426:9464   */\n      tag_300\n      jump\t// in\n    tag_436:\n        /* \"#utility.yul\":9489:9494   */\n      dup3\n        /* \"#utility.yul\":9516:9556   */\n      tag_437\n        /* \"#utility.yul\":9550:9555   */\n      dup5\n        /* \"#utility.yul\":9516:9556   */\n      tag_301\n      jump\t// in\n    tag_437:\n        /* \"#utility.yul\":9504:9556   */\n      swap1\n      pop\n        /* \"#utility.yul\":9575:9610   */\n      tag_438\n        /* \"#utility.yul\":9601:9609   */\n      dup2\n        /* \"#utility.yul\":9575:9610   */\n      tag_302\n      jump\t// in\n    tag_438:\n        /* \"#utility.yul\":9566:9610   */\n      swap3\n      pop\n        /* \"#utility.yul\":9634:9636   */\n      0x20\n        /* \"#utility.yul\":9626:9632   */\n      dup3\n        /* \"#utility.yul\":9623:9637   */\n      lt\n        /* \"#utility.yul\":9620:9898   */\n      iszero\n      tag_439\n      jumpi\n        /* \"#utility.yul\":9705:9874   */\n      tag_440\n        /* \"#utility.yul\":9790:9856   */\n      0xffffffffffffffffffffffffffffffffffffffffffffffffffffffffffffffff\n        /* \"#utility.yul\":9760:9766   */\n      dup4\n        /* \"#utility.yul\":9756:9758   */\n      0x20\n        /* \"#utility.yul\":9752:9767   */\n      sub\n        /* \"#utility.yul\":9749:9750   */\n      0x08\n        /* \"#utility.yul\":9745:9768   */\n      mul\n        /* \"#utility.yul\":9705:9874   */\n      tag_303\n      jump\t// in\n    tag_440:\n        /* \"#utility.yul\":9682:9687   */\n      dup4\n        /* \"#utility.yul\":9661:9888   */\n      and\n        /* \"#utility.yul\":9652:9888   */\n      swap3\n      pop\n        /* \"#utility.yul\":9620:9898   */\n    tag_439:\n        /* \"#utility.yul\":9401:9905   */\n      pop\n      pop\n        /* \"#utility.yul\":9311:9905   */\n      swap2\n      swap1\n      pop\n      jump\t// out\n        /* \"#utility.yul\":9911:10010   */\n    tag_304:\n        /* \"#utility.yul\":9963:9969   */\n      0x00\n        /* \"#utility.yul\":9997:10002   */\n      dup2\n        /* \"#utility.yul\":9991:10003   */\n      mload\n        /* \"#utility.yul\":9981:10003   */\n      swap1\n      pop\n        /* \"#utility.yul\":9911:10010   */\n      swap2\n      swap1\n      pop\n      jump\t// out\n        /* \"#utility.yul\":10016:10164   */\n    tag_305:\n        /* \"#utility.yul\":10118:10129   */\n      0x00\n        /* \"#utility.yul\":10155:10158   */\n      dup2\n        /* \"#utility.yul\":10140:10158   */\n      swap1\n      pop\n        /* \"#utility.yul\":10016:10164   */\n      swap3\n      swap2\n      pop\n      pop\n      jump\t// out\n        /* \"#utility.yul\":10170:10416   */\n    tag_306:\n        /* \"#utility.yul\":10251:10252   */\n      0x00\n        /* \"#utility.yul\":10261:10374   */\n    tag_444:\n        /* \"#utility.yul\":10275:10281   */\n      dup4\n        /* \"#utility.yul\":10272:10273   */\n      dup2\n        /* \"#utility.yul\":10269:10282   */\n      lt\n        /* \"#utility.yul\":10261:10374   */\n      iszero\n      tag_446\n      jumpi\n        /* \"#utility.yul\":10360:10361   */\n      dup1\n        /* \"#utility.yul\":10355:10358   */\n      dup3\n        /* \"#utility.yul\":10351:10362   */\n      add\n        /* \"#utility.yul\":10345:10363   */\n      mload\n        /* \"#utility.yul\":10341:10342   */\n      dup2\n        /* \"#utility.yul\":10336:10339   */\n      dup5\n        /* \"#utility.yul\":10332:10343   */\n      add\n        /* \"#utility.yul\":10325:10364   */\n      mstore\n        /* \"#utility.yul\":10297:10299   */\n      0x20\n        /* \"#utility.yul\":10294:10295   */\n      dup2\n        /* \"#utility.yul\":10290:10300   */\n      add\n        /* \"#utility.yul\":10285:10300   */\n      swap1\n      pop\n        /* \"#utility.yul\":10261:10374   */\n      jump(tag_444)\n    tag_446:\n        /* \"#utility.yul\":10408:10409   */\n      0x00\n        /* \"#utility.yul\":10399:10405   */\n      dup5\n        /* \"#utility.yul\":10394:10397   */\n      dup5\n        /* \"#utility.yul\":10390:10406   */\n      add\n        /* \"#utility.yul\":10383:10410   */\n      mstore\n        /* \"#utility.yul\":10232:10416   */\n      pop\n        /* \"#utility.yul\":10170:10416   */\n      pop\n      pop\n      pop\n      jump\t// out\n        /* \"#utility.yul\":10422:10812   */\n    tag_307:\n        /* \"#utility.yul\":10528:10531   */\n      0x00\n        /* \"#utility.yul\":10556:10595   */\n      tag_448\n        /* \"#utility.yul\":10589:10594   */\n      dup3\n        /* \"#utility.yul\":10556:10595   */\n      tag_304\n      jump\t// in\n    tag_448:\n        /* \"#utility.yul\":10611:10700   */\n      tag_449\n        /* \"#utility.yul\":10693:10699   */\n      dup2\n        /* \"#utility.yul\":10688:10691   */\n      dup6\n        /* \"#utility.yul\":10611:10700   */\n      tag_305\n      jump\t// in\n    tag_449:\n        /* \"#utility.yul\":10604:10700   */\n      swap4\n      pop\n        /* \"#utility.yul\":10709:10774   */\n      tag_450\n        /* \"#utility.yul\":10767:10773   */\n      dup2\n        /* \"#utility.yul\":10762:10765   */\n      dup6\n        /* \"#utility.yul\":10755:10759   */\n      0x20\n        /* \"#utility.yul\":10748:10753   */\n      dup7\n        /* \"#utility.yul\":10744:10760   */\n      add\n        /* \"#utility.yul\":10709:10774   */\n      tag_306\n      jump\t// in\n    tag_450:\n        /* \"#utility.yul\":10799:10805   */\n      dup1\n        /* \"#utility.yul\":10794:10797   */\n      dup5\n        /* \"#utility.yul\":10790:10806   */\n      add\n        /* \"#utility.yul\":10783:10806   */\n      swap2\n      pop\n        /* \"#utility.yul\":10532:10812   */\n      pop\n        /* \"#utility.yul\":10422:10812   */\n      swap3\n      swap2\n      pop\n      pop\n      jump\t// out\n        /* \"#utility.yul\":10818:11093   */\n    tag_102:\n        /* \"#utility.yul\":10950:10953   */\n      0x00\n        /* \"#utility.yul\":10972:11067   */\n      tag_452\n        /* \"#utility.yul\":11063:11066   */\n      dup3\n        /* \"#utility.yul\":11054:11060   */\n      dup5\n        /* \"#utility.yul\":10972:11067   */\n      tag_307\n      jump\t// in\n    tag_452:\n        /* \"#utility.yul\":10965:11067   */\n      swap2\n      pop\n        /* \"#utility.yul\":11084:11087   */\n      dup2\n        /* \"#utility.yul\":11077:11087   */\n      swap1\n      pop\n        /* \"#utility.yul\":10818:11093   */\n      swap3\n      swap2\n      pop\n      pop\n      jump\t// out\n        /* \"#utility.yul\":11099:11178   */\n    tag_308:\n        /* \"#utility.yul\":11138:11145   */\n      0x00\n        /* \"#utility.yul\":11167:11172   */\n      dup2\n        /* \"#utility.yul\":11156:11172   */\n      swap1\n      pop\n        /* \"#utility.yul\":11099:11178   */\n      swap2\n      swap1\n      pop\n      jump\t// out\n        /* \"#utility.yul\":11184:11341   */\n    tag_309:\n        /* \"#utility.yul\":11289:11334   */\n      tag_455\n        /* \"#utility.yul\":11309:11333   */\n      tag_456\n        /* \"#utility.yul\":11327:11332   */\n      dup3\n        /* \"#utility.yul\":11309:11333   */\n      tag_291\n      jump\t// in\n    tag_456:\n        /* \"#utility.yul\":11289:11334   */\n      tag_308\n      jump\t// in\n    tag_455:\n        /* \"#utility.yul\":11284:11287   */\n      dup3\n        /* \"#utility.yul\":11277:11335   */\n      mstore\n        /* \"#utility.yul\":11184:11341   */\n      pop\n      pop\n      jump\t// out\n        /* \"#utility.yul\":11347:11744   */\n    tag_106:\n        /* \"#utility.yul\":11487:11490   */\n      0x00\n        /* \"#utility.yul\":11502:11577   */\n      tag_458\n        /* \"#utility.yul\":11573:11576   */\n      dup3\n        /* \"#utility.yul\":11564:11570   */\n      dup6\n        /* \"#utility.yul\":11502:11577   */\n      tag_309\n      jump\t// in\n    tag_458:\n        /* \"#utility.yul\":11602:11604   */\n      0x20\n        /* \"#utility.yul\":11597:11600   */\n      dup3\n        /* \"#utility.yul\":11593:11605   */\n      add\n        /* \"#utility.yul\":11586:11605   */\n      swap2\n      pop\n        /* \"#utility.yul\":11615:11690   */\n      tag_459\n        /* \"#utility.yul\":11686:11689   */\n      dup3\n        /* \"#utility.yul\":11677:11683   */\n      dup5\n        /* \"#utility.yul\":11615:11690   */\n      tag_309\n      jump\t// in\n    tag_459:\n        /* \"#utility.yul\":11715:11717   */\n      0x20\n        /* \"#utility.yul\":11710:11713   */\n      dup3\n        /* \"#utility.yul\":11706:11718   */\n      add\n        /* \"#utility.yul\":11699:11718   */\n      swap2\n      pop\n        /* \"#utility.yul\":11735:11738   */\n      dup2\n        /* \"#utility.yul\":11728:11738   */\n      swap1\n      pop\n        /* \"#utility.yul\":11347:11744   */\n      swap4\n      swap3\n      pop\n      pop\n      pop\n      jump\t// out\n        /* \"#utility.yul\":11750:11930   */\n    tag_310:\n        /* \"#utility.yul\":11798:11875   */\n      0x4e487b7100000000000000000000000000000000000000000000000000000000\n        /* \"#utility.yul\":11795:11796   */\n      0x00\n        /* \"#utility.yul\":11788:11876   */\n      mstore\n        /* \"#utility.yul\":11895:11899   */\n      0x11\n        /* \"#utility.yul\":11892:11893   */\n      0x04\n        /* \"#utility.yul\":11885:11900   */\n      mstore\n        /* \"#utility.yul\":11919:11923   */\n      0x24\n        /* \"#utility.yul\":11916:11917   */\n      0x00\n        /* \"#utility.yul\":11909:11924   */\n      revert\n        /* \"#utility.yul\":11936:12169   */\n    tag_109:\n        /* \"#utility.yul\":11975:11978   */\n      0x00\n        /* \"#utility.yul\":11998:12022   */\n      tag_462\n        /* \"#utility.yul\":12016:12021   */\n      dup3\n        /* \"#utility.yul\":11998:12022   */\n      tag_274\n      jump\t// in\n    tag_462:\n        /* \"#utility.yul\":11989:12022   */\n      swap2\n      pop\n        /* \"#utility.yul\":12044:12110   */\n      0xffffffffffffffffffffffffffffffffffffffffffffffffffffffffffffffff\n        /* \"#utility.yul\":12037:12042   */\n      dup3\n        /* \"#utility.yul\":12034:12111   */\n      sub\n        /* \"#utility.yul\":12031:12134   */\n      tag_463\n      jumpi\n        /* \"#utility.yul\":12114:12132   */\n      tag_464\n      tag_310\n      jump\t// in\n    tag_464:\n        /* \"#utility.yul\":12031:12134   */\n    tag_463:\n        /* \"#utility.yul\":12161:12162   */\n      0x01\n        /* \"#utility.yul\":12154:12159   */\n      dup3\n        /* \"#utility.yul\":12150:12163   */\n      add\n        /* \"#utility.yul\":12143:12163   */\n      swap1\n      pop\n        /* \"#utility.yul\":11936:12169   */\n      swap2\n      swap1\n      pop\n      jump\t// out\n        /* \"#utility.yul\":12175:12366   */\n    tag_117:\n        /* \"#utility.yul\":12215:12218   */\n      0x00\n        /* \"#utility.yul\":12234:12254   */\n      tag_466\n        /* \"#utility.yul\":12252:12253   */\n      dup3\n        /* \"#utility.yul\":12234:12254   */\n      tag_274\n      jump\t// in\n    tag_466:\n        /* \"#utility.yul\":12229:12254   */\n      swap2\n      pop\n        /* \"#utility.yul\":12268:12288   */\n      tag_467\n        /* \"#utility.yul\":12286:12287   */\n      dup4\n        /* \"#utility.yul\":12268:12288   */\n      tag_274\n      jump\t// in\n    tag_467:\n        /* \"#utility.yul\":12263:12288   */\n      swap3\n      pop\n        /* \"#utility.yul\":12311:12312   */\n      dup3\n        /* \"#utility.yul\":12308:12309   */\n      dup3\n        /* \"#utility.yul\":12304:12313   */\n      add\n        /* \"#utility.yul\":12297:12313   */\n      swap1\n      pop\n        /* \"#utility.yul\":12332:12335   */\n      dup1\n        /* \"#utility.yul\":12329:12330   */\n      dup3\n        /* \"#utility.yul\":12326:12336   */\n      gt\n        /* \"#utility.yul\":12323:12359   */\n      iszero\n      tag_468\n      jumpi\n        /* \"#utility.yul\":12339:12357   */\n      tag_469\n      tag_310\n      jump\t// in\n    tag_469:\n        /* \"#utility.yul\":12323:12359   */\n    tag_468:\n        /* \"#utility.yul\":12175:12366   */\n      swap3\n      swap2\n      pop\n      pop\n      jump\t// out\n        /* \"#utility.yul\":12372:12466   */\n    tag_311:\n        /* \"#utility.yul\":12405:12413   */\n      0x00\n        /* \"#utility.yul\":12453:12458   */\n      dup2\n        /* \"#utility.yul\":12449:12451   */\n      0x60\n        /* \"#utility.yul\":12445:12459   */\n      shl\n        /* \"#utility.yul\":12424:12459   */\n      swap1\n      pop\n        /* \"#utility.yul\":12372:12466   */\n      swap2\n      swap1\n      pop\n      jump\t// out\n        /* \"#utility.yul\":12472:12566   */\n    tag_312:\n        /* \"#utility.yul\":12511:12518   */\n      0x00\n        /* \"#utility.yul\":12540:12560   */\n      tag_472\n        /* \"#utility.yul\":12554:12559   */\n      dup3\n        /* \"#utility.yul\":12540:12560   */\n      tag_311\n      jump\t// in\n    tag_472:\n        /* \"#utility.yul\":12529:12560   */\n      swap1\n      pop\n        /* \"#utility.yul\":12472:12566   */\n      swap2\n      swap1\n      pop\n      jump\t// out\n        /* \"#utility.yul\":12572:12672   */\n    tag_313:\n        /* \"#utility.yul\":12611:12618   */\n      0x00\n        /* \"#utility.yul\":12640:12666   */\n      tag_474\n        /* \"#utility.yul\":12660:12665   */\n      dup3\n        /* \"#utility.yul\":12640:12666   */\n      tag_312\n      jump\t// in\n    tag_474:\n        /* \"#utility.yul\":12629:12666   */\n      swap1\n      pop\n        /* \"#utility.yul\":12572:12672   */\n      swap2\n      swap1\n      pop\n      jump\t// out\n        /* \"#utility.yul\":12678:12835   */\n    tag_314:\n        /* \"#utility.yul\":12783:12828   */\n      tag_476\n        /* \"#utility.yul\":12803:12827   */\n      tag_477\n        /* \"#utility.yul\":12821:12826   */\n      dup3\n        /* \"#utility.yul\":12803:12827   */\n      tag_296\n      jump\t// in\n    tag_477:\n        /* \"#utility.yul\":12783:12828   */\n      tag_313\n      jump\t// in\n    tag_476:\n        /* \"#utility.yul\":12778:12781   */\n      dup3\n        /* \"#utility.yul\":12771:12829   */\n      mstore\n        /* \"#utility.yul\":12678:12835   */\n      pop\n      pop\n      jump\t// out\n        /* \"#utility.yul\":12841:13238   */\n    tag_121:\n        /* \"#utility.yul\":12981:12984   */\n      0x00\n        /* \"#utility.yul\":12996:13071   */\n      tag_479\n        /* \"#utility.yul\":13067:13070   */\n      dup3\n        /* \"#utility.yul\":13058:13064   */\n      dup6\n        /* \"#utility.yul\":12996:13071   */\n      tag_314\n      jump\t// in\n    tag_479:\n        /* \"#utility.yul\":13096:13098   */\n      0x14\n        /* \"#utility.yul\":13091:13094   */\n      dup3\n        /* \"#utility.yul\":13087:13099   */\n      add\n        /* \"#utility.yul\":13080:13099   */\n      swap2\n      pop\n        /* \"#utility.yul\":13109:13184   */\n      tag_480\n        /* \"#utility.yul\":13180:13183   */\n      dup3\n        /* \"#utility.yul\":13171:13177   */\n      dup5\n        /* \"#utility.yul\":13109:13184   */\n      tag_309\n      jump\t// in\n    tag_480:\n        /* \"#utility.yul\":13209:13211   */\n      0x20\n        /* \"#utility.yul\":13204:13207   */\n      dup3\n        /* \"#utility.yul\":13200:13212   */\n      add\n        /* \"#utility.yul\":13193:13212   */\n      swap2\n      pop\n        /* \"#utility.yul\":13229:13232   */\n      dup2\n        /* \"#utility.yul\":13222:13232   */\n      swap1\n      pop\n        /* \"#utility.yul\":12841:13238   */\n      swap4\n      swap3\n      pop\n      pop\n      pop\n      jump\t// out\n        /* \"#utility.yul\":13244:13413   */\n    tag_315:\n        /* \"#utility.yul\":13328:13339   */\n      0x00\n        /* \"#utility.yul\":13362:13368   */\n      dup3\n        /* \"#utility.yul\":13357:13360   */\n      dup3\n        /* \"#utility.yul\":13350:13369   */\n      mstore\n        /* \"#utility.yul\":13402:13406   */\n      0x20\n        /* \"#utility.yul\":13397:13400   */\n      dup3\n        /* \"#utility.yul\":13393:13407   */\n      add\n        /* \"#utility.yul\":13378:13407   */\n      swap1\n      pop\n        /* \"#utility.yul\":13244:13413   */\n      swap3\n      swap2\n      pop\n      pop\n      jump\t// out\n        /* \"#utility.yul\":13419:13582   */\n    tag_316:\n        /* \"#utility.yul\":13559:13574   */\n      0x496e76616c696420737461746500000000000000000000000000000000000000\n        /* \"#utility.yul\":13555:13556   */\n      0x00\n        /* \"#utility.yul\":13547:13553   */\n      dup3\n        /* \"#utility.yul\":13543:13557   */\n      add\n        /* \"#utility.yul\":13536:13575   */\n      mstore\n        /* \"#utility.yul\":13419:13582   */\n      pop\n      jump\t// out\n        /* \"#utility.yul\":13588:13954   */\n    tag_317:\n        /* \"#utility.yul\":13730:13733   */\n      0x00\n        /* \"#utility.yul\":13751:13818   */\n      tag_484\n        /* \"#utility.yul\":13815:13817   */\n      0x0d\n        /* \"#utility.yul\":13810:13813   */\n      dup4\n        /* \"#utility.yul\":13751:13818   */\n      tag_315\n      jump\t// in\n    tag_484:\n        /* \"#utility.yul\":13744:13818   */\n      swap2\n      pop\n        /* \"#utility.yul\":13827:13920   */\n      tag_485\n        /* \"#utility.yul\":13916:13919   */\n      dup3\n        /* \"#utility.yul\":13827:13920   */\n      tag_316\n      jump\t// in\n    tag_485:\n        /* \"#utility.yul\":13945:13947   */\n      0x20\n        /* \"#utility.yul\":13940:13943   */\n      dup3\n        /* \"#utility.yul\":13936:13948   */\n      add\n        /* \"#utility.yul\":13929:13948   */\n      swap1\n      pop\n        /* \"#utility.yul\":13588:13954   */\n      swap2\n      swap1\n      pop\n      jump\t// out\n        /* \"#utility.yul\":13960:14379   */\n    tag_140:\n        /* \"#utility.yul\":14126:14130   */\n      0x00\n        /* \"#utility.yul\":14164:14166   */\n      0x20\n        /* \"#utility.yul\":14153:14162   */\n      dup3\n        /* \"#utility.yul\":14149:14167   */\n      add\n        /* \"#utility.yul\":14141:14167   */\n      swap1\n      pop\n        /* \"#utility.yul\":14213:14222   */\n      dup2\n        /* \"#utility.yul\":14207:14211   */\n      dup2\n        /* \"#utility.yul\":14203:14223   */\n      sub\n        /* \"#utility.yul\":14199:14200   */\n      0x00\n        /* \"#utility.yul\":14188:14197   */\n      dup4\n        /* \"#utility.yul\":14184:14201   */\n      add\n        /* \"#utility.yul\":14177:14224   */\n      mstore\n        /* \"#utility.yul\":14241:14372   */\n      tag_487\n        /* \"#utility.yul\":14367:14371   */\n      dup2\n        /* \"#utility.yul\":14241:14372   */\n      tag_317\n      jump\t// in\n    tag_487:\n        /* \"#utility.yul\":14233:14372   */\n      swap1\n      pop\n        /* \"#utility.yul\":13960:14379   */\n      swap2\n      swap1\n      pop\n      jump\t// out\n        /* \"#utility.yul\":14385:14579   */\n    tag_143:\n        /* \"#utility.yul\":14425:14429   */\n      0x00\n        /* \"#utility.yul\":14445:14465   */\n      tag_489\n        /* \"#utility.yul\":14463:14464   */\n      dup3\n        /* \"#utility.yul\":14445:14465   */\n      tag_274\n      jump\t// in\n    tag_489:\n        /* \"#utility.yul\":14440:14465   */\n      swap2\n      pop\n        /* \"#utility.yul\":14479:14499   */\n      tag_490\n        /* \"#utility.yul\":14497:14498   */\n      dup4\n        /* \"#utility.yul\":14479:14499   */\n      tag_274\n      jump\t// in\n    tag_490:\n        /* \"#utility.yul\":14474:14499   */\n      swap3\n      pop\n        /* \"#utility.yul\":14523:14524   */\n      dup3\n        /* \"#utility.yul\":14520:14521   */\n      dup3\n        /* \"#utility.yul\":14516:14525   */\n      sub\n        /* \"#utility.yul\":14508:14525   */\n      swap1\n      pop\n        /* \"#utility.yul\":14547:14548   */\n      dup2\n        /* \"#utility.yul\":14541:14545   */\n      dup2\n        /* \"#utility.yul\":14538:14549   */\n      gt\n        /* \"#utility.yul\":14535:14572   */\n      iszero\n      tag_491\n      jumpi\n        /* \"#utility.yul\":14552:14570   */\n      tag_492\n      tag_310\n      jump\t// in\n    tag_492:\n        /* \"#utility.yul\":14535:14572   */\n    tag_491:\n        /* \"#utility.yul\":14385:14579   */\n      swap3\n      swap2\n      pop\n      pop\n      jump\t// out\n        /* \"#utility.yul\":14585:14765   */\n    tag_318:\n        /* \"#utility.yul\":14633:14710   */\n      0x4e487b7100000000000000000000000000000000000000000000000000000000\n        /* \"#utility.yul\":14630:14631   */\n      0x00\n        /* \"#utility.yul\":14623:14711   */\n      mstore\n        /* \"#utility.yul\":14730:14734   */\n      0x12\n        /* \"#utility.yul\":14727:14728   */\n      0x04\n        /* \"#utility.yul\":14720:14735   */\n      mstore\n        /* \"#utility.yul\":14754:14758   */\n      0x24\n        /* \"#utility.yul\":14751:14752   */\n      0x00\n        /* \"#utility.yul\":14744:14759   */\n      revert\n        /* \"#utility.yul\":14771:14956   */\n    tag_158:\n        /* \"#utility.yul\":14811:14812   */\n      0x00\n        /* \"#utility.yul\":14828:14848   */\n      tag_495\n        /* \"#utility.yul\":14846:14847   */\n      dup3\n        /* \"#utility.yul\":14828:14848   */\n      tag_274\n      jump\t// in\n    tag_495:\n        /* \"#utility.yul\":14823:14848   */\n      swap2\n      pop\n        /* \"#utility.yul\":14862:14882   */\n      tag_496\n        /* \"#utility.yul\":14880:14881   */\n      dup4\n        /* \"#utility.yul\":14862:14882   */\n      tag_274\n      jump\t// in\n    tag_496:\n        /* \"#utility.yul\":14857:14882   */\n      swap3\n      pop\n        /* \"#utility.yul\":14901:14902   */\n      dup3\n        /* \"#utility.yul\":14891:14926   */\n      tag_497\n      jumpi\n        /* \"#utility.yul\":14906:14924   */\n      tag_498\n      tag_318\n      jump\t// in\n    tag_498:\n        /* \"#utility.yul\":14891:14926   */\n    tag_497:\n        /* \"#utility.yul\":14948:14949   */\n      dup3\n        /* \"#utility.yul\":14945:14946   */\n      dup3\n        /* \"#utility.yul\":14941:14950   */\n      div\n        /* \"#utility.yul\":14936:14950   */\n      swap1\n      pop\n        /* \"#utility.yul\":14771:14956   */\n      swap3\n      swap2\n      pop\n      pop\n      jump\t// out\n        /* \"#utility.yul\":14962:15500   */\n    tag_184:\n        /* \"#utility.yul\":15130:15133   */\n      0x00\n        /* \"#utility.yul\":15145:15220   */\n      tag_500\n        /* \"#utility.yul\":15216:15219   */\n      dup3\n        /* \"#utility.yul\":15207:15213   */\n      dup7\n        /* \"#utility.yul\":15145:15220   */\n      tag_314\n      jump\t// in\n    tag_500:\n        /* \"#utility.yul\":15245:15247   */\n      0x14\n        /* \"#utility.yul\":15240:15243   */\n      dup3\n        /* \"#utility.yul\":15236:15248   */\n      add\n        /* \"#utility.yul\":15229:15248   */\n      swap2\n      pop\n        /* \"#utility.yul\":15258:15333   */\n      tag_501\n        /* \"#utility.yul\":15329:15332   */\n      dup3\n        /* \"#utility.yul\":15320:15326   */\n      dup6\n        /* \"#utility.yul\":15258:15333   */\n      tag_309\n      jump\t// in\n    tag_501:\n        /* \"#utility.yul\":15358:15360   */\n      0x20\n        /* \"#utility.yul\":15353:15356   */\n      dup3\n        /* \"#utility.yul\":15349:15361   */\n      add\n        /* \"#utility.yul\":15342:15361   */\n      swap2\n      pop\n        /* \"#utility.yul\":15371:15446   */\n      tag_502\n        /* \"#utility.yul\":15442:15445   */\n      dup3\n        /* \"#utility.yul\":15433:15439   */\n      dup5\n        /* \"#utility.yul\":15371:15446   */\n      tag_309\n      jump\t// in\n    tag_502:\n        /* \"#utility.yul\":15471:15473   */\n      0x20\n        /* \"#utility.yul\":15466:15469   */\n      dup3\n        /* \"#utility.yul\":15462:15474   */\n      add\n        /* \"#utility.yul\":15455:15474   */\n      swap2\n      pop\n        /* \"#utility.yul\":15491:15494   */\n      dup2\n        /* \"#utility.yul\":15484:15494   */\n      swap1\n      pop\n        /* \"#utility.yul\":14962:15500   */\n      swap5\n      swap4\n      pop\n      pop\n      pop\n      pop\n      jump\t// out\n        /* \"#utility.yul\":15506:15731   */\n    tag_319:\n        /* \"#utility.yul\":15646:15680   */\n      0x436f6d6d697452657665616c3a3a72657665616c3a20416c7265616479207265\n        /* \"#utility.yul\":15642:15643   */\n      0x00\n        /* \"#utility.yul\":15634:15640   */\n      dup3\n        /* \"#utility.yul\":15630:15644   */\n      add\n        /* \"#utility.yul\":15623:15681   */\n      mstore\n        /* \"#utility.yul\":15715:15723   */\n      0x7665616c65640000000000000000000000000000000000000000000000000000\n        /* \"#utility.yul\":15710:15712   */\n      0x20\n        /* \"#utility.yul\":15702:15708   */\n      dup3\n        /* \"#utility.yul\":15698:15713   */\n      add\n        /* \"#utility.yul\":15691:15724   */\n      mstore\n        /* \"#utility.yul\":15506:15731   */\n      pop\n      jump\t// out\n        /* \"#utility.yul\":15737:16103   */\n    tag_320:\n        /* \"#utility.yul\":15879:15882   */\n      0x00\n        /* \"#utility.yul\":15900:15967   */\n      tag_505\n        /* \"#utility.yul\":15964:15966   */\n      0x26\n        /* \"#utility.yul\":15959:15962   */\n      dup4\n        /* \"#utility.yul\":15900:15967   */\n      tag_315\n      jump\t// in\n    tag_505:\n        /* \"#utility.yul\":15893:15967   */\n      swap2\n      pop\n        /* \"#utility.yul\":15976:16069   */\n      tag_506\n        /* \"#utility.yul\":16065:16068   */\n      dup3\n        /* \"#utility.yul\":15976:16069   */\n      tag_319\n      jump\t// in\n    tag_506:\n        /* \"#utility.yul\":16094:16096   */\n      0x40\n        /* \"#utility.yul\":16089:16092   */\n      dup3\n        /* \"#utility.yul\":16085:16097   */\n      add\n        /* \"#utility.yul\":16078:16097   */\n      swap1\n      pop\n        /* \"#utility.yul\":15737:16103   */\n      swap2\n      swap1\n      pop\n      jump\t// out\n        /* \"#utility.yul\":16109:16528   */\n    tag_188:\n        /* \"#utility.yul\":16275:16279   */\n      0x00\n        /* \"#utility.yul\":16313:16315   */\n      0x20\n        /* \"#utility.yul\":16302:16311   */\n      dup3\n        /* \"#utility.yul\":16298:16316   */\n      add\n        /* \"#utility.yul\":16290:16316   */\n      swap1\n      pop\n        /* \"#utility.yul\":16362:16371   */\n      dup2\n        /* \"#utility.yul\":16356:16360   */\n      dup2\n        /* \"#utility.yul\":16352:16372   */\n      sub\n        /* \"#utility.yul\":16348:16349   */\n      0x00\n        /* \"#utility.yul\":16337:16346   */\n      dup4\n        /* \"#utility.yul\":16333:16350   */\n      add\n        /* \"#utility.yul\":16326:16373   */\n      mstore\n        /* \"#utility.yul\":16390:16521   */\n      tag_508\n        /* \"#utility.yul\":16516:16520   */\n      dup2\n        /* \"#utility.yul\":16390:16521   */\n      tag_320\n      jump\t// in\n    tag_508:\n        /* \"#utility.yul\":16382:16521   */\n      swap1\n      pop\n        /* \"#utility.yul\":16109:16528   */\n      swap2\n      swap1\n      pop\n      jump\t// out\n        /* \"#utility.yul\":16534:16778   */\n    tag_321:\n        /* \"#utility.yul\":16674:16708   */\n      0x436f6d6d697452657665616c3a3a72657665616c3a2052657665616c65642068\n        /* \"#utility.yul\":16670:16671   */\n      0x00\n        /* \"#utility.yul\":16662:16668   */\n      dup3\n        /* \"#utility.yul\":16658:16672   */\n      add\n        /* \"#utility.yul\":16651:16709   */\n      mstore\n        /* \"#utility.yul\":16743:16770   */\n      0x61736820646f6573206e6f74206d6174636820636f6d6d697400000000000000\n        /* \"#utility.yul\":16738:16740   */\n      0x20\n        /* \"#utility.yul\":16730:16736   */\n      dup3\n        /* \"#utility.yul\":16726:16741   */\n      add\n        /* \"#utility.yul\":16719:16771   */\n      mstore\n        /* \"#utility.yul\":16534:16778   */\n      pop\n      jump\t// out\n        /* \"#utility.yul\":16784:17150   */\n    tag_322:\n        /* \"#utility.yul\":16926:16929   */\n      0x00\n        /* \"#utility.yul\":16947:17014   */\n      tag_511\n        /* \"#utility.yul\":17011:17013   */\n      0x39\n        /* \"#utility.yul\":17006:17009   */\n      dup4\n        /* \"#utility.yul\":16947:17014   */\n      tag_315\n      jump\t// in\n    tag_511:\n        /* \"#utility.yul\":16940:17014   */\n      swap2\n      pop\n        /* \"#utility.yul\":17023:17116   */\n      tag_512\n        /* \"#utility.yul\":17112:17115   */\n      dup3\n        /* \"#utility.yul\":17023:17116   */\n      tag_321\n      jump\t// in\n    tag_512:\n        /* \"#utility.yul\":17141:17143   */\n      0x40\n        /* \"#utility.yul\":17136:17139   */\n      dup3\n        /* \"#utility.yul\":17132:17144   */\n      add\n        /* \"#utility.yul\":17125:17144   */\n      swap1\n      pop\n        /* \"#utility.yul\":16784:17150   */\n      swap2\n      swap1\n      pop\n      jump\t// out\n        /* \"#utility.yul\":17156:17575   */\n    tag_192:\n        /* \"#utility.yul\":17322:17326   */\n      0x00\n        /* \"#utility.yul\":17360:17362   */\n      0x20\n        /* \"#utility.yul\":17349:17358   */\n      dup3\n        /* \"#utility.yul\":17345:17363   */\n      add\n        /* \"#utility.yul\":17337:17363   */\n      swap1\n      pop\n        /* \"#utility.yul\":17409:17418   */\n      dup2\n        /* \"#utility.yul\":17403:17407   */\n      dup2\n        /* \"#utility.yul\":17399:17419   */\n      sub\n        /* \"#utility.yul\":17395:17396   */\n      0x00\n        /* \"#utility.yul\":17384:17393   */\n      dup4\n        /* \"#utility.yul\":17380:17397   */\n      add\n        /* \"#utility.yul\":17373:17420   */\n      mstore\n        /* \"#utility.yul\":17437:17568   */\n      tag_514\n        /* \"#utility.yul\":17563:17567   */\n      dup2\n        /* \"#utility.yul\":17437:17568   */\n      tag_322\n      jump\t// in\n    tag_514:\n        /* \"#utility.yul\":17429:17568   */\n      swap1\n      pop\n        /* \"#utility.yul\":17156:17575   */\n      swap2\n      swap1\n      pop\n      jump\t// out\n        /* \"#utility.yul\":17581:17871   */\n    tag_323:\n        /* \"#utility.yul\":17721:17755   */\n      0x436f6d6d697452657665616c3a3a72657665616c3a2052657665616c20616e64\n        /* \"#utility.yul\":17717:17718   */\n      0x00\n        /* \"#utility.yul\":17709:17715   */\n      dup3\n        /* \"#utility.yul\":17705:17719   */\n      add\n        /* \"#utility.yul\":17698:17756   */\n      mstore\n        /* \"#utility.yul\":17790:17824   */\n      0x20636f6d6d69742068617070656e6564206f6e207468652073616d6520626c6f\n        /* \"#utility.yul\":17785:17787   */\n      0x20\n        /* \"#utility.yul\":17777:17783   */\n      dup3\n        /* \"#utility.yul\":17773:17788   */\n      add\n        /* \"#utility.yul\":17766:17825   */\n      mstore\n        /* \"#utility.yul\":17859:17863   */\n      0x636b000000000000000000000000000000000000000000000000000000000000\n        /* \"#utility.yul\":17854:17856   */\n      0x40\n        /* \"#utility.yul\":17846:17852   */\n      dup3\n        /* \"#utility.yul\":17842:17857   */\n      add\n        /* \"#utility.yul\":17835:17864   */\n      mstore\n        /* \"#utility.yul\":17581:17871   */\n      pop\n      jump\t// out\n        /* \"#utility.yul\":17877:18243   */\n    tag_324:\n        /* \"#utility.yul\":18019:18022   */\n      0x00\n        /* \"#utility.yul\":18040:18107   */\n      tag_517\n        /* \"#utility.yul\":18104:18106   */\n      0x42\n        /* \"#utility.yul\":18099:18102   */\n      dup4\n        /* \"#utility.yul\":18040:18107   */\n      tag_315\n      jump\t// in\n    tag_517:\n        /* \"#utility.yul\":18033:18107   */\n      swap2\n      pop\n        /* \"#utility.yul\":18116:18209   */\n      tag_518\n        /* \"#utility.yul\":18205:18208   */\n      dup3\n        /* \"#utility.yul\":18116:18209   */\n      tag_323\n      jump\t// in\n    tag_518:\n        /* \"#utility.yul\":18234:18236   */\n      0x60\n        /* \"#utility.yul\":18229:18232   */\n      dup3\n        /* \"#utility.yul\":18225:18237   */\n      add\n        /* \"#utility.yul\":18218:18237   */\n      swap1\n      pop\n        /* \"#utility.yul\":17877:18243   */\n      swap2\n      swap1\n      pop\n      jump\t// out\n        /* \"#utility.yul\":18249:18668   */\n    tag_195:\n        /* \"#utility.yul\":18415:18419   */\n      0x00\n        /* \"#utility.yul\":18453:18455   */\n      0x20\n        /* \"#utility.yul\":18442:18451   */\n      dup3\n        /* \"#utility.yul\":18438:18456   */\n      add\n        /* \"#utility.yul\":18430:18456   */\n      swap1\n      pop\n        /* \"#utility.yul\":18502:18511   */\n      dup2\n        /* \"#utility.yul\":18496:18500   */\n      dup2\n        /* \"#utility.yul\":18492:18512   */\n      sub\n        /* \"#utility.yul\":18488:18489   */\n      0x00\n        /* \"#utility.yul\":18477:18486   */\n      dup4\n        /* \"#utility.yul\":18473:18490   */\n      add\n        /* \"#utility.yul\":18466:18513   */\n      mstore\n        /* \"#utility.yul\":18530:18661   */\n      tag_520\n        /* \"#utility.yul\":18656:18660   */\n      dup2\n        /* \"#utility.yul\":18530:18661   */\n      tag_324\n      jump\t// in\n    tag_520:\n        /* \"#utility.yul\":18522:18661   */\n      swap1\n      pop\n        /* \"#utility.yul\":18249:18668   */\n      swap2\n      swap1\n      pop\n      jump\t// out\n        /* \"#utility.yul\":18674:18775   */\n    tag_325:\n        /* \"#utility.yul\":18710:18717   */\n      0x00\n        /* \"#utility.yul\":18750:18768   */\n      0xffffffffffffffff\n        /* \"#utility.yul\":18743:18748   */\n      dup3\n        /* \"#utility.yul\":18739:18769   */\n      and\n        /* \"#utility.yul\":18728:18769   */\n      swap1\n      pop\n        /* \"#utility.yul\":18674:18775   */\n      swap2\n      swap1\n      pop\n      jump\t// out\n        /* \"#utility.yul\":18781:18986   */\n    tag_197:\n        /* \"#utility.yul\":18820:18823   */\n      0x00\n        /* \"#utility.yul\":18839:18858   */\n      tag_523\n        /* \"#utility.yul\":18856:18857   */\n      dup3\n        /* \"#utility.yul\":18839:18858   */\n      tag_325\n      jump\t// in\n    tag_523:\n        /* \"#utility.yul\":18834:18858   */\n      swap2\n      pop\n        /* \"#utility.yul\":18872:18891   */\n      tag_524\n        /* \"#utility.yul\":18889:18890   */\n      dup4\n        /* \"#utility.yul\":18872:18891   */\n      tag_325\n      jump\t// in\n    tag_524:\n        /* \"#utility.yul\":18867:18891   */\n      swap3\n      pop\n        /* \"#utility.yul\":18914:18915   */\n      dup3\n        /* \"#utility.yul\":18911:18912   */\n      dup3\n        /* \"#utility.yul\":18907:18916   */\n      add\n        /* \"#utility.yul\":18900:18916   */\n      swap1\n      pop\n        /* \"#utility.yul\":18937:18955   */\n      0xffffffffffffffff\n        /* \"#utility.yul\":18932:18935   */\n      dup2\n        /* \"#utility.yul\":18929:18956   */\n      gt\n        /* \"#utility.yul\":18926:18979   */\n      iszero\n      tag_525\n      jumpi\n        /* \"#utility.yul\":18959:18977   */\n      tag_526\n      tag_310\n      jump\t// in\n    tag_526:\n        /* \"#utility.yul\":18926:18979   */\n    tag_525:\n        /* \"#utility.yul\":18781:18986   */\n      swap3\n      swap2\n      pop\n      pop\n      jump\t// out\n        /* \"#utility.yul\":18992:19218   */\n    tag_326:\n        /* \"#utility.yul\":19132:19166   */\n      0x436f6d6d697452657665616c3a3a72657665616c3a2052657665616c65642074\n        /* \"#utility.yul\":19128:19129   */\n      0x00\n        /* \"#utility.yul\":19120:19126   */\n      dup3\n        /* \"#utility.yul\":19116:19130   */\n      add\n        /* \"#utility.yul\":19109:19167   */\n      mstore\n        /* \"#utility.yul\":19201:19210   */\n      0x6f6f206c61746500000000000000000000000000000000000000000000000000\n        /* \"#utility.yul\":19196:19198   */\n      0x20\n        /* \"#utility.yul\":19188:19194   */\n      dup3\n        /* \"#utility.yul\":19184:19199   */\n      add\n        /* \"#utility.yul\":19177:19211   */\n      mstore\n        /* \"#utility.yul\":18992:19218   */\n      pop\n      jump\t// out\n        /* \"#utility.yul\":19224:19590   */\n    tag_327:\n        /* \"#utility.yul\":19366:19369   */\n      0x00\n        /* \"#utility.yul\":19387:19454   */\n      tag_529\n        /* \"#utility.yul\":19451:19453   */\n      0x27\n        /* \"#utility.yul\":19446:19449   */\n      dup4\n        /* \"#utility.yul\":19387:19454   */\n      tag_315\n      jump\t// in\n    tag_529:\n        /* \"#utility.yul\":19380:19454   */\n      swap2\n      pop\n        /* \"#utility.yul\":19463:19556   */\n      tag_530\n        /* \"#utility.yul\":19552:19555   */\n      dup3\n        /* \"#utility.yul\":19463:19556   */\n      tag_326\n      jump\t// in\n    tag_530:\n        /* \"#utility.yul\":19581:19583   */\n      0x40\n        /* \"#utility.yul\":19576:19579   */\n      dup3\n        /* \"#utility.yul\":19572:19584   */\n      add\n        /* \"#utility.yul\":19565:19584   */\n      swap1\n      pop\n        /* \"#utility.yul\":19224:19590   */\n      swap2\n      swap1\n      pop\n      jump\t// out\n        /* \"#utility.yul\":19596:20015   */\n    tag_200:\n        /* \"#utility.yul\":19762:19766   */\n      0x00\n        /* \"#utility.yul\":19800:19802   */\n      0x20\n        /* \"#utility.yul\":19789:19798   */\n      dup3\n        /* \"#utility.yul\":19785:19803   */\n      add\n        /* \"#utility.yul\":19777:19803   */\n      swap1\n      pop\n        /* \"#utility.yul\":19849:19858   */\n      dup2\n        /* \"#utility.yul\":19843:19847   */\n      dup2\n        /* \"#utility.yul\":19839:19859   */\n      sub\n        /* \"#utility.yul\":19835:19836   */\n      0x00\n        /* \"#utility.yul\":19824:19833   */\n      dup4\n        /* \"#utility.yul\":19820:19837   */\n      add\n        /* \"#utility.yul\":19813:19860   */\n      mstore\n        /* \"#utility.yul\":19877:20008   */\n      tag_532\n        /* \"#utility.yul\":20003:20007   */\n      dup2\n        /* \"#utility.yul\":19877:20008   */\n      tag_327\n      jump\t// in\n    tag_532:\n        /* \"#utility.yul\":19869:20008   */\n      swap1\n      pop\n        /* \"#utility.yul\":19596:20015   */\n      swap2\n      swap1\n      pop\n      jump\t// out\n        /* \"#utility.yul\":20021:20197   */\n    tag_203:\n        /* \"#utility.yul\":20053:20054   */\n      0x00\n        /* \"#utility.yul\":20070:20090   */\n      tag_534\n        /* \"#utility.yul\":20088:20089   */\n      dup3\n        /* \"#utility.yul\":20070:20090   */\n      tag_274\n      jump\t// in\n    tag_534:\n        /* \"#utility.yul\":20065:20090   */\n      swap2\n      pop\n        /* \"#utility.yul\":20104:20124   */\n      tag_535\n        /* \"#utility.yul\":20122:20123   */\n      dup4\n        /* \"#utility.yul\":20104:20124   */\n      tag_274\n      jump\t// in\n    tag_535:\n        /* \"#utility.yul\":20099:20124   */\n      swap3\n      pop\n        /* \"#utility.yul\":20143:20144   */\n      dup3\n        /* \"#utility.yul\":20133:20168   */\n      tag_536\n      jumpi\n        /* \"#utility.yul\":20148:20166   */\n      tag_537\n      tag_318\n      jump\t// in\n    tag_537:\n        /* \"#utility.yul\":20133:20168   */\n    tag_536:\n        /* \"#utility.yul\":20189:20190   */\n      dup3\n        /* \"#utility.yul\":20186:20187   */\n      dup3\n        /* \"#utility.yul\":20182:20191   */\n      mod\n        /* \"#utility.yul\":20177:20191   */\n      swap1\n      pop\n        /* \"#utility.yul\":20021:20197   */\n      swap3\n      swap2\n      pop\n      pop\n      jump\t// out\n        /* \"#utility.yul\":20203:20645   */\n    tag_205:\n        /* \"#utility.yul\":20352:20356   */\n      0x00\n        /* \"#utility.yul\":20390:20392   */\n      0x60\n        /* \"#utility.yul\":20379:20388   */\n      dup3\n        /* \"#utility.yul\":20375:20393   */\n      add\n        /* \"#utility.yul\":20367:20393   */\n      swap1\n      pop\n        /* \"#utility.yul\":20403:20474   */\n      tag_539\n        /* \"#utility.yul\":20471:20472   */\n      0x00\n        /* \"#utility.yul\":20460:20469   */\n      dup4\n        /* \"#utility.yul\":20456:20473   */\n      add\n        /* \"#utility.yul\":20447:20453   */\n      dup7\n        /* \"#utility.yul\":20403:20474   */\n      tag_297\n      jump\t// in\n    tag_539:\n        /* \"#utility.yul\":20484:20556   */\n      tag_540\n        /* \"#utility.yul\":20552:20554   */\n      0x20\n        /* \"#utility.yul\":20541:20550   */\n      dup4\n        /* \"#utility.yul\":20537:20555   */\n      add\n        /* \"#utility.yul\":20528:20534   */\n      dup6\n        /* \"#utility.yul\":20484:20556   */\n      tag_294\n      jump\t// in\n    tag_540:\n        /* \"#utility.yul\":20566:20638   */\n      tag_541\n        /* \"#utility.yul\":20634:20636   */\n      0x40\n        /* \"#utility.yul\":20623:20632   */\n      dup4\n        /* \"#utility.yul\":20619:20637   */\n      add\n        /* \"#utility.yul\":20610:20616   */\n      dup5\n        /* \"#utility.yul\":20566:20638   */\n      tag_275\n      jump\t// in\n    tag_541:\n        /* \"#utility.yul\":20203:20645   */\n      swap5\n      swap4\n      pop\n      pop\n      pop\n      pop\n      jump\t// out\n        /* \"#utility.yul\":20651:20766   */\n    tag_328:\n        /* \"#utility.yul\":20736:20759   */\n      tag_543\n        /* \"#utility.yul\":20753:20758   */\n      dup2\n        /* \"#utility.yul\":20736:20759   */\n      tag_325\n      jump\t// in\n    tag_543:\n        /* \"#utility.yul\":20731:20734   */\n      dup3\n        /* \"#utility.yul\":20724:20760   */\n      mstore\n        /* \"#utility.yul\":20651:20766   */\n      pop\n      pop\n      jump\t// out\n        /* \"#utility.yul\":20772:21210   */\n    tag_273:\n        /* \"#utility.yul\":20919:20923   */\n      0x00\n        /* \"#utility.yul\":20957:20959   */\n      0x60\n        /* \"#utility.yul\":20946:20955   */\n      dup3\n        /* \"#utility.yul\":20942:20960   */\n      add\n        /* \"#utility.yul\":20934:20960   */\n      swap1\n      pop\n        /* \"#utility.yul\":20970:21041   */\n      tag_545\n        /* \"#utility.yul\":21038:21039   */\n      0x00\n        /* \"#utility.yul\":21027:21036   */\n      dup4\n        /* \"#utility.yul\":21023:21040   */\n      add\n        /* \"#utility.yul\":21014:21020   */\n      dup7\n        /* \"#utility.yul\":20970:21041   */\n      tag_297\n      jump\t// in\n    tag_545:\n        /* \"#utility.yul\":21051:21123   */\n      tag_546\n        /* \"#utility.yul\":21119:21121   */\n      0x20\n        /* \"#utility.yul\":21108:21117   */\n      dup4\n        /* \"#utility.yul\":21104:21122   */\n      add\n        /* \"#utility.yul\":21095:21101   */\n      dup6\n        /* \"#utility.yul\":21051:21123   */\n      tag_294\n      jump\t// in\n    tag_546:\n        /* \"#utility.yul\":21133:21203   */\n      tag_547\n        /* \"#utility.yul\":21199:21201   */\n      0x40\n        /* \"#utility.yul\":21188:21197   */\n      dup4\n        /* \"#utility.yul\":21184:21202   */\n      add\n        /* \"#utility.yul\":21175:21181   */\n      dup5\n        /* \"#utility.yul\":21133:21203   */\n      tag_328\n      jump\t// in\n    tag_547:\n        /* \"#utility.yul\":20772:21210   */\n      swap5\n      swap4\n      pop\n      pop\n      pop\n      pop\n      jump\t// out\n\n    auxdata: 0xa26469706673582212203db5b47cbb9e54c83616432e791b86d61b2fa0c07a8685042e421b169eafbc3b64736f6c63430008180033\n}\n",
				"bytecode": {
					"linkReferences": {},
					"object": "608060405260645f806101000a81548160ff021916908360ff1602179055505f6003555f6004555f6005555f6006554260075534801561003d575f80fd5b506125dd8061004b5f395ff3fe6080604052600436106100e7575f3560e01c80634537d1e0116100895780638dddbf36116100585780638dddbf36146102a557806390d5d0c3146102e15780639e0551c61461030b578063bac4b2b414610349576100e7565b80634537d1e014610213578063590e1ae31461023d5780635940e9e7146102535780637bab61bc1461027b576100e7565b80632703da2f116100c55780632703da2f1461016757806327b5db8a146101915780633cf5040a1461019b5780633d72ab0b146101d7576100e7565b8063086f7815146100eb5780632226f2fa14610115578063228cb7331461013d575b5f80fd5b3480156100f6575f80fd5b506100ff610373565b60405161010c9190611a23565b60405180910390f35b348015610120575f80fd5b5061013b60048036038101906101369190611bb3565b610379565b005b348015610148575f80fd5b50610151610518565b60405161015e9190611a23565b60405180910390f35b348015610172575f80fd5b5061017b61051e565b6040516101889190611a23565b60405180910390f35b610199610524565b005b3480156101a6575f80fd5b506101c160048036038101906101bc9190611c66565b610608565b6040516101ce9190611ca0565b60405180910390f35b3480156101e2575f80fd5b506101fd60048036038101906101f89190611cb9565b610639565b60405161020a9190611ca0565b60405180910390f35b34801561021e575f80fd5b506102276106c8565b6040516102349190611a23565b60405180910390f35b348015610248575f80fd5b5061025161094d565b005b34801561025e575f80fd5b5061027960048036038101906102749190611d25565b610dcf565b005b348015610286575f80fd5b5061028f610e7a565b60405161029c9190611a23565b60405180910390f35b3480156102b0575f80fd5b506102cb60048036038101906102c69190611d63565b610e80565b6040516102d89190611ca0565b60405180910390f35b3480156102ec575f80fd5b506102f5610eb4565b6040516103029190611a23565b60405180910390f35b348015610316575f80fd5b50610331600480360381019061032c9190611da1565b610eba565b60405161034093929190611e0b565b60405180910390f35b348015610354575f80fd5b5061035d610eff565b60405161036a9190611a23565b60405180910390f35b60055481565b600260035414610387575f80fd5b60025f8281526020019081526020015f206002015f9054906101000a900473ffffffffffffffffffffffffffffffffffffffff1673ffffffffffffffffffffffffffffffffffffffff163373ffffffffffffffffffffffffffffffffffffffff16146103f1575f80fd5b5f8410158015610402575060068411155b61040a575f80fd5b5f831015801561041b575060068311155b610423575f80fd5b5f8484604051602001610437929190611e60565b60405160208183030381529060405261044f90611ec4565b90505f836040516020016104639190611f96565b60405160208183030381529060405261047b90611ec4565b90506104ae8282604051602001610493929190611fcc565b60405160208183030381529060405280519060200120610f05565b8560025f8581526020019081526020015f205f01819055508460025f8581526020019081526020015f206001018190555060055f8154809291906104f190612024565b9190505550426007819055506002600554036105105761050f6112c3565b5b505050505050565b60045481565b61012c81565b600260035410610532575f80fd5b670de0b6b3a76400003414610545575f80fd5b3460045f828254610556919061206b565b925050819055503360025f60035481526020019081526020015f206002015f6101000a81548173ffffffffffffffffffffffffffffffffffffffff021916908373ffffffffffffffffffffffffffffffffffffffff160217905550600760025f60035481526020019081526020015f205f0181905550600760025f60035481526020019081526020015f206001018190555060035f8154809291906105fa90612024565b919050555042600781905550565b5f308260405160200161061c9291906120e3565b604051602081830303815290604052805190602001209050919050565b5f80848460405160200161064e929190611e60565b60405160208183030381529060405261066690611ec4565b90505f8360405160200161067a9190611f96565b60405160208183030381529060405261069290611ec4565b905081816040516020016106a7929190611fcc565b60405160208183030381529060405280519060200120925050509392505050565b5f80600354116106d6575f80fd5b6001600354036107525760025f8081526020019081526020015f206002015f9054906101000a900473ffffffffffffffffffffffffffffffffffffffff1673ffffffffffffffffffffffffffffffffffffffff163373ffffffffffffffffffffffffffffffffffffffff161461074a575f80fd5b5f905061094a565b60026003540361090f5760025f8081526020019081526020015f206002015f9054906101000a900473ffffffffffffffffffffffffffffffffffffffff1673ffffffffffffffffffffffffffffffffffffffff163373ffffffffffffffffffffffffffffffffffffffff161480610828575060025f600181526020019081526020015f206002015f9054906101000a900473ffffffffffffffffffffffffffffffffffffffff1673ffffffffffffffffffffffffffffffffffffffff163373ffffffffffffffffffffffffffffffffffffffff16145b610830575f80fd5b60025f8081526020019081526020015f206002015f9054906101000a900473ffffffffffffffffffffffffffffffffffffffff1673ffffffffffffffffffffffffffffffffffffffff163373ffffffffffffffffffffffffffffffffffffffff160361089e575f905061094a565b60025f600181526020019081526020015f206002015f9054906101000a900473ffffffffffffffffffffffffffffffffffffffff1673ffffffffffffffffffffffffffffffffffffffff163373ffffffffffffffffffffffffffffffffffffffff160361090e576001905061094a565b5b6040517f08c379a000000000000000000000000000000000000000000000000000000000815260040161094190612168565b60405180910390fd5b90565b61012c6007544261095e9190612186565b11610967575f80fd5b5f60035411610974575f80fd5b600160035403610a735760025f8081526020019081526020015f206002015f9054906101000a900473ffffffffffffffffffffffffffffffffffffffff1673ffffffffffffffffffffffffffffffffffffffff163373ffffffffffffffffffffffffffffffffffffffff16146109e8575f80fd5b5f60025f8081526020019081526020015f206002015f9054906101000a900473ffffffffffffffffffffffffffffffffffffffff1690508073ffffffffffffffffffffffffffffffffffffffff166108fc60045490811502906040515f60405180830381858888f19350505050158015610a64573d5f803e3d5ffd5b50610a6d61170e565b50610dcd565b600260035403610dcc5760025f8081526020019081526020015f206002015f9054906101000a900473ffffffffffffffffffffffffffffffffffffffff1673ffffffffffffffffffffffffffffffffffffffff163373ffffffffffffffffffffffffffffffffffffffff161480610b49575060025f600181526020019081526020015f206002015f9054906101000a900473ffffffffffffffffffffffffffffffffffffffff1673ffffffffffffffffffffffffffffffffffffffff163373ffffffffffffffffffffffffffffffffffffffff16145b610b51575f80fd5b5f60055403610c7c575f60025f8081526020019081526020015f206002015f9054906101000a900473ffffffffffffffffffffffffffffffffffffffff1690505f60025f600181526020019081526020015f206002015f9054906101000a900473ffffffffffffffffffffffffffffffffffffffff1690508173ffffffffffffffffffffffffffffffffffffffff166108fc6002600454610bf291906121e6565b90811502906040515f60405180830381858888f19350505050158015610c1a573d5f803e3d5ffd5b508073ffffffffffffffffffffffffffffffffffffffff166108fc6002600454610c4491906121e6565b90811502906040515f60405180830381858888f19350505050158015610c6c573d5f803e3d5ffd5b50610c7561170e565b5050610dcb565b600160055403610dca57600760025f8081526020019081526020015f205f015403610d25575f60025f600181526020019081526020015f206002015f9054906101000a900473ffffffffffffffffffffffffffffffffffffffff1690508073ffffffffffffffffffffffffffffffffffffffff166108fc60045490811502906040515f60405180830381858888f19350505050158015610d1e573d5f803e3d5ffd5b5050610dc1565b600760025f600181526020019081526020015f205f015403610dc0575f60025f8081526020019081526020015f206002015f9054906101000a900473ffffffffffffffffffffffffffffffffffffffff1690508073ffffffffffffffffffffffffffffffffffffffff166108fc60045490811502906040515f60405180830381858888f19350505050158015610dbd573d5f803e3d5ffd5b50505b5b610dc961170e565b5b5b5b5b565b600260035414610ddd575f80fd5b60025f8281526020019081526020015f206002015f9054906101000a900473ffffffffffffffffffffffffffffffffffffffff1673ffffffffffffffffffffffffffffffffffffffff163373ffffffffffffffffffffffffffffffffffffffff1614610e47575f80fd5b610e58610e5383610608565b611839565b60065f815480929190610e6a90612024565b9190505550426007819055505050565b60075481565b5f308383604051602001610e9693929190612216565b60405160208183030381529060405280519060200120905092915050565b60035481565b6002602052805f5260405f205f91509050805f015490806001015490806002015f9054906101000a900473ffffffffffffffffffffffffffffffffffffffff16905083565b60065481565b5f151560015f3373ffffffffffffffffffffffffffffffffffffffff1673ffffffffffffffffffffffffffffffffffffffff1681526020019081526020015f2060010160089054906101000a900460ff16151514610f98576040517f08c379a0000000000000000000000000000000000000000000000000000000008152600401610f8f906122c2565b60405180910390fd5b6001805f3373ffffffffffffffffffffffffffffffffffffffff1673ffffffffffffffffffffffffffffffffffffffff1681526020019081526020015f2060010160086101000a81548160ff02191690831515021790555060015f3373ffffffffffffffffffffffffffffffffffffffff1673ffffffffffffffffffffffffffffffffffffffff1681526020019081526020015f205f015461103982610608565b14611079576040517f08c379a000000000000000000000000000000000000000000000000000000000815260040161107090612350565b60405180910390fd5b60015f3373ffffffffffffffffffffffffffffffffffffffff1673ffffffffffffffffffffffffffffffffffffffff1681526020019081526020015f206001015f9054906101000a900467ffffffffffffffff1667ffffffffffffffff164367ffffffffffffffff1611611122576040517f08c379a000000000000000000000000000000000000000000000000000000000815260040161111990612404565b60405180910390fd5b60fa60015f3373ffffffffffffffffffffffffffffffffffffffff1673ffffffffffffffffffffffffffffffffffffffff1681526020019081526020015f206001015f9054906101000a900467ffffffffffffffff166111829190612435565b67ffffffffffffffff164367ffffffffffffffff1611156111d8576040517f08c379a00000000000000000000000000000000000000000000000000000000081526004016111cf906124e0565b60405180910390fd5b5f60015f3373ffffffffffffffffffffffffffffffffffffffff1673ffffffffffffffffffffffffffffffffffffffff1681526020019081526020015f206001015f9054906101000a900467ffffffffffffffff1667ffffffffffffffff164090505f805f9054906101000a900460ff1660ff16828460405160200161125f929190611fcc565b604051602081830303815290604052805190602001205f1c61128191906124fe565b90507fbc016dd1cadeaefcb851af7a0a93532e0023d536894b730801f7bcfe7065bcc23384836040516112b69392919061252e565b60405180910390a1505050565b5f60025f8081526020019081526020015f205f015490505f60025f8081526020019081526020015f206001015490505f60025f600181526020019081526020015f205f015490505f60025f600181526020019081526020015f206001015490505f805f60025f8081526020019081526020015f206002015f9054906101000a900473ffffffffffffffffffffffffffffffffffffffff1690505f60025f600181526020019081526020015f206002015f9054906101000a900473ffffffffffffffffffffffffffffffffffffffff16905085600760018a6113a4919061206b565b6113ae91906124fe565b14806113d1575085600760028a6113c5919061206b565b6113cf91906124fe565b145b806113f3575085600760038a6113e7919061206b565b6113f191906124fe565b145b1561140c57600284611405919061206b565b93506114a2565b87600760018861141c919061206b565b61142691906124fe565b1480611449575087600760028861143d919061206b565b61144791906124fe565b145b8061146b575087600760038861145f919061206b565b61146991906124fe565b145b156114845760028361147d919061206b565b92506114a1565b838061148f90612024565b945050828061149d90612024565b9350505b5b8460076001896114b2919061206b565b6114bc91906124fe565b14806114df57508460076002896114d3919061206b565b6114dd91906124fe565b145b8061150157508460076003896114f5919061206b565b6114ff91906124fe565b145b1561151a57600284611513919061206b565b93506115b0565b86600760018761152a919061206b565b61153491906124fe565b1480611557575086600760028761154b919061206b565b61155591906124fe565b145b80611579575086600760038761156d919061206b565b61157791906124fe565b145b156115925760028361158b919061206b565b92506115af565b838061159d90612024565b94505082806115ab90612024565b9350505b5b82841115611603578173ffffffffffffffffffffffffffffffffffffffff166108fc60045490811502906040515f60405180830381858888f193505050501580156115fd573d5f803e3d5ffd5b506116fc565b83831115611656578073ffffffffffffffffffffffffffffffffffffffff166108fc60045490811502906040515f60405180830381858888f19350505050158015611650573d5f803e3d5ffd5b506116fb565b8173ffffffffffffffffffffffffffffffffffffffff166108fc600260045461167f91906121e6565b90811502906040515f60405180830381858888f193505050501580156116a7573d5f803e3d5ffd5b508073ffffffffffffffffffffffffffffffffffffffff166108fc60026004546116d191906121e6565b90811502906040515f60405180830381858888f193505050501580156116f9573d5f803e3d5ffd5b505b5b61170461170e565b5050505050505050565b5f6003819055505f6004819055505f6005819055505f600681905550600760025f8081526020019081526020015f205f0181905550600760025f8081526020019081526020015f20600101819055505f60025f8081526020019081526020015f206002015f6101000a81548173ffffffffffffffffffffffffffffffffffffffff021916908373ffffffffffffffffffffffffffffffffffffffff160217905550600760025f600181526020019081526020015f205f0181905550600760025f600181526020019081526020015f20600101819055505f60025f600181526020019081526020015f206002015f6101000a81548173ffffffffffffffffffffffffffffffffffffffff021916908373ffffffffffffffffffffffffffffffffffffffff160217905550565b8060015f3373ffffffffffffffffffffffffffffffffffffffff1673ffffffffffffffffffffffffffffffffffffffff1681526020019081526020015f205f01819055504360015f3373ffffffffffffffffffffffffffffffffffffffff1673ffffffffffffffffffffffffffffffffffffffff1681526020019081526020015f206001015f6101000a81548167ffffffffffffffff021916908367ffffffffffffffff1602179055505f60015f3373ffffffffffffffffffffffffffffffffffffffff1673ffffffffffffffffffffffffffffffffffffffff1681526020019081526020015f2060010160086101000a81548160ff0219169083151502179055507f3c1a1f8f38335b17f751c6da4ba7d1865f26b3997535176f5080de9fad8916033360015f3373ffffffffffffffffffffffffffffffffffffffff1673ffffffffffffffffffffffffffffffffffffffff1681526020019081526020015f205f015460015f3373ffffffffffffffffffffffffffffffffffffffff1673ffffffffffffffffffffffffffffffffffffffff1681526020019081526020015f206001015f9054906101000a900467ffffffffffffffff16604051611a0093929190612572565b60405180910390a150565b5f819050919050565b611a1d81611a0b565b82525050565b5f602082019050611a365f830184611a14565b92915050565b5f604051905090565b5f80fd5b5f80fd5b611a5681611a0b565b8114611a60575f80fd5b50565b5f81359050611a7181611a4d565b92915050565b5f80fd5b5f80fd5b5f601f19601f8301169050919050565b7f4e487b71000000000000000000000000000000000000000000000000000000005f52604160045260245ffd5b611ac582611a7f565b810181811067ffffffffffffffff82111715611ae457611ae3611a8f565b5b80604052505050565b5f611af6611a3c565b9050611b028282611abc565b919050565b5f67ffffffffffffffff821115611b2157611b20611a8f565b5b611b2a82611a7f565b9050602081019050919050565b828183375f83830152505050565b5f611b57611b5284611b07565b611aed565b905082815260208101848484011115611b7357611b72611a7b565b5b611b7e848285611b37565b509392505050565b5f82601f830112611b9a57611b99611a77565b5b8135611baa848260208601611b45565b91505092915050565b5f805f8060808587031215611bcb57611bca611a45565b5b5f611bd887828801611a63565b9450506020611be987828801611a63565b935050604085013567ffffffffffffffff811115611c0a57611c09611a49565b5b611c1687828801611b86565b9250506060611c2787828801611a63565b91505092959194509250565b5f819050919050565b611c4581611c33565b8114611c4f575f80fd5b50565b5f81359050611c6081611c3c565b92915050565b5f60208284031215611c7b57611c7a611a45565b5b5f611c8884828501611c52565b91505092915050565b611c9a81611c33565b82525050565b5f602082019050611cb35f830184611c91565b92915050565b5f805f60608486031215611cd057611ccf611a45565b5b5f611cdd86828701611a63565b9350506020611cee86828701611a63565b925050604084013567ffffffffffffffff811115611d0f57611d0e611a49565b5b611d1b86828701611b86565b9150509250925092565b5f8060408385031215611d3b57611d3a611a45565b5b5f611d4885828601611c52565b9250506020611d5985828601611a63565b9150509250929050565b5f8060408385031215611d7957611d78611a45565b5b5f611d8685828601611c52565b9250506020611d9785828601611c52565b9150509250929050565b5f60208284031215611db657611db5611a45565b5b5f611dc384828501611a63565b91505092915050565b5f73ffffffffffffffffffffffffffffffffffffffff82169050919050565b5f611df582611dcc565b9050919050565b611e0581611deb565b82525050565b5f606082019050611e1e5f830186611a14565b611e2b6020830185611a14565b611e386040830184611dfc565b949350505050565b5f819050919050565b611e5a611e5582611a0b565b611e40565b82525050565b5f611e6b8285611e49565b602082019150611e7b8284611e49565b6020820191508190509392505050565b5f81519050919050565b5f819050602082019050919050565b5f611eaf8251611c33565b80915050919050565b5f82821b905092915050565b5f611ece82611e8b565b82611ed884611e95565b9050611ee381611ea4565b92506020821015611f2357611f1e7fffffffffffffffffffffffffffffffffffffffffffffffffffffffffffffffff83602003600802611eb8565b831692505b5050919050565b5f81519050919050565b5f81905092915050565b5f5b83811015611f5b578082015181840152602081019050611f40565b5f8484015250505050565b5f611f7082611f2a565b611f7a8185611f34565b9350611f8a818560208601611f3e565b80840191505092915050565b5f611fa18284611f66565b915081905092915050565b5f819050919050565b611fc6611fc182611c33565b611fac565b82525050565b5f611fd78285611fb5565b602082019150611fe78284611fb5565b6020820191508190509392505050565b7f4e487b71000000000000000000000000000000000000000000000000000000005f52601160045260245ffd5b5f61202e82611a0b565b91507fffffffffffffffffffffffffffffffffffffffffffffffffffffffffffffffff82036120605761205f611ff7565b5b600182019050919050565b5f61207582611a0b565b915061208083611a0b565b925082820190508082111561209857612097611ff7565b5b92915050565b5f8160601b9050919050565b5f6120b48261209e565b9050919050565b5f6120c5826120aa565b9050919050565b6120dd6120d882611deb565b6120bb565b82525050565b5f6120ee82856120cc565b6014820191506120fe8284611fb5565b6020820191508190509392505050565b5f82825260208201905092915050565b7f496e76616c6964207374617465000000000000000000000000000000000000005f82015250565b5f612152600d8361210e565b915061215d8261211e565b602082019050919050565b5f6020820190508181035f83015261217f81612146565b9050919050565b5f61219082611a0b565b915061219b83611a0b565b92508282039050818111156121b3576121b2611ff7565b5b92915050565b7f4e487b71000000000000000000000000000000000000000000000000000000005f52601260045260245ffd5b5f6121f082611a0b565b91506121fb83611a0b565b92508261220b5761220a6121b9565b5b828204905092915050565b5f61222182866120cc565b6014820191506122318285611fb5565b6020820191506122418284611fb5565b602082019150819050949350505050565b7f436f6d6d697452657665616c3a3a72657665616c3a20416c72656164792072655f8201527f7665616c65640000000000000000000000000000000000000000000000000000602082015250565b5f6122ac60268361210e565b91506122b782612252565b604082019050919050565b5f6020820190508181035f8301526122d9816122a0565b9050919050565b7f436f6d6d697452657665616c3a3a72657665616c3a2052657665616c656420685f8201527f61736820646f6573206e6f74206d6174636820636f6d6d697400000000000000602082015250565b5f61233a60398361210e565b9150612345826122e0565b604082019050919050565b5f6020820190508181035f8301526123678161232e565b9050919050565b7f436f6d6d697452657665616c3a3a72657665616c3a2052657665616c20616e645f8201527f20636f6d6d69742068617070656e6564206f6e207468652073616d6520626c6f60208201527f636b000000000000000000000000000000000000000000000000000000000000604082015250565b5f6123ee60428361210e565b91506123f98261236e565b606082019050919050565b5f6020820190508181035f83015261241b816123e2565b9050919050565b5f67ffffffffffffffff82169050919050565b5f61243f82612422565b915061244a83612422565b9250828201905067ffffffffffffffff81111561246a57612469611ff7565b5b92915050565b7f436f6d6d697452657665616c3a3a72657665616c3a2052657665616c656420745f8201527f6f6f206c61746500000000000000000000000000000000000000000000000000602082015250565b5f6124ca60278361210e565b91506124d582612470565b604082019050919050565b5f6020820190508181035f8301526124f7816124be565b9050919050565b5f61250882611a0b565b915061251383611a0b565b925082612523576125226121b9565b5b828206905092915050565b5f6060820190506125415f830186611dfc565b61254e6020830185611c91565b61255b6040830184611a14565b949350505050565b61256c81612422565b82525050565b5f6060820190506125855f830186611dfc565b6125926020830185611c91565b61259f6040830184612563565b94935050505056fea26469706673582212203db5b47cbb9e54c83616432e791b86d61b2fa0c07a8685042e421b169eafbc3b64736f6c63430008180033",
					"opcodes": "PUSH1 0x80 PUSH1 0x40 MSTORE PUSH1 0x64 PUSH0 DUP1 PUSH2 0x100 EXP DUP2 SLOAD DUP2 PUSH1 0xFF MUL NOT AND SWAP1 DUP4 PUSH1 0xFF AND MUL OR SWAP1 SSTORE POP PUSH0 PUSH1 0x3 SSTORE PUSH0 PUSH1 0x4 SSTORE PUSH0 PUSH1 0x5 SSTORE PUSH0 PUSH1 0x6 SSTORE TIMESTAMP PUSH1 0x7 SSTORE CALLVALUE DUP1 ISZERO PUSH2 0x3D JUMPI PUSH0 DUP1 REVERT JUMPDEST POP PUSH2 0x25DD DUP1 PUSH2 0x4B PUSH0 CODECOPY PUSH0 RETURN INVALID PUSH1 0x80 PUSH1 0x40 MSTORE PUSH1 0x4 CALLDATASIZE LT PUSH2 0xE7 JUMPI PUSH0 CALLDATALOAD PUSH1 0xE0 SHR DUP1 PUSH4 0x4537D1E0 GT PUSH2 0x89 JUMPI DUP1 PUSH4 0x8DDDBF36 GT PUSH2 0x58 JUMPI DUP1 PUSH4 0x8DDDBF36 EQ PUSH2 0x2A5 JUMPI DUP1 PUSH4 0x90D5D0C3 EQ PUSH2 0x2E1 JUMPI DUP1 PUSH4 0x9E0551C6 EQ PUSH2 0x30B JUMPI DUP1 PUSH4 0xBAC4B2B4 EQ PUSH2 0x349 JUMPI PUSH2 0xE7 JUMP JUMPDEST DUP1 PUSH4 0x4537D1E0 EQ PUSH2 0x213 JUMPI DUP1 PUSH4 0x590E1AE3 EQ PUSH2 0x23D JUMPI DUP1 PUSH4 0x5940E9E7 EQ PUSH2 0x253 JUMPI DUP1 PUSH4 0x7BAB61BC EQ PUSH2 0x27B JUMPI PUSH2 0xE7 JUMP JUMPDEST DUP1 PUSH4 0x2703DA2F GT PUSH2 0xC5 JUMPI DUP1 PUSH4 0x2703DA2F EQ PUSH2 0x167 JUMPI DUP1 PUSH4 0x27B5DB8A EQ PUSH2 0x191 JUMPI DUP1 PUSH4 0x3CF5040A EQ PUSH2 0x19B JUMPI DUP1 PUSH4 0x3D72AB0B EQ PUSH2 0x1D7 JUMPI PUSH2 0xE7 JUMP JUMPDEST DUP1 PUSH4 0x86F7815 EQ PUSH2 0xEB JUMPI DUP1 PUSH4 0x2226F2FA EQ PUSH2 0x115 JUMPI DUP1 PUSH4 0x228CB733 EQ PUSH2 0x13D JUMPI JUMPDEST PUSH0 DUP1 REVERT JUMPDEST CALLVALUE DUP1 ISZERO PUSH2 0xF6 JUMPI PUSH0 DUP1 REVERT JUMPDEST POP PUSH2 0xFF PUSH2 0x373 JUMP JUMPDEST PUSH1 0x40 MLOAD PUSH2 0x10C SWAP2 SWAP1 PUSH2 0x1A23 JUMP JUMPDEST PUSH1 0x40 MLOAD DUP1 SWAP2 SUB SWAP1 RETURN JUMPDEST CALLVALUE DUP1 ISZERO PUSH2 0x120 JUMPI PUSH0 DUP1 REVERT JUMPDEST POP PUSH2 0x13B PUSH1 0x4 DUP1 CALLDATASIZE SUB DUP2 ADD SWAP1 PUSH2 0x136 SWAP2 SWAP1 PUSH2 0x1BB3 JUMP JUMPDEST PUSH2 0x379 JUMP JUMPDEST STOP JUMPDEST CALLVALUE DUP1 ISZERO PUSH2 0x148 JUMPI PUSH0 DUP1 REVERT JUMPDEST POP PUSH2 0x151 PUSH2 0x518 JUMP JUMPDEST PUSH1 0x40 MLOAD PUSH2 0x15E SWAP2 SWAP1 PUSH2 0x1A23 JUMP JUMPDEST PUSH1 0x40 MLOAD DUP1 SWAP2 SUB SWAP1 RETURN JUMPDEST CALLVALUE DUP1 ISZERO PUSH2 0x172 JUMPI PUSH0 DUP1 REVERT JUMPDEST POP PUSH2 0x17B PUSH2 0x51E JUMP JUMPDEST PUSH1 0x40 MLOAD PUSH2 0x188 SWAP2 SWAP1 PUSH2 0x1A23 JUMP JUMPDEST PUSH1 0x40 MLOAD DUP1 SWAP2 SUB SWAP1 RETURN JUMPDEST PUSH2 0x199 PUSH2 0x524 JUMP JUMPDEST STOP JUMPDEST CALLVALUE DUP1 ISZERO PUSH2 0x1A6 JUMPI PUSH0 DUP1 REVERT JUMPDEST POP PUSH2 0x1C1 PUSH1 0x4 DUP1 CALLDATASIZE SUB DUP2 ADD SWAP1 PUSH2 0x1BC SWAP2 SWAP1 PUSH2 0x1C66 JUMP JUMPDEST PUSH2 0x608 JUMP JUMPDEST PUSH1 0x40 MLOAD PUSH2 0x1CE SWAP2 SWAP1 PUSH2 0x1CA0 JUMP JUMPDEST PUSH1 0x40 MLOAD DUP1 SWAP2 SUB SWAP1 RETURN JUMPDEST CALLVALUE DUP1 ISZERO PUSH2 0x1E2 JUMPI PUSH0 DUP1 REVERT JUMPDEST POP PUSH2 0x1FD PUSH1 0x4 DUP1 CALLDATASIZE SUB DUP2 ADD SWAP1 PUSH2 0x1F8 SWAP2 SWAP1 PUSH2 0x1CB9 JUMP JUMPDEST PUSH2 0x639 JUMP JUMPDEST PUSH1 0x40 MLOAD PUSH2 0x20A SWAP2 SWAP1 PUSH2 0x1CA0 JUMP JUMPDEST PUSH1 0x40 MLOAD DUP1 SWAP2 SUB SWAP1 RETURN JUMPDEST CALLVALUE DUP1 ISZERO PUSH2 0x21E JUMPI PUSH0 DUP1 REVERT JUMPDEST POP PUSH2 0x227 PUSH2 0x6C8 JUMP JUMPDEST PUSH1 0x40 MLOAD PUSH2 0x234 SWAP2 SWAP1 PUSH2 0x1A23 JUMP JUMPDEST PUSH1 0x40 MLOAD DUP1 SWAP2 SUB SWAP1 RETURN JUMPDEST CALLVALUE DUP1 ISZERO PUSH2 0x248 JUMPI PUSH0 DUP1 REVERT JUMPDEST POP PUSH2 0x251 PUSH2 0x94D JUMP JUMPDEST STOP JUMPDEST CALLVALUE DUP1 ISZERO PUSH2 0x25E JUMPI PUSH0 DUP1 REVERT JUMPDEST POP PUSH2 0x279 PUSH1 0x4 DUP1 CALLDATASIZE SUB DUP2 ADD SWAP1 PUSH2 0x274 SWAP2 SWAP1 PUSH2 0x1D25 JUMP JUMPDEST PUSH2 0xDCF JUMP JUMPDEST STOP JUMPDEST CALLVALUE DUP1 ISZERO PUSH2 0x286 JUMPI PUSH0 DUP1 REVERT JUMPDEST POP PUSH2 0x28F PUSH2 0xE7A JUMP JUMPDEST PUSH1 0x40 MLOAD PUSH2 0x29C SWAP2 SWAP1 PUSH2 0x1A23 JUMP JUMPDEST PUSH1 0x40 MLOAD DUP1 SWAP2 SUB SWAP1 RETURN JUMPDEST CALLVALUE DUP1 ISZERO PUSH2 0x2B0 JUMPI PUSH0 DUP1 REVERT JUMPDEST POP PUSH2 0x2CB PUSH1 0x4 DUP1 CALLDATASIZE SUB DUP2 ADD SWAP1 PUSH2 0x2C6 SWAP2 SWAP1 PUSH2 0x1D63 JUMP JUMPDEST PUSH2 0xE80 JUMP JUMPDEST PUSH1 0x40 MLOAD PUSH2 0x2D8 SWAP2 SWAP1 PUSH2 0x1CA0 JUMP JUMPDEST PUSH1 0x40 MLOAD DUP1 SWAP2 SUB SWAP1 RETURN JUMPDEST CALLVALUE DUP1 ISZERO PUSH2 0x2EC JUMPI PUSH0 DUP1 REVERT JUMPDEST POP PUSH2 0x2F5 PUSH2 0xEB4 JUMP JUMPDEST PUSH1 0x40 MLOAD PUSH2 0x302 SWAP2 SWAP1 PUSH2 0x1A23 JUMP JUMPDEST PUSH1 0x40 MLOAD DUP1 SWAP2 SUB SWAP1 RETURN JUMPDEST CALLVALUE DUP1 ISZERO PUSH2 0x316 JUMPI PUSH0 DUP1 REVERT JUMPDEST POP PUSH2 0x331 PUSH1 0x4 DUP1 CALLDATASIZE SUB DUP2 ADD SWAP1 PUSH2 0x32C SWAP2 SWAP1 PUSH2 0x1DA1 JUMP JUMPDEST PUSH2 0xEBA JUMP JUMPDEST PUSH1 0x40 MLOAD PUSH2 0x340 SWAP4 SWAP3 SWAP2 SWAP1 PUSH2 0x1E0B JUMP JUMPDEST PUSH1 0x40 MLOAD DUP1 SWAP2 SUB SWAP1 RETURN JUMPDEST CALLVALUE DUP1 ISZERO PUSH2 0x354 JUMPI PUSH0 DUP1 REVERT JUMPDEST POP PUSH2 0x35D PUSH2 0xEFF JUMP JUMPDEST PUSH1 0x40 MLOAD PUSH2 0x36A SWAP2 SWAP1 PUSH2 0x1A23 JUMP JUMPDEST PUSH1 0x40 MLOAD DUP1 SWAP2 SUB SWAP1 RETURN JUMPDEST PUSH1 0x5 SLOAD DUP2 JUMP JUMPDEST PUSH1 0x2 PUSH1 0x3 SLOAD EQ PUSH2 0x387 JUMPI PUSH0 DUP1 REVERT JUMPDEST PUSH1 0x2 PUSH0 DUP3 DUP2 MSTORE PUSH1 0x20 ADD SWAP1 DUP2 MSTORE PUSH1 0x20 ADD PUSH0 KECCAK256 PUSH1 0x2 ADD PUSH0 SWAP1 SLOAD SWAP1 PUSH2 0x100 EXP SWAP1 DIV PUSH20 0xFFFFFFFFFFFFFFFFFFFFFFFFFFFFFFFFFFFFFFFF AND PUSH20 0xFFFFFFFFFFFFFFFFFFFFFFFFFFFFFFFFFFFFFFFF AND CALLER PUSH20 0xFFFFFFFFFFFFFFFFFFFFFFFFFFFFFFFFFFFFFFFF AND EQ PUSH2 0x3F1 JUMPI PUSH0 DUP1 REVERT JUMPDEST PUSH0 DUP5 LT ISZERO DUP1 ISZERO PUSH2 0x402 JUMPI POP PUSH1 0x6 DUP5 GT ISZERO JUMPDEST PUSH2 0x40A JUMPI PUSH0 DUP1 REVERT JUMPDEST PUSH0 DUP4 LT ISZERO DUP1 ISZERO PUSH2 0x41B JUMPI POP PUSH1 0x6 DUP4 GT ISZERO JUMPDEST PUSH2 0x423 JUMPI PUSH0 DUP1 REVERT JUMPDEST PUSH0 DUP5 DUP5 PUSH1 0x40 MLOAD PUSH1 0x20 ADD PUSH2 0x437 SWAP3 SWAP2 SWAP1 PUSH2 0x1E60 JUMP JUMPDEST PUSH1 0x40 MLOAD PUSH1 0x20 DUP2 DUP4 SUB SUB DUP2 MSTORE SWAP1 PUSH1 0x40 MSTORE PUSH2 0x44F SWAP1 PUSH2 0x1EC4 JUMP JUMPDEST SWAP1 POP PUSH0 DUP4 PUSH1 0x40 MLOAD PUSH1 0x20 ADD PUSH2 0x463 SWAP2 SWAP1 PUSH2 0x1F96 JUMP JUMPDEST PUSH1 0x40 MLOAD PUSH1 0x20 DUP2 DUP4 SUB SUB DUP2 MSTORE SWAP1 PUSH1 0x40 MSTORE PUSH2 0x47B SWAP1 PUSH2 0x1EC4 JUMP JUMPDEST SWAP1 POP PUSH2 0x4AE DUP3 DUP3 PUSH1 0x40 MLOAD PUSH1 0x20 ADD PUSH2 0x493 SWAP3 SWAP2 SWAP1 PUSH2 0x1FCC JUMP JUMPDEST PUSH1 0x40 MLOAD PUSH1 0x20 DUP2 DUP4 SUB SUB DUP2 MSTORE SWAP1 PUSH1 0x40 MSTORE DUP1 MLOAD SWAP1 PUSH1 0x20 ADD KECCAK256 PUSH2 0xF05 JUMP JUMPDEST DUP6 PUSH1 0x2 PUSH0 DUP6 DUP2 MSTORE PUSH1 0x20 ADD SWAP1 DUP2 MSTORE PUSH1 0x20 ADD PUSH0 KECCAK256 PUSH0 ADD DUP2 SWAP1 SSTORE POP DUP5 PUSH1 0x2 PUSH0 DUP6 DUP2 MSTORE PUSH1 0x20 ADD SWAP1 DUP2 MSTORE PUSH1 0x20 ADD PUSH0 KECCAK256 PUSH1 0x1 ADD DUP2 SWAP1 SSTORE POP PUSH1 0x5 PUSH0 DUP2 SLOAD DUP1 SWAP3 SWAP2 SWAP1 PUSH2 0x4F1 SWAP1 PUSH2 0x2024 JUMP JUMPDEST SWAP2 SWAP1 POP SSTORE POP TIMESTAMP PUSH1 0x7 DUP2 SWAP1 SSTORE POP PUSH1 0x2 PUSH1 0x5 SLOAD SUB PUSH2 0x510 JUMPI PUSH2 0x50F PUSH2 0x12C3 JUMP JUMPDEST JUMPDEST POP POP POP POP POP POP JUMP JUMPDEST PUSH1 0x4 SLOAD DUP2 JUMP JUMPDEST PUSH2 0x12C DUP2 JUMP JUMPDEST PUSH1 0x2 PUSH1 0x3 SLOAD LT PUSH2 0x532 JUMPI PUSH0 DUP1 REVERT JUMPDEST PUSH8 0xDE0B6B3A7640000 CALLVALUE EQ PUSH2 0x545 JUMPI PUSH0 DUP1 REVERT JUMPDEST CALLVALUE PUSH1 0x4 PUSH0 DUP3 DUP3 SLOAD PUSH2 0x556 SWAP2 SWAP1 PUSH2 0x206B JUMP JUMPDEST SWAP3 POP POP DUP2 SWAP1 SSTORE POP CALLER PUSH1 0x2 PUSH0 PUSH1 0x3 SLOAD DUP2 MSTORE PUSH1 0x20 ADD SWAP1 DUP2 MSTORE PUSH1 0x20 ADD PUSH0 KECCAK256 PUSH1 0x2 ADD PUSH0 PUSH2 0x100 EXP DUP2 SLOAD DUP2 PUSH20 0xFFFFFFFFFFFFFFFFFFFFFFFFFFFFFFFFFFFFFFFF MUL NOT AND SWAP1 DUP4 PUSH20 0xFFFFFFFFFFFFFFFFFFFFFFFFFFFFFFFFFFFFFFFF AND MUL OR SWAP1 SSTORE POP PUSH1 0x7 PUSH1 0x2 PUSH0 PUSH1 0x3 SLOAD DUP2 MSTORE PUSH1 0x20 ADD SWAP1 DUP2 MSTORE PUSH1 0x20 ADD PUSH0 KECCAK256 PUSH0 ADD DUP2 SWAP1 SSTORE POP PUSH1 0x7 PUSH1 0x2 PUSH0 PUSH1 0x3 SLOAD DUP2 MSTORE PUSH1 0x20 ADD SWAP1 DUP2 MSTORE PUSH1 0x20 ADD PUSH0 KECCAK256 PUSH1 0x1 ADD DUP2 SWAP1 SSTORE POP PUSH1 0x3 PUSH0 DUP2 SLOAD DUP1 SWAP3 SWAP2 SWAP1 PUSH2 0x5FA SWAP1 PUSH2 0x2024 JUMP JUMPDEST SWAP2 SWAP1 POP SSTORE POP TIMESTAMP PUSH1 0x7 DUP2 SWAP1 SSTORE POP JUMP JUMPDEST PUSH0 ADDRESS DUP3 PUSH1 0x40 MLOAD PUSH1 0x20 ADD PUSH2 0x61C SWAP3 SWAP2 SWAP1 PUSH2 0x20E3 JUMP JUMPDEST PUSH1 0x40 MLOAD PUSH1 0x20 DUP2 DUP4 SUB SUB DUP2 MSTORE SWAP1 PUSH1 0x40 MSTORE DUP1 MLOAD SWAP1 PUSH1 0x20 ADD KECCAK256 SWAP1 POP SWAP2 SWAP1 POP JUMP JUMPDEST PUSH0 DUP1 DUP5 DUP5 PUSH1 0x40 MLOAD PUSH1 0x20 ADD PUSH2 0x64E SWAP3 SWAP2 SWAP1 PUSH2 0x1E60 JUMP JUMPDEST PUSH1 0x40 MLOAD PUSH1 0x20 DUP2 DUP4 SUB SUB DUP2 MSTORE SWAP1 PUSH1 0x40 MSTORE PUSH2 0x666 SWAP1 PUSH2 0x1EC4 JUMP JUMPDEST SWAP1 POP PUSH0 DUP4 PUSH1 0x40 MLOAD PUSH1 0x20 ADD PUSH2 0x67A SWAP2 SWAP1 PUSH2 0x1F96 JUMP JUMPDEST PUSH1 0x40 MLOAD PUSH1 0x20 DUP2 DUP4 SUB SUB DUP2 MSTORE SWAP1 PUSH1 0x40 MSTORE PUSH2 0x692 SWAP1 PUSH2 0x1EC4 JUMP JUMPDEST SWAP1 POP DUP2 DUP2 PUSH1 0x40 MLOAD PUSH1 0x20 ADD PUSH2 0x6A7 SWAP3 SWAP2 SWAP1 PUSH2 0x1FCC JUMP JUMPDEST PUSH1 0x40 MLOAD PUSH1 0x20 DUP2 DUP4 SUB SUB DUP2 MSTORE SWAP1 PUSH1 0x40 MSTORE DUP1 MLOAD SWAP1 PUSH1 0x20 ADD KECCAK256 SWAP3 POP POP POP SWAP4 SWAP3 POP POP POP JUMP JUMPDEST PUSH0 DUP1 PUSH1 0x3 SLOAD GT PUSH2 0x6D6 JUMPI PUSH0 DUP1 REVERT JUMPDEST PUSH1 0x1 PUSH1 0x3 SLOAD SUB PUSH2 0x752 JUMPI PUSH1 0x2 PUSH0 DUP1 DUP2 MSTORE PUSH1 0x20 ADD SWAP1 DUP2 MSTORE PUSH1 0x20 ADD PUSH0 KECCAK256 PUSH1 0x2 ADD PUSH0 SWAP1 SLOAD SWAP1 PUSH2 0x100 EXP SWAP1 DIV PUSH20 0xFFFFFFFFFFFFFFFFFFFFFFFFFFFFFFFFFFFFFFFF AND PUSH20 0xFFFFFFFFFFFFFFFFFFFFFFFFFFFFFFFFFFFFFFFF AND CALLER PUSH20 0xFFFFFFFFFFFFFFFFFFFFFFFFFFFFFFFFFFFFFFFF AND EQ PUSH2 0x74A JUMPI PUSH0 DUP1 REVERT JUMPDEST PUSH0 SWAP1 POP PUSH2 0x94A JUMP JUMPDEST PUSH1 0x2 PUSH1 0x3 SLOAD SUB PUSH2 0x90F JUMPI PUSH1 0x2 PUSH0 DUP1 DUP2 MSTORE PUSH1 0x20 ADD SWAP1 DUP2 MSTORE PUSH1 0x20 ADD PUSH0 KECCAK256 PUSH1 0x2 ADD PUSH0 SWAP1 SLOAD SWAP1 PUSH2 0x100 EXP SWAP1 DIV PUSH20 0xFFFFFFFFFFFFFFFFFFFFFFFFFFFFFFFFFFFFFFFF AND PUSH20 0xFFFFFFFFFFFFFFFFFFFFFFFFFFFFFFFFFFFFFFFF AND CALLER PUSH20 0xFFFFFFFFFFFFFFFFFFFFFFFFFFFFFFFFFFFFFFFF AND EQ DUP1 PUSH2 0x828 JUMPI POP PUSH1 0x2 PUSH0 PUSH1 0x1 DUP2 MSTORE PUSH1 0x20 ADD SWAP1 DUP2 MSTORE PUSH1 0x20 ADD PUSH0 KECCAK256 PUSH1 0x2 ADD PUSH0 SWAP1 SLOAD SWAP1 PUSH2 0x100 EXP SWAP1 DIV PUSH20 0xFFFFFFFFFFFFFFFFFFFFFFFFFFFFFFFFFFFFFFFF AND PUSH20 0xFFFFFFFFFFFFFFFFFFFFFFFFFFFFFFFFFFFFFFFF AND CALLER PUSH20 0xFFFFFFFFFFFFFFFFFFFFFFFFFFFFFFFFFFFFFFFF AND EQ JUMPDEST PUSH2 0x830 JUMPI PUSH0 DUP1 REVERT JUMPDEST PUSH1 0x2 PUSH0 DUP1 DUP2 MSTORE PUSH1 0x20 ADD SWAP1 DUP2 MSTORE PUSH1 0x20 ADD PUSH0 KECCAK256 PUSH1 0x2 ADD PUSH0 SWAP1 SLOAD SWAP1 PUSH2 0x100 EXP SWAP1 DIV PUSH20 0xFFFFFFFFFFFFFFFFFFFFFFFFFFFFFFFFFFFFFFFF AND PUSH20 0xFFFFFFFFFFFFFFFFFFFFFFFFFFFFFFFFFFFFFFFF AND CALLER PUSH20 0xFFFFFFFFFFFFFFFFFFFFFFFFFFFFFFFFFFFFFFFF AND SUB PUSH2 0x89E JUMPI PUSH0 SWAP1 POP PUSH2 0x94A JUMP JUMPDEST PUSH1 0x2 PUSH0 PUSH1 0x1 DUP2 MSTORE PUSH1 0x20 ADD SWAP1 DUP2 MSTORE PUSH1 0x20 ADD PUSH0 KECCAK256 PUSH1 0x2 ADD PUSH0 SWAP1 SLOAD SWAP1 PUSH2 0x100 EXP SWAP1 DIV PUSH20 0xFFFFFFFFFFFFFFFFFFFFFFFFFFFFFFFFFFFFFFFF AND PUSH20 0xFFFFFFFFFFFFFFFFFFFFFFFFFFFFFFFFFFFFFFFF AND CALLER PUSH20 0xFFFFFFFFFFFFFFFFFFFFFFFFFFFFFFFFFFFFFFFF AND SUB PUSH2 0x90E JUMPI PUSH1 0x1 SWAP1 POP PUSH2 0x94A JUMP JUMPDEST JUMPDEST PUSH1 0x40 MLOAD PUSH32 0x8C379A000000000000000000000000000000000000000000000000000000000 DUP2 MSTORE PUSH1 0x4 ADD PUSH2 0x941 SWAP1 PUSH2 0x2168 JUMP JUMPDEST PUSH1 0x40 MLOAD DUP1 SWAP2 SUB SWAP1 REVERT JUMPDEST SWAP1 JUMP JUMPDEST PUSH2 0x12C PUSH1 0x7 SLOAD TIMESTAMP PUSH2 0x95E SWAP2 SWAP1 PUSH2 0x2186 JUMP JUMPDEST GT PUSH2 0x967 JUMPI PUSH0 DUP1 REVERT JUMPDEST PUSH0 PUSH1 0x3 SLOAD GT PUSH2 0x974 JUMPI PUSH0 DUP1 REVERT JUMPDEST PUSH1 0x1 PUSH1 0x3 SLOAD SUB PUSH2 0xA73 JUMPI PUSH1 0x2 PUSH0 DUP1 DUP2 MSTORE PUSH1 0x20 ADD SWAP1 DUP2 MSTORE PUSH1 0x20 ADD PUSH0 KECCAK256 PUSH1 0x2 ADD PUSH0 SWAP1 SLOAD SWAP1 PUSH2 0x100 EXP SWAP1 DIV PUSH20 0xFFFFFFFFFFFFFFFFFFFFFFFFFFFFFFFFFFFFFFFF AND PUSH20 0xFFFFFFFFFFFFFFFFFFFFFFFFFFFFFFFFFFFFFFFF AND CALLER PUSH20 0xFFFFFFFFFFFFFFFFFFFFFFFFFFFFFFFFFFFFFFFF AND EQ PUSH2 0x9E8 JUMPI PUSH0 DUP1 REVERT JUMPDEST PUSH0 PUSH1 0x2 PUSH0 DUP1 DUP2 MSTORE PUSH1 0x20 ADD SWAP1 DUP2 MSTORE PUSH1 0x20 ADD PUSH0 KECCAK256 PUSH1 0x2 ADD PUSH0 SWAP1 SLOAD SWAP1 PUSH2 0x100 EXP SWAP1 DIV PUSH20 0xFFFFFFFFFFFFFFFFFFFFFFFFFFFFFFFFFFFFFFFF AND SWAP1 POP DUP1 PUSH20 0xFFFFFFFFFFFFFFFFFFFFFFFFFFFFFFFFFFFFFFFF AND PUSH2 0x8FC PUSH1 0x4 SLOAD SWAP1 DUP2 ISZERO MUL SWAP1 PUSH1 0x40 MLOAD PUSH0 PUSH1 0x40 MLOAD DUP1 DUP4 SUB DUP2 DUP6 DUP9 DUP9 CALL SWAP4 POP POP POP POP ISZERO DUP1 ISZERO PUSH2 0xA64 JUMPI RETURNDATASIZE PUSH0 DUP1 RETURNDATACOPY RETURNDATASIZE PUSH0 REVERT JUMPDEST POP PUSH2 0xA6D PUSH2 0x170E JUMP JUMPDEST POP PUSH2 0xDCD JUMP JUMPDEST PUSH1 0x2 PUSH1 0x3 SLOAD SUB PUSH2 0xDCC JUMPI PUSH1 0x2 PUSH0 DUP1 DUP2 MSTORE PUSH1 0x20 ADD SWAP1 DUP2 MSTORE PUSH1 0x20 ADD PUSH0 KECCAK256 PUSH1 0x2 ADD PUSH0 SWAP1 SLOAD SWAP1 PUSH2 0x100 EXP SWAP1 DIV PUSH20 0xFFFFFFFFFFFFFFFFFFFFFFFFFFFFFFFFFFFFFFFF AND PUSH20 0xFFFFFFFFFFFFFFFFFFFFFFFFFFFFFFFFFFFFFFFF AND CALLER PUSH20 0xFFFFFFFFFFFFFFFFFFFFFFFFFFFFFFFFFFFFFFFF AND EQ DUP1 PUSH2 0xB49 JUMPI POP PUSH1 0x2 PUSH0 PUSH1 0x1 DUP2 MSTORE PUSH1 0x20 ADD SWAP1 DUP2 MSTORE PUSH1 0x20 ADD PUSH0 KECCAK256 PUSH1 0x2 ADD PUSH0 SWAP1 SLOAD SWAP1 PUSH2 0x100 EXP SWAP1 DIV PUSH20 0xFFFFFFFFFFFFFFFFFFFFFFFFFFFFFFFFFFFFFFFF AND PUSH20 0xFFFFFFFFFFFFFFFFFFFFFFFFFFFFFFFFFFFFFFFF AND CALLER PUSH20 0xFFFFFFFFFFFFFFFFFFFFFFFFFFFFFFFFFFFFFFFF AND EQ JUMPDEST PUSH2 0xB51 JUMPI PUSH0 DUP1 REVERT JUMPDEST PUSH0 PUSH1 0x5 SLOAD SUB PUSH2 0xC7C JUMPI PUSH0 PUSH1 0x2 PUSH0 DUP1 DUP2 MSTORE PUSH1 0x20 ADD SWAP1 DUP2 MSTORE PUSH1 0x20 ADD PUSH0 KECCAK256 PUSH1 0x2 ADD PUSH0 SWAP1 SLOAD SWAP1 PUSH2 0x100 EXP SWAP1 DIV PUSH20 0xFFFFFFFFFFFFFFFFFFFFFFFFFFFFFFFFFFFFFFFF AND SWAP1 POP PUSH0 PUSH1 0x2 PUSH0 PUSH1 0x1 DUP2 MSTORE PUSH1 0x20 ADD SWAP1 DUP2 MSTORE PUSH1 0x20 ADD PUSH0 KECCAK256 PUSH1 0x2 ADD PUSH0 SWAP1 SLOAD SWAP1 PUSH2 0x100 EXP SWAP1 DIV PUSH20 0xFFFFFFFFFFFFFFFFFFFFFFFFFFFFFFFFFFFFFFFF AND SWAP1 POP DUP2 PUSH20 0xFFFFFFFFFFFFFFFFFFFFFFFFFFFFFFFFFFFFFFFF AND PUSH2 0x8FC PUSH1 0x2 PUSH1 0x4 SLOAD PUSH2 0xBF2 SWAP2 SWAP1 PUSH2 0x21E6 JUMP JUMPDEST SWAP1 DUP2 ISZERO MUL SWAP1 PUSH1 0x40 MLOAD PUSH0 PUSH1 0x40 MLOAD DUP1 DUP4 SUB DUP2 DUP6 DUP9 DUP9 CALL SWAP4 POP POP POP POP ISZERO DUP1 ISZERO PUSH2 0xC1A JUMPI RETURNDATASIZE PUSH0 DUP1 RETURNDATACOPY RETURNDATASIZE PUSH0 REVERT JUMPDEST POP DUP1 PUSH20 0xFFFFFFFFFFFFFFFFFFFFFFFFFFFFFFFFFFFFFFFF AND PUSH2 0x8FC PUSH1 0x2 PUSH1 0x4 SLOAD PUSH2 0xC44 SWAP2 SWAP1 PUSH2 0x21E6 JUMP JUMPDEST SWAP1 DUP2 ISZERO MUL SWAP1 PUSH1 0x40 MLOAD PUSH0 PUSH1 0x40 MLOAD DUP1 DUP4 SUB DUP2 DUP6 DUP9 DUP9 CALL SWAP4 POP POP POP POP ISZERO DUP1 ISZERO PUSH2 0xC6C JUMPI RETURNDATASIZE PUSH0 DUP1 RETURNDATACOPY RETURNDATASIZE PUSH0 REVERT JUMPDEST POP PUSH2 0xC75 PUSH2 0x170E JUMP JUMPDEST POP POP PUSH2 0xDCB JUMP JUMPDEST PUSH1 0x1 PUSH1 0x5 SLOAD SUB PUSH2 0xDCA JUMPI PUSH1 0x7 PUSH1 0x2 PUSH0 DUP1 DUP2 MSTORE PUSH1 0x20 ADD SWAP1 DUP2 MSTORE PUSH1 0x20 ADD PUSH0 KECCAK256 PUSH0 ADD SLOAD SUB PUSH2 0xD25 JUMPI PUSH0 PUSH1 0x2 PUSH0 PUSH1 0x1 DUP2 MSTORE PUSH1 0x20 ADD SWAP1 DUP2 MSTORE PUSH1 0x20 ADD PUSH0 KECCAK256 PUSH1 0x2 ADD PUSH0 SWAP1 SLOAD SWAP1 PUSH2 0x100 EXP SWAP1 DIV PUSH20 0xFFFFFFFFFFFFFFFFFFFFFFFFFFFFFFFFFFFFFFFF AND SWAP1 POP DUP1 PUSH20 0xFFFFFFFFFFFFFFFFFFFFFFFFFFFFFFFFFFFFFFFF AND PUSH2 0x8FC PUSH1 0x4 SLOAD SWAP1 DUP2 ISZERO MUL SWAP1 PUSH1 0x40 MLOAD PUSH0 PUSH1 0x40 MLOAD DUP1 DUP4 SUB DUP2 DUP6 DUP9 DUP9 CALL SWAP4 POP POP POP POP ISZERO DUP1 ISZERO PUSH2 0xD1E JUMPI RETURNDATASIZE PUSH0 DUP1 RETURNDATACOPY RETURNDATASIZE PUSH0 REVERT JUMPDEST POP POP PUSH2 0xDC1 JUMP JUMPDEST PUSH1 0x7 PUSH1 0x2 PUSH0 PUSH1 0x1 DUP2 MSTORE PUSH1 0x20 ADD SWAP1 DUP2 MSTORE PUSH1 0x20 ADD PUSH0 KECCAK256 PUSH0 ADD SLOAD SUB PUSH2 0xDC0 JUMPI PUSH0 PUSH1 0x2 PUSH0 DUP1 DUP2 MSTORE PUSH1 0x20 ADD SWAP1 DUP2 MSTORE PUSH1 0x20 ADD PUSH0 KECCAK256 PUSH1 0x2 ADD PUSH0 SWAP1 SLOAD SWAP1 PUSH2 0x100 EXP SWAP1 DIV PUSH20 0xFFFFFFFFFFFFFFFFFFFFFFFFFFFFFFFFFFFFFFFF AND SWAP1 POP DUP1 PUSH20 0xFFFFFFFFFFFFFFFFFFFFFFFFFFFFFFFFFFFFFFFF AND PUSH2 0x8FC PUSH1 0x4 SLOAD SWAP1 DUP2 ISZERO MUL SWAP1 PUSH1 0x40 MLOAD PUSH0 PUSH1 0x40 MLOAD DUP1 DUP4 SUB DUP2 DUP6 DUP9 DUP9 CALL SWAP4 POP POP POP POP ISZERO DUP1 ISZERO PUSH2 0xDBD JUMPI RETURNDATASIZE PUSH0 DUP1 RETURNDATACOPY RETURNDATASIZE PUSH0 REVERT JUMPDEST POP POP JUMPDEST JUMPDEST PUSH2 0xDC9 PUSH2 0x170E JUMP JUMPDEST JUMPDEST JUMPDEST JUMPDEST JUMPDEST JUMP JUMPDEST PUSH1 0x2 PUSH1 0x3 SLOAD EQ PUSH2 0xDDD JUMPI PUSH0 DUP1 REVERT JUMPDEST PUSH1 0x2 PUSH0 DUP3 DUP2 MSTORE PUSH1 0x20 ADD SWAP1 DUP2 MSTORE PUSH1 0x20 ADD PUSH0 KECCAK256 PUSH1 0x2 ADD PUSH0 SWAP1 SLOAD SWAP1 PUSH2 0x100 EXP SWAP1 DIV PUSH20 0xFFFFFFFFFFFFFFFFFFFFFFFFFFFFFFFFFFFFFFFF AND PUSH20 0xFFFFFFFFFFFFFFFFFFFFFFFFFFFFFFFFFFFFFFFF AND CALLER PUSH20 0xFFFFFFFFFFFFFFFFFFFFFFFFFFFFFFFFFFFFFFFF AND EQ PUSH2 0xE47 JUMPI PUSH0 DUP1 REVERT JUMPDEST PUSH2 0xE58 PUSH2 0xE53 DUP4 PUSH2 0x608 JUMP JUMPDEST PUSH2 0x1839 JUMP JUMPDEST PUSH1 0x6 PUSH0 DUP2 SLOAD DUP1 SWAP3 SWAP2 SWAP1 PUSH2 0xE6A SWAP1 PUSH2 0x2024 JUMP JUMPDEST SWAP2 SWAP1 POP SSTORE POP TIMESTAMP PUSH1 0x7 DUP2 SWAP1 SSTORE POP POP POP JUMP JUMPDEST PUSH1 0x7 SLOAD DUP2 JUMP JUMPDEST PUSH0 ADDRESS DUP4 DUP4 PUSH1 0x40 MLOAD PUSH1 0x20 ADD PUSH2 0xE96 SWAP4 SWAP3 SWAP2 SWAP1 PUSH2 0x2216 JUMP JUMPDEST PUSH1 0x40 MLOAD PUSH1 0x20 DUP2 DUP4 SUB SUB DUP2 MSTORE SWAP1 PUSH1 0x40 MSTORE DUP1 MLOAD SWAP1 PUSH1 0x20 ADD KECCAK256 SWAP1 POP SWAP3 SWAP2 POP POP JUMP JUMPDEST PUSH1 0x3 SLOAD DUP2 JUMP JUMPDEST PUSH1 0x2 PUSH1 0x20 MSTORE DUP1 PUSH0 MSTORE PUSH1 0x40 PUSH0 KECCAK256 PUSH0 SWAP2 POP SWAP1 POP DUP1 PUSH0 ADD SLOAD SWAP1 DUP1 PUSH1 0x1 ADD SLOAD SWAP1 DUP1 PUSH1 0x2 ADD PUSH0 SWAP1 SLOAD SWAP1 PUSH2 0x100 EXP SWAP1 DIV PUSH20 0xFFFFFFFFFFFFFFFFFFFFFFFFFFFFFFFFFFFFFFFF AND SWAP1 POP DUP4 JUMP JUMPDEST PUSH1 0x6 SLOAD DUP2 JUMP JUMPDEST PUSH0 ISZERO ISZERO PUSH1 0x1 PUSH0 CALLER PUSH20 0xFFFFFFFFFFFFFFFFFFFFFFFFFFFFFFFFFFFFFFFF AND PUSH20 0xFFFFFFFFFFFFFFFFFFFFFFFFFFFFFFFFFFFFFFFF AND DUP2 MSTORE PUSH1 0x20 ADD SWAP1 DUP2 MSTORE PUSH1 0x20 ADD PUSH0 KECCAK256 PUSH1 0x1 ADD PUSH1 0x8 SWAP1 SLOAD SWAP1 PUSH2 0x100 EXP SWAP1 DIV PUSH1 0xFF AND ISZERO ISZERO EQ PUSH2 0xF98 JUMPI PUSH1 0x40 MLOAD PUSH32 0x8C379A000000000000000000000000000000000000000000000000000000000 DUP2 MSTORE PUSH1 0x4 ADD PUSH2 0xF8F SWAP1 PUSH2 0x22C2 JUMP JUMPDEST PUSH1 0x40 MLOAD DUP1 SWAP2 SUB SWAP1 REVERT JUMPDEST PUSH1 0x1 DUP1 PUSH0 CALLER PUSH20 0xFFFFFFFFFFFFFFFFFFFFFFFFFFFFFFFFFFFFFFFF AND PUSH20 0xFFFFFFFFFFFFFFFFFFFFFFFFFFFFFFFFFFFFFFFF AND DUP2 MSTORE PUSH1 0x20 ADD SWAP1 DUP2 MSTORE PUSH1 0x20 ADD PUSH0 KECCAK256 PUSH1 0x1 ADD PUSH1 0x8 PUSH2 0x100 EXP DUP2 SLOAD DUP2 PUSH1 0xFF MUL NOT AND SWAP1 DUP4 ISZERO ISZERO MUL OR SWAP1 SSTORE POP PUSH1 0x1 PUSH0 CALLER PUSH20 0xFFFFFFFFFFFFFFFFFFFFFFFFFFFFFFFFFFFFFFFF AND PUSH20 0xFFFFFFFFFFFFFFFFFFFFFFFFFFFFFFFFFFFFFFFF AND DUP2 MSTORE PUSH1 0x20 ADD SWAP1 DUP2 MSTORE PUSH1 0x20 ADD PUSH0 KECCAK256 PUSH0 ADD SLOAD PUSH2 0x1039 DUP3 PUSH2 0x608 JUMP JUMPDEST EQ PUSH2 0x1079 JUMPI PUSH1 0x40 MLOAD PUSH32 0x8C379A000000000000000000000000000000000000000000000000000000000 DUP2 MSTORE PUSH1 0x4 ADD PUSH2 0x1070 SWAP1 PUSH2 0x2350 JUMP JUMPDEST PUSH1 0x40 MLOAD DUP1 SWAP2 SUB SWAP1 REVERT JUMPDEST PUSH1 0x1 PUSH0 CALLER PUSH20 0xFFFFFFFFFFFFFFFFFFFFFFFFFFFFFFFFFFFFFFFF AND PUSH20 0xFFFFFFFFFFFFFFFFFFFFFFFFFFFFFFFFFFFFFFFF AND DUP2 MSTORE PUSH1 0x20 ADD SWAP1 DUP2 MSTORE PUSH1 0x20 ADD PUSH0 KECCAK256 PUSH1 0x1 ADD PUSH0 SWAP1 SLOAD SWAP1 PUSH2 0x100 EXP SWAP1 DIV PUSH8 0xFFFFFFFFFFFFFFFF AND PUSH8 0xFFFFFFFFFFFFFFFF AND NUMBER PUSH8 0xFFFFFFFFFFFFFFFF AND GT PUSH2 0x1122 JUMPI PUSH1 0x40 MLOAD PUSH32 0x8C379A000000000000000000000000000000000000000000000000000000000 DUP2 MSTORE PUSH1 0x4 ADD PUSH2 0x1119 SWAP1 PUSH2 0x2404 JUMP JUMPDEST PUSH1 0x40 MLOAD DUP1 SWAP2 SUB SWAP1 REVERT JUMPDEST PUSH1 0xFA PUSH1 0x1 PUSH0 CALLER PUSH20 0xFFFFFFFFFFFFFFFFFFFFFFFFFFFFFFFFFFFFFFFF AND PUSH20 0xFFFFFFFFFFFFFFFFFFFFFFFFFFFFFFFFFFFFFFFF AND DUP2 MSTORE PUSH1 0x20 ADD SWAP1 DUP2 MSTORE PUSH1 0x20 ADD PUSH0 KECCAK256 PUSH1 0x1 ADD PUSH0 SWAP1 SLOAD SWAP1 PUSH2 0x100 EXP SWAP1 DIV PUSH8 0xFFFFFFFFFFFFFFFF AND PUSH2 0x1182 SWAP2 SWAP1 PUSH2 0x2435 JUMP JUMPDEST PUSH8 0xFFFFFFFFFFFFFFFF AND NUMBER PUSH8 0xFFFFFFFFFFFFFFFF AND GT ISZERO PUSH2 0x11D8 JUMPI PUSH1 0x40 MLOAD PUSH32 0x8C379A000000000000000000000000000000000000000000000000000000000 DUP2 MSTORE PUSH1 0x4 ADD PUSH2 0x11CF SWAP1 PUSH2 0x24E0 JUMP JUMPDEST PUSH1 0x40 MLOAD DUP1 SWAP2 SUB SWAP1 REVERT JUMPDEST PUSH0 PUSH1 0x1 PUSH0 CALLER PUSH20 0xFFFFFFFFFFFFFFFFFFFFFFFFFFFFFFFFFFFFFFFF AND PUSH20 0xFFFFFFFFFFFFFFFFFFFFFFFFFFFFFFFFFFFFFFFF AND DUP2 MSTORE PUSH1 0x20 ADD SWAP1 DUP2 MSTORE PUSH1 0x20 ADD PUSH0 KECCAK256 PUSH1 0x1 ADD PUSH0 SWAP1 SLOAD SWAP1 PUSH2 0x100 EXP SWAP1 DIV PUSH8 0xFFFFFFFFFFFFFFFF AND PUSH8 0xFFFFFFFFFFFFFFFF AND BLOCKHASH SWAP1 POP PUSH0 DUP1 PUSH0 SWAP1 SLOAD SWAP1 PUSH2 0x100 EXP SWAP1 DIV PUSH1 0xFF AND PUSH1 0xFF AND DUP3 DUP5 PUSH1 0x40 MLOAD PUSH1 0x20 ADD PUSH2 0x125F SWAP3 SWAP2 SWAP1 PUSH2 0x1FCC JUMP JUMPDEST PUSH1 0x40 MLOAD PUSH1 0x20 DUP2 DUP4 SUB SUB DUP2 MSTORE SWAP1 PUSH1 0x40 MSTORE DUP1 MLOAD SWAP1 PUSH1 0x20 ADD KECCAK256 PUSH0 SHR PUSH2 0x1281 SWAP2 SWAP1 PUSH2 0x24FE JUMP JUMPDEST SWAP1 POP PUSH32 0xBC016DD1CADEAEFCB851AF7A0A93532E0023D536894B730801F7BCFE7065BCC2 CALLER DUP5 DUP4 PUSH1 0x40 MLOAD PUSH2 0x12B6 SWAP4 SWAP3 SWAP2 SWAP1 PUSH2 0x252E JUMP JUMPDEST PUSH1 0x40 MLOAD DUP1 SWAP2 SUB SWAP1 LOG1 POP POP POP JUMP JUMPDEST PUSH0 PUSH1 0x2 PUSH0 DUP1 DUP2 MSTORE PUSH1 0x20 ADD SWAP1 DUP2 MSTORE PUSH1 0x20 ADD PUSH0 KECCAK256 PUSH0 ADD SLOAD SWAP1 POP PUSH0 PUSH1 0x2 PUSH0 DUP1 DUP2 MSTORE PUSH1 0x20 ADD SWAP1 DUP2 MSTORE PUSH1 0x20 ADD PUSH0 KECCAK256 PUSH1 0x1 ADD SLOAD SWAP1 POP PUSH0 PUSH1 0x2 PUSH0 PUSH1 0x1 DUP2 MSTORE PUSH1 0x20 ADD SWAP1 DUP2 MSTORE PUSH1 0x20 ADD PUSH0 KECCAK256 PUSH0 ADD SLOAD SWAP1 POP PUSH0 PUSH1 0x2 PUSH0 PUSH1 0x1 DUP2 MSTORE PUSH1 0x20 ADD SWAP1 DUP2 MSTORE PUSH1 0x20 ADD PUSH0 KECCAK256 PUSH1 0x1 ADD SLOAD SWAP1 POP PUSH0 DUP1 PUSH0 PUSH1 0x2 PUSH0 DUP1 DUP2 MSTORE PUSH1 0x20 ADD SWAP1 DUP2 MSTORE PUSH1 0x20 ADD PUSH0 KECCAK256 PUSH1 0x2 ADD PUSH0 SWAP1 SLOAD SWAP1 PUSH2 0x100 EXP SWAP1 DIV PUSH20 0xFFFFFFFFFFFFFFFFFFFFFFFFFFFFFFFFFFFFFFFF AND SWAP1 POP PUSH0 PUSH1 0x2 PUSH0 PUSH1 0x1 DUP2 MSTORE PUSH1 0x20 ADD SWAP1 DUP2 MSTORE PUSH1 0x20 ADD PUSH0 KECCAK256 PUSH1 0x2 ADD PUSH0 SWAP1 SLOAD SWAP1 PUSH2 0x100 EXP SWAP1 DIV PUSH20 0xFFFFFFFFFFFFFFFFFFFFFFFFFFFFFFFFFFFFFFFF AND SWAP1 POP DUP6 PUSH1 0x7 PUSH1 0x1 DUP11 PUSH2 0x13A4 SWAP2 SWAP1 PUSH2 0x206B JUMP JUMPDEST PUSH2 0x13AE SWAP2 SWAP1 PUSH2 0x24FE JUMP JUMPDEST EQ DUP1 PUSH2 0x13D1 JUMPI POP DUP6 PUSH1 0x7 PUSH1 0x2 DUP11 PUSH2 0x13C5 SWAP2 SWAP1 PUSH2 0x206B JUMP JUMPDEST PUSH2 0x13CF SWAP2 SWAP1 PUSH2 0x24FE JUMP JUMPDEST EQ JUMPDEST DUP1 PUSH2 0x13F3 JUMPI POP DUP6 PUSH1 0x7 PUSH1 0x3 DUP11 PUSH2 0x13E7 SWAP2 SWAP1 PUSH2 0x206B JUMP JUMPDEST PUSH2 0x13F1 SWAP2 SWAP1 PUSH2 0x24FE JUMP JUMPDEST EQ JUMPDEST ISZERO PUSH2 0x140C JUMPI PUSH1 0x2 DUP5 PUSH2 0x1405 SWAP2 SWAP1 PUSH2 0x206B JUMP JUMPDEST SWAP4 POP PUSH2 0x14A2 JUMP JUMPDEST DUP8 PUSH1 0x7 PUSH1 0x1 DUP9 PUSH2 0x141C SWAP2 SWAP1 PUSH2 0x206B JUMP JUMPDEST PUSH2 0x1426 SWAP2 SWAP1 PUSH2 0x24FE JUMP JUMPDEST EQ DUP1 PUSH2 0x1449 JUMPI POP DUP8 PUSH1 0x7 PUSH1 0x2 DUP9 PUSH2 0x143D SWAP2 SWAP1 PUSH2 0x206B JUMP JUMPDEST PUSH2 0x1447 SWAP2 SWAP1 PUSH2 0x24FE JUMP JUMPDEST EQ JUMPDEST DUP1 PUSH2 0x146B JUMPI POP DUP8 PUSH1 0x7 PUSH1 0x3 DUP9 PUSH2 0x145F SWAP2 SWAP1 PUSH2 0x206B JUMP JUMPDEST PUSH2 0x1469 SWAP2 SWAP1 PUSH2 0x24FE JUMP JUMPDEST EQ JUMPDEST ISZERO PUSH2 0x1484 JUMPI PUSH1 0x2 DUP4 PUSH2 0x147D SWAP2 SWAP1 PUSH2 0x206B JUMP JUMPDEST SWAP3 POP PUSH2 0x14A1 JUMP JUMPDEST DUP4 DUP1 PUSH2 0x148F SWAP1 PUSH2 0x2024 JUMP JUMPDEST SWAP5 POP POP DUP3 DUP1 PUSH2 0x149D SWAP1 PUSH2 0x2024 JUMP JUMPDEST SWAP4 POP POP JUMPDEST JUMPDEST DUP5 PUSH1 0x7 PUSH1 0x1 DUP10 PUSH2 0x14B2 SWAP2 SWAP1 PUSH2 0x206B JUMP JUMPDEST PUSH2 0x14BC SWAP2 SWAP1 PUSH2 0x24FE JUMP JUMPDEST EQ DUP1 PUSH2 0x14DF JUMPI POP DUP5 PUSH1 0x7 PUSH1 0x2 DUP10 PUSH2 0x14D3 SWAP2 SWAP1 PUSH2 0x206B JUMP JUMPDEST PUSH2 0x14DD SWAP2 SWAP1 PUSH2 0x24FE JUMP JUMPDEST EQ JUMPDEST DUP1 PUSH2 0x1501 JUMPI POP DUP5 PUSH1 0x7 PUSH1 0x3 DUP10 PUSH2 0x14F5 SWAP2 SWAP1 PUSH2 0x206B JUMP JUMPDEST PUSH2 0x14FF SWAP2 SWAP1 PUSH2 0x24FE JUMP JUMPDEST EQ JUMPDEST ISZERO PUSH2 0x151A JUMPI PUSH1 0x2 DUP5 PUSH2 0x1513 SWAP2 SWAP1 PUSH2 0x206B JUMP JUMPDEST SWAP4 POP PUSH2 0x15B0 JUMP JUMPDEST DUP7 PUSH1 0x7 PUSH1 0x1 DUP8 PUSH2 0x152A SWAP2 SWAP1 PUSH2 0x206B JUMP JUMPDEST PUSH2 0x1534 SWAP2 SWAP1 PUSH2 0x24FE JUMP JUMPDEST EQ DUP1 PUSH2 0x1557 JUMPI POP DUP7 PUSH1 0x7 PUSH1 0x2 DUP8 PUSH2 0x154B SWAP2 SWAP1 PUSH2 0x206B JUMP JUMPDEST PUSH2 0x1555 SWAP2 SWAP1 PUSH2 0x24FE JUMP JUMPDEST EQ JUMPDEST DUP1 PUSH2 0x1579 JUMPI POP DUP7 PUSH1 0x7 PUSH1 0x3 DUP8 PUSH2 0x156D SWAP2 SWAP1 PUSH2 0x206B JUMP JUMPDEST PUSH2 0x1577 SWAP2 SWAP1 PUSH2 0x24FE JUMP JUMPDEST EQ JUMPDEST ISZERO PUSH2 0x1592 JUMPI PUSH1 0x2 DUP4 PUSH2 0x158B SWAP2 SWAP1 PUSH2 0x206B JUMP JUMPDEST SWAP3 POP PUSH2 0x15AF JUMP JUMPDEST DUP4 DUP1 PUSH2 0x159D SWAP1 PUSH2 0x2024 JUMP JUMPDEST SWAP5 POP POP DUP3 DUP1 PUSH2 0x15AB SWAP1 PUSH2 0x2024 JUMP JUMPDEST SWAP4 POP POP JUMPDEST JUMPDEST DUP3 DUP5 GT ISZERO PUSH2 0x1603 JUMPI DUP2 PUSH20 0xFFFFFFFFFFFFFFFFFFFFFFFFFFFFFFFFFFFFFFFF AND PUSH2 0x8FC PUSH1 0x4 SLOAD SWAP1 DUP2 ISZERO MUL SWAP1 PUSH1 0x40 MLOAD PUSH0 PUSH1 0x40 MLOAD DUP1 DUP4 SUB DUP2 DUP6 DUP9 DUP9 CALL SWAP4 POP POP POP POP ISZERO DUP1 ISZERO PUSH2 0x15FD JUMPI RETURNDATASIZE PUSH0 DUP1 RETURNDATACOPY RETURNDATASIZE PUSH0 REVERT JUMPDEST POP PUSH2 0x16FC JUMP JUMPDEST DUP4 DUP4 GT ISZERO PUSH2 0x1656 JUMPI DUP1 PUSH20 0xFFFFFFFFFFFFFFFFFFFFFFFFFFFFFFFFFFFFFFFF AND PUSH2 0x8FC PUSH1 0x4 SLOAD SWAP1 DUP2 ISZERO MUL SWAP1 PUSH1 0x40 MLOAD PUSH0 PUSH1 0x40 MLOAD DUP1 DUP4 SUB DUP2 DUP6 DUP9 DUP9 CALL SWAP4 POP POP POP POP ISZERO DUP1 ISZERO PUSH2 0x1650 JUMPI RETURNDATASIZE PUSH0 DUP1 RETURNDATACOPY RETURNDATASIZE PUSH0 REVERT JUMPDEST POP PUSH2 0x16FB JUMP JUMPDEST DUP2 PUSH20 0xFFFFFFFFFFFFFFFFFFFFFFFFFFFFFFFFFFFFFFFF AND PUSH2 0x8FC PUSH1 0x2 PUSH1 0x4 SLOAD PUSH2 0x167F SWAP2 SWAP1 PUSH2 0x21E6 JUMP JUMPDEST SWAP1 DUP2 ISZERO MUL SWAP1 PUSH1 0x40 MLOAD PUSH0 PUSH1 0x40 MLOAD DUP1 DUP4 SUB DUP2 DUP6 DUP9 DUP9 CALL SWAP4 POP POP POP POP ISZERO DUP1 ISZERO PUSH2 0x16A7 JUMPI RETURNDATASIZE PUSH0 DUP1 RETURNDATACOPY RETURNDATASIZE PUSH0 REVERT JUMPDEST POP DUP1 PUSH20 0xFFFFFFFFFFFFFFFFFFFFFFFFFFFFFFFFFFFFFFFF AND PUSH2 0x8FC PUSH1 0x2 PUSH1 0x4 SLOAD PUSH2 0x16D1 SWAP2 SWAP1 PUSH2 0x21E6 JUMP JUMPDEST SWAP1 DUP2 ISZERO MUL SWAP1 PUSH1 0x40 MLOAD PUSH0 PUSH1 0x40 MLOAD DUP1 DUP4 SUB DUP2 DUP6 DUP9 DUP9 CALL SWAP4 POP POP POP POP ISZERO DUP1 ISZERO PUSH2 0x16F9 JUMPI RETURNDATASIZE PUSH0 DUP1 RETURNDATACOPY RETURNDATASIZE PUSH0 REVERT JUMPDEST POP JUMPDEST JUMPDEST PUSH2 0x1704 PUSH2 0x170E JUMP JUMPDEST POP POP POP POP POP POP POP POP JUMP JUMPDEST PUSH0 PUSH1 0x3 DUP2 SWAP1 SSTORE POP PUSH0 PUSH1 0x4 DUP2 SWAP1 SSTORE POP PUSH0 PUSH1 0x5 DUP2 SWAP1 SSTORE POP PUSH0 PUSH1 0x6 DUP2 SWAP1 SSTORE POP PUSH1 0x7 PUSH1 0x2 PUSH0 DUP1 DUP2 MSTORE PUSH1 0x20 ADD SWAP1 DUP2 MSTORE PUSH1 0x20 ADD PUSH0 KECCAK256 PUSH0 ADD DUP2 SWAP1 SSTORE POP PUSH1 0x7 PUSH1 0x2 PUSH0 DUP1 DUP2 MSTORE PUSH1 0x20 ADD SWAP1 DUP2 MSTORE PUSH1 0x20 ADD PUSH0 KECCAK256 PUSH1 0x1 ADD DUP2 SWAP1 SSTORE POP PUSH0 PUSH1 0x2 PUSH0 DUP1 DUP2 MSTORE PUSH1 0x20 ADD SWAP1 DUP2 MSTORE PUSH1 0x20 ADD PUSH0 KECCAK256 PUSH1 0x2 ADD PUSH0 PUSH2 0x100 EXP DUP2 SLOAD DUP2 PUSH20 0xFFFFFFFFFFFFFFFFFFFFFFFFFFFFFFFFFFFFFFFF MUL NOT AND SWAP1 DUP4 PUSH20 0xFFFFFFFFFFFFFFFFFFFFFFFFFFFFFFFFFFFFFFFF AND MUL OR SWAP1 SSTORE POP PUSH1 0x7 PUSH1 0x2 PUSH0 PUSH1 0x1 DUP2 MSTORE PUSH1 0x20 ADD SWAP1 DUP2 MSTORE PUSH1 0x20 ADD PUSH0 KECCAK256 PUSH0 ADD DUP2 SWAP1 SSTORE POP PUSH1 0x7 PUSH1 0x2 PUSH0 PUSH1 0x1 DUP2 MSTORE PUSH1 0x20 ADD SWAP1 DUP2 MSTORE PUSH1 0x20 ADD PUSH0 KECCAK256 PUSH1 0x1 ADD DUP2 SWAP1 SSTORE POP PUSH0 PUSH1 0x2 PUSH0 PUSH1 0x1 DUP2 MSTORE PUSH1 0x20 ADD SWAP1 DUP2 MSTORE PUSH1 0x20 ADD PUSH0 KECCAK256 PUSH1 0x2 ADD PUSH0 PUSH2 0x100 EXP DUP2 SLOAD DUP2 PUSH20 0xFFFFFFFFFFFFFFFFFFFFFFFFFFFFFFFFFFFFFFFF MUL NOT AND SWAP1 DUP4 PUSH20 0xFFFFFFFFFFFFFFFFFFFFFFFFFFFFFFFFFFFFFFFF AND MUL OR SWAP1 SSTORE POP JUMP JUMPDEST DUP1 PUSH1 0x1 PUSH0 CALLER PUSH20 0xFFFFFFFFFFFFFFFFFFFFFFFFFFFFFFFFFFFFFFFF AND PUSH20 0xFFFFFFFFFFFFFFFFFFFFFFFFFFFFFFFFFFFFFFFF AND DUP2 MSTORE PUSH1 0x20 ADD SWAP1 DUP2 MSTORE PUSH1 0x20 ADD PUSH0 KECCAK256 PUSH0 ADD DUP2 SWAP1 SSTORE POP NUMBER PUSH1 0x1 PUSH0 CALLER PUSH20 0xFFFFFFFFFFFFFFFFFFFFFFFFFFFFFFFFFFFFFFFF AND PUSH20 0xFFFFFFFFFFFFFFFFFFFFFFFFFFFFFFFFFFFFFFFF AND DUP2 MSTORE PUSH1 0x20 ADD SWAP1 DUP2 MSTORE PUSH1 0x20 ADD PUSH0 KECCAK256 PUSH1 0x1 ADD PUSH0 PUSH2 0x100 EXP DUP2 SLOAD DUP2 PUSH8 0xFFFFFFFFFFFFFFFF MUL NOT AND SWAP1 DUP4 PUSH8 0xFFFFFFFFFFFFFFFF AND MUL OR SWAP1 SSTORE POP PUSH0 PUSH1 0x1 PUSH0 CALLER PUSH20 0xFFFFFFFFFFFFFFFFFFFFFFFFFFFFFFFFFFFFFFFF AND PUSH20 0xFFFFFFFFFFFFFFFFFFFFFFFFFFFFFFFFFFFFFFFF AND DUP2 MSTORE PUSH1 0x20 ADD SWAP1 DUP2 MSTORE PUSH1 0x20 ADD PUSH0 KECCAK256 PUSH1 0x1 ADD PUSH1 0x8 PUSH2 0x100 EXP DUP2 SLOAD DUP2 PUSH1 0xFF MUL NOT AND SWAP1 DUP4 ISZERO ISZERO MUL OR SWAP1 SSTORE POP PUSH32 0x3C1A1F8F38335B17F751C6DA4BA7D1865F26B3997535176F5080DE9FAD891603 CALLER PUSH1 0x1 PUSH0 CALLER PUSH20 0xFFFFFFFFFFFFFFFFFFFFFFFFFFFFFFFFFFFFFFFF AND PUSH20 0xFFFFFFFFFFFFFFFFFFFFFFFFFFFFFFFFFFFFFFFF AND DUP2 MSTORE PUSH1 0x20 ADD SWAP1 DUP2 MSTORE PUSH1 0x20 ADD PUSH0 KECCAK256 PUSH0 ADD SLOAD PUSH1 0x1 PUSH0 CALLER PUSH20 0xFFFFFFFFFFFFFFFFFFFFFFFFFFFFFFFFFFFFFFFF AND PUSH20 0xFFFFFFFFFFFFFFFFFFFFFFFFFFFFFFFFFFFFFFFF AND DUP2 MSTORE PUSH1 0x20 ADD SWAP1 DUP2 MSTORE PUSH1 0x20 ADD PUSH0 KECCAK256 PUSH1 0x1 ADD PUSH0 SWAP1 SLOAD SWAP1 PUSH2 0x100 EXP SWAP1 DIV PUSH8 0xFFFFFFFFFFFFFFFF AND PUSH1 0x40 MLOAD PUSH2 0x1A00 SWAP4 SWAP3 SWAP2 SWAP1 PUSH2 0x2572 JUMP JUMPDEST PUSH1 0x40 MLOAD DUP1 SWAP2 SUB SWAP1 LOG1 POP JUMP JUMPDEST PUSH0 DUP2 SWAP1 POP SWAP2 SWAP1 POP JUMP JUMPDEST PUSH2 0x1A1D DUP2 PUSH2 0x1A0B JUMP JUMPDEST DUP3 MSTORE POP POP JUMP JUMPDEST PUSH0 PUSH1 0x20 DUP3 ADD SWAP1 POP PUSH2 0x1A36 PUSH0 DUP4 ADD DUP5 PUSH2 0x1A14 JUMP JUMPDEST SWAP3 SWAP2 POP POP JUMP JUMPDEST PUSH0 PUSH1 0x40 MLOAD SWAP1 POP SWAP1 JUMP JUMPDEST PUSH0 DUP1 REVERT JUMPDEST PUSH0 DUP1 REVERT JUMPDEST PUSH2 0x1A56 DUP2 PUSH2 0x1A0B JUMP JUMPDEST DUP2 EQ PUSH2 0x1A60 JUMPI PUSH0 DUP1 REVERT JUMPDEST POP JUMP JUMPDEST PUSH0 DUP2 CALLDATALOAD SWAP1 POP PUSH2 0x1A71 DUP2 PUSH2 0x1A4D JUMP JUMPDEST SWAP3 SWAP2 POP POP JUMP JUMPDEST PUSH0 DUP1 REVERT JUMPDEST PUSH0 DUP1 REVERT JUMPDEST PUSH0 PUSH1 0x1F NOT PUSH1 0x1F DUP4 ADD AND SWAP1 POP SWAP2 SWAP1 POP JUMP JUMPDEST PUSH32 0x4E487B7100000000000000000000000000000000000000000000000000000000 PUSH0 MSTORE PUSH1 0x41 PUSH1 0x4 MSTORE PUSH1 0x24 PUSH0 REVERT JUMPDEST PUSH2 0x1AC5 DUP3 PUSH2 0x1A7F JUMP JUMPDEST DUP2 ADD DUP2 DUP2 LT PUSH8 0xFFFFFFFFFFFFFFFF DUP3 GT OR ISZERO PUSH2 0x1AE4 JUMPI PUSH2 0x1AE3 PUSH2 0x1A8F JUMP JUMPDEST JUMPDEST DUP1 PUSH1 0x40 MSTORE POP POP POP JUMP JUMPDEST PUSH0 PUSH2 0x1AF6 PUSH2 0x1A3C JUMP JUMPDEST SWAP1 POP PUSH2 0x1B02 DUP3 DUP3 PUSH2 0x1ABC JUMP JUMPDEST SWAP2 SWAP1 POP JUMP JUMPDEST PUSH0 PUSH8 0xFFFFFFFFFFFFFFFF DUP3 GT ISZERO PUSH2 0x1B21 JUMPI PUSH2 0x1B20 PUSH2 0x1A8F JUMP JUMPDEST JUMPDEST PUSH2 0x1B2A DUP3 PUSH2 0x1A7F JUMP JUMPDEST SWAP1 POP PUSH1 0x20 DUP2 ADD SWAP1 POP SWAP2 SWAP1 POP JUMP JUMPDEST DUP3 DUP2 DUP4 CALLDATACOPY PUSH0 DUP4 DUP4 ADD MSTORE POP POP POP JUMP JUMPDEST PUSH0 PUSH2 0x1B57 PUSH2 0x1B52 DUP5 PUSH2 0x1B07 JUMP JUMPDEST PUSH2 0x1AED JUMP JUMPDEST SWAP1 POP DUP3 DUP2 MSTORE PUSH1 0x20 DUP2 ADD DUP5 DUP5 DUP5 ADD GT ISZERO PUSH2 0x1B73 JUMPI PUSH2 0x1B72 PUSH2 0x1A7B JUMP JUMPDEST JUMPDEST PUSH2 0x1B7E DUP5 DUP3 DUP6 PUSH2 0x1B37 JUMP JUMPDEST POP SWAP4 SWAP3 POP POP POP JUMP JUMPDEST PUSH0 DUP3 PUSH1 0x1F DUP4 ADD SLT PUSH2 0x1B9A JUMPI PUSH2 0x1B99 PUSH2 0x1A77 JUMP JUMPDEST JUMPDEST DUP2 CALLDATALOAD PUSH2 0x1BAA DUP5 DUP3 PUSH1 0x20 DUP7 ADD PUSH2 0x1B45 JUMP JUMPDEST SWAP2 POP POP SWAP3 SWAP2 POP POP JUMP JUMPDEST PUSH0 DUP1 PUSH0 DUP1 PUSH1 0x80 DUP6 DUP8 SUB SLT ISZERO PUSH2 0x1BCB JUMPI PUSH2 0x1BCA PUSH2 0x1A45 JUMP JUMPDEST JUMPDEST PUSH0 PUSH2 0x1BD8 DUP8 DUP3 DUP9 ADD PUSH2 0x1A63 JUMP JUMPDEST SWAP5 POP POP PUSH1 0x20 PUSH2 0x1BE9 DUP8 DUP3 DUP9 ADD PUSH2 0x1A63 JUMP JUMPDEST SWAP4 POP POP PUSH1 0x40 DUP6 ADD CALLDATALOAD PUSH8 0xFFFFFFFFFFFFFFFF DUP2 GT ISZERO PUSH2 0x1C0A JUMPI PUSH2 0x1C09 PUSH2 0x1A49 JUMP JUMPDEST JUMPDEST PUSH2 0x1C16 DUP8 DUP3 DUP9 ADD PUSH2 0x1B86 JUMP JUMPDEST SWAP3 POP POP PUSH1 0x60 PUSH2 0x1C27 DUP8 DUP3 DUP9 ADD PUSH2 0x1A63 JUMP JUMPDEST SWAP2 POP POP SWAP3 SWAP6 SWAP2 SWAP5 POP SWAP3 POP JUMP JUMPDEST PUSH0 DUP2 SWAP1 POP SWAP2 SWAP1 POP JUMP JUMPDEST PUSH2 0x1C45 DUP2 PUSH2 0x1C33 JUMP JUMPDEST DUP2 EQ PUSH2 0x1C4F JUMPI PUSH0 DUP1 REVERT JUMPDEST POP JUMP JUMPDEST PUSH0 DUP2 CALLDATALOAD SWAP1 POP PUSH2 0x1C60 DUP2 PUSH2 0x1C3C JUMP JUMPDEST SWAP3 SWAP2 POP POP JUMP JUMPDEST PUSH0 PUSH1 0x20 DUP3 DUP5 SUB SLT ISZERO PUSH2 0x1C7B JUMPI PUSH2 0x1C7A PUSH2 0x1A45 JUMP JUMPDEST JUMPDEST PUSH0 PUSH2 0x1C88 DUP5 DUP3 DUP6 ADD PUSH2 0x1C52 JUMP JUMPDEST SWAP2 POP POP SWAP3 SWAP2 POP POP JUMP JUMPDEST PUSH2 0x1C9A DUP2 PUSH2 0x1C33 JUMP JUMPDEST DUP3 MSTORE POP POP JUMP JUMPDEST PUSH0 PUSH1 0x20 DUP3 ADD SWAP1 POP PUSH2 0x1CB3 PUSH0 DUP4 ADD DUP5 PUSH2 0x1C91 JUMP JUMPDEST SWAP3 SWAP2 POP POP JUMP JUMPDEST PUSH0 DUP1 PUSH0 PUSH1 0x60 DUP5 DUP7 SUB SLT ISZERO PUSH2 0x1CD0 JUMPI PUSH2 0x1CCF PUSH2 0x1A45 JUMP JUMPDEST JUMPDEST PUSH0 PUSH2 0x1CDD DUP7 DUP3 DUP8 ADD PUSH2 0x1A63 JUMP JUMPDEST SWAP4 POP POP PUSH1 0x20 PUSH2 0x1CEE DUP7 DUP3 DUP8 ADD PUSH2 0x1A63 JUMP JUMPDEST SWAP3 POP POP PUSH1 0x40 DUP5 ADD CALLDATALOAD PUSH8 0xFFFFFFFFFFFFFFFF DUP2 GT ISZERO PUSH2 0x1D0F JUMPI PUSH2 0x1D0E PUSH2 0x1A49 JUMP JUMPDEST JUMPDEST PUSH2 0x1D1B DUP7 DUP3 DUP8 ADD PUSH2 0x1B86 JUMP JUMPDEST SWAP2 POP POP SWAP3 POP SWAP3 POP SWAP3 JUMP JUMPDEST PUSH0 DUP1 PUSH1 0x40 DUP4 DUP6 SUB SLT ISZERO PUSH2 0x1D3B JUMPI PUSH2 0x1D3A PUSH2 0x1A45 JUMP JUMPDEST JUMPDEST PUSH0 PUSH2 0x1D48 DUP6 DUP3 DUP7 ADD PUSH2 0x1C52 JUMP JUMPDEST SWAP3 POP POP PUSH1 0x20 PUSH2 0x1D59 DUP6 DUP3 DUP7 ADD PUSH2 0x1A63 JUMP JUMPDEST SWAP2 POP POP SWAP3 POP SWAP3 SWAP1 POP JUMP JUMPDEST PUSH0 DUP1 PUSH1 0x40 DUP4 DUP6 SUB SLT ISZERO PUSH2 0x1D79 JUMPI PUSH2 0x1D78 PUSH2 0x1A45 JUMP JUMPDEST JUMPDEST PUSH0 PUSH2 0x1D86 DUP6 DUP3 DUP7 ADD PUSH2 0x1C52 JUMP JUMPDEST SWAP3 POP POP PUSH1 0x20 PUSH2 0x1D97 DUP6 DUP3 DUP7 ADD PUSH2 0x1C52 JUMP JUMPDEST SWAP2 POP POP SWAP3 POP SWAP3 SWAP1 POP JUMP JUMPDEST PUSH0 PUSH1 0x20 DUP3 DUP5 SUB SLT ISZERO PUSH2 0x1DB6 JUMPI PUSH2 0x1DB5 PUSH2 0x1A45 JUMP JUMPDEST JUMPDEST PUSH0 PUSH2 0x1DC3 DUP5 DUP3 DUP6 ADD PUSH2 0x1A63 JUMP JUMPDEST SWAP2 POP POP SWAP3 SWAP2 POP POP JUMP JUMPDEST PUSH0 PUSH20 0xFFFFFFFFFFFFFFFFFFFFFFFFFFFFFFFFFFFFFFFF DUP3 AND SWAP1 POP SWAP2 SWAP1 POP JUMP JUMPDEST PUSH0 PUSH2 0x1DF5 DUP3 PUSH2 0x1DCC JUMP JUMPDEST SWAP1 POP SWAP2 SWAP1 POP JUMP JUMPDEST PUSH2 0x1E05 DUP2 PUSH2 0x1DEB JUMP JUMPDEST DUP3 MSTORE POP POP JUMP JUMPDEST PUSH0 PUSH1 0x60 DUP3 ADD SWAP1 POP PUSH2 0x1E1E PUSH0 DUP4 ADD DUP7 PUSH2 0x1A14 JUMP JUMPDEST PUSH2 0x1E2B PUSH1 0x20 DUP4 ADD DUP6 PUSH2 0x1A14 JUMP JUMPDEST PUSH2 0x1E38 PUSH1 0x40 DUP4 ADD DUP5 PUSH2 0x1DFC JUMP JUMPDEST SWAP5 SWAP4 POP POP POP POP JUMP JUMPDEST PUSH0 DUP2 SWAP1 POP SWAP2 SWAP1 POP JUMP JUMPDEST PUSH2 0x1E5A PUSH2 0x1E55 DUP3 PUSH2 0x1A0B JUMP JUMPDEST PUSH2 0x1E40 JUMP JUMPDEST DUP3 MSTORE POP POP JUMP JUMPDEST PUSH0 PUSH2 0x1E6B DUP3 DUP6 PUSH2 0x1E49 JUMP JUMPDEST PUSH1 0x20 DUP3 ADD SWAP2 POP PUSH2 0x1E7B DUP3 DUP5 PUSH2 0x1E49 JUMP JUMPDEST PUSH1 0x20 DUP3 ADD SWAP2 POP DUP2 SWAP1 POP SWAP4 SWAP3 POP POP POP JUMP JUMPDEST PUSH0 DUP2 MLOAD SWAP1 POP SWAP2 SWAP1 POP JUMP JUMPDEST PUSH0 DUP2 SWAP1 POP PUSH1 0x20 DUP3 ADD SWAP1 POP SWAP2 SWAP1 POP JUMP JUMPDEST PUSH0 PUSH2 0x1EAF DUP3 MLOAD PUSH2 0x1C33 JUMP JUMPDEST DUP1 SWAP2 POP POP SWAP2 SWAP1 POP JUMP JUMPDEST PUSH0 DUP3 DUP3 SHL SWAP1 POP SWAP3 SWAP2 POP POP JUMP JUMPDEST PUSH0 PUSH2 0x1ECE DUP3 PUSH2 0x1E8B JUMP JUMPDEST DUP3 PUSH2 0x1ED8 DUP5 PUSH2 0x1E95 JUMP JUMPDEST SWAP1 POP PUSH2 0x1EE3 DUP2 PUSH2 0x1EA4 JUMP JUMPDEST SWAP3 POP PUSH1 0x20 DUP3 LT ISZERO PUSH2 0x1F23 JUMPI PUSH2 0x1F1E PUSH32 0xFFFFFFFFFFFFFFFFFFFFFFFFFFFFFFFFFFFFFFFFFFFFFFFFFFFFFFFFFFFFFFFF DUP4 PUSH1 0x20 SUB PUSH1 0x8 MUL PUSH2 0x1EB8 JUMP JUMPDEST DUP4 AND SWAP3 POP JUMPDEST POP POP SWAP2 SWAP1 POP JUMP JUMPDEST PUSH0 DUP2 MLOAD SWAP1 POP SWAP2 SWAP1 POP JUMP JUMPDEST PUSH0 DUP2 SWAP1 POP SWAP3 SWAP2 POP POP JUMP JUMPDEST PUSH0 JUMPDEST DUP4 DUP2 LT ISZERO PUSH2 0x1F5B JUMPI DUP1 DUP3 ADD MLOAD DUP2 DUP5 ADD MSTORE PUSH1 0x20 DUP2 ADD SWAP1 POP PUSH2 0x1F40 JUMP JUMPDEST PUSH0 DUP5 DUP5 ADD MSTORE POP POP POP POP JUMP JUMPDEST PUSH0 PUSH2 0x1F70 DUP3 PUSH2 0x1F2A JUMP JUMPDEST PUSH2 0x1F7A DUP2 DUP6 PUSH2 0x1F34 JUMP JUMPDEST SWAP4 POP PUSH2 0x1F8A DUP2 DUP6 PUSH1 0x20 DUP7 ADD PUSH2 0x1F3E JUMP JUMPDEST DUP1 DUP5 ADD SWAP2 POP POP SWAP3 SWAP2 POP POP JUMP JUMPDEST PUSH0 PUSH2 0x1FA1 DUP3 DUP5 PUSH2 0x1F66 JUMP JUMPDEST SWAP2 POP DUP2 SWAP1 POP SWAP3 SWAP2 POP POP JUMP JUMPDEST PUSH0 DUP2 SWAP1 POP SWAP2 SWAP1 POP JUMP JUMPDEST PUSH2 0x1FC6 PUSH2 0x1FC1 DUP3 PUSH2 0x1C33 JUMP JUMPDEST PUSH2 0x1FAC JUMP JUMPDEST DUP3 MSTORE POP POP JUMP JUMPDEST PUSH0 PUSH2 0x1FD7 DUP3 DUP6 PUSH2 0x1FB5 JUMP JUMPDEST PUSH1 0x20 DUP3 ADD SWAP2 POP PUSH2 0x1FE7 DUP3 DUP5 PUSH2 0x1FB5 JUMP JUMPDEST PUSH1 0x20 DUP3 ADD SWAP2 POP DUP2 SWAP1 POP SWAP4 SWAP3 POP POP POP JUMP JUMPDEST PUSH32 0x4E487B7100000000000000000000000000000000000000000000000000000000 PUSH0 MSTORE PUSH1 0x11 PUSH1 0x4 MSTORE PUSH1 0x24 PUSH0 REVERT JUMPDEST PUSH0 PUSH2 0x202E DUP3 PUSH2 0x1A0B JUMP JUMPDEST SWAP2 POP PUSH32 0xFFFFFFFFFFFFFFFFFFFFFFFFFFFFFFFFFFFFFFFFFFFFFFFFFFFFFFFFFFFFFFFF DUP3 SUB PUSH2 0x2060 JUMPI PUSH2 0x205F PUSH2 0x1FF7 JUMP JUMPDEST JUMPDEST PUSH1 0x1 DUP3 ADD SWAP1 POP SWAP2 SWAP1 POP JUMP JUMPDEST PUSH0 PUSH2 0x2075 DUP3 PUSH2 0x1A0B JUMP JUMPDEST SWAP2 POP PUSH2 0x2080 DUP4 PUSH2 0x1A0B JUMP JUMPDEST SWAP3 POP DUP3 DUP3 ADD SWAP1 POP DUP1 DUP3 GT ISZERO PUSH2 0x2098 JUMPI PUSH2 0x2097 PUSH2 0x1FF7 JUMP JUMPDEST JUMPDEST SWAP3 SWAP2 POP POP JUMP JUMPDEST PUSH0 DUP2 PUSH1 0x60 SHL SWAP1 POP SWAP2 SWAP1 POP JUMP JUMPDEST PUSH0 PUSH2 0x20B4 DUP3 PUSH2 0x209E JUMP JUMPDEST SWAP1 POP SWAP2 SWAP1 POP JUMP JUMPDEST PUSH0 PUSH2 0x20C5 DUP3 PUSH2 0x20AA JUMP JUMPDEST SWAP1 POP SWAP2 SWAP1 POP JUMP JUMPDEST PUSH2 0x20DD PUSH2 0x20D8 DUP3 PUSH2 0x1DEB JUMP JUMPDEST PUSH2 0x20BB JUMP JUMPDEST DUP3 MSTORE POP POP JUMP JUMPDEST PUSH0 PUSH2 0x20EE DUP3 DUP6 PUSH2 0x20CC JUMP JUMPDEST PUSH1 0x14 DUP3 ADD SWAP2 POP PUSH2 0x20FE DUP3 DUP5 PUSH2 0x1FB5 JUMP JUMPDEST PUSH1 0x20 DUP3 ADD SWAP2 POP DUP2 SWAP1 POP SWAP4 SWAP3 POP POP POP JUMP JUMPDEST PUSH0 DUP3 DUP3 MSTORE PUSH1 0x20 DUP3 ADD SWAP1 POP SWAP3 SWAP2 POP POP JUMP JUMPDEST PUSH32 0x496E76616C696420737461746500000000000000000000000000000000000000 PUSH0 DUP3 ADD MSTORE POP JUMP JUMPDEST PUSH0 PUSH2 0x2152 PUSH1 0xD DUP4 PUSH2 0x210E JUMP JUMPDEST SWAP2 POP PUSH2 0x215D DUP3 PUSH2 0x211E JUMP JUMPDEST PUSH1 0x20 DUP3 ADD SWAP1 POP SWAP2 SWAP1 POP JUMP JUMPDEST PUSH0 PUSH1 0x20 DUP3 ADD SWAP1 POP DUP2 DUP2 SUB PUSH0 DUP4 ADD MSTORE PUSH2 0x217F DUP2 PUSH2 0x2146 JUMP JUMPDEST SWAP1 POP SWAP2 SWAP1 POP JUMP JUMPDEST PUSH0 PUSH2 0x2190 DUP3 PUSH2 0x1A0B JUMP JUMPDEST SWAP2 POP PUSH2 0x219B DUP4 PUSH2 0x1A0B JUMP JUMPDEST SWAP3 POP DUP3 DUP3 SUB SWAP1 POP DUP2 DUP2 GT ISZERO PUSH2 0x21B3 JUMPI PUSH2 0x21B2 PUSH2 0x1FF7 JUMP JUMPDEST JUMPDEST SWAP3 SWAP2 POP POP JUMP JUMPDEST PUSH32 0x4E487B7100000000000000000000000000000000000000000000000000000000 PUSH0 MSTORE PUSH1 0x12 PUSH1 0x4 MSTORE PUSH1 0x24 PUSH0 REVERT JUMPDEST PUSH0 PUSH2 0x21F0 DUP3 PUSH2 0x1A0B JUMP JUMPDEST SWAP2 POP PUSH2 0x21FB DUP4 PUSH2 0x1A0B JUMP JUMPDEST SWAP3 POP DUP3 PUSH2 0x220B JUMPI PUSH2 0x220A PUSH2 0x21B9 JUMP JUMPDEST JUMPDEST DUP3 DUP3 DIV SWAP1 POP SWAP3 SWAP2 POP POP JUMP JUMPDEST PUSH0 PUSH2 0x2221 DUP3 DUP7 PUSH2 0x20CC JUMP JUMPDEST PUSH1 0x14 DUP3 ADD SWAP2 POP PUSH2 0x2231 DUP3 DUP6 PUSH2 0x1FB5 JUMP JUMPDEST PUSH1 0x20 DUP3 ADD SWAP2 POP PUSH2 0x2241 DUP3 DUP5 PUSH2 0x1FB5 JUMP JUMPDEST PUSH1 0x20 DUP3 ADD SWAP2 POP DUP2 SWAP1 POP SWAP5 SWAP4 POP POP POP POP JUMP JUMPDEST PUSH32 0x436F6D6D697452657665616C3A3A72657665616C3A20416C7265616479207265 PUSH0 DUP3 ADD MSTORE PUSH32 0x7665616C65640000000000000000000000000000000000000000000000000000 PUSH1 0x20 DUP3 ADD MSTORE POP JUMP JUMPDEST PUSH0 PUSH2 0x22AC PUSH1 0x26 DUP4 PUSH2 0x210E JUMP JUMPDEST SWAP2 POP PUSH2 0x22B7 DUP3 PUSH2 0x2252 JUMP JUMPDEST PUSH1 0x40 DUP3 ADD SWAP1 POP SWAP2 SWAP1 POP JUMP JUMPDEST PUSH0 PUSH1 0x20 DUP3 ADD SWAP1 POP DUP2 DUP2 SUB PUSH0 DUP4 ADD MSTORE PUSH2 0x22D9 DUP2 PUSH2 0x22A0 JUMP JUMPDEST SWAP1 POP SWAP2 SWAP1 POP JUMP JUMPDEST PUSH32 0x436F6D6D697452657665616C3A3A72657665616C3A2052657665616C65642068 PUSH0 DUP3 ADD MSTORE PUSH32 0x61736820646F6573206E6F74206D6174636820636F6D6D697400000000000000 PUSH1 0x20 DUP3 ADD MSTORE POP JUMP JUMPDEST PUSH0 PUSH2 0x233A PUSH1 0x39 DUP4 PUSH2 0x210E JUMP JUMPDEST SWAP2 POP PUSH2 0x2345 DUP3 PUSH2 0x22E0 JUMP JUMPDEST PUSH1 0x40 DUP3 ADD SWAP1 POP SWAP2 SWAP1 POP JUMP JUMPDEST PUSH0 PUSH1 0x20 DUP3 ADD SWAP1 POP DUP2 DUP2 SUB PUSH0 DUP4 ADD MSTORE PUSH2 0x2367 DUP2 PUSH2 0x232E JUMP JUMPDEST SWAP1 POP SWAP2 SWAP1 POP JUMP JUMPDEST PUSH32 0x436F6D6D697452657665616C3A3A72657665616C3A2052657665616C20616E64 PUSH0 DUP3 ADD MSTORE PUSH32 0x20636F6D6D69742068617070656E6564206F6E207468652073616D6520626C6F PUSH1 0x20 DUP3 ADD MSTORE PUSH32 0x636B000000000000000000000000000000000000000000000000000000000000 PUSH1 0x40 DUP3 ADD MSTORE POP JUMP JUMPDEST PUSH0 PUSH2 0x23EE PUSH1 0x42 DUP4 PUSH2 0x210E JUMP JUMPDEST SWAP2 POP PUSH2 0x23F9 DUP3 PUSH2 0x236E JUMP JUMPDEST PUSH1 0x60 DUP3 ADD SWAP1 POP SWAP2 SWAP1 POP JUMP JUMPDEST PUSH0 PUSH1 0x20 DUP3 ADD SWAP1 POP DUP2 DUP2 SUB PUSH0 DUP4 ADD MSTORE PUSH2 0x241B DUP2 PUSH2 0x23E2 JUMP JUMPDEST SWAP1 POP SWAP2 SWAP1 POP JUMP JUMPDEST PUSH0 PUSH8 0xFFFFFFFFFFFFFFFF DUP3 AND SWAP1 POP SWAP2 SWAP1 POP JUMP JUMPDEST PUSH0 PUSH2 0x243F DUP3 PUSH2 0x2422 JUMP JUMPDEST SWAP2 POP PUSH2 0x244A DUP4 PUSH2 0x2422 JUMP JUMPDEST SWAP3 POP DUP3 DUP3 ADD SWAP1 POP PUSH8 0xFFFFFFFFFFFFFFFF DUP2 GT ISZERO PUSH2 0x246A JUMPI PUSH2 0x2469 PUSH2 0x1FF7 JUMP JUMPDEST JUMPDEST SWAP3 SWAP2 POP POP JUMP JUMPDEST PUSH32 0x436F6D6D697452657665616C3A3A72657665616C3A2052657665616C65642074 PUSH0 DUP3 ADD MSTORE PUSH32 0x6F6F206C61746500000000000000000000000000000000000000000000000000 PUSH1 0x20 DUP3 ADD MSTORE POP JUMP JUMPDEST PUSH0 PUSH2 0x24CA PUSH1 0x27 DUP4 PUSH2 0x210E JUMP JUMPDEST SWAP2 POP PUSH2 0x24D5 DUP3 PUSH2 0x2470 JUMP JUMPDEST PUSH1 0x40 DUP3 ADD SWAP1 POP SWAP2 SWAP1 POP JUMP JUMPDEST PUSH0 PUSH1 0x20 DUP3 ADD SWAP1 POP DUP2 DUP2 SUB PUSH0 DUP4 ADD MSTORE PUSH2 0x24F7 DUP2 PUSH2 0x24BE JUMP JUMPDEST SWAP1 POP SWAP2 SWAP1 POP JUMP JUMPDEST PUSH0 PUSH2 0x2508 DUP3 PUSH2 0x1A0B JUMP JUMPDEST SWAP2 POP PUSH2 0x2513 DUP4 PUSH2 0x1A0B JUMP JUMPDEST SWAP3 POP DUP3 PUSH2 0x2523 JUMPI PUSH2 0x2522 PUSH2 0x21B9 JUMP JUMPDEST JUMPDEST DUP3 DUP3 MOD SWAP1 POP SWAP3 SWAP2 POP POP JUMP JUMPDEST PUSH0 PUSH1 0x60 DUP3 ADD SWAP1 POP PUSH2 0x2541 PUSH0 DUP4 ADD DUP7 PUSH2 0x1DFC JUMP JUMPDEST PUSH2 0x254E PUSH1 0x20 DUP4 ADD DUP6 PUSH2 0x1C91 JUMP JUMPDEST PUSH2 0x255B PUSH1 0x40 DUP4 ADD DUP5 PUSH2 0x1A14 JUMP JUMPDEST SWAP5 SWAP4 POP POP POP POP JUMP JUMPDEST PUSH2 0x256C DUP2 PUSH2 0x2422 JUMP JUMPDEST DUP3 MSTORE POP POP JUMP JUMPDEST PUSH0 PUSH1 0x60 DUP3 ADD SWAP1 POP PUSH2 0x2585 PUSH0 DUP4 ADD DUP7 PUSH2 0x1DFC JUMP JUMPDEST PUSH2 0x2592 PUSH1 0x20 DUP4 ADD DUP6 PUSH2 0x1C91 JUMP JUMPDEST PUSH2 0x259F PUSH1 0x40 DUP4 ADD DUP5 PUSH2 0x2563 JUMP JUMPDEST SWAP5 SWAP4 POP POP POP POP JUMP INVALID LOG2 PUSH5 0x6970667358 0x22 SLT KECCAK256 RETURNDATASIZE 0xB5 0xB4 PUSH29 0xBB9E54C83616432E791B86D61B2FA0C07A8685042E421B169EAFBC3B64 PUSH20 0x6F6C634300081800330000000000000000000000 "
				},
				"gasEstimates": {
					"creation": {
						"codeDepositCost": "1938600",
						"executionCost": "68437",
						"totalCost": "2007037"
					},
					"external": {
						"IDLE_TIME()": "348",
						"addPlayer()": "infinite",
						"getHash(bytes32)": "infinite",
						"getHashChoice(uint256,uint256,string)": "infinite",
						"getPlayerIdx()": "15831",
						"getSaltedHash(bytes32,bytes32)": "infinite",
						"input(uint256,uint256,string,uint256)": "infinite",
						"inputHashChoice(bytes32,uint256)": "infinite",
						"latestActionTime()": "2514",
						"numHashedInput()": "2513",
						"numInput()": "2449",
						"numPlayer()": "2469",
						"player(uint256)": "infinite",
						"refund()": "infinite",
						"reward()": "2493"
					},
					"internal": {
						"_checkWinnerAndPay()": "infinite",
						"_resetGame()": "157543"
					}
				},
				"methodIdentifiers": {
					"IDLE_TIME()": "2703da2f",
					"addPlayer()": "27b5db8a",
					"getHash(bytes32)": "3cf5040a",
					"getHashChoice(uint256,uint256,string)": "3d72ab0b",
					"getPlayerIdx()": "4537d1e0",
					"getSaltedHash(bytes32,bytes32)": "8dddbf36",
					"input(uint256,uint256,string,uint256)": "2226f2fa",
					"inputHashChoice(bytes32,uint256)": "5940e9e7",
					"latestActionTime()": "7bab61bc",
					"numHashedInput()": "bac4b2b4",
					"numInput()": "086f7815",
					"numPlayer()": "90d5d0c3",
					"player(uint256)": "9e0551c6",
					"refund()": "590e1ae3",
					"reward()": "228cb733"
				}
			},
			"storageLayout": {
				"storage": [
					{
						"astId": 4,
						"contract": "RWAPSSF.sol:RWAPSSF",
						"label": "max",
						"offset": 0,
						"slot": "0",
						"type": "t_uint8"
					},
					{
						"astId": 16,
						"contract": "RWAPSSF.sol:RWAPSSF",
						"label": "commits",
						"offset": 0,
						"slot": "1",
						"type": "t_mapping(t_address,t_struct(Commit)11_storage)"
					},
					{
						"astId": 298,
						"contract": "RWAPSSF.sol:RWAPSSF",
						"label": "player",
						"offset": 0,
						"slot": "2",
						"type": "t_mapping(t_uint256,t_struct(Player)293_storage)"
					},
					{
						"astId": 301,
						"contract": "RWAPSSF.sol:RWAPSSF",
						"label": "numPlayer",
						"offset": 0,
						"slot": "3",
						"type": "t_uint256"
					},
					{
						"astId": 304,
						"contract": "RWAPSSF.sol:RWAPSSF",
						"label": "reward",
						"offset": 0,
						"slot": "4",
						"type": "t_uint256"
					},
					{
						"astId": 307,
						"contract": "RWAPSSF.sol:RWAPSSF",
						"label": "numInput",
						"offset": 0,
						"slot": "5",
						"type": "t_uint256"
					},
					{
						"astId": 310,
						"contract": "RWAPSSF.sol:RWAPSSF",
						"label": "numHashedInput",
						"offset": 0,
						"slot": "6",
						"type": "t_uint256"
					},
					{
						"astId": 314,
						"contract": "RWAPSSF.sol:RWAPSSF",
						"label": "latestActionTime",
						"offset": 0,
						"slot": "7",
						"type": "t_uint256"
					}
				],
				"types": {
					"t_address": {
						"encoding": "inplace",
						"label": "address",
						"numberOfBytes": "20"
					},
					"t_bool": {
						"encoding": "inplace",
						"label": "bool",
						"numberOfBytes": "1"
					},
					"t_bytes32": {
						"encoding": "inplace",
						"label": "bytes32",
						"numberOfBytes": "32"
					},
					"t_mapping(t_address,t_struct(Commit)11_storage)": {
						"encoding": "mapping",
						"key": "t_address",
						"label": "mapping(address => struct CommitReveal.Commit)",
						"numberOfBytes": "32",
						"value": "t_struct(Commit)11_storage"
					},
					"t_mapping(t_uint256,t_struct(Player)293_storage)": {
						"encoding": "mapping",
						"key": "t_uint256",
						"label": "mapping(uint256 => struct RWAPSSF.Player)",
						"numberOfBytes": "32",
						"value": "t_struct(Player)293_storage"
					},
					"t_struct(Commit)11_storage": {
						"encoding": "inplace",
						"label": "struct CommitReveal.Commit",
						"members": [
							{
								"astId": 6,
								"contract": "RWAPSSF.sol:RWAPSSF",
								"label": "commit",
								"offset": 0,
								"slot": "0",
								"type": "t_bytes32"
							},
							{
								"astId": 8,
								"contract": "RWAPSSF.sol:RWAPSSF",
								"label": "block",
								"offset": 0,
								"slot": "1",
								"type": "t_uint64"
							},
							{
								"astId": 10,
								"contract": "RWAPSSF.sol:RWAPSSF",
								"label": "revealed",
								"offset": 8,
								"slot": "1",
								"type": "t_bool"
							}
						],
						"numberOfBytes": "64"
					},
					"t_struct(Player)293_storage": {
						"encoding": "inplace",
						"label": "struct RWAPSSF.Player",
						"members": [
							{
								"astId": 288,
								"contract": "RWAPSSF.sol:RWAPSSF",
								"label": "choice1",
								"offset": 0,
								"slot": "0",
								"type": "t_uint256"
							},
							{
								"astId": 290,
								"contract": "RWAPSSF.sol:RWAPSSF",
								"label": "choice2",
								"offset": 0,
								"slot": "1",
								"type": "t_uint256"
							},
							{
								"astId": 292,
								"contract": "RWAPSSF.sol:RWAPSSF",
								"label": "addr",
								"offset": 0,
								"slot": "2",
								"type": "t_address"
							}
						],
						"numberOfBytes": "96"
					},
					"t_uint256": {
						"encoding": "inplace",
						"label": "uint256",
						"numberOfBytes": "32"
					},
					"t_uint64": {
						"encoding": "inplace",
						"label": "uint64",
						"numberOfBytes": "8"
					},
					"t_uint8": {
						"encoding": "inplace",
						"label": "uint8",
						"numberOfBytes": "1"
					}
				}
			},
			"userdoc": {
				"kind": "user",
				"methods": {},
				"version": 1
			}
		}
	}
}