{
	"RWAPSSF.sol": {
		"RWAPSSF": {
			"abi": [
				{
					"anonymous": false,
					"inputs": [
						{
							"indexed": false,
							"internalType": "address",
							"name": "sender",
							"type": "address"
						},
						{
							"indexed": false,
							"internalType": "bytes32",
							"name": "dataHash",
							"type": "bytes32"
						},
						{
							"indexed": false,
							"internalType": "uint64",
							"name": "block",
							"type": "uint64"
						}
					],
					"name": "CommitHash",
					"type": "event"
				},
				{
					"anonymous": false,
					"inputs": [
						{
							"indexed": false,
							"internalType": "address",
							"name": "sender",
							"type": "address"
						},
						{
							"indexed": false,
							"internalType": "bytes32",
							"name": "answer",
							"type": "bytes32"
						},
						{
							"indexed": false,
							"internalType": "bytes32",
							"name": "salt",
							"type": "bytes32"
						}
					],
					"name": "RevealAnswer",
					"type": "event"
				},
				{
					"anonymous": false,
					"inputs": [
						{
							"indexed": false,
							"internalType": "address",
							"name": "sender",
							"type": "address"
						},
						{
							"indexed": false,
							"internalType": "bytes32",
							"name": "revealHash",
							"type": "bytes32"
						},
						{
							"indexed": false,
							"internalType": "uint256",
							"name": "random",
							"type": "uint256"
						}
					],
					"name": "RevealHash",
					"type": "event"
				},
				{
					"inputs": [],
					"name": "IDLE_TIME",
					"outputs": [
						{
							"internalType": "uint256",
							"name": "",
							"type": "uint256"
						}
					],
					"stateMutability": "view",
					"type": "function"
				},
				{
					"inputs": [],
					"name": "addPlayer",
					"outputs": [],
					"stateMutability": "payable",
					"type": "function"
				},
				{
					"inputs": [
						{
							"internalType": "bytes32",
							"name": "data",
							"type": "bytes32"
						}
					],
					"name": "getHash",
					"outputs": [
						{
							"internalType": "bytes32",
							"name": "",
							"type": "bytes32"
						}
					],
					"stateMutability": "view",
					"type": "function"
				},
				{
					"inputs": [
						{
							"internalType": "uint256",
							"name": "choice",
							"type": "uint256"
						},
						{
							"internalType": "string",
							"name": "salt",
							"type": "string"
						}
					],
					"name": "getHashChoice",
					"outputs": [
						{
							"internalType": "bytes32",
							"name": "",
							"type": "bytes32"
						}
					],
					"stateMutability": "pure",
					"type": "function"
				},
				{
					"inputs": [],
					"name": "getPlayerIdx",
					"outputs": [
						{
							"internalType": "uint256",
							"name": "",
							"type": "uint256"
						}
					],
					"stateMutability": "view",
					"type": "function"
				},
				{
					"inputs": [
						{
							"internalType": "bytes32",
							"name": "data",
							"type": "bytes32"
						},
						{
							"internalType": "bytes32",
							"name": "salt",
							"type": "bytes32"
						}
					],
					"name": "getSaltedHash",
					"outputs": [
						{
							"internalType": "bytes32",
							"name": "",
							"type": "bytes32"
						}
					],
					"stateMutability": "view",
					"type": "function"
				},
				{
					"inputs": [
						{
							"internalType": "uint256",
							"name": "choice",
							"type": "uint256"
						},
						{
							"internalType": "string",
							"name": "salt",
							"type": "string"
						},
						{
							"internalType": "uint256",
							"name": "idx",
							"type": "uint256"
						}
					],
					"name": "input",
					"outputs": [],
					"stateMutability": "nonpayable",
					"type": "function"
				},
				{
					"inputs": [
						{
							"internalType": "bytes32",
							"name": "hashedChoice",
							"type": "bytes32"
						},
						{
							"internalType": "uint256",
							"name": "idx",
							"type": "uint256"
						}
					],
					"name": "inputHashChoice",
					"outputs": [],
					"stateMutability": "nonpayable",
					"type": "function"
				},
				{
					"inputs": [],
					"name": "latestActionTime",
					"outputs": [
						{
							"internalType": "uint256",
							"name": "",
							"type": "uint256"
						}
					],
					"stateMutability": "view",
					"type": "function"
				},
				{
					"inputs": [],
					"name": "numHashedInput",
					"outputs": [
						{
							"internalType": "uint256",
							"name": "",
							"type": "uint256"
						}
					],
					"stateMutability": "view",
					"type": "function"
				},
				{
					"inputs": [],
					"name": "numInput",
					"outputs": [
						{
							"internalType": "uint256",
							"name": "",
							"type": "uint256"
						}
					],
					"stateMutability": "view",
					"type": "function"
				},
				{
					"inputs": [],
					"name": "numPlayer",
					"outputs": [
						{
							"internalType": "uint256",
							"name": "",
							"type": "uint256"
						}
					],
					"stateMutability": "view",
					"type": "function"
				},
				{
					"inputs": [
						{
							"internalType": "uint256",
							"name": "",
							"type": "uint256"
						}
					],
					"name": "player",
					"outputs": [
						{
							"internalType": "uint256",
							"name": "choice",
							"type": "uint256"
						},
						{
							"internalType": "address",
							"name": "addr",
							"type": "address"
						}
					],
					"stateMutability": "view",
					"type": "function"
				},
				{
					"inputs": [],
					"name": "refund",
					"outputs": [],
					"stateMutability": "nonpayable",
					"type": "function"
				},
				{
					"inputs": [],
					"name": "reward",
					"outputs": [
						{
							"internalType": "uint256",
							"name": "",
							"type": "uint256"
						}
					],
					"stateMutability": "view",
					"type": "function"
				}
			],
			"devdoc": {
				"kind": "dev",
				"methods": {},
				"version": 1
			},
			"evm": {
				"assembly": "    /* \"RWAPSSF.sol\":106:5614  contract RWAPSSF is CommitReveal {... */\n  mstore(0x40, 0x80)\n    /* \"CommitReveal.sol\":118:121  100 */\n  0x64\n    /* \"CommitReveal.sol\":97:121  uint8 internal max = 100 */\n  0x00\n  dup1\n  0x0100\n  exp\n  dup2\n  sload\n  dup2\n  0xff\n  mul\n  not\n  and\n  swap1\n  dup4\n  0xff\n  and\n  mul\n  or\n  swap1\n  sstore\n  pop\n    /* \"RWAPSSF.sol\":385:386  0 */\n  0x00\n    /* \"RWAPSSF.sol\":361:386  uint public numPlayer = 0 */\n  0x03\n  sstore\n    /* \"RWAPSSF.sol\":414:415  0 */\n  0x00\n    /* \"RWAPSSF.sol\":393:415  uint public reward = 0 */\n  0x04\n  sstore\n    /* \"RWAPSSF.sol\":445:446  0 */\n  0x00\n    /* \"RWAPSSF.sol\":422:446  uint public numInput = 0 */\n  0x05\n  sstore\n    /* \"RWAPSSF.sol\":482:483  0 */\n  0x00\n    /* \"RWAPSSF.sol\":453:483  uint public numHashedInput = 0 */\n  0x06\n  sstore\n    /* \"RWAPSSF.sol\":527:542  block.timestamp */\n  timestamp\n    /* \"RWAPSSF.sol\":496:542  uint public latestActionTime = block.timestamp */\n  0x07\n  sstore\n    /* \"RWAPSSF.sol\":106:5614  contract RWAPSSF is CommitReveal {... */\n  callvalue\n  dup1\n  iszero\n  tag_1\n  jumpi\n  0x00\n  dup1\n  revert\ntag_1:\n  pop\n  dataSize(sub_0)\n  dup1\n  dataOffset(sub_0)\n  0x00\n  codecopy\n  0x00\n  return\nstop\n\nsub_0: assembly {\n        /* \"RWAPSSF.sol\":106:5614  contract RWAPSSF is CommitReveal {... */\n      mstore(0x40, 0x80)\n      jumpi(tag_1, lt(calldatasize, 0x04))\n      shr(0xe0, calldataload(0x00))\n      dup1\n      0x4537d1e0\n      gt\n      tag_17\n      jumpi\n      dup1\n      0x8dddbf36\n      gt\n      tag_18\n      jumpi\n      dup1\n      0x8dddbf36\n      eq\n      tag_13\n      jumpi\n      dup1\n      0x90d5d0c3\n      eq\n      tag_14\n      jumpi\n      dup1\n      0x9e0551c6\n      eq\n      tag_15\n      jumpi\n      dup1\n      0xbac4b2b4\n      eq\n      tag_16\n      jumpi\n      jump(tag_1)\n    tag_18:\n      dup1\n      0x4537d1e0\n      eq\n      tag_9\n      jumpi\n      dup1\n      0x590e1ae3\n      eq\n      tag_10\n      jumpi\n      dup1\n      0x5940e9e7\n      eq\n      tag_11\n      jumpi\n      dup1\n      0x7bab61bc\n      eq\n      tag_12\n      jumpi\n      jump(tag_1)\n    tag_17:\n      dup1\n      0x228cb733\n      gt\n      tag_19\n      jumpi\n      dup1\n      0x228cb733\n      eq\n      tag_5\n      jumpi\n      dup1\n      0x2703da2f\n      eq\n      tag_6\n      jumpi\n      dup1\n      0x27b5db8a\n      eq\n      tag_7\n      jumpi\n      dup1\n      0x3cf5040a\n      eq\n      tag_8\n      jumpi\n      jump(tag_1)\n    tag_19:\n      dup1\n      0x073d8ff3\n      eq\n      tag_2\n      jumpi\n      dup1\n      0x086f7815\n      eq\n      tag_3\n      jumpi\n      dup1\n      0x1c99b3aa\n      eq\n      tag_4\n      jumpi\n    tag_1:\n      0x00\n      dup1\n      revert\n        /* \"RWAPSSF.sol\":662:898  function getHashChoice( uint choice, string memory salt ) external pure returns ( bytes32 ) {... */\n    tag_2:\n      callvalue\n      dup1\n      iszero\n      tag_20\n      jumpi\n      0x00\n      dup1\n      revert\n    tag_20:\n      pop\n      tag_21\n      0x04\n      dup1\n      calldatasize\n      sub\n      dup2\n      add\n      swap1\n      tag_22\n      swap2\n      swap1\n      tag_23\n      jump\t// in\n    tag_22:\n      tag_24\n      jump\t// in\n    tag_21:\n      mload(0x40)\n      tag_25\n      swap2\n      swap1\n      tag_26\n      jump\t// in\n    tag_25:\n      mload(0x40)\n      dup1\n      swap2\n      sub\n      swap1\n      return\n        /* \"RWAPSSF.sol\":422:446  uint public numInput = 0 */\n    tag_3:\n      callvalue\n      dup1\n      iszero\n      tag_27\n      jumpi\n      0x00\n      dup1\n      revert\n    tag_27:\n      pop\n      tag_28\n      tag_29\n      jump\t// in\n    tag_28:\n      mload(0x40)\n      tag_30\n      swap2\n      swap1\n      tag_31\n      jump\t// in\n    tag_30:\n      mload(0x40)\n      dup1\n      swap2\n      sub\n      swap1\n      return\n        /* \"RWAPSSF.sol\":2077:2600  function input(uint choice, string memory salt, uint idx) public  {... */\n    tag_4:\n      callvalue\n      dup1\n      iszero\n      tag_32\n      jumpi\n      0x00\n      dup1\n      revert\n    tag_32:\n      pop\n      tag_33\n      0x04\n      dup1\n      calldatasize\n      sub\n      dup2\n      add\n      swap1\n      tag_34\n      swap2\n      swap1\n      tag_35\n      jump\t// in\n    tag_34:\n      tag_36\n      jump\t// in\n    tag_33:\n      stop\n        /* \"RWAPSSF.sol\":393:415  uint public reward = 0 */\n    tag_5:\n      callvalue\n      dup1\n      iszero\n      tag_37\n      jumpi\n      0x00\n      dup1\n      revert\n    tag_37:\n      pop\n      tag_38\n      tag_39\n      jump\t// in\n    tag_38:\n      mload(0x40)\n      tag_40\n      swap2\n      swap1\n      tag_31\n      jump\t// in\n    tag_40:\n      mload(0x40)\n      dup1\n      swap2\n      sub\n      swap1\n      return\n        /* \"RWAPSSF.sol\":549:591  uint public constant IDLE_TIME = 5 minutes */\n    tag_6:\n      callvalue\n      dup1\n      iszero\n      tag_41\n      jumpi\n      0x00\n      dup1\n      revert\n    tag_41:\n      pop\n      tag_42\n      tag_43\n      jump\t// in\n    tag_42:\n      mload(0x40)\n      tag_44\n      swap2\n      swap1\n      tag_31\n      jump\t// in\n    tag_44:\n      mload(0x40)\n      dup1\n      swap2\n      sub\n      swap1\n      return\n        /* \"RWAPSSF.sol\":1484:1783  function addPlayer() public payable {... */\n    tag_7:\n      tag_45\n      tag_46\n      jump\t// in\n    tag_45:\n      stop\n        /* \"CommitReveal.sol\":1824:1949  function getHash(bytes32 data) public view returns(bytes32){... */\n    tag_8:\n      callvalue\n      dup1\n      iszero\n      tag_47\n      jumpi\n      0x00\n      dup1\n      revert\n    tag_47:\n      pop\n      tag_48\n      0x04\n      dup1\n      calldatasize\n      sub\n      dup2\n      add\n      swap1\n      tag_49\n      swap2\n      swap1\n      tag_50\n      jump\t// in\n    tag_49:\n      tag_51\n      jump\t// in\n    tag_48:\n      mload(0x40)\n      tag_52\n      swap2\n      swap1\n      tag_26\n      jump\t// in\n    tag_52:\n      mload(0x40)\n      dup1\n      swap2\n      sub\n      swap1\n      return\n        /* \"RWAPSSF.sol\":906:1476  function getPlayerIdx() public view returns ( uint ) {... */\n    tag_9:\n      callvalue\n      dup1\n      iszero\n      tag_53\n      jumpi\n      0x00\n      dup1\n      revert\n    tag_53:\n      pop\n      tag_54\n      tag_55\n      jump\t// in\n    tag_54:\n      mload(0x40)\n      tag_56\n      swap2\n      swap1\n      tag_31\n      jump\t// in\n    tag_56:\n      mload(0x40)\n      dup1\n      swap2\n      sub\n      swap1\n      return\n        /* \"RWAPSSF.sol\":3744:5611  function refund() public {... */\n    tag_10:\n      callvalue\n      dup1\n      iszero\n      tag_57\n      jumpi\n      0x00\n      dup1\n      revert\n    tag_57:\n      pop\n      tag_58\n      tag_59\n      jump\t// in\n    tag_58:\n      stop\n        /* \"RWAPSSF.sol\":1791:2069  function inputHashChoice( bytes32 hashedChoice, uint idx ) public {... */\n    tag_11:\n      callvalue\n      dup1\n      iszero\n      tag_60\n      jumpi\n      0x00\n      dup1\n      revert\n    tag_60:\n      pop\n      tag_61\n      0x04\n      dup1\n      calldatasize\n      sub\n      dup2\n      add\n      swap1\n      tag_62\n      swap2\n      swap1\n      tag_63\n      jump\t// in\n    tag_62:\n      tag_64\n      jump\t// in\n    tag_61:\n      stop\n        /* \"RWAPSSF.sol\":496:542  uint public latestActionTime = block.timestamp */\n    tag_12:\n      callvalue\n      dup1\n      iszero\n      tag_65\n      jumpi\n      0x00\n      dup1\n      revert\n    tag_65:\n      pop\n      tag_66\n      tag_67\n      jump\t// in\n    tag_66:\n      mload(0x40)\n      tag_68\n      swap2\n      swap1\n      tag_31\n      jump\t// in\n    tag_68:\n      mload(0x40)\n      dup1\n      swap2\n      sub\n      swap1\n      return\n        /* \"CommitReveal.sol\":2530:2680  function getSaltedHash(bytes32 data,bytes32 salt) public view returns(bytes32){... */\n    tag_13:\n      callvalue\n      dup1\n      iszero\n      tag_69\n      jumpi\n      0x00\n      dup1\n      revert\n    tag_69:\n      pop\n      tag_70\n      0x04\n      dup1\n      calldatasize\n      sub\n      dup2\n      add\n      swap1\n      tag_71\n      swap2\n      swap1\n      tag_72\n      jump\t// in\n    tag_71:\n      tag_73\n      jump\t// in\n    tag_70:\n      mload(0x40)\n      tag_74\n      swap2\n      swap1\n      tag_26\n      jump\t// in\n    tag_74:\n      mload(0x40)\n      dup1\n      swap2\n      sub\n      swap1\n      return\n        /* \"RWAPSSF.sol\":361:386  uint public numPlayer = 0 */\n    tag_14:\n      callvalue\n      dup1\n      iszero\n      tag_75\n      jumpi\n      0x00\n      dup1\n      revert\n    tag_75:\n      pop\n      tag_76\n      tag_77\n      jump\t// in\n    tag_76:\n      mload(0x40)\n      tag_78\n      swap2\n      swap1\n      tag_31\n      jump\t// in\n    tag_78:\n      mload(0x40)\n      dup1\n      swap2\n      sub\n      swap1\n      return\n        /* \"RWAPSSF.sol\":316:354  mapping (uint => Player) public player */\n    tag_15:\n      callvalue\n      dup1\n      iszero\n      tag_79\n      jumpi\n      0x00\n      dup1\n      revert\n    tag_79:\n      pop\n      tag_80\n      0x04\n      dup1\n      calldatasize\n      sub\n      dup2\n      add\n      swap1\n      tag_81\n      swap2\n      swap1\n      tag_82\n      jump\t// in\n    tag_81:\n      tag_83\n      jump\t// in\n    tag_80:\n      mload(0x40)\n      tag_84\n      swap3\n      swap2\n      swap1\n      tag_85\n      jump\t// in\n    tag_84:\n      mload(0x40)\n      dup1\n      swap2\n      sub\n      swap1\n      return\n        /* \"RWAPSSF.sol\":453:483  uint public numHashedInput = 0 */\n    tag_16:\n      callvalue\n      dup1\n      iszero\n      tag_86\n      jumpi\n      0x00\n      dup1\n      revert\n    tag_86:\n      pop\n      tag_87\n      tag_88\n      jump\t// in\n    tag_87:\n      mload(0x40)\n      tag_89\n      swap2\n      swap1\n      tag_31\n      jump\t// in\n    tag_89:\n      mload(0x40)\n      dup1\n      swap2\n      sub\n      swap1\n      return\n        /* \"RWAPSSF.sol\":662:898  function getHashChoice( uint choice, string memory salt ) external pure returns ( bytes32 ) {... */\n    tag_24:\n        /* \"RWAPSSF.sol\":744:751  bytes32 */\n      0x00\n        /* \"RWAPSSF.sol\":765:783  bytes32 encodeSalt */\n      dup1\n        /* \"RWAPSSF.sol\":813:817  salt */\n      dup3\n        /* \"RWAPSSF.sol\":795:819  abi.encodePacked( salt ) */\n      add(0x20, mload(0x40))\n      tag_91\n      swap2\n      swap1\n      tag_92\n      jump\t// in\n    tag_91:\n      mload(0x40)\n      0x20\n      dup2\n      dup4\n      sub\n      sub\n      dup2\n      mstore\n      swap1\n      0x40\n      mstore\n        /* \"RWAPSSF.sol\":786:821  bytes32( abi.encodePacked( salt ) ) */\n      tag_93\n      swap1\n      tag_94\n      jump\t// in\n    tag_93:\n        /* \"RWAPSSF.sol\":765:821  bytes32 encodeSalt = bytes32( abi.encodePacked( salt ) ) */\n      swap1\n      pop\n        /* \"RWAPSSF.sol\":868:874  choice */\n      dup4\n        /* \"RWAPSSF.sol\":876:886  encodeSalt */\n      dup2\n        /* \"RWAPSSF.sol\":850:888  abi.encodePacked( choice, encodeSalt ) */\n      add(0x20, mload(0x40))\n      tag_95\n      swap3\n      swap2\n      swap1\n      tag_96\n      jump\t// in\n    tag_95:\n      mload(0x40)\n      0x20\n      dup2\n      dup4\n      sub\n      sub\n      dup2\n      mstore\n      swap1\n      0x40\n      mstore\n        /* \"RWAPSSF.sol\":839:890  keccak256( abi.encodePacked( choice, encodeSalt ) ) */\n      dup1\n      mload\n      swap1\n      0x20\n      add\n      keccak256\n        /* \"RWAPSSF.sol\":832:890  return keccak256( abi.encodePacked( choice, encodeSalt ) ) */\n      swap2\n      pop\n      pop\n        /* \"RWAPSSF.sol\":662:898  function getHashChoice( uint choice, string memory salt ) external pure returns ( bytes32 ) {... */\n      swap3\n      swap2\n      pop\n      pop\n      jump\t// out\n        /* \"RWAPSSF.sol\":422:446  uint public numInput = 0 */\n    tag_29:\n      sload(0x05)\n      dup2\n      jump\t// out\n        /* \"RWAPSSF.sol\":2077:2600  function input(uint choice, string memory salt, uint idx) public  {... */\n    tag_36:\n        /* \"RWAPSSF.sol\":2175:2176  2 */\n      0x02\n        /* \"RWAPSSF.sol\":2162:2171  numPlayer */\n      sload(0x03)\n        /* \"RWAPSSF.sol\":2162:2176  numPlayer == 2 */\n      eq\n        /* \"RWAPSSF.sol\":2154:2177  require(numPlayer == 2) */\n      tag_98\n      jumpi\n      0x00\n      dup1\n      revert\n    tag_98:\n        /* \"RWAPSSF.sol\":2210:2216  player */\n      0x02\n        /* \"RWAPSSF.sol\":2210:2221  player[idx] */\n      0x00\n        /* \"RWAPSSF.sol\":2217:2220  idx */\n      dup3\n        /* \"RWAPSSF.sol\":2210:2221  player[idx] */\n      dup2\n      mstore\n      0x20\n      add\n      swap1\n      dup2\n      mstore\n      0x20\n      add\n      0x00\n      keccak256\n        /* \"RWAPSSF.sol\":2210:2226  player[idx].addr */\n      0x01\n      add\n      0x00\n      swap1\n      sload\n      swap1\n      0x0100\n      exp\n      swap1\n      div\n      0xffffffffffffffffffffffffffffffffffffffff\n      and\n        /* \"RWAPSSF.sol\":2196:2226  msg.sender == player[idx].addr */\n      0xffffffffffffffffffffffffffffffffffffffff\n      and\n        /* \"RWAPSSF.sol\":2196:2206  msg.sender */\n      caller\n        /* \"RWAPSSF.sol\":2196:2226  msg.sender == player[idx].addr */\n      0xffffffffffffffffffffffffffffffffffffffff\n      and\n      eq\n        /* \"RWAPSSF.sol\":2188:2227  require(msg.sender == player[idx].addr) */\n      tag_99\n      jumpi\n      0x00\n      dup1\n      revert\n    tag_99:\n        /* \"RWAPSSF.sol\":2256:2257  0 */\n      0x00\n        /* \"RWAPSSF.sol\":2246:2252  choice */\n      dup4\n        /* \"RWAPSSF.sol\":2246:2257  choice >= 0 */\n      lt\n      iszero\n        /* \"RWAPSSF.sol\":2246:2272  choice >= 0 && choice <= 6 */\n      dup1\n      iszero\n      tag_100\n      jumpi\n      pop\n        /* \"RWAPSSF.sol\":2271:2272  6 */\n      0x06\n        /* \"RWAPSSF.sol\":2261:2267  choice */\n      dup4\n        /* \"RWAPSSF.sol\":2261:2272  choice <= 6 */\n      gt\n      iszero\n        /* \"RWAPSSF.sol\":2246:2272  choice >= 0 && choice <= 6 */\n    tag_100:\n        /* \"RWAPSSF.sol\":2238:2273  require(choice >= 0 && choice <= 6) */\n      tag_101\n      jumpi\n      0x00\n      dup1\n      revert\n    tag_101:\n        /* \"RWAPSSF.sol\":2284:2302  bytes32 encodeSalt */\n      0x00\n        /* \"RWAPSSF.sol\":2332:2336  salt */\n      dup3\n        /* \"RWAPSSF.sol\":2314:2338  abi.encodePacked( salt ) */\n      add(0x20, mload(0x40))\n      tag_102\n      swap2\n      swap1\n      tag_92\n      jump\t// in\n    tag_102:\n      mload(0x40)\n      0x20\n      dup2\n      dup4\n      sub\n      sub\n      dup2\n      mstore\n      swap1\n      0x40\n      mstore\n        /* \"RWAPSSF.sol\":2305:2340  bytes32( abi.encodePacked( salt ) ) */\n      tag_103\n      swap1\n      tag_94\n      jump\t// in\n    tag_103:\n        /* \"RWAPSSF.sol\":2284:2340  bytes32 encodeSalt = bytes32( abi.encodePacked( salt ) ) */\n      swap1\n      pop\n        /* \"RWAPSSF.sol\":2351:2412  reveal( keccak256( abi.encodePacked( choice, encodeSalt ) ) ) */\n      tag_104\n        /* \"RWAPSSF.sol\":2388:2394  choice */\n      dup5\n        /* \"RWAPSSF.sol\":2396:2406  encodeSalt */\n      dup3\n        /* \"RWAPSSF.sol\":2370:2408  abi.encodePacked( choice, encodeSalt ) */\n      add(0x20, mload(0x40))\n      tag_105\n      swap3\n      swap2\n      swap1\n      tag_96\n      jump\t// in\n    tag_105:\n      mload(0x40)\n      0x20\n      dup2\n      dup4\n      sub\n      sub\n      dup2\n      mstore\n      swap1\n      0x40\n      mstore\n        /* \"RWAPSSF.sol\":2359:2410  keccak256( abi.encodePacked( choice, encodeSalt ) ) */\n      dup1\n      mload\n      swap1\n      0x20\n      add\n      keccak256\n        /* \"RWAPSSF.sol\":2351:2357  reveal */\n      tag_106\n        /* \"RWAPSSF.sol\":2351:2412  reveal( keccak256( abi.encodePacked( choice, encodeSalt ) ) ) */\n      jump\t// in\n    tag_104:\n        /* \"RWAPSSF.sol\":2444:2450  choice */\n      dup4\n        /* \"RWAPSSF.sol\":2423:2429  player */\n      0x02\n        /* \"RWAPSSF.sol\":2423:2434  player[idx] */\n      0x00\n        /* \"RWAPSSF.sol\":2430:2433  idx */\n      dup5\n        /* \"RWAPSSF.sol\":2423:2434  player[idx] */\n      dup2\n      mstore\n      0x20\n      add\n      swap1\n      dup2\n      mstore\n      0x20\n      add\n      0x00\n      keccak256\n        /* \"RWAPSSF.sol\":2423:2441  player[idx].choice */\n      0x00\n      add\n        /* \"RWAPSSF.sol\":2423:2450  player[idx].choice = choice */\n      dup2\n      swap1\n      sstore\n      pop\n        /* \"RWAPSSF.sol\":2461:2469  numInput */\n      0x05\n      0x00\n        /* \"RWAPSSF.sol\":2461:2471  numInput++ */\n      dup2\n      sload\n      dup1\n      swap3\n      swap2\n      swap1\n      tag_107\n      swap1\n      tag_108\n      jump\t// in\n    tag_107:\n      swap2\n      swap1\n      pop\n      sstore\n      pop\n        /* \"RWAPSSF.sol\":2501:2516  block.timestamp */\n      timestamp\n        /* \"RWAPSSF.sol\":2482:2498  latestActionTime */\n      0x07\n        /* \"RWAPSSF.sol\":2482:2516  latestActionTime = block.timestamp */\n      dup2\n      swap1\n      sstore\n      pop\n        /* \"RWAPSSF.sol\":2543:2544  2 */\n      0x02\n        /* \"RWAPSSF.sol\":2531:2539  numInput */\n      sload(0x05)\n        /* \"RWAPSSF.sol\":2531:2544  numInput == 2 */\n      sub\n        /* \"RWAPSSF.sol\":2527:2593  if (numInput == 2) {... */\n      tag_109\n      jumpi\n        /* \"RWAPSSF.sol\":2561:2581  _checkWinnerAndPay() */\n      tag_110\n        /* \"RWAPSSF.sol\":2561:2579  _checkWinnerAndPay */\n      tag_111\n        /* \"RWAPSSF.sol\":2561:2581  _checkWinnerAndPay() */\n      jump\t// in\n    tag_110:\n        /* \"RWAPSSF.sol\":2527:2593  if (numInput == 2) {... */\n    tag_109:\n        /* \"RWAPSSF.sol\":2143:2600  {... */\n      pop\n        /* \"RWAPSSF.sol\":2077:2600  function input(uint choice, string memory salt, uint idx) public  {... */\n      pop\n      pop\n      pop\n      jump\t// out\n        /* \"RWAPSSF.sol\":393:415  uint public reward = 0 */\n    tag_39:\n      sload(0x04)\n      dup2\n      jump\t// out\n        /* \"RWAPSSF.sol\":549:591  uint public constant IDLE_TIME = 5 minutes */\n    tag_43:\n        /* \"RWAPSSF.sol\":582:591  5 minutes */\n      0x012c\n        /* \"RWAPSSF.sol\":549:591  uint public constant IDLE_TIME = 5 minutes */\n      dup2\n      jump\t// out\n        /* \"RWAPSSF.sol\":1484:1783  function addPlayer() public payable {... */\n    tag_46:\n        /* \"RWAPSSF.sol\":1551:1552  2 */\n      0x02\n        /* \"RWAPSSF.sol\":1539:1548  numPlayer */\n      sload(0x03)\n        /* \"RWAPSSF.sol\":1539:1552  numPlayer < 2 */\n      lt\n        /* \"RWAPSSF.sol\":1531:1553  require(numPlayer < 2) */\n      tag_113\n      jumpi\n      0x00\n      dup1\n      revert\n    tag_113:\n        /* \"RWAPSSF.sol\":1585:1592  1 ether */\n      0x0de0b6b3a7640000\n        /* \"RWAPSSF.sol\":1572:1581  msg.value */\n      callvalue\n        /* \"RWAPSSF.sol\":1572:1592  msg.value == 1 ether */\n      eq\n        /* \"RWAPSSF.sol\":1564:1593  require(msg.value == 1 ether) */\n      tag_114\n      jumpi\n      0x00\n      dup1\n      revert\n    tag_114:\n        /* \"RWAPSSF.sol\":1614:1623  msg.value */\n      callvalue\n        /* \"RWAPSSF.sol\":1604:1610  reward */\n      0x04\n      0x00\n        /* \"RWAPSSF.sol\":1604:1623  reward += msg.value */\n      dup3\n      dup3\n      sload\n      tag_115\n      swap2\n      swap1\n      tag_116\n      jump\t// in\n    tag_115:\n      swap3\n      pop\n      pop\n      dup2\n      swap1\n      sstore\n      pop\n        /* \"RWAPSSF.sol\":1659:1669  msg.sender */\n      caller\n        /* \"RWAPSSF.sol\":1634:1640  player */\n      0x02\n        /* \"RWAPSSF.sol\":1634:1651  player[numPlayer] */\n      0x00\n        /* \"RWAPSSF.sol\":1641:1650  numPlayer */\n      sload(0x03)\n        /* \"RWAPSSF.sol\":1634:1651  player[numPlayer] */\n      dup2\n      mstore\n      0x20\n      add\n      swap1\n      dup2\n      mstore\n      0x20\n      add\n      0x00\n      keccak256\n        /* \"RWAPSSF.sol\":1634:1656  player[numPlayer].addr */\n      0x01\n      add\n      0x00\n        /* \"RWAPSSF.sol\":1634:1669  player[numPlayer].addr = msg.sender */\n      0x0100\n      exp\n      dup2\n      sload\n      dup2\n      0xffffffffffffffffffffffffffffffffffffffff\n      mul\n      not\n      and\n      swap1\n      dup4\n      0xffffffffffffffffffffffffffffffffffffffff\n      and\n      mul\n      or\n      swap1\n      sstore\n      pop\n        /* \"RWAPSSF.sol\":1707:1708  7 */\n      0x07\n        /* \"RWAPSSF.sol\":1680:1686  player */\n      0x02\n        /* \"RWAPSSF.sol\":1680:1697  player[numPlayer] */\n      0x00\n        /* \"RWAPSSF.sol\":1687:1696  numPlayer */\n      sload(0x03)\n        /* \"RWAPSSF.sol\":1680:1697  player[numPlayer] */\n      dup2\n      mstore\n      0x20\n      add\n      swap1\n      dup2\n      mstore\n      0x20\n      add\n      0x00\n      keccak256\n        /* \"RWAPSSF.sol\":1680:1704  player[numPlayer].choice */\n      0x00\n      add\n        /* \"RWAPSSF.sol\":1680:1708  player[numPlayer].choice = 7 */\n      dup2\n      swap1\n      sstore\n      pop\n        /* \"RWAPSSF.sol\":1719:1728  numPlayer */\n      0x03\n      0x00\n        /* \"RWAPSSF.sol\":1719:1730  numPlayer++ */\n      dup2\n      sload\n      dup1\n      swap3\n      swap2\n      swap1\n      tag_117\n      swap1\n      tag_108\n      jump\t// in\n    tag_117:\n      swap2\n      swap1\n      pop\n      sstore\n      pop\n        /* \"RWAPSSF.sol\":1760:1775  block.timestamp */\n      timestamp\n        /* \"RWAPSSF.sol\":1741:1757  latestActionTime */\n      0x07\n        /* \"RWAPSSF.sol\":1741:1775  latestActionTime = block.timestamp */\n      dup2\n      swap1\n      sstore\n      pop\n        /* \"RWAPSSF.sol\":1484:1783  function addPlayer() public payable {... */\n      jump\t// out\n        /* \"CommitReveal.sol\":1824:1949  function getHash(bytes32 data) public view returns(bytes32){... */\n    tag_51:\n        /* \"CommitReveal.sol\":1875:1882  bytes32 */\n      0x00\n        /* \"CommitReveal.sol\":1931:1935  this */\n      address\n        /* \"CommitReveal.sol\":1938:1942  data */\n      dup3\n        /* \"CommitReveal.sol\":1906:1943  abi.encodePacked(address(this), data) */\n      add(0x20, mload(0x40))\n      tag_119\n      swap3\n      swap2\n      swap1\n      tag_120\n      jump\t// in\n    tag_119:\n      mload(0x40)\n      0x20\n      dup2\n      dup4\n      sub\n      sub\n      dup2\n      mstore\n      swap1\n      0x40\n      mstore\n        /* \"CommitReveal.sol\":1896:1944  keccak256(abi.encodePacked(address(this), data)) */\n      dup1\n      mload\n      swap1\n      0x20\n      add\n      keccak256\n        /* \"CommitReveal.sol\":1889:1944  return keccak256(abi.encodePacked(address(this), data)) */\n      swap1\n      pop\n        /* \"CommitReveal.sol\":1824:1949  function getHash(bytes32 data) public view returns(bytes32){... */\n      swap2\n      swap1\n      pop\n      jump\t// out\n        /* \"RWAPSSF.sol\":906:1476  function getPlayerIdx() public view returns ( uint ) {... */\n    tag_55:\n        /* \"RWAPSSF.sol\":952:956  uint */\n      0x00\n        /* \"RWAPSSF.sol\":991:992  0 */\n      dup1\n        /* \"RWAPSSF.sol\":979:988  numPlayer */\n      sload(0x03)\n        /* \"RWAPSSF.sol\":979:992  numPlayer > 0 */\n      gt\n        /* \"RWAPSSF.sol\":970:994  require( numPlayer > 0 ) */\n      tag_122\n      jumpi\n      0x00\n      dup1\n      revert\n    tag_122:\n        /* \"RWAPSSF.sol\":1022:1023  1 */\n      0x01\n        /* \"RWAPSSF.sol\":1009:1018  numPlayer */\n      sload(0x03)\n        /* \"RWAPSSF.sol\":1009:1023  numPlayer == 1 */\n      sub\n        /* \"RWAPSSF.sol\":1005:1435  if( numPlayer == 1 ){... */\n      tag_123\n      jumpi\n        /* \"RWAPSSF.sol\":1063:1069  player */\n      0x02\n        /* \"RWAPSSF.sol\":1063:1072  player[0] */\n      0x00\n        /* \"RWAPSSF.sol\":1070:1071  0 */\n      dup1\n        /* \"RWAPSSF.sol\":1063:1072  player[0] */\n      dup2\n      mstore\n      0x20\n      add\n      swap1\n      dup2\n      mstore\n      0x20\n      add\n      0x00\n      keccak256\n        /* \"RWAPSSF.sol\":1063:1077  player[0].addr */\n      0x01\n      add\n      0x00\n      swap1\n      sload\n      swap1\n      0x0100\n      exp\n      swap1\n      div\n      0xffffffffffffffffffffffffffffffffffffffff\n      and\n        /* \"RWAPSSF.sol\":1049:1077  msg.sender == player[0].addr */\n      0xffffffffffffffffffffffffffffffffffffffff\n      and\n        /* \"RWAPSSF.sol\":1049:1059  msg.sender */\n      caller\n        /* \"RWAPSSF.sol\":1049:1077  msg.sender == player[0].addr */\n      0xffffffffffffffffffffffffffffffffffffffff\n      and\n      eq\n        /* \"RWAPSSF.sol\":1040:1079  require( msg.sender == player[0].addr ) */\n      tag_124\n      jumpi\n      0x00\n      dup1\n      revert\n    tag_124:\n        /* \"RWAPSSF.sol\":1101:1102  0 */\n      0x00\n        /* \"RWAPSSF.sol\":1094:1102  return 0 */\n      swap1\n      pop\n      jump(tag_121)\n        /* \"RWAPSSF.sol\":1005:1435  if( numPlayer == 1 ){... */\n    tag_123:\n        /* \"RWAPSSF.sol\":1146:1147  2 */\n      0x02\n        /* \"RWAPSSF.sol\":1133:1142  numPlayer */\n      sload(0x03)\n        /* \"RWAPSSF.sol\":1133:1147  numPlayer == 2 */\n      sub\n        /* \"RWAPSSF.sol\":1129:1435  if( numPlayer == 2 ){... */\n      tag_126\n      jumpi\n        /* \"RWAPSSF.sol\":1187:1193  player */\n      0x02\n        /* \"RWAPSSF.sol\":1187:1196  player[0] */\n      0x00\n        /* \"RWAPSSF.sol\":1194:1195  0 */\n      dup1\n        /* \"RWAPSSF.sol\":1187:1196  player[0] */\n      dup2\n      mstore\n      0x20\n      add\n      swap1\n      dup2\n      mstore\n      0x20\n      add\n      0x00\n      keccak256\n        /* \"RWAPSSF.sol\":1187:1201  player[0].addr */\n      0x01\n      add\n      0x00\n      swap1\n      sload\n      swap1\n      0x0100\n      exp\n      swap1\n      div\n      0xffffffffffffffffffffffffffffffffffffffff\n      and\n        /* \"RWAPSSF.sol\":1173:1201  msg.sender == player[0].addr */\n      0xffffffffffffffffffffffffffffffffffffffff\n      and\n        /* \"RWAPSSF.sol\":1173:1183  msg.sender */\n      caller\n        /* \"RWAPSSF.sol\":1173:1201  msg.sender == player[0].addr */\n      0xffffffffffffffffffffffffffffffffffffffff\n      and\n      eq\n        /* \"RWAPSSF.sol\":1173:1233  msg.sender == player[0].addr || msg.sender == player[1].addr */\n      dup1\n      tag_127\n      jumpi\n      pop\n        /* \"RWAPSSF.sol\":1219:1225  player */\n      0x02\n        /* \"RWAPSSF.sol\":1219:1228  player[1] */\n      0x00\n        /* \"RWAPSSF.sol\":1226:1227  1 */\n      0x01\n        /* \"RWAPSSF.sol\":1219:1228  player[1] */\n      dup2\n      mstore\n      0x20\n      add\n      swap1\n      dup2\n      mstore\n      0x20\n      add\n      0x00\n      keccak256\n        /* \"RWAPSSF.sol\":1219:1233  player[1].addr */\n      0x01\n      add\n      0x00\n      swap1\n      sload\n      swap1\n      0x0100\n      exp\n      swap1\n      div\n      0xffffffffffffffffffffffffffffffffffffffff\n      and\n        /* \"RWAPSSF.sol\":1205:1233  msg.sender == player[1].addr */\n      0xffffffffffffffffffffffffffffffffffffffff\n      and\n        /* \"RWAPSSF.sol\":1205:1215  msg.sender */\n      caller\n        /* \"RWAPSSF.sol\":1205:1233  msg.sender == player[1].addr */\n      0xffffffffffffffffffffffffffffffffffffffff\n      and\n      eq\n        /* \"RWAPSSF.sol\":1173:1233  msg.sender == player[0].addr || msg.sender == player[1].addr */\n    tag_127:\n        /* \"RWAPSSF.sol\":1164:1235  require( msg.sender == player[0].addr || msg.sender == player[1].addr ) */\n      tag_128\n      jumpi\n      0x00\n      dup1\n      revert\n    tag_128:\n        /* \"RWAPSSF.sol\":1268:1274  player */\n      0x02\n        /* \"RWAPSSF.sol\":1268:1277  player[0] */\n      0x00\n        /* \"RWAPSSF.sol\":1275:1276  0 */\n      dup1\n        /* \"RWAPSSF.sol\":1268:1277  player[0] */\n      dup2\n      mstore\n      0x20\n      add\n      swap1\n      dup2\n      mstore\n      0x20\n      add\n      0x00\n      keccak256\n        /* \"RWAPSSF.sol\":1268:1282  player[0].addr */\n      0x01\n      add\n      0x00\n      swap1\n      sload\n      swap1\n      0x0100\n      exp\n      swap1\n      div\n      0xffffffffffffffffffffffffffffffffffffffff\n      and\n        /* \"RWAPSSF.sol\":1254:1282  msg.sender == player[0].addr */\n      0xffffffffffffffffffffffffffffffffffffffff\n      and\n        /* \"RWAPSSF.sol\":1254:1264  msg.sender */\n      caller\n        /* \"RWAPSSF.sol\":1254:1282  msg.sender == player[0].addr */\n      0xffffffffffffffffffffffffffffffffffffffff\n      and\n      sub\n        /* \"RWAPSSF.sol\":1250:1424  if( msg.sender == player[0].addr ){... */\n      tag_129\n      jumpi\n        /* \"RWAPSSF.sol\":1310:1311  0 */\n      0x00\n        /* \"RWAPSSF.sol\":1303:1311  return 0 */\n      swap1\n      pop\n      jump(tag_121)\n        /* \"RWAPSSF.sol\":1250:1424  if( msg.sender == player[0].addr ){... */\n    tag_129:\n        /* \"RWAPSSF.sol\":1364:1370  player */\n      0x02\n        /* \"RWAPSSF.sol\":1364:1373  player[1] */\n      0x00\n        /* \"RWAPSSF.sol\":1371:1372  1 */\n      0x01\n        /* \"RWAPSSF.sol\":1364:1373  player[1] */\n      dup2\n      mstore\n      0x20\n      add\n      swap1\n      dup2\n      mstore\n      0x20\n      add\n      0x00\n      keccak256\n        /* \"RWAPSSF.sol\":1364:1378  player[1].addr */\n      0x01\n      add\n      0x00\n      swap1\n      sload\n      swap1\n      0x0100\n      exp\n      swap1\n      div\n      0xffffffffffffffffffffffffffffffffffffffff\n      and\n        /* \"RWAPSSF.sol\":1350:1378  msg.sender == player[1].addr */\n      0xffffffffffffffffffffffffffffffffffffffff\n      and\n        /* \"RWAPSSF.sol\":1350:1360  msg.sender */\n      caller\n        /* \"RWAPSSF.sol\":1350:1378  msg.sender == player[1].addr */\n      0xffffffffffffffffffffffffffffffffffffffff\n      and\n      sub\n        /* \"RWAPSSF.sol\":1346:1424  if( msg.sender == player[1].addr ){... */\n      tag_131\n      jumpi\n        /* \"RWAPSSF.sol\":1406:1407  1 */\n      0x01\n        /* \"RWAPSSF.sol\":1399:1407  return 1 */\n      swap1\n      pop\n      jump(tag_121)\n        /* \"RWAPSSF.sol\":1346:1424  if( msg.sender == player[1].addr ){... */\n    tag_131:\n        /* \"RWAPSSF.sol\":1129:1435  if( numPlayer == 2 ){... */\n    tag_126:\n        /* \"RWAPSSF.sol\":1445:1468  revert(\"Invalid state\") */\n      mload(0x40)\n      0x08c379a000000000000000000000000000000000000000000000000000000000\n      dup2\n      mstore\n      0x04\n      add\n      tag_132\n      swap1\n      tag_133\n      jump\t// in\n    tag_132:\n      mload(0x40)\n      dup1\n      swap2\n      sub\n      swap1\n      revert\n        /* \"RWAPSSF.sol\":906:1476  function getPlayerIdx() public view returns ( uint ) {... */\n    tag_121:\n      swap1\n      jump\t// out\n        /* \"RWAPSSF.sol\":3744:5611  function refund() public {... */\n    tag_59:\n        /* \"RWAPSSF.sol\":582:591  5 minutes */\n      0x012c\n        /* \"RWAPSSF.sol\":3817:3833  latestActionTime */\n      sload(0x07)\n        /* \"RWAPSSF.sol\":3799:3814  block.timestamp */\n      timestamp\n        /* \"RWAPSSF.sol\":3799:3833  block.timestamp - latestActionTime */\n      tag_135\n      swap2\n      swap1\n      tag_136\n      jump\t// in\n    tag_135:\n        /* \"RWAPSSF.sol\":3799:3845  block.timestamp - latestActionTime > IDLE_TIME */\n      gt\n        /* \"RWAPSSF.sol\":3790:3847  require( block.timestamp - latestActionTime > IDLE_TIME ) */\n      tag_137\n      jumpi\n      0x00\n      dup1\n      revert\n    tag_137:\n        /* \"RWAPSSF.sol\":3898:3899  0 */\n      0x00\n        /* \"RWAPSSF.sol\":3886:3895  numPlayer */\n      sload(0x03)\n        /* \"RWAPSSF.sol\":3886:3899  numPlayer > 0 */\n      gt\n        /* \"RWAPSSF.sol\":3877:3901  require( numPlayer > 0 ) */\n      tag_138\n      jumpi\n      0x00\n      dup1\n      revert\n    tag_138:\n        /* \"RWAPSSF.sol\":3994:3995  1 */\n      0x01\n        /* \"RWAPSSF.sol\":3981:3990  numPlayer */\n      sload(0x03)\n        /* \"RWAPSSF.sol\":3981:3995  numPlayer == 1 */\n      sub\n        /* \"RWAPSSF.sol\":3977:5602  if( numPlayer == 1 ) {... */\n      tag_139\n      jumpi\n        /* \"RWAPSSF.sol\":4036:4042  player */\n      0x02\n        /* \"RWAPSSF.sol\":4036:4045  player[0] */\n      0x00\n        /* \"RWAPSSF.sol\":4043:4044  0 */\n      dup1\n        /* \"RWAPSSF.sol\":4036:4045  player[0] */\n      dup2\n      mstore\n      0x20\n      add\n      swap1\n      dup2\n      mstore\n      0x20\n      add\n      0x00\n      keccak256\n        /* \"RWAPSSF.sol\":4036:4050  player[0].addr */\n      0x01\n      add\n      0x00\n      swap1\n      sload\n      swap1\n      0x0100\n      exp\n      swap1\n      div\n      0xffffffffffffffffffffffffffffffffffffffff\n      and\n        /* \"RWAPSSF.sol\":4022:4050  msg.sender == player[0].addr */\n      0xffffffffffffffffffffffffffffffffffffffff\n      and\n        /* \"RWAPSSF.sol\":4022:4032  msg.sender */\n      caller\n        /* \"RWAPSSF.sol\":4022:4050  msg.sender == player[0].addr */\n      0xffffffffffffffffffffffffffffffffffffffff\n      and\n      eq\n        /* \"RWAPSSF.sol\":4013:4052  require( msg.sender == player[0].addr ) */\n      tag_140\n      jumpi\n      0x00\n      dup1\n      revert\n    tag_140:\n        /* \"RWAPSSF.sol\":4112:4135  address payable account */\n      0x00\n        /* \"RWAPSSF.sol\":4147:4153  player */\n      0x02\n        /* \"RWAPSSF.sol\":4147:4156  player[0] */\n      0x00\n        /* \"RWAPSSF.sol\":4154:4155  0 */\n      dup1\n        /* \"RWAPSSF.sol\":4147:4156  player[0] */\n      dup2\n      mstore\n      0x20\n      add\n      swap1\n      dup2\n      mstore\n      0x20\n      add\n      0x00\n      keccak256\n        /* \"RWAPSSF.sol\":4147:4161  player[0].addr */\n      0x01\n      add\n      0x00\n      swap1\n      sload\n      swap1\n      0x0100\n      exp\n      swap1\n      div\n      0xffffffffffffffffffffffffffffffffffffffff\n      and\n        /* \"RWAPSSF.sol\":4112:4163  address payable account = payable( player[0].addr ) */\n      swap1\n      pop\n        /* \"RWAPSSF.sol\":4178:4185  account */\n      dup1\n        /* \"RWAPSSF.sol\":4178:4194  account.transfer */\n      0xffffffffffffffffffffffffffffffffffffffff\n      and\n        /* \"RWAPSSF.sol\":4178:4204  account.transfer( reward ) */\n      0x08fc\n        /* \"RWAPSSF.sol\":4196:4202  reward */\n      sload(0x04)\n        /* \"RWAPSSF.sol\":4178:4204  account.transfer( reward ) */\n      swap1\n      dup2\n      iszero\n      mul\n      swap1\n      mload(0x40)\n      0x00\n      mload(0x40)\n      dup1\n      dup4\n      sub\n      dup2\n      dup6\n      dup9\n      dup9\n      call\n      swap4\n      pop\n      pop\n      pop\n      pop\n      iszero\n      dup1\n      iszero\n      tag_142\n      jumpi\n      returndatasize\n      0x00\n      dup1\n      returndatacopy\n      revert(0x00, returndatasize)\n    tag_142:\n      pop\n        /* \"RWAPSSF.sol\":4219:4231  _resetGame() */\n      tag_143\n        /* \"RWAPSSF.sol\":4219:4229  _resetGame */\n      tag_144\n        /* \"RWAPSSF.sol\":4219:4231  _resetGame() */\n      jump\t// in\n    tag_143:\n        /* \"RWAPSSF.sol\":3998:4243  {... */\n      pop\n        /* \"RWAPSSF.sol\":3977:5602  if( numPlayer == 1 ) {... */\n      jump(tag_145)\n    tag_139:\n        /* \"RWAPSSF.sol\":4275:4276  2 */\n      0x02\n        /* \"RWAPSSF.sol\":4262:4271  numPlayer */\n      sload(0x03)\n        /* \"RWAPSSF.sol\":4262:4276  numPlayer == 2 */\n      sub\n        /* \"RWAPSSF.sol\":4258:5602  if( numPlayer == 2 ){... */\n      tag_146\n      jumpi\n        /* \"RWAPSSF.sol\":4316:4322  player */\n      0x02\n        /* \"RWAPSSF.sol\":4316:4325  player[0] */\n      0x00\n        /* \"RWAPSSF.sol\":4323:4324  0 */\n      dup1\n        /* \"RWAPSSF.sol\":4316:4325  player[0] */\n      dup2\n      mstore\n      0x20\n      add\n      swap1\n      dup2\n      mstore\n      0x20\n      add\n      0x00\n      keccak256\n        /* \"RWAPSSF.sol\":4316:4330  player[0].addr */\n      0x01\n      add\n      0x00\n      swap1\n      sload\n      swap1\n      0x0100\n      exp\n      swap1\n      div\n      0xffffffffffffffffffffffffffffffffffffffff\n      and\n        /* \"RWAPSSF.sol\":4302:4330  msg.sender == player[0].addr */\n      0xffffffffffffffffffffffffffffffffffffffff\n      and\n        /* \"RWAPSSF.sol\":4302:4312  msg.sender */\n      caller\n        /* \"RWAPSSF.sol\":4302:4330  msg.sender == player[0].addr */\n      0xffffffffffffffffffffffffffffffffffffffff\n      and\n      eq\n        /* \"RWAPSSF.sol\":4302:4362  msg.sender == player[0].addr || msg.sender == player[1].addr */\n      dup1\n      tag_147\n      jumpi\n      pop\n        /* \"RWAPSSF.sol\":4348:4354  player */\n      0x02\n        /* \"RWAPSSF.sol\":4348:4357  player[1] */\n      0x00\n        /* \"RWAPSSF.sol\":4355:4356  1 */\n      0x01\n        /* \"RWAPSSF.sol\":4348:4357  player[1] */\n      dup2\n      mstore\n      0x20\n      add\n      swap1\n      dup2\n      mstore\n      0x20\n      add\n      0x00\n      keccak256\n        /* \"RWAPSSF.sol\":4348:4362  player[1].addr */\n      0x01\n      add\n      0x00\n      swap1\n      sload\n      swap1\n      0x0100\n      exp\n      swap1\n      div\n      0xffffffffffffffffffffffffffffffffffffffff\n      and\n        /* \"RWAPSSF.sol\":4334:4362  msg.sender == player[1].addr */\n      0xffffffffffffffffffffffffffffffffffffffff\n      and\n        /* \"RWAPSSF.sol\":4334:4344  msg.sender */\n      caller\n        /* \"RWAPSSF.sol\":4334:4362  msg.sender == player[1].addr */\n      0xffffffffffffffffffffffffffffffffffffffff\n      and\n      eq\n        /* \"RWAPSSF.sol\":4302:4362  msg.sender == player[0].addr || msg.sender == player[1].addr */\n    tag_147:\n        /* \"RWAPSSF.sol\":4293:4364  require( msg.sender == player[0].addr || msg.sender == player[1].addr ) */\n      tag_148\n      jumpi\n      0x00\n      dup1\n      revert\n    tag_148:\n        /* \"RWAPSSF.sol\":4484:4485  0 */\n      0x00\n        /* \"RWAPSSF.sol\":4472:4480  numInput */\n      sload(0x05)\n        /* \"RWAPSSF.sol\":4472:4485  numInput == 0 */\n      sub\n        /* \"RWAPSSF.sol\":4468:5591  if( numInput == 0 ){... */\n      tag_149\n      jumpi\n        /* \"RWAPSSF.sol\":4545:4569  address payable account0 */\n      0x00\n        /* \"RWAPSSF.sol\":4581:4587  player */\n      0x02\n        /* \"RWAPSSF.sol\":4581:4590  player[0] */\n      0x00\n        /* \"RWAPSSF.sol\":4588:4589  0 */\n      dup1\n        /* \"RWAPSSF.sol\":4581:4590  player[0] */\n      dup2\n      mstore\n      0x20\n      add\n      swap1\n      dup2\n      mstore\n      0x20\n      add\n      0x00\n      keccak256\n        /* \"RWAPSSF.sol\":4581:4595  player[0].addr */\n      0x01\n      add\n      0x00\n      swap1\n      sload\n      swap1\n      0x0100\n      exp\n      swap1\n      div\n      0xffffffffffffffffffffffffffffffffffffffff\n      and\n        /* \"RWAPSSF.sol\":4545:4597  address payable account0 = payable( player[0].addr ) */\n      swap1\n      pop\n        /* \"RWAPSSF.sol\":4616:4640  address payable account1 */\n      0x00\n        /* \"RWAPSSF.sol\":4652:4658  player */\n      0x02\n        /* \"RWAPSSF.sol\":4652:4661  player[1] */\n      0x00\n        /* \"RWAPSSF.sol\":4659:4660  1 */\n      0x01\n        /* \"RWAPSSF.sol\":4652:4661  player[1] */\n      dup2\n      mstore\n      0x20\n      add\n      swap1\n      dup2\n      mstore\n      0x20\n      add\n      0x00\n      keccak256\n        /* \"RWAPSSF.sol\":4652:4666  player[1].addr */\n      0x01\n      add\n      0x00\n      swap1\n      sload\n      swap1\n      0x0100\n      exp\n      swap1\n      div\n      0xffffffffffffffffffffffffffffffffffffffff\n      and\n        /* \"RWAPSSF.sol\":4616:4668  address payable account1 = payable( player[1].addr ) */\n      swap1\n      pop\n        /* \"RWAPSSF.sol\":4687:4695  account0 */\n      dup2\n        /* \"RWAPSSF.sol\":4687:4704  account0.transfer */\n      0xffffffffffffffffffffffffffffffffffffffff\n      and\n        /* \"RWAPSSF.sol\":4687:4718  account0.transfer( reward / 2 ) */\n      0x08fc\n        /* \"RWAPSSF.sol\":4715:4716  2 */\n      0x02\n        /* \"RWAPSSF.sol\":4706:4712  reward */\n      sload(0x04)\n        /* \"RWAPSSF.sol\":4706:4716  reward / 2 */\n      tag_150\n      swap2\n      swap1\n      tag_151\n      jump\t// in\n    tag_150:\n        /* \"RWAPSSF.sol\":4687:4718  account0.transfer( reward / 2 ) */\n      swap1\n      dup2\n      iszero\n      mul\n      swap1\n      mload(0x40)\n      0x00\n      mload(0x40)\n      dup1\n      dup4\n      sub\n      dup2\n      dup6\n      dup9\n      dup9\n      call\n      swap4\n      pop\n      pop\n      pop\n      pop\n      iszero\n      dup1\n      iszero\n      tag_153\n      jumpi\n      returndatasize\n      0x00\n      dup1\n      returndatacopy\n      revert(0x00, returndatasize)\n    tag_153:\n      pop\n        /* \"RWAPSSF.sol\":4737:4745  account1 */\n      dup1\n        /* \"RWAPSSF.sol\":4737:4754  account1.transfer */\n      0xffffffffffffffffffffffffffffffffffffffff\n      and\n        /* \"RWAPSSF.sol\":4737:4768  account1.transfer( reward / 2 ) */\n      0x08fc\n        /* \"RWAPSSF.sol\":4765:4766  2 */\n      0x02\n        /* \"RWAPSSF.sol\":4756:4762  reward */\n      sload(0x04)\n        /* \"RWAPSSF.sol\":4756:4766  reward / 2 */\n      tag_154\n      swap2\n      swap1\n      tag_151\n      jump\t// in\n    tag_154:\n        /* \"RWAPSSF.sol\":4737:4768  account1.transfer( reward / 2 ) */\n      swap1\n      dup2\n      iszero\n      mul\n      swap1\n      mload(0x40)\n      0x00\n      mload(0x40)\n      dup1\n      dup4\n      sub\n      dup2\n      dup6\n      dup9\n      dup9\n      call\n      swap4\n      pop\n      pop\n      pop\n      pop\n      iszero\n      dup1\n      iszero\n      tag_156\n      jumpi\n      returndatasize\n      0x00\n      dup1\n      returndatacopy\n      revert(0x00, returndatasize)\n    tag_156:\n      pop\n        /* \"RWAPSSF.sol\":4787:4799  _resetGame() */\n      tag_157\n        /* \"RWAPSSF.sol\":4787:4797  _resetGame */\n      tag_144\n        /* \"RWAPSSF.sol\":4787:4799  _resetGame() */\n      jump\t// in\n    tag_157:\n        /* \"RWAPSSF.sol\":4487:4815  {... */\n      pop\n      pop\n        /* \"RWAPSSF.sol\":4468:5591  if( numInput == 0 ){... */\n      jump(tag_158)\n    tag_149:\n        /* \"RWAPSSF.sol\":4913:4914  1 */\n      0x01\n        /* \"RWAPSSF.sol\":4901:4909  numInput */\n      sload(0x05)\n        /* \"RWAPSSF.sol\":4901:4914  numInput == 1 */\n      sub\n        /* \"RWAPSSF.sol\":4897:5591  if( numInput == 1 ){... */\n      tag_159\n      jumpi\n        /* \"RWAPSSF.sol\":5021:5022  7 */\n      0x07\n        /* \"RWAPSSF.sol\":5001:5007  player */\n      0x02\n        /* \"RWAPSSF.sol\":5001:5010  player[0] */\n      0x00\n        /* \"RWAPSSF.sol\":5008:5009  0 */\n      dup1\n        /* \"RWAPSSF.sol\":5001:5010  player[0] */\n      dup2\n      mstore\n      0x20\n      add\n      swap1\n      dup2\n      mstore\n      0x20\n      add\n      0x00\n      keccak256\n        /* \"RWAPSSF.sol\":5001:5017  player[0].choice */\n      0x00\n      add\n      sload\n        /* \"RWAPSSF.sol\":5001:5022  player[0].choice == 7 */\n      sub\n        /* \"RWAPSSF.sol\":4997:5545  if( player[0].choice == 7 ){... */\n      tag_160\n      jumpi\n        /* \"RWAPSSF.sol\":5110:5133  address payable account */\n      0x00\n        /* \"RWAPSSF.sol\":5145:5151  player */\n      0x02\n        /* \"RWAPSSF.sol\":5145:5154  player[1] */\n      0x00\n        /* \"RWAPSSF.sol\":5152:5153  1 */\n      0x01\n        /* \"RWAPSSF.sol\":5145:5154  player[1] */\n      dup2\n      mstore\n      0x20\n      add\n      swap1\n      dup2\n      mstore\n      0x20\n      add\n      0x00\n      keccak256\n        /* \"RWAPSSF.sol\":5145:5159  player[1].addr */\n      0x01\n      add\n      0x00\n      swap1\n      sload\n      swap1\n      0x0100\n      exp\n      swap1\n      div\n      0xffffffffffffffffffffffffffffffffffffffff\n      and\n        /* \"RWAPSSF.sol\":5110:5161  address payable account = payable( player[1].addr ) */\n      swap1\n      pop\n        /* \"RWAPSSF.sol\":5184:5191  account */\n      dup1\n        /* \"RWAPSSF.sol\":5184:5200  account.transfer */\n      0xffffffffffffffffffffffffffffffffffffffff\n      and\n        /* \"RWAPSSF.sol\":5184:5210  account.transfer( reward ) */\n      0x08fc\n        /* \"RWAPSSF.sol\":5202:5208  reward */\n      sload(0x04)\n        /* \"RWAPSSF.sol\":5184:5210  account.transfer( reward ) */\n      swap1\n      dup2\n      iszero\n      mul\n      swap1\n      mload(0x40)\n      0x00\n      mload(0x40)\n      dup1\n      dup4\n      sub\n      dup2\n      dup6\n      dup9\n      dup9\n      call\n      swap4\n      pop\n      pop\n      pop\n      pop\n      iszero\n      dup1\n      iszero\n      tag_162\n      jumpi\n      returndatasize\n      0x00\n      dup1\n      returndatacopy\n      revert(0x00, returndatasize)\n    tag_162:\n      pop\n        /* \"RWAPSSF.sol\":5024:5230  {... */\n      pop\n        /* \"RWAPSSF.sol\":4997:5545  if( player[0].choice == 7 ){... */\n      jump(tag_163)\n    tag_160:\n        /* \"RWAPSSF.sol\":5337:5338  7 */\n      0x07\n        /* \"RWAPSSF.sol\":5317:5323  player */\n      0x02\n        /* \"RWAPSSF.sol\":5317:5326  player[1] */\n      0x00\n        /* \"RWAPSSF.sol\":5324:5325  1 */\n      0x01\n        /* \"RWAPSSF.sol\":5317:5326  player[1] */\n      dup2\n      mstore\n      0x20\n      add\n      swap1\n      dup2\n      mstore\n      0x20\n      add\n      0x00\n      keccak256\n        /* \"RWAPSSF.sol\":5317:5333  player[1].choice */\n      0x00\n      add\n      sload\n        /* \"RWAPSSF.sol\":5317:5338  player[1].choice == 7 */\n      sub\n        /* \"RWAPSSF.sol\":5313:5545  if( player[1].choice == 7 ){... */\n      tag_164\n      jumpi\n        /* \"RWAPSSF.sol\":5425:5448  address payable account */\n      0x00\n        /* \"RWAPSSF.sol\":5460:5466  player */\n      0x02\n        /* \"RWAPSSF.sol\":5460:5469  player[0] */\n      0x00\n        /* \"RWAPSSF.sol\":5467:5468  0 */\n      dup1\n        /* \"RWAPSSF.sol\":5460:5469  player[0] */\n      dup2\n      mstore\n      0x20\n      add\n      swap1\n      dup2\n      mstore\n      0x20\n      add\n      0x00\n      keccak256\n        /* \"RWAPSSF.sol\":5460:5474  player[0].addr */\n      0x01\n      add\n      0x00\n      swap1\n      sload\n      swap1\n      0x0100\n      exp\n      swap1\n      div\n      0xffffffffffffffffffffffffffffffffffffffff\n      and\n        /* \"RWAPSSF.sol\":5425:5476  address payable account = payable( player[0].addr ) */\n      swap1\n      pop\n        /* \"RWAPSSF.sol\":5499:5506  account */\n      dup1\n        /* \"RWAPSSF.sol\":5499:5515  account.transfer */\n      0xffffffffffffffffffffffffffffffffffffffff\n      and\n        /* \"RWAPSSF.sol\":5499:5525  account.transfer( reward ) */\n      0x08fc\n        /* \"RWAPSSF.sol\":5517:5523  reward */\n      sload(0x04)\n        /* \"RWAPSSF.sol\":5499:5525  account.transfer( reward ) */\n      swap1\n      dup2\n      iszero\n      mul\n      swap1\n      mload(0x40)\n      0x00\n      mload(0x40)\n      dup1\n      dup4\n      sub\n      dup2\n      dup6\n      dup9\n      dup9\n      call\n      swap4\n      pop\n      pop\n      pop\n      pop\n      iszero\n      dup1\n      iszero\n      tag_166\n      jumpi\n      returndatasize\n      0x00\n      dup1\n      returndatacopy\n      revert(0x00, returndatasize)\n    tag_166:\n      pop\n        /* \"RWAPSSF.sol\":5340:5545  {... */\n      pop\n        /* \"RWAPSSF.sol\":5313:5545  if( player[1].choice == 7 ){... */\n    tag_164:\n        /* \"RWAPSSF.sol\":4997:5545  if( player[0].choice == 7 ){... */\n    tag_163:\n        /* \"RWAPSSF.sol\":5563:5575  _resetGame() */\n      tag_167\n        /* \"RWAPSSF.sol\":5563:5573  _resetGame */\n      tag_144\n        /* \"RWAPSSF.sol\":5563:5575  _resetGame() */\n      jump\t// in\n    tag_167:\n        /* \"RWAPSSF.sol\":4897:5591  if( numInput == 1 ){... */\n    tag_159:\n        /* \"RWAPSSF.sol\":4468:5591  if( numInput == 0 ){... */\n    tag_158:\n        /* \"RWAPSSF.sol\":4258:5602  if( numPlayer == 2 ){... */\n    tag_146:\n        /* \"RWAPSSF.sol\":3977:5602  if( numPlayer == 1 ) {... */\n    tag_145:\n        /* \"RWAPSSF.sol\":3744:5611  function refund() public {... */\n      jump\t// out\n        /* \"RWAPSSF.sol\":1791:2069  function inputHashChoice( bytes32 hashedChoice, uint idx ) public {... */\n    tag_64:\n        /* \"RWAPSSF.sol\":1890:1891  2 */\n      0x02\n        /* \"RWAPSSF.sol\":1877:1886  numPlayer */\n      sload(0x03)\n        /* \"RWAPSSF.sol\":1877:1891  numPlayer == 2 */\n      eq\n        /* \"RWAPSSF.sol\":1868:1893  require( numPlayer == 2 ) */\n      tag_169\n      jumpi\n      0x00\n      dup1\n      revert\n    tag_169:\n        /* \"RWAPSSF.sol\":1927:1933  player */\n      0x02\n        /* \"RWAPSSF.sol\":1927:1938  player[idx] */\n      0x00\n        /* \"RWAPSSF.sol\":1934:1937  idx */\n      dup3\n        /* \"RWAPSSF.sol\":1927:1938  player[idx] */\n      dup2\n      mstore\n      0x20\n      add\n      swap1\n      dup2\n      mstore\n      0x20\n      add\n      0x00\n      keccak256\n        /* \"RWAPSSF.sol\":1927:1943  player[idx].addr */\n      0x01\n      add\n      0x00\n      swap1\n      sload\n      swap1\n      0x0100\n      exp\n      swap1\n      div\n      0xffffffffffffffffffffffffffffffffffffffff\n      and\n        /* \"RWAPSSF.sol\":1913:1943  msg.sender == player[idx].addr */\n      0xffffffffffffffffffffffffffffffffffffffff\n      and\n        /* \"RWAPSSF.sol\":1913:1923  msg.sender */\n      caller\n        /* \"RWAPSSF.sol\":1913:1943  msg.sender == player[idx].addr */\n      0xffffffffffffffffffffffffffffffffffffffff\n      and\n      eq\n        /* \"RWAPSSF.sol\":1904:1945  require( msg.sender == player[idx].addr ) */\n      tag_170\n      jumpi\n      0x00\n      dup1\n      revert\n    tag_170:\n        /* \"RWAPSSF.sol\":1956:1989  commit( getHash( hashedChoice ) ) */\n      tag_171\n        /* \"RWAPSSF.sol\":1964:1987  getHash( hashedChoice ) */\n      tag_172\n        /* \"RWAPSSF.sol\":1973:1985  hashedChoice */\n      dup4\n        /* \"RWAPSSF.sol\":1964:1971  getHash */\n      tag_51\n        /* \"RWAPSSF.sol\":1964:1987  getHash( hashedChoice ) */\n      jump\t// in\n    tag_172:\n        /* \"RWAPSSF.sol\":1956:1962  commit */\n      tag_173\n        /* \"RWAPSSF.sol\":1956:1989  commit( getHash( hashedChoice ) ) */\n      jump\t// in\n    tag_171:\n        /* \"RWAPSSF.sol\":2000:2014  numHashedInput */\n      0x06\n      0x00\n        /* \"RWAPSSF.sol\":2000:2016  numHashedInput++ */\n      dup2\n      sload\n      dup1\n      swap3\n      swap2\n      swap1\n      tag_174\n      swap1\n      tag_108\n      jump\t// in\n    tag_174:\n      swap2\n      swap1\n      pop\n      sstore\n      pop\n        /* \"RWAPSSF.sol\":2046:2061  block.timestamp */\n      timestamp\n        /* \"RWAPSSF.sol\":2027:2043  latestActionTime */\n      0x07\n        /* \"RWAPSSF.sol\":2027:2061  latestActionTime = block.timestamp */\n      dup2\n      swap1\n      sstore\n      pop\n        /* \"RWAPSSF.sol\":1791:2069  function inputHashChoice( bytes32 hashedChoice, uint idx ) public {... */\n      pop\n      pop\n      jump\t// out\n        /* \"RWAPSSF.sol\":496:542  uint public latestActionTime = block.timestamp */\n    tag_67:\n      sload(0x07)\n      dup2\n      jump\t// out\n        /* \"CommitReveal.sol\":2530:2680  function getSaltedHash(bytes32 data,bytes32 salt) public view returns(bytes32){... */\n    tag_73:\n        /* \"CommitReveal.sol\":2600:2607  bytes32 */\n      0x00\n        /* \"CommitReveal.sol\":2656:2660  this */\n      address\n        /* \"CommitReveal.sol\":2663:2667  data */\n      dup4\n        /* \"CommitReveal.sol\":2669:2673  salt */\n      dup4\n        /* \"CommitReveal.sol\":2631:2674  abi.encodePacked(address(this), data, salt) */\n      add(0x20, mload(0x40))\n      tag_176\n      swap4\n      swap3\n      swap2\n      swap1\n      tag_177\n      jump\t// in\n    tag_176:\n      mload(0x40)\n      0x20\n      dup2\n      dup4\n      sub\n      sub\n      dup2\n      mstore\n      swap1\n      0x40\n      mstore\n        /* \"CommitReveal.sol\":2621:2675  keccak256(abi.encodePacked(address(this), data, salt)) */\n      dup1\n      mload\n      swap1\n      0x20\n      add\n      keccak256\n        /* \"CommitReveal.sol\":2614:2675  return keccak256(abi.encodePacked(address(this), data, salt)) */\n      swap1\n      pop\n        /* \"CommitReveal.sol\":2530:2680  function getSaltedHash(bytes32 data,bytes32 salt) public view returns(bytes32){... */\n      swap3\n      swap2\n      pop\n      pop\n      jump\t// out\n        /* \"RWAPSSF.sol\":361:386  uint public numPlayer = 0 */\n    tag_77:\n      sload(0x03)\n      dup2\n      jump\t// out\n        /* \"RWAPSSF.sol\":316:354  mapping (uint => Player) public player */\n    tag_83:\n      mstore(0x20, 0x02)\n      dup1\n      0x00\n      mstore\n      keccak256(0x00, 0x40)\n      0x00\n      swap2\n      pop\n      swap1\n      pop\n      dup1\n      0x00\n      add\n      sload\n      swap1\n      dup1\n      0x01\n      add\n      0x00\n      swap1\n      sload\n      swap1\n      0x0100\n      exp\n      swap1\n      div\n      0xffffffffffffffffffffffffffffffffffffffff\n      and\n      swap1\n      pop\n      dup3\n      jump\t// out\n        /* \"RWAPSSF.sol\":453:483  uint public numHashedInput = 0 */\n    tag_88:\n      sload(0x06)\n      dup2\n      jump\t// out\n        /* \"CommitReveal.sol\":600:1751  function reveal(bytes32 revealHash) internal {... */\n    tag_106:\n        /* \"CommitReveal.sol\":756:761  false */\n      0x00\n        /* \"CommitReveal.sol\":726:761  commits[msg.sender].revealed==false */\n      iszero\n      iszero\n        /* \"CommitReveal.sol\":726:733  commits */\n      0x01\n        /* \"CommitReveal.sol\":726:745  commits[msg.sender] */\n      0x00\n        /* \"CommitReveal.sol\":734:744  msg.sender */\n      caller\n        /* \"CommitReveal.sol\":726:745  commits[msg.sender] */\n      0xffffffffffffffffffffffffffffffffffffffff\n      and\n      0xffffffffffffffffffffffffffffffffffffffff\n      and\n      dup2\n      mstore\n      0x20\n      add\n      swap1\n      dup2\n      mstore\n      0x20\n      add\n      0x00\n      keccak256\n        /* \"CommitReveal.sol\":726:754  commits[msg.sender].revealed */\n      0x01\n      add\n      0x08\n      swap1\n      sload\n      swap1\n      0x0100\n      exp\n      swap1\n      div\n      0xff\n      and\n        /* \"CommitReveal.sol\":726:761  commits[msg.sender].revealed==false */\n      iszero\n      iszero\n      eq\n        /* \"CommitReveal.sol\":718:803  require(commits[msg.sender].revealed==false,\"CommitReveal::reveal: Already revealed\") */\n      tag_179\n      jumpi\n      mload(0x40)\n      0x08c379a000000000000000000000000000000000000000000000000000000000\n      dup2\n      mstore\n      0x04\n      add\n      tag_180\n      swap1\n      tag_181\n      jump\t// in\n    tag_180:\n      mload(0x40)\n      dup1\n      swap2\n      sub\n      swap1\n      revert\n    tag_179:\n        /* \"CommitReveal.sol\":838:842  true */\n      0x01\n        /* \"CommitReveal.sol\":809:816  commits */\n      dup1\n        /* \"CommitReveal.sol\":809:828  commits[msg.sender] */\n      0x00\n        /* \"CommitReveal.sol\":817:827  msg.sender */\n      caller\n        /* \"CommitReveal.sol\":809:828  commits[msg.sender] */\n      0xffffffffffffffffffffffffffffffffffffffff\n      and\n      0xffffffffffffffffffffffffffffffffffffffff\n      and\n      dup2\n      mstore\n      0x20\n      add\n      swap1\n      dup2\n      mstore\n      0x20\n      add\n      0x00\n      keccak256\n        /* \"CommitReveal.sol\":809:837  commits[msg.sender].revealed */\n      0x01\n      add\n      0x08\n        /* \"CommitReveal.sol\":809:842  commits[msg.sender].revealed=true */\n      0x0100\n      exp\n      dup2\n      sload\n      dup2\n      0xff\n      mul\n      not\n      and\n      swap1\n      dup4\n      iszero\n      iszero\n      mul\n      or\n      swap1\n      sstore\n      pop\n        /* \"CommitReveal.sol\":932:939  commits */\n      0x01\n        /* \"CommitReveal.sol\":932:951  commits[msg.sender] */\n      0x00\n        /* \"CommitReveal.sol\":940:950  msg.sender */\n      caller\n        /* \"CommitReveal.sol\":932:951  commits[msg.sender] */\n      0xffffffffffffffffffffffffffffffffffffffff\n      and\n      0xffffffffffffffffffffffffffffffffffffffff\n      and\n      dup2\n      mstore\n      0x20\n      add\n      swap1\n      dup2\n      mstore\n      0x20\n      add\n      0x00\n      keccak256\n        /* \"CommitReveal.sol\":932:958  commits[msg.sender].commit */\n      0x00\n      add\n      sload\n        /* \"CommitReveal.sol\":911:930  getHash(revealHash) */\n      tag_182\n        /* \"CommitReveal.sol\":919:929  revealHash */\n      dup3\n        /* \"CommitReveal.sol\":911:918  getHash */\n      tag_51\n        /* \"CommitReveal.sol\":911:930  getHash(revealHash) */\n      jump\t// in\n    tag_182:\n        /* \"CommitReveal.sol\":911:958  getHash(revealHash)==commits[msg.sender].commit */\n      eq\n        /* \"CommitReveal.sol\":903:1019  require(getHash(revealHash)==commits[msg.sender].commit,\"CommitReveal::reveal: Revealed hash does not match commit\") */\n      tag_183\n      jumpi\n      mload(0x40)\n      0x08c379a000000000000000000000000000000000000000000000000000000000\n      dup2\n      mstore\n      0x04\n      add\n      tag_184\n      swap1\n      tag_185\n      jump\t// in\n    tag_184:\n      mload(0x40)\n      dup1\n      swap2\n      sub\n      swap1\n      revert\n    tag_183:\n        /* \"CommitReveal.sol\":1125:1132  commits */\n      0x01\n        /* \"CommitReveal.sol\":1125:1144  commits[msg.sender] */\n      0x00\n        /* \"CommitReveal.sol\":1133:1143  msg.sender */\n      caller\n        /* \"CommitReveal.sol\":1125:1144  commits[msg.sender] */\n      0xffffffffffffffffffffffffffffffffffffffff\n      and\n      0xffffffffffffffffffffffffffffffffffffffff\n      and\n      dup2\n      mstore\n      0x20\n      add\n      swap1\n      dup2\n      mstore\n      0x20\n      add\n      0x00\n      keccak256\n        /* \"CommitReveal.sol\":1125:1150  commits[msg.sender].block */\n      0x01\n      add\n      0x00\n      swap1\n      sload\n      swap1\n      0x0100\n      exp\n      swap1\n      div\n      0xffffffffffffffff\n      and\n        /* \"CommitReveal.sol\":1104:1150  uint64(block.number)>commits[msg.sender].block */\n      0xffffffffffffffff\n      and\n        /* \"CommitReveal.sol\":1111:1123  block.number */\n      number\n        /* \"CommitReveal.sol\":1104:1150  uint64(block.number)>commits[msg.sender].block */\n      0xffffffffffffffff\n      and\n      gt\n        /* \"CommitReveal.sol\":1096:1220  require(uint64(block.number)>commits[msg.sender].block,\"CommitReveal::reveal: Reveal and commit happened on the same block\") */\n      tag_186\n      jumpi\n      mload(0x40)\n      0x08c379a000000000000000000000000000000000000000000000000000000000\n      dup2\n      mstore\n      0x04\n      add\n      tag_187\n      swap1\n      tag_188\n      jump\t// in\n    tag_187:\n      mload(0x40)\n      dup1\n      swap2\n      sub\n      swap1\n      revert\n    tag_186:\n        /* \"CommitReveal.sol\":1337:1340  250 */\n      0xfa\n        /* \"CommitReveal.sol\":1311:1318  commits */\n      0x01\n        /* \"CommitReveal.sol\":1311:1330  commits[msg.sender] */\n      0x00\n        /* \"CommitReveal.sol\":1319:1329  msg.sender */\n      caller\n        /* \"CommitReveal.sol\":1311:1330  commits[msg.sender] */\n      0xffffffffffffffffffffffffffffffffffffffff\n      and\n      0xffffffffffffffffffffffffffffffffffffffff\n      and\n      dup2\n      mstore\n      0x20\n      add\n      swap1\n      dup2\n      mstore\n      0x20\n      add\n      0x00\n      keccak256\n        /* \"CommitReveal.sol\":1311:1336  commits[msg.sender].block */\n      0x01\n      add\n      0x00\n      swap1\n      sload\n      swap1\n      0x0100\n      exp\n      swap1\n      div\n      0xffffffffffffffff\n      and\n        /* \"CommitReveal.sol\":1311:1340  commits[msg.sender].block+250 */\n      tag_189\n      swap2\n      swap1\n      tag_190\n      jump\t// in\n    tag_189:\n        /* \"CommitReveal.sol\":1289:1340  uint64(block.number)<=commits[msg.sender].block+250 */\n      0xffffffffffffffff\n      and\n        /* \"CommitReveal.sol\":1296:1308  block.number */\n      number\n        /* \"CommitReveal.sol\":1289:1340  uint64(block.number)<=commits[msg.sender].block+250 */\n      0xffffffffffffffff\n      and\n      gt\n      iszero\n        /* \"CommitReveal.sol\":1281:1383  require(uint64(block.number)<=commits[msg.sender].block+250,\"CommitReveal::reveal: Revealed too late\") */\n      tag_191\n      jumpi\n      mload(0x40)\n      0x08c379a000000000000000000000000000000000000000000000000000000000\n      dup2\n      mstore\n      0x04\n      add\n      tag_192\n      swap1\n      tag_193\n      jump\t// in\n    tag_192:\n      mload(0x40)\n      dup1\n      swap2\n      sub\n      swap1\n      revert\n    tag_191:\n        /* \"CommitReveal.sol\":1456:1473  bytes32 blockHash */\n      0x00\n        /* \"CommitReveal.sol\":1486:1493  commits */\n      0x01\n        /* \"CommitReveal.sol\":1486:1505  commits[msg.sender] */\n      0x00\n        /* \"CommitReveal.sol\":1494:1504  msg.sender */\n      caller\n        /* \"CommitReveal.sol\":1486:1505  commits[msg.sender] */\n      0xffffffffffffffffffffffffffffffffffffffff\n      and\n      0xffffffffffffffffffffffffffffffffffffffff\n      and\n      dup2\n      mstore\n      0x20\n      add\n      swap1\n      dup2\n      mstore\n      0x20\n      add\n      0x00\n      keccak256\n        /* \"CommitReveal.sol\":1486:1511  commits[msg.sender].block */\n      0x01\n      add\n      0x00\n      swap1\n      sload\n      swap1\n      0x0100\n      exp\n      swap1\n      div\n      0xffffffffffffffff\n      and\n        /* \"CommitReveal.sol\":1476:1512  blockhash(commits[msg.sender].block) */\n      0xffffffffffffffff\n      and\n      blockhash\n        /* \"CommitReveal.sol\":1456:1512  bytes32 blockHash = blockhash(commits[msg.sender].block) */\n      swap1\n      pop\n        /* \"CommitReveal.sol\":1622:1633  uint random */\n      0x00\n        /* \"CommitReveal.sol\":1692:1695  max */\n      dup1\n      0x00\n      swap1\n      sload\n      swap1\n      0x0100\n      exp\n      swap1\n      div\n      0xff\n      and\n        /* \"CommitReveal.sol\":1636:1695  uint(keccak256(abi.encodePacked(blockHash,revealHash)))%max */\n      0xff\n      and\n        /* \"CommitReveal.sol\":1668:1677  blockHash */\n      dup3\n        /* \"CommitReveal.sol\":1678:1688  revealHash */\n      dup5\n        /* \"CommitReveal.sol\":1651:1689  abi.encodePacked(blockHash,revealHash) */\n      add(0x20, mload(0x40))\n      tag_194\n      swap3\n      swap2\n      swap1\n      tag_195\n      jump\t// in\n    tag_194:\n      mload(0x40)\n      0x20\n      dup2\n      dup4\n      sub\n      sub\n      dup2\n      mstore\n      swap1\n      0x40\n      mstore\n        /* \"CommitReveal.sol\":1641:1690  keccak256(abi.encodePacked(blockHash,revealHash)) */\n      dup1\n      mload\n      swap1\n      0x20\n      add\n      keccak256\n        /* \"CommitReveal.sol\":1636:1691  uint(keccak256(abi.encodePacked(blockHash,revealHash))) */\n      0x00\n      shr\n        /* \"CommitReveal.sol\":1636:1695  uint(keccak256(abi.encodePacked(blockHash,revealHash)))%max */\n      tag_196\n      swap2\n      swap1\n      tag_197\n      jump\t// in\n    tag_196:\n        /* \"CommitReveal.sol\":1622:1695  uint random = uint(keccak256(abi.encodePacked(blockHash,revealHash)))%max */\n      swap1\n      pop\n        /* \"CommitReveal.sol\":1706:1746  RevealHash(msg.sender,revealHash,random) */\n      0xbc016dd1cadeaefcb851af7a0a93532e0023d536894b730801f7bcfe7065bcc2\n        /* \"CommitReveal.sol\":1717:1727  msg.sender */\n      caller\n        /* \"CommitReveal.sol\":1728:1738  revealHash */\n      dup5\n        /* \"CommitReveal.sol\":1739:1745  random */\n      dup4\n        /* \"CommitReveal.sol\":1706:1746  RevealHash(msg.sender,revealHash,random) */\n      mload(0x40)\n      tag_198\n      swap4\n      swap3\n      swap2\n      swap1\n      tag_199\n      jump\t// in\n    tag_198:\n      mload(0x40)\n      dup1\n      swap2\n      sub\n      swap1\n      log1\n        /* \"CommitReveal.sol\":645:1751  {... */\n      pop\n      pop\n        /* \"CommitReveal.sol\":600:1751  function reveal(bytes32 revealHash) internal {... */\n      pop\n      jump\t// out\n        /* \"RWAPSSF.sol\":2608:3443  function _checkWinnerAndPay() private {... */\n    tag_111:\n        /* \"RWAPSSF.sol\":2657:2670  uint p0Choice */\n      0x00\n        /* \"RWAPSSF.sol\":2673:2679  player */\n      0x02\n        /* \"RWAPSSF.sol\":2673:2682  player[0] */\n      0x00\n        /* \"RWAPSSF.sol\":2680:2681  0 */\n      dup1\n        /* \"RWAPSSF.sol\":2673:2682  player[0] */\n      dup2\n      mstore\n      0x20\n      add\n      swap1\n      dup2\n      mstore\n      0x20\n      add\n      0x00\n      keccak256\n        /* \"RWAPSSF.sol\":2673:2689  player[0].choice */\n      0x00\n      add\n      sload\n        /* \"RWAPSSF.sol\":2657:2689  uint p0Choice = player[0].choice */\n      swap1\n      pop\n        /* \"RWAPSSF.sol\":2700:2713  uint p1Choice */\n      0x00\n        /* \"RWAPSSF.sol\":2716:2722  player */\n      0x02\n        /* \"RWAPSSF.sol\":2716:2725  player[1] */\n      0x00\n        /* \"RWAPSSF.sol\":2723:2724  1 */\n      0x01\n        /* \"RWAPSSF.sol\":2716:2725  player[1] */\n      dup2\n      mstore\n      0x20\n      add\n      swap1\n      dup2\n      mstore\n      0x20\n      add\n      0x00\n      keccak256\n        /* \"RWAPSSF.sol\":2716:2732  player[1].choice */\n      0x00\n      add\n      sload\n        /* \"RWAPSSF.sol\":2700:2732  uint p1Choice = player[1].choice */\n      swap1\n      pop\n        /* \"RWAPSSF.sol\":2743:2767  address payable account0 */\n      0x00\n        /* \"RWAPSSF.sol\":2778:2784  player */\n      0x02\n        /* \"RWAPSSF.sol\":2778:2787  player[0] */\n      0x00\n        /* \"RWAPSSF.sol\":2785:2786  0 */\n      dup1\n        /* \"RWAPSSF.sol\":2778:2787  player[0] */\n      dup2\n      mstore\n      0x20\n      add\n      swap1\n      dup2\n      mstore\n      0x20\n      add\n      0x00\n      keccak256\n        /* \"RWAPSSF.sol\":2778:2792  player[0].addr */\n      0x01\n      add\n      0x00\n      swap1\n      sload\n      swap1\n      0x0100\n      exp\n      swap1\n      div\n      0xffffffffffffffffffffffffffffffffffffffff\n      and\n        /* \"RWAPSSF.sol\":2743:2793  address payable account0 = payable(player[0].addr) */\n      swap1\n      pop\n        /* \"RWAPSSF.sol\":2804:2828  address payable account1 */\n      0x00\n        /* \"RWAPSSF.sol\":2839:2845  player */\n      0x02\n        /* \"RWAPSSF.sol\":2839:2848  player[1] */\n      0x00\n        /* \"RWAPSSF.sol\":2846:2847  1 */\n      0x01\n        /* \"RWAPSSF.sol\":2839:2848  player[1] */\n      dup2\n      mstore\n      0x20\n      add\n      swap1\n      dup2\n      mstore\n      0x20\n      add\n      0x00\n      keccak256\n        /* \"RWAPSSF.sol\":2839:2853  player[1].addr */\n      0x01\n      add\n      0x00\n      swap1\n      sload\n      swap1\n      0x0100\n      exp\n      swap1\n      div\n      0xffffffffffffffffffffffffffffffffffffffff\n      and\n        /* \"RWAPSSF.sol\":2804:2854  address payable account1 = payable(player[1].addr) */\n      swap1\n      pop\n        /* \"RWAPSSF.sol\":2892:2900  p1Choice */\n      dup3\n        /* \"RWAPSSF.sol\":2887:2888  7 */\n      0x07\n        /* \"RWAPSSF.sol\":2882:2883  1 */\n      0x01\n        /* \"RWAPSSF.sol\":2871:2879  p0Choice */\n      dup7\n        /* \"RWAPSSF.sol\":2871:2883  p0Choice + 1 */\n      tag_201\n      swap2\n      swap1\n      tag_116\n      jump\t// in\n    tag_201:\n        /* \"RWAPSSF.sol\":2870:2888  (p0Choice + 1) % 7 */\n      tag_202\n      swap2\n      swap1\n      tag_197\n      jump\t// in\n    tag_202:\n        /* \"RWAPSSF.sol\":2870:2900  (p0Choice + 1) % 7 == p1Choice */\n      eq\n        /* \"RWAPSSF.sol\":2870:2934  (p0Choice + 1) % 7 == p1Choice || (p0Choice + 2) % 7 == p1Choice */\n      dup1\n      tag_203\n      jumpi\n      pop\n        /* \"RWAPSSF.sol\":2926:2934  p1Choice */\n      dup3\n        /* \"RWAPSSF.sol\":2921:2922  7 */\n      0x07\n        /* \"RWAPSSF.sol\":2916:2917  2 */\n      0x02\n        /* \"RWAPSSF.sol\":2905:2913  p0Choice */\n      dup7\n        /* \"RWAPSSF.sol\":2905:2917  p0Choice + 2 */\n      tag_204\n      swap2\n      swap1\n      tag_116\n      jump\t// in\n    tag_204:\n        /* \"RWAPSSF.sol\":2904:2922  (p0Choice + 2) % 7 */\n      tag_205\n      swap2\n      swap1\n      tag_197\n      jump\t// in\n    tag_205:\n        /* \"RWAPSSF.sol\":2904:2934  (p0Choice + 2) % 7 == p1Choice */\n      eq\n        /* \"RWAPSSF.sol\":2870:2934  (p0Choice + 1) % 7 == p1Choice || (p0Choice + 2) % 7 == p1Choice */\n    tag_203:\n        /* \"RWAPSSF.sol\":2870:2968  (p0Choice + 1) % 7 == p1Choice || (p0Choice + 2) % 7 == p1Choice || (p0Choice + 3) % 7 == p1Choice */\n      dup1\n      tag_206\n      jumpi\n      pop\n        /* \"RWAPSSF.sol\":2960:2968  p1Choice */\n      dup3\n        /* \"RWAPSSF.sol\":2955:2956  7 */\n      0x07\n        /* \"RWAPSSF.sol\":2950:2951  3 */\n      0x03\n        /* \"RWAPSSF.sol\":2939:2947  p0Choice */\n      dup7\n        /* \"RWAPSSF.sol\":2939:2951  p0Choice + 3 */\n      tag_207\n      swap2\n      swap1\n      tag_116\n      jump\t// in\n    tag_207:\n        /* \"RWAPSSF.sol\":2938:2956  (p0Choice + 3) % 7 */\n      tag_208\n      swap2\n      swap1\n      tag_197\n      jump\t// in\n    tag_208:\n        /* \"RWAPSSF.sol\":2938:2968  (p0Choice + 3) % 7 == p1Choice */\n      eq\n        /* \"RWAPSSF.sol\":2870:2968  (p0Choice + 1) % 7 == p1Choice || (p0Choice + 2) % 7 == p1Choice || (p0Choice + 3) % 7 == p1Choice */\n    tag_206:\n        /* \"RWAPSSF.sol\":2865:3413  if ( (p0Choice + 1) % 7 == p1Choice || (p0Choice + 2) % 7 == p1Choice || (p0Choice + 3) % 7 == p1Choice ) {... */\n      iszero\n      tag_209\n      jumpi\n        /* \"RWAPSSF.sol\":3019:3027  account0 */\n      dup2\n        /* \"RWAPSSF.sol\":3019:3036  account0.transfer */\n      0xffffffffffffffffffffffffffffffffffffffff\n      and\n        /* \"RWAPSSF.sol\":3019:3044  account0.transfer(reward) */\n      0x08fc\n        /* \"RWAPSSF.sol\":3037:3043  reward */\n      sload(0x04)\n        /* \"RWAPSSF.sol\":3019:3044  account0.transfer(reward) */\n      swap1\n      dup2\n      iszero\n      mul\n      swap1\n      mload(0x40)\n      0x00\n      mload(0x40)\n      dup1\n      dup4\n      sub\n      dup2\n      dup6\n      dup9\n      dup9\n      call\n      swap4\n      pop\n      pop\n      pop\n      pop\n      iszero\n      dup1\n      iszero\n      tag_211\n      jumpi\n      returndatasize\n      0x00\n      dup1\n      returndatacopy\n      revert(0x00, returndatasize)\n    tag_211:\n      pop\n        /* \"RWAPSSF.sol\":2865:3413  if ( (p0Choice + 1) % 7 == p1Choice || (p0Choice + 2) % 7 == p1Choice || (p0Choice + 3) % 7 == p1Choice ) {... */\n      jump(tag_212)\n    tag_209:\n        /* \"RWAPSSF.sol\":3098:3106  p0Choice */\n      dup4\n        /* \"RWAPSSF.sol\":3093:3094  7 */\n      0x07\n        /* \"RWAPSSF.sol\":3088:3089  1 */\n      0x01\n        /* \"RWAPSSF.sol\":3077:3085  p1Choice */\n      dup6\n        /* \"RWAPSSF.sol\":3077:3089  p1Choice + 1 */\n      tag_213\n      swap2\n      swap1\n      tag_116\n      jump\t// in\n    tag_213:\n        /* \"RWAPSSF.sol\":3076:3094  (p1Choice + 1) % 7 */\n      tag_214\n      swap2\n      swap1\n      tag_197\n      jump\t// in\n    tag_214:\n        /* \"RWAPSSF.sol\":3076:3106  (p1Choice + 1) % 7 == p0Choice */\n      eq\n        /* \"RWAPSSF.sol\":3076:3140  (p1Choice + 1) % 7 == p0Choice || (p1Choice + 2) % 7 == p0Choice */\n      dup1\n      tag_215\n      jumpi\n      pop\n        /* \"RWAPSSF.sol\":3132:3140  p0Choice */\n      dup4\n        /* \"RWAPSSF.sol\":3127:3128  7 */\n      0x07\n        /* \"RWAPSSF.sol\":3122:3123  2 */\n      0x02\n        /* \"RWAPSSF.sol\":3111:3119  p1Choice */\n      dup6\n        /* \"RWAPSSF.sol\":3111:3123  p1Choice + 2 */\n      tag_216\n      swap2\n      swap1\n      tag_116\n      jump\t// in\n    tag_216:\n        /* \"RWAPSSF.sol\":3110:3128  (p1Choice + 2) % 7 */\n      tag_217\n      swap2\n      swap1\n      tag_197\n      jump\t// in\n    tag_217:\n        /* \"RWAPSSF.sol\":3110:3140  (p1Choice + 2) % 7 == p0Choice */\n      eq\n        /* \"RWAPSSF.sol\":3076:3140  (p1Choice + 1) % 7 == p0Choice || (p1Choice + 2) % 7 == p0Choice */\n    tag_215:\n        /* \"RWAPSSF.sol\":3076:3174  (p1Choice + 1) % 7 == p0Choice || (p1Choice + 2) % 7 == p0Choice || (p1Choice + 3) % 7 == p0Choice */\n      dup1\n      tag_218\n      jumpi\n      pop\n        /* \"RWAPSSF.sol\":3166:3174  p0Choice */\n      dup4\n        /* \"RWAPSSF.sol\":3161:3162  7 */\n      0x07\n        /* \"RWAPSSF.sol\":3156:3157  3 */\n      0x03\n        /* \"RWAPSSF.sol\":3145:3153  p1Choice */\n      dup6\n        /* \"RWAPSSF.sol\":3145:3157  p1Choice + 3 */\n      tag_219\n      swap2\n      swap1\n      tag_116\n      jump\t// in\n    tag_219:\n        /* \"RWAPSSF.sol\":3144:3162  (p1Choice + 3) % 7 */\n      tag_220\n      swap2\n      swap1\n      tag_197\n      jump\t// in\n    tag_220:\n        /* \"RWAPSSF.sol\":3144:3174  (p1Choice + 3) % 7 == p0Choice */\n      eq\n        /* \"RWAPSSF.sol\":3076:3174  (p1Choice + 1) % 7 == p0Choice || (p1Choice + 2) % 7 == p0Choice || (p1Choice + 3) % 7 == p0Choice */\n    tag_218:\n        /* \"RWAPSSF.sol\":3071:3413  if ( (p1Choice + 1) % 7 == p0Choice || (p1Choice + 2) % 7 == p0Choice || (p1Choice + 3) % 7 == p0Choice ) {... */\n      iszero\n      tag_221\n      jumpi\n        /* \"RWAPSSF.sol\":3225:3233  account1 */\n      dup1\n        /* \"RWAPSSF.sol\":3225:3242  account1.transfer */\n      0xffffffffffffffffffffffffffffffffffffffff\n      and\n        /* \"RWAPSSF.sol\":3225:3250  account1.transfer(reward) */\n      0x08fc\n        /* \"RWAPSSF.sol\":3243:3249  reward */\n      sload(0x04)\n        /* \"RWAPSSF.sol\":3225:3250  account1.transfer(reward) */\n      swap1\n      dup2\n      iszero\n      mul\n      swap1\n      mload(0x40)\n      0x00\n      mload(0x40)\n      dup1\n      dup4\n      sub\n      dup2\n      dup6\n      dup9\n      dup9\n      call\n      swap4\n      pop\n      pop\n      pop\n      pop\n      iszero\n      dup1\n      iszero\n      tag_223\n      jumpi\n      returndatasize\n      0x00\n      dup1\n      returndatacopy\n      revert(0x00, returndatasize)\n    tag_223:\n      pop\n        /* \"RWAPSSF.sol\":3071:3413  if ( (p1Choice + 1) % 7 == p0Choice || (p1Choice + 2) % 7 == p0Choice || (p1Choice + 3) % 7 == p0Choice ) {... */\n      jump(tag_224)\n    tag_221:\n        /* \"RWAPSSF.sol\":3328:3336  account0 */\n      dup2\n        /* \"RWAPSSF.sol\":3328:3345  account0.transfer */\n      0xffffffffffffffffffffffffffffffffffffffff\n      and\n        /* \"RWAPSSF.sol\":3328:3357  account0.transfer(reward / 2) */\n      0x08fc\n        /* \"RWAPSSF.sol\":3355:3356  2 */\n      0x02\n        /* \"RWAPSSF.sol\":3346:3352  reward */\n      sload(0x04)\n        /* \"RWAPSSF.sol\":3346:3356  reward / 2 */\n      tag_225\n      swap2\n      swap1\n      tag_151\n      jump\t// in\n    tag_225:\n        /* \"RWAPSSF.sol\":3328:3357  account0.transfer(reward / 2) */\n      swap1\n      dup2\n      iszero\n      mul\n      swap1\n      mload(0x40)\n      0x00\n      mload(0x40)\n      dup1\n      dup4\n      sub\n      dup2\n      dup6\n      dup9\n      dup9\n      call\n      swap4\n      pop\n      pop\n      pop\n      pop\n      iszero\n      dup1\n      iszero\n      tag_227\n      jumpi\n      returndatasize\n      0x00\n      dup1\n      returndatacopy\n      revert(0x00, returndatasize)\n    tag_227:\n      pop\n        /* \"RWAPSSF.sol\":3372:3380  account1 */\n      dup1\n        /* \"RWAPSSF.sol\":3372:3389  account1.transfer */\n      0xffffffffffffffffffffffffffffffffffffffff\n      and\n        /* \"RWAPSSF.sol\":3372:3401  account1.transfer(reward / 2) */\n      0x08fc\n        /* \"RWAPSSF.sol\":3399:3400  2 */\n      0x02\n        /* \"RWAPSSF.sol\":3390:3396  reward */\n      sload(0x04)\n        /* \"RWAPSSF.sol\":3390:3400  reward / 2 */\n      tag_228\n      swap2\n      swap1\n      tag_151\n      jump\t// in\n    tag_228:\n        /* \"RWAPSSF.sol\":3372:3401  account1.transfer(reward / 2) */\n      swap1\n      dup2\n      iszero\n      mul\n      swap1\n      mload(0x40)\n      0x00\n      mload(0x40)\n      dup1\n      dup4\n      sub\n      dup2\n      dup6\n      dup9\n      dup9\n      call\n      swap4\n      pop\n      pop\n      pop\n      pop\n      iszero\n      dup1\n      iszero\n      tag_230\n      jumpi\n      returndatasize\n      0x00\n      dup1\n      returndatacopy\n      revert(0x00, returndatasize)\n    tag_230:\n      pop\n        /* \"RWAPSSF.sol\":3071:3413  if ( (p1Choice + 1) % 7 == p0Choice || (p1Choice + 2) % 7 == p0Choice || (p1Choice + 3) % 7 == p0Choice ) {... */\n    tag_224:\n        /* \"RWAPSSF.sol\":2865:3413  if ( (p0Choice + 1) % 7 == p1Choice || (p0Choice + 2) % 7 == p1Choice || (p0Choice + 3) % 7 == p1Choice ) {... */\n    tag_212:\n        /* \"RWAPSSF.sol\":3423:3435  _resetGame() */\n      tag_231\n        /* \"RWAPSSF.sol\":3423:3433  _resetGame */\n      tag_144\n        /* \"RWAPSSF.sol\":3423:3435  _resetGame() */\n      jump\t// in\n    tag_231:\n        /* \"RWAPSSF.sol\":2646:3443  {... */\n      pop\n      pop\n      pop\n      pop\n        /* \"RWAPSSF.sol\":2608:3443  function _checkWinnerAndPay() private {... */\n      jump\t// out\n        /* \"RWAPSSF.sol\":3451:3736  function _resetGame() private {... */\n    tag_144:\n        /* \"RWAPSSF.sol\":3504:3505  0 */\n      0x00\n        /* \"RWAPSSF.sol\":3492:3501  numPlayer */\n      0x03\n        /* \"RWAPSSF.sol\":3492:3505  numPlayer = 0 */\n      dup2\n      swap1\n      sstore\n      pop\n        /* \"RWAPSSF.sol\":3525:3526  0 */\n      0x00\n        /* \"RWAPSSF.sol\":3516:3522  reward */\n      0x04\n        /* \"RWAPSSF.sol\":3516:3526  reward = 0 */\n      dup2\n      swap1\n      sstore\n      pop\n        /* \"RWAPSSF.sol\":3548:3549  0 */\n      0x00\n        /* \"RWAPSSF.sol\":3537:3545  numInput */\n      0x05\n        /* \"RWAPSSF.sol\":3537:3549  numInput = 0 */\n      dup2\n      swap1\n      sstore\n      pop\n        /* \"RWAPSSF.sol\":3577:3578  0 */\n      0x00\n        /* \"RWAPSSF.sol\":3560:3574  numHashedInput */\n      0x06\n        /* \"RWAPSSF.sol\":3560:3578  numHashedInput = 0 */\n      dup2\n      swap1\n      sstore\n      pop\n        /* \"RWAPSSF.sol\":3618:3619  7 */\n      0x07\n        /* \"RWAPSSF.sol\":3599:3605  player */\n      0x02\n        /* \"RWAPSSF.sol\":3599:3608  player[0] */\n      0x00\n        /* \"RWAPSSF.sol\":3606:3607  0 */\n      dup1\n        /* \"RWAPSSF.sol\":3599:3608  player[0] */\n      dup2\n      mstore\n      0x20\n      add\n      swap1\n      dup2\n      mstore\n      0x20\n      add\n      0x00\n      keccak256\n        /* \"RWAPSSF.sol\":3599:3615  player[0].choice */\n      0x00\n      add\n        /* \"RWAPSSF.sol\":3599:3619  player[0].choice = 7 */\n      dup2\n      swap1\n      sstore\n      pop\n        /* \"RWAPSSF.sol\":3655:3656  0 */\n      0x00\n        /* \"RWAPSSF.sol\":3630:3636  player */\n      0x02\n        /* \"RWAPSSF.sol\":3630:3639  player[0] */\n      0x00\n        /* \"RWAPSSF.sol\":3637:3638  0 */\n      dup1\n        /* \"RWAPSSF.sol\":3630:3639  player[0] */\n      dup2\n      mstore\n      0x20\n      add\n      swap1\n      dup2\n      mstore\n      0x20\n      add\n      0x00\n      keccak256\n        /* \"RWAPSSF.sol\":3630:3644  player[0].addr */\n      0x01\n      add\n      0x00\n        /* \"RWAPSSF.sol\":3630:3657  player[0].addr = address(0) */\n      0x0100\n      exp\n      dup2\n      sload\n      dup2\n      0xffffffffffffffffffffffffffffffffffffffff\n      mul\n      not\n      and\n      swap1\n      dup4\n      0xffffffffffffffffffffffffffffffffffffffff\n      and\n      mul\n      or\n      swap1\n      sstore\n      pop\n        /* \"RWAPSSF.sol\":3689:3690  7 */\n      0x07\n        /* \"RWAPSSF.sol\":3670:3676  player */\n      0x02\n        /* \"RWAPSSF.sol\":3670:3679  player[1] */\n      0x00\n        /* \"RWAPSSF.sol\":3677:3678  1 */\n      0x01\n        /* \"RWAPSSF.sol\":3670:3679  player[1] */\n      dup2\n      mstore\n      0x20\n      add\n      swap1\n      dup2\n      mstore\n      0x20\n      add\n      0x00\n      keccak256\n        /* \"RWAPSSF.sol\":3670:3686  player[1].choice */\n      0x00\n      add\n        /* \"RWAPSSF.sol\":3670:3690  player[1].choice = 7 */\n      dup2\n      swap1\n      sstore\n      pop\n        /* \"RWAPSSF.sol\":3726:3727  0 */\n      0x00\n        /* \"RWAPSSF.sol\":3701:3707  player */\n      0x02\n        /* \"RWAPSSF.sol\":3701:3710  player[1] */\n      0x00\n        /* \"RWAPSSF.sol\":3708:3709  1 */\n      0x01\n        /* \"RWAPSSF.sol\":3701:3710  player[1] */\n      dup2\n      mstore\n      0x20\n      add\n      swap1\n      dup2\n      mstore\n      0x20\n      add\n      0x00\n      keccak256\n        /* \"RWAPSSF.sol\":3701:3715  player[1].addr */\n      0x01\n      add\n      0x00\n        /* \"RWAPSSF.sol\":3701:3728  player[1].addr = address(0) */\n      0x0100\n      exp\n      dup2\n      sload\n      dup2\n      0xffffffffffffffffffffffffffffffffffffffff\n      mul\n      not\n      and\n      swap1\n      dup4\n      0xffffffffffffffffffffffffffffffffffffffff\n      and\n      mul\n      or\n      swap1\n      sstore\n      pop\n        /* \"RWAPSSF.sol\":3451:3736  function _resetGame() private {... */\n      jump\t// out\n        /* \"CommitReveal.sol\":255:528  function commit(bytes32 dataHash) internal {... */\n    tag_173:\n        /* \"CommitReveal.sol\":333:341  dataHash */\n      dup1\n        /* \"CommitReveal.sol\":304:311  commits */\n      0x01\n        /* \"CommitReveal.sol\":304:323  commits[msg.sender] */\n      0x00\n        /* \"CommitReveal.sol\":312:322  msg.sender */\n      caller\n        /* \"CommitReveal.sol\":304:323  commits[msg.sender] */\n      0xffffffffffffffffffffffffffffffffffffffff\n      and\n      0xffffffffffffffffffffffffffffffffffffffff\n      and\n      dup2\n      mstore\n      0x20\n      add\n      swap1\n      dup2\n      mstore\n      0x20\n      add\n      0x00\n      keccak256\n        /* \"CommitReveal.sol\":304:330  commits[msg.sender].commit */\n      0x00\n      add\n        /* \"CommitReveal.sol\":304:341  commits[msg.sender].commit = dataHash */\n      dup2\n      swap1\n      sstore\n      pop\n        /* \"CommitReveal.sol\":382:394  block.number */\n      number\n        /* \"CommitReveal.sol\":347:354  commits */\n      0x01\n        /* \"CommitReveal.sol\":347:366  commits[msg.sender] */\n      0x00\n        /* \"CommitReveal.sol\":355:365  msg.sender */\n      caller\n        /* \"CommitReveal.sol\":347:366  commits[msg.sender] */\n      0xffffffffffffffffffffffffffffffffffffffff\n      and\n      0xffffffffffffffffffffffffffffffffffffffff\n      and\n      dup2\n      mstore\n      0x20\n      add\n      swap1\n      dup2\n      mstore\n      0x20\n      add\n      0x00\n      keccak256\n        /* \"CommitReveal.sol\":347:372  commits[msg.sender].block */\n      0x01\n      add\n      0x00\n        /* \"CommitReveal.sol\":347:395  commits[msg.sender].block = uint64(block.number) */\n      0x0100\n      exp\n      dup2\n      sload\n      dup2\n      0xffffffffffffffff\n      mul\n      not\n      and\n      swap1\n      dup4\n      0xffffffffffffffff\n      and\n      mul\n      or\n      swap1\n      sstore\n      pop\n        /* \"CommitReveal.sol\":432:437  false */\n      0x00\n        /* \"CommitReveal.sol\":401:408  commits */\n      0x01\n        /* \"CommitReveal.sol\":401:420  commits[msg.sender] */\n      0x00\n        /* \"CommitReveal.sol\":409:419  msg.sender */\n      caller\n        /* \"CommitReveal.sol\":401:420  commits[msg.sender] */\n      0xffffffffffffffffffffffffffffffffffffffff\n      and\n      0xffffffffffffffffffffffffffffffffffffffff\n      and\n      dup2\n      mstore\n      0x20\n      add\n      swap1\n      dup2\n      mstore\n      0x20\n      add\n      0x00\n      keccak256\n        /* \"CommitReveal.sol\":401:429  commits[msg.sender].revealed */\n      0x01\n      add\n      0x08\n        /* \"CommitReveal.sol\":401:437  commits[msg.sender].revealed = false */\n      0x0100\n      exp\n      dup2\n      sload\n      dup2\n      0xff\n      mul\n      not\n      and\n      swap1\n      dup4\n      iszero\n      iszero\n      mul\n      or\n      swap1\n      sstore\n      pop\n        /* \"CommitReveal.sol\":448:523  CommitHash(msg.sender,commits[msg.sender].commit,commits[msg.sender].block) */\n      0x3c1a1f8f38335b17f751c6da4ba7d1865f26b3997535176f5080de9fad891603\n        /* \"CommitReveal.sol\":459:469  msg.sender */\n      caller\n        /* \"CommitReveal.sol\":470:477  commits */\n      0x01\n        /* \"CommitReveal.sol\":470:489  commits[msg.sender] */\n      0x00\n        /* \"CommitReveal.sol\":478:488  msg.sender */\n      caller\n        /* \"CommitReveal.sol\":470:489  commits[msg.sender] */\n      0xffffffffffffffffffffffffffffffffffffffff\n      and\n      0xffffffffffffffffffffffffffffffffffffffff\n      and\n      dup2\n      mstore\n      0x20\n      add\n      swap1\n      dup2\n      mstore\n      0x20\n      add\n      0x00\n      keccak256\n        /* \"CommitReveal.sol\":470:496  commits[msg.sender].commit */\n      0x00\n      add\n      sload\n        /* \"CommitReveal.sol\":497:504  commits */\n      0x01\n        /* \"CommitReveal.sol\":497:516  commits[msg.sender] */\n      0x00\n        /* \"CommitReveal.sol\":505:515  msg.sender */\n      caller\n        /* \"CommitReveal.sol\":497:516  commits[msg.sender] */\n      0xffffffffffffffffffffffffffffffffffffffff\n      and\n      0xffffffffffffffffffffffffffffffffffffffff\n      and\n      dup2\n      mstore\n      0x20\n      add\n      swap1\n      dup2\n      mstore\n      0x20\n      add\n      0x00\n      keccak256\n        /* \"CommitReveal.sol\":497:522  commits[msg.sender].block */\n      0x01\n      add\n      0x00\n      swap1\n      sload\n      swap1\n      0x0100\n      exp\n      swap1\n      div\n      0xffffffffffffffff\n      and\n        /* \"CommitReveal.sol\":448:523  CommitHash(msg.sender,commits[msg.sender].commit,commits[msg.sender].block) */\n      mload(0x40)\n      tag_234\n      swap4\n      swap3\n      swap2\n      swap1\n      tag_235\n      jump\t// in\n    tag_234:\n      mload(0x40)\n      dup1\n      swap2\n      sub\n      swap1\n      log1\n        /* \"CommitReveal.sol\":255:528  function commit(bytes32 dataHash) internal {... */\n      pop\n      jump\t// out\n        /* \"#utility.yul\":7:82   */\n    tag_236:\n        /* \"#utility.yul\":40:46   */\n      0x00\n        /* \"#utility.yul\":73:75   */\n      0x40\n        /* \"#utility.yul\":67:76   */\n      mload\n        /* \"#utility.yul\":57:76   */\n      swap1\n      pop\n        /* \"#utility.yul\":7:82   */\n      swap1\n      jump\t// out\n        /* \"#utility.yul\":88:205   */\n    tag_237:\n        /* \"#utility.yul\":197:198   */\n      0x00\n        /* \"#utility.yul\":194:195   */\n      dup1\n        /* \"#utility.yul\":187:199   */\n      revert\n        /* \"#utility.yul\":211:328   */\n    tag_238:\n        /* \"#utility.yul\":320:321   */\n      0x00\n        /* \"#utility.yul\":317:318   */\n      dup1\n        /* \"#utility.yul\":310:322   */\n      revert\n        /* \"#utility.yul\":334:411   */\n    tag_239:\n        /* \"#utility.yul\":371:378   */\n      0x00\n        /* \"#utility.yul\":400:405   */\n      dup2\n        /* \"#utility.yul\":389:405   */\n      swap1\n      pop\n        /* \"#utility.yul\":334:411   */\n      swap2\n      swap1\n      pop\n      jump\t// out\n        /* \"#utility.yul\":417:539   */\n    tag_240:\n        /* \"#utility.yul\":490:514   */\n      tag_297\n        /* \"#utility.yul\":508:513   */\n      dup2\n        /* \"#utility.yul\":490:514   */\n      tag_239\n      jump\t// in\n    tag_297:\n        /* \"#utility.yul\":483:488   */\n      dup2\n        /* \"#utility.yul\":480:515   */\n      eq\n        /* \"#utility.yul\":470:533   */\n      tag_298\n      jumpi\n        /* \"#utility.yul\":529:530   */\n      0x00\n        /* \"#utility.yul\":526:527   */\n      dup1\n        /* \"#utility.yul\":519:531   */\n      revert\n        /* \"#utility.yul\":470:533   */\n    tag_298:\n        /* \"#utility.yul\":417:539   */\n      pop\n      jump\t// out\n        /* \"#utility.yul\":545:684   */\n    tag_241:\n        /* \"#utility.yul\":591:596   */\n      0x00\n        /* \"#utility.yul\":629:635   */\n      dup2\n        /* \"#utility.yul\":616:636   */\n      calldataload\n        /* \"#utility.yul\":607:636   */\n      swap1\n      pop\n        /* \"#utility.yul\":645:678   */\n      tag_300\n        /* \"#utility.yul\":672:677   */\n      dup2\n        /* \"#utility.yul\":645:678   */\n      tag_240\n      jump\t// in\n    tag_300:\n        /* \"#utility.yul\":545:684   */\n      swap3\n      swap2\n      pop\n      pop\n      jump\t// out\n        /* \"#utility.yul\":690:807   */\n    tag_242:\n        /* \"#utility.yul\":799:800   */\n      0x00\n        /* \"#utility.yul\":796:797   */\n      dup1\n        /* \"#utility.yul\":789:801   */\n      revert\n        /* \"#utility.yul\":813:930   */\n    tag_243:\n        /* \"#utility.yul\":922:923   */\n      0x00\n        /* \"#utility.yul\":919:920   */\n      dup1\n        /* \"#utility.yul\":912:924   */\n      revert\n        /* \"#utility.yul\":936:1038   */\n    tag_244:\n        /* \"#utility.yul\":977:983   */\n      0x00\n        /* \"#utility.yul\":1028:1030   */\n      0x1f\n        /* \"#utility.yul\":1024:1031   */\n      not\n        /* \"#utility.yul\":1019:1021   */\n      0x1f\n        /* \"#utility.yul\":1012:1017   */\n      dup4\n        /* \"#utility.yul\":1008:1022   */\n      add\n        /* \"#utility.yul\":1004:1032   */\n      and\n        /* \"#utility.yul\":994:1032   */\n      swap1\n      pop\n        /* \"#utility.yul\":936:1038   */\n      swap2\n      swap1\n      pop\n      jump\t// out\n        /* \"#utility.yul\":1044:1224   */\n    tag_245:\n        /* \"#utility.yul\":1092:1169   */\n      0x4e487b7100000000000000000000000000000000000000000000000000000000\n        /* \"#utility.yul\":1089:1090   */\n      0x00\n        /* \"#utility.yul\":1082:1170   */\n      mstore\n        /* \"#utility.yul\":1189:1193   */\n      0x41\n        /* \"#utility.yul\":1186:1187   */\n      0x04\n        /* \"#utility.yul\":1179:1194   */\n      mstore\n        /* \"#utility.yul\":1213:1217   */\n      0x24\n        /* \"#utility.yul\":1210:1211   */\n      0x00\n        /* \"#utility.yul\":1203:1218   */\n      revert\n        /* \"#utility.yul\":1230:1511   */\n    tag_246:\n        /* \"#utility.yul\":1313:1340   */\n      tag_306\n        /* \"#utility.yul\":1335:1339   */\n      dup3\n        /* \"#utility.yul\":1313:1340   */\n      tag_244\n      jump\t// in\n    tag_306:\n        /* \"#utility.yul\":1305:1311   */\n      dup2\n        /* \"#utility.yul\":1301:1341   */\n      add\n        /* \"#utility.yul\":1443:1449   */\n      dup2\n        /* \"#utility.yul\":1431:1441   */\n      dup2\n        /* \"#utility.yul\":1428:1450   */\n      lt\n        /* \"#utility.yul\":1407:1425   */\n      0xffffffffffffffff\n        /* \"#utility.yul\":1395:1405   */\n      dup3\n        /* \"#utility.yul\":1392:1426   */\n      gt\n        /* \"#utility.yul\":1389:1451   */\n      or\n        /* \"#utility.yul\":1386:1474   */\n      iszero\n      tag_307\n      jumpi\n        /* \"#utility.yul\":1454:1472   */\n      tag_308\n      tag_245\n      jump\t// in\n    tag_308:\n        /* \"#utility.yul\":1386:1474   */\n    tag_307:\n        /* \"#utility.yul\":1494:1504   */\n      dup1\n        /* \"#utility.yul\":1490:1492   */\n      0x40\n        /* \"#utility.yul\":1483:1505   */\n      mstore\n        /* \"#utility.yul\":1273:1511   */\n      pop\n        /* \"#utility.yul\":1230:1511   */\n      pop\n      pop\n      jump\t// out\n        /* \"#utility.yul\":1517:1646   */\n    tag_247:\n        /* \"#utility.yul\":1551:1557   */\n      0x00\n        /* \"#utility.yul\":1578:1598   */\n      tag_310\n      tag_236\n      jump\t// in\n    tag_310:\n        /* \"#utility.yul\":1568:1598   */\n      swap1\n      pop\n        /* \"#utility.yul\":1607:1640   */\n      tag_311\n        /* \"#utility.yul\":1635:1639   */\n      dup3\n        /* \"#utility.yul\":1627:1633   */\n      dup3\n        /* \"#utility.yul\":1607:1640   */\n      tag_246\n      jump\t// in\n    tag_311:\n        /* \"#utility.yul\":1517:1646   */\n      swap2\n      swap1\n      pop\n      jump\t// out\n        /* \"#utility.yul\":1652:1960   */\n    tag_248:\n        /* \"#utility.yul\":1714:1718   */\n      0x00\n        /* \"#utility.yul\":1804:1822   */\n      0xffffffffffffffff\n        /* \"#utility.yul\":1796:1802   */\n      dup3\n        /* \"#utility.yul\":1793:1823   */\n      gt\n        /* \"#utility.yul\":1790:1846   */\n      iszero\n      tag_313\n      jumpi\n        /* \"#utility.yul\":1826:1844   */\n      tag_314\n      tag_245\n      jump\t// in\n    tag_314:\n        /* \"#utility.yul\":1790:1846   */\n    tag_313:\n        /* \"#utility.yul\":1864:1893   */\n      tag_315\n        /* \"#utility.yul\":1886:1892   */\n      dup3\n        /* \"#utility.yul\":1864:1893   */\n      tag_244\n      jump\t// in\n    tag_315:\n        /* \"#utility.yul\":1856:1893   */\n      swap1\n      pop\n        /* \"#utility.yul\":1948:1952   */\n      0x20\n        /* \"#utility.yul\":1942:1946   */\n      dup2\n        /* \"#utility.yul\":1938:1953   */\n      add\n        /* \"#utility.yul\":1930:1953   */\n      swap1\n      pop\n        /* \"#utility.yul\":1652:1960   */\n      swap2\n      swap1\n      pop\n      jump\t// out\n        /* \"#utility.yul\":1966:2112   */\n    tag_249:\n        /* \"#utility.yul\":2063:2069   */\n      dup3\n        /* \"#utility.yul\":2058:2061   */\n      dup2\n        /* \"#utility.yul\":2053:2056   */\n      dup4\n        /* \"#utility.yul\":2040:2070   */\n      calldatacopy\n        /* \"#utility.yul\":2104:2105   */\n      0x00\n        /* \"#utility.yul\":2095:2101   */\n      dup4\n        /* \"#utility.yul\":2090:2093   */\n      dup4\n        /* \"#utility.yul\":2086:2102   */\n      add\n        /* \"#utility.yul\":2079:2106   */\n      mstore\n        /* \"#utility.yul\":1966:2112   */\n      pop\n      pop\n      pop\n      jump\t// out\n        /* \"#utility.yul\":2118:2543   */\n    tag_250:\n        /* \"#utility.yul\":2196:2201   */\n      0x00\n        /* \"#utility.yul\":2221:2287   */\n      tag_318\n        /* \"#utility.yul\":2237:2286   */\n      tag_319\n        /* \"#utility.yul\":2279:2285   */\n      dup5\n        /* \"#utility.yul\":2237:2286   */\n      tag_248\n      jump\t// in\n    tag_319:\n        /* \"#utility.yul\":2221:2287   */\n      tag_247\n      jump\t// in\n    tag_318:\n        /* \"#utility.yul\":2212:2287   */\n      swap1\n      pop\n        /* \"#utility.yul\":2310:2316   */\n      dup3\n        /* \"#utility.yul\":2303:2308   */\n      dup2\n        /* \"#utility.yul\":2296:2317   */\n      mstore\n        /* \"#utility.yul\":2348:2352   */\n      0x20\n        /* \"#utility.yul\":2341:2346   */\n      dup2\n        /* \"#utility.yul\":2337:2353   */\n      add\n        /* \"#utility.yul\":2386:2389   */\n      dup5\n        /* \"#utility.yul\":2377:2383   */\n      dup5\n        /* \"#utility.yul\":2372:2375   */\n      dup5\n        /* \"#utility.yul\":2368:2384   */\n      add\n        /* \"#utility.yul\":2365:2390   */\n      gt\n        /* \"#utility.yul\":2362:2474   */\n      iszero\n      tag_320\n      jumpi\n        /* \"#utility.yul\":2393:2472   */\n      tag_321\n      tag_243\n      jump\t// in\n    tag_321:\n        /* \"#utility.yul\":2362:2474   */\n    tag_320:\n        /* \"#utility.yul\":2483:2537   */\n      tag_322\n        /* \"#utility.yul\":2530:2536   */\n      dup5\n        /* \"#utility.yul\":2525:2528   */\n      dup3\n        /* \"#utility.yul\":2520:2523   */\n      dup6\n        /* \"#utility.yul\":2483:2537   */\n      tag_249\n      jump\t// in\n    tag_322:\n        /* \"#utility.yul\":2202:2543   */\n      pop\n        /* \"#utility.yul\":2118:2543   */\n      swap4\n      swap3\n      pop\n      pop\n      pop\n      jump\t// out\n        /* \"#utility.yul\":2563:2903   */\n    tag_251:\n        /* \"#utility.yul\":2619:2624   */\n      0x00\n        /* \"#utility.yul\":2668:2671   */\n      dup3\n        /* \"#utility.yul\":2661:2665   */\n      0x1f\n        /* \"#utility.yul\":2653:2659   */\n      dup4\n        /* \"#utility.yul\":2649:2666   */\n      add\n        /* \"#utility.yul\":2645:2672   */\n      slt\n        /* \"#utility.yul\":2635:2757   */\n      tag_324\n      jumpi\n        /* \"#utility.yul\":2676:2755   */\n      tag_325\n      tag_242\n      jump\t// in\n    tag_325:\n        /* \"#utility.yul\":2635:2757   */\n    tag_324:\n        /* \"#utility.yul\":2793:2799   */\n      dup2\n        /* \"#utility.yul\":2780:2800   */\n      calldataload\n        /* \"#utility.yul\":2818:2897   */\n      tag_326\n        /* \"#utility.yul\":2893:2896   */\n      dup5\n        /* \"#utility.yul\":2885:2891   */\n      dup3\n        /* \"#utility.yul\":2878:2882   */\n      0x20\n        /* \"#utility.yul\":2870:2876   */\n      dup7\n        /* \"#utility.yul\":2866:2883   */\n      add\n        /* \"#utility.yul\":2818:2897   */\n      tag_250\n      jump\t// in\n    tag_326:\n        /* \"#utility.yul\":2809:2897   */\n      swap2\n      pop\n        /* \"#utility.yul\":2625:2903   */\n      pop\n        /* \"#utility.yul\":2563:2903   */\n      swap3\n      swap2\n      pop\n      pop\n      jump\t// out\n        /* \"#utility.yul\":2909:3563   */\n    tag_23:\n        /* \"#utility.yul\":2987:2993   */\n      0x00\n        /* \"#utility.yul\":2995:3001   */\n      dup1\n        /* \"#utility.yul\":3044:3046   */\n      0x40\n        /* \"#utility.yul\":3032:3041   */\n      dup4\n        /* \"#utility.yul\":3023:3030   */\n      dup6\n        /* \"#utility.yul\":3019:3042   */\n      sub\n        /* \"#utility.yul\":3015:3047   */\n      slt\n        /* \"#utility.yul\":3012:3131   */\n      iszero\n      tag_328\n      jumpi\n        /* \"#utility.yul\":3050:3129   */\n      tag_329\n      tag_237\n      jump\t// in\n    tag_329:\n        /* \"#utility.yul\":3012:3131   */\n    tag_328:\n        /* \"#utility.yul\":3170:3171   */\n      0x00\n        /* \"#utility.yul\":3195:3248   */\n      tag_330\n        /* \"#utility.yul\":3240:3247   */\n      dup6\n        /* \"#utility.yul\":3231:3237   */\n      dup3\n        /* \"#utility.yul\":3220:3229   */\n      dup7\n        /* \"#utility.yul\":3216:3238   */\n      add\n        /* \"#utility.yul\":3195:3248   */\n      tag_241\n      jump\t// in\n    tag_330:\n        /* \"#utility.yul\":3185:3248   */\n      swap3\n      pop\n        /* \"#utility.yul\":3141:3258   */\n      pop\n        /* \"#utility.yul\":3325:3327   */\n      0x20\n        /* \"#utility.yul\":3314:3323   */\n      dup4\n        /* \"#utility.yul\":3310:3328   */\n      add\n        /* \"#utility.yul\":3297:3329   */\n      calldataload\n        /* \"#utility.yul\":3356:3374   */\n      0xffffffffffffffff\n        /* \"#utility.yul\":3348:3354   */\n      dup2\n        /* \"#utility.yul\":3345:3375   */\n      gt\n        /* \"#utility.yul\":3342:3459   */\n      iszero\n      tag_331\n      jumpi\n        /* \"#utility.yul\":3378:3457   */\n      tag_332\n      tag_238\n      jump\t// in\n    tag_332:\n        /* \"#utility.yul\":3342:3459   */\n    tag_331:\n        /* \"#utility.yul\":3483:3546   */\n      tag_333\n        /* \"#utility.yul\":3538:3545   */\n      dup6\n        /* \"#utility.yul\":3529:3535   */\n      dup3\n        /* \"#utility.yul\":3518:3527   */\n      dup7\n        /* \"#utility.yul\":3514:3536   */\n      add\n        /* \"#utility.yul\":3483:3546   */\n      tag_251\n      jump\t// in\n    tag_333:\n        /* \"#utility.yul\":3473:3546   */\n      swap2\n      pop\n        /* \"#utility.yul\":3268:3556   */\n      pop\n        /* \"#utility.yul\":2909:3563   */\n      swap3\n      pop\n      swap3\n      swap1\n      pop\n      jump\t// out\n        /* \"#utility.yul\":3569:3646   */\n    tag_252:\n        /* \"#utility.yul\":3606:3613   */\n      0x00\n        /* \"#utility.yul\":3635:3640   */\n      dup2\n        /* \"#utility.yul\":3624:3640   */\n      swap1\n      pop\n        /* \"#utility.yul\":3569:3646   */\n      swap2\n      swap1\n      pop\n      jump\t// out\n        /* \"#utility.yul\":3652:3770   */\n    tag_253:\n        /* \"#utility.yul\":3739:3763   */\n      tag_336\n        /* \"#utility.yul\":3757:3762   */\n      dup2\n        /* \"#utility.yul\":3739:3763   */\n      tag_252\n      jump\t// in\n    tag_336:\n        /* \"#utility.yul\":3734:3737   */\n      dup3\n        /* \"#utility.yul\":3727:3764   */\n      mstore\n        /* \"#utility.yul\":3652:3770   */\n      pop\n      pop\n      jump\t// out\n        /* \"#utility.yul\":3776:3998   */\n    tag_26:\n        /* \"#utility.yul\":3869:3873   */\n      0x00\n        /* \"#utility.yul\":3907:3909   */\n      0x20\n        /* \"#utility.yul\":3896:3905   */\n      dup3\n        /* \"#utility.yul\":3892:3910   */\n      add\n        /* \"#utility.yul\":3884:3910   */\n      swap1\n      pop\n        /* \"#utility.yul\":3920:3991   */\n      tag_338\n        /* \"#utility.yul\":3988:3989   */\n      0x00\n        /* \"#utility.yul\":3977:3986   */\n      dup4\n        /* \"#utility.yul\":3973:3990   */\n      add\n        /* \"#utility.yul\":3964:3970   */\n      dup5\n        /* \"#utility.yul\":3920:3991   */\n      tag_253\n      jump\t// in\n    tag_338:\n        /* \"#utility.yul\":3776:3998   */\n      swap3\n      swap2\n      pop\n      pop\n      jump\t// out\n        /* \"#utility.yul\":4004:4122   */\n    tag_254:\n        /* \"#utility.yul\":4091:4115   */\n      tag_340\n        /* \"#utility.yul\":4109:4114   */\n      dup2\n        /* \"#utility.yul\":4091:4115   */\n      tag_239\n      jump\t// in\n    tag_340:\n        /* \"#utility.yul\":4086:4089   */\n      dup3\n        /* \"#utility.yul\":4079:4116   */\n      mstore\n        /* \"#utility.yul\":4004:4122   */\n      pop\n      pop\n      jump\t// out\n        /* \"#utility.yul\":4128:4350   */\n    tag_31:\n        /* \"#utility.yul\":4221:4225   */\n      0x00\n        /* \"#utility.yul\":4259:4261   */\n      0x20\n        /* \"#utility.yul\":4248:4257   */\n      dup3\n        /* \"#utility.yul\":4244:4262   */\n      add\n        /* \"#utility.yul\":4236:4262   */\n      swap1\n      pop\n        /* \"#utility.yul\":4272:4343   */\n      tag_342\n        /* \"#utility.yul\":4340:4341   */\n      0x00\n        /* \"#utility.yul\":4329:4338   */\n      dup4\n        /* \"#utility.yul\":4325:4342   */\n      add\n        /* \"#utility.yul\":4316:4322   */\n      dup5\n        /* \"#utility.yul\":4272:4343   */\n      tag_254\n      jump\t// in\n    tag_342:\n        /* \"#utility.yul\":4128:4350   */\n      swap3\n      swap2\n      pop\n      pop\n      jump\t// out\n        /* \"#utility.yul\":4356:5155   */\n    tag_35:\n        /* \"#utility.yul\":4443:4449   */\n      0x00\n        /* \"#utility.yul\":4451:4457   */\n      dup1\n        /* \"#utility.yul\":4459:4465   */\n      0x00\n        /* \"#utility.yul\":4508:4510   */\n      0x60\n        /* \"#utility.yul\":4496:4505   */\n      dup5\n        /* \"#utility.yul\":4487:4494   */\n      dup7\n        /* \"#utility.yul\":4483:4506   */\n      sub\n        /* \"#utility.yul\":4479:4511   */\n      slt\n        /* \"#utility.yul\":4476:4595   */\n      iszero\n      tag_344\n      jumpi\n        /* \"#utility.yul\":4514:4593   */\n      tag_345\n      tag_237\n      jump\t// in\n    tag_345:\n        /* \"#utility.yul\":4476:4595   */\n    tag_344:\n        /* \"#utility.yul\":4634:4635   */\n      0x00\n        /* \"#utility.yul\":4659:4712   */\n      tag_346\n        /* \"#utility.yul\":4704:4711   */\n      dup7\n        /* \"#utility.yul\":4695:4701   */\n      dup3\n        /* \"#utility.yul\":4684:4693   */\n      dup8\n        /* \"#utility.yul\":4680:4702   */\n      add\n        /* \"#utility.yul\":4659:4712   */\n      tag_241\n      jump\t// in\n    tag_346:\n        /* \"#utility.yul\":4649:4712   */\n      swap4\n      pop\n        /* \"#utility.yul\":4605:4722   */\n      pop\n        /* \"#utility.yul\":4789:4791   */\n      0x20\n        /* \"#utility.yul\":4778:4787   */\n      dup5\n        /* \"#utility.yul\":4774:4792   */\n      add\n        /* \"#utility.yul\":4761:4793   */\n      calldataload\n        /* \"#utility.yul\":4820:4838   */\n      0xffffffffffffffff\n        /* \"#utility.yul\":4812:4818   */\n      dup2\n        /* \"#utility.yul\":4809:4839   */\n      gt\n        /* \"#utility.yul\":4806:4923   */\n      iszero\n      tag_347\n      jumpi\n        /* \"#utility.yul\":4842:4921   */\n      tag_348\n      tag_238\n      jump\t// in\n    tag_348:\n        /* \"#utility.yul\":4806:4923   */\n    tag_347:\n        /* \"#utility.yul\":4947:5010   */\n      tag_349\n        /* \"#utility.yul\":5002:5009   */\n      dup7\n        /* \"#utility.yul\":4993:4999   */\n      dup3\n        /* \"#utility.yul\":4982:4991   */\n      dup8\n        /* \"#utility.yul\":4978:5000   */\n      add\n        /* \"#utility.yul\":4947:5010   */\n      tag_251\n      jump\t// in\n    tag_349:\n        /* \"#utility.yul\":4937:5010   */\n      swap3\n      pop\n        /* \"#utility.yul\":4732:5020   */\n      pop\n        /* \"#utility.yul\":5059:5061   */\n      0x40\n        /* \"#utility.yul\":5085:5138   */\n      tag_350\n        /* \"#utility.yul\":5130:5137   */\n      dup7\n        /* \"#utility.yul\":5121:5127   */\n      dup3\n        /* \"#utility.yul\":5110:5119   */\n      dup8\n        /* \"#utility.yul\":5106:5128   */\n      add\n        /* \"#utility.yul\":5085:5138   */\n      tag_241\n      jump\t// in\n    tag_350:\n        /* \"#utility.yul\":5075:5138   */\n      swap2\n      pop\n        /* \"#utility.yul\":5030:5148   */\n      pop\n        /* \"#utility.yul\":4356:5155   */\n      swap3\n      pop\n      swap3\n      pop\n      swap3\n      jump\t// out\n        /* \"#utility.yul\":5161:5283   */\n    tag_255:\n        /* \"#utility.yul\":5234:5258   */\n      tag_352\n        /* \"#utility.yul\":5252:5257   */\n      dup2\n        /* \"#utility.yul\":5234:5258   */\n      tag_252\n      jump\t// in\n    tag_352:\n        /* \"#utility.yul\":5227:5232   */\n      dup2\n        /* \"#utility.yul\":5224:5259   */\n      eq\n        /* \"#utility.yul\":5214:5277   */\n      tag_353\n      jumpi\n        /* \"#utility.yul\":5273:5274   */\n      0x00\n        /* \"#utility.yul\":5270:5271   */\n      dup1\n        /* \"#utility.yul\":5263:5275   */\n      revert\n        /* \"#utility.yul\":5214:5277   */\n    tag_353:\n        /* \"#utility.yul\":5161:5283   */\n      pop\n      jump\t// out\n        /* \"#utility.yul\":5289:5428   */\n    tag_256:\n        /* \"#utility.yul\":5335:5340   */\n      0x00\n        /* \"#utility.yul\":5373:5379   */\n      dup2\n        /* \"#utility.yul\":5360:5380   */\n      calldataload\n        /* \"#utility.yul\":5351:5380   */\n      swap1\n      pop\n        /* \"#utility.yul\":5389:5422   */\n      tag_355\n        /* \"#utility.yul\":5416:5421   */\n      dup2\n        /* \"#utility.yul\":5389:5422   */\n      tag_255\n      jump\t// in\n    tag_355:\n        /* \"#utility.yul\":5289:5428   */\n      swap3\n      swap2\n      pop\n      pop\n      jump\t// out\n        /* \"#utility.yul\":5434:5763   */\n    tag_50:\n        /* \"#utility.yul\":5493:5499   */\n      0x00\n        /* \"#utility.yul\":5542:5544   */\n      0x20\n        /* \"#utility.yul\":5530:5539   */\n      dup3\n        /* \"#utility.yul\":5521:5528   */\n      dup5\n        /* \"#utility.yul\":5517:5540   */\n      sub\n        /* \"#utility.yul\":5513:5545   */\n      slt\n        /* \"#utility.yul\":5510:5629   */\n      iszero\n      tag_357\n      jumpi\n        /* \"#utility.yul\":5548:5627   */\n      tag_358\n      tag_237\n      jump\t// in\n    tag_358:\n        /* \"#utility.yul\":5510:5629   */\n    tag_357:\n        /* \"#utility.yul\":5668:5669   */\n      0x00\n        /* \"#utility.yul\":5693:5746   */\n      tag_359\n        /* \"#utility.yul\":5738:5745   */\n      dup5\n        /* \"#utility.yul\":5729:5735   */\n      dup3\n        /* \"#utility.yul\":5718:5727   */\n      dup6\n        /* \"#utility.yul\":5714:5736   */\n      add\n        /* \"#utility.yul\":5693:5746   */\n      tag_256\n      jump\t// in\n    tag_359:\n        /* \"#utility.yul\":5683:5746   */\n      swap2\n      pop\n        /* \"#utility.yul\":5639:5756   */\n      pop\n        /* \"#utility.yul\":5434:5763   */\n      swap3\n      swap2\n      pop\n      pop\n      jump\t// out\n        /* \"#utility.yul\":5769:6243   */\n    tag_63:\n        /* \"#utility.yul\":5837:5843   */\n      0x00\n        /* \"#utility.yul\":5845:5851   */\n      dup1\n        /* \"#utility.yul\":5894:5896   */\n      0x40\n        /* \"#utility.yul\":5882:5891   */\n      dup4\n        /* \"#utility.yul\":5873:5880   */\n      dup6\n        /* \"#utility.yul\":5869:5892   */\n      sub\n        /* \"#utility.yul\":5865:5897   */\n      slt\n        /* \"#utility.yul\":5862:5981   */\n      iszero\n      tag_361\n      jumpi\n        /* \"#utility.yul\":5900:5979   */\n      tag_362\n      tag_237\n      jump\t// in\n    tag_362:\n        /* \"#utility.yul\":5862:5981   */\n    tag_361:\n        /* \"#utility.yul\":6020:6021   */\n      0x00\n        /* \"#utility.yul\":6045:6098   */\n      tag_363\n        /* \"#utility.yul\":6090:6097   */\n      dup6\n        /* \"#utility.yul\":6081:6087   */\n      dup3\n        /* \"#utility.yul\":6070:6079   */\n      dup7\n        /* \"#utility.yul\":6066:6088   */\n      add\n        /* \"#utility.yul\":6045:6098   */\n      tag_256\n      jump\t// in\n    tag_363:\n        /* \"#utility.yul\":6035:6098   */\n      swap3\n      pop\n        /* \"#utility.yul\":5991:6108   */\n      pop\n        /* \"#utility.yul\":6147:6149   */\n      0x20\n        /* \"#utility.yul\":6173:6226   */\n      tag_364\n        /* \"#utility.yul\":6218:6225   */\n      dup6\n        /* \"#utility.yul\":6209:6215   */\n      dup3\n        /* \"#utility.yul\":6198:6207   */\n      dup7\n        /* \"#utility.yul\":6194:6216   */\n      add\n        /* \"#utility.yul\":6173:6226   */\n      tag_241\n      jump\t// in\n    tag_364:\n        /* \"#utility.yul\":6163:6226   */\n      swap2\n      pop\n        /* \"#utility.yul\":6118:6236   */\n      pop\n        /* \"#utility.yul\":5769:6243   */\n      swap3\n      pop\n      swap3\n      swap1\n      pop\n      jump\t// out\n        /* \"#utility.yul\":6249:6723   */\n    tag_72:\n        /* \"#utility.yul\":6317:6323   */\n      0x00\n        /* \"#utility.yul\":6325:6331   */\n      dup1\n        /* \"#utility.yul\":6374:6376   */\n      0x40\n        /* \"#utility.yul\":6362:6371   */\n      dup4\n        /* \"#utility.yul\":6353:6360   */\n      dup6\n        /* \"#utility.yul\":6349:6372   */\n      sub\n        /* \"#utility.yul\":6345:6377   */\n      slt\n        /* \"#utility.yul\":6342:6461   */\n      iszero\n      tag_366\n      jumpi\n        /* \"#utility.yul\":6380:6459   */\n      tag_367\n      tag_237\n      jump\t// in\n    tag_367:\n        /* \"#utility.yul\":6342:6461   */\n    tag_366:\n        /* \"#utility.yul\":6500:6501   */\n      0x00\n        /* \"#utility.yul\":6525:6578   */\n      tag_368\n        /* \"#utility.yul\":6570:6577   */\n      dup6\n        /* \"#utility.yul\":6561:6567   */\n      dup3\n        /* \"#utility.yul\":6550:6559   */\n      dup7\n        /* \"#utility.yul\":6546:6568   */\n      add\n        /* \"#utility.yul\":6525:6578   */\n      tag_256\n      jump\t// in\n    tag_368:\n        /* \"#utility.yul\":6515:6578   */\n      swap3\n      pop\n        /* \"#utility.yul\":6471:6588   */\n      pop\n        /* \"#utility.yul\":6627:6629   */\n      0x20\n        /* \"#utility.yul\":6653:6706   */\n      tag_369\n        /* \"#utility.yul\":6698:6705   */\n      dup6\n        /* \"#utility.yul\":6689:6695   */\n      dup3\n        /* \"#utility.yul\":6678:6687   */\n      dup7\n        /* \"#utility.yul\":6674:6696   */\n      add\n        /* \"#utility.yul\":6653:6706   */\n      tag_256\n      jump\t// in\n    tag_369:\n        /* \"#utility.yul\":6643:6706   */\n      swap2\n      pop\n        /* \"#utility.yul\":6598:6716   */\n      pop\n        /* \"#utility.yul\":6249:6723   */\n      swap3\n      pop\n      swap3\n      swap1\n      pop\n      jump\t// out\n        /* \"#utility.yul\":6729:7058   */\n    tag_82:\n        /* \"#utility.yul\":6788:6794   */\n      0x00\n        /* \"#utility.yul\":6837:6839   */\n      0x20\n        /* \"#utility.yul\":6825:6834   */\n      dup3\n        /* \"#utility.yul\":6816:6823   */\n      dup5\n        /* \"#utility.yul\":6812:6835   */\n      sub\n        /* \"#utility.yul\":6808:6840   */\n      slt\n        /* \"#utility.yul\":6805:6924   */\n      iszero\n      tag_371\n      jumpi\n        /* \"#utility.yul\":6843:6922   */\n      tag_372\n      tag_237\n      jump\t// in\n    tag_372:\n        /* \"#utility.yul\":6805:6924   */\n    tag_371:\n        /* \"#utility.yul\":6963:6964   */\n      0x00\n        /* \"#utility.yul\":6988:7041   */\n      tag_373\n        /* \"#utility.yul\":7033:7040   */\n      dup5\n        /* \"#utility.yul\":7024:7030   */\n      dup3\n        /* \"#utility.yul\":7013:7022   */\n      dup6\n        /* \"#utility.yul\":7009:7031   */\n      add\n        /* \"#utility.yul\":6988:7041   */\n      tag_241\n      jump\t// in\n    tag_373:\n        /* \"#utility.yul\":6978:7041   */\n      swap2\n      pop\n        /* \"#utility.yul\":6934:7051   */\n      pop\n        /* \"#utility.yul\":6729:7058   */\n      swap3\n      swap2\n      pop\n      pop\n      jump\t// out\n        /* \"#utility.yul\":7064:7190   */\n    tag_257:\n        /* \"#utility.yul\":7101:7108   */\n      0x00\n        /* \"#utility.yul\":7141:7183   */\n      0xffffffffffffffffffffffffffffffffffffffff\n        /* \"#utility.yul\":7134:7139   */\n      dup3\n        /* \"#utility.yul\":7130:7184   */\n      and\n        /* \"#utility.yul\":7119:7184   */\n      swap1\n      pop\n        /* \"#utility.yul\":7064:7190   */\n      swap2\n      swap1\n      pop\n      jump\t// out\n        /* \"#utility.yul\":7196:7292   */\n    tag_258:\n        /* \"#utility.yul\":7233:7240   */\n      0x00\n        /* \"#utility.yul\":7262:7286   */\n      tag_376\n        /* \"#utility.yul\":7280:7285   */\n      dup3\n        /* \"#utility.yul\":7262:7286   */\n      tag_257\n      jump\t// in\n    tag_376:\n        /* \"#utility.yul\":7251:7286   */\n      swap1\n      pop\n        /* \"#utility.yul\":7196:7292   */\n      swap2\n      swap1\n      pop\n      jump\t// out\n        /* \"#utility.yul\":7298:7416   */\n    tag_259:\n        /* \"#utility.yul\":7385:7409   */\n      tag_378\n        /* \"#utility.yul\":7403:7408   */\n      dup2\n        /* \"#utility.yul\":7385:7409   */\n      tag_258\n      jump\t// in\n    tag_378:\n        /* \"#utility.yul\":7380:7383   */\n      dup3\n        /* \"#utility.yul\":7373:7410   */\n      mstore\n        /* \"#utility.yul\":7298:7416   */\n      pop\n      pop\n      jump\t// out\n        /* \"#utility.yul\":7422:7754   */\n    tag_85:\n        /* \"#utility.yul\":7543:7547   */\n      0x00\n        /* \"#utility.yul\":7581:7583   */\n      0x40\n        /* \"#utility.yul\":7570:7579   */\n      dup3\n        /* \"#utility.yul\":7566:7584   */\n      add\n        /* \"#utility.yul\":7558:7584   */\n      swap1\n      pop\n        /* \"#utility.yul\":7594:7665   */\n      tag_380\n        /* \"#utility.yul\":7662:7663   */\n      0x00\n        /* \"#utility.yul\":7651:7660   */\n      dup4\n        /* \"#utility.yul\":7647:7664   */\n      add\n        /* \"#utility.yul\":7638:7644   */\n      dup6\n        /* \"#utility.yul\":7594:7665   */\n      tag_254\n      jump\t// in\n    tag_380:\n        /* \"#utility.yul\":7675:7747   */\n      tag_381\n        /* \"#utility.yul\":7743:7745   */\n      0x20\n        /* \"#utility.yul\":7732:7741   */\n      dup4\n        /* \"#utility.yul\":7728:7746   */\n      add\n        /* \"#utility.yul\":7719:7725   */\n      dup5\n        /* \"#utility.yul\":7675:7747   */\n      tag_259\n      jump\t// in\n    tag_381:\n        /* \"#utility.yul\":7422:7754   */\n      swap4\n      swap3\n      pop\n      pop\n      pop\n      jump\t// out\n        /* \"#utility.yul\":7760:7859   */\n    tag_260:\n        /* \"#utility.yul\":7812:7818   */\n      0x00\n        /* \"#utility.yul\":7846:7851   */\n      dup2\n        /* \"#utility.yul\":7840:7852   */\n      mload\n        /* \"#utility.yul\":7830:7852   */\n      swap1\n      pop\n        /* \"#utility.yul\":7760:7859   */\n      swap2\n      swap1\n      pop\n      jump\t// out\n        /* \"#utility.yul\":7865:8013   */\n    tag_261:\n        /* \"#utility.yul\":7967:7978   */\n      0x00\n        /* \"#utility.yul\":8004:8007   */\n      dup2\n        /* \"#utility.yul\":7989:8007   */\n      swap1\n      pop\n        /* \"#utility.yul\":7865:8013   */\n      swap3\n      swap2\n      pop\n      pop\n      jump\t// out\n        /* \"#utility.yul\":8019:8265   */\n    tag_262:\n        /* \"#utility.yul\":8100:8101   */\n      0x00\n        /* \"#utility.yul\":8110:8223   */\n    tag_385:\n        /* \"#utility.yul\":8124:8130   */\n      dup4\n        /* \"#utility.yul\":8121:8122   */\n      dup2\n        /* \"#utility.yul\":8118:8131   */\n      lt\n        /* \"#utility.yul\":8110:8223   */\n      iszero\n      tag_387\n      jumpi\n        /* \"#utility.yul\":8209:8210   */\n      dup1\n        /* \"#utility.yul\":8204:8207   */\n      dup3\n        /* \"#utility.yul\":8200:8211   */\n      add\n        /* \"#utility.yul\":8194:8212   */\n      mload\n        /* \"#utility.yul\":8190:8191   */\n      dup2\n        /* \"#utility.yul\":8185:8188   */\n      dup5\n        /* \"#utility.yul\":8181:8192   */\n      add\n        /* \"#utility.yul\":8174:8213   */\n      mstore\n        /* \"#utility.yul\":8146:8148   */\n      0x20\n        /* \"#utility.yul\":8143:8144   */\n      dup2\n        /* \"#utility.yul\":8139:8149   */\n      add\n        /* \"#utility.yul\":8134:8149   */\n      swap1\n      pop\n        /* \"#utility.yul\":8110:8223   */\n      jump(tag_385)\n    tag_387:\n        /* \"#utility.yul\":8257:8258   */\n      0x00\n        /* \"#utility.yul\":8248:8254   */\n      dup5\n        /* \"#utility.yul\":8243:8246   */\n      dup5\n        /* \"#utility.yul\":8239:8255   */\n      add\n        /* \"#utility.yul\":8232:8259   */\n      mstore\n        /* \"#utility.yul\":8081:8265   */\n      pop\n        /* \"#utility.yul\":8019:8265   */\n      pop\n      pop\n      pop\n      jump\t// out\n        /* \"#utility.yul\":8271:8661   */\n    tag_263:\n        /* \"#utility.yul\":8377:8380   */\n      0x00\n        /* \"#utility.yul\":8405:8444   */\n      tag_389\n        /* \"#utility.yul\":8438:8443   */\n      dup3\n        /* \"#utility.yul\":8405:8444   */\n      tag_260\n      jump\t// in\n    tag_389:\n        /* \"#utility.yul\":8460:8549   */\n      tag_390\n        /* \"#utility.yul\":8542:8548   */\n      dup2\n        /* \"#utility.yul\":8537:8540   */\n      dup6\n        /* \"#utility.yul\":8460:8549   */\n      tag_261\n      jump\t// in\n    tag_390:\n        /* \"#utility.yul\":8453:8549   */\n      swap4\n      pop\n        /* \"#utility.yul\":8558:8623   */\n      tag_391\n        /* \"#utility.yul\":8616:8622   */\n      dup2\n        /* \"#utility.yul\":8611:8614   */\n      dup6\n        /* \"#utility.yul\":8604:8608   */\n      0x20\n        /* \"#utility.yul\":8597:8602   */\n      dup7\n        /* \"#utility.yul\":8593:8609   */\n      add\n        /* \"#utility.yul\":8558:8623   */\n      tag_262\n      jump\t// in\n    tag_391:\n        /* \"#utility.yul\":8648:8654   */\n      dup1\n        /* \"#utility.yul\":8643:8646   */\n      dup5\n        /* \"#utility.yul\":8639:8655   */\n      add\n        /* \"#utility.yul\":8632:8655   */\n      swap2\n      pop\n        /* \"#utility.yul\":8381:8661   */\n      pop\n        /* \"#utility.yul\":8271:8661   */\n      swap3\n      swap2\n      pop\n      pop\n      jump\t// out\n        /* \"#utility.yul\":8667:8942   */\n    tag_92:\n        /* \"#utility.yul\":8799:8802   */\n      0x00\n        /* \"#utility.yul\":8821:8916   */\n      tag_393\n        /* \"#utility.yul\":8912:8915   */\n      dup3\n        /* \"#utility.yul\":8903:8909   */\n      dup5\n        /* \"#utility.yul\":8821:8916   */\n      tag_263\n      jump\t// in\n    tag_393:\n        /* \"#utility.yul\":8814:8916   */\n      swap2\n      pop\n        /* \"#utility.yul\":8933:8936   */\n      dup2\n        /* \"#utility.yul\":8926:8936   */\n      swap1\n      pop\n        /* \"#utility.yul\":8667:8942   */\n      swap3\n      swap2\n      pop\n      pop\n      jump\t// out\n        /* \"#utility.yul\":8948:9046   */\n    tag_264:\n        /* \"#utility.yul\":8999:9005   */\n      0x00\n        /* \"#utility.yul\":9033:9038   */\n      dup2\n        /* \"#utility.yul\":9027:9039   */\n      mload\n        /* \"#utility.yul\":9017:9039   */\n      swap1\n      pop\n        /* \"#utility.yul\":8948:9046   */\n      swap2\n      swap1\n      pop\n      jump\t// out\n        /* \"#utility.yul\":9052:9168   */\n    tag_265:\n        /* \"#utility.yul\":9103:9107   */\n      0x00\n        /* \"#utility.yul\":9126:9129   */\n      dup2\n        /* \"#utility.yul\":9118:9129   */\n      swap1\n      pop\n        /* \"#utility.yul\":9156:9160   */\n      0x20\n        /* \"#utility.yul\":9151:9154   */\n      dup3\n        /* \"#utility.yul\":9147:9161   */\n      add\n        /* \"#utility.yul\":9139:9161   */\n      swap1\n      pop\n        /* \"#utility.yul\":9052:9168   */\n      swap2\n      swap1\n      pop\n      jump\t// out\n        /* \"#utility.yul\":9174:9328   */\n    tag_266:\n        /* \"#utility.yul\":9217:9228   */\n      0x00\n        /* \"#utility.yul\":9253:9282   */\n      tag_397\n        /* \"#utility.yul\":9277:9280   */\n      dup3\n        /* \"#utility.yul\":9271:9281   */\n      mload\n        /* \"#utility.yul\":9253:9282   */\n      tag_252\n      jump\t// in\n    tag_397:\n        /* \"#utility.yul\":9316:9321   */\n      dup1\n        /* \"#utility.yul\":9292:9321   */\n      swap2\n      pop\n        /* \"#utility.yul\":9229:9328   */\n      pop\n        /* \"#utility.yul\":9174:9328   */\n      swap2\n      swap1\n      pop\n      jump\t// out\n        /* \"#utility.yul\":9334:9441   */\n    tag_267:\n        /* \"#utility.yul\":9378:9386   */\n      0x00\n        /* \"#utility.yul\":9428:9433   */\n      dup3\n        /* \"#utility.yul\":9422:9426   */\n      dup3\n        /* \"#utility.yul\":9418:9434   */\n      shl\n        /* \"#utility.yul\":9397:9434   */\n      swap1\n      pop\n        /* \"#utility.yul\":9334:9441   */\n      swap3\n      swap2\n      pop\n      pop\n      jump\t// out\n        /* \"#utility.yul\":9447:10041   */\n    tag_94:\n        /* \"#utility.yul\":9531:9536   */\n      0x00\n        /* \"#utility.yul\":9562:9600   */\n      tag_400\n        /* \"#utility.yul\":9594:9599   */\n      dup3\n        /* \"#utility.yul\":9562:9600   */\n      tag_264\n      jump\t// in\n    tag_400:\n        /* \"#utility.yul\":9625:9630   */\n      dup3\n        /* \"#utility.yul\":9652:9692   */\n      tag_401\n        /* \"#utility.yul\":9686:9691   */\n      dup5\n        /* \"#utility.yul\":9652:9692   */\n      tag_265\n      jump\t// in\n    tag_401:\n        /* \"#utility.yul\":9640:9692   */\n      swap1\n      pop\n        /* \"#utility.yul\":9711:9746   */\n      tag_402\n        /* \"#utility.yul\":9737:9745   */\n      dup2\n        /* \"#utility.yul\":9711:9746   */\n      tag_266\n      jump\t// in\n    tag_402:\n        /* \"#utility.yul\":9702:9746   */\n      swap3\n      pop\n        /* \"#utility.yul\":9770:9772   */\n      0x20\n        /* \"#utility.yul\":9762:9768   */\n      dup3\n        /* \"#utility.yul\":9759:9773   */\n      lt\n        /* \"#utility.yul\":9756:10034   */\n      iszero\n      tag_403\n      jumpi\n        /* \"#utility.yul\":9841:10010   */\n      tag_404\n        /* \"#utility.yul\":9926:9992   */\n      0xffffffffffffffffffffffffffffffffffffffffffffffffffffffffffffffff\n        /* \"#utility.yul\":9896:9902   */\n      dup4\n        /* \"#utility.yul\":9892:9894   */\n      0x20\n        /* \"#utility.yul\":9888:9903   */\n      sub\n        /* \"#utility.yul\":9885:9886   */\n      0x08\n        /* \"#utility.yul\":9881:9904   */\n      mul\n        /* \"#utility.yul\":9841:10010   */\n      tag_267\n      jump\t// in\n    tag_404:\n        /* \"#utility.yul\":9818:9823   */\n      dup4\n        /* \"#utility.yul\":9797:10024   */\n      and\n        /* \"#utility.yul\":9788:10024   */\n      swap3\n      pop\n        /* \"#utility.yul\":9756:10034   */\n    tag_403:\n        /* \"#utility.yul\":9537:10041   */\n      pop\n      pop\n        /* \"#utility.yul\":9447:10041   */\n      swap2\n      swap1\n      pop\n      jump\t// out\n        /* \"#utility.yul\":10047:10126   */\n    tag_268:\n        /* \"#utility.yul\":10086:10093   */\n      0x00\n        /* \"#utility.yul\":10115:10120   */\n      dup2\n        /* \"#utility.yul\":10104:10120   */\n      swap1\n      pop\n        /* \"#utility.yul\":10047:10126   */\n      swap2\n      swap1\n      pop\n      jump\t// out\n        /* \"#utility.yul\":10132:10289   */\n    tag_269:\n        /* \"#utility.yul\":10237:10282   */\n      tag_407\n        /* \"#utility.yul\":10257:10281   */\n      tag_408\n        /* \"#utility.yul\":10275:10280   */\n      dup3\n        /* \"#utility.yul\":10257:10281   */\n      tag_239\n      jump\t// in\n    tag_408:\n        /* \"#utility.yul\":10237:10282   */\n      tag_268\n      jump\t// in\n    tag_407:\n        /* \"#utility.yul\":10232:10235   */\n      dup3\n        /* \"#utility.yul\":10225:10283   */\n      mstore\n        /* \"#utility.yul\":10132:10289   */\n      pop\n      pop\n      jump\t// out\n        /* \"#utility.yul\":10295:10374   */\n    tag_270:\n        /* \"#utility.yul\":10334:10341   */\n      0x00\n        /* \"#utility.yul\":10363:10368   */\n      dup2\n        /* \"#utility.yul\":10352:10368   */\n      swap1\n      pop\n        /* \"#utility.yul\":10295:10374   */\n      swap2\n      swap1\n      pop\n      jump\t// out\n        /* \"#utility.yul\":10380:10537   */\n    tag_271:\n        /* \"#utility.yul\":10485:10530   */\n      tag_411\n        /* \"#utility.yul\":10505:10529   */\n      tag_412\n        /* \"#utility.yul\":10523:10528   */\n      dup3\n        /* \"#utility.yul\":10505:10529   */\n      tag_252\n      jump\t// in\n    tag_412:\n        /* \"#utility.yul\":10485:10530   */\n      tag_270\n      jump\t// in\n    tag_411:\n        /* \"#utility.yul\":10480:10483   */\n      dup3\n        /* \"#utility.yul\":10473:10531   */\n      mstore\n        /* \"#utility.yul\":10380:10537   */\n      pop\n      pop\n      jump\t// out\n        /* \"#utility.yul\":10543:10940   */\n    tag_96:\n        /* \"#utility.yul\":10683:10686   */\n      0x00\n        /* \"#utility.yul\":10698:10773   */\n      tag_414\n        /* \"#utility.yul\":10769:10772   */\n      dup3\n        /* \"#utility.yul\":10760:10766   */\n      dup6\n        /* \"#utility.yul\":10698:10773   */\n      tag_269\n      jump\t// in\n    tag_414:\n        /* \"#utility.yul\":10798:10800   */\n      0x20\n        /* \"#utility.yul\":10793:10796   */\n      dup3\n        /* \"#utility.yul\":10789:10801   */\n      add\n        /* \"#utility.yul\":10782:10801   */\n      swap2\n      pop\n        /* \"#utility.yul\":10811:10886   */\n      tag_415\n        /* \"#utility.yul\":10882:10885   */\n      dup3\n        /* \"#utility.yul\":10873:10879   */\n      dup5\n        /* \"#utility.yul\":10811:10886   */\n      tag_271\n      jump\t// in\n    tag_415:\n        /* \"#utility.yul\":10911:10913   */\n      0x20\n        /* \"#utility.yul\":10906:10909   */\n      dup3\n        /* \"#utility.yul\":10902:10914   */\n      add\n        /* \"#utility.yul\":10895:10914   */\n      swap2\n      pop\n        /* \"#utility.yul\":10931:10934   */\n      dup2\n        /* \"#utility.yul\":10924:10934   */\n      swap1\n      pop\n        /* \"#utility.yul\":10543:10940   */\n      swap4\n      swap3\n      pop\n      pop\n      pop\n      jump\t// out\n        /* \"#utility.yul\":10946:11126   */\n    tag_272:\n        /* \"#utility.yul\":10994:11071   */\n      0x4e487b7100000000000000000000000000000000000000000000000000000000\n        /* \"#utility.yul\":10991:10992   */\n      0x00\n        /* \"#utility.yul\":10984:11072   */\n      mstore\n        /* \"#utility.yul\":11091:11095   */\n      0x11\n        /* \"#utility.yul\":11088:11089   */\n      0x04\n        /* \"#utility.yul\":11081:11096   */\n      mstore\n        /* \"#utility.yul\":11115:11119   */\n      0x24\n        /* \"#utility.yul\":11112:11113   */\n      0x00\n        /* \"#utility.yul\":11105:11120   */\n      revert\n        /* \"#utility.yul\":11132:11365   */\n    tag_108:\n        /* \"#utility.yul\":11171:11174   */\n      0x00\n        /* \"#utility.yul\":11194:11218   */\n      tag_418\n        /* \"#utility.yul\":11212:11217   */\n      dup3\n        /* \"#utility.yul\":11194:11218   */\n      tag_239\n      jump\t// in\n    tag_418:\n        /* \"#utility.yul\":11185:11218   */\n      swap2\n      pop\n        /* \"#utility.yul\":11240:11306   */\n      0xffffffffffffffffffffffffffffffffffffffffffffffffffffffffffffffff\n        /* \"#utility.yul\":11233:11238   */\n      dup3\n        /* \"#utility.yul\":11230:11307   */\n      sub\n        /* \"#utility.yul\":11227:11330   */\n      tag_419\n      jumpi\n        /* \"#utility.yul\":11310:11328   */\n      tag_420\n      tag_272\n      jump\t// in\n    tag_420:\n        /* \"#utility.yul\":11227:11330   */\n    tag_419:\n        /* \"#utility.yul\":11357:11358   */\n      0x01\n        /* \"#utility.yul\":11350:11355   */\n      dup3\n        /* \"#utility.yul\":11346:11359   */\n      add\n        /* \"#utility.yul\":11339:11359   */\n      swap1\n      pop\n        /* \"#utility.yul\":11132:11365   */\n      swap2\n      swap1\n      pop\n      jump\t// out\n        /* \"#utility.yul\":11371:11562   */\n    tag_116:\n        /* \"#utility.yul\":11411:11414   */\n      0x00\n        /* \"#utility.yul\":11430:11450   */\n      tag_422\n        /* \"#utility.yul\":11448:11449   */\n      dup3\n        /* \"#utility.yul\":11430:11450   */\n      tag_239\n      jump\t// in\n    tag_422:\n        /* \"#utility.yul\":11425:11450   */\n      swap2\n      pop\n        /* \"#utility.yul\":11464:11484   */\n      tag_423\n        /* \"#utility.yul\":11482:11483   */\n      dup4\n        /* \"#utility.yul\":11464:11484   */\n      tag_239\n      jump\t// in\n    tag_423:\n        /* \"#utility.yul\":11459:11484   */\n      swap3\n      pop\n        /* \"#utility.yul\":11507:11508   */\n      dup3\n        /* \"#utility.yul\":11504:11505   */\n      dup3\n        /* \"#utility.yul\":11500:11509   */\n      add\n        /* \"#utility.yul\":11493:11509   */\n      swap1\n      pop\n        /* \"#utility.yul\":11528:11531   */\n      dup1\n        /* \"#utility.yul\":11525:11526   */\n      dup3\n        /* \"#utility.yul\":11522:11532   */\n      gt\n        /* \"#utility.yul\":11519:11555   */\n      iszero\n      tag_424\n      jumpi\n        /* \"#utility.yul\":11535:11553   */\n      tag_425\n      tag_272\n      jump\t// in\n    tag_425:\n        /* \"#utility.yul\":11519:11555   */\n    tag_424:\n        /* \"#utility.yul\":11371:11562   */\n      swap3\n      swap2\n      pop\n      pop\n      jump\t// out\n        /* \"#utility.yul\":11568:11662   */\n    tag_273:\n        /* \"#utility.yul\":11601:11609   */\n      0x00\n        /* \"#utility.yul\":11649:11654   */\n      dup2\n        /* \"#utility.yul\":11645:11647   */\n      0x60\n        /* \"#utility.yul\":11641:11655   */\n      shl\n        /* \"#utility.yul\":11620:11655   */\n      swap1\n      pop\n        /* \"#utility.yul\":11568:11662   */\n      swap2\n      swap1\n      pop\n      jump\t// out\n        /* \"#utility.yul\":11668:11762   */\n    tag_274:\n        /* \"#utility.yul\":11707:11714   */\n      0x00\n        /* \"#utility.yul\":11736:11756   */\n      tag_428\n        /* \"#utility.yul\":11750:11755   */\n      dup3\n        /* \"#utility.yul\":11736:11756   */\n      tag_273\n      jump\t// in\n    tag_428:\n        /* \"#utility.yul\":11725:11756   */\n      swap1\n      pop\n        /* \"#utility.yul\":11668:11762   */\n      swap2\n      swap1\n      pop\n      jump\t// out\n        /* \"#utility.yul\":11768:11868   */\n    tag_275:\n        /* \"#utility.yul\":11807:11814   */\n      0x00\n        /* \"#utility.yul\":11836:11862   */\n      tag_430\n        /* \"#utility.yul\":11856:11861   */\n      dup3\n        /* \"#utility.yul\":11836:11862   */\n      tag_274\n      jump\t// in\n    tag_430:\n        /* \"#utility.yul\":11825:11862   */\n      swap1\n      pop\n        /* \"#utility.yul\":11768:11868   */\n      swap2\n      swap1\n      pop\n      jump\t// out\n        /* \"#utility.yul\":11874:12031   */\n    tag_276:\n        /* \"#utility.yul\":11979:12024   */\n      tag_432\n        /* \"#utility.yul\":11999:12023   */\n      tag_433\n        /* \"#utility.yul\":12017:12022   */\n      dup3\n        /* \"#utility.yul\":11999:12023   */\n      tag_258\n      jump\t// in\n    tag_433:\n        /* \"#utility.yul\":11979:12024   */\n      tag_275\n      jump\t// in\n    tag_432:\n        /* \"#utility.yul\":11974:11977   */\n      dup3\n        /* \"#utility.yul\":11967:12025   */\n      mstore\n        /* \"#utility.yul\":11874:12031   */\n      pop\n      pop\n      jump\t// out\n        /* \"#utility.yul\":12037:12434   */\n    tag_120:\n        /* \"#utility.yul\":12177:12180   */\n      0x00\n        /* \"#utility.yul\":12192:12267   */\n      tag_435\n        /* \"#utility.yul\":12263:12266   */\n      dup3\n        /* \"#utility.yul\":12254:12260   */\n      dup6\n        /* \"#utility.yul\":12192:12267   */\n      tag_276\n      jump\t// in\n    tag_435:\n        /* \"#utility.yul\":12292:12294   */\n      0x14\n        /* \"#utility.yul\":12287:12290   */\n      dup3\n        /* \"#utility.yul\":12283:12295   */\n      add\n        /* \"#utility.yul\":12276:12295   */\n      swap2\n      pop\n        /* \"#utility.yul\":12305:12380   */\n      tag_436\n        /* \"#utility.yul\":12376:12379   */\n      dup3\n        /* \"#utility.yul\":12367:12373   */\n      dup5\n        /* \"#utility.yul\":12305:12380   */\n      tag_271\n      jump\t// in\n    tag_436:\n        /* \"#utility.yul\":12405:12407   */\n      0x20\n        /* \"#utility.yul\":12400:12403   */\n      dup3\n        /* \"#utility.yul\":12396:12408   */\n      add\n        /* \"#utility.yul\":12389:12408   */\n      swap2\n      pop\n        /* \"#utility.yul\":12425:12428   */\n      dup2\n        /* \"#utility.yul\":12418:12428   */\n      swap1\n      pop\n        /* \"#utility.yul\":12037:12434   */\n      swap4\n      swap3\n      pop\n      pop\n      pop\n      jump\t// out\n        /* \"#utility.yul\":12440:12609   */\n    tag_277:\n        /* \"#utility.yul\":12524:12535   */\n      0x00\n        /* \"#utility.yul\":12558:12564   */\n      dup3\n        /* \"#utility.yul\":12553:12556   */\n      dup3\n        /* \"#utility.yul\":12546:12565   */\n      mstore\n        /* \"#utility.yul\":12598:12602   */\n      0x20\n        /* \"#utility.yul\":12593:12596   */\n      dup3\n        /* \"#utility.yul\":12589:12603   */\n      add\n        /* \"#utility.yul\":12574:12603   */\n      swap1\n      pop\n        /* \"#utility.yul\":12440:12609   */\n      swap3\n      swap2\n      pop\n      pop\n      jump\t// out\n        /* \"#utility.yul\":12615:12778   */\n    tag_278:\n        /* \"#utility.yul\":12755:12770   */\n      0x496e76616c696420737461746500000000000000000000000000000000000000\n        /* \"#utility.yul\":12751:12752   */\n      0x00\n        /* \"#utility.yul\":12743:12749   */\n      dup3\n        /* \"#utility.yul\":12739:12753   */\n      add\n        /* \"#utility.yul\":12732:12771   */\n      mstore\n        /* \"#utility.yul\":12615:12778   */\n      pop\n      jump\t// out\n        /* \"#utility.yul\":12784:13150   */\n    tag_279:\n        /* \"#utility.yul\":12926:12929   */\n      0x00\n        /* \"#utility.yul\":12947:13014   */\n      tag_440\n        /* \"#utility.yul\":13011:13013   */\n      0x0d\n        /* \"#utility.yul\":13006:13009   */\n      dup4\n        /* \"#utility.yul\":12947:13014   */\n      tag_277\n      jump\t// in\n    tag_440:\n        /* \"#utility.yul\":12940:13014   */\n      swap2\n      pop\n        /* \"#utility.yul\":13023:13116   */\n      tag_441\n        /* \"#utility.yul\":13112:13115   */\n      dup3\n        /* \"#utility.yul\":13023:13116   */\n      tag_278\n      jump\t// in\n    tag_441:\n        /* \"#utility.yul\":13141:13143   */\n      0x20\n        /* \"#utility.yul\":13136:13139   */\n      dup3\n        /* \"#utility.yul\":13132:13144   */\n      add\n        /* \"#utility.yul\":13125:13144   */\n      swap1\n      pop\n        /* \"#utility.yul\":12784:13150   */\n      swap2\n      swap1\n      pop\n      jump\t// out\n        /* \"#utility.yul\":13156:13575   */\n    tag_133:\n        /* \"#utility.yul\":13322:13326   */\n      0x00\n        /* \"#utility.yul\":13360:13362   */\n      0x20\n        /* \"#utility.yul\":13349:13358   */\n      dup3\n        /* \"#utility.yul\":13345:13363   */\n      add\n        /* \"#utility.yul\":13337:13363   */\n      swap1\n      pop\n        /* \"#utility.yul\":13409:13418   */\n      dup2\n        /* \"#utility.yul\":13403:13407   */\n      dup2\n        /* \"#utility.yul\":13399:13419   */\n      sub\n        /* \"#utility.yul\":13395:13396   */\n      0x00\n        /* \"#utility.yul\":13384:13393   */\n      dup4\n        /* \"#utility.yul\":13380:13397   */\n      add\n        /* \"#utility.yul\":13373:13420   */\n      mstore\n        /* \"#utility.yul\":13437:13568   */\n      tag_443\n        /* \"#utility.yul\":13563:13567   */\n      dup2\n        /* \"#utility.yul\":13437:13568   */\n      tag_279\n      jump\t// in\n    tag_443:\n        /* \"#utility.yul\":13429:13568   */\n      swap1\n      pop\n        /* \"#utility.yul\":13156:13575   */\n      swap2\n      swap1\n      pop\n      jump\t// out\n        /* \"#utility.yul\":13581:13775   */\n    tag_136:\n        /* \"#utility.yul\":13621:13625   */\n      0x00\n        /* \"#utility.yul\":13641:13661   */\n      tag_445\n        /* \"#utility.yul\":13659:13660   */\n      dup3\n        /* \"#utility.yul\":13641:13661   */\n      tag_239\n      jump\t// in\n    tag_445:\n        /* \"#utility.yul\":13636:13661   */\n      swap2\n      pop\n        /* \"#utility.yul\":13675:13695   */\n      tag_446\n        /* \"#utility.yul\":13693:13694   */\n      dup4\n        /* \"#utility.yul\":13675:13695   */\n      tag_239\n      jump\t// in\n    tag_446:\n        /* \"#utility.yul\":13670:13695   */\n      swap3\n      pop\n        /* \"#utility.yul\":13719:13720   */\n      dup3\n        /* \"#utility.yul\":13716:13717   */\n      dup3\n        /* \"#utility.yul\":13712:13721   */\n      sub\n        /* \"#utility.yul\":13704:13721   */\n      swap1\n      pop\n        /* \"#utility.yul\":13743:13744   */\n      dup2\n        /* \"#utility.yul\":13737:13741   */\n      dup2\n        /* \"#utility.yul\":13734:13745   */\n      gt\n        /* \"#utility.yul\":13731:13768   */\n      iszero\n      tag_447\n      jumpi\n        /* \"#utility.yul\":13748:13766   */\n      tag_448\n      tag_272\n      jump\t// in\n    tag_448:\n        /* \"#utility.yul\":13731:13768   */\n    tag_447:\n        /* \"#utility.yul\":13581:13775   */\n      swap3\n      swap2\n      pop\n      pop\n      jump\t// out\n        /* \"#utility.yul\":13781:13961   */\n    tag_280:\n        /* \"#utility.yul\":13829:13906   */\n      0x4e487b7100000000000000000000000000000000000000000000000000000000\n        /* \"#utility.yul\":13826:13827   */\n      0x00\n        /* \"#utility.yul\":13819:13907   */\n      mstore\n        /* \"#utility.yul\":13926:13930   */\n      0x12\n        /* \"#utility.yul\":13923:13924   */\n      0x04\n        /* \"#utility.yul\":13916:13931   */\n      mstore\n        /* \"#utility.yul\":13950:13954   */\n      0x24\n        /* \"#utility.yul\":13947:13948   */\n      0x00\n        /* \"#utility.yul\":13940:13955   */\n      revert\n        /* \"#utility.yul\":13967:14152   */\n    tag_151:\n        /* \"#utility.yul\":14007:14008   */\n      0x00\n        /* \"#utility.yul\":14024:14044   */\n      tag_451\n        /* \"#utility.yul\":14042:14043   */\n      dup3\n        /* \"#utility.yul\":14024:14044   */\n      tag_239\n      jump\t// in\n    tag_451:\n        /* \"#utility.yul\":14019:14044   */\n      swap2\n      pop\n        /* \"#utility.yul\":14058:14078   */\n      tag_452\n        /* \"#utility.yul\":14076:14077   */\n      dup4\n        /* \"#utility.yul\":14058:14078   */\n      tag_239\n      jump\t// in\n    tag_452:\n        /* \"#utility.yul\":14053:14078   */\n      swap3\n      pop\n        /* \"#utility.yul\":14097:14098   */\n      dup3\n        /* \"#utility.yul\":14087:14122   */\n      tag_453\n      jumpi\n        /* \"#utility.yul\":14102:14120   */\n      tag_454\n      tag_280\n      jump\t// in\n    tag_454:\n        /* \"#utility.yul\":14087:14122   */\n    tag_453:\n        /* \"#utility.yul\":14144:14145   */\n      dup3\n        /* \"#utility.yul\":14141:14142   */\n      dup3\n        /* \"#utility.yul\":14137:14146   */\n      div\n        /* \"#utility.yul\":14132:14146   */\n      swap1\n      pop\n        /* \"#utility.yul\":13967:14152   */\n      swap3\n      swap2\n      pop\n      pop\n      jump\t// out\n        /* \"#utility.yul\":14158:14696   */\n    tag_177:\n        /* \"#utility.yul\":14326:14329   */\n      0x00\n        /* \"#utility.yul\":14341:14416   */\n      tag_456\n        /* \"#utility.yul\":14412:14415   */\n      dup3\n        /* \"#utility.yul\":14403:14409   */\n      dup7\n        /* \"#utility.yul\":14341:14416   */\n      tag_276\n      jump\t// in\n    tag_456:\n        /* \"#utility.yul\":14441:14443   */\n      0x14\n        /* \"#utility.yul\":14436:14439   */\n      dup3\n        /* \"#utility.yul\":14432:14444   */\n      add\n        /* \"#utility.yul\":14425:14444   */\n      swap2\n      pop\n        /* \"#utility.yul\":14454:14529   */\n      tag_457\n        /* \"#utility.yul\":14525:14528   */\n      dup3\n        /* \"#utility.yul\":14516:14522   */\n      dup6\n        /* \"#utility.yul\":14454:14529   */\n      tag_271\n      jump\t// in\n    tag_457:\n        /* \"#utility.yul\":14554:14556   */\n      0x20\n        /* \"#utility.yul\":14549:14552   */\n      dup3\n        /* \"#utility.yul\":14545:14557   */\n      add\n        /* \"#utility.yul\":14538:14557   */\n      swap2\n      pop\n        /* \"#utility.yul\":14567:14642   */\n      tag_458\n        /* \"#utility.yul\":14638:14641   */\n      dup3\n        /* \"#utility.yul\":14629:14635   */\n      dup5\n        /* \"#utility.yul\":14567:14642   */\n      tag_271\n      jump\t// in\n    tag_458:\n        /* \"#utility.yul\":14667:14669   */\n      0x20\n        /* \"#utility.yul\":14662:14665   */\n      dup3\n        /* \"#utility.yul\":14658:14670   */\n      add\n        /* \"#utility.yul\":14651:14670   */\n      swap2\n      pop\n        /* \"#utility.yul\":14687:14690   */\n      dup2\n        /* \"#utility.yul\":14680:14690   */\n      swap1\n      pop\n        /* \"#utility.yul\":14158:14696   */\n      swap5\n      swap4\n      pop\n      pop\n      pop\n      pop\n      jump\t// out\n        /* \"#utility.yul\":14702:14927   */\n    tag_281:\n        /* \"#utility.yul\":14842:14876   */\n      0x436f6d6d697452657665616c3a3a72657665616c3a20416c7265616479207265\n        /* \"#utility.yul\":14838:14839   */\n      0x00\n        /* \"#utility.yul\":14830:14836   */\n      dup3\n        /* \"#utility.yul\":14826:14840   */\n      add\n        /* \"#utility.yul\":14819:14877   */\n      mstore\n        /* \"#utility.yul\":14911:14919   */\n      0x7665616c65640000000000000000000000000000000000000000000000000000\n        /* \"#utility.yul\":14906:14908   */\n      0x20\n        /* \"#utility.yul\":14898:14904   */\n      dup3\n        /* \"#utility.yul\":14894:14909   */\n      add\n        /* \"#utility.yul\":14887:14920   */\n      mstore\n        /* \"#utility.yul\":14702:14927   */\n      pop\n      jump\t// out\n        /* \"#utility.yul\":14933:15299   */\n    tag_282:\n        /* \"#utility.yul\":15075:15078   */\n      0x00\n        /* \"#utility.yul\":15096:15163   */\n      tag_461\n        /* \"#utility.yul\":15160:15162   */\n      0x26\n        /* \"#utility.yul\":15155:15158   */\n      dup4\n        /* \"#utility.yul\":15096:15163   */\n      tag_277\n      jump\t// in\n    tag_461:\n        /* \"#utility.yul\":15089:15163   */\n      swap2\n      pop\n        /* \"#utility.yul\":15172:15265   */\n      tag_462\n        /* \"#utility.yul\":15261:15264   */\n      dup3\n        /* \"#utility.yul\":15172:15265   */\n      tag_281\n      jump\t// in\n    tag_462:\n        /* \"#utility.yul\":15290:15292   */\n      0x40\n        /* \"#utility.yul\":15285:15288   */\n      dup3\n        /* \"#utility.yul\":15281:15293   */\n      add\n        /* \"#utility.yul\":15274:15293   */\n      swap1\n      pop\n        /* \"#utility.yul\":14933:15299   */\n      swap2\n      swap1\n      pop\n      jump\t// out\n        /* \"#utility.yul\":15305:15724   */\n    tag_181:\n        /* \"#utility.yul\":15471:15475   */\n      0x00\n        /* \"#utility.yul\":15509:15511   */\n      0x20\n        /* \"#utility.yul\":15498:15507   */\n      dup3\n        /* \"#utility.yul\":15494:15512   */\n      add\n        /* \"#utility.yul\":15486:15512   */\n      swap1\n      pop\n        /* \"#utility.yul\":15558:15567   */\n      dup2\n        /* \"#utility.yul\":15552:15556   */\n      dup2\n        /* \"#utility.yul\":15548:15568   */\n      sub\n        /* \"#utility.yul\":15544:15545   */\n      0x00\n        /* \"#utility.yul\":15533:15542   */\n      dup4\n        /* \"#utility.yul\":15529:15546   */\n      add\n        /* \"#utility.yul\":15522:15569   */\n      mstore\n        /* \"#utility.yul\":15586:15717   */\n      tag_464\n        /* \"#utility.yul\":15712:15716   */\n      dup2\n        /* \"#utility.yul\":15586:15717   */\n      tag_282\n      jump\t// in\n    tag_464:\n        /* \"#utility.yul\":15578:15717   */\n      swap1\n      pop\n        /* \"#utility.yul\":15305:15724   */\n      swap2\n      swap1\n      pop\n      jump\t// out\n        /* \"#utility.yul\":15730:15974   */\n    tag_283:\n        /* \"#utility.yul\":15870:15904   */\n      0x436f6d6d697452657665616c3a3a72657665616c3a2052657665616c65642068\n        /* \"#utility.yul\":15866:15867   */\n      0x00\n        /* \"#utility.yul\":15858:15864   */\n      dup3\n        /* \"#utility.yul\":15854:15868   */\n      add\n        /* \"#utility.yul\":15847:15905   */\n      mstore\n        /* \"#utility.yul\":15939:15966   */\n      0x61736820646f6573206e6f74206d6174636820636f6d6d697400000000000000\n        /* \"#utility.yul\":15934:15936   */\n      0x20\n        /* \"#utility.yul\":15926:15932   */\n      dup3\n        /* \"#utility.yul\":15922:15937   */\n      add\n        /* \"#utility.yul\":15915:15967   */\n      mstore\n        /* \"#utility.yul\":15730:15974   */\n      pop\n      jump\t// out\n        /* \"#utility.yul\":15980:16346   */\n    tag_284:\n        /* \"#utility.yul\":16122:16125   */\n      0x00\n        /* \"#utility.yul\":16143:16210   */\n      tag_467\n        /* \"#utility.yul\":16207:16209   */\n      0x39\n        /* \"#utility.yul\":16202:16205   */\n      dup4\n        /* \"#utility.yul\":16143:16210   */\n      tag_277\n      jump\t// in\n    tag_467:\n        /* \"#utility.yul\":16136:16210   */\n      swap2\n      pop\n        /* \"#utility.yul\":16219:16312   */\n      tag_468\n        /* \"#utility.yul\":16308:16311   */\n      dup3\n        /* \"#utility.yul\":16219:16312   */\n      tag_283\n      jump\t// in\n    tag_468:\n        /* \"#utility.yul\":16337:16339   */\n      0x40\n        /* \"#utility.yul\":16332:16335   */\n      dup3\n        /* \"#utility.yul\":16328:16340   */\n      add\n        /* \"#utility.yul\":16321:16340   */\n      swap1\n      pop\n        /* \"#utility.yul\":15980:16346   */\n      swap2\n      swap1\n      pop\n      jump\t// out\n        /* \"#utility.yul\":16352:16771   */\n    tag_185:\n        /* \"#utility.yul\":16518:16522   */\n      0x00\n        /* \"#utility.yul\":16556:16558   */\n      0x20\n        /* \"#utility.yul\":16545:16554   */\n      dup3\n        /* \"#utility.yul\":16541:16559   */\n      add\n        /* \"#utility.yul\":16533:16559   */\n      swap1\n      pop\n        /* \"#utility.yul\":16605:16614   */\n      dup2\n        /* \"#utility.yul\":16599:16603   */\n      dup2\n        /* \"#utility.yul\":16595:16615   */\n      sub\n        /* \"#utility.yul\":16591:16592   */\n      0x00\n        /* \"#utility.yul\":16580:16589   */\n      dup4\n        /* \"#utility.yul\":16576:16593   */\n      add\n        /* \"#utility.yul\":16569:16616   */\n      mstore\n        /* \"#utility.yul\":16633:16764   */\n      tag_470\n        /* \"#utility.yul\":16759:16763   */\n      dup2\n        /* \"#utility.yul\":16633:16764   */\n      tag_284\n      jump\t// in\n    tag_470:\n        /* \"#utility.yul\":16625:16764   */\n      swap1\n      pop\n        /* \"#utility.yul\":16352:16771   */\n      swap2\n      swap1\n      pop\n      jump\t// out\n        /* \"#utility.yul\":16777:17067   */\n    tag_285:\n        /* \"#utility.yul\":16917:16951   */\n      0x436f6d6d697452657665616c3a3a72657665616c3a2052657665616c20616e64\n        /* \"#utility.yul\":16913:16914   */\n      0x00\n        /* \"#utility.yul\":16905:16911   */\n      dup3\n        /* \"#utility.yul\":16901:16915   */\n      add\n        /* \"#utility.yul\":16894:16952   */\n      mstore\n        /* \"#utility.yul\":16986:17020   */\n      0x20636f6d6d69742068617070656e6564206f6e207468652073616d6520626c6f\n        /* \"#utility.yul\":16981:16983   */\n      0x20\n        /* \"#utility.yul\":16973:16979   */\n      dup3\n        /* \"#utility.yul\":16969:16984   */\n      add\n        /* \"#utility.yul\":16962:17021   */\n      mstore\n        /* \"#utility.yul\":17055:17059   */\n      0x636b000000000000000000000000000000000000000000000000000000000000\n        /* \"#utility.yul\":17050:17052   */\n      0x40\n        /* \"#utility.yul\":17042:17048   */\n      dup3\n        /* \"#utility.yul\":17038:17053   */\n      add\n        /* \"#utility.yul\":17031:17060   */\n      mstore\n        /* \"#utility.yul\":16777:17067   */\n      pop\n      jump\t// out\n        /* \"#utility.yul\":17073:17439   */\n    tag_286:\n        /* \"#utility.yul\":17215:17218   */\n      0x00\n        /* \"#utility.yul\":17236:17303   */\n      tag_473\n        /* \"#utility.yul\":17300:17302   */\n      0x42\n        /* \"#utility.yul\":17295:17298   */\n      dup4\n        /* \"#utility.yul\":17236:17303   */\n      tag_277\n      jump\t// in\n    tag_473:\n        /* \"#utility.yul\":17229:17303   */\n      swap2\n      pop\n        /* \"#utility.yul\":17312:17405   */\n      tag_474\n        /* \"#utility.yul\":17401:17404   */\n      dup3\n        /* \"#utility.yul\":17312:17405   */\n      tag_285\n      jump\t// in\n    tag_474:\n        /* \"#utility.yul\":17430:17432   */\n      0x60\n        /* \"#utility.yul\":17425:17428   */\n      dup3\n        /* \"#utility.yul\":17421:17433   */\n      add\n        /* \"#utility.yul\":17414:17433   */\n      swap1\n      pop\n        /* \"#utility.yul\":17073:17439   */\n      swap2\n      swap1\n      pop\n      jump\t// out\n        /* \"#utility.yul\":17445:17864   */\n    tag_188:\n        /* \"#utility.yul\":17611:17615   */\n      0x00\n        /* \"#utility.yul\":17649:17651   */\n      0x20\n        /* \"#utility.yul\":17638:17647   */\n      dup3\n        /* \"#utility.yul\":17634:17652   */\n      add\n        /* \"#utility.yul\":17626:17652   */\n      swap1\n      pop\n        /* \"#utility.yul\":17698:17707   */\n      dup2\n        /* \"#utility.yul\":17692:17696   */\n      dup2\n        /* \"#utility.yul\":17688:17708   */\n      sub\n        /* \"#utility.yul\":17684:17685   */\n      0x00\n        /* \"#utility.yul\":17673:17682   */\n      dup4\n        /* \"#utility.yul\":17669:17686   */\n      add\n        /* \"#utility.yul\":17662:17709   */\n      mstore\n        /* \"#utility.yul\":17726:17857   */\n      tag_476\n        /* \"#utility.yul\":17852:17856   */\n      dup2\n        /* \"#utility.yul\":17726:17857   */\n      tag_286\n      jump\t// in\n    tag_476:\n        /* \"#utility.yul\":17718:17857   */\n      swap1\n      pop\n        /* \"#utility.yul\":17445:17864   */\n      swap2\n      swap1\n      pop\n      jump\t// out\n        /* \"#utility.yul\":17870:17971   */\n    tag_287:\n        /* \"#utility.yul\":17906:17913   */\n      0x00\n        /* \"#utility.yul\":17946:17964   */\n      0xffffffffffffffff\n        /* \"#utility.yul\":17939:17944   */\n      dup3\n        /* \"#utility.yul\":17935:17965   */\n      and\n        /* \"#utility.yul\":17924:17965   */\n      swap1\n      pop\n        /* \"#utility.yul\":17870:17971   */\n      swap2\n      swap1\n      pop\n      jump\t// out\n        /* \"#utility.yul\":17977:18182   */\n    tag_190:\n        /* \"#utility.yul\":18016:18019   */\n      0x00\n        /* \"#utility.yul\":18035:18054   */\n      tag_479\n        /* \"#utility.yul\":18052:18053   */\n      dup3\n        /* \"#utility.yul\":18035:18054   */\n      tag_287\n      jump\t// in\n    tag_479:\n        /* \"#utility.yul\":18030:18054   */\n      swap2\n      pop\n        /* \"#utility.yul\":18068:18087   */\n      tag_480\n        /* \"#utility.yul\":18085:18086   */\n      dup4\n        /* \"#utility.yul\":18068:18087   */\n      tag_287\n      jump\t// in\n    tag_480:\n        /* \"#utility.yul\":18063:18087   */\n      swap3\n      pop\n        /* \"#utility.yul\":18110:18111   */\n      dup3\n        /* \"#utility.yul\":18107:18108   */\n      dup3\n        /* \"#utility.yul\":18103:18112   */\n      add\n        /* \"#utility.yul\":18096:18112   */\n      swap1\n      pop\n        /* \"#utility.yul\":18133:18151   */\n      0xffffffffffffffff\n        /* \"#utility.yul\":18128:18131   */\n      dup2\n        /* \"#utility.yul\":18125:18152   */\n      gt\n        /* \"#utility.yul\":18122:18175   */\n      iszero\n      tag_481\n      jumpi\n        /* \"#utility.yul\":18155:18173   */\n      tag_482\n      tag_272\n      jump\t// in\n    tag_482:\n        /* \"#utility.yul\":18122:18175   */\n    tag_481:\n        /* \"#utility.yul\":17977:18182   */\n      swap3\n      swap2\n      pop\n      pop\n      jump\t// out\n        /* \"#utility.yul\":18188:18414   */\n    tag_288:\n        /* \"#utility.yul\":18328:18362   */\n      0x436f6d6d697452657665616c3a3a72657665616c3a2052657665616c65642074\n        /* \"#utility.yul\":18324:18325   */\n      0x00\n        /* \"#utility.yul\":18316:18322   */\n      dup3\n        /* \"#utility.yul\":18312:18326   */\n      add\n        /* \"#utility.yul\":18305:18363   */\n      mstore\n        /* \"#utility.yul\":18397:18406   */\n      0x6f6f206c61746500000000000000000000000000000000000000000000000000\n        /* \"#utility.yul\":18392:18394   */\n      0x20\n        /* \"#utility.yul\":18384:18390   */\n      dup3\n        /* \"#utility.yul\":18380:18395   */\n      add\n        /* \"#utility.yul\":18373:18407   */\n      mstore\n        /* \"#utility.yul\":18188:18414   */\n      pop\n      jump\t// out\n        /* \"#utility.yul\":18420:18786   */\n    tag_289:\n        /* \"#utility.yul\":18562:18565   */\n      0x00\n        /* \"#utility.yul\":18583:18650   */\n      tag_485\n        /* \"#utility.yul\":18647:18649   */\n      0x27\n        /* \"#utility.yul\":18642:18645   */\n      dup4\n        /* \"#utility.yul\":18583:18650   */\n      tag_277\n      jump\t// in\n    tag_485:\n        /* \"#utility.yul\":18576:18650   */\n      swap2\n      pop\n        /* \"#utility.yul\":18659:18752   */\n      tag_486\n        /* \"#utility.yul\":18748:18751   */\n      dup3\n        /* \"#utility.yul\":18659:18752   */\n      tag_288\n      jump\t// in\n    tag_486:\n        /* \"#utility.yul\":18777:18779   */\n      0x40\n        /* \"#utility.yul\":18772:18775   */\n      dup3\n        /* \"#utility.yul\":18768:18780   */\n      add\n        /* \"#utility.yul\":18761:18780   */\n      swap1\n      pop\n        /* \"#utility.yul\":18420:18786   */\n      swap2\n      swap1\n      pop\n      jump\t// out\n        /* \"#utility.yul\":18792:19211   */\n    tag_193:\n        /* \"#utility.yul\":18958:18962   */\n      0x00\n        /* \"#utility.yul\":18996:18998   */\n      0x20\n        /* \"#utility.yul\":18985:18994   */\n      dup3\n        /* \"#utility.yul\":18981:18999   */\n      add\n        /* \"#utility.yul\":18973:18999   */\n      swap1\n      pop\n        /* \"#utility.yul\":19045:19054   */\n      dup2\n        /* \"#utility.yul\":19039:19043   */\n      dup2\n        /* \"#utility.yul\":19035:19055   */\n      sub\n        /* \"#utility.yul\":19031:19032   */\n      0x00\n        /* \"#utility.yul\":19020:19029   */\n      dup4\n        /* \"#utility.yul\":19016:19033   */\n      add\n        /* \"#utility.yul\":19009:19056   */\n      mstore\n        /* \"#utility.yul\":19073:19204   */\n      tag_488\n        /* \"#utility.yul\":19199:19203   */\n      dup2\n        /* \"#utility.yul\":19073:19204   */\n      tag_289\n      jump\t// in\n    tag_488:\n        /* \"#utility.yul\":19065:19204   */\n      swap1\n      pop\n        /* \"#utility.yul\":18792:19211   */\n      swap2\n      swap1\n      pop\n      jump\t// out\n        /* \"#utility.yul\":19217:19614   */\n    tag_195:\n        /* \"#utility.yul\":19357:19360   */\n      0x00\n        /* \"#utility.yul\":19372:19447   */\n      tag_490\n        /* \"#utility.yul\":19443:19446   */\n      dup3\n        /* \"#utility.yul\":19434:19440   */\n      dup6\n        /* \"#utility.yul\":19372:19447   */\n      tag_271\n      jump\t// in\n    tag_490:\n        /* \"#utility.yul\":19472:19474   */\n      0x20\n        /* \"#utility.yul\":19467:19470   */\n      dup3\n        /* \"#utility.yul\":19463:19475   */\n      add\n        /* \"#utility.yul\":19456:19475   */\n      swap2\n      pop\n        /* \"#utility.yul\":19485:19560   */\n      tag_491\n        /* \"#utility.yul\":19556:19559   */\n      dup3\n        /* \"#utility.yul\":19547:19553   */\n      dup5\n        /* \"#utility.yul\":19485:19560   */\n      tag_271\n      jump\t// in\n    tag_491:\n        /* \"#utility.yul\":19585:19587   */\n      0x20\n        /* \"#utility.yul\":19580:19583   */\n      dup3\n        /* \"#utility.yul\":19576:19588   */\n      add\n        /* \"#utility.yul\":19569:19588   */\n      swap2\n      pop\n        /* \"#utility.yul\":19605:19608   */\n      dup2\n        /* \"#utility.yul\":19598:19608   */\n      swap1\n      pop\n        /* \"#utility.yul\":19217:19614   */\n      swap4\n      swap3\n      pop\n      pop\n      pop\n      jump\t// out\n        /* \"#utility.yul\":19620:19796   */\n    tag_197:\n        /* \"#utility.yul\":19652:19653   */\n      0x00\n        /* \"#utility.yul\":19669:19689   */\n      tag_493\n        /* \"#utility.yul\":19687:19688   */\n      dup3\n        /* \"#utility.yul\":19669:19689   */\n      tag_239\n      jump\t// in\n    tag_493:\n        /* \"#utility.yul\":19664:19689   */\n      swap2\n      pop\n        /* \"#utility.yul\":19703:19723   */\n      tag_494\n        /* \"#utility.yul\":19721:19722   */\n      dup4\n        /* \"#utility.yul\":19703:19723   */\n      tag_239\n      jump\t// in\n    tag_494:\n        /* \"#utility.yul\":19698:19723   */\n      swap3\n      pop\n        /* \"#utility.yul\":19742:19743   */\n      dup3\n        /* \"#utility.yul\":19732:19767   */\n      tag_495\n      jumpi\n        /* \"#utility.yul\":19747:19765   */\n      tag_496\n      tag_280\n      jump\t// in\n    tag_496:\n        /* \"#utility.yul\":19732:19767   */\n    tag_495:\n        /* \"#utility.yul\":19788:19789   */\n      dup3\n        /* \"#utility.yul\":19785:19786   */\n      dup3\n        /* \"#utility.yul\":19781:19790   */\n      mod\n        /* \"#utility.yul\":19776:19790   */\n      swap1\n      pop\n        /* \"#utility.yul\":19620:19796   */\n      swap3\n      swap2\n      pop\n      pop\n      jump\t// out\n        /* \"#utility.yul\":19802:20244   */\n    tag_199:\n        /* \"#utility.yul\":19951:19955   */\n      0x00\n        /* \"#utility.yul\":19989:19991   */\n      0x60\n        /* \"#utility.yul\":19978:19987   */\n      dup3\n        /* \"#utility.yul\":19974:19992   */\n      add\n        /* \"#utility.yul\":19966:19992   */\n      swap1\n      pop\n        /* \"#utility.yul\":20002:20073   */\n      tag_498\n        /* \"#utility.yul\":20070:20071   */\n      0x00\n        /* \"#utility.yul\":20059:20068   */\n      dup4\n        /* \"#utility.yul\":20055:20072   */\n      add\n        /* \"#utility.yul\":20046:20052   */\n      dup7\n        /* \"#utility.yul\":20002:20073   */\n      tag_259\n      jump\t// in\n    tag_498:\n        /* \"#utility.yul\":20083:20155   */\n      tag_499\n        /* \"#utility.yul\":20151:20153   */\n      0x20\n        /* \"#utility.yul\":20140:20149   */\n      dup4\n        /* \"#utility.yul\":20136:20154   */\n      add\n        /* \"#utility.yul\":20127:20133   */\n      dup6\n        /* \"#utility.yul\":20083:20155   */\n      tag_253\n      jump\t// in\n    tag_499:\n        /* \"#utility.yul\":20165:20237   */\n      tag_500\n        /* \"#utility.yul\":20233:20235   */\n      0x40\n        /* \"#utility.yul\":20222:20231   */\n      dup4\n        /* \"#utility.yul\":20218:20236   */\n      add\n        /* \"#utility.yul\":20209:20215   */\n      dup5\n        /* \"#utility.yul\":20165:20237   */\n      tag_254\n      jump\t// in\n    tag_500:\n        /* \"#utility.yul\":19802:20244   */\n      swap5\n      swap4\n      pop\n      pop\n      pop\n      pop\n      jump\t// out\n        /* \"#utility.yul\":20250:20365   */\n    tag_290:\n        /* \"#utility.yul\":20335:20358   */\n      tag_502\n        /* \"#utility.yul\":20352:20357   */\n      dup2\n        /* \"#utility.yul\":20335:20358   */\n      tag_287\n      jump\t// in\n    tag_502:\n        /* \"#utility.yul\":20330:20333   */\n      dup3\n        /* \"#utility.yul\":20323:20359   */\n      mstore\n        /* \"#utility.yul\":20250:20365   */\n      pop\n      pop\n      jump\t// out\n        /* \"#utility.yul\":20371:20809   */\n    tag_235:\n        /* \"#utility.yul\":20518:20522   */\n      0x00\n        /* \"#utility.yul\":20556:20558   */\n      0x60\n        /* \"#utility.yul\":20545:20554   */\n      dup3\n        /* \"#utility.yul\":20541:20559   */\n      add\n        /* \"#utility.yul\":20533:20559   */\n      swap1\n      pop\n        /* \"#utility.yul\":20569:20640   */\n      tag_504\n        /* \"#utility.yul\":20637:20638   */\n      0x00\n        /* \"#utility.yul\":20626:20635   */\n      dup4\n        /* \"#utility.yul\":20622:20639   */\n      add\n        /* \"#utility.yul\":20613:20619   */\n      dup7\n        /* \"#utility.yul\":20569:20640   */\n      tag_259\n      jump\t// in\n    tag_504:\n        /* \"#utility.yul\":20650:20722   */\n      tag_505\n        /* \"#utility.yul\":20718:20720   */\n      0x20\n        /* \"#utility.yul\":20707:20716   */\n      dup4\n        /* \"#utility.yul\":20703:20721   */\n      add\n        /* \"#utility.yul\":20694:20700   */\n      dup6\n        /* \"#utility.yul\":20650:20722   */\n      tag_253\n      jump\t// in\n    tag_505:\n        /* \"#utility.yul\":20732:20802   */\n      tag_506\n        /* \"#utility.yul\":20798:20800   */\n      0x40\n        /* \"#utility.yul\":20787:20796   */\n      dup4\n        /* \"#utility.yul\":20783:20801   */\n      add\n        /* \"#utility.yul\":20774:20780   */\n      dup5\n        /* \"#utility.yul\":20732:20802   */\n      tag_290\n      jump\t// in\n    tag_506:\n        /* \"#utility.yul\":20371:20809   */\n      swap5\n      swap4\n      pop\n      pop\n      pop\n      pop\n      jump\t// out\n\n    auxdata: 0xa2646970667358221220340f9b696e8b58768af9d7ae50cfa6af70385ae901253486d7d26f70a516ea5b64736f6c63430008180033\n}\n",
				"bytecode": {
					"linkReferences": {},
					"object": "608060405260645f806101000a81548160ff021916908360ff1602179055505f6003555f6004555f6005555f6006554260075534801561003d575f80fd5b506123248061004b5f395ff3fe6080604052600436106100e7575f3560e01c80634537d1e0116100895780638dddbf36116100585780638dddbf36146102a557806390d5d0c3146102e15780639e0551c61461030b578063bac4b2b414610348576100e7565b80634537d1e014610213578063590e1ae31461023d5780635940e9e7146102535780637bab61bc1461027b576100e7565b8063228cb733116100c5578063228cb733146101795780632703da2f146101a357806327b5db8a146101cd5780633cf5040a146101d7576100e7565b8063073d8ff3146100eb578063086f7815146101275780631c99b3aa14610151575b5f80fd5b3480156100f6575f80fd5b50610111600480360381019061010c9190611906565b610372565b60405161011e9190611978565b60405180910390f35b348015610132575f80fd5b5061013b6103d1565b60405161014891906119a0565b60405180910390f35b34801561015c575f80fd5b50610177600480360381019061017291906119b9565b6103d7565b005b348015610184575f80fd5b5061018d610514565b60405161019a91906119a0565b60405180910390f35b3480156101ae575f80fd5b506101b761051a565b6040516101c491906119a0565b60405180910390f35b6101d5610520565b005b3480156101e2575f80fd5b506101fd60048036038101906101f89190611a4f565b6105e8565b60405161020a9190611978565b60405180910390f35b34801561021e575f80fd5b50610227610619565b60405161023491906119a0565b60405180910390f35b348015610248575f80fd5b5061025161089e565b005b34801561025e575f80fd5b5061027960048036038101906102749190611a7a565b610d20565b005b348015610286575f80fd5b5061028f610dcb565b60405161029c91906119a0565b60405180910390f35b3480156102b0575f80fd5b506102cb60048036038101906102c69190611ab8565b610dd1565b6040516102d89190611978565b60405180910390f35b3480156102ec575f80fd5b506102f5610e05565b60405161030291906119a0565b60405180910390f35b348015610316575f80fd5b50610331600480360381019061032c9190611af6565b610e0b565b60405161033f929190611b60565b60405180910390f35b348015610353575f80fd5b5061035c610e4a565b60405161036991906119a0565b60405180910390f35b5f80826040516020016103859190611bf3565b60405160208183030381529060405261039d90611c42565b905083816040516020016103b2929190611ce8565b6040516020818303038152906040528051906020012091505092915050565b60055481565b6002600354146103e5575f80fd5b60025f8281526020019081526020015f206001015f9054906101000a900473ffffffffffffffffffffffffffffffffffffffff1673ffffffffffffffffffffffffffffffffffffffff163373ffffffffffffffffffffffffffffffffffffffff161461044f575f80fd5b5f8310158015610460575060068311155b610468575f80fd5b5f8260405160200161047a9190611bf3565b60405160208183030381529060405261049290611c42565b90506104c584826040516020016104aa929190611ce8565b60405160208183030381529060405280519060200120610e50565b8360025f8481526020019081526020015f205f018190555060055f8154809291906104ef90611d40565b91905055504260078190555060026005540361050e5761050d61120e565b5b50505050565b60045481565b61012c81565b60026003541061052e575f80fd5b670de0b6b3a76400003414610541575f80fd5b3460045f8282546105529190611d87565b925050819055503360025f60035481526020019081526020015f206001015f6101000a81548173ffffffffffffffffffffffffffffffffffffffff021916908373ffffffffffffffffffffffffffffffffffffffff160217905550600760025f60035481526020019081526020015f205f018190555060035f8154809291906105da90611d40565b919050555042600781905550565b5f30826040516020016105fc929190611dff565b604051602081830303815290604052805190602001209050919050565b5f8060035411610627575f80fd5b6001600354036106a35760025f8081526020019081526020015f206001015f9054906101000a900473ffffffffffffffffffffffffffffffffffffffff1673ffffffffffffffffffffffffffffffffffffffff163373ffffffffffffffffffffffffffffffffffffffff161461069b575f80fd5b5f905061089b565b6002600354036108605760025f8081526020019081526020015f206001015f9054906101000a900473ffffffffffffffffffffffffffffffffffffffff1673ffffffffffffffffffffffffffffffffffffffff163373ffffffffffffffffffffffffffffffffffffffff161480610779575060025f600181526020019081526020015f206001015f9054906101000a900473ffffffffffffffffffffffffffffffffffffffff1673ffffffffffffffffffffffffffffffffffffffff163373ffffffffffffffffffffffffffffffffffffffff16145b610781575f80fd5b60025f8081526020019081526020015f206001015f9054906101000a900473ffffffffffffffffffffffffffffffffffffffff1673ffffffffffffffffffffffffffffffffffffffff163373ffffffffffffffffffffffffffffffffffffffff16036107ef575f905061089b565b60025f600181526020019081526020015f206001015f9054906101000a900473ffffffffffffffffffffffffffffffffffffffff1673ffffffffffffffffffffffffffffffffffffffff163373ffffffffffffffffffffffffffffffffffffffff160361085f576001905061089b565b5b6040517f08c379a000000000000000000000000000000000000000000000000000000000815260040161089290611e84565b60405180910390fd5b90565b61012c600754426108af9190611ea2565b116108b8575f80fd5b5f600354116108c5575f80fd5b6001600354036109c45760025f8081526020019081526020015f206001015f9054906101000a900473ffffffffffffffffffffffffffffffffffffffff1673ffffffffffffffffffffffffffffffffffffffff163373ffffffffffffffffffffffffffffffffffffffff1614610939575f80fd5b5f60025f8081526020019081526020015f206001015f9054906101000a900473ffffffffffffffffffffffffffffffffffffffff1690508073ffffffffffffffffffffffffffffffffffffffff166108fc60045490811502906040515f60405180830381858888f193505050501580156109b5573d5f803e3d5ffd5b506109be6114be565b50610d1e565b600260035403610d1d5760025f8081526020019081526020015f206001015f9054906101000a900473ffffffffffffffffffffffffffffffffffffffff1673ffffffffffffffffffffffffffffffffffffffff163373ffffffffffffffffffffffffffffffffffffffff161480610a9a575060025f600181526020019081526020015f206001015f9054906101000a900473ffffffffffffffffffffffffffffffffffffffff1673ffffffffffffffffffffffffffffffffffffffff163373ffffffffffffffffffffffffffffffffffffffff16145b610aa2575f80fd5b5f60055403610bcd575f60025f8081526020019081526020015f206001015f9054906101000a900473ffffffffffffffffffffffffffffffffffffffff1690505f60025f600181526020019081526020015f206001015f9054906101000a900473ffffffffffffffffffffffffffffffffffffffff1690508173ffffffffffffffffffffffffffffffffffffffff166108fc6002600454610b439190611f02565b90811502906040515f60405180830381858888f19350505050158015610b6b573d5f803e3d5ffd5b508073ffffffffffffffffffffffffffffffffffffffff166108fc6002600454610b959190611f02565b90811502906040515f60405180830381858888f19350505050158015610bbd573d5f803e3d5ffd5b50610bc66114be565b5050610d1c565b600160055403610d1b57600760025f8081526020019081526020015f205f015403610c76575f60025f600181526020019081526020015f206001015f9054906101000a900473ffffffffffffffffffffffffffffffffffffffff1690508073ffffffffffffffffffffffffffffffffffffffff166108fc60045490811502906040515f60405180830381858888f19350505050158015610c6f573d5f803e3d5ffd5b5050610d12565b600760025f600181526020019081526020015f205f015403610d11575f60025f8081526020019081526020015f206001015f9054906101000a900473ffffffffffffffffffffffffffffffffffffffff1690508073ffffffffffffffffffffffffffffffffffffffff166108fc60045490811502906040515f60405180830381858888f19350505050158015610d0e573d5f803e3d5ffd5b50505b5b610d1a6114be565b5b5b5b5b565b600260035414610d2e575f80fd5b60025f8281526020019081526020015f206001015f9054906101000a900473ffffffffffffffffffffffffffffffffffffffff1673ffffffffffffffffffffffffffffffffffffffff163373ffffffffffffffffffffffffffffffffffffffff1614610d98575f80fd5b610da9610da4836105e8565b6115b4565b60065f815480929190610dbb90611d40565b9190505550426007819055505050565b60075481565b5f308383604051602001610de793929190611f32565b60405160208183030381529060405280519060200120905092915050565b60035481565b6002602052805f5260405f205f91509050805f015490806001015f9054906101000a900473ffffffffffffffffffffffffffffffffffffffff16905082565b60065481565b5f151560015f3373ffffffffffffffffffffffffffffffffffffffff1673ffffffffffffffffffffffffffffffffffffffff1681526020019081526020015f2060010160089054906101000a900460ff16151514610ee3576040517f08c379a0000000000000000000000000000000000000000000000000000000008152600401610eda90611fde565b60405180910390fd5b6001805f3373ffffffffffffffffffffffffffffffffffffffff1673ffffffffffffffffffffffffffffffffffffffff1681526020019081526020015f2060010160086101000a81548160ff02191690831515021790555060015f3373ffffffffffffffffffffffffffffffffffffffff1673ffffffffffffffffffffffffffffffffffffffff1681526020019081526020015f205f0154610f84826105e8565b14610fc4576040517f08c379a0000000000000000000000000000000000000000000000000000000008152600401610fbb9061206c565b60405180910390fd5b60015f3373ffffffffffffffffffffffffffffffffffffffff1673ffffffffffffffffffffffffffffffffffffffff1681526020019081526020015f206001015f9054906101000a900467ffffffffffffffff1667ffffffffffffffff164367ffffffffffffffff161161106d576040517f08c379a000000000000000000000000000000000000000000000000000000000815260040161106490612120565b60405180910390fd5b60fa60015f3373ffffffffffffffffffffffffffffffffffffffff1673ffffffffffffffffffffffffffffffffffffffff1681526020019081526020015f206001015f9054906101000a900467ffffffffffffffff166110cd9190612151565b67ffffffffffffffff164367ffffffffffffffff161115611123576040517f08c379a000000000000000000000000000000000000000000000000000000000815260040161111a906121fc565b60405180910390fd5b5f60015f3373ffffffffffffffffffffffffffffffffffffffff1673ffffffffffffffffffffffffffffffffffffffff1681526020019081526020015f206001015f9054906101000a900467ffffffffffffffff1667ffffffffffffffff164090505f805f9054906101000a900460ff1660ff1682846040516020016111aa92919061221a565b604051602081830303815290604052805190602001205f1c6111cc9190612245565b90507fbc016dd1cadeaefcb851af7a0a93532e0023d536894b730801f7bcfe7065bcc233848360405161120193929190612275565b60405180910390a1505050565b5f60025f8081526020019081526020015f205f015490505f60025f600181526020019081526020015f205f015490505f60025f8081526020019081526020015f206001015f9054906101000a900473ffffffffffffffffffffffffffffffffffffffff1690505f60025f600181526020019081526020015f206001015f9054906101000a900473ffffffffffffffffffffffffffffffffffffffff1690508260076001866112bc9190611d87565b6112c69190612245565b14806112e957508260076002866112dd9190611d87565b6112e79190612245565b145b8061130b57508260076003866112ff9190611d87565b6113099190612245565b145b1561135b578173ffffffffffffffffffffffffffffffffffffffff166108fc60045490811502906040515f60405180830381858888f19350505050158015611355573d5f803e3d5ffd5b506114b0565b83600760018561136b9190611d87565b6113759190612245565b1480611398575083600760028561138c9190611d87565b6113969190612245565b145b806113ba57508360076003856113ae9190611d87565b6113b89190612245565b145b1561140a578073ffffffffffffffffffffffffffffffffffffffff166108fc60045490811502906040515f60405180830381858888f19350505050158015611404573d5f803e3d5ffd5b506114af565b8173ffffffffffffffffffffffffffffffffffffffff166108fc60026004546114339190611f02565b90811502906040515f60405180830381858888f1935050505015801561145b573d5f803e3d5ffd5b508073ffffffffffffffffffffffffffffffffffffffff166108fc60026004546114859190611f02565b90811502906040515f60405180830381858888f193505050501580156114ad573d5f803e3d5ffd5b505b5b6114b86114be565b50505050565b5f6003819055505f6004819055505f6005819055505f600681905550600760025f8081526020019081526020015f205f01819055505f60025f8081526020019081526020015f206001015f6101000a81548173ffffffffffffffffffffffffffffffffffffffff021916908373ffffffffffffffffffffffffffffffffffffffff160217905550600760025f600181526020019081526020015f205f01819055505f60025f600181526020019081526020015f206001015f6101000a81548173ffffffffffffffffffffffffffffffffffffffff021916908373ffffffffffffffffffffffffffffffffffffffff160217905550565b8060015f3373ffffffffffffffffffffffffffffffffffffffff1673ffffffffffffffffffffffffffffffffffffffff1681526020019081526020015f205f01819055504360015f3373ffffffffffffffffffffffffffffffffffffffff1673ffffffffffffffffffffffffffffffffffffffff1681526020019081526020015f206001015f6101000a81548167ffffffffffffffff021916908367ffffffffffffffff1602179055505f60015f3373ffffffffffffffffffffffffffffffffffffffff1673ffffffffffffffffffffffffffffffffffffffff1681526020019081526020015f2060010160086101000a81548160ff0219169083151502179055507f3c1a1f8f38335b17f751c6da4ba7d1865f26b3997535176f5080de9fad8916033360015f3373ffffffffffffffffffffffffffffffffffffffff1673ffffffffffffffffffffffffffffffffffffffff1681526020019081526020015f205f015460015f3373ffffffffffffffffffffffffffffffffffffffff1673ffffffffffffffffffffffffffffffffffffffff1681526020019081526020015f206001015f9054906101000a900467ffffffffffffffff1660405161177b939291906122b9565b60405180910390a150565b5f604051905090565b5f80fd5b5f80fd5b5f819050919050565b6117a981611797565b81146117b3575f80fd5b50565b5f813590506117c4816117a0565b92915050565b5f80fd5b5f80fd5b5f601f19601f8301169050919050565b7f4e487b71000000000000000000000000000000000000000000000000000000005f52604160045260245ffd5b611818826117d2565b810181811067ffffffffffffffff82111715611837576118366117e2565b5b80604052505050565b5f611849611786565b9050611855828261180f565b919050565b5f67ffffffffffffffff821115611874576118736117e2565b5b61187d826117d2565b9050602081019050919050565b828183375f83830152505050565b5f6118aa6118a58461185a565b611840565b9050828152602081018484840111156118c6576118c56117ce565b5b6118d184828561188a565b509392505050565b5f82601f8301126118ed576118ec6117ca565b5b81356118fd848260208601611898565b91505092915050565b5f806040838503121561191c5761191b61178f565b5b5f611929858286016117b6565b925050602083013567ffffffffffffffff81111561194a57611949611793565b5b611956858286016118d9565b9150509250929050565b5f819050919050565b61197281611960565b82525050565b5f60208201905061198b5f830184611969565b92915050565b61199a81611797565b82525050565b5f6020820190506119b35f830184611991565b92915050565b5f805f606084860312156119d0576119cf61178f565b5b5f6119dd868287016117b6565b935050602084013567ffffffffffffffff8111156119fe576119fd611793565b5b611a0a868287016118d9565b9250506040611a1b868287016117b6565b9150509250925092565b611a2e81611960565b8114611a38575f80fd5b50565b5f81359050611a4981611a25565b92915050565b5f60208284031215611a6457611a6361178f565b5b5f611a7184828501611a3b565b91505092915050565b5f8060408385031215611a9057611a8f61178f565b5b5f611a9d85828601611a3b565b9250506020611aae858286016117b6565b9150509250929050565b5f8060408385031215611ace57611acd61178f565b5b5f611adb85828601611a3b565b9250506020611aec85828601611a3b565b9150509250929050565b5f60208284031215611b0b57611b0a61178f565b5b5f611b18848285016117b6565b91505092915050565b5f73ffffffffffffffffffffffffffffffffffffffff82169050919050565b5f611b4a82611b21565b9050919050565b611b5a81611b40565b82525050565b5f604082019050611b735f830185611991565b611b806020830184611b51565b9392505050565b5f81519050919050565b5f81905092915050565b5f5b83811015611bb8578082015181840152602081019050611b9d565b5f8484015250505050565b5f611bcd82611b87565b611bd78185611b91565b9350611be7818560208601611b9b565b80840191505092915050565b5f611bfe8284611bc3565b915081905092915050565b5f81519050919050565b5f819050602082019050919050565b5f611c2d8251611960565b80915050919050565b5f82821b905092915050565b5f611c4c82611c09565b82611c5684611c13565b9050611c6181611c22565b92506020821015611ca157611c9c7fffffffffffffffffffffffffffffffffffffffffffffffffffffffffffffffff83602003600802611c36565b831692505b5050919050565b5f819050919050565b611cc2611cbd82611797565b611ca8565b82525050565b5f819050919050565b611ce2611cdd82611960565b611cc8565b82525050565b5f611cf38285611cb1565b602082019150611d038284611cd1565b6020820191508190509392505050565b7f4e487b71000000000000000000000000000000000000000000000000000000005f52601160045260245ffd5b5f611d4a82611797565b91507fffffffffffffffffffffffffffffffffffffffffffffffffffffffffffffffff8203611d7c57611d7b611d13565b5b600182019050919050565b5f611d9182611797565b9150611d9c83611797565b9250828201905080821115611db457611db3611d13565b5b92915050565b5f8160601b9050919050565b5f611dd082611dba565b9050919050565b5f611de182611dc6565b9050919050565b611df9611df482611b40565b611dd7565b82525050565b5f611e0a8285611de8565b601482019150611e1a8284611cd1565b6020820191508190509392505050565b5f82825260208201905092915050565b7f496e76616c6964207374617465000000000000000000000000000000000000005f82015250565b5f611e6e600d83611e2a565b9150611e7982611e3a565b602082019050919050565b5f6020820190508181035f830152611e9b81611e62565b9050919050565b5f611eac82611797565b9150611eb783611797565b9250828203905081811115611ecf57611ece611d13565b5b92915050565b7f4e487b71000000000000000000000000000000000000000000000000000000005f52601260045260245ffd5b5f611f0c82611797565b9150611f1783611797565b925082611f2757611f26611ed5565b5b828204905092915050565b5f611f3d8286611de8565b601482019150611f4d8285611cd1565b602082019150611f5d8284611cd1565b602082019150819050949350505050565b7f436f6d6d697452657665616c3a3a72657665616c3a20416c72656164792072655f8201527f7665616c65640000000000000000000000000000000000000000000000000000602082015250565b5f611fc8602683611e2a565b9150611fd382611f6e565b604082019050919050565b5f6020820190508181035f830152611ff581611fbc565b9050919050565b7f436f6d6d697452657665616c3a3a72657665616c3a2052657665616c656420685f8201527f61736820646f6573206e6f74206d6174636820636f6d6d697400000000000000602082015250565b5f612056603983611e2a565b915061206182611ffc565b604082019050919050565b5f6020820190508181035f8301526120838161204a565b9050919050565b7f436f6d6d697452657665616c3a3a72657665616c3a2052657665616c20616e645f8201527f20636f6d6d69742068617070656e6564206f6e207468652073616d6520626c6f60208201527f636b000000000000000000000000000000000000000000000000000000000000604082015250565b5f61210a604283611e2a565b91506121158261208a565b606082019050919050565b5f6020820190508181035f830152612137816120fe565b9050919050565b5f67ffffffffffffffff82169050919050565b5f61215b8261213e565b91506121668361213e565b9250828201905067ffffffffffffffff81111561218657612185611d13565b5b92915050565b7f436f6d6d697452657665616c3a3a72657665616c3a2052657665616c656420745f8201527f6f6f206c61746500000000000000000000000000000000000000000000000000602082015250565b5f6121e6602783611e2a565b91506121f18261218c565b604082019050919050565b5f6020820190508181035f830152612213816121da565b9050919050565b5f6122258285611cd1565b6020820191506122358284611cd1565b6020820191508190509392505050565b5f61224f82611797565b915061225a83611797565b92508261226a57612269611ed5565b5b828206905092915050565b5f6060820190506122885f830186611b51565b6122956020830185611969565b6122a26040830184611991565b949350505050565b6122b38161213e565b82525050565b5f6060820190506122cc5f830186611b51565b6122d96020830185611969565b6122e660408301846122aa565b94935050505056fea2646970667358221220340f9b696e8b58768af9d7ae50cfa6af70385ae901253486d7d26f70a516ea5b64736f6c63430008180033",
					"opcodes": "PUSH1 0x80 PUSH1 0x40 MSTORE PUSH1 0x64 PUSH0 DUP1 PUSH2 0x100 EXP DUP2 SLOAD DUP2 PUSH1 0xFF MUL NOT AND SWAP1 DUP4 PUSH1 0xFF AND MUL OR SWAP1 SSTORE POP PUSH0 PUSH1 0x3 SSTORE PUSH0 PUSH1 0x4 SSTORE PUSH0 PUSH1 0x5 SSTORE PUSH0 PUSH1 0x6 SSTORE TIMESTAMP PUSH1 0x7 SSTORE CALLVALUE DUP1 ISZERO PUSH2 0x3D JUMPI PUSH0 DUP1 REVERT JUMPDEST POP PUSH2 0x2324 DUP1 PUSH2 0x4B PUSH0 CODECOPY PUSH0 RETURN INVALID PUSH1 0x80 PUSH1 0x40 MSTORE PUSH1 0x4 CALLDATASIZE LT PUSH2 0xE7 JUMPI PUSH0 CALLDATALOAD PUSH1 0xE0 SHR DUP1 PUSH4 0x4537D1E0 GT PUSH2 0x89 JUMPI DUP1 PUSH4 0x8DDDBF36 GT PUSH2 0x58 JUMPI DUP1 PUSH4 0x8DDDBF36 EQ PUSH2 0x2A5 JUMPI DUP1 PUSH4 0x90D5D0C3 EQ PUSH2 0x2E1 JUMPI DUP1 PUSH4 0x9E0551C6 EQ PUSH2 0x30B JUMPI DUP1 PUSH4 0xBAC4B2B4 EQ PUSH2 0x348 JUMPI PUSH2 0xE7 JUMP JUMPDEST DUP1 PUSH4 0x4537D1E0 EQ PUSH2 0x213 JUMPI DUP1 PUSH4 0x590E1AE3 EQ PUSH2 0x23D JUMPI DUP1 PUSH4 0x5940E9E7 EQ PUSH2 0x253 JUMPI DUP1 PUSH4 0x7BAB61BC EQ PUSH2 0x27B JUMPI PUSH2 0xE7 JUMP JUMPDEST DUP1 PUSH4 0x228CB733 GT PUSH2 0xC5 JUMPI DUP1 PUSH4 0x228CB733 EQ PUSH2 0x179 JUMPI DUP1 PUSH4 0x2703DA2F EQ PUSH2 0x1A3 JUMPI DUP1 PUSH4 0x27B5DB8A EQ PUSH2 0x1CD JUMPI DUP1 PUSH4 0x3CF5040A EQ PUSH2 0x1D7 JUMPI PUSH2 0xE7 JUMP JUMPDEST DUP1 PUSH4 0x73D8FF3 EQ PUSH2 0xEB JUMPI DUP1 PUSH4 0x86F7815 EQ PUSH2 0x127 JUMPI DUP1 PUSH4 0x1C99B3AA EQ PUSH2 0x151 JUMPI JUMPDEST PUSH0 DUP1 REVERT JUMPDEST CALLVALUE DUP1 ISZERO PUSH2 0xF6 JUMPI PUSH0 DUP1 REVERT JUMPDEST POP PUSH2 0x111 PUSH1 0x4 DUP1 CALLDATASIZE SUB DUP2 ADD SWAP1 PUSH2 0x10C SWAP2 SWAP1 PUSH2 0x1906 JUMP JUMPDEST PUSH2 0x372 JUMP JUMPDEST PUSH1 0x40 MLOAD PUSH2 0x11E SWAP2 SWAP1 PUSH2 0x1978 JUMP JUMPDEST PUSH1 0x40 MLOAD DUP1 SWAP2 SUB SWAP1 RETURN JUMPDEST CALLVALUE DUP1 ISZERO PUSH2 0x132 JUMPI PUSH0 DUP1 REVERT JUMPDEST POP PUSH2 0x13B PUSH2 0x3D1 JUMP JUMPDEST PUSH1 0x40 MLOAD PUSH2 0x148 SWAP2 SWAP1 PUSH2 0x19A0 JUMP JUMPDEST PUSH1 0x40 MLOAD DUP1 SWAP2 SUB SWAP1 RETURN JUMPDEST CALLVALUE DUP1 ISZERO PUSH2 0x15C JUMPI PUSH0 DUP1 REVERT JUMPDEST POP PUSH2 0x177 PUSH1 0x4 DUP1 CALLDATASIZE SUB DUP2 ADD SWAP1 PUSH2 0x172 SWAP2 SWAP1 PUSH2 0x19B9 JUMP JUMPDEST PUSH2 0x3D7 JUMP JUMPDEST STOP JUMPDEST CALLVALUE DUP1 ISZERO PUSH2 0x184 JUMPI PUSH0 DUP1 REVERT JUMPDEST POP PUSH2 0x18D PUSH2 0x514 JUMP JUMPDEST PUSH1 0x40 MLOAD PUSH2 0x19A SWAP2 SWAP1 PUSH2 0x19A0 JUMP JUMPDEST PUSH1 0x40 MLOAD DUP1 SWAP2 SUB SWAP1 RETURN JUMPDEST CALLVALUE DUP1 ISZERO PUSH2 0x1AE JUMPI PUSH0 DUP1 REVERT JUMPDEST POP PUSH2 0x1B7 PUSH2 0x51A JUMP JUMPDEST PUSH1 0x40 MLOAD PUSH2 0x1C4 SWAP2 SWAP1 PUSH2 0x19A0 JUMP JUMPDEST PUSH1 0x40 MLOAD DUP1 SWAP2 SUB SWAP1 RETURN JUMPDEST PUSH2 0x1D5 PUSH2 0x520 JUMP JUMPDEST STOP JUMPDEST CALLVALUE DUP1 ISZERO PUSH2 0x1E2 JUMPI PUSH0 DUP1 REVERT JUMPDEST POP PUSH2 0x1FD PUSH1 0x4 DUP1 CALLDATASIZE SUB DUP2 ADD SWAP1 PUSH2 0x1F8 SWAP2 SWAP1 PUSH2 0x1A4F JUMP JUMPDEST PUSH2 0x5E8 JUMP JUMPDEST PUSH1 0x40 MLOAD PUSH2 0x20A SWAP2 SWAP1 PUSH2 0x1978 JUMP JUMPDEST PUSH1 0x40 MLOAD DUP1 SWAP2 SUB SWAP1 RETURN JUMPDEST CALLVALUE DUP1 ISZERO PUSH2 0x21E JUMPI PUSH0 DUP1 REVERT JUMPDEST POP PUSH2 0x227 PUSH2 0x619 JUMP JUMPDEST PUSH1 0x40 MLOAD PUSH2 0x234 SWAP2 SWAP1 PUSH2 0x19A0 JUMP JUMPDEST PUSH1 0x40 MLOAD DUP1 SWAP2 SUB SWAP1 RETURN JUMPDEST CALLVALUE DUP1 ISZERO PUSH2 0x248 JUMPI PUSH0 DUP1 REVERT JUMPDEST POP PUSH2 0x251 PUSH2 0x89E JUMP JUMPDEST STOP JUMPDEST CALLVALUE DUP1 ISZERO PUSH2 0x25E JUMPI PUSH0 DUP1 REVERT JUMPDEST POP PUSH2 0x279 PUSH1 0x4 DUP1 CALLDATASIZE SUB DUP2 ADD SWAP1 PUSH2 0x274 SWAP2 SWAP1 PUSH2 0x1A7A JUMP JUMPDEST PUSH2 0xD20 JUMP JUMPDEST STOP JUMPDEST CALLVALUE DUP1 ISZERO PUSH2 0x286 JUMPI PUSH0 DUP1 REVERT JUMPDEST POP PUSH2 0x28F PUSH2 0xDCB JUMP JUMPDEST PUSH1 0x40 MLOAD PUSH2 0x29C SWAP2 SWAP1 PUSH2 0x19A0 JUMP JUMPDEST PUSH1 0x40 MLOAD DUP1 SWAP2 SUB SWAP1 RETURN JUMPDEST CALLVALUE DUP1 ISZERO PUSH2 0x2B0 JUMPI PUSH0 DUP1 REVERT JUMPDEST POP PUSH2 0x2CB PUSH1 0x4 DUP1 CALLDATASIZE SUB DUP2 ADD SWAP1 PUSH2 0x2C6 SWAP2 SWAP1 PUSH2 0x1AB8 JUMP JUMPDEST PUSH2 0xDD1 JUMP JUMPDEST PUSH1 0x40 MLOAD PUSH2 0x2D8 SWAP2 SWAP1 PUSH2 0x1978 JUMP JUMPDEST PUSH1 0x40 MLOAD DUP1 SWAP2 SUB SWAP1 RETURN JUMPDEST CALLVALUE DUP1 ISZERO PUSH2 0x2EC JUMPI PUSH0 DUP1 REVERT JUMPDEST POP PUSH2 0x2F5 PUSH2 0xE05 JUMP JUMPDEST PUSH1 0x40 MLOAD PUSH2 0x302 SWAP2 SWAP1 PUSH2 0x19A0 JUMP JUMPDEST PUSH1 0x40 MLOAD DUP1 SWAP2 SUB SWAP1 RETURN JUMPDEST CALLVALUE DUP1 ISZERO PUSH2 0x316 JUMPI PUSH0 DUP1 REVERT JUMPDEST POP PUSH2 0x331 PUSH1 0x4 DUP1 CALLDATASIZE SUB DUP2 ADD SWAP1 PUSH2 0x32C SWAP2 SWAP1 PUSH2 0x1AF6 JUMP JUMPDEST PUSH2 0xE0B JUMP JUMPDEST PUSH1 0x40 MLOAD PUSH2 0x33F SWAP3 SWAP2 SWAP1 PUSH2 0x1B60 JUMP JUMPDEST PUSH1 0x40 MLOAD DUP1 SWAP2 SUB SWAP1 RETURN JUMPDEST CALLVALUE DUP1 ISZERO PUSH2 0x353 JUMPI PUSH0 DUP1 REVERT JUMPDEST POP PUSH2 0x35C PUSH2 0xE4A JUMP JUMPDEST PUSH1 0x40 MLOAD PUSH2 0x369 SWAP2 SWAP1 PUSH2 0x19A0 JUMP JUMPDEST PUSH1 0x40 MLOAD DUP1 SWAP2 SUB SWAP1 RETURN JUMPDEST PUSH0 DUP1 DUP3 PUSH1 0x40 MLOAD PUSH1 0x20 ADD PUSH2 0x385 SWAP2 SWAP1 PUSH2 0x1BF3 JUMP JUMPDEST PUSH1 0x40 MLOAD PUSH1 0x20 DUP2 DUP4 SUB SUB DUP2 MSTORE SWAP1 PUSH1 0x40 MSTORE PUSH2 0x39D SWAP1 PUSH2 0x1C42 JUMP JUMPDEST SWAP1 POP DUP4 DUP2 PUSH1 0x40 MLOAD PUSH1 0x20 ADD PUSH2 0x3B2 SWAP3 SWAP2 SWAP1 PUSH2 0x1CE8 JUMP JUMPDEST PUSH1 0x40 MLOAD PUSH1 0x20 DUP2 DUP4 SUB SUB DUP2 MSTORE SWAP1 PUSH1 0x40 MSTORE DUP1 MLOAD SWAP1 PUSH1 0x20 ADD KECCAK256 SWAP2 POP POP SWAP3 SWAP2 POP POP JUMP JUMPDEST PUSH1 0x5 SLOAD DUP2 JUMP JUMPDEST PUSH1 0x2 PUSH1 0x3 SLOAD EQ PUSH2 0x3E5 JUMPI PUSH0 DUP1 REVERT JUMPDEST PUSH1 0x2 PUSH0 DUP3 DUP2 MSTORE PUSH1 0x20 ADD SWAP1 DUP2 MSTORE PUSH1 0x20 ADD PUSH0 KECCAK256 PUSH1 0x1 ADD PUSH0 SWAP1 SLOAD SWAP1 PUSH2 0x100 EXP SWAP1 DIV PUSH20 0xFFFFFFFFFFFFFFFFFFFFFFFFFFFFFFFFFFFFFFFF AND PUSH20 0xFFFFFFFFFFFFFFFFFFFFFFFFFFFFFFFFFFFFFFFF AND CALLER PUSH20 0xFFFFFFFFFFFFFFFFFFFFFFFFFFFFFFFFFFFFFFFF AND EQ PUSH2 0x44F JUMPI PUSH0 DUP1 REVERT JUMPDEST PUSH0 DUP4 LT ISZERO DUP1 ISZERO PUSH2 0x460 JUMPI POP PUSH1 0x6 DUP4 GT ISZERO JUMPDEST PUSH2 0x468 JUMPI PUSH0 DUP1 REVERT JUMPDEST PUSH0 DUP3 PUSH1 0x40 MLOAD PUSH1 0x20 ADD PUSH2 0x47A SWAP2 SWAP1 PUSH2 0x1BF3 JUMP JUMPDEST PUSH1 0x40 MLOAD PUSH1 0x20 DUP2 DUP4 SUB SUB DUP2 MSTORE SWAP1 PUSH1 0x40 MSTORE PUSH2 0x492 SWAP1 PUSH2 0x1C42 JUMP JUMPDEST SWAP1 POP PUSH2 0x4C5 DUP5 DUP3 PUSH1 0x40 MLOAD PUSH1 0x20 ADD PUSH2 0x4AA SWAP3 SWAP2 SWAP1 PUSH2 0x1CE8 JUMP JUMPDEST PUSH1 0x40 MLOAD PUSH1 0x20 DUP2 DUP4 SUB SUB DUP2 MSTORE SWAP1 PUSH1 0x40 MSTORE DUP1 MLOAD SWAP1 PUSH1 0x20 ADD KECCAK256 PUSH2 0xE50 JUMP JUMPDEST DUP4 PUSH1 0x2 PUSH0 DUP5 DUP2 MSTORE PUSH1 0x20 ADD SWAP1 DUP2 MSTORE PUSH1 0x20 ADD PUSH0 KECCAK256 PUSH0 ADD DUP2 SWAP1 SSTORE POP PUSH1 0x5 PUSH0 DUP2 SLOAD DUP1 SWAP3 SWAP2 SWAP1 PUSH2 0x4EF SWAP1 PUSH2 0x1D40 JUMP JUMPDEST SWAP2 SWAP1 POP SSTORE POP TIMESTAMP PUSH1 0x7 DUP2 SWAP1 SSTORE POP PUSH1 0x2 PUSH1 0x5 SLOAD SUB PUSH2 0x50E JUMPI PUSH2 0x50D PUSH2 0x120E JUMP JUMPDEST JUMPDEST POP POP POP POP JUMP JUMPDEST PUSH1 0x4 SLOAD DUP2 JUMP JUMPDEST PUSH2 0x12C DUP2 JUMP JUMPDEST PUSH1 0x2 PUSH1 0x3 SLOAD LT PUSH2 0x52E JUMPI PUSH0 DUP1 REVERT JUMPDEST PUSH8 0xDE0B6B3A7640000 CALLVALUE EQ PUSH2 0x541 JUMPI PUSH0 DUP1 REVERT JUMPDEST CALLVALUE PUSH1 0x4 PUSH0 DUP3 DUP3 SLOAD PUSH2 0x552 SWAP2 SWAP1 PUSH2 0x1D87 JUMP JUMPDEST SWAP3 POP POP DUP2 SWAP1 SSTORE POP CALLER PUSH1 0x2 PUSH0 PUSH1 0x3 SLOAD DUP2 MSTORE PUSH1 0x20 ADD SWAP1 DUP2 MSTORE PUSH1 0x20 ADD PUSH0 KECCAK256 PUSH1 0x1 ADD PUSH0 PUSH2 0x100 EXP DUP2 SLOAD DUP2 PUSH20 0xFFFFFFFFFFFFFFFFFFFFFFFFFFFFFFFFFFFFFFFF MUL NOT AND SWAP1 DUP4 PUSH20 0xFFFFFFFFFFFFFFFFFFFFFFFFFFFFFFFFFFFFFFFF AND MUL OR SWAP1 SSTORE POP PUSH1 0x7 PUSH1 0x2 PUSH0 PUSH1 0x3 SLOAD DUP2 MSTORE PUSH1 0x20 ADD SWAP1 DUP2 MSTORE PUSH1 0x20 ADD PUSH0 KECCAK256 PUSH0 ADD DUP2 SWAP1 SSTORE POP PUSH1 0x3 PUSH0 DUP2 SLOAD DUP1 SWAP3 SWAP2 SWAP1 PUSH2 0x5DA SWAP1 PUSH2 0x1D40 JUMP JUMPDEST SWAP2 SWAP1 POP SSTORE POP TIMESTAMP PUSH1 0x7 DUP2 SWAP1 SSTORE POP JUMP JUMPDEST PUSH0 ADDRESS DUP3 PUSH1 0x40 MLOAD PUSH1 0x20 ADD PUSH2 0x5FC SWAP3 SWAP2 SWAP1 PUSH2 0x1DFF JUMP JUMPDEST PUSH1 0x40 MLOAD PUSH1 0x20 DUP2 DUP4 SUB SUB DUP2 MSTORE SWAP1 PUSH1 0x40 MSTORE DUP1 MLOAD SWAP1 PUSH1 0x20 ADD KECCAK256 SWAP1 POP SWAP2 SWAP1 POP JUMP JUMPDEST PUSH0 DUP1 PUSH1 0x3 SLOAD GT PUSH2 0x627 JUMPI PUSH0 DUP1 REVERT JUMPDEST PUSH1 0x1 PUSH1 0x3 SLOAD SUB PUSH2 0x6A3 JUMPI PUSH1 0x2 PUSH0 DUP1 DUP2 MSTORE PUSH1 0x20 ADD SWAP1 DUP2 MSTORE PUSH1 0x20 ADD PUSH0 KECCAK256 PUSH1 0x1 ADD PUSH0 SWAP1 SLOAD SWAP1 PUSH2 0x100 EXP SWAP1 DIV PUSH20 0xFFFFFFFFFFFFFFFFFFFFFFFFFFFFFFFFFFFFFFFF AND PUSH20 0xFFFFFFFFFFFFFFFFFFFFFFFFFFFFFFFFFFFFFFFF AND CALLER PUSH20 0xFFFFFFFFFFFFFFFFFFFFFFFFFFFFFFFFFFFFFFFF AND EQ PUSH2 0x69B JUMPI PUSH0 DUP1 REVERT JUMPDEST PUSH0 SWAP1 POP PUSH2 0x89B JUMP JUMPDEST PUSH1 0x2 PUSH1 0x3 SLOAD SUB PUSH2 0x860 JUMPI PUSH1 0x2 PUSH0 DUP1 DUP2 MSTORE PUSH1 0x20 ADD SWAP1 DUP2 MSTORE PUSH1 0x20 ADD PUSH0 KECCAK256 PUSH1 0x1 ADD PUSH0 SWAP1 SLOAD SWAP1 PUSH2 0x100 EXP SWAP1 DIV PUSH20 0xFFFFFFFFFFFFFFFFFFFFFFFFFFFFFFFFFFFFFFFF AND PUSH20 0xFFFFFFFFFFFFFFFFFFFFFFFFFFFFFFFFFFFFFFFF AND CALLER PUSH20 0xFFFFFFFFFFFFFFFFFFFFFFFFFFFFFFFFFFFFFFFF AND EQ DUP1 PUSH2 0x779 JUMPI POP PUSH1 0x2 PUSH0 PUSH1 0x1 DUP2 MSTORE PUSH1 0x20 ADD SWAP1 DUP2 MSTORE PUSH1 0x20 ADD PUSH0 KECCAK256 PUSH1 0x1 ADD PUSH0 SWAP1 SLOAD SWAP1 PUSH2 0x100 EXP SWAP1 DIV PUSH20 0xFFFFFFFFFFFFFFFFFFFFFFFFFFFFFFFFFFFFFFFF AND PUSH20 0xFFFFFFFFFFFFFFFFFFFFFFFFFFFFFFFFFFFFFFFF AND CALLER PUSH20 0xFFFFFFFFFFFFFFFFFFFFFFFFFFFFFFFFFFFFFFFF AND EQ JUMPDEST PUSH2 0x781 JUMPI PUSH0 DUP1 REVERT JUMPDEST PUSH1 0x2 PUSH0 DUP1 DUP2 MSTORE PUSH1 0x20 ADD SWAP1 DUP2 MSTORE PUSH1 0x20 ADD PUSH0 KECCAK256 PUSH1 0x1 ADD PUSH0 SWAP1 SLOAD SWAP1 PUSH2 0x100 EXP SWAP1 DIV PUSH20 0xFFFFFFFFFFFFFFFFFFFFFFFFFFFFFFFFFFFFFFFF AND PUSH20 0xFFFFFFFFFFFFFFFFFFFFFFFFFFFFFFFFFFFFFFFF AND CALLER PUSH20 0xFFFFFFFFFFFFFFFFFFFFFFFFFFFFFFFFFFFFFFFF AND SUB PUSH2 0x7EF JUMPI PUSH0 SWAP1 POP PUSH2 0x89B JUMP JUMPDEST PUSH1 0x2 PUSH0 PUSH1 0x1 DUP2 MSTORE PUSH1 0x20 ADD SWAP1 DUP2 MSTORE PUSH1 0x20 ADD PUSH0 KECCAK256 PUSH1 0x1 ADD PUSH0 SWAP1 SLOAD SWAP1 PUSH2 0x100 EXP SWAP1 DIV PUSH20 0xFFFFFFFFFFFFFFFFFFFFFFFFFFFFFFFFFFFFFFFF AND PUSH20 0xFFFFFFFFFFFFFFFFFFFFFFFFFFFFFFFFFFFFFFFF AND CALLER PUSH20 0xFFFFFFFFFFFFFFFFFFFFFFFFFFFFFFFFFFFFFFFF AND SUB PUSH2 0x85F JUMPI PUSH1 0x1 SWAP1 POP PUSH2 0x89B JUMP JUMPDEST JUMPDEST PUSH1 0x40 MLOAD PUSH32 0x8C379A000000000000000000000000000000000000000000000000000000000 DUP2 MSTORE PUSH1 0x4 ADD PUSH2 0x892 SWAP1 PUSH2 0x1E84 JUMP JUMPDEST PUSH1 0x40 MLOAD DUP1 SWAP2 SUB SWAP1 REVERT JUMPDEST SWAP1 JUMP JUMPDEST PUSH2 0x12C PUSH1 0x7 SLOAD TIMESTAMP PUSH2 0x8AF SWAP2 SWAP1 PUSH2 0x1EA2 JUMP JUMPDEST GT PUSH2 0x8B8 JUMPI PUSH0 DUP1 REVERT JUMPDEST PUSH0 PUSH1 0x3 SLOAD GT PUSH2 0x8C5 JUMPI PUSH0 DUP1 REVERT JUMPDEST PUSH1 0x1 PUSH1 0x3 SLOAD SUB PUSH2 0x9C4 JUMPI PUSH1 0x2 PUSH0 DUP1 DUP2 MSTORE PUSH1 0x20 ADD SWAP1 DUP2 MSTORE PUSH1 0x20 ADD PUSH0 KECCAK256 PUSH1 0x1 ADD PUSH0 SWAP1 SLOAD SWAP1 PUSH2 0x100 EXP SWAP1 DIV PUSH20 0xFFFFFFFFFFFFFFFFFFFFFFFFFFFFFFFFFFFFFFFF AND PUSH20 0xFFFFFFFFFFFFFFFFFFFFFFFFFFFFFFFFFFFFFFFF AND CALLER PUSH20 0xFFFFFFFFFFFFFFFFFFFFFFFFFFFFFFFFFFFFFFFF AND EQ PUSH2 0x939 JUMPI PUSH0 DUP1 REVERT JUMPDEST PUSH0 PUSH1 0x2 PUSH0 DUP1 DUP2 MSTORE PUSH1 0x20 ADD SWAP1 DUP2 MSTORE PUSH1 0x20 ADD PUSH0 KECCAK256 PUSH1 0x1 ADD PUSH0 SWAP1 SLOAD SWAP1 PUSH2 0x100 EXP SWAP1 DIV PUSH20 0xFFFFFFFFFFFFFFFFFFFFFFFFFFFFFFFFFFFFFFFF AND SWAP1 POP DUP1 PUSH20 0xFFFFFFFFFFFFFFFFFFFFFFFFFFFFFFFFFFFFFFFF AND PUSH2 0x8FC PUSH1 0x4 SLOAD SWAP1 DUP2 ISZERO MUL SWAP1 PUSH1 0x40 MLOAD PUSH0 PUSH1 0x40 MLOAD DUP1 DUP4 SUB DUP2 DUP6 DUP9 DUP9 CALL SWAP4 POP POP POP POP ISZERO DUP1 ISZERO PUSH2 0x9B5 JUMPI RETURNDATASIZE PUSH0 DUP1 RETURNDATACOPY RETURNDATASIZE PUSH0 REVERT JUMPDEST POP PUSH2 0x9BE PUSH2 0x14BE JUMP JUMPDEST POP PUSH2 0xD1E JUMP JUMPDEST PUSH1 0x2 PUSH1 0x3 SLOAD SUB PUSH2 0xD1D JUMPI PUSH1 0x2 PUSH0 DUP1 DUP2 MSTORE PUSH1 0x20 ADD SWAP1 DUP2 MSTORE PUSH1 0x20 ADD PUSH0 KECCAK256 PUSH1 0x1 ADD PUSH0 SWAP1 SLOAD SWAP1 PUSH2 0x100 EXP SWAP1 DIV PUSH20 0xFFFFFFFFFFFFFFFFFFFFFFFFFFFFFFFFFFFFFFFF AND PUSH20 0xFFFFFFFFFFFFFFFFFFFFFFFFFFFFFFFFFFFFFFFF AND CALLER PUSH20 0xFFFFFFFFFFFFFFFFFFFFFFFFFFFFFFFFFFFFFFFF AND EQ DUP1 PUSH2 0xA9A JUMPI POP PUSH1 0x2 PUSH0 PUSH1 0x1 DUP2 MSTORE PUSH1 0x20 ADD SWAP1 DUP2 MSTORE PUSH1 0x20 ADD PUSH0 KECCAK256 PUSH1 0x1 ADD PUSH0 SWAP1 SLOAD SWAP1 PUSH2 0x100 EXP SWAP1 DIV PUSH20 0xFFFFFFFFFFFFFFFFFFFFFFFFFFFFFFFFFFFFFFFF AND PUSH20 0xFFFFFFFFFFFFFFFFFFFFFFFFFFFFFFFFFFFFFFFF AND CALLER PUSH20 0xFFFFFFFFFFFFFFFFFFFFFFFFFFFFFFFFFFFFFFFF AND EQ JUMPDEST PUSH2 0xAA2 JUMPI PUSH0 DUP1 REVERT JUMPDEST PUSH0 PUSH1 0x5 SLOAD SUB PUSH2 0xBCD JUMPI PUSH0 PUSH1 0x2 PUSH0 DUP1 DUP2 MSTORE PUSH1 0x20 ADD SWAP1 DUP2 MSTORE PUSH1 0x20 ADD PUSH0 KECCAK256 PUSH1 0x1 ADD PUSH0 SWAP1 SLOAD SWAP1 PUSH2 0x100 EXP SWAP1 DIV PUSH20 0xFFFFFFFFFFFFFFFFFFFFFFFFFFFFFFFFFFFFFFFF AND SWAP1 POP PUSH0 PUSH1 0x2 PUSH0 PUSH1 0x1 DUP2 MSTORE PUSH1 0x20 ADD SWAP1 DUP2 MSTORE PUSH1 0x20 ADD PUSH0 KECCAK256 PUSH1 0x1 ADD PUSH0 SWAP1 SLOAD SWAP1 PUSH2 0x100 EXP SWAP1 DIV PUSH20 0xFFFFFFFFFFFFFFFFFFFFFFFFFFFFFFFFFFFFFFFF AND SWAP1 POP DUP2 PUSH20 0xFFFFFFFFFFFFFFFFFFFFFFFFFFFFFFFFFFFFFFFF AND PUSH2 0x8FC PUSH1 0x2 PUSH1 0x4 SLOAD PUSH2 0xB43 SWAP2 SWAP1 PUSH2 0x1F02 JUMP JUMPDEST SWAP1 DUP2 ISZERO MUL SWAP1 PUSH1 0x40 MLOAD PUSH0 PUSH1 0x40 MLOAD DUP1 DUP4 SUB DUP2 DUP6 DUP9 DUP9 CALL SWAP4 POP POP POP POP ISZERO DUP1 ISZERO PUSH2 0xB6B JUMPI RETURNDATASIZE PUSH0 DUP1 RETURNDATACOPY RETURNDATASIZE PUSH0 REVERT JUMPDEST POP DUP1 PUSH20 0xFFFFFFFFFFFFFFFFFFFFFFFFFFFFFFFFFFFFFFFF AND PUSH2 0x8FC PUSH1 0x2 PUSH1 0x4 SLOAD PUSH2 0xB95 SWAP2 SWAP1 PUSH2 0x1F02 JUMP JUMPDEST SWAP1 DUP2 ISZERO MUL SWAP1 PUSH1 0x40 MLOAD PUSH0 PUSH1 0x40 MLOAD DUP1 DUP4 SUB DUP2 DUP6 DUP9 DUP9 CALL SWAP4 POP POP POP POP ISZERO DUP1 ISZERO PUSH2 0xBBD JUMPI RETURNDATASIZE PUSH0 DUP1 RETURNDATACOPY RETURNDATASIZE PUSH0 REVERT JUMPDEST POP PUSH2 0xBC6 PUSH2 0x14BE JUMP JUMPDEST POP POP PUSH2 0xD1C JUMP JUMPDEST PUSH1 0x1 PUSH1 0x5 SLOAD SUB PUSH2 0xD1B JUMPI PUSH1 0x7 PUSH1 0x2 PUSH0 DUP1 DUP2 MSTORE PUSH1 0x20 ADD SWAP1 DUP2 MSTORE PUSH1 0x20 ADD PUSH0 KECCAK256 PUSH0 ADD SLOAD SUB PUSH2 0xC76 JUMPI PUSH0 PUSH1 0x2 PUSH0 PUSH1 0x1 DUP2 MSTORE PUSH1 0x20 ADD SWAP1 DUP2 MSTORE PUSH1 0x20 ADD PUSH0 KECCAK256 PUSH1 0x1 ADD PUSH0 SWAP1 SLOAD SWAP1 PUSH2 0x100 EXP SWAP1 DIV PUSH20 0xFFFFFFFFFFFFFFFFFFFFFFFFFFFFFFFFFFFFFFFF AND SWAP1 POP DUP1 PUSH20 0xFFFFFFFFFFFFFFFFFFFFFFFFFFFFFFFFFFFFFFFF AND PUSH2 0x8FC PUSH1 0x4 SLOAD SWAP1 DUP2 ISZERO MUL SWAP1 PUSH1 0x40 MLOAD PUSH0 PUSH1 0x40 MLOAD DUP1 DUP4 SUB DUP2 DUP6 DUP9 DUP9 CALL SWAP4 POP POP POP POP ISZERO DUP1 ISZERO PUSH2 0xC6F JUMPI RETURNDATASIZE PUSH0 DUP1 RETURNDATACOPY RETURNDATASIZE PUSH0 REVERT JUMPDEST POP POP PUSH2 0xD12 JUMP JUMPDEST PUSH1 0x7 PUSH1 0x2 PUSH0 PUSH1 0x1 DUP2 MSTORE PUSH1 0x20 ADD SWAP1 DUP2 MSTORE PUSH1 0x20 ADD PUSH0 KECCAK256 PUSH0 ADD SLOAD SUB PUSH2 0xD11 JUMPI PUSH0 PUSH1 0x2 PUSH0 DUP1 DUP2 MSTORE PUSH1 0x20 ADD SWAP1 DUP2 MSTORE PUSH1 0x20 ADD PUSH0 KECCAK256 PUSH1 0x1 ADD PUSH0 SWAP1 SLOAD SWAP1 PUSH2 0x100 EXP SWAP1 DIV PUSH20 0xFFFFFFFFFFFFFFFFFFFFFFFFFFFFFFFFFFFFFFFF AND SWAP1 POP DUP1 PUSH20 0xFFFFFFFFFFFFFFFFFFFFFFFFFFFFFFFFFFFFFFFF AND PUSH2 0x8FC PUSH1 0x4 SLOAD SWAP1 DUP2 ISZERO MUL SWAP1 PUSH1 0x40 MLOAD PUSH0 PUSH1 0x40 MLOAD DUP1 DUP4 SUB DUP2 DUP6 DUP9 DUP9 CALL SWAP4 POP POP POP POP ISZERO DUP1 ISZERO PUSH2 0xD0E JUMPI RETURNDATASIZE PUSH0 DUP1 RETURNDATACOPY RETURNDATASIZE PUSH0 REVERT JUMPDEST POP POP JUMPDEST JUMPDEST PUSH2 0xD1A PUSH2 0x14BE JUMP JUMPDEST JUMPDEST JUMPDEST JUMPDEST JUMPDEST JUMP JUMPDEST PUSH1 0x2 PUSH1 0x3 SLOAD EQ PUSH2 0xD2E JUMPI PUSH0 DUP1 REVERT JUMPDEST PUSH1 0x2 PUSH0 DUP3 DUP2 MSTORE PUSH1 0x20 ADD SWAP1 DUP2 MSTORE PUSH1 0x20 ADD PUSH0 KECCAK256 PUSH1 0x1 ADD PUSH0 SWAP1 SLOAD SWAP1 PUSH2 0x100 EXP SWAP1 DIV PUSH20 0xFFFFFFFFFFFFFFFFFFFFFFFFFFFFFFFFFFFFFFFF AND PUSH20 0xFFFFFFFFFFFFFFFFFFFFFFFFFFFFFFFFFFFFFFFF AND CALLER PUSH20 0xFFFFFFFFFFFFFFFFFFFFFFFFFFFFFFFFFFFFFFFF AND EQ PUSH2 0xD98 JUMPI PUSH0 DUP1 REVERT JUMPDEST PUSH2 0xDA9 PUSH2 0xDA4 DUP4 PUSH2 0x5E8 JUMP JUMPDEST PUSH2 0x15B4 JUMP JUMPDEST PUSH1 0x6 PUSH0 DUP2 SLOAD DUP1 SWAP3 SWAP2 SWAP1 PUSH2 0xDBB SWAP1 PUSH2 0x1D40 JUMP JUMPDEST SWAP2 SWAP1 POP SSTORE POP TIMESTAMP PUSH1 0x7 DUP2 SWAP1 SSTORE POP POP POP JUMP JUMPDEST PUSH1 0x7 SLOAD DUP2 JUMP JUMPDEST PUSH0 ADDRESS DUP4 DUP4 PUSH1 0x40 MLOAD PUSH1 0x20 ADD PUSH2 0xDE7 SWAP4 SWAP3 SWAP2 SWAP1 PUSH2 0x1F32 JUMP JUMPDEST PUSH1 0x40 MLOAD PUSH1 0x20 DUP2 DUP4 SUB SUB DUP2 MSTORE SWAP1 PUSH1 0x40 MSTORE DUP1 MLOAD SWAP1 PUSH1 0x20 ADD KECCAK256 SWAP1 POP SWAP3 SWAP2 POP POP JUMP JUMPDEST PUSH1 0x3 SLOAD DUP2 JUMP JUMPDEST PUSH1 0x2 PUSH1 0x20 MSTORE DUP1 PUSH0 MSTORE PUSH1 0x40 PUSH0 KECCAK256 PUSH0 SWAP2 POP SWAP1 POP DUP1 PUSH0 ADD SLOAD SWAP1 DUP1 PUSH1 0x1 ADD PUSH0 SWAP1 SLOAD SWAP1 PUSH2 0x100 EXP SWAP1 DIV PUSH20 0xFFFFFFFFFFFFFFFFFFFFFFFFFFFFFFFFFFFFFFFF AND SWAP1 POP DUP3 JUMP JUMPDEST PUSH1 0x6 SLOAD DUP2 JUMP JUMPDEST PUSH0 ISZERO ISZERO PUSH1 0x1 PUSH0 CALLER PUSH20 0xFFFFFFFFFFFFFFFFFFFFFFFFFFFFFFFFFFFFFFFF AND PUSH20 0xFFFFFFFFFFFFFFFFFFFFFFFFFFFFFFFFFFFFFFFF AND DUP2 MSTORE PUSH1 0x20 ADD SWAP1 DUP2 MSTORE PUSH1 0x20 ADD PUSH0 KECCAK256 PUSH1 0x1 ADD PUSH1 0x8 SWAP1 SLOAD SWAP1 PUSH2 0x100 EXP SWAP1 DIV PUSH1 0xFF AND ISZERO ISZERO EQ PUSH2 0xEE3 JUMPI PUSH1 0x40 MLOAD PUSH32 0x8C379A000000000000000000000000000000000000000000000000000000000 DUP2 MSTORE PUSH1 0x4 ADD PUSH2 0xEDA SWAP1 PUSH2 0x1FDE JUMP JUMPDEST PUSH1 0x40 MLOAD DUP1 SWAP2 SUB SWAP1 REVERT JUMPDEST PUSH1 0x1 DUP1 PUSH0 CALLER PUSH20 0xFFFFFFFFFFFFFFFFFFFFFFFFFFFFFFFFFFFFFFFF AND PUSH20 0xFFFFFFFFFFFFFFFFFFFFFFFFFFFFFFFFFFFFFFFF AND DUP2 MSTORE PUSH1 0x20 ADD SWAP1 DUP2 MSTORE PUSH1 0x20 ADD PUSH0 KECCAK256 PUSH1 0x1 ADD PUSH1 0x8 PUSH2 0x100 EXP DUP2 SLOAD DUP2 PUSH1 0xFF MUL NOT AND SWAP1 DUP4 ISZERO ISZERO MUL OR SWAP1 SSTORE POP PUSH1 0x1 PUSH0 CALLER PUSH20 0xFFFFFFFFFFFFFFFFFFFFFFFFFFFFFFFFFFFFFFFF AND PUSH20 0xFFFFFFFFFFFFFFFFFFFFFFFFFFFFFFFFFFFFFFFF AND DUP2 MSTORE PUSH1 0x20 ADD SWAP1 DUP2 MSTORE PUSH1 0x20 ADD PUSH0 KECCAK256 PUSH0 ADD SLOAD PUSH2 0xF84 DUP3 PUSH2 0x5E8 JUMP JUMPDEST EQ PUSH2 0xFC4 JUMPI PUSH1 0x40 MLOAD PUSH32 0x8C379A000000000000000000000000000000000000000000000000000000000 DUP2 MSTORE PUSH1 0x4 ADD PUSH2 0xFBB SWAP1 PUSH2 0x206C JUMP JUMPDEST PUSH1 0x40 MLOAD DUP1 SWAP2 SUB SWAP1 REVERT JUMPDEST PUSH1 0x1 PUSH0 CALLER PUSH20 0xFFFFFFFFFFFFFFFFFFFFFFFFFFFFFFFFFFFFFFFF AND PUSH20 0xFFFFFFFFFFFFFFFFFFFFFFFFFFFFFFFFFFFFFFFF AND DUP2 MSTORE PUSH1 0x20 ADD SWAP1 DUP2 MSTORE PUSH1 0x20 ADD PUSH0 KECCAK256 PUSH1 0x1 ADD PUSH0 SWAP1 SLOAD SWAP1 PUSH2 0x100 EXP SWAP1 DIV PUSH8 0xFFFFFFFFFFFFFFFF AND PUSH8 0xFFFFFFFFFFFFFFFF AND NUMBER PUSH8 0xFFFFFFFFFFFFFFFF AND GT PUSH2 0x106D JUMPI PUSH1 0x40 MLOAD PUSH32 0x8C379A000000000000000000000000000000000000000000000000000000000 DUP2 MSTORE PUSH1 0x4 ADD PUSH2 0x1064 SWAP1 PUSH2 0x2120 JUMP JUMPDEST PUSH1 0x40 MLOAD DUP1 SWAP2 SUB SWAP1 REVERT JUMPDEST PUSH1 0xFA PUSH1 0x1 PUSH0 CALLER PUSH20 0xFFFFFFFFFFFFFFFFFFFFFFFFFFFFFFFFFFFFFFFF AND PUSH20 0xFFFFFFFFFFFFFFFFFFFFFFFFFFFFFFFFFFFFFFFF AND DUP2 MSTORE PUSH1 0x20 ADD SWAP1 DUP2 MSTORE PUSH1 0x20 ADD PUSH0 KECCAK256 PUSH1 0x1 ADD PUSH0 SWAP1 SLOAD SWAP1 PUSH2 0x100 EXP SWAP1 DIV PUSH8 0xFFFFFFFFFFFFFFFF AND PUSH2 0x10CD SWAP2 SWAP1 PUSH2 0x2151 JUMP JUMPDEST PUSH8 0xFFFFFFFFFFFFFFFF AND NUMBER PUSH8 0xFFFFFFFFFFFFFFFF AND GT ISZERO PUSH2 0x1123 JUMPI PUSH1 0x40 MLOAD PUSH32 0x8C379A000000000000000000000000000000000000000000000000000000000 DUP2 MSTORE PUSH1 0x4 ADD PUSH2 0x111A SWAP1 PUSH2 0x21FC JUMP JUMPDEST PUSH1 0x40 MLOAD DUP1 SWAP2 SUB SWAP1 REVERT JUMPDEST PUSH0 PUSH1 0x1 PUSH0 CALLER PUSH20 0xFFFFFFFFFFFFFFFFFFFFFFFFFFFFFFFFFFFFFFFF AND PUSH20 0xFFFFFFFFFFFFFFFFFFFFFFFFFFFFFFFFFFFFFFFF AND DUP2 MSTORE PUSH1 0x20 ADD SWAP1 DUP2 MSTORE PUSH1 0x20 ADD PUSH0 KECCAK256 PUSH1 0x1 ADD PUSH0 SWAP1 SLOAD SWAP1 PUSH2 0x100 EXP SWAP1 DIV PUSH8 0xFFFFFFFFFFFFFFFF AND PUSH8 0xFFFFFFFFFFFFFFFF AND BLOCKHASH SWAP1 POP PUSH0 DUP1 PUSH0 SWAP1 SLOAD SWAP1 PUSH2 0x100 EXP SWAP1 DIV PUSH1 0xFF AND PUSH1 0xFF AND DUP3 DUP5 PUSH1 0x40 MLOAD PUSH1 0x20 ADD PUSH2 0x11AA SWAP3 SWAP2 SWAP1 PUSH2 0x221A JUMP JUMPDEST PUSH1 0x40 MLOAD PUSH1 0x20 DUP2 DUP4 SUB SUB DUP2 MSTORE SWAP1 PUSH1 0x40 MSTORE DUP1 MLOAD SWAP1 PUSH1 0x20 ADD KECCAK256 PUSH0 SHR PUSH2 0x11CC SWAP2 SWAP1 PUSH2 0x2245 JUMP JUMPDEST SWAP1 POP PUSH32 0xBC016DD1CADEAEFCB851AF7A0A93532E0023D536894B730801F7BCFE7065BCC2 CALLER DUP5 DUP4 PUSH1 0x40 MLOAD PUSH2 0x1201 SWAP4 SWAP3 SWAP2 SWAP1 PUSH2 0x2275 JUMP JUMPDEST PUSH1 0x40 MLOAD DUP1 SWAP2 SUB SWAP1 LOG1 POP POP POP JUMP JUMPDEST PUSH0 PUSH1 0x2 PUSH0 DUP1 DUP2 MSTORE PUSH1 0x20 ADD SWAP1 DUP2 MSTORE PUSH1 0x20 ADD PUSH0 KECCAK256 PUSH0 ADD SLOAD SWAP1 POP PUSH0 PUSH1 0x2 PUSH0 PUSH1 0x1 DUP2 MSTORE PUSH1 0x20 ADD SWAP1 DUP2 MSTORE PUSH1 0x20 ADD PUSH0 KECCAK256 PUSH0 ADD SLOAD SWAP1 POP PUSH0 PUSH1 0x2 PUSH0 DUP1 DUP2 MSTORE PUSH1 0x20 ADD SWAP1 DUP2 MSTORE PUSH1 0x20 ADD PUSH0 KECCAK256 PUSH1 0x1 ADD PUSH0 SWAP1 SLOAD SWAP1 PUSH2 0x100 EXP SWAP1 DIV PUSH20 0xFFFFFFFFFFFFFFFFFFFFFFFFFFFFFFFFFFFFFFFF AND SWAP1 POP PUSH0 PUSH1 0x2 PUSH0 PUSH1 0x1 DUP2 MSTORE PUSH1 0x20 ADD SWAP1 DUP2 MSTORE PUSH1 0x20 ADD PUSH0 KECCAK256 PUSH1 0x1 ADD PUSH0 SWAP1 SLOAD SWAP1 PUSH2 0x100 EXP SWAP1 DIV PUSH20 0xFFFFFFFFFFFFFFFFFFFFFFFFFFFFFFFFFFFFFFFF AND SWAP1 POP DUP3 PUSH1 0x7 PUSH1 0x1 DUP7 PUSH2 0x12BC SWAP2 SWAP1 PUSH2 0x1D87 JUMP JUMPDEST PUSH2 0x12C6 SWAP2 SWAP1 PUSH2 0x2245 JUMP JUMPDEST EQ DUP1 PUSH2 0x12E9 JUMPI POP DUP3 PUSH1 0x7 PUSH1 0x2 DUP7 PUSH2 0x12DD SWAP2 SWAP1 PUSH2 0x1D87 JUMP JUMPDEST PUSH2 0x12E7 SWAP2 SWAP1 PUSH2 0x2245 JUMP JUMPDEST EQ JUMPDEST DUP1 PUSH2 0x130B JUMPI POP DUP3 PUSH1 0x7 PUSH1 0x3 DUP7 PUSH2 0x12FF SWAP2 SWAP1 PUSH2 0x1D87 JUMP JUMPDEST PUSH2 0x1309 SWAP2 SWAP1 PUSH2 0x2245 JUMP JUMPDEST EQ JUMPDEST ISZERO PUSH2 0x135B JUMPI DUP2 PUSH20 0xFFFFFFFFFFFFFFFFFFFFFFFFFFFFFFFFFFFFFFFF AND PUSH2 0x8FC PUSH1 0x4 SLOAD SWAP1 DUP2 ISZERO MUL SWAP1 PUSH1 0x40 MLOAD PUSH0 PUSH1 0x40 MLOAD DUP1 DUP4 SUB DUP2 DUP6 DUP9 DUP9 CALL SWAP4 POP POP POP POP ISZERO DUP1 ISZERO PUSH2 0x1355 JUMPI RETURNDATASIZE PUSH0 DUP1 RETURNDATACOPY RETURNDATASIZE PUSH0 REVERT JUMPDEST POP PUSH2 0x14B0 JUMP JUMPDEST DUP4 PUSH1 0x7 PUSH1 0x1 DUP6 PUSH2 0x136B SWAP2 SWAP1 PUSH2 0x1D87 JUMP JUMPDEST PUSH2 0x1375 SWAP2 SWAP1 PUSH2 0x2245 JUMP JUMPDEST EQ DUP1 PUSH2 0x1398 JUMPI POP DUP4 PUSH1 0x7 PUSH1 0x2 DUP6 PUSH2 0x138C SWAP2 SWAP1 PUSH2 0x1D87 JUMP JUMPDEST PUSH2 0x1396 SWAP2 SWAP1 PUSH2 0x2245 JUMP JUMPDEST EQ JUMPDEST DUP1 PUSH2 0x13BA JUMPI POP DUP4 PUSH1 0x7 PUSH1 0x3 DUP6 PUSH2 0x13AE SWAP2 SWAP1 PUSH2 0x1D87 JUMP JUMPDEST PUSH2 0x13B8 SWAP2 SWAP1 PUSH2 0x2245 JUMP JUMPDEST EQ JUMPDEST ISZERO PUSH2 0x140A JUMPI DUP1 PUSH20 0xFFFFFFFFFFFFFFFFFFFFFFFFFFFFFFFFFFFFFFFF AND PUSH2 0x8FC PUSH1 0x4 SLOAD SWAP1 DUP2 ISZERO MUL SWAP1 PUSH1 0x40 MLOAD PUSH0 PUSH1 0x40 MLOAD DUP1 DUP4 SUB DUP2 DUP6 DUP9 DUP9 CALL SWAP4 POP POP POP POP ISZERO DUP1 ISZERO PUSH2 0x1404 JUMPI RETURNDATASIZE PUSH0 DUP1 RETURNDATACOPY RETURNDATASIZE PUSH0 REVERT JUMPDEST POP PUSH2 0x14AF JUMP JUMPDEST DUP2 PUSH20 0xFFFFFFFFFFFFFFFFFFFFFFFFFFFFFFFFFFFFFFFF AND PUSH2 0x8FC PUSH1 0x2 PUSH1 0x4 SLOAD PUSH2 0x1433 SWAP2 SWAP1 PUSH2 0x1F02 JUMP JUMPDEST SWAP1 DUP2 ISZERO MUL SWAP1 PUSH1 0x40 MLOAD PUSH0 PUSH1 0x40 MLOAD DUP1 DUP4 SUB DUP2 DUP6 DUP9 DUP9 CALL SWAP4 POP POP POP POP ISZERO DUP1 ISZERO PUSH2 0x145B JUMPI RETURNDATASIZE PUSH0 DUP1 RETURNDATACOPY RETURNDATASIZE PUSH0 REVERT JUMPDEST POP DUP1 PUSH20 0xFFFFFFFFFFFFFFFFFFFFFFFFFFFFFFFFFFFFFFFF AND PUSH2 0x8FC PUSH1 0x2 PUSH1 0x4 SLOAD PUSH2 0x1485 SWAP2 SWAP1 PUSH2 0x1F02 JUMP JUMPDEST SWAP1 DUP2 ISZERO MUL SWAP1 PUSH1 0x40 MLOAD PUSH0 PUSH1 0x40 MLOAD DUP1 DUP4 SUB DUP2 DUP6 DUP9 DUP9 CALL SWAP4 POP POP POP POP ISZERO DUP1 ISZERO PUSH2 0x14AD JUMPI RETURNDATASIZE PUSH0 DUP1 RETURNDATACOPY RETURNDATASIZE PUSH0 REVERT JUMPDEST POP JUMPDEST JUMPDEST PUSH2 0x14B8 PUSH2 0x14BE JUMP JUMPDEST POP POP POP POP JUMP JUMPDEST PUSH0 PUSH1 0x3 DUP2 SWAP1 SSTORE POP PUSH0 PUSH1 0x4 DUP2 SWAP1 SSTORE POP PUSH0 PUSH1 0x5 DUP2 SWAP1 SSTORE POP PUSH0 PUSH1 0x6 DUP2 SWAP1 SSTORE POP PUSH1 0x7 PUSH1 0x2 PUSH0 DUP1 DUP2 MSTORE PUSH1 0x20 ADD SWAP1 DUP2 MSTORE PUSH1 0x20 ADD PUSH0 KECCAK256 PUSH0 ADD DUP2 SWAP1 SSTORE POP PUSH0 PUSH1 0x2 PUSH0 DUP1 DUP2 MSTORE PUSH1 0x20 ADD SWAP1 DUP2 MSTORE PUSH1 0x20 ADD PUSH0 KECCAK256 PUSH1 0x1 ADD PUSH0 PUSH2 0x100 EXP DUP2 SLOAD DUP2 PUSH20 0xFFFFFFFFFFFFFFFFFFFFFFFFFFFFFFFFFFFFFFFF MUL NOT AND SWAP1 DUP4 PUSH20 0xFFFFFFFFFFFFFFFFFFFFFFFFFFFFFFFFFFFFFFFF AND MUL OR SWAP1 SSTORE POP PUSH1 0x7 PUSH1 0x2 PUSH0 PUSH1 0x1 DUP2 MSTORE PUSH1 0x20 ADD SWAP1 DUP2 MSTORE PUSH1 0x20 ADD PUSH0 KECCAK256 PUSH0 ADD DUP2 SWAP1 SSTORE POP PUSH0 PUSH1 0x2 PUSH0 PUSH1 0x1 DUP2 MSTORE PUSH1 0x20 ADD SWAP1 DUP2 MSTORE PUSH1 0x20 ADD PUSH0 KECCAK256 PUSH1 0x1 ADD PUSH0 PUSH2 0x100 EXP DUP2 SLOAD DUP2 PUSH20 0xFFFFFFFFFFFFFFFFFFFFFFFFFFFFFFFFFFFFFFFF MUL NOT AND SWAP1 DUP4 PUSH20 0xFFFFFFFFFFFFFFFFFFFFFFFFFFFFFFFFFFFFFFFF AND MUL OR SWAP1 SSTORE POP JUMP JUMPDEST DUP1 PUSH1 0x1 PUSH0 CALLER PUSH20 0xFFFFFFFFFFFFFFFFFFFFFFFFFFFFFFFFFFFFFFFF AND PUSH20 0xFFFFFFFFFFFFFFFFFFFFFFFFFFFFFFFFFFFFFFFF AND DUP2 MSTORE PUSH1 0x20 ADD SWAP1 DUP2 MSTORE PUSH1 0x20 ADD PUSH0 KECCAK256 PUSH0 ADD DUP2 SWAP1 SSTORE POP NUMBER PUSH1 0x1 PUSH0 CALLER PUSH20 0xFFFFFFFFFFFFFFFFFFFFFFFFFFFFFFFFFFFFFFFF AND PUSH20 0xFFFFFFFFFFFFFFFFFFFFFFFFFFFFFFFFFFFFFFFF AND DUP2 MSTORE PUSH1 0x20 ADD SWAP1 DUP2 MSTORE PUSH1 0x20 ADD PUSH0 KECCAK256 PUSH1 0x1 ADD PUSH0 PUSH2 0x100 EXP DUP2 SLOAD DUP2 PUSH8 0xFFFFFFFFFFFFFFFF MUL NOT AND SWAP1 DUP4 PUSH8 0xFFFFFFFFFFFFFFFF AND MUL OR SWAP1 SSTORE POP PUSH0 PUSH1 0x1 PUSH0 CALLER PUSH20 0xFFFFFFFFFFFFFFFFFFFFFFFFFFFFFFFFFFFFFFFF AND PUSH20 0xFFFFFFFFFFFFFFFFFFFFFFFFFFFFFFFFFFFFFFFF AND DUP2 MSTORE PUSH1 0x20 ADD SWAP1 DUP2 MSTORE PUSH1 0x20 ADD PUSH0 KECCAK256 PUSH1 0x1 ADD PUSH1 0x8 PUSH2 0x100 EXP DUP2 SLOAD DUP2 PUSH1 0xFF MUL NOT AND SWAP1 DUP4 ISZERO ISZERO MUL OR SWAP1 SSTORE POP PUSH32 0x3C1A1F8F38335B17F751C6DA4BA7D1865F26B3997535176F5080DE9FAD891603 CALLER PUSH1 0x1 PUSH0 CALLER PUSH20 0xFFFFFFFFFFFFFFFFFFFFFFFFFFFFFFFFFFFFFFFF AND PUSH20 0xFFFFFFFFFFFFFFFFFFFFFFFFFFFFFFFFFFFFFFFF AND DUP2 MSTORE PUSH1 0x20 ADD SWAP1 DUP2 MSTORE PUSH1 0x20 ADD PUSH0 KECCAK256 PUSH0 ADD SLOAD PUSH1 0x1 PUSH0 CALLER PUSH20 0xFFFFFFFFFFFFFFFFFFFFFFFFFFFFFFFFFFFFFFFF AND PUSH20 0xFFFFFFFFFFFFFFFFFFFFFFFFFFFFFFFFFFFFFFFF AND DUP2 MSTORE PUSH1 0x20 ADD SWAP1 DUP2 MSTORE PUSH1 0x20 ADD PUSH0 KECCAK256 PUSH1 0x1 ADD PUSH0 SWAP1 SLOAD SWAP1 PUSH2 0x100 EXP SWAP1 DIV PUSH8 0xFFFFFFFFFFFFFFFF AND PUSH1 0x40 MLOAD PUSH2 0x177B SWAP4 SWAP3 SWAP2 SWAP1 PUSH2 0x22B9 JUMP JUMPDEST PUSH1 0x40 MLOAD DUP1 SWAP2 SUB SWAP1 LOG1 POP JUMP JUMPDEST PUSH0 PUSH1 0x40 MLOAD SWAP1 POP SWAP1 JUMP JUMPDEST PUSH0 DUP1 REVERT JUMPDEST PUSH0 DUP1 REVERT JUMPDEST PUSH0 DUP2 SWAP1 POP SWAP2 SWAP1 POP JUMP JUMPDEST PUSH2 0x17A9 DUP2 PUSH2 0x1797 JUMP JUMPDEST DUP2 EQ PUSH2 0x17B3 JUMPI PUSH0 DUP1 REVERT JUMPDEST POP JUMP JUMPDEST PUSH0 DUP2 CALLDATALOAD SWAP1 POP PUSH2 0x17C4 DUP2 PUSH2 0x17A0 JUMP JUMPDEST SWAP3 SWAP2 POP POP JUMP JUMPDEST PUSH0 DUP1 REVERT JUMPDEST PUSH0 DUP1 REVERT JUMPDEST PUSH0 PUSH1 0x1F NOT PUSH1 0x1F DUP4 ADD AND SWAP1 POP SWAP2 SWAP1 POP JUMP JUMPDEST PUSH32 0x4E487B7100000000000000000000000000000000000000000000000000000000 PUSH0 MSTORE PUSH1 0x41 PUSH1 0x4 MSTORE PUSH1 0x24 PUSH0 REVERT JUMPDEST PUSH2 0x1818 DUP3 PUSH2 0x17D2 JUMP JUMPDEST DUP2 ADD DUP2 DUP2 LT PUSH8 0xFFFFFFFFFFFFFFFF DUP3 GT OR ISZERO PUSH2 0x1837 JUMPI PUSH2 0x1836 PUSH2 0x17E2 JUMP JUMPDEST JUMPDEST DUP1 PUSH1 0x40 MSTORE POP POP POP JUMP JUMPDEST PUSH0 PUSH2 0x1849 PUSH2 0x1786 JUMP JUMPDEST SWAP1 POP PUSH2 0x1855 DUP3 DUP3 PUSH2 0x180F JUMP JUMPDEST SWAP2 SWAP1 POP JUMP JUMPDEST PUSH0 PUSH8 0xFFFFFFFFFFFFFFFF DUP3 GT ISZERO PUSH2 0x1874 JUMPI PUSH2 0x1873 PUSH2 0x17E2 JUMP JUMPDEST JUMPDEST PUSH2 0x187D DUP3 PUSH2 0x17D2 JUMP JUMPDEST SWAP1 POP PUSH1 0x20 DUP2 ADD SWAP1 POP SWAP2 SWAP1 POP JUMP JUMPDEST DUP3 DUP2 DUP4 CALLDATACOPY PUSH0 DUP4 DUP4 ADD MSTORE POP POP POP JUMP JUMPDEST PUSH0 PUSH2 0x18AA PUSH2 0x18A5 DUP5 PUSH2 0x185A JUMP JUMPDEST PUSH2 0x1840 JUMP JUMPDEST SWAP1 POP DUP3 DUP2 MSTORE PUSH1 0x20 DUP2 ADD DUP5 DUP5 DUP5 ADD GT ISZERO PUSH2 0x18C6 JUMPI PUSH2 0x18C5 PUSH2 0x17CE JUMP JUMPDEST JUMPDEST PUSH2 0x18D1 DUP5 DUP3 DUP6 PUSH2 0x188A JUMP JUMPDEST POP SWAP4 SWAP3 POP POP POP JUMP JUMPDEST PUSH0 DUP3 PUSH1 0x1F DUP4 ADD SLT PUSH2 0x18ED JUMPI PUSH2 0x18EC PUSH2 0x17CA JUMP JUMPDEST JUMPDEST DUP2 CALLDATALOAD PUSH2 0x18FD DUP5 DUP3 PUSH1 0x20 DUP7 ADD PUSH2 0x1898 JUMP JUMPDEST SWAP2 POP POP SWAP3 SWAP2 POP POP JUMP JUMPDEST PUSH0 DUP1 PUSH1 0x40 DUP4 DUP6 SUB SLT ISZERO PUSH2 0x191C JUMPI PUSH2 0x191B PUSH2 0x178F JUMP JUMPDEST JUMPDEST PUSH0 PUSH2 0x1929 DUP6 DUP3 DUP7 ADD PUSH2 0x17B6 JUMP JUMPDEST SWAP3 POP POP PUSH1 0x20 DUP4 ADD CALLDATALOAD PUSH8 0xFFFFFFFFFFFFFFFF DUP2 GT ISZERO PUSH2 0x194A JUMPI PUSH2 0x1949 PUSH2 0x1793 JUMP JUMPDEST JUMPDEST PUSH2 0x1956 DUP6 DUP3 DUP7 ADD PUSH2 0x18D9 JUMP JUMPDEST SWAP2 POP POP SWAP3 POP SWAP3 SWAP1 POP JUMP JUMPDEST PUSH0 DUP2 SWAP1 POP SWAP2 SWAP1 POP JUMP JUMPDEST PUSH2 0x1972 DUP2 PUSH2 0x1960 JUMP JUMPDEST DUP3 MSTORE POP POP JUMP JUMPDEST PUSH0 PUSH1 0x20 DUP3 ADD SWAP1 POP PUSH2 0x198B PUSH0 DUP4 ADD DUP5 PUSH2 0x1969 JUMP JUMPDEST SWAP3 SWAP2 POP POP JUMP JUMPDEST PUSH2 0x199A DUP2 PUSH2 0x1797 JUMP JUMPDEST DUP3 MSTORE POP POP JUMP JUMPDEST PUSH0 PUSH1 0x20 DUP3 ADD SWAP1 POP PUSH2 0x19B3 PUSH0 DUP4 ADD DUP5 PUSH2 0x1991 JUMP JUMPDEST SWAP3 SWAP2 POP POP JUMP JUMPDEST PUSH0 DUP1 PUSH0 PUSH1 0x60 DUP5 DUP7 SUB SLT ISZERO PUSH2 0x19D0 JUMPI PUSH2 0x19CF PUSH2 0x178F JUMP JUMPDEST JUMPDEST PUSH0 PUSH2 0x19DD DUP7 DUP3 DUP8 ADD PUSH2 0x17B6 JUMP JUMPDEST SWAP4 POP POP PUSH1 0x20 DUP5 ADD CALLDATALOAD PUSH8 0xFFFFFFFFFFFFFFFF DUP2 GT ISZERO PUSH2 0x19FE JUMPI PUSH2 0x19FD PUSH2 0x1793 JUMP JUMPDEST JUMPDEST PUSH2 0x1A0A DUP7 DUP3 DUP8 ADD PUSH2 0x18D9 JUMP JUMPDEST SWAP3 POP POP PUSH1 0x40 PUSH2 0x1A1B DUP7 DUP3 DUP8 ADD PUSH2 0x17B6 JUMP JUMPDEST SWAP2 POP POP SWAP3 POP SWAP3 POP SWAP3 JUMP JUMPDEST PUSH2 0x1A2E DUP2 PUSH2 0x1960 JUMP JUMPDEST DUP2 EQ PUSH2 0x1A38 JUMPI PUSH0 DUP1 REVERT JUMPDEST POP JUMP JUMPDEST PUSH0 DUP2 CALLDATALOAD SWAP1 POP PUSH2 0x1A49 DUP2 PUSH2 0x1A25 JUMP JUMPDEST SWAP3 SWAP2 POP POP JUMP JUMPDEST PUSH0 PUSH1 0x20 DUP3 DUP5 SUB SLT ISZERO PUSH2 0x1A64 JUMPI PUSH2 0x1A63 PUSH2 0x178F JUMP JUMPDEST JUMPDEST PUSH0 PUSH2 0x1A71 DUP5 DUP3 DUP6 ADD PUSH2 0x1A3B JUMP JUMPDEST SWAP2 POP POP SWAP3 SWAP2 POP POP JUMP JUMPDEST PUSH0 DUP1 PUSH1 0x40 DUP4 DUP6 SUB SLT ISZERO PUSH2 0x1A90 JUMPI PUSH2 0x1A8F PUSH2 0x178F JUMP JUMPDEST JUMPDEST PUSH0 PUSH2 0x1A9D DUP6 DUP3 DUP7 ADD PUSH2 0x1A3B JUMP JUMPDEST SWAP3 POP POP PUSH1 0x20 PUSH2 0x1AAE DUP6 DUP3 DUP7 ADD PUSH2 0x17B6 JUMP JUMPDEST SWAP2 POP POP SWAP3 POP SWAP3 SWAP1 POP JUMP JUMPDEST PUSH0 DUP1 PUSH1 0x40 DUP4 DUP6 SUB SLT ISZERO PUSH2 0x1ACE JUMPI PUSH2 0x1ACD PUSH2 0x178F JUMP JUMPDEST JUMPDEST PUSH0 PUSH2 0x1ADB DUP6 DUP3 DUP7 ADD PUSH2 0x1A3B JUMP JUMPDEST SWAP3 POP POP PUSH1 0x20 PUSH2 0x1AEC DUP6 DUP3 DUP7 ADD PUSH2 0x1A3B JUMP JUMPDEST SWAP2 POP POP SWAP3 POP SWAP3 SWAP1 POP JUMP JUMPDEST PUSH0 PUSH1 0x20 DUP3 DUP5 SUB SLT ISZERO PUSH2 0x1B0B JUMPI PUSH2 0x1B0A PUSH2 0x178F JUMP JUMPDEST JUMPDEST PUSH0 PUSH2 0x1B18 DUP5 DUP3 DUP6 ADD PUSH2 0x17B6 JUMP JUMPDEST SWAP2 POP POP SWAP3 SWAP2 POP POP JUMP JUMPDEST PUSH0 PUSH20 0xFFFFFFFFFFFFFFFFFFFFFFFFFFFFFFFFFFFFFFFF DUP3 AND SWAP1 POP SWAP2 SWAP1 POP JUMP JUMPDEST PUSH0 PUSH2 0x1B4A DUP3 PUSH2 0x1B21 JUMP JUMPDEST SWAP1 POP SWAP2 SWAP1 POP JUMP JUMPDEST PUSH2 0x1B5A DUP2 PUSH2 0x1B40 JUMP JUMPDEST DUP3 MSTORE POP POP JUMP JUMPDEST PUSH0 PUSH1 0x40 DUP3 ADD SWAP1 POP PUSH2 0x1B73 PUSH0 DUP4 ADD DUP6 PUSH2 0x1991 JUMP JUMPDEST PUSH2 0x1B80 PUSH1 0x20 DUP4 ADD DUP5 PUSH2 0x1B51 JUMP JUMPDEST SWAP4 SWAP3 POP POP POP JUMP JUMPDEST PUSH0 DUP2 MLOAD SWAP1 POP SWAP2 SWAP1 POP JUMP JUMPDEST PUSH0 DUP2 SWAP1 POP SWAP3 SWAP2 POP POP JUMP JUMPDEST PUSH0 JUMPDEST DUP4 DUP2 LT ISZERO PUSH2 0x1BB8 JUMPI DUP1 DUP3 ADD MLOAD DUP2 DUP5 ADD MSTORE PUSH1 0x20 DUP2 ADD SWAP1 POP PUSH2 0x1B9D JUMP JUMPDEST PUSH0 DUP5 DUP5 ADD MSTORE POP POP POP POP JUMP JUMPDEST PUSH0 PUSH2 0x1BCD DUP3 PUSH2 0x1B87 JUMP JUMPDEST PUSH2 0x1BD7 DUP2 DUP6 PUSH2 0x1B91 JUMP JUMPDEST SWAP4 POP PUSH2 0x1BE7 DUP2 DUP6 PUSH1 0x20 DUP7 ADD PUSH2 0x1B9B JUMP JUMPDEST DUP1 DUP5 ADD SWAP2 POP POP SWAP3 SWAP2 POP POP JUMP JUMPDEST PUSH0 PUSH2 0x1BFE DUP3 DUP5 PUSH2 0x1BC3 JUMP JUMPDEST SWAP2 POP DUP2 SWAP1 POP SWAP3 SWAP2 POP POP JUMP JUMPDEST PUSH0 DUP2 MLOAD SWAP1 POP SWAP2 SWAP1 POP JUMP JUMPDEST PUSH0 DUP2 SWAP1 POP PUSH1 0x20 DUP3 ADD SWAP1 POP SWAP2 SWAP1 POP JUMP JUMPDEST PUSH0 PUSH2 0x1C2D DUP3 MLOAD PUSH2 0x1960 JUMP JUMPDEST DUP1 SWAP2 POP POP SWAP2 SWAP1 POP JUMP JUMPDEST PUSH0 DUP3 DUP3 SHL SWAP1 POP SWAP3 SWAP2 POP POP JUMP JUMPDEST PUSH0 PUSH2 0x1C4C DUP3 PUSH2 0x1C09 JUMP JUMPDEST DUP3 PUSH2 0x1C56 DUP5 PUSH2 0x1C13 JUMP JUMPDEST SWAP1 POP PUSH2 0x1C61 DUP2 PUSH2 0x1C22 JUMP JUMPDEST SWAP3 POP PUSH1 0x20 DUP3 LT ISZERO PUSH2 0x1CA1 JUMPI PUSH2 0x1C9C PUSH32 0xFFFFFFFFFFFFFFFFFFFFFFFFFFFFFFFFFFFFFFFFFFFFFFFFFFFFFFFFFFFFFFFF DUP4 PUSH1 0x20 SUB PUSH1 0x8 MUL PUSH2 0x1C36 JUMP JUMPDEST DUP4 AND SWAP3 POP JUMPDEST POP POP SWAP2 SWAP1 POP JUMP JUMPDEST PUSH0 DUP2 SWAP1 POP SWAP2 SWAP1 POP JUMP JUMPDEST PUSH2 0x1CC2 PUSH2 0x1CBD DUP3 PUSH2 0x1797 JUMP JUMPDEST PUSH2 0x1CA8 JUMP JUMPDEST DUP3 MSTORE POP POP JUMP JUMPDEST PUSH0 DUP2 SWAP1 POP SWAP2 SWAP1 POP JUMP JUMPDEST PUSH2 0x1CE2 PUSH2 0x1CDD DUP3 PUSH2 0x1960 JUMP JUMPDEST PUSH2 0x1CC8 JUMP JUMPDEST DUP3 MSTORE POP POP JUMP JUMPDEST PUSH0 PUSH2 0x1CF3 DUP3 DUP6 PUSH2 0x1CB1 JUMP JUMPDEST PUSH1 0x20 DUP3 ADD SWAP2 POP PUSH2 0x1D03 DUP3 DUP5 PUSH2 0x1CD1 JUMP JUMPDEST PUSH1 0x20 DUP3 ADD SWAP2 POP DUP2 SWAP1 POP SWAP4 SWAP3 POP POP POP JUMP JUMPDEST PUSH32 0x4E487B7100000000000000000000000000000000000000000000000000000000 PUSH0 MSTORE PUSH1 0x11 PUSH1 0x4 MSTORE PUSH1 0x24 PUSH0 REVERT JUMPDEST PUSH0 PUSH2 0x1D4A DUP3 PUSH2 0x1797 JUMP JUMPDEST SWAP2 POP PUSH32 0xFFFFFFFFFFFFFFFFFFFFFFFFFFFFFFFFFFFFFFFFFFFFFFFFFFFFFFFFFFFFFFFF DUP3 SUB PUSH2 0x1D7C JUMPI PUSH2 0x1D7B PUSH2 0x1D13 JUMP JUMPDEST JUMPDEST PUSH1 0x1 DUP3 ADD SWAP1 POP SWAP2 SWAP1 POP JUMP JUMPDEST PUSH0 PUSH2 0x1D91 DUP3 PUSH2 0x1797 JUMP JUMPDEST SWAP2 POP PUSH2 0x1D9C DUP4 PUSH2 0x1797 JUMP JUMPDEST SWAP3 POP DUP3 DUP3 ADD SWAP1 POP DUP1 DUP3 GT ISZERO PUSH2 0x1DB4 JUMPI PUSH2 0x1DB3 PUSH2 0x1D13 JUMP JUMPDEST JUMPDEST SWAP3 SWAP2 POP POP JUMP JUMPDEST PUSH0 DUP2 PUSH1 0x60 SHL SWAP1 POP SWAP2 SWAP1 POP JUMP JUMPDEST PUSH0 PUSH2 0x1DD0 DUP3 PUSH2 0x1DBA JUMP JUMPDEST SWAP1 POP SWAP2 SWAP1 POP JUMP JUMPDEST PUSH0 PUSH2 0x1DE1 DUP3 PUSH2 0x1DC6 JUMP JUMPDEST SWAP1 POP SWAP2 SWAP1 POP JUMP JUMPDEST PUSH2 0x1DF9 PUSH2 0x1DF4 DUP3 PUSH2 0x1B40 JUMP JUMPDEST PUSH2 0x1DD7 JUMP JUMPDEST DUP3 MSTORE POP POP JUMP JUMPDEST PUSH0 PUSH2 0x1E0A DUP3 DUP6 PUSH2 0x1DE8 JUMP JUMPDEST PUSH1 0x14 DUP3 ADD SWAP2 POP PUSH2 0x1E1A DUP3 DUP5 PUSH2 0x1CD1 JUMP JUMPDEST PUSH1 0x20 DUP3 ADD SWAP2 POP DUP2 SWAP1 POP SWAP4 SWAP3 POP POP POP JUMP JUMPDEST PUSH0 DUP3 DUP3 MSTORE PUSH1 0x20 DUP3 ADD SWAP1 POP SWAP3 SWAP2 POP POP JUMP JUMPDEST PUSH32 0x496E76616C696420737461746500000000000000000000000000000000000000 PUSH0 DUP3 ADD MSTORE POP JUMP JUMPDEST PUSH0 PUSH2 0x1E6E PUSH1 0xD DUP4 PUSH2 0x1E2A JUMP JUMPDEST SWAP2 POP PUSH2 0x1E79 DUP3 PUSH2 0x1E3A JUMP JUMPDEST PUSH1 0x20 DUP3 ADD SWAP1 POP SWAP2 SWAP1 POP JUMP JUMPDEST PUSH0 PUSH1 0x20 DUP3 ADD SWAP1 POP DUP2 DUP2 SUB PUSH0 DUP4 ADD MSTORE PUSH2 0x1E9B DUP2 PUSH2 0x1E62 JUMP JUMPDEST SWAP1 POP SWAP2 SWAP1 POP JUMP JUMPDEST PUSH0 PUSH2 0x1EAC DUP3 PUSH2 0x1797 JUMP JUMPDEST SWAP2 POP PUSH2 0x1EB7 DUP4 PUSH2 0x1797 JUMP JUMPDEST SWAP3 POP DUP3 DUP3 SUB SWAP1 POP DUP2 DUP2 GT ISZERO PUSH2 0x1ECF JUMPI PUSH2 0x1ECE PUSH2 0x1D13 JUMP JUMPDEST JUMPDEST SWAP3 SWAP2 POP POP JUMP JUMPDEST PUSH32 0x4E487B7100000000000000000000000000000000000000000000000000000000 PUSH0 MSTORE PUSH1 0x12 PUSH1 0x4 MSTORE PUSH1 0x24 PUSH0 REVERT JUMPDEST PUSH0 PUSH2 0x1F0C DUP3 PUSH2 0x1797 JUMP JUMPDEST SWAP2 POP PUSH2 0x1F17 DUP4 PUSH2 0x1797 JUMP JUMPDEST SWAP3 POP DUP3 PUSH2 0x1F27 JUMPI PUSH2 0x1F26 PUSH2 0x1ED5 JUMP JUMPDEST JUMPDEST DUP3 DUP3 DIV SWAP1 POP SWAP3 SWAP2 POP POP JUMP JUMPDEST PUSH0 PUSH2 0x1F3D DUP3 DUP7 PUSH2 0x1DE8 JUMP JUMPDEST PUSH1 0x14 DUP3 ADD SWAP2 POP PUSH2 0x1F4D DUP3 DUP6 PUSH2 0x1CD1 JUMP JUMPDEST PUSH1 0x20 DUP3 ADD SWAP2 POP PUSH2 0x1F5D DUP3 DUP5 PUSH2 0x1CD1 JUMP JUMPDEST PUSH1 0x20 DUP3 ADD SWAP2 POP DUP2 SWAP1 POP SWAP5 SWAP4 POP POP POP POP JUMP JUMPDEST PUSH32 0x436F6D6D697452657665616C3A3A72657665616C3A20416C7265616479207265 PUSH0 DUP3 ADD MSTORE PUSH32 0x7665616C65640000000000000000000000000000000000000000000000000000 PUSH1 0x20 DUP3 ADD MSTORE POP JUMP JUMPDEST PUSH0 PUSH2 0x1FC8 PUSH1 0x26 DUP4 PUSH2 0x1E2A JUMP JUMPDEST SWAP2 POP PUSH2 0x1FD3 DUP3 PUSH2 0x1F6E JUMP JUMPDEST PUSH1 0x40 DUP3 ADD SWAP1 POP SWAP2 SWAP1 POP JUMP JUMPDEST PUSH0 PUSH1 0x20 DUP3 ADD SWAP1 POP DUP2 DUP2 SUB PUSH0 DUP4 ADD MSTORE PUSH2 0x1FF5 DUP2 PUSH2 0x1FBC JUMP JUMPDEST SWAP1 POP SWAP2 SWAP1 POP JUMP JUMPDEST PUSH32 0x436F6D6D697452657665616C3A3A72657665616C3A2052657665616C65642068 PUSH0 DUP3 ADD MSTORE PUSH32 0x61736820646F6573206E6F74206D6174636820636F6D6D697400000000000000 PUSH1 0x20 DUP3 ADD MSTORE POP JUMP JUMPDEST PUSH0 PUSH2 0x2056 PUSH1 0x39 DUP4 PUSH2 0x1E2A JUMP JUMPDEST SWAP2 POP PUSH2 0x2061 DUP3 PUSH2 0x1FFC JUMP JUMPDEST PUSH1 0x40 DUP3 ADD SWAP1 POP SWAP2 SWAP1 POP JUMP JUMPDEST PUSH0 PUSH1 0x20 DUP3 ADD SWAP1 POP DUP2 DUP2 SUB PUSH0 DUP4 ADD MSTORE PUSH2 0x2083 DUP2 PUSH2 0x204A JUMP JUMPDEST SWAP1 POP SWAP2 SWAP1 POP JUMP JUMPDEST PUSH32 0x436F6D6D697452657665616C3A3A72657665616C3A2052657665616C20616E64 PUSH0 DUP3 ADD MSTORE PUSH32 0x20636F6D6D69742068617070656E6564206F6E207468652073616D6520626C6F PUSH1 0x20 DUP3 ADD MSTORE PUSH32 0x636B000000000000000000000000000000000000000000000000000000000000 PUSH1 0x40 DUP3 ADD MSTORE POP JUMP JUMPDEST PUSH0 PUSH2 0x210A PUSH1 0x42 DUP4 PUSH2 0x1E2A JUMP JUMPDEST SWAP2 POP PUSH2 0x2115 DUP3 PUSH2 0x208A JUMP JUMPDEST PUSH1 0x60 DUP3 ADD SWAP1 POP SWAP2 SWAP1 POP JUMP JUMPDEST PUSH0 PUSH1 0x20 DUP3 ADD SWAP1 POP DUP2 DUP2 SUB PUSH0 DUP4 ADD MSTORE PUSH2 0x2137 DUP2 PUSH2 0x20FE JUMP JUMPDEST SWAP1 POP SWAP2 SWAP1 POP JUMP JUMPDEST PUSH0 PUSH8 0xFFFFFFFFFFFFFFFF DUP3 AND SWAP1 POP SWAP2 SWAP1 POP JUMP JUMPDEST PUSH0 PUSH2 0x215B DUP3 PUSH2 0x213E JUMP JUMPDEST SWAP2 POP PUSH2 0x2166 DUP4 PUSH2 0x213E JUMP JUMPDEST SWAP3 POP DUP3 DUP3 ADD SWAP1 POP PUSH8 0xFFFFFFFFFFFFFFFF DUP2 GT ISZERO PUSH2 0x2186 JUMPI PUSH2 0x2185 PUSH2 0x1D13 JUMP JUMPDEST JUMPDEST SWAP3 SWAP2 POP POP JUMP JUMPDEST PUSH32 0x436F6D6D697452657665616C3A3A72657665616C3A2052657665616C65642074 PUSH0 DUP3 ADD MSTORE PUSH32 0x6F6F206C61746500000000000000000000000000000000000000000000000000 PUSH1 0x20 DUP3 ADD MSTORE POP JUMP JUMPDEST PUSH0 PUSH2 0x21E6 PUSH1 0x27 DUP4 PUSH2 0x1E2A JUMP JUMPDEST SWAP2 POP PUSH2 0x21F1 DUP3 PUSH2 0x218C JUMP JUMPDEST PUSH1 0x40 DUP3 ADD SWAP1 POP SWAP2 SWAP1 POP JUMP JUMPDEST PUSH0 PUSH1 0x20 DUP3 ADD SWAP1 POP DUP2 DUP2 SUB PUSH0 DUP4 ADD MSTORE PUSH2 0x2213 DUP2 PUSH2 0x21DA JUMP JUMPDEST SWAP1 POP SWAP2 SWAP1 POP JUMP JUMPDEST PUSH0 PUSH2 0x2225 DUP3 DUP6 PUSH2 0x1CD1 JUMP JUMPDEST PUSH1 0x20 DUP3 ADD SWAP2 POP PUSH2 0x2235 DUP3 DUP5 PUSH2 0x1CD1 JUMP JUMPDEST PUSH1 0x20 DUP3 ADD SWAP2 POP DUP2 SWAP1 POP SWAP4 SWAP3 POP POP POP JUMP JUMPDEST PUSH0 PUSH2 0x224F DUP3 PUSH2 0x1797 JUMP JUMPDEST SWAP2 POP PUSH2 0x225A DUP4 PUSH2 0x1797 JUMP JUMPDEST SWAP3 POP DUP3 PUSH2 0x226A JUMPI PUSH2 0x2269 PUSH2 0x1ED5 JUMP JUMPDEST JUMPDEST DUP3 DUP3 MOD SWAP1 POP SWAP3 SWAP2 POP POP JUMP JUMPDEST PUSH0 PUSH1 0x60 DUP3 ADD SWAP1 POP PUSH2 0x2288 PUSH0 DUP4 ADD DUP7 PUSH2 0x1B51 JUMP JUMPDEST PUSH2 0x2295 PUSH1 0x20 DUP4 ADD DUP6 PUSH2 0x1969 JUMP JUMPDEST PUSH2 0x22A2 PUSH1 0x40 DUP4 ADD DUP5 PUSH2 0x1991 JUMP JUMPDEST SWAP5 SWAP4 POP POP POP POP JUMP JUMPDEST PUSH2 0x22B3 DUP2 PUSH2 0x213E JUMP JUMPDEST DUP3 MSTORE POP POP JUMP JUMPDEST PUSH0 PUSH1 0x60 DUP3 ADD SWAP1 POP PUSH2 0x22CC PUSH0 DUP4 ADD DUP7 PUSH2 0x1B51 JUMP JUMPDEST PUSH2 0x22D9 PUSH1 0x20 DUP4 ADD DUP6 PUSH2 0x1969 JUMP JUMPDEST PUSH2 0x22E6 PUSH1 0x40 DUP4 ADD DUP5 PUSH2 0x22AA JUMP JUMPDEST SWAP5 SWAP4 POP POP POP POP JUMP INVALID LOG2 PUSH5 0x6970667358 0x22 SLT KECCAK256 CALLVALUE 0xF SWAP12 PUSH10 0x6E8B58768AF9D7AE50CF 0xA6 0xAF PUSH17 0x385AE901253486D7D26F70A516EA5B6473 PUSH16 0x6C634300081800330000000000000000 "
				},
				"gasEstimates": {
					"creation": {
						"codeDepositCost": "1799200",
						"executionCost": "68287",
						"totalCost": "1867487"
					},
					"external": {
						"IDLE_TIME()": "370",
						"addPlayer()": "infinite",
						"getHash(bytes32)": "infinite",
						"getHashChoice(uint256,string)": "infinite",
						"getPlayerIdx()": "15831",
						"getSaltedHash(bytes32,bytes32)": "infinite",
						"input(uint256,string,uint256)": "infinite",
						"inputHashChoice(bytes32,uint256)": "infinite",
						"latestActionTime()": "2514",
						"numHashedInput()": "2513",
						"numInput()": "2471",
						"numPlayer()": "2469",
						"player(uint256)": "infinite",
						"refund()": "infinite",
						"reward()": "2448"
					},
					"internal": {
						"_checkWinnerAndPay()": "infinite",
						"_resetGame()": "113151"
					}
				},
				"methodIdentifiers": {
					"IDLE_TIME()": "2703da2f",
					"addPlayer()": "27b5db8a",
					"getHash(bytes32)": "3cf5040a",
					"getHashChoice(uint256,string)": "073d8ff3",
					"getPlayerIdx()": "4537d1e0",
					"getSaltedHash(bytes32,bytes32)": "8dddbf36",
					"input(uint256,string,uint256)": "1c99b3aa",
					"inputHashChoice(bytes32,uint256)": "5940e9e7",
					"latestActionTime()": "7bab61bc",
					"numHashedInput()": "bac4b2b4",
					"numInput()": "086f7815",
					"numPlayer()": "90d5d0c3",
					"player(uint256)": "9e0551c6",
					"refund()": "590e1ae3",
					"reward()": "228cb733"
				}
			},
			"storageLayout": {
				"storage": [
					{
						"astId": 4,
						"contract": "RWAPSSF.sol:RWAPSSF",
						"label": "max",
						"offset": 0,
						"slot": "0",
						"type": "t_uint8"
					},
					{
						"astId": 16,
						"contract": "RWAPSSF.sol:RWAPSSF",
						"label": "commits",
						"offset": 0,
						"slot": "1",
						"type": "t_mapping(t_address,t_struct(Commit)11_storage)"
					},
					{
						"astId": 296,
						"contract": "RWAPSSF.sol:RWAPSSF",
						"label": "player",
						"offset": 0,
						"slot": "2",
						"type": "t_mapping(t_uint256,t_struct(Player)291_storage)"
					},
					{
						"astId": 299,
						"contract": "RWAPSSF.sol:RWAPSSF",
						"label": "numPlayer",
						"offset": 0,
						"slot": "3",
						"type": "t_uint256"
					},
					{
						"astId": 302,
						"contract": "RWAPSSF.sol:RWAPSSF",
						"label": "reward",
						"offset": 0,
						"slot": "4",
						"type": "t_uint256"
					},
					{
						"astId": 305,
						"contract": "RWAPSSF.sol:RWAPSSF",
						"label": "numInput",
						"offset": 0,
						"slot": "5",
						"type": "t_uint256"
					},
					{
						"astId": 308,
						"contract": "RWAPSSF.sol:RWAPSSF",
						"label": "numHashedInput",
						"offset": 0,
						"slot": "6",
						"type": "t_uint256"
					},
					{
						"astId": 312,
						"contract": "RWAPSSF.sol:RWAPSSF",
						"label": "latestActionTime",
						"offset": 0,
						"slot": "7",
						"type": "t_uint256"
					}
				],
				"types": {
					"t_address": {
						"encoding": "inplace",
						"label": "address",
						"numberOfBytes": "20"
					},
					"t_bool": {
						"encoding": "inplace",
						"label": "bool",
						"numberOfBytes": "1"
					},
					"t_bytes32": {
						"encoding": "inplace",
						"label": "bytes32",
						"numberOfBytes": "32"
					},
					"t_mapping(t_address,t_struct(Commit)11_storage)": {
						"encoding": "mapping",
						"key": "t_address",
						"label": "mapping(address => struct CommitReveal.Commit)",
						"numberOfBytes": "32",
						"value": "t_struct(Commit)11_storage"
					},
					"t_mapping(t_uint256,t_struct(Player)291_storage)": {
						"encoding": "mapping",
						"key": "t_uint256",
						"label": "mapping(uint256 => struct RWAPSSF.Player)",
						"numberOfBytes": "32",
						"value": "t_struct(Player)291_storage"
					},
					"t_struct(Commit)11_storage": {
						"encoding": "inplace",
						"label": "struct CommitReveal.Commit",
						"members": [
							{
								"astId": 6,
								"contract": "RWAPSSF.sol:RWAPSSF",
								"label": "commit",
								"offset": 0,
								"slot": "0",
								"type": "t_bytes32"
							},
							{
								"astId": 8,
								"contract": "RWAPSSF.sol:RWAPSSF",
								"label": "block",
								"offset": 0,
								"slot": "1",
								"type": "t_uint64"
							},
							{
								"astId": 10,
								"contract": "RWAPSSF.sol:RWAPSSF",
								"label": "revealed",
								"offset": 8,
								"slot": "1",
								"type": "t_bool"
							}
						],
						"numberOfBytes": "64"
					},
					"t_struct(Player)291_storage": {
						"encoding": "inplace",
						"label": "struct RWAPSSF.Player",
						"members": [
							{
								"astId": 288,
								"contract": "RWAPSSF.sol:RWAPSSF",
								"label": "choice",
								"offset": 0,
								"slot": "0",
								"type": "t_uint256"
							},
							{
								"astId": 290,
								"contract": "RWAPSSF.sol:RWAPSSF",
								"label": "addr",
								"offset": 0,
								"slot": "1",
								"type": "t_address"
							}
						],
						"numberOfBytes": "64"
					},
					"t_uint256": {
						"encoding": "inplace",
						"label": "uint256",
						"numberOfBytes": "32"
					},
					"t_uint64": {
						"encoding": "inplace",
						"label": "uint64",
						"numberOfBytes": "8"
					},
					"t_uint8": {
						"encoding": "inplace",
						"label": "uint8",
						"numberOfBytes": "1"
					}
				}
			},
			"userdoc": {
				"kind": "user",
				"methods": {},
				"version": 1
			}
		}
	}
}