{
	"RWAPSSF.sol": {
		"RWAPSSF": {
			"abi": [
				{
					"anonymous": false,
					"inputs": [
						{
							"indexed": false,
							"internalType": "address",
							"name": "sender",
							"type": "address"
						},
						{
							"indexed": false,
							"internalType": "bytes32",
							"name": "dataHash",
							"type": "bytes32"
						},
						{
							"indexed": false,
							"internalType": "uint64",
							"name": "block",
							"type": "uint64"
						}
					],
					"name": "CommitHash",
					"type": "event"
				},
				{
					"anonymous": false,
					"inputs": [
						{
							"indexed": false,
							"internalType": "address",
							"name": "sender",
							"type": "address"
						},
						{
							"indexed": false,
							"internalType": "bytes32",
							"name": "answer",
							"type": "bytes32"
						},
						{
							"indexed": false,
							"internalType": "bytes32",
							"name": "salt",
							"type": "bytes32"
						}
					],
					"name": "RevealAnswer",
					"type": "event"
				},
				{
					"anonymous": false,
					"inputs": [
						{
							"indexed": false,
							"internalType": "address",
							"name": "sender",
							"type": "address"
						},
						{
							"indexed": false,
							"internalType": "bytes32",
							"name": "revealHash",
							"type": "bytes32"
						},
						{
							"indexed": false,
							"internalType": "uint256",
							"name": "random",
							"type": "uint256"
						}
					],
					"name": "RevealHash",
					"type": "event"
				},
				{
					"inputs": [],
					"name": "IDLE_TIME",
					"outputs": [
						{
							"internalType": "uint256",
							"name": "",
							"type": "uint256"
						}
					],
					"stateMutability": "view",
					"type": "function"
				},
				{
					"inputs": [],
					"name": "addPlayer",
					"outputs": [],
					"stateMutability": "payable",
					"type": "function"
				},
				{
					"inputs": [
						{
							"internalType": "bytes32",
							"name": "data",
							"type": "bytes32"
						}
					],
					"name": "getHash",
					"outputs": [
						{
							"internalType": "bytes32",
							"name": "",
							"type": "bytes32"
						}
					],
					"stateMutability": "view",
					"type": "function"
				},
				{
					"inputs": [
						{
							"internalType": "uint256",
							"name": "choice",
							"type": "uint256"
						},
						{
							"internalType": "string",
							"name": "salt",
							"type": "string"
						}
					],
					"name": "getHashChoice",
					"outputs": [
						{
							"internalType": "bytes32",
							"name": "",
							"type": "bytes32"
						}
					],
					"stateMutability": "pure",
					"type": "function"
				},
				{
					"inputs": [
						{
							"internalType": "bytes32",
							"name": "data",
							"type": "bytes32"
						},
						{
							"internalType": "bytes32",
							"name": "salt",
							"type": "bytes32"
						}
					],
					"name": "getSaltedHash",
					"outputs": [
						{
							"internalType": "bytes32",
							"name": "",
							"type": "bytes32"
						}
					],
					"stateMutability": "view",
					"type": "function"
				},
				{
					"inputs": [
						{
							"internalType": "uint256",
							"name": "choice",
							"type": "uint256"
						},
						{
							"internalType": "string",
							"name": "salt",
							"type": "string"
						},
						{
							"internalType": "uint256",
							"name": "idx",
							"type": "uint256"
						}
					],
					"name": "input",
					"outputs": [],
					"stateMutability": "nonpayable",
					"type": "function"
				},
				{
					"inputs": [
						{
							"internalType": "bytes32",
							"name": "hashedChoice",
							"type": "bytes32"
						},
						{
							"internalType": "uint256",
							"name": "idx",
							"type": "uint256"
						}
					],
					"name": "inputHashChoice",
					"outputs": [],
					"stateMutability": "nonpayable",
					"type": "function"
				},
				{
					"inputs": [],
					"name": "latestActionTime",
					"outputs": [
						{
							"internalType": "uint256",
							"name": "",
							"type": "uint256"
						}
					],
					"stateMutability": "view",
					"type": "function"
				},
				{
					"inputs": [],
					"name": "numHashedInput",
					"outputs": [
						{
							"internalType": "uint256",
							"name": "",
							"type": "uint256"
						}
					],
					"stateMutability": "view",
					"type": "function"
				},
				{
					"inputs": [],
					"name": "numInput",
					"outputs": [
						{
							"internalType": "uint256",
							"name": "",
							"type": "uint256"
						}
					],
					"stateMutability": "view",
					"type": "function"
				},
				{
					"inputs": [],
					"name": "numPlayer",
					"outputs": [
						{
							"internalType": "uint256",
							"name": "",
							"type": "uint256"
						}
					],
					"stateMutability": "view",
					"type": "function"
				},
				{
					"inputs": [
						{
							"internalType": "uint256",
							"name": "",
							"type": "uint256"
						}
					],
					"name": "player",
					"outputs": [
						{
							"internalType": "uint256",
							"name": "choice",
							"type": "uint256"
						},
						{
							"internalType": "address",
							"name": "addr",
							"type": "address"
						}
					],
					"stateMutability": "view",
					"type": "function"
				},
				{
					"inputs": [],
					"name": "refund",
					"outputs": [],
					"stateMutability": "nonpayable",
					"type": "function"
				},
				{
					"inputs": [],
					"name": "reward",
					"outputs": [
						{
							"internalType": "uint256",
							"name": "",
							"type": "uint256"
						}
					],
					"stateMutability": "view",
					"type": "function"
				}
			],
			"devdoc": {
				"kind": "dev",
				"methods": {},
				"version": 1
			},
			"evm": {
				"assembly": "    /* \"RWAPSSF.sol\":106:5036  contract RWAPSSF is CommitReveal {... */\n  mstore(0x40, 0x80)\n    /* \"CommitReveal.sol\":118:121  100 */\n  0x64\n    /* \"CommitReveal.sol\":97:121  uint8 internal max = 100 */\n  0x00\n  dup1\n  0x0100\n  exp\n  dup2\n  sload\n  dup2\n  0xff\n  mul\n  not\n  and\n  swap1\n  dup4\n  0xff\n  and\n  mul\n  or\n  swap1\n  sstore\n  pop\n    /* \"RWAPSSF.sol\":385:386  0 */\n  0x00\n    /* \"RWAPSSF.sol\":361:386  uint public numPlayer = 0 */\n  0x03\n  sstore\n    /* \"RWAPSSF.sol\":414:415  0 */\n  0x00\n    /* \"RWAPSSF.sol\":393:415  uint public reward = 0 */\n  0x04\n  sstore\n    /* \"RWAPSSF.sol\":445:446  0 */\n  0x00\n    /* \"RWAPSSF.sol\":422:446  uint public numInput = 0 */\n  0x05\n  sstore\n    /* \"RWAPSSF.sol\":482:483  0 */\n  0x00\n    /* \"RWAPSSF.sol\":453:483  uint public numHashedInput = 0 */\n  0x06\n  sstore\n    /* \"RWAPSSF.sol\":527:542  block.timestamp */\n  timestamp\n    /* \"RWAPSSF.sol\":496:542  uint public latestActionTime = block.timestamp */\n  0x07\n  sstore\n    /* \"RWAPSSF.sol\":106:5036  contract RWAPSSF is CommitReveal {... */\n  callvalue\n  dup1\n  iszero\n  tag_1\n  jumpi\n  0x00\n  dup1\n  revert\ntag_1:\n  pop\n  dataSize(sub_0)\n  dup1\n  dataOffset(sub_0)\n  0x00\n  codecopy\n  0x00\n  return\nstop\n\nsub_0: assembly {\n        /* \"RWAPSSF.sol\":106:5036  contract RWAPSSF is CommitReveal {... */\n      mstore(0x40, 0x80)\n      jumpi(tag_1, lt(calldatasize, 0x04))\n      shr(0xe0, calldataload(0x00))\n      dup1\n      0x590e1ae3\n      gt\n      tag_16\n      jumpi\n      dup1\n      0x8dddbf36\n      gt\n      tag_17\n      jumpi\n      dup1\n      0x8dddbf36\n      eq\n      tag_12\n      jumpi\n      dup1\n      0x90d5d0c3\n      eq\n      tag_13\n      jumpi\n      dup1\n      0x9e0551c6\n      eq\n      tag_14\n      jumpi\n      dup1\n      0xbac4b2b4\n      eq\n      tag_15\n      jumpi\n      jump(tag_1)\n    tag_17:\n      dup1\n      0x590e1ae3\n      eq\n      tag_9\n      jumpi\n      dup1\n      0x5940e9e7\n      eq\n      tag_10\n      jumpi\n      dup1\n      0x7bab61bc\n      eq\n      tag_11\n      jumpi\n      jump(tag_1)\n    tag_16:\n      dup1\n      0x228cb733\n      gt\n      tag_18\n      jumpi\n      dup1\n      0x228cb733\n      eq\n      tag_5\n      jumpi\n      dup1\n      0x2703da2f\n      eq\n      tag_6\n      jumpi\n      dup1\n      0x27b5db8a\n      eq\n      tag_7\n      jumpi\n      dup1\n      0x3cf5040a\n      eq\n      tag_8\n      jumpi\n      jump(tag_1)\n    tag_18:\n      dup1\n      0x073d8ff3\n      eq\n      tag_2\n      jumpi\n      dup1\n      0x086f7815\n      eq\n      tag_3\n      jumpi\n      dup1\n      0x1c99b3aa\n      eq\n      tag_4\n      jumpi\n    tag_1:\n      0x00\n      dup1\n      revert\n        /* \"RWAPSSF.sol\":662:898  function getHashChoice( uint choice, string memory salt ) external pure returns ( bytes32 ) {... */\n    tag_2:\n      callvalue\n      dup1\n      iszero\n      tag_19\n      jumpi\n      0x00\n      dup1\n      revert\n    tag_19:\n      pop\n      tag_20\n      0x04\n      dup1\n      calldatasize\n      sub\n      dup2\n      add\n      swap1\n      tag_21\n      swap2\n      swap1\n      tag_22\n      jump\t// in\n    tag_21:\n      tag_23\n      jump\t// in\n    tag_20:\n      mload(0x40)\n      tag_24\n      swap2\n      swap1\n      tag_25\n      jump\t// in\n    tag_24:\n      mload(0x40)\n      dup1\n      swap2\n      sub\n      swap1\n      return\n        /* \"RWAPSSF.sol\":422:446  uint public numInput = 0 */\n    tag_3:\n      callvalue\n      dup1\n      iszero\n      tag_26\n      jumpi\n      0x00\n      dup1\n      revert\n    tag_26:\n      pop\n      tag_27\n      tag_28\n      jump\t// in\n    tag_27:\n      mload(0x40)\n      tag_29\n      swap2\n      swap1\n      tag_30\n      jump\t// in\n    tag_29:\n      mload(0x40)\n      dup1\n      swap2\n      sub\n      swap1\n      return\n        /* \"RWAPSSF.sol\":1499:2022  function input(uint choice, string memory salt, uint idx) public  {... */\n    tag_4:\n      callvalue\n      dup1\n      iszero\n      tag_31\n      jumpi\n      0x00\n      dup1\n      revert\n    tag_31:\n      pop\n      tag_32\n      0x04\n      dup1\n      calldatasize\n      sub\n      dup2\n      add\n      swap1\n      tag_33\n      swap2\n      swap1\n      tag_34\n      jump\t// in\n    tag_33:\n      tag_35\n      jump\t// in\n    tag_32:\n      stop\n        /* \"RWAPSSF.sol\":393:415  uint public reward = 0 */\n    tag_5:\n      callvalue\n      dup1\n      iszero\n      tag_36\n      jumpi\n      0x00\n      dup1\n      revert\n    tag_36:\n      pop\n      tag_37\n      tag_38\n      jump\t// in\n    tag_37:\n      mload(0x40)\n      tag_39\n      swap2\n      swap1\n      tag_30\n      jump\t// in\n    tag_39:\n      mload(0x40)\n      dup1\n      swap2\n      sub\n      swap1\n      return\n        /* \"RWAPSSF.sol\":549:591  uint public constant IDLE_TIME = 5 minutes */\n    tag_6:\n      callvalue\n      dup1\n      iszero\n      tag_40\n      jumpi\n      0x00\n      dup1\n      revert\n    tag_40:\n      pop\n      tag_41\n      tag_42\n      jump\t// in\n    tag_41:\n      mload(0x40)\n      tag_43\n      swap2\n      swap1\n      tag_30\n      jump\t// in\n    tag_43:\n      mload(0x40)\n      dup1\n      swap2\n      sub\n      swap1\n      return\n        /* \"RWAPSSF.sol\":906:1205  function addPlayer() public payable {... */\n    tag_7:\n      tag_44\n      tag_45\n      jump\t// in\n    tag_44:\n      stop\n        /* \"CommitReveal.sol\":1824:1949  function getHash(bytes32 data) public view returns(bytes32){... */\n    tag_8:\n      callvalue\n      dup1\n      iszero\n      tag_46\n      jumpi\n      0x00\n      dup1\n      revert\n    tag_46:\n      pop\n      tag_47\n      0x04\n      dup1\n      calldatasize\n      sub\n      dup2\n      add\n      swap1\n      tag_48\n      swap2\n      swap1\n      tag_49\n      jump\t// in\n    tag_48:\n      tag_50\n      jump\t// in\n    tag_47:\n      mload(0x40)\n      tag_51\n      swap2\n      swap1\n      tag_25\n      jump\t// in\n    tag_51:\n      mload(0x40)\n      dup1\n      swap2\n      sub\n      swap1\n      return\n        /* \"RWAPSSF.sol\":3166:5033  function refund() public {... */\n    tag_9:\n      callvalue\n      dup1\n      iszero\n      tag_52\n      jumpi\n      0x00\n      dup1\n      revert\n    tag_52:\n      pop\n      tag_53\n      tag_54\n      jump\t// in\n    tag_53:\n      stop\n        /* \"RWAPSSF.sol\":1213:1491  function inputHashChoice( bytes32 hashedChoice, uint idx ) public {... */\n    tag_10:\n      callvalue\n      dup1\n      iszero\n      tag_55\n      jumpi\n      0x00\n      dup1\n      revert\n    tag_55:\n      pop\n      tag_56\n      0x04\n      dup1\n      calldatasize\n      sub\n      dup2\n      add\n      swap1\n      tag_57\n      swap2\n      swap1\n      tag_58\n      jump\t// in\n    tag_57:\n      tag_59\n      jump\t// in\n    tag_56:\n      stop\n        /* \"RWAPSSF.sol\":496:542  uint public latestActionTime = block.timestamp */\n    tag_11:\n      callvalue\n      dup1\n      iszero\n      tag_60\n      jumpi\n      0x00\n      dup1\n      revert\n    tag_60:\n      pop\n      tag_61\n      tag_62\n      jump\t// in\n    tag_61:\n      mload(0x40)\n      tag_63\n      swap2\n      swap1\n      tag_30\n      jump\t// in\n    tag_63:\n      mload(0x40)\n      dup1\n      swap2\n      sub\n      swap1\n      return\n        /* \"CommitReveal.sol\":2530:2680  function getSaltedHash(bytes32 data,bytes32 salt) public view returns(bytes32){... */\n    tag_12:\n      callvalue\n      dup1\n      iszero\n      tag_64\n      jumpi\n      0x00\n      dup1\n      revert\n    tag_64:\n      pop\n      tag_65\n      0x04\n      dup1\n      calldatasize\n      sub\n      dup2\n      add\n      swap1\n      tag_66\n      swap2\n      swap1\n      tag_67\n      jump\t// in\n    tag_66:\n      tag_68\n      jump\t// in\n    tag_65:\n      mload(0x40)\n      tag_69\n      swap2\n      swap1\n      tag_25\n      jump\t// in\n    tag_69:\n      mload(0x40)\n      dup1\n      swap2\n      sub\n      swap1\n      return\n        /* \"RWAPSSF.sol\":361:386  uint public numPlayer = 0 */\n    tag_13:\n      callvalue\n      dup1\n      iszero\n      tag_70\n      jumpi\n      0x00\n      dup1\n      revert\n    tag_70:\n      pop\n      tag_71\n      tag_72\n      jump\t// in\n    tag_71:\n      mload(0x40)\n      tag_73\n      swap2\n      swap1\n      tag_30\n      jump\t// in\n    tag_73:\n      mload(0x40)\n      dup1\n      swap2\n      sub\n      swap1\n      return\n        /* \"RWAPSSF.sol\":316:354  mapping (uint => Player) public player */\n    tag_14:\n      callvalue\n      dup1\n      iszero\n      tag_74\n      jumpi\n      0x00\n      dup1\n      revert\n    tag_74:\n      pop\n      tag_75\n      0x04\n      dup1\n      calldatasize\n      sub\n      dup2\n      add\n      swap1\n      tag_76\n      swap2\n      swap1\n      tag_77\n      jump\t// in\n    tag_76:\n      tag_78\n      jump\t// in\n    tag_75:\n      mload(0x40)\n      tag_79\n      swap3\n      swap2\n      swap1\n      tag_80\n      jump\t// in\n    tag_79:\n      mload(0x40)\n      dup1\n      swap2\n      sub\n      swap1\n      return\n        /* \"RWAPSSF.sol\":453:483  uint public numHashedInput = 0 */\n    tag_15:\n      callvalue\n      dup1\n      iszero\n      tag_81\n      jumpi\n      0x00\n      dup1\n      revert\n    tag_81:\n      pop\n      tag_82\n      tag_83\n      jump\t// in\n    tag_82:\n      mload(0x40)\n      tag_84\n      swap2\n      swap1\n      tag_30\n      jump\t// in\n    tag_84:\n      mload(0x40)\n      dup1\n      swap2\n      sub\n      swap1\n      return\n        /* \"RWAPSSF.sol\":662:898  function getHashChoice( uint choice, string memory salt ) external pure returns ( bytes32 ) {... */\n    tag_23:\n        /* \"RWAPSSF.sol\":744:751  bytes32 */\n      0x00\n        /* \"RWAPSSF.sol\":765:783  bytes32 encodeSalt */\n      dup1\n        /* \"RWAPSSF.sol\":813:817  salt */\n      dup3\n        /* \"RWAPSSF.sol\":795:819  abi.encodePacked( salt ) */\n      add(0x20, mload(0x40))\n      tag_86\n      swap2\n      swap1\n      tag_87\n      jump\t// in\n    tag_86:\n      mload(0x40)\n      0x20\n      dup2\n      dup4\n      sub\n      sub\n      dup2\n      mstore\n      swap1\n      0x40\n      mstore\n        /* \"RWAPSSF.sol\":786:821  bytes32( abi.encodePacked( salt ) ) */\n      tag_88\n      swap1\n      tag_89\n      jump\t// in\n    tag_88:\n        /* \"RWAPSSF.sol\":765:821  bytes32 encodeSalt = bytes32( abi.encodePacked( salt ) ) */\n      swap1\n      pop\n        /* \"RWAPSSF.sol\":868:874  choice */\n      dup4\n        /* \"RWAPSSF.sol\":876:886  encodeSalt */\n      dup2\n        /* \"RWAPSSF.sol\":850:888  abi.encodePacked( choice, encodeSalt ) */\n      add(0x20, mload(0x40))\n      tag_90\n      swap3\n      swap2\n      swap1\n      tag_91\n      jump\t// in\n    tag_90:\n      mload(0x40)\n      0x20\n      dup2\n      dup4\n      sub\n      sub\n      dup2\n      mstore\n      swap1\n      0x40\n      mstore\n        /* \"RWAPSSF.sol\":839:890  keccak256( abi.encodePacked( choice, encodeSalt ) ) */\n      dup1\n      mload\n      swap1\n      0x20\n      add\n      keccak256\n        /* \"RWAPSSF.sol\":832:890  return keccak256( abi.encodePacked( choice, encodeSalt ) ) */\n      swap2\n      pop\n      pop\n        /* \"RWAPSSF.sol\":662:898  function getHashChoice( uint choice, string memory salt ) external pure returns ( bytes32 ) {... */\n      swap3\n      swap2\n      pop\n      pop\n      jump\t// out\n        /* \"RWAPSSF.sol\":422:446  uint public numInput = 0 */\n    tag_28:\n      sload(0x05)\n      dup2\n      jump\t// out\n        /* \"RWAPSSF.sol\":1499:2022  function input(uint choice, string memory salt, uint idx) public  {... */\n    tag_35:\n        /* \"RWAPSSF.sol\":1597:1598  2 */\n      0x02\n        /* \"RWAPSSF.sol\":1584:1593  numPlayer */\n      sload(0x03)\n        /* \"RWAPSSF.sol\":1584:1598  numPlayer == 2 */\n      eq\n        /* \"RWAPSSF.sol\":1576:1599  require(numPlayer == 2) */\n      tag_93\n      jumpi\n      0x00\n      dup1\n      revert\n    tag_93:\n        /* \"RWAPSSF.sol\":1632:1638  player */\n      0x02\n        /* \"RWAPSSF.sol\":1632:1643  player[idx] */\n      0x00\n        /* \"RWAPSSF.sol\":1639:1642  idx */\n      dup3\n        /* \"RWAPSSF.sol\":1632:1643  player[idx] */\n      dup2\n      mstore\n      0x20\n      add\n      swap1\n      dup2\n      mstore\n      0x20\n      add\n      0x00\n      keccak256\n        /* \"RWAPSSF.sol\":1632:1648  player[idx].addr */\n      0x01\n      add\n      0x00\n      swap1\n      sload\n      swap1\n      0x0100\n      exp\n      swap1\n      div\n      0xffffffffffffffffffffffffffffffffffffffff\n      and\n        /* \"RWAPSSF.sol\":1618:1648  msg.sender == player[idx].addr */\n      0xffffffffffffffffffffffffffffffffffffffff\n      and\n        /* \"RWAPSSF.sol\":1618:1628  msg.sender */\n      caller\n        /* \"RWAPSSF.sol\":1618:1648  msg.sender == player[idx].addr */\n      0xffffffffffffffffffffffffffffffffffffffff\n      and\n      eq\n        /* \"RWAPSSF.sol\":1610:1649  require(msg.sender == player[idx].addr) */\n      tag_94\n      jumpi\n      0x00\n      dup1\n      revert\n    tag_94:\n        /* \"RWAPSSF.sol\":1678:1679  0 */\n      0x00\n        /* \"RWAPSSF.sol\":1668:1674  choice */\n      dup4\n        /* \"RWAPSSF.sol\":1668:1679  choice >= 0 */\n      lt\n      iszero\n        /* \"RWAPSSF.sol\":1668:1694  choice >= 0 && choice <= 6 */\n      dup1\n      iszero\n      tag_95\n      jumpi\n      pop\n        /* \"RWAPSSF.sol\":1693:1694  6 */\n      0x06\n        /* \"RWAPSSF.sol\":1683:1689  choice */\n      dup4\n        /* \"RWAPSSF.sol\":1683:1694  choice <= 6 */\n      gt\n      iszero\n        /* \"RWAPSSF.sol\":1668:1694  choice >= 0 && choice <= 6 */\n    tag_95:\n        /* \"RWAPSSF.sol\":1660:1695  require(choice >= 0 && choice <= 6) */\n      tag_96\n      jumpi\n      0x00\n      dup1\n      revert\n    tag_96:\n        /* \"RWAPSSF.sol\":1706:1724  bytes32 encodeSalt */\n      0x00\n        /* \"RWAPSSF.sol\":1754:1758  salt */\n      dup3\n        /* \"RWAPSSF.sol\":1736:1760  abi.encodePacked( salt ) */\n      add(0x20, mload(0x40))\n      tag_97\n      swap2\n      swap1\n      tag_87\n      jump\t// in\n    tag_97:\n      mload(0x40)\n      0x20\n      dup2\n      dup4\n      sub\n      sub\n      dup2\n      mstore\n      swap1\n      0x40\n      mstore\n        /* \"RWAPSSF.sol\":1727:1762  bytes32( abi.encodePacked( salt ) ) */\n      tag_98\n      swap1\n      tag_89\n      jump\t// in\n    tag_98:\n        /* \"RWAPSSF.sol\":1706:1762  bytes32 encodeSalt = bytes32( abi.encodePacked( salt ) ) */\n      swap1\n      pop\n        /* \"RWAPSSF.sol\":1773:1834  reveal( keccak256( abi.encodePacked( choice, encodeSalt ) ) ) */\n      tag_99\n        /* \"RWAPSSF.sol\":1810:1816  choice */\n      dup5\n        /* \"RWAPSSF.sol\":1818:1828  encodeSalt */\n      dup3\n        /* \"RWAPSSF.sol\":1792:1830  abi.encodePacked( choice, encodeSalt ) */\n      add(0x20, mload(0x40))\n      tag_100\n      swap3\n      swap2\n      swap1\n      tag_91\n      jump\t// in\n    tag_100:\n      mload(0x40)\n      0x20\n      dup2\n      dup4\n      sub\n      sub\n      dup2\n      mstore\n      swap1\n      0x40\n      mstore\n        /* \"RWAPSSF.sol\":1781:1832  keccak256( abi.encodePacked( choice, encodeSalt ) ) */\n      dup1\n      mload\n      swap1\n      0x20\n      add\n      keccak256\n        /* \"RWAPSSF.sol\":1773:1779  reveal */\n      tag_101\n        /* \"RWAPSSF.sol\":1773:1834  reveal( keccak256( abi.encodePacked( choice, encodeSalt ) ) ) */\n      jump\t// in\n    tag_99:\n        /* \"RWAPSSF.sol\":1866:1872  choice */\n      dup4\n        /* \"RWAPSSF.sol\":1845:1851  player */\n      0x02\n        /* \"RWAPSSF.sol\":1845:1856  player[idx] */\n      0x00\n        /* \"RWAPSSF.sol\":1852:1855  idx */\n      dup5\n        /* \"RWAPSSF.sol\":1845:1856  player[idx] */\n      dup2\n      mstore\n      0x20\n      add\n      swap1\n      dup2\n      mstore\n      0x20\n      add\n      0x00\n      keccak256\n        /* \"RWAPSSF.sol\":1845:1863  player[idx].choice */\n      0x00\n      add\n        /* \"RWAPSSF.sol\":1845:1872  player[idx].choice = choice */\n      dup2\n      swap1\n      sstore\n      pop\n        /* \"RWAPSSF.sol\":1883:1891  numInput */\n      0x05\n      0x00\n        /* \"RWAPSSF.sol\":1883:1893  numInput++ */\n      dup2\n      sload\n      dup1\n      swap3\n      swap2\n      swap1\n      tag_102\n      swap1\n      tag_103\n      jump\t// in\n    tag_102:\n      swap2\n      swap1\n      pop\n      sstore\n      pop\n        /* \"RWAPSSF.sol\":1923:1938  block.timestamp */\n      timestamp\n        /* \"RWAPSSF.sol\":1904:1920  latestActionTime */\n      0x07\n        /* \"RWAPSSF.sol\":1904:1938  latestActionTime = block.timestamp */\n      dup2\n      swap1\n      sstore\n      pop\n        /* \"RWAPSSF.sol\":1965:1966  2 */\n      0x02\n        /* \"RWAPSSF.sol\":1953:1961  numInput */\n      sload(0x05)\n        /* \"RWAPSSF.sol\":1953:1966  numInput == 2 */\n      sub\n        /* \"RWAPSSF.sol\":1949:2015  if (numInput == 2) {... */\n      tag_104\n      jumpi\n        /* \"RWAPSSF.sol\":1983:2003  _checkWinnerAndPay() */\n      tag_105\n        /* \"RWAPSSF.sol\":1983:2001  _checkWinnerAndPay */\n      tag_106\n        /* \"RWAPSSF.sol\":1983:2003  _checkWinnerAndPay() */\n      jump\t// in\n    tag_105:\n        /* \"RWAPSSF.sol\":1949:2015  if (numInput == 2) {... */\n    tag_104:\n        /* \"RWAPSSF.sol\":1565:2022  {... */\n      pop\n        /* \"RWAPSSF.sol\":1499:2022  function input(uint choice, string memory salt, uint idx) public  {... */\n      pop\n      pop\n      pop\n      jump\t// out\n        /* \"RWAPSSF.sol\":393:415  uint public reward = 0 */\n    tag_38:\n      sload(0x04)\n      dup2\n      jump\t// out\n        /* \"RWAPSSF.sol\":549:591  uint public constant IDLE_TIME = 5 minutes */\n    tag_42:\n        /* \"RWAPSSF.sol\":582:591  5 minutes */\n      0x012c\n        /* \"RWAPSSF.sol\":549:591  uint public constant IDLE_TIME = 5 minutes */\n      dup2\n      jump\t// out\n        /* \"RWAPSSF.sol\":906:1205  function addPlayer() public payable {... */\n    tag_45:\n        /* \"RWAPSSF.sol\":973:974  2 */\n      0x02\n        /* \"RWAPSSF.sol\":961:970  numPlayer */\n      sload(0x03)\n        /* \"RWAPSSF.sol\":961:974  numPlayer < 2 */\n      lt\n        /* \"RWAPSSF.sol\":953:975  require(numPlayer < 2) */\n      tag_108\n      jumpi\n      0x00\n      dup1\n      revert\n    tag_108:\n        /* \"RWAPSSF.sol\":1007:1014  1 ether */\n      0x0de0b6b3a7640000\n        /* \"RWAPSSF.sol\":994:1003  msg.value */\n      callvalue\n        /* \"RWAPSSF.sol\":994:1014  msg.value == 1 ether */\n      eq\n        /* \"RWAPSSF.sol\":986:1015  require(msg.value == 1 ether) */\n      tag_109\n      jumpi\n      0x00\n      dup1\n      revert\n    tag_109:\n        /* \"RWAPSSF.sol\":1036:1045  msg.value */\n      callvalue\n        /* \"RWAPSSF.sol\":1026:1032  reward */\n      0x04\n      0x00\n        /* \"RWAPSSF.sol\":1026:1045  reward += msg.value */\n      dup3\n      dup3\n      sload\n      tag_110\n      swap2\n      swap1\n      tag_111\n      jump\t// in\n    tag_110:\n      swap3\n      pop\n      pop\n      dup2\n      swap1\n      sstore\n      pop\n        /* \"RWAPSSF.sol\":1081:1091  msg.sender */\n      caller\n        /* \"RWAPSSF.sol\":1056:1062  player */\n      0x02\n        /* \"RWAPSSF.sol\":1056:1073  player[numPlayer] */\n      0x00\n        /* \"RWAPSSF.sol\":1063:1072  numPlayer */\n      sload(0x03)\n        /* \"RWAPSSF.sol\":1056:1073  player[numPlayer] */\n      dup2\n      mstore\n      0x20\n      add\n      swap1\n      dup2\n      mstore\n      0x20\n      add\n      0x00\n      keccak256\n        /* \"RWAPSSF.sol\":1056:1078  player[numPlayer].addr */\n      0x01\n      add\n      0x00\n        /* \"RWAPSSF.sol\":1056:1091  player[numPlayer].addr = msg.sender */\n      0x0100\n      exp\n      dup2\n      sload\n      dup2\n      0xffffffffffffffffffffffffffffffffffffffff\n      mul\n      not\n      and\n      swap1\n      dup4\n      0xffffffffffffffffffffffffffffffffffffffff\n      and\n      mul\n      or\n      swap1\n      sstore\n      pop\n        /* \"RWAPSSF.sol\":1129:1130  7 */\n      0x07\n        /* \"RWAPSSF.sol\":1102:1108  player */\n      0x02\n        /* \"RWAPSSF.sol\":1102:1119  player[numPlayer] */\n      0x00\n        /* \"RWAPSSF.sol\":1109:1118  numPlayer */\n      sload(0x03)\n        /* \"RWAPSSF.sol\":1102:1119  player[numPlayer] */\n      dup2\n      mstore\n      0x20\n      add\n      swap1\n      dup2\n      mstore\n      0x20\n      add\n      0x00\n      keccak256\n        /* \"RWAPSSF.sol\":1102:1126  player[numPlayer].choice */\n      0x00\n      add\n        /* \"RWAPSSF.sol\":1102:1130  player[numPlayer].choice = 7 */\n      dup2\n      swap1\n      sstore\n      pop\n        /* \"RWAPSSF.sol\":1141:1150  numPlayer */\n      0x03\n      0x00\n        /* \"RWAPSSF.sol\":1141:1152  numPlayer++ */\n      dup2\n      sload\n      dup1\n      swap3\n      swap2\n      swap1\n      tag_112\n      swap1\n      tag_103\n      jump\t// in\n    tag_112:\n      swap2\n      swap1\n      pop\n      sstore\n      pop\n        /* \"RWAPSSF.sol\":1182:1197  block.timestamp */\n      timestamp\n        /* \"RWAPSSF.sol\":1163:1179  latestActionTime */\n      0x07\n        /* \"RWAPSSF.sol\":1163:1197  latestActionTime = block.timestamp */\n      dup2\n      swap1\n      sstore\n      pop\n        /* \"RWAPSSF.sol\":906:1205  function addPlayer() public payable {... */\n      jump\t// out\n        /* \"CommitReveal.sol\":1824:1949  function getHash(bytes32 data) public view returns(bytes32){... */\n    tag_50:\n        /* \"CommitReveal.sol\":1875:1882  bytes32 */\n      0x00\n        /* \"CommitReveal.sol\":1931:1935  this */\n      address\n        /* \"CommitReveal.sol\":1938:1942  data */\n      dup3\n        /* \"CommitReveal.sol\":1906:1943  abi.encodePacked(address(this), data) */\n      add(0x20, mload(0x40))\n      tag_114\n      swap3\n      swap2\n      swap1\n      tag_115\n      jump\t// in\n    tag_114:\n      mload(0x40)\n      0x20\n      dup2\n      dup4\n      sub\n      sub\n      dup2\n      mstore\n      swap1\n      0x40\n      mstore\n        /* \"CommitReveal.sol\":1896:1944  keccak256(abi.encodePacked(address(this), data)) */\n      dup1\n      mload\n      swap1\n      0x20\n      add\n      keccak256\n        /* \"CommitReveal.sol\":1889:1944  return keccak256(abi.encodePacked(address(this), data)) */\n      swap1\n      pop\n        /* \"CommitReveal.sol\":1824:1949  function getHash(bytes32 data) public view returns(bytes32){... */\n      swap2\n      swap1\n      pop\n      jump\t// out\n        /* \"RWAPSSF.sol\":3166:5033  function refund() public {... */\n    tag_54:\n        /* \"RWAPSSF.sol\":582:591  5 minutes */\n      0x012c\n        /* \"RWAPSSF.sol\":3239:3255  latestActionTime */\n      sload(0x07)\n        /* \"RWAPSSF.sol\":3221:3236  block.timestamp */\n      timestamp\n        /* \"RWAPSSF.sol\":3221:3255  block.timestamp - latestActionTime */\n      tag_117\n      swap2\n      swap1\n      tag_118\n      jump\t// in\n    tag_117:\n        /* \"RWAPSSF.sol\":3221:3267  block.timestamp - latestActionTime > IDLE_TIME */\n      gt\n        /* \"RWAPSSF.sol\":3212:3269  require( block.timestamp - latestActionTime > IDLE_TIME ) */\n      tag_119\n      jumpi\n      0x00\n      dup1\n      revert\n    tag_119:\n        /* \"RWAPSSF.sol\":3320:3321  0 */\n      0x00\n        /* \"RWAPSSF.sol\":3308:3317  numPlayer */\n      sload(0x03)\n        /* \"RWAPSSF.sol\":3308:3321  numPlayer > 0 */\n      gt\n        /* \"RWAPSSF.sol\":3299:3323  require( numPlayer > 0 ) */\n      tag_120\n      jumpi\n      0x00\n      dup1\n      revert\n    tag_120:\n        /* \"RWAPSSF.sol\":3416:3417  1 */\n      0x01\n        /* \"RWAPSSF.sol\":3403:3412  numPlayer */\n      sload(0x03)\n        /* \"RWAPSSF.sol\":3403:3417  numPlayer == 1 */\n      sub\n        /* \"RWAPSSF.sol\":3399:5024  if( numPlayer == 1 ) {... */\n      tag_121\n      jumpi\n        /* \"RWAPSSF.sol\":3458:3464  player */\n      0x02\n        /* \"RWAPSSF.sol\":3458:3467  player[0] */\n      0x00\n        /* \"RWAPSSF.sol\":3465:3466  0 */\n      dup1\n        /* \"RWAPSSF.sol\":3458:3467  player[0] */\n      dup2\n      mstore\n      0x20\n      add\n      swap1\n      dup2\n      mstore\n      0x20\n      add\n      0x00\n      keccak256\n        /* \"RWAPSSF.sol\":3458:3472  player[0].addr */\n      0x01\n      add\n      0x00\n      swap1\n      sload\n      swap1\n      0x0100\n      exp\n      swap1\n      div\n      0xffffffffffffffffffffffffffffffffffffffff\n      and\n        /* \"RWAPSSF.sol\":3444:3472  msg.sender == player[0].addr */\n      0xffffffffffffffffffffffffffffffffffffffff\n      and\n        /* \"RWAPSSF.sol\":3444:3454  msg.sender */\n      caller\n        /* \"RWAPSSF.sol\":3444:3472  msg.sender == player[0].addr */\n      0xffffffffffffffffffffffffffffffffffffffff\n      and\n      eq\n        /* \"RWAPSSF.sol\":3435:3474  require( msg.sender == player[0].addr ) */\n      tag_122\n      jumpi\n      0x00\n      dup1\n      revert\n    tag_122:\n        /* \"RWAPSSF.sol\":3534:3557  address payable account */\n      0x00\n        /* \"RWAPSSF.sol\":3569:3575  player */\n      0x02\n        /* \"RWAPSSF.sol\":3569:3578  player[0] */\n      0x00\n        /* \"RWAPSSF.sol\":3576:3577  0 */\n      dup1\n        /* \"RWAPSSF.sol\":3569:3578  player[0] */\n      dup2\n      mstore\n      0x20\n      add\n      swap1\n      dup2\n      mstore\n      0x20\n      add\n      0x00\n      keccak256\n        /* \"RWAPSSF.sol\":3569:3583  player[0].addr */\n      0x01\n      add\n      0x00\n      swap1\n      sload\n      swap1\n      0x0100\n      exp\n      swap1\n      div\n      0xffffffffffffffffffffffffffffffffffffffff\n      and\n        /* \"RWAPSSF.sol\":3534:3585  address payable account = payable( player[0].addr ) */\n      swap1\n      pop\n        /* \"RWAPSSF.sol\":3600:3607  account */\n      dup1\n        /* \"RWAPSSF.sol\":3600:3616  account.transfer */\n      0xffffffffffffffffffffffffffffffffffffffff\n      and\n        /* \"RWAPSSF.sol\":3600:3626  account.transfer( reward ) */\n      0x08fc\n        /* \"RWAPSSF.sol\":3618:3624  reward */\n      sload(0x04)\n        /* \"RWAPSSF.sol\":3600:3626  account.transfer( reward ) */\n      swap1\n      dup2\n      iszero\n      mul\n      swap1\n      mload(0x40)\n      0x00\n      mload(0x40)\n      dup1\n      dup4\n      sub\n      dup2\n      dup6\n      dup9\n      dup9\n      call\n      swap4\n      pop\n      pop\n      pop\n      pop\n      iszero\n      dup1\n      iszero\n      tag_124\n      jumpi\n      returndatasize\n      0x00\n      dup1\n      returndatacopy\n      revert(0x00, returndatasize)\n    tag_124:\n      pop\n        /* \"RWAPSSF.sol\":3641:3653  _resetGame() */\n      tag_125\n        /* \"RWAPSSF.sol\":3641:3651  _resetGame */\n      tag_126\n        /* \"RWAPSSF.sol\":3641:3653  _resetGame() */\n      jump\t// in\n    tag_125:\n        /* \"RWAPSSF.sol\":3420:3665  {... */\n      pop\n        /* \"RWAPSSF.sol\":3399:5024  if( numPlayer == 1 ) {... */\n      jump(tag_127)\n    tag_121:\n        /* \"RWAPSSF.sol\":3697:3698  2 */\n      0x02\n        /* \"RWAPSSF.sol\":3684:3693  numPlayer */\n      sload(0x03)\n        /* \"RWAPSSF.sol\":3684:3698  numPlayer == 2 */\n      sub\n        /* \"RWAPSSF.sol\":3680:5024  if( numPlayer == 2 ){... */\n      tag_128\n      jumpi\n        /* \"RWAPSSF.sol\":3738:3744  player */\n      0x02\n        /* \"RWAPSSF.sol\":3738:3747  player[0] */\n      0x00\n        /* \"RWAPSSF.sol\":3745:3746  0 */\n      dup1\n        /* \"RWAPSSF.sol\":3738:3747  player[0] */\n      dup2\n      mstore\n      0x20\n      add\n      swap1\n      dup2\n      mstore\n      0x20\n      add\n      0x00\n      keccak256\n        /* \"RWAPSSF.sol\":3738:3752  player[0].addr */\n      0x01\n      add\n      0x00\n      swap1\n      sload\n      swap1\n      0x0100\n      exp\n      swap1\n      div\n      0xffffffffffffffffffffffffffffffffffffffff\n      and\n        /* \"RWAPSSF.sol\":3724:3752  msg.sender == player[0].addr */\n      0xffffffffffffffffffffffffffffffffffffffff\n      and\n        /* \"RWAPSSF.sol\":3724:3734  msg.sender */\n      caller\n        /* \"RWAPSSF.sol\":3724:3752  msg.sender == player[0].addr */\n      0xffffffffffffffffffffffffffffffffffffffff\n      and\n      eq\n        /* \"RWAPSSF.sol\":3724:3784  msg.sender == player[0].addr || msg.sender == player[1].addr */\n      dup1\n      tag_129\n      jumpi\n      pop\n        /* \"RWAPSSF.sol\":3770:3776  player */\n      0x02\n        /* \"RWAPSSF.sol\":3770:3779  player[1] */\n      0x00\n        /* \"RWAPSSF.sol\":3777:3778  1 */\n      0x01\n        /* \"RWAPSSF.sol\":3770:3779  player[1] */\n      dup2\n      mstore\n      0x20\n      add\n      swap1\n      dup2\n      mstore\n      0x20\n      add\n      0x00\n      keccak256\n        /* \"RWAPSSF.sol\":3770:3784  player[1].addr */\n      0x01\n      add\n      0x00\n      swap1\n      sload\n      swap1\n      0x0100\n      exp\n      swap1\n      div\n      0xffffffffffffffffffffffffffffffffffffffff\n      and\n        /* \"RWAPSSF.sol\":3756:3784  msg.sender == player[1].addr */\n      0xffffffffffffffffffffffffffffffffffffffff\n      and\n        /* \"RWAPSSF.sol\":3756:3766  msg.sender */\n      caller\n        /* \"RWAPSSF.sol\":3756:3784  msg.sender == player[1].addr */\n      0xffffffffffffffffffffffffffffffffffffffff\n      and\n      eq\n        /* \"RWAPSSF.sol\":3724:3784  msg.sender == player[0].addr || msg.sender == player[1].addr */\n    tag_129:\n        /* \"RWAPSSF.sol\":3715:3786  require( msg.sender == player[0].addr || msg.sender == player[1].addr ) */\n      tag_130\n      jumpi\n      0x00\n      dup1\n      revert\n    tag_130:\n        /* \"RWAPSSF.sol\":3906:3907  0 */\n      0x00\n        /* \"RWAPSSF.sol\":3894:3902  numInput */\n      sload(0x05)\n        /* \"RWAPSSF.sol\":3894:3907  numInput == 0 */\n      sub\n        /* \"RWAPSSF.sol\":3890:5013  if( numInput == 0 ){... */\n      tag_131\n      jumpi\n        /* \"RWAPSSF.sol\":3967:3991  address payable account0 */\n      0x00\n        /* \"RWAPSSF.sol\":4003:4009  player */\n      0x02\n        /* \"RWAPSSF.sol\":4003:4012  player[0] */\n      0x00\n        /* \"RWAPSSF.sol\":4010:4011  0 */\n      dup1\n        /* \"RWAPSSF.sol\":4003:4012  player[0] */\n      dup2\n      mstore\n      0x20\n      add\n      swap1\n      dup2\n      mstore\n      0x20\n      add\n      0x00\n      keccak256\n        /* \"RWAPSSF.sol\":4003:4017  player[0].addr */\n      0x01\n      add\n      0x00\n      swap1\n      sload\n      swap1\n      0x0100\n      exp\n      swap1\n      div\n      0xffffffffffffffffffffffffffffffffffffffff\n      and\n        /* \"RWAPSSF.sol\":3967:4019  address payable account0 = payable( player[0].addr ) */\n      swap1\n      pop\n        /* \"RWAPSSF.sol\":4038:4062  address payable account1 */\n      0x00\n        /* \"RWAPSSF.sol\":4074:4080  player */\n      0x02\n        /* \"RWAPSSF.sol\":4074:4083  player[1] */\n      0x00\n        /* \"RWAPSSF.sol\":4081:4082  1 */\n      0x01\n        /* \"RWAPSSF.sol\":4074:4083  player[1] */\n      dup2\n      mstore\n      0x20\n      add\n      swap1\n      dup2\n      mstore\n      0x20\n      add\n      0x00\n      keccak256\n        /* \"RWAPSSF.sol\":4074:4088  player[1].addr */\n      0x01\n      add\n      0x00\n      swap1\n      sload\n      swap1\n      0x0100\n      exp\n      swap1\n      div\n      0xffffffffffffffffffffffffffffffffffffffff\n      and\n        /* \"RWAPSSF.sol\":4038:4090  address payable account1 = payable( player[1].addr ) */\n      swap1\n      pop\n        /* \"RWAPSSF.sol\":4109:4117  account0 */\n      dup2\n        /* \"RWAPSSF.sol\":4109:4126  account0.transfer */\n      0xffffffffffffffffffffffffffffffffffffffff\n      and\n        /* \"RWAPSSF.sol\":4109:4140  account0.transfer( reward / 2 ) */\n      0x08fc\n        /* \"RWAPSSF.sol\":4137:4138  2 */\n      0x02\n        /* \"RWAPSSF.sol\":4128:4134  reward */\n      sload(0x04)\n        /* \"RWAPSSF.sol\":4128:4138  reward / 2 */\n      tag_132\n      swap2\n      swap1\n      tag_133\n      jump\t// in\n    tag_132:\n        /* \"RWAPSSF.sol\":4109:4140  account0.transfer( reward / 2 ) */\n      swap1\n      dup2\n      iszero\n      mul\n      swap1\n      mload(0x40)\n      0x00\n      mload(0x40)\n      dup1\n      dup4\n      sub\n      dup2\n      dup6\n      dup9\n      dup9\n      call\n      swap4\n      pop\n      pop\n      pop\n      pop\n      iszero\n      dup1\n      iszero\n      tag_135\n      jumpi\n      returndatasize\n      0x00\n      dup1\n      returndatacopy\n      revert(0x00, returndatasize)\n    tag_135:\n      pop\n        /* \"RWAPSSF.sol\":4159:4167  account1 */\n      dup1\n        /* \"RWAPSSF.sol\":4159:4176  account1.transfer */\n      0xffffffffffffffffffffffffffffffffffffffff\n      and\n        /* \"RWAPSSF.sol\":4159:4190  account1.transfer( reward / 2 ) */\n      0x08fc\n        /* \"RWAPSSF.sol\":4187:4188  2 */\n      0x02\n        /* \"RWAPSSF.sol\":4178:4184  reward */\n      sload(0x04)\n        /* \"RWAPSSF.sol\":4178:4188  reward / 2 */\n      tag_136\n      swap2\n      swap1\n      tag_133\n      jump\t// in\n    tag_136:\n        /* \"RWAPSSF.sol\":4159:4190  account1.transfer( reward / 2 ) */\n      swap1\n      dup2\n      iszero\n      mul\n      swap1\n      mload(0x40)\n      0x00\n      mload(0x40)\n      dup1\n      dup4\n      sub\n      dup2\n      dup6\n      dup9\n      dup9\n      call\n      swap4\n      pop\n      pop\n      pop\n      pop\n      iszero\n      dup1\n      iszero\n      tag_138\n      jumpi\n      returndatasize\n      0x00\n      dup1\n      returndatacopy\n      revert(0x00, returndatasize)\n    tag_138:\n      pop\n        /* \"RWAPSSF.sol\":4209:4221  _resetGame() */\n      tag_139\n        /* \"RWAPSSF.sol\":4209:4219  _resetGame */\n      tag_126\n        /* \"RWAPSSF.sol\":4209:4221  _resetGame() */\n      jump\t// in\n    tag_139:\n        /* \"RWAPSSF.sol\":3909:4237  {... */\n      pop\n      pop\n        /* \"RWAPSSF.sol\":3890:5013  if( numInput == 0 ){... */\n      jump(tag_140)\n    tag_131:\n        /* \"RWAPSSF.sol\":4335:4336  1 */\n      0x01\n        /* \"RWAPSSF.sol\":4323:4331  numInput */\n      sload(0x05)\n        /* \"RWAPSSF.sol\":4323:4336  numInput == 1 */\n      sub\n        /* \"RWAPSSF.sol\":4319:5013  if( numInput == 1 ){... */\n      tag_141\n      jumpi\n        /* \"RWAPSSF.sol\":4443:4444  7 */\n      0x07\n        /* \"RWAPSSF.sol\":4423:4429  player */\n      0x02\n        /* \"RWAPSSF.sol\":4423:4432  player[0] */\n      0x00\n        /* \"RWAPSSF.sol\":4430:4431  0 */\n      dup1\n        /* \"RWAPSSF.sol\":4423:4432  player[0] */\n      dup2\n      mstore\n      0x20\n      add\n      swap1\n      dup2\n      mstore\n      0x20\n      add\n      0x00\n      keccak256\n        /* \"RWAPSSF.sol\":4423:4439  player[0].choice */\n      0x00\n      add\n      sload\n        /* \"RWAPSSF.sol\":4423:4444  player[0].choice == 7 */\n      sub\n        /* \"RWAPSSF.sol\":4419:4967  if( player[0].choice == 7 ){... */\n      tag_142\n      jumpi\n        /* \"RWAPSSF.sol\":4532:4555  address payable account */\n      0x00\n        /* \"RWAPSSF.sol\":4567:4573  player */\n      0x02\n        /* \"RWAPSSF.sol\":4567:4576  player[1] */\n      0x00\n        /* \"RWAPSSF.sol\":4574:4575  1 */\n      0x01\n        /* \"RWAPSSF.sol\":4567:4576  player[1] */\n      dup2\n      mstore\n      0x20\n      add\n      swap1\n      dup2\n      mstore\n      0x20\n      add\n      0x00\n      keccak256\n        /* \"RWAPSSF.sol\":4567:4581  player[1].addr */\n      0x01\n      add\n      0x00\n      swap1\n      sload\n      swap1\n      0x0100\n      exp\n      swap1\n      div\n      0xffffffffffffffffffffffffffffffffffffffff\n      and\n        /* \"RWAPSSF.sol\":4532:4583  address payable account = payable( player[1].addr ) */\n      swap1\n      pop\n        /* \"RWAPSSF.sol\":4606:4613  account */\n      dup1\n        /* \"RWAPSSF.sol\":4606:4622  account.transfer */\n      0xffffffffffffffffffffffffffffffffffffffff\n      and\n        /* \"RWAPSSF.sol\":4606:4632  account.transfer( reward ) */\n      0x08fc\n        /* \"RWAPSSF.sol\":4624:4630  reward */\n      sload(0x04)\n        /* \"RWAPSSF.sol\":4606:4632  account.transfer( reward ) */\n      swap1\n      dup2\n      iszero\n      mul\n      swap1\n      mload(0x40)\n      0x00\n      mload(0x40)\n      dup1\n      dup4\n      sub\n      dup2\n      dup6\n      dup9\n      dup9\n      call\n      swap4\n      pop\n      pop\n      pop\n      pop\n      iszero\n      dup1\n      iszero\n      tag_144\n      jumpi\n      returndatasize\n      0x00\n      dup1\n      returndatacopy\n      revert(0x00, returndatasize)\n    tag_144:\n      pop\n        /* \"RWAPSSF.sol\":4446:4652  {... */\n      pop\n        /* \"RWAPSSF.sol\":4419:4967  if( player[0].choice == 7 ){... */\n      jump(tag_145)\n    tag_142:\n        /* \"RWAPSSF.sol\":4759:4760  7 */\n      0x07\n        /* \"RWAPSSF.sol\":4739:4745  player */\n      0x02\n        /* \"RWAPSSF.sol\":4739:4748  player[1] */\n      0x00\n        /* \"RWAPSSF.sol\":4746:4747  1 */\n      0x01\n        /* \"RWAPSSF.sol\":4739:4748  player[1] */\n      dup2\n      mstore\n      0x20\n      add\n      swap1\n      dup2\n      mstore\n      0x20\n      add\n      0x00\n      keccak256\n        /* \"RWAPSSF.sol\":4739:4755  player[1].choice */\n      0x00\n      add\n      sload\n        /* \"RWAPSSF.sol\":4739:4760  player[1].choice == 7 */\n      sub\n        /* \"RWAPSSF.sol\":4735:4967  if( player[1].choice == 7 ){... */\n      tag_146\n      jumpi\n        /* \"RWAPSSF.sol\":4847:4870  address payable account */\n      0x00\n        /* \"RWAPSSF.sol\":4882:4888  player */\n      0x02\n        /* \"RWAPSSF.sol\":4882:4891  player[0] */\n      0x00\n        /* \"RWAPSSF.sol\":4889:4890  0 */\n      dup1\n        /* \"RWAPSSF.sol\":4882:4891  player[0] */\n      dup2\n      mstore\n      0x20\n      add\n      swap1\n      dup2\n      mstore\n      0x20\n      add\n      0x00\n      keccak256\n        /* \"RWAPSSF.sol\":4882:4896  player[0].addr */\n      0x01\n      add\n      0x00\n      swap1\n      sload\n      swap1\n      0x0100\n      exp\n      swap1\n      div\n      0xffffffffffffffffffffffffffffffffffffffff\n      and\n        /* \"RWAPSSF.sol\":4847:4898  address payable account = payable( player[0].addr ) */\n      swap1\n      pop\n        /* \"RWAPSSF.sol\":4921:4928  account */\n      dup1\n        /* \"RWAPSSF.sol\":4921:4937  account.transfer */\n      0xffffffffffffffffffffffffffffffffffffffff\n      and\n        /* \"RWAPSSF.sol\":4921:4947  account.transfer( reward ) */\n      0x08fc\n        /* \"RWAPSSF.sol\":4939:4945  reward */\n      sload(0x04)\n        /* \"RWAPSSF.sol\":4921:4947  account.transfer( reward ) */\n      swap1\n      dup2\n      iszero\n      mul\n      swap1\n      mload(0x40)\n      0x00\n      mload(0x40)\n      dup1\n      dup4\n      sub\n      dup2\n      dup6\n      dup9\n      dup9\n      call\n      swap4\n      pop\n      pop\n      pop\n      pop\n      iszero\n      dup1\n      iszero\n      tag_148\n      jumpi\n      returndatasize\n      0x00\n      dup1\n      returndatacopy\n      revert(0x00, returndatasize)\n    tag_148:\n      pop\n        /* \"RWAPSSF.sol\":4762:4967  {... */\n      pop\n        /* \"RWAPSSF.sol\":4735:4967  if( player[1].choice == 7 ){... */\n    tag_146:\n        /* \"RWAPSSF.sol\":4419:4967  if( player[0].choice == 7 ){... */\n    tag_145:\n        /* \"RWAPSSF.sol\":4985:4997  _resetGame() */\n      tag_149\n        /* \"RWAPSSF.sol\":4985:4995  _resetGame */\n      tag_126\n        /* \"RWAPSSF.sol\":4985:4997  _resetGame() */\n      jump\t// in\n    tag_149:\n        /* \"RWAPSSF.sol\":4319:5013  if( numInput == 1 ){... */\n    tag_141:\n        /* \"RWAPSSF.sol\":3890:5013  if( numInput == 0 ){... */\n    tag_140:\n        /* \"RWAPSSF.sol\":3680:5024  if( numPlayer == 2 ){... */\n    tag_128:\n        /* \"RWAPSSF.sol\":3399:5024  if( numPlayer == 1 ) {... */\n    tag_127:\n        /* \"RWAPSSF.sol\":3166:5033  function refund() public {... */\n      jump\t// out\n        /* \"RWAPSSF.sol\":1213:1491  function inputHashChoice( bytes32 hashedChoice, uint idx ) public {... */\n    tag_59:\n        /* \"RWAPSSF.sol\":1312:1313  2 */\n      0x02\n        /* \"RWAPSSF.sol\":1299:1308  numPlayer */\n      sload(0x03)\n        /* \"RWAPSSF.sol\":1299:1313  numPlayer == 2 */\n      eq\n        /* \"RWAPSSF.sol\":1290:1315  require( numPlayer == 2 ) */\n      tag_151\n      jumpi\n      0x00\n      dup1\n      revert\n    tag_151:\n        /* \"RWAPSSF.sol\":1349:1355  player */\n      0x02\n        /* \"RWAPSSF.sol\":1349:1360  player[idx] */\n      0x00\n        /* \"RWAPSSF.sol\":1356:1359  idx */\n      dup3\n        /* \"RWAPSSF.sol\":1349:1360  player[idx] */\n      dup2\n      mstore\n      0x20\n      add\n      swap1\n      dup2\n      mstore\n      0x20\n      add\n      0x00\n      keccak256\n        /* \"RWAPSSF.sol\":1349:1365  player[idx].addr */\n      0x01\n      add\n      0x00\n      swap1\n      sload\n      swap1\n      0x0100\n      exp\n      swap1\n      div\n      0xffffffffffffffffffffffffffffffffffffffff\n      and\n        /* \"RWAPSSF.sol\":1335:1365  msg.sender == player[idx].addr */\n      0xffffffffffffffffffffffffffffffffffffffff\n      and\n        /* \"RWAPSSF.sol\":1335:1345  msg.sender */\n      caller\n        /* \"RWAPSSF.sol\":1335:1365  msg.sender == player[idx].addr */\n      0xffffffffffffffffffffffffffffffffffffffff\n      and\n      eq\n        /* \"RWAPSSF.sol\":1326:1367  require( msg.sender == player[idx].addr ) */\n      tag_152\n      jumpi\n      0x00\n      dup1\n      revert\n    tag_152:\n        /* \"RWAPSSF.sol\":1378:1411  commit( getHash( hashedChoice ) ) */\n      tag_153\n        /* \"RWAPSSF.sol\":1386:1409  getHash( hashedChoice ) */\n      tag_154\n        /* \"RWAPSSF.sol\":1395:1407  hashedChoice */\n      dup4\n        /* \"RWAPSSF.sol\":1386:1393  getHash */\n      tag_50\n        /* \"RWAPSSF.sol\":1386:1409  getHash( hashedChoice ) */\n      jump\t// in\n    tag_154:\n        /* \"RWAPSSF.sol\":1378:1384  commit */\n      tag_155\n        /* \"RWAPSSF.sol\":1378:1411  commit( getHash( hashedChoice ) ) */\n      jump\t// in\n    tag_153:\n        /* \"RWAPSSF.sol\":1422:1436  numHashedInput */\n      0x06\n      0x00\n        /* \"RWAPSSF.sol\":1422:1438  numHashedInput++ */\n      dup2\n      sload\n      dup1\n      swap3\n      swap2\n      swap1\n      tag_156\n      swap1\n      tag_103\n      jump\t// in\n    tag_156:\n      swap2\n      swap1\n      pop\n      sstore\n      pop\n        /* \"RWAPSSF.sol\":1468:1483  block.timestamp */\n      timestamp\n        /* \"RWAPSSF.sol\":1449:1465  latestActionTime */\n      0x07\n        /* \"RWAPSSF.sol\":1449:1483  latestActionTime = block.timestamp */\n      dup2\n      swap1\n      sstore\n      pop\n        /* \"RWAPSSF.sol\":1213:1491  function inputHashChoice( bytes32 hashedChoice, uint idx ) public {... */\n      pop\n      pop\n      jump\t// out\n        /* \"RWAPSSF.sol\":496:542  uint public latestActionTime = block.timestamp */\n    tag_62:\n      sload(0x07)\n      dup2\n      jump\t// out\n        /* \"CommitReveal.sol\":2530:2680  function getSaltedHash(bytes32 data,bytes32 salt) public view returns(bytes32){... */\n    tag_68:\n        /* \"CommitReveal.sol\":2600:2607  bytes32 */\n      0x00\n        /* \"CommitReveal.sol\":2656:2660  this */\n      address\n        /* \"CommitReveal.sol\":2663:2667  data */\n      dup4\n        /* \"CommitReveal.sol\":2669:2673  salt */\n      dup4\n        /* \"CommitReveal.sol\":2631:2674  abi.encodePacked(address(this), data, salt) */\n      add(0x20, mload(0x40))\n      tag_158\n      swap4\n      swap3\n      swap2\n      swap1\n      tag_159\n      jump\t// in\n    tag_158:\n      mload(0x40)\n      0x20\n      dup2\n      dup4\n      sub\n      sub\n      dup2\n      mstore\n      swap1\n      0x40\n      mstore\n        /* \"CommitReveal.sol\":2621:2675  keccak256(abi.encodePacked(address(this), data, salt)) */\n      dup1\n      mload\n      swap1\n      0x20\n      add\n      keccak256\n        /* \"CommitReveal.sol\":2614:2675  return keccak256(abi.encodePacked(address(this), data, salt)) */\n      swap1\n      pop\n        /* \"CommitReveal.sol\":2530:2680  function getSaltedHash(bytes32 data,bytes32 salt) public view returns(bytes32){... */\n      swap3\n      swap2\n      pop\n      pop\n      jump\t// out\n        /* \"RWAPSSF.sol\":361:386  uint public numPlayer = 0 */\n    tag_72:\n      sload(0x03)\n      dup2\n      jump\t// out\n        /* \"RWAPSSF.sol\":316:354  mapping (uint => Player) public player */\n    tag_78:\n      mstore(0x20, 0x02)\n      dup1\n      0x00\n      mstore\n      keccak256(0x00, 0x40)\n      0x00\n      swap2\n      pop\n      swap1\n      pop\n      dup1\n      0x00\n      add\n      sload\n      swap1\n      dup1\n      0x01\n      add\n      0x00\n      swap1\n      sload\n      swap1\n      0x0100\n      exp\n      swap1\n      div\n      0xffffffffffffffffffffffffffffffffffffffff\n      and\n      swap1\n      pop\n      dup3\n      jump\t// out\n        /* \"RWAPSSF.sol\":453:483  uint public numHashedInput = 0 */\n    tag_83:\n      sload(0x06)\n      dup2\n      jump\t// out\n        /* \"CommitReveal.sol\":600:1751  function reveal(bytes32 revealHash) internal {... */\n    tag_101:\n        /* \"CommitReveal.sol\":756:761  false */\n      0x00\n        /* \"CommitReveal.sol\":726:761  commits[msg.sender].revealed==false */\n      iszero\n      iszero\n        /* \"CommitReveal.sol\":726:733  commits */\n      0x01\n        /* \"CommitReveal.sol\":726:745  commits[msg.sender] */\n      0x00\n        /* \"CommitReveal.sol\":734:744  msg.sender */\n      caller\n        /* \"CommitReveal.sol\":726:745  commits[msg.sender] */\n      0xffffffffffffffffffffffffffffffffffffffff\n      and\n      0xffffffffffffffffffffffffffffffffffffffff\n      and\n      dup2\n      mstore\n      0x20\n      add\n      swap1\n      dup2\n      mstore\n      0x20\n      add\n      0x00\n      keccak256\n        /* \"CommitReveal.sol\":726:754  commits[msg.sender].revealed */\n      0x01\n      add\n      0x08\n      swap1\n      sload\n      swap1\n      0x0100\n      exp\n      swap1\n      div\n      0xff\n      and\n        /* \"CommitReveal.sol\":726:761  commits[msg.sender].revealed==false */\n      iszero\n      iszero\n      eq\n        /* \"CommitReveal.sol\":718:803  require(commits[msg.sender].revealed==false,\"CommitReveal::reveal: Already revealed\") */\n      tag_161\n      jumpi\n      mload(0x40)\n      0x08c379a000000000000000000000000000000000000000000000000000000000\n      dup2\n      mstore\n      0x04\n      add\n      tag_162\n      swap1\n      tag_163\n      jump\t// in\n    tag_162:\n      mload(0x40)\n      dup1\n      swap2\n      sub\n      swap1\n      revert\n    tag_161:\n        /* \"CommitReveal.sol\":838:842  true */\n      0x01\n        /* \"CommitReveal.sol\":809:816  commits */\n      dup1\n        /* \"CommitReveal.sol\":809:828  commits[msg.sender] */\n      0x00\n        /* \"CommitReveal.sol\":817:827  msg.sender */\n      caller\n        /* \"CommitReveal.sol\":809:828  commits[msg.sender] */\n      0xffffffffffffffffffffffffffffffffffffffff\n      and\n      0xffffffffffffffffffffffffffffffffffffffff\n      and\n      dup2\n      mstore\n      0x20\n      add\n      swap1\n      dup2\n      mstore\n      0x20\n      add\n      0x00\n      keccak256\n        /* \"CommitReveal.sol\":809:837  commits[msg.sender].revealed */\n      0x01\n      add\n      0x08\n        /* \"CommitReveal.sol\":809:842  commits[msg.sender].revealed=true */\n      0x0100\n      exp\n      dup2\n      sload\n      dup2\n      0xff\n      mul\n      not\n      and\n      swap1\n      dup4\n      iszero\n      iszero\n      mul\n      or\n      swap1\n      sstore\n      pop\n        /* \"CommitReveal.sol\":932:939  commits */\n      0x01\n        /* \"CommitReveal.sol\":932:951  commits[msg.sender] */\n      0x00\n        /* \"CommitReveal.sol\":940:950  msg.sender */\n      caller\n        /* \"CommitReveal.sol\":932:951  commits[msg.sender] */\n      0xffffffffffffffffffffffffffffffffffffffff\n      and\n      0xffffffffffffffffffffffffffffffffffffffff\n      and\n      dup2\n      mstore\n      0x20\n      add\n      swap1\n      dup2\n      mstore\n      0x20\n      add\n      0x00\n      keccak256\n        /* \"CommitReveal.sol\":932:958  commits[msg.sender].commit */\n      0x00\n      add\n      sload\n        /* \"CommitReveal.sol\":911:930  getHash(revealHash) */\n      tag_164\n        /* \"CommitReveal.sol\":919:929  revealHash */\n      dup3\n        /* \"CommitReveal.sol\":911:918  getHash */\n      tag_50\n        /* \"CommitReveal.sol\":911:930  getHash(revealHash) */\n      jump\t// in\n    tag_164:\n        /* \"CommitReveal.sol\":911:958  getHash(revealHash)==commits[msg.sender].commit */\n      eq\n        /* \"CommitReveal.sol\":903:1019  require(getHash(revealHash)==commits[msg.sender].commit,\"CommitReveal::reveal: Revealed hash does not match commit\") */\n      tag_165\n      jumpi\n      mload(0x40)\n      0x08c379a000000000000000000000000000000000000000000000000000000000\n      dup2\n      mstore\n      0x04\n      add\n      tag_166\n      swap1\n      tag_167\n      jump\t// in\n    tag_166:\n      mload(0x40)\n      dup1\n      swap2\n      sub\n      swap1\n      revert\n    tag_165:\n        /* \"CommitReveal.sol\":1125:1132  commits */\n      0x01\n        /* \"CommitReveal.sol\":1125:1144  commits[msg.sender] */\n      0x00\n        /* \"CommitReveal.sol\":1133:1143  msg.sender */\n      caller\n        /* \"CommitReveal.sol\":1125:1144  commits[msg.sender] */\n      0xffffffffffffffffffffffffffffffffffffffff\n      and\n      0xffffffffffffffffffffffffffffffffffffffff\n      and\n      dup2\n      mstore\n      0x20\n      add\n      swap1\n      dup2\n      mstore\n      0x20\n      add\n      0x00\n      keccak256\n        /* \"CommitReveal.sol\":1125:1150  commits[msg.sender].block */\n      0x01\n      add\n      0x00\n      swap1\n      sload\n      swap1\n      0x0100\n      exp\n      swap1\n      div\n      0xffffffffffffffff\n      and\n        /* \"CommitReveal.sol\":1104:1150  uint64(block.number)>commits[msg.sender].block */\n      0xffffffffffffffff\n      and\n        /* \"CommitReveal.sol\":1111:1123  block.number */\n      number\n        /* \"CommitReveal.sol\":1104:1150  uint64(block.number)>commits[msg.sender].block */\n      0xffffffffffffffff\n      and\n      gt\n        /* \"CommitReveal.sol\":1096:1220  require(uint64(block.number)>commits[msg.sender].block,\"CommitReveal::reveal: Reveal and commit happened on the same block\") */\n      tag_168\n      jumpi\n      mload(0x40)\n      0x08c379a000000000000000000000000000000000000000000000000000000000\n      dup2\n      mstore\n      0x04\n      add\n      tag_169\n      swap1\n      tag_170\n      jump\t// in\n    tag_169:\n      mload(0x40)\n      dup1\n      swap2\n      sub\n      swap1\n      revert\n    tag_168:\n        /* \"CommitReveal.sol\":1337:1340  250 */\n      0xfa\n        /* \"CommitReveal.sol\":1311:1318  commits */\n      0x01\n        /* \"CommitReveal.sol\":1311:1330  commits[msg.sender] */\n      0x00\n        /* \"CommitReveal.sol\":1319:1329  msg.sender */\n      caller\n        /* \"CommitReveal.sol\":1311:1330  commits[msg.sender] */\n      0xffffffffffffffffffffffffffffffffffffffff\n      and\n      0xffffffffffffffffffffffffffffffffffffffff\n      and\n      dup2\n      mstore\n      0x20\n      add\n      swap1\n      dup2\n      mstore\n      0x20\n      add\n      0x00\n      keccak256\n        /* \"CommitReveal.sol\":1311:1336  commits[msg.sender].block */\n      0x01\n      add\n      0x00\n      swap1\n      sload\n      swap1\n      0x0100\n      exp\n      swap1\n      div\n      0xffffffffffffffff\n      and\n        /* \"CommitReveal.sol\":1311:1340  commits[msg.sender].block+250 */\n      tag_171\n      swap2\n      swap1\n      tag_172\n      jump\t// in\n    tag_171:\n        /* \"CommitReveal.sol\":1289:1340  uint64(block.number)<=commits[msg.sender].block+250 */\n      0xffffffffffffffff\n      and\n        /* \"CommitReveal.sol\":1296:1308  block.number */\n      number\n        /* \"CommitReveal.sol\":1289:1340  uint64(block.number)<=commits[msg.sender].block+250 */\n      0xffffffffffffffff\n      and\n      gt\n      iszero\n        /* \"CommitReveal.sol\":1281:1383  require(uint64(block.number)<=commits[msg.sender].block+250,\"CommitReveal::reveal: Revealed too late\") */\n      tag_173\n      jumpi\n      mload(0x40)\n      0x08c379a000000000000000000000000000000000000000000000000000000000\n      dup2\n      mstore\n      0x04\n      add\n      tag_174\n      swap1\n      tag_175\n      jump\t// in\n    tag_174:\n      mload(0x40)\n      dup1\n      swap2\n      sub\n      swap1\n      revert\n    tag_173:\n        /* \"CommitReveal.sol\":1456:1473  bytes32 blockHash */\n      0x00\n        /* \"CommitReveal.sol\":1486:1493  commits */\n      0x01\n        /* \"CommitReveal.sol\":1486:1505  commits[msg.sender] */\n      0x00\n        /* \"CommitReveal.sol\":1494:1504  msg.sender */\n      caller\n        /* \"CommitReveal.sol\":1486:1505  commits[msg.sender] */\n      0xffffffffffffffffffffffffffffffffffffffff\n      and\n      0xffffffffffffffffffffffffffffffffffffffff\n      and\n      dup2\n      mstore\n      0x20\n      add\n      swap1\n      dup2\n      mstore\n      0x20\n      add\n      0x00\n      keccak256\n        /* \"CommitReveal.sol\":1486:1511  commits[msg.sender].block */\n      0x01\n      add\n      0x00\n      swap1\n      sload\n      swap1\n      0x0100\n      exp\n      swap1\n      div\n      0xffffffffffffffff\n      and\n        /* \"CommitReveal.sol\":1476:1512  blockhash(commits[msg.sender].block) */\n      0xffffffffffffffff\n      and\n      blockhash\n        /* \"CommitReveal.sol\":1456:1512  bytes32 blockHash = blockhash(commits[msg.sender].block) */\n      swap1\n      pop\n        /* \"CommitReveal.sol\":1622:1633  uint random */\n      0x00\n        /* \"CommitReveal.sol\":1692:1695  max */\n      dup1\n      0x00\n      swap1\n      sload\n      swap1\n      0x0100\n      exp\n      swap1\n      div\n      0xff\n      and\n        /* \"CommitReveal.sol\":1636:1695  uint(keccak256(abi.encodePacked(blockHash,revealHash)))%max */\n      0xff\n      and\n        /* \"CommitReveal.sol\":1668:1677  blockHash */\n      dup3\n        /* \"CommitReveal.sol\":1678:1688  revealHash */\n      dup5\n        /* \"CommitReveal.sol\":1651:1689  abi.encodePacked(blockHash,revealHash) */\n      add(0x20, mload(0x40))\n      tag_176\n      swap3\n      swap2\n      swap1\n      tag_177\n      jump\t// in\n    tag_176:\n      mload(0x40)\n      0x20\n      dup2\n      dup4\n      sub\n      sub\n      dup2\n      mstore\n      swap1\n      0x40\n      mstore\n        /* \"CommitReveal.sol\":1641:1690  keccak256(abi.encodePacked(blockHash,revealHash)) */\n      dup1\n      mload\n      swap1\n      0x20\n      add\n      keccak256\n        /* \"CommitReveal.sol\":1636:1691  uint(keccak256(abi.encodePacked(blockHash,revealHash))) */\n      0x00\n      shr\n        /* \"CommitReveal.sol\":1636:1695  uint(keccak256(abi.encodePacked(blockHash,revealHash)))%max */\n      tag_178\n      swap2\n      swap1\n      tag_179\n      jump\t// in\n    tag_178:\n        /* \"CommitReveal.sol\":1622:1695  uint random = uint(keccak256(abi.encodePacked(blockHash,revealHash)))%max */\n      swap1\n      pop\n        /* \"CommitReveal.sol\":1706:1746  RevealHash(msg.sender,revealHash,random) */\n      0xbc016dd1cadeaefcb851af7a0a93532e0023d536894b730801f7bcfe7065bcc2\n        /* \"CommitReveal.sol\":1717:1727  msg.sender */\n      caller\n        /* \"CommitReveal.sol\":1728:1738  revealHash */\n      dup5\n        /* \"CommitReveal.sol\":1739:1745  random */\n      dup4\n        /* \"CommitReveal.sol\":1706:1746  RevealHash(msg.sender,revealHash,random) */\n      mload(0x40)\n      tag_180\n      swap4\n      swap3\n      swap2\n      swap1\n      tag_181\n      jump\t// in\n    tag_180:\n      mload(0x40)\n      dup1\n      swap2\n      sub\n      swap1\n      log1\n        /* \"CommitReveal.sol\":645:1751  {... */\n      pop\n      pop\n        /* \"CommitReveal.sol\":600:1751  function reveal(bytes32 revealHash) internal {... */\n      pop\n      jump\t// out\n        /* \"RWAPSSF.sol\":2030:2865  function _checkWinnerAndPay() private {... */\n    tag_106:\n        /* \"RWAPSSF.sol\":2079:2092  uint p0Choice */\n      0x00\n        /* \"RWAPSSF.sol\":2095:2101  player */\n      0x02\n        /* \"RWAPSSF.sol\":2095:2104  player[0] */\n      0x00\n        /* \"RWAPSSF.sol\":2102:2103  0 */\n      dup1\n        /* \"RWAPSSF.sol\":2095:2104  player[0] */\n      dup2\n      mstore\n      0x20\n      add\n      swap1\n      dup2\n      mstore\n      0x20\n      add\n      0x00\n      keccak256\n        /* \"RWAPSSF.sol\":2095:2111  player[0].choice */\n      0x00\n      add\n      sload\n        /* \"RWAPSSF.sol\":2079:2111  uint p0Choice = player[0].choice */\n      swap1\n      pop\n        /* \"RWAPSSF.sol\":2122:2135  uint p1Choice */\n      0x00\n        /* \"RWAPSSF.sol\":2138:2144  player */\n      0x02\n        /* \"RWAPSSF.sol\":2138:2147  player[1] */\n      0x00\n        /* \"RWAPSSF.sol\":2145:2146  1 */\n      0x01\n        /* \"RWAPSSF.sol\":2138:2147  player[1] */\n      dup2\n      mstore\n      0x20\n      add\n      swap1\n      dup2\n      mstore\n      0x20\n      add\n      0x00\n      keccak256\n        /* \"RWAPSSF.sol\":2138:2154  player[1].choice */\n      0x00\n      add\n      sload\n        /* \"RWAPSSF.sol\":2122:2154  uint p1Choice = player[1].choice */\n      swap1\n      pop\n        /* \"RWAPSSF.sol\":2165:2189  address payable account0 */\n      0x00\n        /* \"RWAPSSF.sol\":2200:2206  player */\n      0x02\n        /* \"RWAPSSF.sol\":2200:2209  player[0] */\n      0x00\n        /* \"RWAPSSF.sol\":2207:2208  0 */\n      dup1\n        /* \"RWAPSSF.sol\":2200:2209  player[0] */\n      dup2\n      mstore\n      0x20\n      add\n      swap1\n      dup2\n      mstore\n      0x20\n      add\n      0x00\n      keccak256\n        /* \"RWAPSSF.sol\":2200:2214  player[0].addr */\n      0x01\n      add\n      0x00\n      swap1\n      sload\n      swap1\n      0x0100\n      exp\n      swap1\n      div\n      0xffffffffffffffffffffffffffffffffffffffff\n      and\n        /* \"RWAPSSF.sol\":2165:2215  address payable account0 = payable(player[0].addr) */\n      swap1\n      pop\n        /* \"RWAPSSF.sol\":2226:2250  address payable account1 */\n      0x00\n        /* \"RWAPSSF.sol\":2261:2267  player */\n      0x02\n        /* \"RWAPSSF.sol\":2261:2270  player[1] */\n      0x00\n        /* \"RWAPSSF.sol\":2268:2269  1 */\n      0x01\n        /* \"RWAPSSF.sol\":2261:2270  player[1] */\n      dup2\n      mstore\n      0x20\n      add\n      swap1\n      dup2\n      mstore\n      0x20\n      add\n      0x00\n      keccak256\n        /* \"RWAPSSF.sol\":2261:2275  player[1].addr */\n      0x01\n      add\n      0x00\n      swap1\n      sload\n      swap1\n      0x0100\n      exp\n      swap1\n      div\n      0xffffffffffffffffffffffffffffffffffffffff\n      and\n        /* \"RWAPSSF.sol\":2226:2276  address payable account1 = payable(player[1].addr) */\n      swap1\n      pop\n        /* \"RWAPSSF.sol\":2314:2322  p1Choice */\n      dup3\n        /* \"RWAPSSF.sol\":2309:2310  7 */\n      0x07\n        /* \"RWAPSSF.sol\":2304:2305  1 */\n      0x01\n        /* \"RWAPSSF.sol\":2293:2301  p0Choice */\n      dup7\n        /* \"RWAPSSF.sol\":2293:2305  p0Choice + 1 */\n      tag_183\n      swap2\n      swap1\n      tag_111\n      jump\t// in\n    tag_183:\n        /* \"RWAPSSF.sol\":2292:2310  (p0Choice + 1) % 7 */\n      tag_184\n      swap2\n      swap1\n      tag_179\n      jump\t// in\n    tag_184:\n        /* \"RWAPSSF.sol\":2292:2322  (p0Choice + 1) % 7 == p1Choice */\n      eq\n        /* \"RWAPSSF.sol\":2292:2356  (p0Choice + 1) % 7 == p1Choice || (p0Choice + 2) % 7 == p1Choice */\n      dup1\n      tag_185\n      jumpi\n      pop\n        /* \"RWAPSSF.sol\":2348:2356  p1Choice */\n      dup3\n        /* \"RWAPSSF.sol\":2343:2344  7 */\n      0x07\n        /* \"RWAPSSF.sol\":2338:2339  2 */\n      0x02\n        /* \"RWAPSSF.sol\":2327:2335  p0Choice */\n      dup7\n        /* \"RWAPSSF.sol\":2327:2339  p0Choice + 2 */\n      tag_186\n      swap2\n      swap1\n      tag_111\n      jump\t// in\n    tag_186:\n        /* \"RWAPSSF.sol\":2326:2344  (p0Choice + 2) % 7 */\n      tag_187\n      swap2\n      swap1\n      tag_179\n      jump\t// in\n    tag_187:\n        /* \"RWAPSSF.sol\":2326:2356  (p0Choice + 2) % 7 == p1Choice */\n      eq\n        /* \"RWAPSSF.sol\":2292:2356  (p0Choice + 1) % 7 == p1Choice || (p0Choice + 2) % 7 == p1Choice */\n    tag_185:\n        /* \"RWAPSSF.sol\":2292:2390  (p0Choice + 1) % 7 == p1Choice || (p0Choice + 2) % 7 == p1Choice || (p0Choice + 3) % 7 == p1Choice */\n      dup1\n      tag_188\n      jumpi\n      pop\n        /* \"RWAPSSF.sol\":2382:2390  p1Choice */\n      dup3\n        /* \"RWAPSSF.sol\":2377:2378  7 */\n      0x07\n        /* \"RWAPSSF.sol\":2372:2373  3 */\n      0x03\n        /* \"RWAPSSF.sol\":2361:2369  p0Choice */\n      dup7\n        /* \"RWAPSSF.sol\":2361:2373  p0Choice + 3 */\n      tag_189\n      swap2\n      swap1\n      tag_111\n      jump\t// in\n    tag_189:\n        /* \"RWAPSSF.sol\":2360:2378  (p0Choice + 3) % 7 */\n      tag_190\n      swap2\n      swap1\n      tag_179\n      jump\t// in\n    tag_190:\n        /* \"RWAPSSF.sol\":2360:2390  (p0Choice + 3) % 7 == p1Choice */\n      eq\n        /* \"RWAPSSF.sol\":2292:2390  (p0Choice + 1) % 7 == p1Choice || (p0Choice + 2) % 7 == p1Choice || (p0Choice + 3) % 7 == p1Choice */\n    tag_188:\n        /* \"RWAPSSF.sol\":2287:2835  if ( (p0Choice + 1) % 7 == p1Choice || (p0Choice + 2) % 7 == p1Choice || (p0Choice + 3) % 7 == p1Choice ) {... */\n      iszero\n      tag_191\n      jumpi\n        /* \"RWAPSSF.sol\":2441:2449  account1 */\n      dup1\n        /* \"RWAPSSF.sol\":2441:2458  account1.transfer */\n      0xffffffffffffffffffffffffffffffffffffffff\n      and\n        /* \"RWAPSSF.sol\":2441:2466  account1.transfer(reward) */\n      0x08fc\n        /* \"RWAPSSF.sol\":2459:2465  reward */\n      sload(0x04)\n        /* \"RWAPSSF.sol\":2441:2466  account1.transfer(reward) */\n      swap1\n      dup2\n      iszero\n      mul\n      swap1\n      mload(0x40)\n      0x00\n      mload(0x40)\n      dup1\n      dup4\n      sub\n      dup2\n      dup6\n      dup9\n      dup9\n      call\n      swap4\n      pop\n      pop\n      pop\n      pop\n      iszero\n      dup1\n      iszero\n      tag_193\n      jumpi\n      returndatasize\n      0x00\n      dup1\n      returndatacopy\n      revert(0x00, returndatasize)\n    tag_193:\n      pop\n        /* \"RWAPSSF.sol\":2287:2835  if ( (p0Choice + 1) % 7 == p1Choice || (p0Choice + 2) % 7 == p1Choice || (p0Choice + 3) % 7 == p1Choice ) {... */\n      jump(tag_194)\n    tag_191:\n        /* \"RWAPSSF.sol\":2520:2528  p0Choice */\n      dup4\n        /* \"RWAPSSF.sol\":2515:2516  7 */\n      0x07\n        /* \"RWAPSSF.sol\":2510:2511  1 */\n      0x01\n        /* \"RWAPSSF.sol\":2499:2507  p1Choice */\n      dup6\n        /* \"RWAPSSF.sol\":2499:2511  p1Choice + 1 */\n      tag_195\n      swap2\n      swap1\n      tag_111\n      jump\t// in\n    tag_195:\n        /* \"RWAPSSF.sol\":2498:2516  (p1Choice + 1) % 7 */\n      tag_196\n      swap2\n      swap1\n      tag_179\n      jump\t// in\n    tag_196:\n        /* \"RWAPSSF.sol\":2498:2528  (p1Choice + 1) % 7 == p0Choice */\n      eq\n        /* \"RWAPSSF.sol\":2498:2562  (p1Choice + 1) % 7 == p0Choice || (p1Choice + 2) % 7 == p0Choice */\n      dup1\n      tag_197\n      jumpi\n      pop\n        /* \"RWAPSSF.sol\":2554:2562  p0Choice */\n      dup4\n        /* \"RWAPSSF.sol\":2549:2550  7 */\n      0x07\n        /* \"RWAPSSF.sol\":2544:2545  2 */\n      0x02\n        /* \"RWAPSSF.sol\":2533:2541  p1Choice */\n      dup6\n        /* \"RWAPSSF.sol\":2533:2545  p1Choice + 2 */\n      tag_198\n      swap2\n      swap1\n      tag_111\n      jump\t// in\n    tag_198:\n        /* \"RWAPSSF.sol\":2532:2550  (p1Choice + 2) % 7 */\n      tag_199\n      swap2\n      swap1\n      tag_179\n      jump\t// in\n    tag_199:\n        /* \"RWAPSSF.sol\":2532:2562  (p1Choice + 2) % 7 == p0Choice */\n      eq\n        /* \"RWAPSSF.sol\":2498:2562  (p1Choice + 1) % 7 == p0Choice || (p1Choice + 2) % 7 == p0Choice */\n    tag_197:\n        /* \"RWAPSSF.sol\":2498:2596  (p1Choice + 1) % 7 == p0Choice || (p1Choice + 2) % 7 == p0Choice || (p1Choice + 3) % 7 == p0Choice */\n      dup1\n      tag_200\n      jumpi\n      pop\n        /* \"RWAPSSF.sol\":2588:2596  p0Choice */\n      dup4\n        /* \"RWAPSSF.sol\":2583:2584  7 */\n      0x07\n        /* \"RWAPSSF.sol\":2578:2579  3 */\n      0x03\n        /* \"RWAPSSF.sol\":2567:2575  p1Choice */\n      dup6\n        /* \"RWAPSSF.sol\":2567:2579  p1Choice + 3 */\n      tag_201\n      swap2\n      swap1\n      tag_111\n      jump\t// in\n    tag_201:\n        /* \"RWAPSSF.sol\":2566:2584  (p1Choice + 3) % 7 */\n      tag_202\n      swap2\n      swap1\n      tag_179\n      jump\t// in\n    tag_202:\n        /* \"RWAPSSF.sol\":2566:2596  (p1Choice + 3) % 7 == p0Choice */\n      eq\n        /* \"RWAPSSF.sol\":2498:2596  (p1Choice + 1) % 7 == p0Choice || (p1Choice + 2) % 7 == p0Choice || (p1Choice + 3) % 7 == p0Choice */\n    tag_200:\n        /* \"RWAPSSF.sol\":2493:2835  if ( (p1Choice + 1) % 7 == p0Choice || (p1Choice + 2) % 7 == p0Choice || (p1Choice + 3) % 7 == p0Choice ) {... */\n      iszero\n      tag_203\n      jumpi\n        /* \"RWAPSSF.sol\":2647:2655  account0 */\n      dup2\n        /* \"RWAPSSF.sol\":2647:2664  account0.transfer */\n      0xffffffffffffffffffffffffffffffffffffffff\n      and\n        /* \"RWAPSSF.sol\":2647:2672  account0.transfer(reward) */\n      0x08fc\n        /* \"RWAPSSF.sol\":2665:2671  reward */\n      sload(0x04)\n        /* \"RWAPSSF.sol\":2647:2672  account0.transfer(reward) */\n      swap1\n      dup2\n      iszero\n      mul\n      swap1\n      mload(0x40)\n      0x00\n      mload(0x40)\n      dup1\n      dup4\n      sub\n      dup2\n      dup6\n      dup9\n      dup9\n      call\n      swap4\n      pop\n      pop\n      pop\n      pop\n      iszero\n      dup1\n      iszero\n      tag_205\n      jumpi\n      returndatasize\n      0x00\n      dup1\n      returndatacopy\n      revert(0x00, returndatasize)\n    tag_205:\n      pop\n        /* \"RWAPSSF.sol\":2493:2835  if ( (p1Choice + 1) % 7 == p0Choice || (p1Choice + 2) % 7 == p0Choice || (p1Choice + 3) % 7 == p0Choice ) {... */\n      jump(tag_206)\n    tag_203:\n        /* \"RWAPSSF.sol\":2750:2758  account0 */\n      dup2\n        /* \"RWAPSSF.sol\":2750:2767  account0.transfer */\n      0xffffffffffffffffffffffffffffffffffffffff\n      and\n        /* \"RWAPSSF.sol\":2750:2779  account0.transfer(reward / 2) */\n      0x08fc\n        /* \"RWAPSSF.sol\":2777:2778  2 */\n      0x02\n        /* \"RWAPSSF.sol\":2768:2774  reward */\n      sload(0x04)\n        /* \"RWAPSSF.sol\":2768:2778  reward / 2 */\n      tag_207\n      swap2\n      swap1\n      tag_133\n      jump\t// in\n    tag_207:\n        /* \"RWAPSSF.sol\":2750:2779  account0.transfer(reward / 2) */\n      swap1\n      dup2\n      iszero\n      mul\n      swap1\n      mload(0x40)\n      0x00\n      mload(0x40)\n      dup1\n      dup4\n      sub\n      dup2\n      dup6\n      dup9\n      dup9\n      call\n      swap4\n      pop\n      pop\n      pop\n      pop\n      iszero\n      dup1\n      iszero\n      tag_209\n      jumpi\n      returndatasize\n      0x00\n      dup1\n      returndatacopy\n      revert(0x00, returndatasize)\n    tag_209:\n      pop\n        /* \"RWAPSSF.sol\":2794:2802  account1 */\n      dup1\n        /* \"RWAPSSF.sol\":2794:2811  account1.transfer */\n      0xffffffffffffffffffffffffffffffffffffffff\n      and\n        /* \"RWAPSSF.sol\":2794:2823  account1.transfer(reward / 2) */\n      0x08fc\n        /* \"RWAPSSF.sol\":2821:2822  2 */\n      0x02\n        /* \"RWAPSSF.sol\":2812:2818  reward */\n      sload(0x04)\n        /* \"RWAPSSF.sol\":2812:2822  reward / 2 */\n      tag_210\n      swap2\n      swap1\n      tag_133\n      jump\t// in\n    tag_210:\n        /* \"RWAPSSF.sol\":2794:2823  account1.transfer(reward / 2) */\n      swap1\n      dup2\n      iszero\n      mul\n      swap1\n      mload(0x40)\n      0x00\n      mload(0x40)\n      dup1\n      dup4\n      sub\n      dup2\n      dup6\n      dup9\n      dup9\n      call\n      swap4\n      pop\n      pop\n      pop\n      pop\n      iszero\n      dup1\n      iszero\n      tag_212\n      jumpi\n      returndatasize\n      0x00\n      dup1\n      returndatacopy\n      revert(0x00, returndatasize)\n    tag_212:\n      pop\n        /* \"RWAPSSF.sol\":2493:2835  if ( (p1Choice + 1) % 7 == p0Choice || (p1Choice + 2) % 7 == p0Choice || (p1Choice + 3) % 7 == p0Choice ) {... */\n    tag_206:\n        /* \"RWAPSSF.sol\":2287:2835  if ( (p0Choice + 1) % 7 == p1Choice || (p0Choice + 2) % 7 == p1Choice || (p0Choice + 3) % 7 == p1Choice ) {... */\n    tag_194:\n        /* \"RWAPSSF.sol\":2845:2857  _resetGame() */\n      tag_213\n        /* \"RWAPSSF.sol\":2845:2855  _resetGame */\n      tag_126\n        /* \"RWAPSSF.sol\":2845:2857  _resetGame() */\n      jump\t// in\n    tag_213:\n        /* \"RWAPSSF.sol\":2068:2865  {... */\n      pop\n      pop\n      pop\n      pop\n        /* \"RWAPSSF.sol\":2030:2865  function _checkWinnerAndPay() private {... */\n      jump\t// out\n        /* \"RWAPSSF.sol\":2873:3158  function _resetGame() private {... */\n    tag_126:\n        /* \"RWAPSSF.sol\":2926:2927  0 */\n      0x00\n        /* \"RWAPSSF.sol\":2914:2923  numPlayer */\n      0x03\n        /* \"RWAPSSF.sol\":2914:2927  numPlayer = 0 */\n      dup2\n      swap1\n      sstore\n      pop\n        /* \"RWAPSSF.sol\":2947:2948  0 */\n      0x00\n        /* \"RWAPSSF.sol\":2938:2944  reward */\n      0x04\n        /* \"RWAPSSF.sol\":2938:2948  reward = 0 */\n      dup2\n      swap1\n      sstore\n      pop\n        /* \"RWAPSSF.sol\":2970:2971  0 */\n      0x00\n        /* \"RWAPSSF.sol\":2959:2967  numInput */\n      0x05\n        /* \"RWAPSSF.sol\":2959:2971  numInput = 0 */\n      dup2\n      swap1\n      sstore\n      pop\n        /* \"RWAPSSF.sol\":2999:3000  0 */\n      0x00\n        /* \"RWAPSSF.sol\":2982:2996  numHashedInput */\n      0x06\n        /* \"RWAPSSF.sol\":2982:3000  numHashedInput = 0 */\n      dup2\n      swap1\n      sstore\n      pop\n        /* \"RWAPSSF.sol\":3040:3041  7 */\n      0x07\n        /* \"RWAPSSF.sol\":3021:3027  player */\n      0x02\n        /* \"RWAPSSF.sol\":3021:3030  player[0] */\n      0x00\n        /* \"RWAPSSF.sol\":3028:3029  0 */\n      dup1\n        /* \"RWAPSSF.sol\":3021:3030  player[0] */\n      dup2\n      mstore\n      0x20\n      add\n      swap1\n      dup2\n      mstore\n      0x20\n      add\n      0x00\n      keccak256\n        /* \"RWAPSSF.sol\":3021:3037  player[0].choice */\n      0x00\n      add\n        /* \"RWAPSSF.sol\":3021:3041  player[0].choice = 7 */\n      dup2\n      swap1\n      sstore\n      pop\n        /* \"RWAPSSF.sol\":3077:3078  0 */\n      0x00\n        /* \"RWAPSSF.sol\":3052:3058  player */\n      0x02\n        /* \"RWAPSSF.sol\":3052:3061  player[0] */\n      0x00\n        /* \"RWAPSSF.sol\":3059:3060  0 */\n      dup1\n        /* \"RWAPSSF.sol\":3052:3061  player[0] */\n      dup2\n      mstore\n      0x20\n      add\n      swap1\n      dup2\n      mstore\n      0x20\n      add\n      0x00\n      keccak256\n        /* \"RWAPSSF.sol\":3052:3066  player[0].addr */\n      0x01\n      add\n      0x00\n        /* \"RWAPSSF.sol\":3052:3079  player[0].addr = address(0) */\n      0x0100\n      exp\n      dup2\n      sload\n      dup2\n      0xffffffffffffffffffffffffffffffffffffffff\n      mul\n      not\n      and\n      swap1\n      dup4\n      0xffffffffffffffffffffffffffffffffffffffff\n      and\n      mul\n      or\n      swap1\n      sstore\n      pop\n        /* \"RWAPSSF.sol\":3111:3112  7 */\n      0x07\n        /* \"RWAPSSF.sol\":3092:3098  player */\n      0x02\n        /* \"RWAPSSF.sol\":3092:3101  player[1] */\n      0x00\n        /* \"RWAPSSF.sol\":3099:3100  1 */\n      0x01\n        /* \"RWAPSSF.sol\":3092:3101  player[1] */\n      dup2\n      mstore\n      0x20\n      add\n      swap1\n      dup2\n      mstore\n      0x20\n      add\n      0x00\n      keccak256\n        /* \"RWAPSSF.sol\":3092:3108  player[1].choice */\n      0x00\n      add\n        /* \"RWAPSSF.sol\":3092:3112  player[1].choice = 7 */\n      dup2\n      swap1\n      sstore\n      pop\n        /* \"RWAPSSF.sol\":3148:3149  0 */\n      0x00\n        /* \"RWAPSSF.sol\":3123:3129  player */\n      0x02\n        /* \"RWAPSSF.sol\":3123:3132  player[1] */\n      0x00\n        /* \"RWAPSSF.sol\":3130:3131  1 */\n      0x01\n        /* \"RWAPSSF.sol\":3123:3132  player[1] */\n      dup2\n      mstore\n      0x20\n      add\n      swap1\n      dup2\n      mstore\n      0x20\n      add\n      0x00\n      keccak256\n        /* \"RWAPSSF.sol\":3123:3137  player[1].addr */\n      0x01\n      add\n      0x00\n        /* \"RWAPSSF.sol\":3123:3150  player[1].addr = address(0) */\n      0x0100\n      exp\n      dup2\n      sload\n      dup2\n      0xffffffffffffffffffffffffffffffffffffffff\n      mul\n      not\n      and\n      swap1\n      dup4\n      0xffffffffffffffffffffffffffffffffffffffff\n      and\n      mul\n      or\n      swap1\n      sstore\n      pop\n        /* \"RWAPSSF.sol\":2873:3158  function _resetGame() private {... */\n      jump\t// out\n        /* \"CommitReveal.sol\":255:528  function commit(bytes32 dataHash) internal {... */\n    tag_155:\n        /* \"CommitReveal.sol\":333:341  dataHash */\n      dup1\n        /* \"CommitReveal.sol\":304:311  commits */\n      0x01\n        /* \"CommitReveal.sol\":304:323  commits[msg.sender] */\n      0x00\n        /* \"CommitReveal.sol\":312:322  msg.sender */\n      caller\n        /* \"CommitReveal.sol\":304:323  commits[msg.sender] */\n      0xffffffffffffffffffffffffffffffffffffffff\n      and\n      0xffffffffffffffffffffffffffffffffffffffff\n      and\n      dup2\n      mstore\n      0x20\n      add\n      swap1\n      dup2\n      mstore\n      0x20\n      add\n      0x00\n      keccak256\n        /* \"CommitReveal.sol\":304:330  commits[msg.sender].commit */\n      0x00\n      add\n        /* \"CommitReveal.sol\":304:341  commits[msg.sender].commit = dataHash */\n      dup2\n      swap1\n      sstore\n      pop\n        /* \"CommitReveal.sol\":382:394  block.number */\n      number\n        /* \"CommitReveal.sol\":347:354  commits */\n      0x01\n        /* \"CommitReveal.sol\":347:366  commits[msg.sender] */\n      0x00\n        /* \"CommitReveal.sol\":355:365  msg.sender */\n      caller\n        /* \"CommitReveal.sol\":347:366  commits[msg.sender] */\n      0xffffffffffffffffffffffffffffffffffffffff\n      and\n      0xffffffffffffffffffffffffffffffffffffffff\n      and\n      dup2\n      mstore\n      0x20\n      add\n      swap1\n      dup2\n      mstore\n      0x20\n      add\n      0x00\n      keccak256\n        /* \"CommitReveal.sol\":347:372  commits[msg.sender].block */\n      0x01\n      add\n      0x00\n        /* \"CommitReveal.sol\":347:395  commits[msg.sender].block = uint64(block.number) */\n      0x0100\n      exp\n      dup2\n      sload\n      dup2\n      0xffffffffffffffff\n      mul\n      not\n      and\n      swap1\n      dup4\n      0xffffffffffffffff\n      and\n      mul\n      or\n      swap1\n      sstore\n      pop\n        /* \"CommitReveal.sol\":432:437  false */\n      0x00\n        /* \"CommitReveal.sol\":401:408  commits */\n      0x01\n        /* \"CommitReveal.sol\":401:420  commits[msg.sender] */\n      0x00\n        /* \"CommitReveal.sol\":409:419  msg.sender */\n      caller\n        /* \"CommitReveal.sol\":401:420  commits[msg.sender] */\n      0xffffffffffffffffffffffffffffffffffffffff\n      and\n      0xffffffffffffffffffffffffffffffffffffffff\n      and\n      dup2\n      mstore\n      0x20\n      add\n      swap1\n      dup2\n      mstore\n      0x20\n      add\n      0x00\n      keccak256\n        /* \"CommitReveal.sol\":401:429  commits[msg.sender].revealed */\n      0x01\n      add\n      0x08\n        /* \"CommitReveal.sol\":401:437  commits[msg.sender].revealed = false */\n      0x0100\n      exp\n      dup2\n      sload\n      dup2\n      0xff\n      mul\n      not\n      and\n      swap1\n      dup4\n      iszero\n      iszero\n      mul\n      or\n      swap1\n      sstore\n      pop\n        /* \"CommitReveal.sol\":448:523  CommitHash(msg.sender,commits[msg.sender].commit,commits[msg.sender].block) */\n      0x3c1a1f8f38335b17f751c6da4ba7d1865f26b3997535176f5080de9fad891603\n        /* \"CommitReveal.sol\":459:469  msg.sender */\n      caller\n        /* \"CommitReveal.sol\":470:477  commits */\n      0x01\n        /* \"CommitReveal.sol\":470:489  commits[msg.sender] */\n      0x00\n        /* \"CommitReveal.sol\":478:488  msg.sender */\n      caller\n        /* \"CommitReveal.sol\":470:489  commits[msg.sender] */\n      0xffffffffffffffffffffffffffffffffffffffff\n      and\n      0xffffffffffffffffffffffffffffffffffffffff\n      and\n      dup2\n      mstore\n      0x20\n      add\n      swap1\n      dup2\n      mstore\n      0x20\n      add\n      0x00\n      keccak256\n        /* \"CommitReveal.sol\":470:496  commits[msg.sender].commit */\n      0x00\n      add\n      sload\n        /* \"CommitReveal.sol\":497:504  commits */\n      0x01\n        /* \"CommitReveal.sol\":497:516  commits[msg.sender] */\n      0x00\n        /* \"CommitReveal.sol\":505:515  msg.sender */\n      caller\n        /* \"CommitReveal.sol\":497:516  commits[msg.sender] */\n      0xffffffffffffffffffffffffffffffffffffffff\n      and\n      0xffffffffffffffffffffffffffffffffffffffff\n      and\n      dup2\n      mstore\n      0x20\n      add\n      swap1\n      dup2\n      mstore\n      0x20\n      add\n      0x00\n      keccak256\n        /* \"CommitReveal.sol\":497:522  commits[msg.sender].block */\n      0x01\n      add\n      0x00\n      swap1\n      sload\n      swap1\n      0x0100\n      exp\n      swap1\n      div\n      0xffffffffffffffff\n      and\n        /* \"CommitReveal.sol\":448:523  CommitHash(msg.sender,commits[msg.sender].commit,commits[msg.sender].block) */\n      mload(0x40)\n      tag_216\n      swap4\n      swap3\n      swap2\n      swap1\n      tag_217\n      jump\t// in\n    tag_216:\n      mload(0x40)\n      dup1\n      swap2\n      sub\n      swap1\n      log1\n        /* \"CommitReveal.sol\":255:528  function commit(bytes32 dataHash) internal {... */\n      pop\n      jump\t// out\n        /* \"#utility.yul\":7:82   */\n    tag_218:\n        /* \"#utility.yul\":40:46   */\n      0x00\n        /* \"#utility.yul\":73:75   */\n      0x40\n        /* \"#utility.yul\":67:76   */\n      mload\n        /* \"#utility.yul\":57:76   */\n      swap1\n      pop\n        /* \"#utility.yul\":7:82   */\n      swap1\n      jump\t// out\n        /* \"#utility.yul\":88:205   */\n    tag_219:\n        /* \"#utility.yul\":197:198   */\n      0x00\n        /* \"#utility.yul\":194:195   */\n      dup1\n        /* \"#utility.yul\":187:199   */\n      revert\n        /* \"#utility.yul\":211:328   */\n    tag_220:\n        /* \"#utility.yul\":320:321   */\n      0x00\n        /* \"#utility.yul\":317:318   */\n      dup1\n        /* \"#utility.yul\":310:322   */\n      revert\n        /* \"#utility.yul\":334:411   */\n    tag_221:\n        /* \"#utility.yul\":371:378   */\n      0x00\n        /* \"#utility.yul\":400:405   */\n      dup2\n        /* \"#utility.yul\":389:405   */\n      swap1\n      pop\n        /* \"#utility.yul\":334:411   */\n      swap2\n      swap1\n      pop\n      jump\t// out\n        /* \"#utility.yul\":417:539   */\n    tag_222:\n        /* \"#utility.yul\":490:514   */\n      tag_277\n        /* \"#utility.yul\":508:513   */\n      dup2\n        /* \"#utility.yul\":490:514   */\n      tag_221\n      jump\t// in\n    tag_277:\n        /* \"#utility.yul\":483:488   */\n      dup2\n        /* \"#utility.yul\":480:515   */\n      eq\n        /* \"#utility.yul\":470:533   */\n      tag_278\n      jumpi\n        /* \"#utility.yul\":529:530   */\n      0x00\n        /* \"#utility.yul\":526:527   */\n      dup1\n        /* \"#utility.yul\":519:531   */\n      revert\n        /* \"#utility.yul\":470:533   */\n    tag_278:\n        /* \"#utility.yul\":417:539   */\n      pop\n      jump\t// out\n        /* \"#utility.yul\":545:684   */\n    tag_223:\n        /* \"#utility.yul\":591:596   */\n      0x00\n        /* \"#utility.yul\":629:635   */\n      dup2\n        /* \"#utility.yul\":616:636   */\n      calldataload\n        /* \"#utility.yul\":607:636   */\n      swap1\n      pop\n        /* \"#utility.yul\":645:678   */\n      tag_280\n        /* \"#utility.yul\":672:677   */\n      dup2\n        /* \"#utility.yul\":645:678   */\n      tag_222\n      jump\t// in\n    tag_280:\n        /* \"#utility.yul\":545:684   */\n      swap3\n      swap2\n      pop\n      pop\n      jump\t// out\n        /* \"#utility.yul\":690:807   */\n    tag_224:\n        /* \"#utility.yul\":799:800   */\n      0x00\n        /* \"#utility.yul\":796:797   */\n      dup1\n        /* \"#utility.yul\":789:801   */\n      revert\n        /* \"#utility.yul\":813:930   */\n    tag_225:\n        /* \"#utility.yul\":922:923   */\n      0x00\n        /* \"#utility.yul\":919:920   */\n      dup1\n        /* \"#utility.yul\":912:924   */\n      revert\n        /* \"#utility.yul\":936:1038   */\n    tag_226:\n        /* \"#utility.yul\":977:983   */\n      0x00\n        /* \"#utility.yul\":1028:1030   */\n      0x1f\n        /* \"#utility.yul\":1024:1031   */\n      not\n        /* \"#utility.yul\":1019:1021   */\n      0x1f\n        /* \"#utility.yul\":1012:1017   */\n      dup4\n        /* \"#utility.yul\":1008:1022   */\n      add\n        /* \"#utility.yul\":1004:1032   */\n      and\n        /* \"#utility.yul\":994:1032   */\n      swap1\n      pop\n        /* \"#utility.yul\":936:1038   */\n      swap2\n      swap1\n      pop\n      jump\t// out\n        /* \"#utility.yul\":1044:1224   */\n    tag_227:\n        /* \"#utility.yul\":1092:1169   */\n      0x4e487b7100000000000000000000000000000000000000000000000000000000\n        /* \"#utility.yul\":1089:1090   */\n      0x00\n        /* \"#utility.yul\":1082:1170   */\n      mstore\n        /* \"#utility.yul\":1189:1193   */\n      0x41\n        /* \"#utility.yul\":1186:1187   */\n      0x04\n        /* \"#utility.yul\":1179:1194   */\n      mstore\n        /* \"#utility.yul\":1213:1217   */\n      0x24\n        /* \"#utility.yul\":1210:1211   */\n      0x00\n        /* \"#utility.yul\":1203:1218   */\n      revert\n        /* \"#utility.yul\":1230:1511   */\n    tag_228:\n        /* \"#utility.yul\":1313:1340   */\n      tag_286\n        /* \"#utility.yul\":1335:1339   */\n      dup3\n        /* \"#utility.yul\":1313:1340   */\n      tag_226\n      jump\t// in\n    tag_286:\n        /* \"#utility.yul\":1305:1311   */\n      dup2\n        /* \"#utility.yul\":1301:1341   */\n      add\n        /* \"#utility.yul\":1443:1449   */\n      dup2\n        /* \"#utility.yul\":1431:1441   */\n      dup2\n        /* \"#utility.yul\":1428:1450   */\n      lt\n        /* \"#utility.yul\":1407:1425   */\n      0xffffffffffffffff\n        /* \"#utility.yul\":1395:1405   */\n      dup3\n        /* \"#utility.yul\":1392:1426   */\n      gt\n        /* \"#utility.yul\":1389:1451   */\n      or\n        /* \"#utility.yul\":1386:1474   */\n      iszero\n      tag_287\n      jumpi\n        /* \"#utility.yul\":1454:1472   */\n      tag_288\n      tag_227\n      jump\t// in\n    tag_288:\n        /* \"#utility.yul\":1386:1474   */\n    tag_287:\n        /* \"#utility.yul\":1494:1504   */\n      dup1\n        /* \"#utility.yul\":1490:1492   */\n      0x40\n        /* \"#utility.yul\":1483:1505   */\n      mstore\n        /* \"#utility.yul\":1273:1511   */\n      pop\n        /* \"#utility.yul\":1230:1511   */\n      pop\n      pop\n      jump\t// out\n        /* \"#utility.yul\":1517:1646   */\n    tag_229:\n        /* \"#utility.yul\":1551:1557   */\n      0x00\n        /* \"#utility.yul\":1578:1598   */\n      tag_290\n      tag_218\n      jump\t// in\n    tag_290:\n        /* \"#utility.yul\":1568:1598   */\n      swap1\n      pop\n        /* \"#utility.yul\":1607:1640   */\n      tag_291\n        /* \"#utility.yul\":1635:1639   */\n      dup3\n        /* \"#utility.yul\":1627:1633   */\n      dup3\n        /* \"#utility.yul\":1607:1640   */\n      tag_228\n      jump\t// in\n    tag_291:\n        /* \"#utility.yul\":1517:1646   */\n      swap2\n      swap1\n      pop\n      jump\t// out\n        /* \"#utility.yul\":1652:1960   */\n    tag_230:\n        /* \"#utility.yul\":1714:1718   */\n      0x00\n        /* \"#utility.yul\":1804:1822   */\n      0xffffffffffffffff\n        /* \"#utility.yul\":1796:1802   */\n      dup3\n        /* \"#utility.yul\":1793:1823   */\n      gt\n        /* \"#utility.yul\":1790:1846   */\n      iszero\n      tag_293\n      jumpi\n        /* \"#utility.yul\":1826:1844   */\n      tag_294\n      tag_227\n      jump\t// in\n    tag_294:\n        /* \"#utility.yul\":1790:1846   */\n    tag_293:\n        /* \"#utility.yul\":1864:1893   */\n      tag_295\n        /* \"#utility.yul\":1886:1892   */\n      dup3\n        /* \"#utility.yul\":1864:1893   */\n      tag_226\n      jump\t// in\n    tag_295:\n        /* \"#utility.yul\":1856:1893   */\n      swap1\n      pop\n        /* \"#utility.yul\":1948:1952   */\n      0x20\n        /* \"#utility.yul\":1942:1946   */\n      dup2\n        /* \"#utility.yul\":1938:1953   */\n      add\n        /* \"#utility.yul\":1930:1953   */\n      swap1\n      pop\n        /* \"#utility.yul\":1652:1960   */\n      swap2\n      swap1\n      pop\n      jump\t// out\n        /* \"#utility.yul\":1966:2112   */\n    tag_231:\n        /* \"#utility.yul\":2063:2069   */\n      dup3\n        /* \"#utility.yul\":2058:2061   */\n      dup2\n        /* \"#utility.yul\":2053:2056   */\n      dup4\n        /* \"#utility.yul\":2040:2070   */\n      calldatacopy\n        /* \"#utility.yul\":2104:2105   */\n      0x00\n        /* \"#utility.yul\":2095:2101   */\n      dup4\n        /* \"#utility.yul\":2090:2093   */\n      dup4\n        /* \"#utility.yul\":2086:2102   */\n      add\n        /* \"#utility.yul\":2079:2106   */\n      mstore\n        /* \"#utility.yul\":1966:2112   */\n      pop\n      pop\n      pop\n      jump\t// out\n        /* \"#utility.yul\":2118:2543   */\n    tag_232:\n        /* \"#utility.yul\":2196:2201   */\n      0x00\n        /* \"#utility.yul\":2221:2287   */\n      tag_298\n        /* \"#utility.yul\":2237:2286   */\n      tag_299\n        /* \"#utility.yul\":2279:2285   */\n      dup5\n        /* \"#utility.yul\":2237:2286   */\n      tag_230\n      jump\t// in\n    tag_299:\n        /* \"#utility.yul\":2221:2287   */\n      tag_229\n      jump\t// in\n    tag_298:\n        /* \"#utility.yul\":2212:2287   */\n      swap1\n      pop\n        /* \"#utility.yul\":2310:2316   */\n      dup3\n        /* \"#utility.yul\":2303:2308   */\n      dup2\n        /* \"#utility.yul\":2296:2317   */\n      mstore\n        /* \"#utility.yul\":2348:2352   */\n      0x20\n        /* \"#utility.yul\":2341:2346   */\n      dup2\n        /* \"#utility.yul\":2337:2353   */\n      add\n        /* \"#utility.yul\":2386:2389   */\n      dup5\n        /* \"#utility.yul\":2377:2383   */\n      dup5\n        /* \"#utility.yul\":2372:2375   */\n      dup5\n        /* \"#utility.yul\":2368:2384   */\n      add\n        /* \"#utility.yul\":2365:2390   */\n      gt\n        /* \"#utility.yul\":2362:2474   */\n      iszero\n      tag_300\n      jumpi\n        /* \"#utility.yul\":2393:2472   */\n      tag_301\n      tag_225\n      jump\t// in\n    tag_301:\n        /* \"#utility.yul\":2362:2474   */\n    tag_300:\n        /* \"#utility.yul\":2483:2537   */\n      tag_302\n        /* \"#utility.yul\":2530:2536   */\n      dup5\n        /* \"#utility.yul\":2525:2528   */\n      dup3\n        /* \"#utility.yul\":2520:2523   */\n      dup6\n        /* \"#utility.yul\":2483:2537   */\n      tag_231\n      jump\t// in\n    tag_302:\n        /* \"#utility.yul\":2202:2543   */\n      pop\n        /* \"#utility.yul\":2118:2543   */\n      swap4\n      swap3\n      pop\n      pop\n      pop\n      jump\t// out\n        /* \"#utility.yul\":2563:2903   */\n    tag_233:\n        /* \"#utility.yul\":2619:2624   */\n      0x00\n        /* \"#utility.yul\":2668:2671   */\n      dup3\n        /* \"#utility.yul\":2661:2665   */\n      0x1f\n        /* \"#utility.yul\":2653:2659   */\n      dup4\n        /* \"#utility.yul\":2649:2666   */\n      add\n        /* \"#utility.yul\":2645:2672   */\n      slt\n        /* \"#utility.yul\":2635:2757   */\n      tag_304\n      jumpi\n        /* \"#utility.yul\":2676:2755   */\n      tag_305\n      tag_224\n      jump\t// in\n    tag_305:\n        /* \"#utility.yul\":2635:2757   */\n    tag_304:\n        /* \"#utility.yul\":2793:2799   */\n      dup2\n        /* \"#utility.yul\":2780:2800   */\n      calldataload\n        /* \"#utility.yul\":2818:2897   */\n      tag_306\n        /* \"#utility.yul\":2893:2896   */\n      dup5\n        /* \"#utility.yul\":2885:2891   */\n      dup3\n        /* \"#utility.yul\":2878:2882   */\n      0x20\n        /* \"#utility.yul\":2870:2876   */\n      dup7\n        /* \"#utility.yul\":2866:2883   */\n      add\n        /* \"#utility.yul\":2818:2897   */\n      tag_232\n      jump\t// in\n    tag_306:\n        /* \"#utility.yul\":2809:2897   */\n      swap2\n      pop\n        /* \"#utility.yul\":2625:2903   */\n      pop\n        /* \"#utility.yul\":2563:2903   */\n      swap3\n      swap2\n      pop\n      pop\n      jump\t// out\n        /* \"#utility.yul\":2909:3563   */\n    tag_22:\n        /* \"#utility.yul\":2987:2993   */\n      0x00\n        /* \"#utility.yul\":2995:3001   */\n      dup1\n        /* \"#utility.yul\":3044:3046   */\n      0x40\n        /* \"#utility.yul\":3032:3041   */\n      dup4\n        /* \"#utility.yul\":3023:3030   */\n      dup6\n        /* \"#utility.yul\":3019:3042   */\n      sub\n        /* \"#utility.yul\":3015:3047   */\n      slt\n        /* \"#utility.yul\":3012:3131   */\n      iszero\n      tag_308\n      jumpi\n        /* \"#utility.yul\":3050:3129   */\n      tag_309\n      tag_219\n      jump\t// in\n    tag_309:\n        /* \"#utility.yul\":3012:3131   */\n    tag_308:\n        /* \"#utility.yul\":3170:3171   */\n      0x00\n        /* \"#utility.yul\":3195:3248   */\n      tag_310\n        /* \"#utility.yul\":3240:3247   */\n      dup6\n        /* \"#utility.yul\":3231:3237   */\n      dup3\n        /* \"#utility.yul\":3220:3229   */\n      dup7\n        /* \"#utility.yul\":3216:3238   */\n      add\n        /* \"#utility.yul\":3195:3248   */\n      tag_223\n      jump\t// in\n    tag_310:\n        /* \"#utility.yul\":3185:3248   */\n      swap3\n      pop\n        /* \"#utility.yul\":3141:3258   */\n      pop\n        /* \"#utility.yul\":3325:3327   */\n      0x20\n        /* \"#utility.yul\":3314:3323   */\n      dup4\n        /* \"#utility.yul\":3310:3328   */\n      add\n        /* \"#utility.yul\":3297:3329   */\n      calldataload\n        /* \"#utility.yul\":3356:3374   */\n      0xffffffffffffffff\n        /* \"#utility.yul\":3348:3354   */\n      dup2\n        /* \"#utility.yul\":3345:3375   */\n      gt\n        /* \"#utility.yul\":3342:3459   */\n      iszero\n      tag_311\n      jumpi\n        /* \"#utility.yul\":3378:3457   */\n      tag_312\n      tag_220\n      jump\t// in\n    tag_312:\n        /* \"#utility.yul\":3342:3459   */\n    tag_311:\n        /* \"#utility.yul\":3483:3546   */\n      tag_313\n        /* \"#utility.yul\":3538:3545   */\n      dup6\n        /* \"#utility.yul\":3529:3535   */\n      dup3\n        /* \"#utility.yul\":3518:3527   */\n      dup7\n        /* \"#utility.yul\":3514:3536   */\n      add\n        /* \"#utility.yul\":3483:3546   */\n      tag_233\n      jump\t// in\n    tag_313:\n        /* \"#utility.yul\":3473:3546   */\n      swap2\n      pop\n        /* \"#utility.yul\":3268:3556   */\n      pop\n        /* \"#utility.yul\":2909:3563   */\n      swap3\n      pop\n      swap3\n      swap1\n      pop\n      jump\t// out\n        /* \"#utility.yul\":3569:3646   */\n    tag_234:\n        /* \"#utility.yul\":3606:3613   */\n      0x00\n        /* \"#utility.yul\":3635:3640   */\n      dup2\n        /* \"#utility.yul\":3624:3640   */\n      swap1\n      pop\n        /* \"#utility.yul\":3569:3646   */\n      swap2\n      swap1\n      pop\n      jump\t// out\n        /* \"#utility.yul\":3652:3770   */\n    tag_235:\n        /* \"#utility.yul\":3739:3763   */\n      tag_316\n        /* \"#utility.yul\":3757:3762   */\n      dup2\n        /* \"#utility.yul\":3739:3763   */\n      tag_234\n      jump\t// in\n    tag_316:\n        /* \"#utility.yul\":3734:3737   */\n      dup3\n        /* \"#utility.yul\":3727:3764   */\n      mstore\n        /* \"#utility.yul\":3652:3770   */\n      pop\n      pop\n      jump\t// out\n        /* \"#utility.yul\":3776:3998   */\n    tag_25:\n        /* \"#utility.yul\":3869:3873   */\n      0x00\n        /* \"#utility.yul\":3907:3909   */\n      0x20\n        /* \"#utility.yul\":3896:3905   */\n      dup3\n        /* \"#utility.yul\":3892:3910   */\n      add\n        /* \"#utility.yul\":3884:3910   */\n      swap1\n      pop\n        /* \"#utility.yul\":3920:3991   */\n      tag_318\n        /* \"#utility.yul\":3988:3989   */\n      0x00\n        /* \"#utility.yul\":3977:3986   */\n      dup4\n        /* \"#utility.yul\":3973:3990   */\n      add\n        /* \"#utility.yul\":3964:3970   */\n      dup5\n        /* \"#utility.yul\":3920:3991   */\n      tag_235\n      jump\t// in\n    tag_318:\n        /* \"#utility.yul\":3776:3998   */\n      swap3\n      swap2\n      pop\n      pop\n      jump\t// out\n        /* \"#utility.yul\":4004:4122   */\n    tag_236:\n        /* \"#utility.yul\":4091:4115   */\n      tag_320\n        /* \"#utility.yul\":4109:4114   */\n      dup2\n        /* \"#utility.yul\":4091:4115   */\n      tag_221\n      jump\t// in\n    tag_320:\n        /* \"#utility.yul\":4086:4089   */\n      dup3\n        /* \"#utility.yul\":4079:4116   */\n      mstore\n        /* \"#utility.yul\":4004:4122   */\n      pop\n      pop\n      jump\t// out\n        /* \"#utility.yul\":4128:4350   */\n    tag_30:\n        /* \"#utility.yul\":4221:4225   */\n      0x00\n        /* \"#utility.yul\":4259:4261   */\n      0x20\n        /* \"#utility.yul\":4248:4257   */\n      dup3\n        /* \"#utility.yul\":4244:4262   */\n      add\n        /* \"#utility.yul\":4236:4262   */\n      swap1\n      pop\n        /* \"#utility.yul\":4272:4343   */\n      tag_322\n        /* \"#utility.yul\":4340:4341   */\n      0x00\n        /* \"#utility.yul\":4329:4338   */\n      dup4\n        /* \"#utility.yul\":4325:4342   */\n      add\n        /* \"#utility.yul\":4316:4322   */\n      dup5\n        /* \"#utility.yul\":4272:4343   */\n      tag_236\n      jump\t// in\n    tag_322:\n        /* \"#utility.yul\":4128:4350   */\n      swap3\n      swap2\n      pop\n      pop\n      jump\t// out\n        /* \"#utility.yul\":4356:5155   */\n    tag_34:\n        /* \"#utility.yul\":4443:4449   */\n      0x00\n        /* \"#utility.yul\":4451:4457   */\n      dup1\n        /* \"#utility.yul\":4459:4465   */\n      0x00\n        /* \"#utility.yul\":4508:4510   */\n      0x60\n        /* \"#utility.yul\":4496:4505   */\n      dup5\n        /* \"#utility.yul\":4487:4494   */\n      dup7\n        /* \"#utility.yul\":4483:4506   */\n      sub\n        /* \"#utility.yul\":4479:4511   */\n      slt\n        /* \"#utility.yul\":4476:4595   */\n      iszero\n      tag_324\n      jumpi\n        /* \"#utility.yul\":4514:4593   */\n      tag_325\n      tag_219\n      jump\t// in\n    tag_325:\n        /* \"#utility.yul\":4476:4595   */\n    tag_324:\n        /* \"#utility.yul\":4634:4635   */\n      0x00\n        /* \"#utility.yul\":4659:4712   */\n      tag_326\n        /* \"#utility.yul\":4704:4711   */\n      dup7\n        /* \"#utility.yul\":4695:4701   */\n      dup3\n        /* \"#utility.yul\":4684:4693   */\n      dup8\n        /* \"#utility.yul\":4680:4702   */\n      add\n        /* \"#utility.yul\":4659:4712   */\n      tag_223\n      jump\t// in\n    tag_326:\n        /* \"#utility.yul\":4649:4712   */\n      swap4\n      pop\n        /* \"#utility.yul\":4605:4722   */\n      pop\n        /* \"#utility.yul\":4789:4791   */\n      0x20\n        /* \"#utility.yul\":4778:4787   */\n      dup5\n        /* \"#utility.yul\":4774:4792   */\n      add\n        /* \"#utility.yul\":4761:4793   */\n      calldataload\n        /* \"#utility.yul\":4820:4838   */\n      0xffffffffffffffff\n        /* \"#utility.yul\":4812:4818   */\n      dup2\n        /* \"#utility.yul\":4809:4839   */\n      gt\n        /* \"#utility.yul\":4806:4923   */\n      iszero\n      tag_327\n      jumpi\n        /* \"#utility.yul\":4842:4921   */\n      tag_328\n      tag_220\n      jump\t// in\n    tag_328:\n        /* \"#utility.yul\":4806:4923   */\n    tag_327:\n        /* \"#utility.yul\":4947:5010   */\n      tag_329\n        /* \"#utility.yul\":5002:5009   */\n      dup7\n        /* \"#utility.yul\":4993:4999   */\n      dup3\n        /* \"#utility.yul\":4982:4991   */\n      dup8\n        /* \"#utility.yul\":4978:5000   */\n      add\n        /* \"#utility.yul\":4947:5010   */\n      tag_233\n      jump\t// in\n    tag_329:\n        /* \"#utility.yul\":4937:5010   */\n      swap3\n      pop\n        /* \"#utility.yul\":4732:5020   */\n      pop\n        /* \"#utility.yul\":5059:5061   */\n      0x40\n        /* \"#utility.yul\":5085:5138   */\n      tag_330\n        /* \"#utility.yul\":5130:5137   */\n      dup7\n        /* \"#utility.yul\":5121:5127   */\n      dup3\n        /* \"#utility.yul\":5110:5119   */\n      dup8\n        /* \"#utility.yul\":5106:5128   */\n      add\n        /* \"#utility.yul\":5085:5138   */\n      tag_223\n      jump\t// in\n    tag_330:\n        /* \"#utility.yul\":5075:5138   */\n      swap2\n      pop\n        /* \"#utility.yul\":5030:5148   */\n      pop\n        /* \"#utility.yul\":4356:5155   */\n      swap3\n      pop\n      swap3\n      pop\n      swap3\n      jump\t// out\n        /* \"#utility.yul\":5161:5283   */\n    tag_237:\n        /* \"#utility.yul\":5234:5258   */\n      tag_332\n        /* \"#utility.yul\":5252:5257   */\n      dup2\n        /* \"#utility.yul\":5234:5258   */\n      tag_234\n      jump\t// in\n    tag_332:\n        /* \"#utility.yul\":5227:5232   */\n      dup2\n        /* \"#utility.yul\":5224:5259   */\n      eq\n        /* \"#utility.yul\":5214:5277   */\n      tag_333\n      jumpi\n        /* \"#utility.yul\":5273:5274   */\n      0x00\n        /* \"#utility.yul\":5270:5271   */\n      dup1\n        /* \"#utility.yul\":5263:5275   */\n      revert\n        /* \"#utility.yul\":5214:5277   */\n    tag_333:\n        /* \"#utility.yul\":5161:5283   */\n      pop\n      jump\t// out\n        /* \"#utility.yul\":5289:5428   */\n    tag_238:\n        /* \"#utility.yul\":5335:5340   */\n      0x00\n        /* \"#utility.yul\":5373:5379   */\n      dup2\n        /* \"#utility.yul\":5360:5380   */\n      calldataload\n        /* \"#utility.yul\":5351:5380   */\n      swap1\n      pop\n        /* \"#utility.yul\":5389:5422   */\n      tag_335\n        /* \"#utility.yul\":5416:5421   */\n      dup2\n        /* \"#utility.yul\":5389:5422   */\n      tag_237\n      jump\t// in\n    tag_335:\n        /* \"#utility.yul\":5289:5428   */\n      swap3\n      swap2\n      pop\n      pop\n      jump\t// out\n        /* \"#utility.yul\":5434:5763   */\n    tag_49:\n        /* \"#utility.yul\":5493:5499   */\n      0x00\n        /* \"#utility.yul\":5542:5544   */\n      0x20\n        /* \"#utility.yul\":5530:5539   */\n      dup3\n        /* \"#utility.yul\":5521:5528   */\n      dup5\n        /* \"#utility.yul\":5517:5540   */\n      sub\n        /* \"#utility.yul\":5513:5545   */\n      slt\n        /* \"#utility.yul\":5510:5629   */\n      iszero\n      tag_337\n      jumpi\n        /* \"#utility.yul\":5548:5627   */\n      tag_338\n      tag_219\n      jump\t// in\n    tag_338:\n        /* \"#utility.yul\":5510:5629   */\n    tag_337:\n        /* \"#utility.yul\":5668:5669   */\n      0x00\n        /* \"#utility.yul\":5693:5746   */\n      tag_339\n        /* \"#utility.yul\":5738:5745   */\n      dup5\n        /* \"#utility.yul\":5729:5735   */\n      dup3\n        /* \"#utility.yul\":5718:5727   */\n      dup6\n        /* \"#utility.yul\":5714:5736   */\n      add\n        /* \"#utility.yul\":5693:5746   */\n      tag_238\n      jump\t// in\n    tag_339:\n        /* \"#utility.yul\":5683:5746   */\n      swap2\n      pop\n        /* \"#utility.yul\":5639:5756   */\n      pop\n        /* \"#utility.yul\":5434:5763   */\n      swap3\n      swap2\n      pop\n      pop\n      jump\t// out\n        /* \"#utility.yul\":5769:6243   */\n    tag_58:\n        /* \"#utility.yul\":5837:5843   */\n      0x00\n        /* \"#utility.yul\":5845:5851   */\n      dup1\n        /* \"#utility.yul\":5894:5896   */\n      0x40\n        /* \"#utility.yul\":5882:5891   */\n      dup4\n        /* \"#utility.yul\":5873:5880   */\n      dup6\n        /* \"#utility.yul\":5869:5892   */\n      sub\n        /* \"#utility.yul\":5865:5897   */\n      slt\n        /* \"#utility.yul\":5862:5981   */\n      iszero\n      tag_341\n      jumpi\n        /* \"#utility.yul\":5900:5979   */\n      tag_342\n      tag_219\n      jump\t// in\n    tag_342:\n        /* \"#utility.yul\":5862:5981   */\n    tag_341:\n        /* \"#utility.yul\":6020:6021   */\n      0x00\n        /* \"#utility.yul\":6045:6098   */\n      tag_343\n        /* \"#utility.yul\":6090:6097   */\n      dup6\n        /* \"#utility.yul\":6081:6087   */\n      dup3\n        /* \"#utility.yul\":6070:6079   */\n      dup7\n        /* \"#utility.yul\":6066:6088   */\n      add\n        /* \"#utility.yul\":6045:6098   */\n      tag_238\n      jump\t// in\n    tag_343:\n        /* \"#utility.yul\":6035:6098   */\n      swap3\n      pop\n        /* \"#utility.yul\":5991:6108   */\n      pop\n        /* \"#utility.yul\":6147:6149   */\n      0x20\n        /* \"#utility.yul\":6173:6226   */\n      tag_344\n        /* \"#utility.yul\":6218:6225   */\n      dup6\n        /* \"#utility.yul\":6209:6215   */\n      dup3\n        /* \"#utility.yul\":6198:6207   */\n      dup7\n        /* \"#utility.yul\":6194:6216   */\n      add\n        /* \"#utility.yul\":6173:6226   */\n      tag_223\n      jump\t// in\n    tag_344:\n        /* \"#utility.yul\":6163:6226   */\n      swap2\n      pop\n        /* \"#utility.yul\":6118:6236   */\n      pop\n        /* \"#utility.yul\":5769:6243   */\n      swap3\n      pop\n      swap3\n      swap1\n      pop\n      jump\t// out\n        /* \"#utility.yul\":6249:6723   */\n    tag_67:\n        /* \"#utility.yul\":6317:6323   */\n      0x00\n        /* \"#utility.yul\":6325:6331   */\n      dup1\n        /* \"#utility.yul\":6374:6376   */\n      0x40\n        /* \"#utility.yul\":6362:6371   */\n      dup4\n        /* \"#utility.yul\":6353:6360   */\n      dup6\n        /* \"#utility.yul\":6349:6372   */\n      sub\n        /* \"#utility.yul\":6345:6377   */\n      slt\n        /* \"#utility.yul\":6342:6461   */\n      iszero\n      tag_346\n      jumpi\n        /* \"#utility.yul\":6380:6459   */\n      tag_347\n      tag_219\n      jump\t// in\n    tag_347:\n        /* \"#utility.yul\":6342:6461   */\n    tag_346:\n        /* \"#utility.yul\":6500:6501   */\n      0x00\n        /* \"#utility.yul\":6525:6578   */\n      tag_348\n        /* \"#utility.yul\":6570:6577   */\n      dup6\n        /* \"#utility.yul\":6561:6567   */\n      dup3\n        /* \"#utility.yul\":6550:6559   */\n      dup7\n        /* \"#utility.yul\":6546:6568   */\n      add\n        /* \"#utility.yul\":6525:6578   */\n      tag_238\n      jump\t// in\n    tag_348:\n        /* \"#utility.yul\":6515:6578   */\n      swap3\n      pop\n        /* \"#utility.yul\":6471:6588   */\n      pop\n        /* \"#utility.yul\":6627:6629   */\n      0x20\n        /* \"#utility.yul\":6653:6706   */\n      tag_349\n        /* \"#utility.yul\":6698:6705   */\n      dup6\n        /* \"#utility.yul\":6689:6695   */\n      dup3\n        /* \"#utility.yul\":6678:6687   */\n      dup7\n        /* \"#utility.yul\":6674:6696   */\n      add\n        /* \"#utility.yul\":6653:6706   */\n      tag_238\n      jump\t// in\n    tag_349:\n        /* \"#utility.yul\":6643:6706   */\n      swap2\n      pop\n        /* \"#utility.yul\":6598:6716   */\n      pop\n        /* \"#utility.yul\":6249:6723   */\n      swap3\n      pop\n      swap3\n      swap1\n      pop\n      jump\t// out\n        /* \"#utility.yul\":6729:7058   */\n    tag_77:\n        /* \"#utility.yul\":6788:6794   */\n      0x00\n        /* \"#utility.yul\":6837:6839   */\n      0x20\n        /* \"#utility.yul\":6825:6834   */\n      dup3\n        /* \"#utility.yul\":6816:6823   */\n      dup5\n        /* \"#utility.yul\":6812:6835   */\n      sub\n        /* \"#utility.yul\":6808:6840   */\n      slt\n        /* \"#utility.yul\":6805:6924   */\n      iszero\n      tag_351\n      jumpi\n        /* \"#utility.yul\":6843:6922   */\n      tag_352\n      tag_219\n      jump\t// in\n    tag_352:\n        /* \"#utility.yul\":6805:6924   */\n    tag_351:\n        /* \"#utility.yul\":6963:6964   */\n      0x00\n        /* \"#utility.yul\":6988:7041   */\n      tag_353\n        /* \"#utility.yul\":7033:7040   */\n      dup5\n        /* \"#utility.yul\":7024:7030   */\n      dup3\n        /* \"#utility.yul\":7013:7022   */\n      dup6\n        /* \"#utility.yul\":7009:7031   */\n      add\n        /* \"#utility.yul\":6988:7041   */\n      tag_223\n      jump\t// in\n    tag_353:\n        /* \"#utility.yul\":6978:7041   */\n      swap2\n      pop\n        /* \"#utility.yul\":6934:7051   */\n      pop\n        /* \"#utility.yul\":6729:7058   */\n      swap3\n      swap2\n      pop\n      pop\n      jump\t// out\n        /* \"#utility.yul\":7064:7190   */\n    tag_239:\n        /* \"#utility.yul\":7101:7108   */\n      0x00\n        /* \"#utility.yul\":7141:7183   */\n      0xffffffffffffffffffffffffffffffffffffffff\n        /* \"#utility.yul\":7134:7139   */\n      dup3\n        /* \"#utility.yul\":7130:7184   */\n      and\n        /* \"#utility.yul\":7119:7184   */\n      swap1\n      pop\n        /* \"#utility.yul\":7064:7190   */\n      swap2\n      swap1\n      pop\n      jump\t// out\n        /* \"#utility.yul\":7196:7292   */\n    tag_240:\n        /* \"#utility.yul\":7233:7240   */\n      0x00\n        /* \"#utility.yul\":7262:7286   */\n      tag_356\n        /* \"#utility.yul\":7280:7285   */\n      dup3\n        /* \"#utility.yul\":7262:7286   */\n      tag_239\n      jump\t// in\n    tag_356:\n        /* \"#utility.yul\":7251:7286   */\n      swap1\n      pop\n        /* \"#utility.yul\":7196:7292   */\n      swap2\n      swap1\n      pop\n      jump\t// out\n        /* \"#utility.yul\":7298:7416   */\n    tag_241:\n        /* \"#utility.yul\":7385:7409   */\n      tag_358\n        /* \"#utility.yul\":7403:7408   */\n      dup2\n        /* \"#utility.yul\":7385:7409   */\n      tag_240\n      jump\t// in\n    tag_358:\n        /* \"#utility.yul\":7380:7383   */\n      dup3\n        /* \"#utility.yul\":7373:7410   */\n      mstore\n        /* \"#utility.yul\":7298:7416   */\n      pop\n      pop\n      jump\t// out\n        /* \"#utility.yul\":7422:7754   */\n    tag_80:\n        /* \"#utility.yul\":7543:7547   */\n      0x00\n        /* \"#utility.yul\":7581:7583   */\n      0x40\n        /* \"#utility.yul\":7570:7579   */\n      dup3\n        /* \"#utility.yul\":7566:7584   */\n      add\n        /* \"#utility.yul\":7558:7584   */\n      swap1\n      pop\n        /* \"#utility.yul\":7594:7665   */\n      tag_360\n        /* \"#utility.yul\":7662:7663   */\n      0x00\n        /* \"#utility.yul\":7651:7660   */\n      dup4\n        /* \"#utility.yul\":7647:7664   */\n      add\n        /* \"#utility.yul\":7638:7644   */\n      dup6\n        /* \"#utility.yul\":7594:7665   */\n      tag_236\n      jump\t// in\n    tag_360:\n        /* \"#utility.yul\":7675:7747   */\n      tag_361\n        /* \"#utility.yul\":7743:7745   */\n      0x20\n        /* \"#utility.yul\":7732:7741   */\n      dup4\n        /* \"#utility.yul\":7728:7746   */\n      add\n        /* \"#utility.yul\":7719:7725   */\n      dup5\n        /* \"#utility.yul\":7675:7747   */\n      tag_241\n      jump\t// in\n    tag_361:\n        /* \"#utility.yul\":7422:7754   */\n      swap4\n      swap3\n      pop\n      pop\n      pop\n      jump\t// out\n        /* \"#utility.yul\":7760:7859   */\n    tag_242:\n        /* \"#utility.yul\":7812:7818   */\n      0x00\n        /* \"#utility.yul\":7846:7851   */\n      dup2\n        /* \"#utility.yul\":7840:7852   */\n      mload\n        /* \"#utility.yul\":7830:7852   */\n      swap1\n      pop\n        /* \"#utility.yul\":7760:7859   */\n      swap2\n      swap1\n      pop\n      jump\t// out\n        /* \"#utility.yul\":7865:8013   */\n    tag_243:\n        /* \"#utility.yul\":7967:7978   */\n      0x00\n        /* \"#utility.yul\":8004:8007   */\n      dup2\n        /* \"#utility.yul\":7989:8007   */\n      swap1\n      pop\n        /* \"#utility.yul\":7865:8013   */\n      swap3\n      swap2\n      pop\n      pop\n      jump\t// out\n        /* \"#utility.yul\":8019:8265   */\n    tag_244:\n        /* \"#utility.yul\":8100:8101   */\n      0x00\n        /* \"#utility.yul\":8110:8223   */\n    tag_365:\n        /* \"#utility.yul\":8124:8130   */\n      dup4\n        /* \"#utility.yul\":8121:8122   */\n      dup2\n        /* \"#utility.yul\":8118:8131   */\n      lt\n        /* \"#utility.yul\":8110:8223   */\n      iszero\n      tag_367\n      jumpi\n        /* \"#utility.yul\":8209:8210   */\n      dup1\n        /* \"#utility.yul\":8204:8207   */\n      dup3\n        /* \"#utility.yul\":8200:8211   */\n      add\n        /* \"#utility.yul\":8194:8212   */\n      mload\n        /* \"#utility.yul\":8190:8191   */\n      dup2\n        /* \"#utility.yul\":8185:8188   */\n      dup5\n        /* \"#utility.yul\":8181:8192   */\n      add\n        /* \"#utility.yul\":8174:8213   */\n      mstore\n        /* \"#utility.yul\":8146:8148   */\n      0x20\n        /* \"#utility.yul\":8143:8144   */\n      dup2\n        /* \"#utility.yul\":8139:8149   */\n      add\n        /* \"#utility.yul\":8134:8149   */\n      swap1\n      pop\n        /* \"#utility.yul\":8110:8223   */\n      jump(tag_365)\n    tag_367:\n        /* \"#utility.yul\":8257:8258   */\n      0x00\n        /* \"#utility.yul\":8248:8254   */\n      dup5\n        /* \"#utility.yul\":8243:8246   */\n      dup5\n        /* \"#utility.yul\":8239:8255   */\n      add\n        /* \"#utility.yul\":8232:8259   */\n      mstore\n        /* \"#utility.yul\":8081:8265   */\n      pop\n        /* \"#utility.yul\":8019:8265   */\n      pop\n      pop\n      pop\n      jump\t// out\n        /* \"#utility.yul\":8271:8661   */\n    tag_245:\n        /* \"#utility.yul\":8377:8380   */\n      0x00\n        /* \"#utility.yul\":8405:8444   */\n      tag_369\n        /* \"#utility.yul\":8438:8443   */\n      dup3\n        /* \"#utility.yul\":8405:8444   */\n      tag_242\n      jump\t// in\n    tag_369:\n        /* \"#utility.yul\":8460:8549   */\n      tag_370\n        /* \"#utility.yul\":8542:8548   */\n      dup2\n        /* \"#utility.yul\":8537:8540   */\n      dup6\n        /* \"#utility.yul\":8460:8549   */\n      tag_243\n      jump\t// in\n    tag_370:\n        /* \"#utility.yul\":8453:8549   */\n      swap4\n      pop\n        /* \"#utility.yul\":8558:8623   */\n      tag_371\n        /* \"#utility.yul\":8616:8622   */\n      dup2\n        /* \"#utility.yul\":8611:8614   */\n      dup6\n        /* \"#utility.yul\":8604:8608   */\n      0x20\n        /* \"#utility.yul\":8597:8602   */\n      dup7\n        /* \"#utility.yul\":8593:8609   */\n      add\n        /* \"#utility.yul\":8558:8623   */\n      tag_244\n      jump\t// in\n    tag_371:\n        /* \"#utility.yul\":8648:8654   */\n      dup1\n        /* \"#utility.yul\":8643:8646   */\n      dup5\n        /* \"#utility.yul\":8639:8655   */\n      add\n        /* \"#utility.yul\":8632:8655   */\n      swap2\n      pop\n        /* \"#utility.yul\":8381:8661   */\n      pop\n        /* \"#utility.yul\":8271:8661   */\n      swap3\n      swap2\n      pop\n      pop\n      jump\t// out\n        /* \"#utility.yul\":8667:8942   */\n    tag_87:\n        /* \"#utility.yul\":8799:8802   */\n      0x00\n        /* \"#utility.yul\":8821:8916   */\n      tag_373\n        /* \"#utility.yul\":8912:8915   */\n      dup3\n        /* \"#utility.yul\":8903:8909   */\n      dup5\n        /* \"#utility.yul\":8821:8916   */\n      tag_245\n      jump\t// in\n    tag_373:\n        /* \"#utility.yul\":8814:8916   */\n      swap2\n      pop\n        /* \"#utility.yul\":8933:8936   */\n      dup2\n        /* \"#utility.yul\":8926:8936   */\n      swap1\n      pop\n        /* \"#utility.yul\":8667:8942   */\n      swap3\n      swap2\n      pop\n      pop\n      jump\t// out\n        /* \"#utility.yul\":8948:9046   */\n    tag_246:\n        /* \"#utility.yul\":8999:9005   */\n      0x00\n        /* \"#utility.yul\":9033:9038   */\n      dup2\n        /* \"#utility.yul\":9027:9039   */\n      mload\n        /* \"#utility.yul\":9017:9039   */\n      swap1\n      pop\n        /* \"#utility.yul\":8948:9046   */\n      swap2\n      swap1\n      pop\n      jump\t// out\n        /* \"#utility.yul\":9052:9168   */\n    tag_247:\n        /* \"#utility.yul\":9103:9107   */\n      0x00\n        /* \"#utility.yul\":9126:9129   */\n      dup2\n        /* \"#utility.yul\":9118:9129   */\n      swap1\n      pop\n        /* \"#utility.yul\":9156:9160   */\n      0x20\n        /* \"#utility.yul\":9151:9154   */\n      dup3\n        /* \"#utility.yul\":9147:9161   */\n      add\n        /* \"#utility.yul\":9139:9161   */\n      swap1\n      pop\n        /* \"#utility.yul\":9052:9168   */\n      swap2\n      swap1\n      pop\n      jump\t// out\n        /* \"#utility.yul\":9174:9328   */\n    tag_248:\n        /* \"#utility.yul\":9217:9228   */\n      0x00\n        /* \"#utility.yul\":9253:9282   */\n      tag_377\n        /* \"#utility.yul\":9277:9280   */\n      dup3\n        /* \"#utility.yul\":9271:9281   */\n      mload\n        /* \"#utility.yul\":9253:9282   */\n      tag_234\n      jump\t// in\n    tag_377:\n        /* \"#utility.yul\":9316:9321   */\n      dup1\n        /* \"#utility.yul\":9292:9321   */\n      swap2\n      pop\n        /* \"#utility.yul\":9229:9328   */\n      pop\n        /* \"#utility.yul\":9174:9328   */\n      swap2\n      swap1\n      pop\n      jump\t// out\n        /* \"#utility.yul\":9334:9441   */\n    tag_249:\n        /* \"#utility.yul\":9378:9386   */\n      0x00\n        /* \"#utility.yul\":9428:9433   */\n      dup3\n        /* \"#utility.yul\":9422:9426   */\n      dup3\n        /* \"#utility.yul\":9418:9434   */\n      shl\n        /* \"#utility.yul\":9397:9434   */\n      swap1\n      pop\n        /* \"#utility.yul\":9334:9441   */\n      swap3\n      swap2\n      pop\n      pop\n      jump\t// out\n        /* \"#utility.yul\":9447:10041   */\n    tag_89:\n        /* \"#utility.yul\":9531:9536   */\n      0x00\n        /* \"#utility.yul\":9562:9600   */\n      tag_380\n        /* \"#utility.yul\":9594:9599   */\n      dup3\n        /* \"#utility.yul\":9562:9600   */\n      tag_246\n      jump\t// in\n    tag_380:\n        /* \"#utility.yul\":9625:9630   */\n      dup3\n        /* \"#utility.yul\":9652:9692   */\n      tag_381\n        /* \"#utility.yul\":9686:9691   */\n      dup5\n        /* \"#utility.yul\":9652:9692   */\n      tag_247\n      jump\t// in\n    tag_381:\n        /* \"#utility.yul\":9640:9692   */\n      swap1\n      pop\n        /* \"#utility.yul\":9711:9746   */\n      tag_382\n        /* \"#utility.yul\":9737:9745   */\n      dup2\n        /* \"#utility.yul\":9711:9746   */\n      tag_248\n      jump\t// in\n    tag_382:\n        /* \"#utility.yul\":9702:9746   */\n      swap3\n      pop\n        /* \"#utility.yul\":9770:9772   */\n      0x20\n        /* \"#utility.yul\":9762:9768   */\n      dup3\n        /* \"#utility.yul\":9759:9773   */\n      lt\n        /* \"#utility.yul\":9756:10034   */\n      iszero\n      tag_383\n      jumpi\n        /* \"#utility.yul\":9841:10010   */\n      tag_384\n        /* \"#utility.yul\":9926:9992   */\n      0xffffffffffffffffffffffffffffffffffffffffffffffffffffffffffffffff\n        /* \"#utility.yul\":9896:9902   */\n      dup4\n        /* \"#utility.yul\":9892:9894   */\n      0x20\n        /* \"#utility.yul\":9888:9903   */\n      sub\n        /* \"#utility.yul\":9885:9886   */\n      0x08\n        /* \"#utility.yul\":9881:9904   */\n      mul\n        /* \"#utility.yul\":9841:10010   */\n      tag_249\n      jump\t// in\n    tag_384:\n        /* \"#utility.yul\":9818:9823   */\n      dup4\n        /* \"#utility.yul\":9797:10024   */\n      and\n        /* \"#utility.yul\":9788:10024   */\n      swap3\n      pop\n        /* \"#utility.yul\":9756:10034   */\n    tag_383:\n        /* \"#utility.yul\":9537:10041   */\n      pop\n      pop\n        /* \"#utility.yul\":9447:10041   */\n      swap2\n      swap1\n      pop\n      jump\t// out\n        /* \"#utility.yul\":10047:10126   */\n    tag_250:\n        /* \"#utility.yul\":10086:10093   */\n      0x00\n        /* \"#utility.yul\":10115:10120   */\n      dup2\n        /* \"#utility.yul\":10104:10120   */\n      swap1\n      pop\n        /* \"#utility.yul\":10047:10126   */\n      swap2\n      swap1\n      pop\n      jump\t// out\n        /* \"#utility.yul\":10132:10289   */\n    tag_251:\n        /* \"#utility.yul\":10237:10282   */\n      tag_387\n        /* \"#utility.yul\":10257:10281   */\n      tag_388\n        /* \"#utility.yul\":10275:10280   */\n      dup3\n        /* \"#utility.yul\":10257:10281   */\n      tag_221\n      jump\t// in\n    tag_388:\n        /* \"#utility.yul\":10237:10282   */\n      tag_250\n      jump\t// in\n    tag_387:\n        /* \"#utility.yul\":10232:10235   */\n      dup3\n        /* \"#utility.yul\":10225:10283   */\n      mstore\n        /* \"#utility.yul\":10132:10289   */\n      pop\n      pop\n      jump\t// out\n        /* \"#utility.yul\":10295:10374   */\n    tag_252:\n        /* \"#utility.yul\":10334:10341   */\n      0x00\n        /* \"#utility.yul\":10363:10368   */\n      dup2\n        /* \"#utility.yul\":10352:10368   */\n      swap1\n      pop\n        /* \"#utility.yul\":10295:10374   */\n      swap2\n      swap1\n      pop\n      jump\t// out\n        /* \"#utility.yul\":10380:10537   */\n    tag_253:\n        /* \"#utility.yul\":10485:10530   */\n      tag_391\n        /* \"#utility.yul\":10505:10529   */\n      tag_392\n        /* \"#utility.yul\":10523:10528   */\n      dup3\n        /* \"#utility.yul\":10505:10529   */\n      tag_234\n      jump\t// in\n    tag_392:\n        /* \"#utility.yul\":10485:10530   */\n      tag_252\n      jump\t// in\n    tag_391:\n        /* \"#utility.yul\":10480:10483   */\n      dup3\n        /* \"#utility.yul\":10473:10531   */\n      mstore\n        /* \"#utility.yul\":10380:10537   */\n      pop\n      pop\n      jump\t// out\n        /* \"#utility.yul\":10543:10940   */\n    tag_91:\n        /* \"#utility.yul\":10683:10686   */\n      0x00\n        /* \"#utility.yul\":10698:10773   */\n      tag_394\n        /* \"#utility.yul\":10769:10772   */\n      dup3\n        /* \"#utility.yul\":10760:10766   */\n      dup6\n        /* \"#utility.yul\":10698:10773   */\n      tag_251\n      jump\t// in\n    tag_394:\n        /* \"#utility.yul\":10798:10800   */\n      0x20\n        /* \"#utility.yul\":10793:10796   */\n      dup3\n        /* \"#utility.yul\":10789:10801   */\n      add\n        /* \"#utility.yul\":10782:10801   */\n      swap2\n      pop\n        /* \"#utility.yul\":10811:10886   */\n      tag_395\n        /* \"#utility.yul\":10882:10885   */\n      dup3\n        /* \"#utility.yul\":10873:10879   */\n      dup5\n        /* \"#utility.yul\":10811:10886   */\n      tag_253\n      jump\t// in\n    tag_395:\n        /* \"#utility.yul\":10911:10913   */\n      0x20\n        /* \"#utility.yul\":10906:10909   */\n      dup3\n        /* \"#utility.yul\":10902:10914   */\n      add\n        /* \"#utility.yul\":10895:10914   */\n      swap2\n      pop\n        /* \"#utility.yul\":10931:10934   */\n      dup2\n        /* \"#utility.yul\":10924:10934   */\n      swap1\n      pop\n        /* \"#utility.yul\":10543:10940   */\n      swap4\n      swap3\n      pop\n      pop\n      pop\n      jump\t// out\n        /* \"#utility.yul\":10946:11126   */\n    tag_254:\n        /* \"#utility.yul\":10994:11071   */\n      0x4e487b7100000000000000000000000000000000000000000000000000000000\n        /* \"#utility.yul\":10991:10992   */\n      0x00\n        /* \"#utility.yul\":10984:11072   */\n      mstore\n        /* \"#utility.yul\":11091:11095   */\n      0x11\n        /* \"#utility.yul\":11088:11089   */\n      0x04\n        /* \"#utility.yul\":11081:11096   */\n      mstore\n        /* \"#utility.yul\":11115:11119   */\n      0x24\n        /* \"#utility.yul\":11112:11113   */\n      0x00\n        /* \"#utility.yul\":11105:11120   */\n      revert\n        /* \"#utility.yul\":11132:11365   */\n    tag_103:\n        /* \"#utility.yul\":11171:11174   */\n      0x00\n        /* \"#utility.yul\":11194:11218   */\n      tag_398\n        /* \"#utility.yul\":11212:11217   */\n      dup3\n        /* \"#utility.yul\":11194:11218   */\n      tag_221\n      jump\t// in\n    tag_398:\n        /* \"#utility.yul\":11185:11218   */\n      swap2\n      pop\n        /* \"#utility.yul\":11240:11306   */\n      0xffffffffffffffffffffffffffffffffffffffffffffffffffffffffffffffff\n        /* \"#utility.yul\":11233:11238   */\n      dup3\n        /* \"#utility.yul\":11230:11307   */\n      sub\n        /* \"#utility.yul\":11227:11330   */\n      tag_399\n      jumpi\n        /* \"#utility.yul\":11310:11328   */\n      tag_400\n      tag_254\n      jump\t// in\n    tag_400:\n        /* \"#utility.yul\":11227:11330   */\n    tag_399:\n        /* \"#utility.yul\":11357:11358   */\n      0x01\n        /* \"#utility.yul\":11350:11355   */\n      dup3\n        /* \"#utility.yul\":11346:11359   */\n      add\n        /* \"#utility.yul\":11339:11359   */\n      swap1\n      pop\n        /* \"#utility.yul\":11132:11365   */\n      swap2\n      swap1\n      pop\n      jump\t// out\n        /* \"#utility.yul\":11371:11562   */\n    tag_111:\n        /* \"#utility.yul\":11411:11414   */\n      0x00\n        /* \"#utility.yul\":11430:11450   */\n      tag_402\n        /* \"#utility.yul\":11448:11449   */\n      dup3\n        /* \"#utility.yul\":11430:11450   */\n      tag_221\n      jump\t// in\n    tag_402:\n        /* \"#utility.yul\":11425:11450   */\n      swap2\n      pop\n        /* \"#utility.yul\":11464:11484   */\n      tag_403\n        /* \"#utility.yul\":11482:11483   */\n      dup4\n        /* \"#utility.yul\":11464:11484   */\n      tag_221\n      jump\t// in\n    tag_403:\n        /* \"#utility.yul\":11459:11484   */\n      swap3\n      pop\n        /* \"#utility.yul\":11507:11508   */\n      dup3\n        /* \"#utility.yul\":11504:11505   */\n      dup3\n        /* \"#utility.yul\":11500:11509   */\n      add\n        /* \"#utility.yul\":11493:11509   */\n      swap1\n      pop\n        /* \"#utility.yul\":11528:11531   */\n      dup1\n        /* \"#utility.yul\":11525:11526   */\n      dup3\n        /* \"#utility.yul\":11522:11532   */\n      gt\n        /* \"#utility.yul\":11519:11555   */\n      iszero\n      tag_404\n      jumpi\n        /* \"#utility.yul\":11535:11553   */\n      tag_405\n      tag_254\n      jump\t// in\n    tag_405:\n        /* \"#utility.yul\":11519:11555   */\n    tag_404:\n        /* \"#utility.yul\":11371:11562   */\n      swap3\n      swap2\n      pop\n      pop\n      jump\t// out\n        /* \"#utility.yul\":11568:11662   */\n    tag_255:\n        /* \"#utility.yul\":11601:11609   */\n      0x00\n        /* \"#utility.yul\":11649:11654   */\n      dup2\n        /* \"#utility.yul\":11645:11647   */\n      0x60\n        /* \"#utility.yul\":11641:11655   */\n      shl\n        /* \"#utility.yul\":11620:11655   */\n      swap1\n      pop\n        /* \"#utility.yul\":11568:11662   */\n      swap2\n      swap1\n      pop\n      jump\t// out\n        /* \"#utility.yul\":11668:11762   */\n    tag_256:\n        /* \"#utility.yul\":11707:11714   */\n      0x00\n        /* \"#utility.yul\":11736:11756   */\n      tag_408\n        /* \"#utility.yul\":11750:11755   */\n      dup3\n        /* \"#utility.yul\":11736:11756   */\n      tag_255\n      jump\t// in\n    tag_408:\n        /* \"#utility.yul\":11725:11756   */\n      swap1\n      pop\n        /* \"#utility.yul\":11668:11762   */\n      swap2\n      swap1\n      pop\n      jump\t// out\n        /* \"#utility.yul\":11768:11868   */\n    tag_257:\n        /* \"#utility.yul\":11807:11814   */\n      0x00\n        /* \"#utility.yul\":11836:11862   */\n      tag_410\n        /* \"#utility.yul\":11856:11861   */\n      dup3\n        /* \"#utility.yul\":11836:11862   */\n      tag_256\n      jump\t// in\n    tag_410:\n        /* \"#utility.yul\":11825:11862   */\n      swap1\n      pop\n        /* \"#utility.yul\":11768:11868   */\n      swap2\n      swap1\n      pop\n      jump\t// out\n        /* \"#utility.yul\":11874:12031   */\n    tag_258:\n        /* \"#utility.yul\":11979:12024   */\n      tag_412\n        /* \"#utility.yul\":11999:12023   */\n      tag_413\n        /* \"#utility.yul\":12017:12022   */\n      dup3\n        /* \"#utility.yul\":11999:12023   */\n      tag_240\n      jump\t// in\n    tag_413:\n        /* \"#utility.yul\":11979:12024   */\n      tag_257\n      jump\t// in\n    tag_412:\n        /* \"#utility.yul\":11974:11977   */\n      dup3\n        /* \"#utility.yul\":11967:12025   */\n      mstore\n        /* \"#utility.yul\":11874:12031   */\n      pop\n      pop\n      jump\t// out\n        /* \"#utility.yul\":12037:12434   */\n    tag_115:\n        /* \"#utility.yul\":12177:12180   */\n      0x00\n        /* \"#utility.yul\":12192:12267   */\n      tag_415\n        /* \"#utility.yul\":12263:12266   */\n      dup3\n        /* \"#utility.yul\":12254:12260   */\n      dup6\n        /* \"#utility.yul\":12192:12267   */\n      tag_258\n      jump\t// in\n    tag_415:\n        /* \"#utility.yul\":12292:12294   */\n      0x14\n        /* \"#utility.yul\":12287:12290   */\n      dup3\n        /* \"#utility.yul\":12283:12295   */\n      add\n        /* \"#utility.yul\":12276:12295   */\n      swap2\n      pop\n        /* \"#utility.yul\":12305:12380   */\n      tag_416\n        /* \"#utility.yul\":12376:12379   */\n      dup3\n        /* \"#utility.yul\":12367:12373   */\n      dup5\n        /* \"#utility.yul\":12305:12380   */\n      tag_253\n      jump\t// in\n    tag_416:\n        /* \"#utility.yul\":12405:12407   */\n      0x20\n        /* \"#utility.yul\":12400:12403   */\n      dup3\n        /* \"#utility.yul\":12396:12408   */\n      add\n        /* \"#utility.yul\":12389:12408   */\n      swap2\n      pop\n        /* \"#utility.yul\":12425:12428   */\n      dup2\n        /* \"#utility.yul\":12418:12428   */\n      swap1\n      pop\n        /* \"#utility.yul\":12037:12434   */\n      swap4\n      swap3\n      pop\n      pop\n      pop\n      jump\t// out\n        /* \"#utility.yul\":12440:12634   */\n    tag_118:\n        /* \"#utility.yul\":12480:12484   */\n      0x00\n        /* \"#utility.yul\":12500:12520   */\n      tag_418\n        /* \"#utility.yul\":12518:12519   */\n      dup3\n        /* \"#utility.yul\":12500:12520   */\n      tag_221\n      jump\t// in\n    tag_418:\n        /* \"#utility.yul\":12495:12520   */\n      swap2\n      pop\n        /* \"#utility.yul\":12534:12554   */\n      tag_419\n        /* \"#utility.yul\":12552:12553   */\n      dup4\n        /* \"#utility.yul\":12534:12554   */\n      tag_221\n      jump\t// in\n    tag_419:\n        /* \"#utility.yul\":12529:12554   */\n      swap3\n      pop\n        /* \"#utility.yul\":12578:12579   */\n      dup3\n        /* \"#utility.yul\":12575:12576   */\n      dup3\n        /* \"#utility.yul\":12571:12580   */\n      sub\n        /* \"#utility.yul\":12563:12580   */\n      swap1\n      pop\n        /* \"#utility.yul\":12602:12603   */\n      dup2\n        /* \"#utility.yul\":12596:12600   */\n      dup2\n        /* \"#utility.yul\":12593:12604   */\n      gt\n        /* \"#utility.yul\":12590:12627   */\n      iszero\n      tag_420\n      jumpi\n        /* \"#utility.yul\":12607:12625   */\n      tag_421\n      tag_254\n      jump\t// in\n    tag_421:\n        /* \"#utility.yul\":12590:12627   */\n    tag_420:\n        /* \"#utility.yul\":12440:12634   */\n      swap3\n      swap2\n      pop\n      pop\n      jump\t// out\n        /* \"#utility.yul\":12640:12820   */\n    tag_259:\n        /* \"#utility.yul\":12688:12765   */\n      0x4e487b7100000000000000000000000000000000000000000000000000000000\n        /* \"#utility.yul\":12685:12686   */\n      0x00\n        /* \"#utility.yul\":12678:12766   */\n      mstore\n        /* \"#utility.yul\":12785:12789   */\n      0x12\n        /* \"#utility.yul\":12782:12783   */\n      0x04\n        /* \"#utility.yul\":12775:12790   */\n      mstore\n        /* \"#utility.yul\":12809:12813   */\n      0x24\n        /* \"#utility.yul\":12806:12807   */\n      0x00\n        /* \"#utility.yul\":12799:12814   */\n      revert\n        /* \"#utility.yul\":12826:13011   */\n    tag_133:\n        /* \"#utility.yul\":12866:12867   */\n      0x00\n        /* \"#utility.yul\":12883:12903   */\n      tag_424\n        /* \"#utility.yul\":12901:12902   */\n      dup3\n        /* \"#utility.yul\":12883:12903   */\n      tag_221\n      jump\t// in\n    tag_424:\n        /* \"#utility.yul\":12878:12903   */\n      swap2\n      pop\n        /* \"#utility.yul\":12917:12937   */\n      tag_425\n        /* \"#utility.yul\":12935:12936   */\n      dup4\n        /* \"#utility.yul\":12917:12937   */\n      tag_221\n      jump\t// in\n    tag_425:\n        /* \"#utility.yul\":12912:12937   */\n      swap3\n      pop\n        /* \"#utility.yul\":12956:12957   */\n      dup3\n        /* \"#utility.yul\":12946:12981   */\n      tag_426\n      jumpi\n        /* \"#utility.yul\":12961:12979   */\n      tag_427\n      tag_259\n      jump\t// in\n    tag_427:\n        /* \"#utility.yul\":12946:12981   */\n    tag_426:\n        /* \"#utility.yul\":13003:13004   */\n      dup3\n        /* \"#utility.yul\":13000:13001   */\n      dup3\n        /* \"#utility.yul\":12996:13005   */\n      div\n        /* \"#utility.yul\":12991:13005   */\n      swap1\n      pop\n        /* \"#utility.yul\":12826:13011   */\n      swap3\n      swap2\n      pop\n      pop\n      jump\t// out\n        /* \"#utility.yul\":13017:13555   */\n    tag_159:\n        /* \"#utility.yul\":13185:13188   */\n      0x00\n        /* \"#utility.yul\":13200:13275   */\n      tag_429\n        /* \"#utility.yul\":13271:13274   */\n      dup3\n        /* \"#utility.yul\":13262:13268   */\n      dup7\n        /* \"#utility.yul\":13200:13275   */\n      tag_258\n      jump\t// in\n    tag_429:\n        /* \"#utility.yul\":13300:13302   */\n      0x14\n        /* \"#utility.yul\":13295:13298   */\n      dup3\n        /* \"#utility.yul\":13291:13303   */\n      add\n        /* \"#utility.yul\":13284:13303   */\n      swap2\n      pop\n        /* \"#utility.yul\":13313:13388   */\n      tag_430\n        /* \"#utility.yul\":13384:13387   */\n      dup3\n        /* \"#utility.yul\":13375:13381   */\n      dup6\n        /* \"#utility.yul\":13313:13388   */\n      tag_253\n      jump\t// in\n    tag_430:\n        /* \"#utility.yul\":13413:13415   */\n      0x20\n        /* \"#utility.yul\":13408:13411   */\n      dup3\n        /* \"#utility.yul\":13404:13416   */\n      add\n        /* \"#utility.yul\":13397:13416   */\n      swap2\n      pop\n        /* \"#utility.yul\":13426:13501   */\n      tag_431\n        /* \"#utility.yul\":13497:13500   */\n      dup3\n        /* \"#utility.yul\":13488:13494   */\n      dup5\n        /* \"#utility.yul\":13426:13501   */\n      tag_253\n      jump\t// in\n    tag_431:\n        /* \"#utility.yul\":13526:13528   */\n      0x20\n        /* \"#utility.yul\":13521:13524   */\n      dup3\n        /* \"#utility.yul\":13517:13529   */\n      add\n        /* \"#utility.yul\":13510:13529   */\n      swap2\n      pop\n        /* \"#utility.yul\":13546:13549   */\n      dup2\n        /* \"#utility.yul\":13539:13549   */\n      swap1\n      pop\n        /* \"#utility.yul\":13017:13555   */\n      swap5\n      swap4\n      pop\n      pop\n      pop\n      pop\n      jump\t// out\n        /* \"#utility.yul\":13561:13730   */\n    tag_260:\n        /* \"#utility.yul\":13645:13656   */\n      0x00\n        /* \"#utility.yul\":13679:13685   */\n      dup3\n        /* \"#utility.yul\":13674:13677   */\n      dup3\n        /* \"#utility.yul\":13667:13686   */\n      mstore\n        /* \"#utility.yul\":13719:13723   */\n      0x20\n        /* \"#utility.yul\":13714:13717   */\n      dup3\n        /* \"#utility.yul\":13710:13724   */\n      add\n        /* \"#utility.yul\":13695:13724   */\n      swap1\n      pop\n        /* \"#utility.yul\":13561:13730   */\n      swap3\n      swap2\n      pop\n      pop\n      jump\t// out\n        /* \"#utility.yul\":13736:13961   */\n    tag_261:\n        /* \"#utility.yul\":13876:13910   */\n      0x436f6d6d697452657665616c3a3a72657665616c3a20416c7265616479207265\n        /* \"#utility.yul\":13872:13873   */\n      0x00\n        /* \"#utility.yul\":13864:13870   */\n      dup3\n        /* \"#utility.yul\":13860:13874   */\n      add\n        /* \"#utility.yul\":13853:13911   */\n      mstore\n        /* \"#utility.yul\":13945:13953   */\n      0x7665616c65640000000000000000000000000000000000000000000000000000\n        /* \"#utility.yul\":13940:13942   */\n      0x20\n        /* \"#utility.yul\":13932:13938   */\n      dup3\n        /* \"#utility.yul\":13928:13943   */\n      add\n        /* \"#utility.yul\":13921:13954   */\n      mstore\n        /* \"#utility.yul\":13736:13961   */\n      pop\n      jump\t// out\n        /* \"#utility.yul\":13967:14333   */\n    tag_262:\n        /* \"#utility.yul\":14109:14112   */\n      0x00\n        /* \"#utility.yul\":14130:14197   */\n      tag_435\n        /* \"#utility.yul\":14194:14196   */\n      0x26\n        /* \"#utility.yul\":14189:14192   */\n      dup4\n        /* \"#utility.yul\":14130:14197   */\n      tag_260\n      jump\t// in\n    tag_435:\n        /* \"#utility.yul\":14123:14197   */\n      swap2\n      pop\n        /* \"#utility.yul\":14206:14299   */\n      tag_436\n        /* \"#utility.yul\":14295:14298   */\n      dup3\n        /* \"#utility.yul\":14206:14299   */\n      tag_261\n      jump\t// in\n    tag_436:\n        /* \"#utility.yul\":14324:14326   */\n      0x40\n        /* \"#utility.yul\":14319:14322   */\n      dup3\n        /* \"#utility.yul\":14315:14327   */\n      add\n        /* \"#utility.yul\":14308:14327   */\n      swap1\n      pop\n        /* \"#utility.yul\":13967:14333   */\n      swap2\n      swap1\n      pop\n      jump\t// out\n        /* \"#utility.yul\":14339:14758   */\n    tag_163:\n        /* \"#utility.yul\":14505:14509   */\n      0x00\n        /* \"#utility.yul\":14543:14545   */\n      0x20\n        /* \"#utility.yul\":14532:14541   */\n      dup3\n        /* \"#utility.yul\":14528:14546   */\n      add\n        /* \"#utility.yul\":14520:14546   */\n      swap1\n      pop\n        /* \"#utility.yul\":14592:14601   */\n      dup2\n        /* \"#utility.yul\":14586:14590   */\n      dup2\n        /* \"#utility.yul\":14582:14602   */\n      sub\n        /* \"#utility.yul\":14578:14579   */\n      0x00\n        /* \"#utility.yul\":14567:14576   */\n      dup4\n        /* \"#utility.yul\":14563:14580   */\n      add\n        /* \"#utility.yul\":14556:14603   */\n      mstore\n        /* \"#utility.yul\":14620:14751   */\n      tag_438\n        /* \"#utility.yul\":14746:14750   */\n      dup2\n        /* \"#utility.yul\":14620:14751   */\n      tag_262\n      jump\t// in\n    tag_438:\n        /* \"#utility.yul\":14612:14751   */\n      swap1\n      pop\n        /* \"#utility.yul\":14339:14758   */\n      swap2\n      swap1\n      pop\n      jump\t// out\n        /* \"#utility.yul\":14764:15008   */\n    tag_263:\n        /* \"#utility.yul\":14904:14938   */\n      0x436f6d6d697452657665616c3a3a72657665616c3a2052657665616c65642068\n        /* \"#utility.yul\":14900:14901   */\n      0x00\n        /* \"#utility.yul\":14892:14898   */\n      dup3\n        /* \"#utility.yul\":14888:14902   */\n      add\n        /* \"#utility.yul\":14881:14939   */\n      mstore\n        /* \"#utility.yul\":14973:15000   */\n      0x61736820646f6573206e6f74206d6174636820636f6d6d697400000000000000\n        /* \"#utility.yul\":14968:14970   */\n      0x20\n        /* \"#utility.yul\":14960:14966   */\n      dup3\n        /* \"#utility.yul\":14956:14971   */\n      add\n        /* \"#utility.yul\":14949:15001   */\n      mstore\n        /* \"#utility.yul\":14764:15008   */\n      pop\n      jump\t// out\n        /* \"#utility.yul\":15014:15380   */\n    tag_264:\n        /* \"#utility.yul\":15156:15159   */\n      0x00\n        /* \"#utility.yul\":15177:15244   */\n      tag_441\n        /* \"#utility.yul\":15241:15243   */\n      0x39\n        /* \"#utility.yul\":15236:15239   */\n      dup4\n        /* \"#utility.yul\":15177:15244   */\n      tag_260\n      jump\t// in\n    tag_441:\n        /* \"#utility.yul\":15170:15244   */\n      swap2\n      pop\n        /* \"#utility.yul\":15253:15346   */\n      tag_442\n        /* \"#utility.yul\":15342:15345   */\n      dup3\n        /* \"#utility.yul\":15253:15346   */\n      tag_263\n      jump\t// in\n    tag_442:\n        /* \"#utility.yul\":15371:15373   */\n      0x40\n        /* \"#utility.yul\":15366:15369   */\n      dup3\n        /* \"#utility.yul\":15362:15374   */\n      add\n        /* \"#utility.yul\":15355:15374   */\n      swap1\n      pop\n        /* \"#utility.yul\":15014:15380   */\n      swap2\n      swap1\n      pop\n      jump\t// out\n        /* \"#utility.yul\":15386:15805   */\n    tag_167:\n        /* \"#utility.yul\":15552:15556   */\n      0x00\n        /* \"#utility.yul\":15590:15592   */\n      0x20\n        /* \"#utility.yul\":15579:15588   */\n      dup3\n        /* \"#utility.yul\":15575:15593   */\n      add\n        /* \"#utility.yul\":15567:15593   */\n      swap1\n      pop\n        /* \"#utility.yul\":15639:15648   */\n      dup2\n        /* \"#utility.yul\":15633:15637   */\n      dup2\n        /* \"#utility.yul\":15629:15649   */\n      sub\n        /* \"#utility.yul\":15625:15626   */\n      0x00\n        /* \"#utility.yul\":15614:15623   */\n      dup4\n        /* \"#utility.yul\":15610:15627   */\n      add\n        /* \"#utility.yul\":15603:15650   */\n      mstore\n        /* \"#utility.yul\":15667:15798   */\n      tag_444\n        /* \"#utility.yul\":15793:15797   */\n      dup2\n        /* \"#utility.yul\":15667:15798   */\n      tag_264\n      jump\t// in\n    tag_444:\n        /* \"#utility.yul\":15659:15798   */\n      swap1\n      pop\n        /* \"#utility.yul\":15386:15805   */\n      swap2\n      swap1\n      pop\n      jump\t// out\n        /* \"#utility.yul\":15811:16101   */\n    tag_265:\n        /* \"#utility.yul\":15951:15985   */\n      0x436f6d6d697452657665616c3a3a72657665616c3a2052657665616c20616e64\n        /* \"#utility.yul\":15947:15948   */\n      0x00\n        /* \"#utility.yul\":15939:15945   */\n      dup3\n        /* \"#utility.yul\":15935:15949   */\n      add\n        /* \"#utility.yul\":15928:15986   */\n      mstore\n        /* \"#utility.yul\":16020:16054   */\n      0x20636f6d6d69742068617070656e6564206f6e207468652073616d6520626c6f\n        /* \"#utility.yul\":16015:16017   */\n      0x20\n        /* \"#utility.yul\":16007:16013   */\n      dup3\n        /* \"#utility.yul\":16003:16018   */\n      add\n        /* \"#utility.yul\":15996:16055   */\n      mstore\n        /* \"#utility.yul\":16089:16093   */\n      0x636b000000000000000000000000000000000000000000000000000000000000\n        /* \"#utility.yul\":16084:16086   */\n      0x40\n        /* \"#utility.yul\":16076:16082   */\n      dup3\n        /* \"#utility.yul\":16072:16087   */\n      add\n        /* \"#utility.yul\":16065:16094   */\n      mstore\n        /* \"#utility.yul\":15811:16101   */\n      pop\n      jump\t// out\n        /* \"#utility.yul\":16107:16473   */\n    tag_266:\n        /* \"#utility.yul\":16249:16252   */\n      0x00\n        /* \"#utility.yul\":16270:16337   */\n      tag_447\n        /* \"#utility.yul\":16334:16336   */\n      0x42\n        /* \"#utility.yul\":16329:16332   */\n      dup4\n        /* \"#utility.yul\":16270:16337   */\n      tag_260\n      jump\t// in\n    tag_447:\n        /* \"#utility.yul\":16263:16337   */\n      swap2\n      pop\n        /* \"#utility.yul\":16346:16439   */\n      tag_448\n        /* \"#utility.yul\":16435:16438   */\n      dup3\n        /* \"#utility.yul\":16346:16439   */\n      tag_265\n      jump\t// in\n    tag_448:\n        /* \"#utility.yul\":16464:16466   */\n      0x60\n        /* \"#utility.yul\":16459:16462   */\n      dup3\n        /* \"#utility.yul\":16455:16467   */\n      add\n        /* \"#utility.yul\":16448:16467   */\n      swap1\n      pop\n        /* \"#utility.yul\":16107:16473   */\n      swap2\n      swap1\n      pop\n      jump\t// out\n        /* \"#utility.yul\":16479:16898   */\n    tag_170:\n        /* \"#utility.yul\":16645:16649   */\n      0x00\n        /* \"#utility.yul\":16683:16685   */\n      0x20\n        /* \"#utility.yul\":16672:16681   */\n      dup3\n        /* \"#utility.yul\":16668:16686   */\n      add\n        /* \"#utility.yul\":16660:16686   */\n      swap1\n      pop\n        /* \"#utility.yul\":16732:16741   */\n      dup2\n        /* \"#utility.yul\":16726:16730   */\n      dup2\n        /* \"#utility.yul\":16722:16742   */\n      sub\n        /* \"#utility.yul\":16718:16719   */\n      0x00\n        /* \"#utility.yul\":16707:16716   */\n      dup4\n        /* \"#utility.yul\":16703:16720   */\n      add\n        /* \"#utility.yul\":16696:16743   */\n      mstore\n        /* \"#utility.yul\":16760:16891   */\n      tag_450\n        /* \"#utility.yul\":16886:16890   */\n      dup2\n        /* \"#utility.yul\":16760:16891   */\n      tag_266\n      jump\t// in\n    tag_450:\n        /* \"#utility.yul\":16752:16891   */\n      swap1\n      pop\n        /* \"#utility.yul\":16479:16898   */\n      swap2\n      swap1\n      pop\n      jump\t// out\n        /* \"#utility.yul\":16904:17005   */\n    tag_267:\n        /* \"#utility.yul\":16940:16947   */\n      0x00\n        /* \"#utility.yul\":16980:16998   */\n      0xffffffffffffffff\n        /* \"#utility.yul\":16973:16978   */\n      dup3\n        /* \"#utility.yul\":16969:16999   */\n      and\n        /* \"#utility.yul\":16958:16999   */\n      swap1\n      pop\n        /* \"#utility.yul\":16904:17005   */\n      swap2\n      swap1\n      pop\n      jump\t// out\n        /* \"#utility.yul\":17011:17216   */\n    tag_172:\n        /* \"#utility.yul\":17050:17053   */\n      0x00\n        /* \"#utility.yul\":17069:17088   */\n      tag_453\n        /* \"#utility.yul\":17086:17087   */\n      dup3\n        /* \"#utility.yul\":17069:17088   */\n      tag_267\n      jump\t// in\n    tag_453:\n        /* \"#utility.yul\":17064:17088   */\n      swap2\n      pop\n        /* \"#utility.yul\":17102:17121   */\n      tag_454\n        /* \"#utility.yul\":17119:17120   */\n      dup4\n        /* \"#utility.yul\":17102:17121   */\n      tag_267\n      jump\t// in\n    tag_454:\n        /* \"#utility.yul\":17097:17121   */\n      swap3\n      pop\n        /* \"#utility.yul\":17144:17145   */\n      dup3\n        /* \"#utility.yul\":17141:17142   */\n      dup3\n        /* \"#utility.yul\":17137:17146   */\n      add\n        /* \"#utility.yul\":17130:17146   */\n      swap1\n      pop\n        /* \"#utility.yul\":17167:17185   */\n      0xffffffffffffffff\n        /* \"#utility.yul\":17162:17165   */\n      dup2\n        /* \"#utility.yul\":17159:17186   */\n      gt\n        /* \"#utility.yul\":17156:17209   */\n      iszero\n      tag_455\n      jumpi\n        /* \"#utility.yul\":17189:17207   */\n      tag_456\n      tag_254\n      jump\t// in\n    tag_456:\n        /* \"#utility.yul\":17156:17209   */\n    tag_455:\n        /* \"#utility.yul\":17011:17216   */\n      swap3\n      swap2\n      pop\n      pop\n      jump\t// out\n        /* \"#utility.yul\":17222:17448   */\n    tag_268:\n        /* \"#utility.yul\":17362:17396   */\n      0x436f6d6d697452657665616c3a3a72657665616c3a2052657665616c65642074\n        /* \"#utility.yul\":17358:17359   */\n      0x00\n        /* \"#utility.yul\":17350:17356   */\n      dup3\n        /* \"#utility.yul\":17346:17360   */\n      add\n        /* \"#utility.yul\":17339:17397   */\n      mstore\n        /* \"#utility.yul\":17431:17440   */\n      0x6f6f206c61746500000000000000000000000000000000000000000000000000\n        /* \"#utility.yul\":17426:17428   */\n      0x20\n        /* \"#utility.yul\":17418:17424   */\n      dup3\n        /* \"#utility.yul\":17414:17429   */\n      add\n        /* \"#utility.yul\":17407:17441   */\n      mstore\n        /* \"#utility.yul\":17222:17448   */\n      pop\n      jump\t// out\n        /* \"#utility.yul\":17454:17820   */\n    tag_269:\n        /* \"#utility.yul\":17596:17599   */\n      0x00\n        /* \"#utility.yul\":17617:17684   */\n      tag_459\n        /* \"#utility.yul\":17681:17683   */\n      0x27\n        /* \"#utility.yul\":17676:17679   */\n      dup4\n        /* \"#utility.yul\":17617:17684   */\n      tag_260\n      jump\t// in\n    tag_459:\n        /* \"#utility.yul\":17610:17684   */\n      swap2\n      pop\n        /* \"#utility.yul\":17693:17786   */\n      tag_460\n        /* \"#utility.yul\":17782:17785   */\n      dup3\n        /* \"#utility.yul\":17693:17786   */\n      tag_268\n      jump\t// in\n    tag_460:\n        /* \"#utility.yul\":17811:17813   */\n      0x40\n        /* \"#utility.yul\":17806:17809   */\n      dup3\n        /* \"#utility.yul\":17802:17814   */\n      add\n        /* \"#utility.yul\":17795:17814   */\n      swap1\n      pop\n        /* \"#utility.yul\":17454:17820   */\n      swap2\n      swap1\n      pop\n      jump\t// out\n        /* \"#utility.yul\":17826:18245   */\n    tag_175:\n        /* \"#utility.yul\":17992:17996   */\n      0x00\n        /* \"#utility.yul\":18030:18032   */\n      0x20\n        /* \"#utility.yul\":18019:18028   */\n      dup3\n        /* \"#utility.yul\":18015:18033   */\n      add\n        /* \"#utility.yul\":18007:18033   */\n      swap1\n      pop\n        /* \"#utility.yul\":18079:18088   */\n      dup2\n        /* \"#utility.yul\":18073:18077   */\n      dup2\n        /* \"#utility.yul\":18069:18089   */\n      sub\n        /* \"#utility.yul\":18065:18066   */\n      0x00\n        /* \"#utility.yul\":18054:18063   */\n      dup4\n        /* \"#utility.yul\":18050:18067   */\n      add\n        /* \"#utility.yul\":18043:18090   */\n      mstore\n        /* \"#utility.yul\":18107:18238   */\n      tag_462\n        /* \"#utility.yul\":18233:18237   */\n      dup2\n        /* \"#utility.yul\":18107:18238   */\n      tag_269\n      jump\t// in\n    tag_462:\n        /* \"#utility.yul\":18099:18238   */\n      swap1\n      pop\n        /* \"#utility.yul\":17826:18245   */\n      swap2\n      swap1\n      pop\n      jump\t// out\n        /* \"#utility.yul\":18251:18648   */\n    tag_177:\n        /* \"#utility.yul\":18391:18394   */\n      0x00\n        /* \"#utility.yul\":18406:18481   */\n      tag_464\n        /* \"#utility.yul\":18477:18480   */\n      dup3\n        /* \"#utility.yul\":18468:18474   */\n      dup6\n        /* \"#utility.yul\":18406:18481   */\n      tag_253\n      jump\t// in\n    tag_464:\n        /* \"#utility.yul\":18506:18508   */\n      0x20\n        /* \"#utility.yul\":18501:18504   */\n      dup3\n        /* \"#utility.yul\":18497:18509   */\n      add\n        /* \"#utility.yul\":18490:18509   */\n      swap2\n      pop\n        /* \"#utility.yul\":18519:18594   */\n      tag_465\n        /* \"#utility.yul\":18590:18593   */\n      dup3\n        /* \"#utility.yul\":18581:18587   */\n      dup5\n        /* \"#utility.yul\":18519:18594   */\n      tag_253\n      jump\t// in\n    tag_465:\n        /* \"#utility.yul\":18619:18621   */\n      0x20\n        /* \"#utility.yul\":18614:18617   */\n      dup3\n        /* \"#utility.yul\":18610:18622   */\n      add\n        /* \"#utility.yul\":18603:18622   */\n      swap2\n      pop\n        /* \"#utility.yul\":18639:18642   */\n      dup2\n        /* \"#utility.yul\":18632:18642   */\n      swap1\n      pop\n        /* \"#utility.yul\":18251:18648   */\n      swap4\n      swap3\n      pop\n      pop\n      pop\n      jump\t// out\n        /* \"#utility.yul\":18654:18830   */\n    tag_179:\n        /* \"#utility.yul\":18686:18687   */\n      0x00\n        /* \"#utility.yul\":18703:18723   */\n      tag_467\n        /* \"#utility.yul\":18721:18722   */\n      dup3\n        /* \"#utility.yul\":18703:18723   */\n      tag_221\n      jump\t// in\n    tag_467:\n        /* \"#utility.yul\":18698:18723   */\n      swap2\n      pop\n        /* \"#utility.yul\":18737:18757   */\n      tag_468\n        /* \"#utility.yul\":18755:18756   */\n      dup4\n        /* \"#utility.yul\":18737:18757   */\n      tag_221\n      jump\t// in\n    tag_468:\n        /* \"#utility.yul\":18732:18757   */\n      swap3\n      pop\n        /* \"#utility.yul\":18776:18777   */\n      dup3\n        /* \"#utility.yul\":18766:18801   */\n      tag_469\n      jumpi\n        /* \"#utility.yul\":18781:18799   */\n      tag_470\n      tag_259\n      jump\t// in\n    tag_470:\n        /* \"#utility.yul\":18766:18801   */\n    tag_469:\n        /* \"#utility.yul\":18822:18823   */\n      dup3\n        /* \"#utility.yul\":18819:18820   */\n      dup3\n        /* \"#utility.yul\":18815:18824   */\n      mod\n        /* \"#utility.yul\":18810:18824   */\n      swap1\n      pop\n        /* \"#utility.yul\":18654:18830   */\n      swap3\n      swap2\n      pop\n      pop\n      jump\t// out\n        /* \"#utility.yul\":18836:19278   */\n    tag_181:\n        /* \"#utility.yul\":18985:18989   */\n      0x00\n        /* \"#utility.yul\":19023:19025   */\n      0x60\n        /* \"#utility.yul\":19012:19021   */\n      dup3\n        /* \"#utility.yul\":19008:19026   */\n      add\n        /* \"#utility.yul\":19000:19026   */\n      swap1\n      pop\n        /* \"#utility.yul\":19036:19107   */\n      tag_472\n        /* \"#utility.yul\":19104:19105   */\n      0x00\n        /* \"#utility.yul\":19093:19102   */\n      dup4\n        /* \"#utility.yul\":19089:19106   */\n      add\n        /* \"#utility.yul\":19080:19086   */\n      dup7\n        /* \"#utility.yul\":19036:19107   */\n      tag_241\n      jump\t// in\n    tag_472:\n        /* \"#utility.yul\":19117:19189   */\n      tag_473\n        /* \"#utility.yul\":19185:19187   */\n      0x20\n        /* \"#utility.yul\":19174:19183   */\n      dup4\n        /* \"#utility.yul\":19170:19188   */\n      add\n        /* \"#utility.yul\":19161:19167   */\n      dup6\n        /* \"#utility.yul\":19117:19189   */\n      tag_235\n      jump\t// in\n    tag_473:\n        /* \"#utility.yul\":19199:19271   */\n      tag_474\n        /* \"#utility.yul\":19267:19269   */\n      0x40\n        /* \"#utility.yul\":19256:19265   */\n      dup4\n        /* \"#utility.yul\":19252:19270   */\n      add\n        /* \"#utility.yul\":19243:19249   */\n      dup5\n        /* \"#utility.yul\":19199:19271   */\n      tag_236\n      jump\t// in\n    tag_474:\n        /* \"#utility.yul\":18836:19278   */\n      swap5\n      swap4\n      pop\n      pop\n      pop\n      pop\n      jump\t// out\n        /* \"#utility.yul\":19284:19399   */\n    tag_270:\n        /* \"#utility.yul\":19369:19392   */\n      tag_476\n        /* \"#utility.yul\":19386:19391   */\n      dup2\n        /* \"#utility.yul\":19369:19392   */\n      tag_267\n      jump\t// in\n    tag_476:\n        /* \"#utility.yul\":19364:19367   */\n      dup3\n        /* \"#utility.yul\":19357:19393   */\n      mstore\n        /* \"#utility.yul\":19284:19399   */\n      pop\n      pop\n      jump\t// out\n        /* \"#utility.yul\":19405:19843   */\n    tag_217:\n        /* \"#utility.yul\":19552:19556   */\n      0x00\n        /* \"#utility.yul\":19590:19592   */\n      0x60\n        /* \"#utility.yul\":19579:19588   */\n      dup3\n        /* \"#utility.yul\":19575:19593   */\n      add\n        /* \"#utility.yul\":19567:19593   */\n      swap1\n      pop\n        /* \"#utility.yul\":19603:19674   */\n      tag_478\n        /* \"#utility.yul\":19671:19672   */\n      0x00\n        /* \"#utility.yul\":19660:19669   */\n      dup4\n        /* \"#utility.yul\":19656:19673   */\n      add\n        /* \"#utility.yul\":19647:19653   */\n      dup7\n        /* \"#utility.yul\":19603:19674   */\n      tag_241\n      jump\t// in\n    tag_478:\n        /* \"#utility.yul\":19684:19756   */\n      tag_479\n        /* \"#utility.yul\":19752:19754   */\n      0x20\n        /* \"#utility.yul\":19741:19750   */\n      dup4\n        /* \"#utility.yul\":19737:19755   */\n      add\n        /* \"#utility.yul\":19728:19734   */\n      dup6\n        /* \"#utility.yul\":19684:19756   */\n      tag_235\n      jump\t// in\n    tag_479:\n        /* \"#utility.yul\":19766:19836   */\n      tag_480\n        /* \"#utility.yul\":19832:19834   */\n      0x40\n        /* \"#utility.yul\":19821:19830   */\n      dup4\n        /* \"#utility.yul\":19817:19835   */\n      add\n        /* \"#utility.yul\":19808:19814   */\n      dup5\n        /* \"#utility.yul\":19766:19836   */\n      tag_270\n      jump\t// in\n    tag_480:\n        /* \"#utility.yul\":19405:19843   */\n      swap5\n      swap4\n      pop\n      pop\n      pop\n      pop\n      jump\t// out\n\n    auxdata: 0xa26469706673582212205aa0e663042abc4b020e0eb164637668ecee0e1b6cb835378490316807b57be664736f6c63430008180033\n}\n",
				"bytecode": {
					"linkReferences": {},
					"object": "608060405260645f806101000a81548160ff021916908360ff1602179055505f6003555f6004555f6005555f6006554260075534801561003d575f80fd5b506120028061004b5f395ff3fe6080604052600436106100dc575f3560e01c8063590e1ae31161007e5780638dddbf36116100585780638dddbf361461027057806390d5d0c3146102ac5780639e0551c6146102d6578063bac4b2b414610313576100dc565b8063590e1ae3146102085780635940e9e71461021e5780637bab61bc14610246576100dc565b8063228cb733116100ba578063228cb7331461016e5780632703da2f1461019857806327b5db8a146101c25780633cf5040a146101cc576100dc565b8063073d8ff3146100e0578063086f78151461011c5780631c99b3aa14610146575b5f80fd5b3480156100eb575f80fd5b506101066004803603810190610101919061164c565b61033d565b60405161011391906116be565b60405180910390f35b348015610127575f80fd5b5061013061039c565b60405161013d91906116e6565b60405180910390f35b348015610151575f80fd5b5061016c600480360381019061016791906116ff565b6103a2565b005b348015610179575f80fd5b506101826104df565b60405161018f91906116e6565b60405180910390f35b3480156101a3575f80fd5b506101ac6104e5565b6040516101b991906116e6565b60405180910390f35b6101ca6104eb565b005b3480156101d7575f80fd5b506101f260048036038101906101ed9190611795565b6105b3565b6040516101ff91906116be565b60405180910390f35b348015610213575f80fd5b5061021c6105e4565b005b348015610229575f80fd5b50610244600480360381019061023f91906117c0565b610a66565b005b348015610251575f80fd5b5061025a610b11565b60405161026791906116e6565b60405180910390f35b34801561027b575f80fd5b50610296600480360381019061029191906117fe565b610b17565b6040516102a391906116be565b60405180910390f35b3480156102b7575f80fd5b506102c0610b4b565b6040516102cd91906116e6565b60405180910390f35b3480156102e1575f80fd5b506102fc60048036038101906102f7919061183c565b610b51565b60405161030a9291906118a6565b60405180910390f35b34801561031e575f80fd5b50610327610b90565b60405161033491906116e6565b60405180910390f35b5f80826040516020016103509190611939565b60405160208183030381529060405261036890611988565b9050838160405160200161037d929190611a2e565b6040516020818303038152906040528051906020012091505092915050565b60055481565b6002600354146103b0575f80fd5b60025f8281526020019081526020015f206001015f9054906101000a900473ffffffffffffffffffffffffffffffffffffffff1673ffffffffffffffffffffffffffffffffffffffff163373ffffffffffffffffffffffffffffffffffffffff161461041a575f80fd5b5f831015801561042b575060068311155b610433575f80fd5b5f826040516020016104459190611939565b60405160208183030381529060405261045d90611988565b90506104908482604051602001610475929190611a2e565b60405160208183030381529060405280519060200120610b96565b8360025f8481526020019081526020015f205f018190555060055f8154809291906104ba90611a86565b9190505550426007819055506002600554036104d9576104d8610f54565b5b50505050565b60045481565b61012c81565b6002600354106104f9575f80fd5b670de0b6b3a7640000341461050c575f80fd5b3460045f82825461051d9190611acd565b925050819055503360025f60035481526020019081526020015f206001015f6101000a81548173ffffffffffffffffffffffffffffffffffffffff021916908373ffffffffffffffffffffffffffffffffffffffff160217905550600760025f60035481526020019081526020015f205f018190555060035f8154809291906105a590611a86565b919050555042600781905550565b5f30826040516020016105c7929190611b45565b604051602081830303815290604052805190602001209050919050565b61012c600754426105f59190611b70565b116105fe575f80fd5b5f6003541161060b575f80fd5b60016003540361070a5760025f8081526020019081526020015f206001015f9054906101000a900473ffffffffffffffffffffffffffffffffffffffff1673ffffffffffffffffffffffffffffffffffffffff163373ffffffffffffffffffffffffffffffffffffffff161461067f575f80fd5b5f60025f8081526020019081526020015f206001015f9054906101000a900473ffffffffffffffffffffffffffffffffffffffff1690508073ffffffffffffffffffffffffffffffffffffffff166108fc60045490811502906040515f60405180830381858888f193505050501580156106fb573d5f803e3d5ffd5b50610704611204565b50610a64565b600260035403610a635760025f8081526020019081526020015f206001015f9054906101000a900473ffffffffffffffffffffffffffffffffffffffff1673ffffffffffffffffffffffffffffffffffffffff163373ffffffffffffffffffffffffffffffffffffffff1614806107e0575060025f600181526020019081526020015f206001015f9054906101000a900473ffffffffffffffffffffffffffffffffffffffff1673ffffffffffffffffffffffffffffffffffffffff163373ffffffffffffffffffffffffffffffffffffffff16145b6107e8575f80fd5b5f60055403610913575f60025f8081526020019081526020015f206001015f9054906101000a900473ffffffffffffffffffffffffffffffffffffffff1690505f60025f600181526020019081526020015f206001015f9054906101000a900473ffffffffffffffffffffffffffffffffffffffff1690508173ffffffffffffffffffffffffffffffffffffffff166108fc60026004546108899190611bd0565b90811502906040515f60405180830381858888f193505050501580156108b1573d5f803e3d5ffd5b508073ffffffffffffffffffffffffffffffffffffffff166108fc60026004546108db9190611bd0565b90811502906040515f60405180830381858888f19350505050158015610903573d5f803e3d5ffd5b5061090c611204565b5050610a62565b600160055403610a6157600760025f8081526020019081526020015f205f0154036109bc575f60025f600181526020019081526020015f206001015f9054906101000a900473ffffffffffffffffffffffffffffffffffffffff1690508073ffffffffffffffffffffffffffffffffffffffff166108fc60045490811502906040515f60405180830381858888f193505050501580156109b5573d5f803e3d5ffd5b5050610a58565b600760025f600181526020019081526020015f205f015403610a57575f60025f8081526020019081526020015f206001015f9054906101000a900473ffffffffffffffffffffffffffffffffffffffff1690508073ffffffffffffffffffffffffffffffffffffffff166108fc60045490811502906040515f60405180830381858888f19350505050158015610a54573d5f803e3d5ffd5b50505b5b610a60611204565b5b5b5b5b565b600260035414610a74575f80fd5b60025f8281526020019081526020015f206001015f9054906101000a900473ffffffffffffffffffffffffffffffffffffffff1673ffffffffffffffffffffffffffffffffffffffff163373ffffffffffffffffffffffffffffffffffffffff1614610ade575f80fd5b610aef610aea836105b3565b6112fa565b60065f815480929190610b0190611a86565b9190505550426007819055505050565b60075481565b5f308383604051602001610b2d93929190611c00565b60405160208183030381529060405280519060200120905092915050565b60035481565b6002602052805f5260405f205f91509050805f015490806001015f9054906101000a900473ffffffffffffffffffffffffffffffffffffffff16905082565b60065481565b5f151560015f3373ffffffffffffffffffffffffffffffffffffffff1673ffffffffffffffffffffffffffffffffffffffff1681526020019081526020015f2060010160089054906101000a900460ff16151514610c29576040517f08c379a0000000000000000000000000000000000000000000000000000000008152600401610c2090611cbc565b60405180910390fd5b6001805f3373ffffffffffffffffffffffffffffffffffffffff1673ffffffffffffffffffffffffffffffffffffffff1681526020019081526020015f2060010160086101000a81548160ff02191690831515021790555060015f3373ffffffffffffffffffffffffffffffffffffffff1673ffffffffffffffffffffffffffffffffffffffff1681526020019081526020015f205f0154610cca826105b3565b14610d0a576040517f08c379a0000000000000000000000000000000000000000000000000000000008152600401610d0190611d4a565b60405180910390fd5b60015f3373ffffffffffffffffffffffffffffffffffffffff1673ffffffffffffffffffffffffffffffffffffffff1681526020019081526020015f206001015f9054906101000a900467ffffffffffffffff1667ffffffffffffffff164367ffffffffffffffff1611610db3576040517f08c379a0000000000000000000000000000000000000000000000000000000008152600401610daa90611dfe565b60405180910390fd5b60fa60015f3373ffffffffffffffffffffffffffffffffffffffff1673ffffffffffffffffffffffffffffffffffffffff1681526020019081526020015f206001015f9054906101000a900467ffffffffffffffff16610e139190611e2f565b67ffffffffffffffff164367ffffffffffffffff161115610e69576040517f08c379a0000000000000000000000000000000000000000000000000000000008152600401610e6090611eda565b60405180910390fd5b5f60015f3373ffffffffffffffffffffffffffffffffffffffff1673ffffffffffffffffffffffffffffffffffffffff1681526020019081526020015f206001015f9054906101000a900467ffffffffffffffff1667ffffffffffffffff164090505f805f9054906101000a900460ff1660ff168284604051602001610ef0929190611ef8565b604051602081830303815290604052805190602001205f1c610f129190611f23565b90507fbc016dd1cadeaefcb851af7a0a93532e0023d536894b730801f7bcfe7065bcc2338483604051610f4793929190611f53565b60405180910390a1505050565b5f60025f8081526020019081526020015f205f015490505f60025f600181526020019081526020015f205f015490505f60025f8081526020019081526020015f206001015f9054906101000a900473ffffffffffffffffffffffffffffffffffffffff1690505f60025f600181526020019081526020015f206001015f9054906101000a900473ffffffffffffffffffffffffffffffffffffffff1690508260076001866110029190611acd565b61100c9190611f23565b148061102f57508260076002866110239190611acd565b61102d9190611f23565b145b8061105157508260076003866110459190611acd565b61104f9190611f23565b145b156110a1578073ffffffffffffffffffffffffffffffffffffffff166108fc60045490811502906040515f60405180830381858888f1935050505015801561109b573d5f803e3d5ffd5b506111f6565b8360076001856110b19190611acd565b6110bb9190611f23565b14806110de57508360076002856110d29190611acd565b6110dc9190611f23565b145b8061110057508360076003856110f49190611acd565b6110fe9190611f23565b145b15611150578173ffffffffffffffffffffffffffffffffffffffff166108fc60045490811502906040515f60405180830381858888f1935050505015801561114a573d5f803e3d5ffd5b506111f5565b8173ffffffffffffffffffffffffffffffffffffffff166108fc60026004546111799190611bd0565b90811502906040515f60405180830381858888f193505050501580156111a1573d5f803e3d5ffd5b508073ffffffffffffffffffffffffffffffffffffffff166108fc60026004546111cb9190611bd0565b90811502906040515f60405180830381858888f193505050501580156111f3573d5f803e3d5ffd5b505b5b6111fe611204565b50505050565b5f6003819055505f6004819055505f6005819055505f600681905550600760025f8081526020019081526020015f205f01819055505f60025f8081526020019081526020015f206001015f6101000a81548173ffffffffffffffffffffffffffffffffffffffff021916908373ffffffffffffffffffffffffffffffffffffffff160217905550600760025f600181526020019081526020015f205f01819055505f60025f600181526020019081526020015f206001015f6101000a81548173ffffffffffffffffffffffffffffffffffffffff021916908373ffffffffffffffffffffffffffffffffffffffff160217905550565b8060015f3373ffffffffffffffffffffffffffffffffffffffff1673ffffffffffffffffffffffffffffffffffffffff1681526020019081526020015f205f01819055504360015f3373ffffffffffffffffffffffffffffffffffffffff1673ffffffffffffffffffffffffffffffffffffffff1681526020019081526020015f206001015f6101000a81548167ffffffffffffffff021916908367ffffffffffffffff1602179055505f60015f3373ffffffffffffffffffffffffffffffffffffffff1673ffffffffffffffffffffffffffffffffffffffff1681526020019081526020015f2060010160086101000a81548160ff0219169083151502179055507f3c1a1f8f38335b17f751c6da4ba7d1865f26b3997535176f5080de9fad8916033360015f3373ffffffffffffffffffffffffffffffffffffffff1673ffffffffffffffffffffffffffffffffffffffff1681526020019081526020015f205f015460015f3373ffffffffffffffffffffffffffffffffffffffff1673ffffffffffffffffffffffffffffffffffffffff1681526020019081526020015f206001015f9054906101000a900467ffffffffffffffff166040516114c193929190611f97565b60405180910390a150565b5f604051905090565b5f80fd5b5f80fd5b5f819050919050565b6114ef816114dd565b81146114f9575f80fd5b50565b5f8135905061150a816114e6565b92915050565b5f80fd5b5f80fd5b5f601f19601f8301169050919050565b7f4e487b71000000000000000000000000000000000000000000000000000000005f52604160045260245ffd5b61155e82611518565b810181811067ffffffffffffffff8211171561157d5761157c611528565b5b80604052505050565b5f61158f6114cc565b905061159b8282611555565b919050565b5f67ffffffffffffffff8211156115ba576115b9611528565b5b6115c382611518565b9050602081019050919050565b828183375f83830152505050565b5f6115f06115eb846115a0565b611586565b90508281526020810184848401111561160c5761160b611514565b5b6116178482856115d0565b509392505050565b5f82601f83011261163357611632611510565b5b81356116438482602086016115de565b91505092915050565b5f8060408385031215611662576116616114d5565b5b5f61166f858286016114fc565b925050602083013567ffffffffffffffff8111156116905761168f6114d9565b5b61169c8582860161161f565b9150509250929050565b5f819050919050565b6116b8816116a6565b82525050565b5f6020820190506116d15f8301846116af565b92915050565b6116e0816114dd565b82525050565b5f6020820190506116f95f8301846116d7565b92915050565b5f805f60608486031215611716576117156114d5565b5b5f611723868287016114fc565b935050602084013567ffffffffffffffff811115611744576117436114d9565b5b6117508682870161161f565b9250506040611761868287016114fc565b9150509250925092565b611774816116a6565b811461177e575f80fd5b50565b5f8135905061178f8161176b565b92915050565b5f602082840312156117aa576117a96114d5565b5b5f6117b784828501611781565b91505092915050565b5f80604083850312156117d6576117d56114d5565b5b5f6117e385828601611781565b92505060206117f4858286016114fc565b9150509250929050565b5f8060408385031215611814576118136114d5565b5b5f61182185828601611781565b925050602061183285828601611781565b9150509250929050565b5f60208284031215611851576118506114d5565b5b5f61185e848285016114fc565b91505092915050565b5f73ffffffffffffffffffffffffffffffffffffffff82169050919050565b5f61189082611867565b9050919050565b6118a081611886565b82525050565b5f6040820190506118b95f8301856116d7565b6118c66020830184611897565b9392505050565b5f81519050919050565b5f81905092915050565b5f5b838110156118fe5780820151818401526020810190506118e3565b5f8484015250505050565b5f611913826118cd565b61191d81856118d7565b935061192d8185602086016118e1565b80840191505092915050565b5f6119448284611909565b915081905092915050565b5f81519050919050565b5f819050602082019050919050565b5f61197382516116a6565b80915050919050565b5f82821b905092915050565b5f6119928261194f565b8261199c84611959565b90506119a781611968565b925060208210156119e7576119e27fffffffffffffffffffffffffffffffffffffffffffffffffffffffffffffffff8360200360080261197c565b831692505b5050919050565b5f819050919050565b611a08611a03826114dd565b6119ee565b82525050565b5f819050919050565b611a28611a23826116a6565b611a0e565b82525050565b5f611a3982856119f7565b602082019150611a498284611a17565b6020820191508190509392505050565b7f4e487b71000000000000000000000000000000000000000000000000000000005f52601160045260245ffd5b5f611a90826114dd565b91507fffffffffffffffffffffffffffffffffffffffffffffffffffffffffffffffff8203611ac257611ac1611a59565b5b600182019050919050565b5f611ad7826114dd565b9150611ae2836114dd565b9250828201905080821115611afa57611af9611a59565b5b92915050565b5f8160601b9050919050565b5f611b1682611b00565b9050919050565b5f611b2782611b0c565b9050919050565b611b3f611b3a82611886565b611b1d565b82525050565b5f611b508285611b2e565b601482019150611b608284611a17565b6020820191508190509392505050565b5f611b7a826114dd565b9150611b85836114dd565b9250828203905081811115611b9d57611b9c611a59565b5b92915050565b7f4e487b71000000000000000000000000000000000000000000000000000000005f52601260045260245ffd5b5f611bda826114dd565b9150611be5836114dd565b925082611bf557611bf4611ba3565b5b828204905092915050565b5f611c0b8286611b2e565b601482019150611c1b8285611a17565b602082019150611c2b8284611a17565b602082019150819050949350505050565b5f82825260208201905092915050565b7f436f6d6d697452657665616c3a3a72657665616c3a20416c72656164792072655f8201527f7665616c65640000000000000000000000000000000000000000000000000000602082015250565b5f611ca6602683611c3c565b9150611cb182611c4c565b604082019050919050565b5f6020820190508181035f830152611cd381611c9a565b9050919050565b7f436f6d6d697452657665616c3a3a72657665616c3a2052657665616c656420685f8201527f61736820646f6573206e6f74206d6174636820636f6d6d697400000000000000602082015250565b5f611d34603983611c3c565b9150611d3f82611cda565b604082019050919050565b5f6020820190508181035f830152611d6181611d28565b9050919050565b7f436f6d6d697452657665616c3a3a72657665616c3a2052657665616c20616e645f8201527f20636f6d6d69742068617070656e6564206f6e207468652073616d6520626c6f60208201527f636b000000000000000000000000000000000000000000000000000000000000604082015250565b5f611de8604283611c3c565b9150611df382611d68565b606082019050919050565b5f6020820190508181035f830152611e1581611ddc565b9050919050565b5f67ffffffffffffffff82169050919050565b5f611e3982611e1c565b9150611e4483611e1c565b9250828201905067ffffffffffffffff811115611e6457611e63611a59565b5b92915050565b7f436f6d6d697452657665616c3a3a72657665616c3a2052657665616c656420745f8201527f6f6f206c61746500000000000000000000000000000000000000000000000000602082015250565b5f611ec4602783611c3c565b9150611ecf82611e6a565b604082019050919050565b5f6020820190508181035f830152611ef181611eb8565b9050919050565b5f611f038285611a17565b602082019150611f138284611a17565b6020820191508190509392505050565b5f611f2d826114dd565b9150611f38836114dd565b925082611f4857611f47611ba3565b5b828206905092915050565b5f606082019050611f665f830186611897565b611f7360208301856116af565b611f8060408301846116d7565b949350505050565b611f9181611e1c565b82525050565b5f606082019050611faa5f830186611897565b611fb760208301856116af565b611fc46040830184611f88565b94935050505056fea26469706673582212205aa0e663042abc4b020e0eb164637668ecee0e1b6cb835378490316807b57be664736f6c63430008180033",
					"opcodes": "PUSH1 0x80 PUSH1 0x40 MSTORE PUSH1 0x64 PUSH0 DUP1 PUSH2 0x100 EXP DUP2 SLOAD DUP2 PUSH1 0xFF MUL NOT AND SWAP1 DUP4 PUSH1 0xFF AND MUL OR SWAP1 SSTORE POP PUSH0 PUSH1 0x3 SSTORE PUSH0 PUSH1 0x4 SSTORE PUSH0 PUSH1 0x5 SSTORE PUSH0 PUSH1 0x6 SSTORE TIMESTAMP PUSH1 0x7 SSTORE CALLVALUE DUP1 ISZERO PUSH2 0x3D JUMPI PUSH0 DUP1 REVERT JUMPDEST POP PUSH2 0x2002 DUP1 PUSH2 0x4B PUSH0 CODECOPY PUSH0 RETURN INVALID PUSH1 0x80 PUSH1 0x40 MSTORE PUSH1 0x4 CALLDATASIZE LT PUSH2 0xDC JUMPI PUSH0 CALLDATALOAD PUSH1 0xE0 SHR DUP1 PUSH4 0x590E1AE3 GT PUSH2 0x7E JUMPI DUP1 PUSH4 0x8DDDBF36 GT PUSH2 0x58 JUMPI DUP1 PUSH4 0x8DDDBF36 EQ PUSH2 0x270 JUMPI DUP1 PUSH4 0x90D5D0C3 EQ PUSH2 0x2AC JUMPI DUP1 PUSH4 0x9E0551C6 EQ PUSH2 0x2D6 JUMPI DUP1 PUSH4 0xBAC4B2B4 EQ PUSH2 0x313 JUMPI PUSH2 0xDC JUMP JUMPDEST DUP1 PUSH4 0x590E1AE3 EQ PUSH2 0x208 JUMPI DUP1 PUSH4 0x5940E9E7 EQ PUSH2 0x21E JUMPI DUP1 PUSH4 0x7BAB61BC EQ PUSH2 0x246 JUMPI PUSH2 0xDC JUMP JUMPDEST DUP1 PUSH4 0x228CB733 GT PUSH2 0xBA JUMPI DUP1 PUSH4 0x228CB733 EQ PUSH2 0x16E JUMPI DUP1 PUSH4 0x2703DA2F EQ PUSH2 0x198 JUMPI DUP1 PUSH4 0x27B5DB8A EQ PUSH2 0x1C2 JUMPI DUP1 PUSH4 0x3CF5040A EQ PUSH2 0x1CC JUMPI PUSH2 0xDC JUMP JUMPDEST DUP1 PUSH4 0x73D8FF3 EQ PUSH2 0xE0 JUMPI DUP1 PUSH4 0x86F7815 EQ PUSH2 0x11C JUMPI DUP1 PUSH4 0x1C99B3AA EQ PUSH2 0x146 JUMPI JUMPDEST PUSH0 DUP1 REVERT JUMPDEST CALLVALUE DUP1 ISZERO PUSH2 0xEB JUMPI PUSH0 DUP1 REVERT JUMPDEST POP PUSH2 0x106 PUSH1 0x4 DUP1 CALLDATASIZE SUB DUP2 ADD SWAP1 PUSH2 0x101 SWAP2 SWAP1 PUSH2 0x164C JUMP JUMPDEST PUSH2 0x33D JUMP JUMPDEST PUSH1 0x40 MLOAD PUSH2 0x113 SWAP2 SWAP1 PUSH2 0x16BE JUMP JUMPDEST PUSH1 0x40 MLOAD DUP1 SWAP2 SUB SWAP1 RETURN JUMPDEST CALLVALUE DUP1 ISZERO PUSH2 0x127 JUMPI PUSH0 DUP1 REVERT JUMPDEST POP PUSH2 0x130 PUSH2 0x39C JUMP JUMPDEST PUSH1 0x40 MLOAD PUSH2 0x13D SWAP2 SWAP1 PUSH2 0x16E6 JUMP JUMPDEST PUSH1 0x40 MLOAD DUP1 SWAP2 SUB SWAP1 RETURN JUMPDEST CALLVALUE DUP1 ISZERO PUSH2 0x151 JUMPI PUSH0 DUP1 REVERT JUMPDEST POP PUSH2 0x16C PUSH1 0x4 DUP1 CALLDATASIZE SUB DUP2 ADD SWAP1 PUSH2 0x167 SWAP2 SWAP1 PUSH2 0x16FF JUMP JUMPDEST PUSH2 0x3A2 JUMP JUMPDEST STOP JUMPDEST CALLVALUE DUP1 ISZERO PUSH2 0x179 JUMPI PUSH0 DUP1 REVERT JUMPDEST POP PUSH2 0x182 PUSH2 0x4DF JUMP JUMPDEST PUSH1 0x40 MLOAD PUSH2 0x18F SWAP2 SWAP1 PUSH2 0x16E6 JUMP JUMPDEST PUSH1 0x40 MLOAD DUP1 SWAP2 SUB SWAP1 RETURN JUMPDEST CALLVALUE DUP1 ISZERO PUSH2 0x1A3 JUMPI PUSH0 DUP1 REVERT JUMPDEST POP PUSH2 0x1AC PUSH2 0x4E5 JUMP JUMPDEST PUSH1 0x40 MLOAD PUSH2 0x1B9 SWAP2 SWAP1 PUSH2 0x16E6 JUMP JUMPDEST PUSH1 0x40 MLOAD DUP1 SWAP2 SUB SWAP1 RETURN JUMPDEST PUSH2 0x1CA PUSH2 0x4EB JUMP JUMPDEST STOP JUMPDEST CALLVALUE DUP1 ISZERO PUSH2 0x1D7 JUMPI PUSH0 DUP1 REVERT JUMPDEST POP PUSH2 0x1F2 PUSH1 0x4 DUP1 CALLDATASIZE SUB DUP2 ADD SWAP1 PUSH2 0x1ED SWAP2 SWAP1 PUSH2 0x1795 JUMP JUMPDEST PUSH2 0x5B3 JUMP JUMPDEST PUSH1 0x40 MLOAD PUSH2 0x1FF SWAP2 SWAP1 PUSH2 0x16BE JUMP JUMPDEST PUSH1 0x40 MLOAD DUP1 SWAP2 SUB SWAP1 RETURN JUMPDEST CALLVALUE DUP1 ISZERO PUSH2 0x213 JUMPI PUSH0 DUP1 REVERT JUMPDEST POP PUSH2 0x21C PUSH2 0x5E4 JUMP JUMPDEST STOP JUMPDEST CALLVALUE DUP1 ISZERO PUSH2 0x229 JUMPI PUSH0 DUP1 REVERT JUMPDEST POP PUSH2 0x244 PUSH1 0x4 DUP1 CALLDATASIZE SUB DUP2 ADD SWAP1 PUSH2 0x23F SWAP2 SWAP1 PUSH2 0x17C0 JUMP JUMPDEST PUSH2 0xA66 JUMP JUMPDEST STOP JUMPDEST CALLVALUE DUP1 ISZERO PUSH2 0x251 JUMPI PUSH0 DUP1 REVERT JUMPDEST POP PUSH2 0x25A PUSH2 0xB11 JUMP JUMPDEST PUSH1 0x40 MLOAD PUSH2 0x267 SWAP2 SWAP1 PUSH2 0x16E6 JUMP JUMPDEST PUSH1 0x40 MLOAD DUP1 SWAP2 SUB SWAP1 RETURN JUMPDEST CALLVALUE DUP1 ISZERO PUSH2 0x27B JUMPI PUSH0 DUP1 REVERT JUMPDEST POP PUSH2 0x296 PUSH1 0x4 DUP1 CALLDATASIZE SUB DUP2 ADD SWAP1 PUSH2 0x291 SWAP2 SWAP1 PUSH2 0x17FE JUMP JUMPDEST PUSH2 0xB17 JUMP JUMPDEST PUSH1 0x40 MLOAD PUSH2 0x2A3 SWAP2 SWAP1 PUSH2 0x16BE JUMP JUMPDEST PUSH1 0x40 MLOAD DUP1 SWAP2 SUB SWAP1 RETURN JUMPDEST CALLVALUE DUP1 ISZERO PUSH2 0x2B7 JUMPI PUSH0 DUP1 REVERT JUMPDEST POP PUSH2 0x2C0 PUSH2 0xB4B JUMP JUMPDEST PUSH1 0x40 MLOAD PUSH2 0x2CD SWAP2 SWAP1 PUSH2 0x16E6 JUMP JUMPDEST PUSH1 0x40 MLOAD DUP1 SWAP2 SUB SWAP1 RETURN JUMPDEST CALLVALUE DUP1 ISZERO PUSH2 0x2E1 JUMPI PUSH0 DUP1 REVERT JUMPDEST POP PUSH2 0x2FC PUSH1 0x4 DUP1 CALLDATASIZE SUB DUP2 ADD SWAP1 PUSH2 0x2F7 SWAP2 SWAP1 PUSH2 0x183C JUMP JUMPDEST PUSH2 0xB51 JUMP JUMPDEST PUSH1 0x40 MLOAD PUSH2 0x30A SWAP3 SWAP2 SWAP1 PUSH2 0x18A6 JUMP JUMPDEST PUSH1 0x40 MLOAD DUP1 SWAP2 SUB SWAP1 RETURN JUMPDEST CALLVALUE DUP1 ISZERO PUSH2 0x31E JUMPI PUSH0 DUP1 REVERT JUMPDEST POP PUSH2 0x327 PUSH2 0xB90 JUMP JUMPDEST PUSH1 0x40 MLOAD PUSH2 0x334 SWAP2 SWAP1 PUSH2 0x16E6 JUMP JUMPDEST PUSH1 0x40 MLOAD DUP1 SWAP2 SUB SWAP1 RETURN JUMPDEST PUSH0 DUP1 DUP3 PUSH1 0x40 MLOAD PUSH1 0x20 ADD PUSH2 0x350 SWAP2 SWAP1 PUSH2 0x1939 JUMP JUMPDEST PUSH1 0x40 MLOAD PUSH1 0x20 DUP2 DUP4 SUB SUB DUP2 MSTORE SWAP1 PUSH1 0x40 MSTORE PUSH2 0x368 SWAP1 PUSH2 0x1988 JUMP JUMPDEST SWAP1 POP DUP4 DUP2 PUSH1 0x40 MLOAD PUSH1 0x20 ADD PUSH2 0x37D SWAP3 SWAP2 SWAP1 PUSH2 0x1A2E JUMP JUMPDEST PUSH1 0x40 MLOAD PUSH1 0x20 DUP2 DUP4 SUB SUB DUP2 MSTORE SWAP1 PUSH1 0x40 MSTORE DUP1 MLOAD SWAP1 PUSH1 0x20 ADD KECCAK256 SWAP2 POP POP SWAP3 SWAP2 POP POP JUMP JUMPDEST PUSH1 0x5 SLOAD DUP2 JUMP JUMPDEST PUSH1 0x2 PUSH1 0x3 SLOAD EQ PUSH2 0x3B0 JUMPI PUSH0 DUP1 REVERT JUMPDEST PUSH1 0x2 PUSH0 DUP3 DUP2 MSTORE PUSH1 0x20 ADD SWAP1 DUP2 MSTORE PUSH1 0x20 ADD PUSH0 KECCAK256 PUSH1 0x1 ADD PUSH0 SWAP1 SLOAD SWAP1 PUSH2 0x100 EXP SWAP1 DIV PUSH20 0xFFFFFFFFFFFFFFFFFFFFFFFFFFFFFFFFFFFFFFFF AND PUSH20 0xFFFFFFFFFFFFFFFFFFFFFFFFFFFFFFFFFFFFFFFF AND CALLER PUSH20 0xFFFFFFFFFFFFFFFFFFFFFFFFFFFFFFFFFFFFFFFF AND EQ PUSH2 0x41A JUMPI PUSH0 DUP1 REVERT JUMPDEST PUSH0 DUP4 LT ISZERO DUP1 ISZERO PUSH2 0x42B JUMPI POP PUSH1 0x6 DUP4 GT ISZERO JUMPDEST PUSH2 0x433 JUMPI PUSH0 DUP1 REVERT JUMPDEST PUSH0 DUP3 PUSH1 0x40 MLOAD PUSH1 0x20 ADD PUSH2 0x445 SWAP2 SWAP1 PUSH2 0x1939 JUMP JUMPDEST PUSH1 0x40 MLOAD PUSH1 0x20 DUP2 DUP4 SUB SUB DUP2 MSTORE SWAP1 PUSH1 0x40 MSTORE PUSH2 0x45D SWAP1 PUSH2 0x1988 JUMP JUMPDEST SWAP1 POP PUSH2 0x490 DUP5 DUP3 PUSH1 0x40 MLOAD PUSH1 0x20 ADD PUSH2 0x475 SWAP3 SWAP2 SWAP1 PUSH2 0x1A2E JUMP JUMPDEST PUSH1 0x40 MLOAD PUSH1 0x20 DUP2 DUP4 SUB SUB DUP2 MSTORE SWAP1 PUSH1 0x40 MSTORE DUP1 MLOAD SWAP1 PUSH1 0x20 ADD KECCAK256 PUSH2 0xB96 JUMP JUMPDEST DUP4 PUSH1 0x2 PUSH0 DUP5 DUP2 MSTORE PUSH1 0x20 ADD SWAP1 DUP2 MSTORE PUSH1 0x20 ADD PUSH0 KECCAK256 PUSH0 ADD DUP2 SWAP1 SSTORE POP PUSH1 0x5 PUSH0 DUP2 SLOAD DUP1 SWAP3 SWAP2 SWAP1 PUSH2 0x4BA SWAP1 PUSH2 0x1A86 JUMP JUMPDEST SWAP2 SWAP1 POP SSTORE POP TIMESTAMP PUSH1 0x7 DUP2 SWAP1 SSTORE POP PUSH1 0x2 PUSH1 0x5 SLOAD SUB PUSH2 0x4D9 JUMPI PUSH2 0x4D8 PUSH2 0xF54 JUMP JUMPDEST JUMPDEST POP POP POP POP JUMP JUMPDEST PUSH1 0x4 SLOAD DUP2 JUMP JUMPDEST PUSH2 0x12C DUP2 JUMP JUMPDEST PUSH1 0x2 PUSH1 0x3 SLOAD LT PUSH2 0x4F9 JUMPI PUSH0 DUP1 REVERT JUMPDEST PUSH8 0xDE0B6B3A7640000 CALLVALUE EQ PUSH2 0x50C JUMPI PUSH0 DUP1 REVERT JUMPDEST CALLVALUE PUSH1 0x4 PUSH0 DUP3 DUP3 SLOAD PUSH2 0x51D SWAP2 SWAP1 PUSH2 0x1ACD JUMP JUMPDEST SWAP3 POP POP DUP2 SWAP1 SSTORE POP CALLER PUSH1 0x2 PUSH0 PUSH1 0x3 SLOAD DUP2 MSTORE PUSH1 0x20 ADD SWAP1 DUP2 MSTORE PUSH1 0x20 ADD PUSH0 KECCAK256 PUSH1 0x1 ADD PUSH0 PUSH2 0x100 EXP DUP2 SLOAD DUP2 PUSH20 0xFFFFFFFFFFFFFFFFFFFFFFFFFFFFFFFFFFFFFFFF MUL NOT AND SWAP1 DUP4 PUSH20 0xFFFFFFFFFFFFFFFFFFFFFFFFFFFFFFFFFFFFFFFF AND MUL OR SWAP1 SSTORE POP PUSH1 0x7 PUSH1 0x2 PUSH0 PUSH1 0x3 SLOAD DUP2 MSTORE PUSH1 0x20 ADD SWAP1 DUP2 MSTORE PUSH1 0x20 ADD PUSH0 KECCAK256 PUSH0 ADD DUP2 SWAP1 SSTORE POP PUSH1 0x3 PUSH0 DUP2 SLOAD DUP1 SWAP3 SWAP2 SWAP1 PUSH2 0x5A5 SWAP1 PUSH2 0x1A86 JUMP JUMPDEST SWAP2 SWAP1 POP SSTORE POP TIMESTAMP PUSH1 0x7 DUP2 SWAP1 SSTORE POP JUMP JUMPDEST PUSH0 ADDRESS DUP3 PUSH1 0x40 MLOAD PUSH1 0x20 ADD PUSH2 0x5C7 SWAP3 SWAP2 SWAP1 PUSH2 0x1B45 JUMP JUMPDEST PUSH1 0x40 MLOAD PUSH1 0x20 DUP2 DUP4 SUB SUB DUP2 MSTORE SWAP1 PUSH1 0x40 MSTORE DUP1 MLOAD SWAP1 PUSH1 0x20 ADD KECCAK256 SWAP1 POP SWAP2 SWAP1 POP JUMP JUMPDEST PUSH2 0x12C PUSH1 0x7 SLOAD TIMESTAMP PUSH2 0x5F5 SWAP2 SWAP1 PUSH2 0x1B70 JUMP JUMPDEST GT PUSH2 0x5FE JUMPI PUSH0 DUP1 REVERT JUMPDEST PUSH0 PUSH1 0x3 SLOAD GT PUSH2 0x60B JUMPI PUSH0 DUP1 REVERT JUMPDEST PUSH1 0x1 PUSH1 0x3 SLOAD SUB PUSH2 0x70A JUMPI PUSH1 0x2 PUSH0 DUP1 DUP2 MSTORE PUSH1 0x20 ADD SWAP1 DUP2 MSTORE PUSH1 0x20 ADD PUSH0 KECCAK256 PUSH1 0x1 ADD PUSH0 SWAP1 SLOAD SWAP1 PUSH2 0x100 EXP SWAP1 DIV PUSH20 0xFFFFFFFFFFFFFFFFFFFFFFFFFFFFFFFFFFFFFFFF AND PUSH20 0xFFFFFFFFFFFFFFFFFFFFFFFFFFFFFFFFFFFFFFFF AND CALLER PUSH20 0xFFFFFFFFFFFFFFFFFFFFFFFFFFFFFFFFFFFFFFFF AND EQ PUSH2 0x67F JUMPI PUSH0 DUP1 REVERT JUMPDEST PUSH0 PUSH1 0x2 PUSH0 DUP1 DUP2 MSTORE PUSH1 0x20 ADD SWAP1 DUP2 MSTORE PUSH1 0x20 ADD PUSH0 KECCAK256 PUSH1 0x1 ADD PUSH0 SWAP1 SLOAD SWAP1 PUSH2 0x100 EXP SWAP1 DIV PUSH20 0xFFFFFFFFFFFFFFFFFFFFFFFFFFFFFFFFFFFFFFFF AND SWAP1 POP DUP1 PUSH20 0xFFFFFFFFFFFFFFFFFFFFFFFFFFFFFFFFFFFFFFFF AND PUSH2 0x8FC PUSH1 0x4 SLOAD SWAP1 DUP2 ISZERO MUL SWAP1 PUSH1 0x40 MLOAD PUSH0 PUSH1 0x40 MLOAD DUP1 DUP4 SUB DUP2 DUP6 DUP9 DUP9 CALL SWAP4 POP POP POP POP ISZERO DUP1 ISZERO PUSH2 0x6FB JUMPI RETURNDATASIZE PUSH0 DUP1 RETURNDATACOPY RETURNDATASIZE PUSH0 REVERT JUMPDEST POP PUSH2 0x704 PUSH2 0x1204 JUMP JUMPDEST POP PUSH2 0xA64 JUMP JUMPDEST PUSH1 0x2 PUSH1 0x3 SLOAD SUB PUSH2 0xA63 JUMPI PUSH1 0x2 PUSH0 DUP1 DUP2 MSTORE PUSH1 0x20 ADD SWAP1 DUP2 MSTORE PUSH1 0x20 ADD PUSH0 KECCAK256 PUSH1 0x1 ADD PUSH0 SWAP1 SLOAD SWAP1 PUSH2 0x100 EXP SWAP1 DIV PUSH20 0xFFFFFFFFFFFFFFFFFFFFFFFFFFFFFFFFFFFFFFFF AND PUSH20 0xFFFFFFFFFFFFFFFFFFFFFFFFFFFFFFFFFFFFFFFF AND CALLER PUSH20 0xFFFFFFFFFFFFFFFFFFFFFFFFFFFFFFFFFFFFFFFF AND EQ DUP1 PUSH2 0x7E0 JUMPI POP PUSH1 0x2 PUSH0 PUSH1 0x1 DUP2 MSTORE PUSH1 0x20 ADD SWAP1 DUP2 MSTORE PUSH1 0x20 ADD PUSH0 KECCAK256 PUSH1 0x1 ADD PUSH0 SWAP1 SLOAD SWAP1 PUSH2 0x100 EXP SWAP1 DIV PUSH20 0xFFFFFFFFFFFFFFFFFFFFFFFFFFFFFFFFFFFFFFFF AND PUSH20 0xFFFFFFFFFFFFFFFFFFFFFFFFFFFFFFFFFFFFFFFF AND CALLER PUSH20 0xFFFFFFFFFFFFFFFFFFFFFFFFFFFFFFFFFFFFFFFF AND EQ JUMPDEST PUSH2 0x7E8 JUMPI PUSH0 DUP1 REVERT JUMPDEST PUSH0 PUSH1 0x5 SLOAD SUB PUSH2 0x913 JUMPI PUSH0 PUSH1 0x2 PUSH0 DUP1 DUP2 MSTORE PUSH1 0x20 ADD SWAP1 DUP2 MSTORE PUSH1 0x20 ADD PUSH0 KECCAK256 PUSH1 0x1 ADD PUSH0 SWAP1 SLOAD SWAP1 PUSH2 0x100 EXP SWAP1 DIV PUSH20 0xFFFFFFFFFFFFFFFFFFFFFFFFFFFFFFFFFFFFFFFF AND SWAP1 POP PUSH0 PUSH1 0x2 PUSH0 PUSH1 0x1 DUP2 MSTORE PUSH1 0x20 ADD SWAP1 DUP2 MSTORE PUSH1 0x20 ADD PUSH0 KECCAK256 PUSH1 0x1 ADD PUSH0 SWAP1 SLOAD SWAP1 PUSH2 0x100 EXP SWAP1 DIV PUSH20 0xFFFFFFFFFFFFFFFFFFFFFFFFFFFFFFFFFFFFFFFF AND SWAP1 POP DUP2 PUSH20 0xFFFFFFFFFFFFFFFFFFFFFFFFFFFFFFFFFFFFFFFF AND PUSH2 0x8FC PUSH1 0x2 PUSH1 0x4 SLOAD PUSH2 0x889 SWAP2 SWAP1 PUSH2 0x1BD0 JUMP JUMPDEST SWAP1 DUP2 ISZERO MUL SWAP1 PUSH1 0x40 MLOAD PUSH0 PUSH1 0x40 MLOAD DUP1 DUP4 SUB DUP2 DUP6 DUP9 DUP9 CALL SWAP4 POP POP POP POP ISZERO DUP1 ISZERO PUSH2 0x8B1 JUMPI RETURNDATASIZE PUSH0 DUP1 RETURNDATACOPY RETURNDATASIZE PUSH0 REVERT JUMPDEST POP DUP1 PUSH20 0xFFFFFFFFFFFFFFFFFFFFFFFFFFFFFFFFFFFFFFFF AND PUSH2 0x8FC PUSH1 0x2 PUSH1 0x4 SLOAD PUSH2 0x8DB SWAP2 SWAP1 PUSH2 0x1BD0 JUMP JUMPDEST SWAP1 DUP2 ISZERO MUL SWAP1 PUSH1 0x40 MLOAD PUSH0 PUSH1 0x40 MLOAD DUP1 DUP4 SUB DUP2 DUP6 DUP9 DUP9 CALL SWAP4 POP POP POP POP ISZERO DUP1 ISZERO PUSH2 0x903 JUMPI RETURNDATASIZE PUSH0 DUP1 RETURNDATACOPY RETURNDATASIZE PUSH0 REVERT JUMPDEST POP PUSH2 0x90C PUSH2 0x1204 JUMP JUMPDEST POP POP PUSH2 0xA62 JUMP JUMPDEST PUSH1 0x1 PUSH1 0x5 SLOAD SUB PUSH2 0xA61 JUMPI PUSH1 0x7 PUSH1 0x2 PUSH0 DUP1 DUP2 MSTORE PUSH1 0x20 ADD SWAP1 DUP2 MSTORE PUSH1 0x20 ADD PUSH0 KECCAK256 PUSH0 ADD SLOAD SUB PUSH2 0x9BC JUMPI PUSH0 PUSH1 0x2 PUSH0 PUSH1 0x1 DUP2 MSTORE PUSH1 0x20 ADD SWAP1 DUP2 MSTORE PUSH1 0x20 ADD PUSH0 KECCAK256 PUSH1 0x1 ADD PUSH0 SWAP1 SLOAD SWAP1 PUSH2 0x100 EXP SWAP1 DIV PUSH20 0xFFFFFFFFFFFFFFFFFFFFFFFFFFFFFFFFFFFFFFFF AND SWAP1 POP DUP1 PUSH20 0xFFFFFFFFFFFFFFFFFFFFFFFFFFFFFFFFFFFFFFFF AND PUSH2 0x8FC PUSH1 0x4 SLOAD SWAP1 DUP2 ISZERO MUL SWAP1 PUSH1 0x40 MLOAD PUSH0 PUSH1 0x40 MLOAD DUP1 DUP4 SUB DUP2 DUP6 DUP9 DUP9 CALL SWAP4 POP POP POP POP ISZERO DUP1 ISZERO PUSH2 0x9B5 JUMPI RETURNDATASIZE PUSH0 DUP1 RETURNDATACOPY RETURNDATASIZE PUSH0 REVERT JUMPDEST POP POP PUSH2 0xA58 JUMP JUMPDEST PUSH1 0x7 PUSH1 0x2 PUSH0 PUSH1 0x1 DUP2 MSTORE PUSH1 0x20 ADD SWAP1 DUP2 MSTORE PUSH1 0x20 ADD PUSH0 KECCAK256 PUSH0 ADD SLOAD SUB PUSH2 0xA57 JUMPI PUSH0 PUSH1 0x2 PUSH0 DUP1 DUP2 MSTORE PUSH1 0x20 ADD SWAP1 DUP2 MSTORE PUSH1 0x20 ADD PUSH0 KECCAK256 PUSH1 0x1 ADD PUSH0 SWAP1 SLOAD SWAP1 PUSH2 0x100 EXP SWAP1 DIV PUSH20 0xFFFFFFFFFFFFFFFFFFFFFFFFFFFFFFFFFFFFFFFF AND SWAP1 POP DUP1 PUSH20 0xFFFFFFFFFFFFFFFFFFFFFFFFFFFFFFFFFFFFFFFF AND PUSH2 0x8FC PUSH1 0x4 SLOAD SWAP1 DUP2 ISZERO MUL SWAP1 PUSH1 0x40 MLOAD PUSH0 PUSH1 0x40 MLOAD DUP1 DUP4 SUB DUP2 DUP6 DUP9 DUP9 CALL SWAP4 POP POP POP POP ISZERO DUP1 ISZERO PUSH2 0xA54 JUMPI RETURNDATASIZE PUSH0 DUP1 RETURNDATACOPY RETURNDATASIZE PUSH0 REVERT JUMPDEST POP POP JUMPDEST JUMPDEST PUSH2 0xA60 PUSH2 0x1204 JUMP JUMPDEST JUMPDEST JUMPDEST JUMPDEST JUMPDEST JUMP JUMPDEST PUSH1 0x2 PUSH1 0x3 SLOAD EQ PUSH2 0xA74 JUMPI PUSH0 DUP1 REVERT JUMPDEST PUSH1 0x2 PUSH0 DUP3 DUP2 MSTORE PUSH1 0x20 ADD SWAP1 DUP2 MSTORE PUSH1 0x20 ADD PUSH0 KECCAK256 PUSH1 0x1 ADD PUSH0 SWAP1 SLOAD SWAP1 PUSH2 0x100 EXP SWAP1 DIV PUSH20 0xFFFFFFFFFFFFFFFFFFFFFFFFFFFFFFFFFFFFFFFF AND PUSH20 0xFFFFFFFFFFFFFFFFFFFFFFFFFFFFFFFFFFFFFFFF AND CALLER PUSH20 0xFFFFFFFFFFFFFFFFFFFFFFFFFFFFFFFFFFFFFFFF AND EQ PUSH2 0xADE JUMPI PUSH0 DUP1 REVERT JUMPDEST PUSH2 0xAEF PUSH2 0xAEA DUP4 PUSH2 0x5B3 JUMP JUMPDEST PUSH2 0x12FA JUMP JUMPDEST PUSH1 0x6 PUSH0 DUP2 SLOAD DUP1 SWAP3 SWAP2 SWAP1 PUSH2 0xB01 SWAP1 PUSH2 0x1A86 JUMP JUMPDEST SWAP2 SWAP1 POP SSTORE POP TIMESTAMP PUSH1 0x7 DUP2 SWAP1 SSTORE POP POP POP JUMP JUMPDEST PUSH1 0x7 SLOAD DUP2 JUMP JUMPDEST PUSH0 ADDRESS DUP4 DUP4 PUSH1 0x40 MLOAD PUSH1 0x20 ADD PUSH2 0xB2D SWAP4 SWAP3 SWAP2 SWAP1 PUSH2 0x1C00 JUMP JUMPDEST PUSH1 0x40 MLOAD PUSH1 0x20 DUP2 DUP4 SUB SUB DUP2 MSTORE SWAP1 PUSH1 0x40 MSTORE DUP1 MLOAD SWAP1 PUSH1 0x20 ADD KECCAK256 SWAP1 POP SWAP3 SWAP2 POP POP JUMP JUMPDEST PUSH1 0x3 SLOAD DUP2 JUMP JUMPDEST PUSH1 0x2 PUSH1 0x20 MSTORE DUP1 PUSH0 MSTORE PUSH1 0x40 PUSH0 KECCAK256 PUSH0 SWAP2 POP SWAP1 POP DUP1 PUSH0 ADD SLOAD SWAP1 DUP1 PUSH1 0x1 ADD PUSH0 SWAP1 SLOAD SWAP1 PUSH2 0x100 EXP SWAP1 DIV PUSH20 0xFFFFFFFFFFFFFFFFFFFFFFFFFFFFFFFFFFFFFFFF AND SWAP1 POP DUP3 JUMP JUMPDEST PUSH1 0x6 SLOAD DUP2 JUMP JUMPDEST PUSH0 ISZERO ISZERO PUSH1 0x1 PUSH0 CALLER PUSH20 0xFFFFFFFFFFFFFFFFFFFFFFFFFFFFFFFFFFFFFFFF AND PUSH20 0xFFFFFFFFFFFFFFFFFFFFFFFFFFFFFFFFFFFFFFFF AND DUP2 MSTORE PUSH1 0x20 ADD SWAP1 DUP2 MSTORE PUSH1 0x20 ADD PUSH0 KECCAK256 PUSH1 0x1 ADD PUSH1 0x8 SWAP1 SLOAD SWAP1 PUSH2 0x100 EXP SWAP1 DIV PUSH1 0xFF AND ISZERO ISZERO EQ PUSH2 0xC29 JUMPI PUSH1 0x40 MLOAD PUSH32 0x8C379A000000000000000000000000000000000000000000000000000000000 DUP2 MSTORE PUSH1 0x4 ADD PUSH2 0xC20 SWAP1 PUSH2 0x1CBC JUMP JUMPDEST PUSH1 0x40 MLOAD DUP1 SWAP2 SUB SWAP1 REVERT JUMPDEST PUSH1 0x1 DUP1 PUSH0 CALLER PUSH20 0xFFFFFFFFFFFFFFFFFFFFFFFFFFFFFFFFFFFFFFFF AND PUSH20 0xFFFFFFFFFFFFFFFFFFFFFFFFFFFFFFFFFFFFFFFF AND DUP2 MSTORE PUSH1 0x20 ADD SWAP1 DUP2 MSTORE PUSH1 0x20 ADD PUSH0 KECCAK256 PUSH1 0x1 ADD PUSH1 0x8 PUSH2 0x100 EXP DUP2 SLOAD DUP2 PUSH1 0xFF MUL NOT AND SWAP1 DUP4 ISZERO ISZERO MUL OR SWAP1 SSTORE POP PUSH1 0x1 PUSH0 CALLER PUSH20 0xFFFFFFFFFFFFFFFFFFFFFFFFFFFFFFFFFFFFFFFF AND PUSH20 0xFFFFFFFFFFFFFFFFFFFFFFFFFFFFFFFFFFFFFFFF AND DUP2 MSTORE PUSH1 0x20 ADD SWAP1 DUP2 MSTORE PUSH1 0x20 ADD PUSH0 KECCAK256 PUSH0 ADD SLOAD PUSH2 0xCCA DUP3 PUSH2 0x5B3 JUMP JUMPDEST EQ PUSH2 0xD0A JUMPI PUSH1 0x40 MLOAD PUSH32 0x8C379A000000000000000000000000000000000000000000000000000000000 DUP2 MSTORE PUSH1 0x4 ADD PUSH2 0xD01 SWAP1 PUSH2 0x1D4A JUMP JUMPDEST PUSH1 0x40 MLOAD DUP1 SWAP2 SUB SWAP1 REVERT JUMPDEST PUSH1 0x1 PUSH0 CALLER PUSH20 0xFFFFFFFFFFFFFFFFFFFFFFFFFFFFFFFFFFFFFFFF AND PUSH20 0xFFFFFFFFFFFFFFFFFFFFFFFFFFFFFFFFFFFFFFFF AND DUP2 MSTORE PUSH1 0x20 ADD SWAP1 DUP2 MSTORE PUSH1 0x20 ADD PUSH0 KECCAK256 PUSH1 0x1 ADD PUSH0 SWAP1 SLOAD SWAP1 PUSH2 0x100 EXP SWAP1 DIV PUSH8 0xFFFFFFFFFFFFFFFF AND PUSH8 0xFFFFFFFFFFFFFFFF AND NUMBER PUSH8 0xFFFFFFFFFFFFFFFF AND GT PUSH2 0xDB3 JUMPI PUSH1 0x40 MLOAD PUSH32 0x8C379A000000000000000000000000000000000000000000000000000000000 DUP2 MSTORE PUSH1 0x4 ADD PUSH2 0xDAA SWAP1 PUSH2 0x1DFE JUMP JUMPDEST PUSH1 0x40 MLOAD DUP1 SWAP2 SUB SWAP1 REVERT JUMPDEST PUSH1 0xFA PUSH1 0x1 PUSH0 CALLER PUSH20 0xFFFFFFFFFFFFFFFFFFFFFFFFFFFFFFFFFFFFFFFF AND PUSH20 0xFFFFFFFFFFFFFFFFFFFFFFFFFFFFFFFFFFFFFFFF AND DUP2 MSTORE PUSH1 0x20 ADD SWAP1 DUP2 MSTORE PUSH1 0x20 ADD PUSH0 KECCAK256 PUSH1 0x1 ADD PUSH0 SWAP1 SLOAD SWAP1 PUSH2 0x100 EXP SWAP1 DIV PUSH8 0xFFFFFFFFFFFFFFFF AND PUSH2 0xE13 SWAP2 SWAP1 PUSH2 0x1E2F JUMP JUMPDEST PUSH8 0xFFFFFFFFFFFFFFFF AND NUMBER PUSH8 0xFFFFFFFFFFFFFFFF AND GT ISZERO PUSH2 0xE69 JUMPI PUSH1 0x40 MLOAD PUSH32 0x8C379A000000000000000000000000000000000000000000000000000000000 DUP2 MSTORE PUSH1 0x4 ADD PUSH2 0xE60 SWAP1 PUSH2 0x1EDA JUMP JUMPDEST PUSH1 0x40 MLOAD DUP1 SWAP2 SUB SWAP1 REVERT JUMPDEST PUSH0 PUSH1 0x1 PUSH0 CALLER PUSH20 0xFFFFFFFFFFFFFFFFFFFFFFFFFFFFFFFFFFFFFFFF AND PUSH20 0xFFFFFFFFFFFFFFFFFFFFFFFFFFFFFFFFFFFFFFFF AND DUP2 MSTORE PUSH1 0x20 ADD SWAP1 DUP2 MSTORE PUSH1 0x20 ADD PUSH0 KECCAK256 PUSH1 0x1 ADD PUSH0 SWAP1 SLOAD SWAP1 PUSH2 0x100 EXP SWAP1 DIV PUSH8 0xFFFFFFFFFFFFFFFF AND PUSH8 0xFFFFFFFFFFFFFFFF AND BLOCKHASH SWAP1 POP PUSH0 DUP1 PUSH0 SWAP1 SLOAD SWAP1 PUSH2 0x100 EXP SWAP1 DIV PUSH1 0xFF AND PUSH1 0xFF AND DUP3 DUP5 PUSH1 0x40 MLOAD PUSH1 0x20 ADD PUSH2 0xEF0 SWAP3 SWAP2 SWAP1 PUSH2 0x1EF8 JUMP JUMPDEST PUSH1 0x40 MLOAD PUSH1 0x20 DUP2 DUP4 SUB SUB DUP2 MSTORE SWAP1 PUSH1 0x40 MSTORE DUP1 MLOAD SWAP1 PUSH1 0x20 ADD KECCAK256 PUSH0 SHR PUSH2 0xF12 SWAP2 SWAP1 PUSH2 0x1F23 JUMP JUMPDEST SWAP1 POP PUSH32 0xBC016DD1CADEAEFCB851AF7A0A93532E0023D536894B730801F7BCFE7065BCC2 CALLER DUP5 DUP4 PUSH1 0x40 MLOAD PUSH2 0xF47 SWAP4 SWAP3 SWAP2 SWAP1 PUSH2 0x1F53 JUMP JUMPDEST PUSH1 0x40 MLOAD DUP1 SWAP2 SUB SWAP1 LOG1 POP POP POP JUMP JUMPDEST PUSH0 PUSH1 0x2 PUSH0 DUP1 DUP2 MSTORE PUSH1 0x20 ADD SWAP1 DUP2 MSTORE PUSH1 0x20 ADD PUSH0 KECCAK256 PUSH0 ADD SLOAD SWAP1 POP PUSH0 PUSH1 0x2 PUSH0 PUSH1 0x1 DUP2 MSTORE PUSH1 0x20 ADD SWAP1 DUP2 MSTORE PUSH1 0x20 ADD PUSH0 KECCAK256 PUSH0 ADD SLOAD SWAP1 POP PUSH0 PUSH1 0x2 PUSH0 DUP1 DUP2 MSTORE PUSH1 0x20 ADD SWAP1 DUP2 MSTORE PUSH1 0x20 ADD PUSH0 KECCAK256 PUSH1 0x1 ADD PUSH0 SWAP1 SLOAD SWAP1 PUSH2 0x100 EXP SWAP1 DIV PUSH20 0xFFFFFFFFFFFFFFFFFFFFFFFFFFFFFFFFFFFFFFFF AND SWAP1 POP PUSH0 PUSH1 0x2 PUSH0 PUSH1 0x1 DUP2 MSTORE PUSH1 0x20 ADD SWAP1 DUP2 MSTORE PUSH1 0x20 ADD PUSH0 KECCAK256 PUSH1 0x1 ADD PUSH0 SWAP1 SLOAD SWAP1 PUSH2 0x100 EXP SWAP1 DIV PUSH20 0xFFFFFFFFFFFFFFFFFFFFFFFFFFFFFFFFFFFFFFFF AND SWAP1 POP DUP3 PUSH1 0x7 PUSH1 0x1 DUP7 PUSH2 0x1002 SWAP2 SWAP1 PUSH2 0x1ACD JUMP JUMPDEST PUSH2 0x100C SWAP2 SWAP1 PUSH2 0x1F23 JUMP JUMPDEST EQ DUP1 PUSH2 0x102F JUMPI POP DUP3 PUSH1 0x7 PUSH1 0x2 DUP7 PUSH2 0x1023 SWAP2 SWAP1 PUSH2 0x1ACD JUMP JUMPDEST PUSH2 0x102D SWAP2 SWAP1 PUSH2 0x1F23 JUMP JUMPDEST EQ JUMPDEST DUP1 PUSH2 0x1051 JUMPI POP DUP3 PUSH1 0x7 PUSH1 0x3 DUP7 PUSH2 0x1045 SWAP2 SWAP1 PUSH2 0x1ACD JUMP JUMPDEST PUSH2 0x104F SWAP2 SWAP1 PUSH2 0x1F23 JUMP JUMPDEST EQ JUMPDEST ISZERO PUSH2 0x10A1 JUMPI DUP1 PUSH20 0xFFFFFFFFFFFFFFFFFFFFFFFFFFFFFFFFFFFFFFFF AND PUSH2 0x8FC PUSH1 0x4 SLOAD SWAP1 DUP2 ISZERO MUL SWAP1 PUSH1 0x40 MLOAD PUSH0 PUSH1 0x40 MLOAD DUP1 DUP4 SUB DUP2 DUP6 DUP9 DUP9 CALL SWAP4 POP POP POP POP ISZERO DUP1 ISZERO PUSH2 0x109B JUMPI RETURNDATASIZE PUSH0 DUP1 RETURNDATACOPY RETURNDATASIZE PUSH0 REVERT JUMPDEST POP PUSH2 0x11F6 JUMP JUMPDEST DUP4 PUSH1 0x7 PUSH1 0x1 DUP6 PUSH2 0x10B1 SWAP2 SWAP1 PUSH2 0x1ACD JUMP JUMPDEST PUSH2 0x10BB SWAP2 SWAP1 PUSH2 0x1F23 JUMP JUMPDEST EQ DUP1 PUSH2 0x10DE JUMPI POP DUP4 PUSH1 0x7 PUSH1 0x2 DUP6 PUSH2 0x10D2 SWAP2 SWAP1 PUSH2 0x1ACD JUMP JUMPDEST PUSH2 0x10DC SWAP2 SWAP1 PUSH2 0x1F23 JUMP JUMPDEST EQ JUMPDEST DUP1 PUSH2 0x1100 JUMPI POP DUP4 PUSH1 0x7 PUSH1 0x3 DUP6 PUSH2 0x10F4 SWAP2 SWAP1 PUSH2 0x1ACD JUMP JUMPDEST PUSH2 0x10FE SWAP2 SWAP1 PUSH2 0x1F23 JUMP JUMPDEST EQ JUMPDEST ISZERO PUSH2 0x1150 JUMPI DUP2 PUSH20 0xFFFFFFFFFFFFFFFFFFFFFFFFFFFFFFFFFFFFFFFF AND PUSH2 0x8FC PUSH1 0x4 SLOAD SWAP1 DUP2 ISZERO MUL SWAP1 PUSH1 0x40 MLOAD PUSH0 PUSH1 0x40 MLOAD DUP1 DUP4 SUB DUP2 DUP6 DUP9 DUP9 CALL SWAP4 POP POP POP POP ISZERO DUP1 ISZERO PUSH2 0x114A JUMPI RETURNDATASIZE PUSH0 DUP1 RETURNDATACOPY RETURNDATASIZE PUSH0 REVERT JUMPDEST POP PUSH2 0x11F5 JUMP JUMPDEST DUP2 PUSH20 0xFFFFFFFFFFFFFFFFFFFFFFFFFFFFFFFFFFFFFFFF AND PUSH2 0x8FC PUSH1 0x2 PUSH1 0x4 SLOAD PUSH2 0x1179 SWAP2 SWAP1 PUSH2 0x1BD0 JUMP JUMPDEST SWAP1 DUP2 ISZERO MUL SWAP1 PUSH1 0x40 MLOAD PUSH0 PUSH1 0x40 MLOAD DUP1 DUP4 SUB DUP2 DUP6 DUP9 DUP9 CALL SWAP4 POP POP POP POP ISZERO DUP1 ISZERO PUSH2 0x11A1 JUMPI RETURNDATASIZE PUSH0 DUP1 RETURNDATACOPY RETURNDATASIZE PUSH0 REVERT JUMPDEST POP DUP1 PUSH20 0xFFFFFFFFFFFFFFFFFFFFFFFFFFFFFFFFFFFFFFFF AND PUSH2 0x8FC PUSH1 0x2 PUSH1 0x4 SLOAD PUSH2 0x11CB SWAP2 SWAP1 PUSH2 0x1BD0 JUMP JUMPDEST SWAP1 DUP2 ISZERO MUL SWAP1 PUSH1 0x40 MLOAD PUSH0 PUSH1 0x40 MLOAD DUP1 DUP4 SUB DUP2 DUP6 DUP9 DUP9 CALL SWAP4 POP POP POP POP ISZERO DUP1 ISZERO PUSH2 0x11F3 JUMPI RETURNDATASIZE PUSH0 DUP1 RETURNDATACOPY RETURNDATASIZE PUSH0 REVERT JUMPDEST POP JUMPDEST JUMPDEST PUSH2 0x11FE PUSH2 0x1204 JUMP JUMPDEST POP POP POP POP JUMP JUMPDEST PUSH0 PUSH1 0x3 DUP2 SWAP1 SSTORE POP PUSH0 PUSH1 0x4 DUP2 SWAP1 SSTORE POP PUSH0 PUSH1 0x5 DUP2 SWAP1 SSTORE POP PUSH0 PUSH1 0x6 DUP2 SWAP1 SSTORE POP PUSH1 0x7 PUSH1 0x2 PUSH0 DUP1 DUP2 MSTORE PUSH1 0x20 ADD SWAP1 DUP2 MSTORE PUSH1 0x20 ADD PUSH0 KECCAK256 PUSH0 ADD DUP2 SWAP1 SSTORE POP PUSH0 PUSH1 0x2 PUSH0 DUP1 DUP2 MSTORE PUSH1 0x20 ADD SWAP1 DUP2 MSTORE PUSH1 0x20 ADD PUSH0 KECCAK256 PUSH1 0x1 ADD PUSH0 PUSH2 0x100 EXP DUP2 SLOAD DUP2 PUSH20 0xFFFFFFFFFFFFFFFFFFFFFFFFFFFFFFFFFFFFFFFF MUL NOT AND SWAP1 DUP4 PUSH20 0xFFFFFFFFFFFFFFFFFFFFFFFFFFFFFFFFFFFFFFFF AND MUL OR SWAP1 SSTORE POP PUSH1 0x7 PUSH1 0x2 PUSH0 PUSH1 0x1 DUP2 MSTORE PUSH1 0x20 ADD SWAP1 DUP2 MSTORE PUSH1 0x20 ADD PUSH0 KECCAK256 PUSH0 ADD DUP2 SWAP1 SSTORE POP PUSH0 PUSH1 0x2 PUSH0 PUSH1 0x1 DUP2 MSTORE PUSH1 0x20 ADD SWAP1 DUP2 MSTORE PUSH1 0x20 ADD PUSH0 KECCAK256 PUSH1 0x1 ADD PUSH0 PUSH2 0x100 EXP DUP2 SLOAD DUP2 PUSH20 0xFFFFFFFFFFFFFFFFFFFFFFFFFFFFFFFFFFFFFFFF MUL NOT AND SWAP1 DUP4 PUSH20 0xFFFFFFFFFFFFFFFFFFFFFFFFFFFFFFFFFFFFFFFF AND MUL OR SWAP1 SSTORE POP JUMP JUMPDEST DUP1 PUSH1 0x1 PUSH0 CALLER PUSH20 0xFFFFFFFFFFFFFFFFFFFFFFFFFFFFFFFFFFFFFFFF AND PUSH20 0xFFFFFFFFFFFFFFFFFFFFFFFFFFFFFFFFFFFFFFFF AND DUP2 MSTORE PUSH1 0x20 ADD SWAP1 DUP2 MSTORE PUSH1 0x20 ADD PUSH0 KECCAK256 PUSH0 ADD DUP2 SWAP1 SSTORE POP NUMBER PUSH1 0x1 PUSH0 CALLER PUSH20 0xFFFFFFFFFFFFFFFFFFFFFFFFFFFFFFFFFFFFFFFF AND PUSH20 0xFFFFFFFFFFFFFFFFFFFFFFFFFFFFFFFFFFFFFFFF AND DUP2 MSTORE PUSH1 0x20 ADD SWAP1 DUP2 MSTORE PUSH1 0x20 ADD PUSH0 KECCAK256 PUSH1 0x1 ADD PUSH0 PUSH2 0x100 EXP DUP2 SLOAD DUP2 PUSH8 0xFFFFFFFFFFFFFFFF MUL NOT AND SWAP1 DUP4 PUSH8 0xFFFFFFFFFFFFFFFF AND MUL OR SWAP1 SSTORE POP PUSH0 PUSH1 0x1 PUSH0 CALLER PUSH20 0xFFFFFFFFFFFFFFFFFFFFFFFFFFFFFFFFFFFFFFFF AND PUSH20 0xFFFFFFFFFFFFFFFFFFFFFFFFFFFFFFFFFFFFFFFF AND DUP2 MSTORE PUSH1 0x20 ADD SWAP1 DUP2 MSTORE PUSH1 0x20 ADD PUSH0 KECCAK256 PUSH1 0x1 ADD PUSH1 0x8 PUSH2 0x100 EXP DUP2 SLOAD DUP2 PUSH1 0xFF MUL NOT AND SWAP1 DUP4 ISZERO ISZERO MUL OR SWAP1 SSTORE POP PUSH32 0x3C1A1F8F38335B17F751C6DA4BA7D1865F26B3997535176F5080DE9FAD891603 CALLER PUSH1 0x1 PUSH0 CALLER PUSH20 0xFFFFFFFFFFFFFFFFFFFFFFFFFFFFFFFFFFFFFFFF AND PUSH20 0xFFFFFFFFFFFFFFFFFFFFFFFFFFFFFFFFFFFFFFFF AND DUP2 MSTORE PUSH1 0x20 ADD SWAP1 DUP2 MSTORE PUSH1 0x20 ADD PUSH0 KECCAK256 PUSH0 ADD SLOAD PUSH1 0x1 PUSH0 CALLER PUSH20 0xFFFFFFFFFFFFFFFFFFFFFFFFFFFFFFFFFFFFFFFF AND PUSH20 0xFFFFFFFFFFFFFFFFFFFFFFFFFFFFFFFFFFFFFFFF AND DUP2 MSTORE PUSH1 0x20 ADD SWAP1 DUP2 MSTORE PUSH1 0x20 ADD PUSH0 KECCAK256 PUSH1 0x1 ADD PUSH0 SWAP1 SLOAD SWAP1 PUSH2 0x100 EXP SWAP1 DIV PUSH8 0xFFFFFFFFFFFFFFFF AND PUSH1 0x40 MLOAD PUSH2 0x14C1 SWAP4 SWAP3 SWAP2 SWAP1 PUSH2 0x1F97 JUMP JUMPDEST PUSH1 0x40 MLOAD DUP1 SWAP2 SUB SWAP1 LOG1 POP JUMP JUMPDEST PUSH0 PUSH1 0x40 MLOAD SWAP1 POP SWAP1 JUMP JUMPDEST PUSH0 DUP1 REVERT JUMPDEST PUSH0 DUP1 REVERT JUMPDEST PUSH0 DUP2 SWAP1 POP SWAP2 SWAP1 POP JUMP JUMPDEST PUSH2 0x14EF DUP2 PUSH2 0x14DD JUMP JUMPDEST DUP2 EQ PUSH2 0x14F9 JUMPI PUSH0 DUP1 REVERT JUMPDEST POP JUMP JUMPDEST PUSH0 DUP2 CALLDATALOAD SWAP1 POP PUSH2 0x150A DUP2 PUSH2 0x14E6 JUMP JUMPDEST SWAP3 SWAP2 POP POP JUMP JUMPDEST PUSH0 DUP1 REVERT JUMPDEST PUSH0 DUP1 REVERT JUMPDEST PUSH0 PUSH1 0x1F NOT PUSH1 0x1F DUP4 ADD AND SWAP1 POP SWAP2 SWAP1 POP JUMP JUMPDEST PUSH32 0x4E487B7100000000000000000000000000000000000000000000000000000000 PUSH0 MSTORE PUSH1 0x41 PUSH1 0x4 MSTORE PUSH1 0x24 PUSH0 REVERT JUMPDEST PUSH2 0x155E DUP3 PUSH2 0x1518 JUMP JUMPDEST DUP2 ADD DUP2 DUP2 LT PUSH8 0xFFFFFFFFFFFFFFFF DUP3 GT OR ISZERO PUSH2 0x157D JUMPI PUSH2 0x157C PUSH2 0x1528 JUMP JUMPDEST JUMPDEST DUP1 PUSH1 0x40 MSTORE POP POP POP JUMP JUMPDEST PUSH0 PUSH2 0x158F PUSH2 0x14CC JUMP JUMPDEST SWAP1 POP PUSH2 0x159B DUP3 DUP3 PUSH2 0x1555 JUMP JUMPDEST SWAP2 SWAP1 POP JUMP JUMPDEST PUSH0 PUSH8 0xFFFFFFFFFFFFFFFF DUP3 GT ISZERO PUSH2 0x15BA JUMPI PUSH2 0x15B9 PUSH2 0x1528 JUMP JUMPDEST JUMPDEST PUSH2 0x15C3 DUP3 PUSH2 0x1518 JUMP JUMPDEST SWAP1 POP PUSH1 0x20 DUP2 ADD SWAP1 POP SWAP2 SWAP1 POP JUMP JUMPDEST DUP3 DUP2 DUP4 CALLDATACOPY PUSH0 DUP4 DUP4 ADD MSTORE POP POP POP JUMP JUMPDEST PUSH0 PUSH2 0x15F0 PUSH2 0x15EB DUP5 PUSH2 0x15A0 JUMP JUMPDEST PUSH2 0x1586 JUMP JUMPDEST SWAP1 POP DUP3 DUP2 MSTORE PUSH1 0x20 DUP2 ADD DUP5 DUP5 DUP5 ADD GT ISZERO PUSH2 0x160C JUMPI PUSH2 0x160B PUSH2 0x1514 JUMP JUMPDEST JUMPDEST PUSH2 0x1617 DUP5 DUP3 DUP6 PUSH2 0x15D0 JUMP JUMPDEST POP SWAP4 SWAP3 POP POP POP JUMP JUMPDEST PUSH0 DUP3 PUSH1 0x1F DUP4 ADD SLT PUSH2 0x1633 JUMPI PUSH2 0x1632 PUSH2 0x1510 JUMP JUMPDEST JUMPDEST DUP2 CALLDATALOAD PUSH2 0x1643 DUP5 DUP3 PUSH1 0x20 DUP7 ADD PUSH2 0x15DE JUMP JUMPDEST SWAP2 POP POP SWAP3 SWAP2 POP POP JUMP JUMPDEST PUSH0 DUP1 PUSH1 0x40 DUP4 DUP6 SUB SLT ISZERO PUSH2 0x1662 JUMPI PUSH2 0x1661 PUSH2 0x14D5 JUMP JUMPDEST JUMPDEST PUSH0 PUSH2 0x166F DUP6 DUP3 DUP7 ADD PUSH2 0x14FC JUMP JUMPDEST SWAP3 POP POP PUSH1 0x20 DUP4 ADD CALLDATALOAD PUSH8 0xFFFFFFFFFFFFFFFF DUP2 GT ISZERO PUSH2 0x1690 JUMPI PUSH2 0x168F PUSH2 0x14D9 JUMP JUMPDEST JUMPDEST PUSH2 0x169C DUP6 DUP3 DUP7 ADD PUSH2 0x161F JUMP JUMPDEST SWAP2 POP POP SWAP3 POP SWAP3 SWAP1 POP JUMP JUMPDEST PUSH0 DUP2 SWAP1 POP SWAP2 SWAP1 POP JUMP JUMPDEST PUSH2 0x16B8 DUP2 PUSH2 0x16A6 JUMP JUMPDEST DUP3 MSTORE POP POP JUMP JUMPDEST PUSH0 PUSH1 0x20 DUP3 ADD SWAP1 POP PUSH2 0x16D1 PUSH0 DUP4 ADD DUP5 PUSH2 0x16AF JUMP JUMPDEST SWAP3 SWAP2 POP POP JUMP JUMPDEST PUSH2 0x16E0 DUP2 PUSH2 0x14DD JUMP JUMPDEST DUP3 MSTORE POP POP JUMP JUMPDEST PUSH0 PUSH1 0x20 DUP3 ADD SWAP1 POP PUSH2 0x16F9 PUSH0 DUP4 ADD DUP5 PUSH2 0x16D7 JUMP JUMPDEST SWAP3 SWAP2 POP POP JUMP JUMPDEST PUSH0 DUP1 PUSH0 PUSH1 0x60 DUP5 DUP7 SUB SLT ISZERO PUSH2 0x1716 JUMPI PUSH2 0x1715 PUSH2 0x14D5 JUMP JUMPDEST JUMPDEST PUSH0 PUSH2 0x1723 DUP7 DUP3 DUP8 ADD PUSH2 0x14FC JUMP JUMPDEST SWAP4 POP POP PUSH1 0x20 DUP5 ADD CALLDATALOAD PUSH8 0xFFFFFFFFFFFFFFFF DUP2 GT ISZERO PUSH2 0x1744 JUMPI PUSH2 0x1743 PUSH2 0x14D9 JUMP JUMPDEST JUMPDEST PUSH2 0x1750 DUP7 DUP3 DUP8 ADD PUSH2 0x161F JUMP JUMPDEST SWAP3 POP POP PUSH1 0x40 PUSH2 0x1761 DUP7 DUP3 DUP8 ADD PUSH2 0x14FC JUMP JUMPDEST SWAP2 POP POP SWAP3 POP SWAP3 POP SWAP3 JUMP JUMPDEST PUSH2 0x1774 DUP2 PUSH2 0x16A6 JUMP JUMPDEST DUP2 EQ PUSH2 0x177E JUMPI PUSH0 DUP1 REVERT JUMPDEST POP JUMP JUMPDEST PUSH0 DUP2 CALLDATALOAD SWAP1 POP PUSH2 0x178F DUP2 PUSH2 0x176B JUMP JUMPDEST SWAP3 SWAP2 POP POP JUMP JUMPDEST PUSH0 PUSH1 0x20 DUP3 DUP5 SUB SLT ISZERO PUSH2 0x17AA JUMPI PUSH2 0x17A9 PUSH2 0x14D5 JUMP JUMPDEST JUMPDEST PUSH0 PUSH2 0x17B7 DUP5 DUP3 DUP6 ADD PUSH2 0x1781 JUMP JUMPDEST SWAP2 POP POP SWAP3 SWAP2 POP POP JUMP JUMPDEST PUSH0 DUP1 PUSH1 0x40 DUP4 DUP6 SUB SLT ISZERO PUSH2 0x17D6 JUMPI PUSH2 0x17D5 PUSH2 0x14D5 JUMP JUMPDEST JUMPDEST PUSH0 PUSH2 0x17E3 DUP6 DUP3 DUP7 ADD PUSH2 0x1781 JUMP JUMPDEST SWAP3 POP POP PUSH1 0x20 PUSH2 0x17F4 DUP6 DUP3 DUP7 ADD PUSH2 0x14FC JUMP JUMPDEST SWAP2 POP POP SWAP3 POP SWAP3 SWAP1 POP JUMP JUMPDEST PUSH0 DUP1 PUSH1 0x40 DUP4 DUP6 SUB SLT ISZERO PUSH2 0x1814 JUMPI PUSH2 0x1813 PUSH2 0x14D5 JUMP JUMPDEST JUMPDEST PUSH0 PUSH2 0x1821 DUP6 DUP3 DUP7 ADD PUSH2 0x1781 JUMP JUMPDEST SWAP3 POP POP PUSH1 0x20 PUSH2 0x1832 DUP6 DUP3 DUP7 ADD PUSH2 0x1781 JUMP JUMPDEST SWAP2 POP POP SWAP3 POP SWAP3 SWAP1 POP JUMP JUMPDEST PUSH0 PUSH1 0x20 DUP3 DUP5 SUB SLT ISZERO PUSH2 0x1851 JUMPI PUSH2 0x1850 PUSH2 0x14D5 JUMP JUMPDEST JUMPDEST PUSH0 PUSH2 0x185E DUP5 DUP3 DUP6 ADD PUSH2 0x14FC JUMP JUMPDEST SWAP2 POP POP SWAP3 SWAP2 POP POP JUMP JUMPDEST PUSH0 PUSH20 0xFFFFFFFFFFFFFFFFFFFFFFFFFFFFFFFFFFFFFFFF DUP3 AND SWAP1 POP SWAP2 SWAP1 POP JUMP JUMPDEST PUSH0 PUSH2 0x1890 DUP3 PUSH2 0x1867 JUMP JUMPDEST SWAP1 POP SWAP2 SWAP1 POP JUMP JUMPDEST PUSH2 0x18A0 DUP2 PUSH2 0x1886 JUMP JUMPDEST DUP3 MSTORE POP POP JUMP JUMPDEST PUSH0 PUSH1 0x40 DUP3 ADD SWAP1 POP PUSH2 0x18B9 PUSH0 DUP4 ADD DUP6 PUSH2 0x16D7 JUMP JUMPDEST PUSH2 0x18C6 PUSH1 0x20 DUP4 ADD DUP5 PUSH2 0x1897 JUMP JUMPDEST SWAP4 SWAP3 POP POP POP JUMP JUMPDEST PUSH0 DUP2 MLOAD SWAP1 POP SWAP2 SWAP1 POP JUMP JUMPDEST PUSH0 DUP2 SWAP1 POP SWAP3 SWAP2 POP POP JUMP JUMPDEST PUSH0 JUMPDEST DUP4 DUP2 LT ISZERO PUSH2 0x18FE JUMPI DUP1 DUP3 ADD MLOAD DUP2 DUP5 ADD MSTORE PUSH1 0x20 DUP2 ADD SWAP1 POP PUSH2 0x18E3 JUMP JUMPDEST PUSH0 DUP5 DUP5 ADD MSTORE POP POP POP POP JUMP JUMPDEST PUSH0 PUSH2 0x1913 DUP3 PUSH2 0x18CD JUMP JUMPDEST PUSH2 0x191D DUP2 DUP6 PUSH2 0x18D7 JUMP JUMPDEST SWAP4 POP PUSH2 0x192D DUP2 DUP6 PUSH1 0x20 DUP7 ADD PUSH2 0x18E1 JUMP JUMPDEST DUP1 DUP5 ADD SWAP2 POP POP SWAP3 SWAP2 POP POP JUMP JUMPDEST PUSH0 PUSH2 0x1944 DUP3 DUP5 PUSH2 0x1909 JUMP JUMPDEST SWAP2 POP DUP2 SWAP1 POP SWAP3 SWAP2 POP POP JUMP JUMPDEST PUSH0 DUP2 MLOAD SWAP1 POP SWAP2 SWAP1 POP JUMP JUMPDEST PUSH0 DUP2 SWAP1 POP PUSH1 0x20 DUP3 ADD SWAP1 POP SWAP2 SWAP1 POP JUMP JUMPDEST PUSH0 PUSH2 0x1973 DUP3 MLOAD PUSH2 0x16A6 JUMP JUMPDEST DUP1 SWAP2 POP POP SWAP2 SWAP1 POP JUMP JUMPDEST PUSH0 DUP3 DUP3 SHL SWAP1 POP SWAP3 SWAP2 POP POP JUMP JUMPDEST PUSH0 PUSH2 0x1992 DUP3 PUSH2 0x194F JUMP JUMPDEST DUP3 PUSH2 0x199C DUP5 PUSH2 0x1959 JUMP JUMPDEST SWAP1 POP PUSH2 0x19A7 DUP2 PUSH2 0x1968 JUMP JUMPDEST SWAP3 POP PUSH1 0x20 DUP3 LT ISZERO PUSH2 0x19E7 JUMPI PUSH2 0x19E2 PUSH32 0xFFFFFFFFFFFFFFFFFFFFFFFFFFFFFFFFFFFFFFFFFFFFFFFFFFFFFFFFFFFFFFFF DUP4 PUSH1 0x20 SUB PUSH1 0x8 MUL PUSH2 0x197C JUMP JUMPDEST DUP4 AND SWAP3 POP JUMPDEST POP POP SWAP2 SWAP1 POP JUMP JUMPDEST PUSH0 DUP2 SWAP1 POP SWAP2 SWAP1 POP JUMP JUMPDEST PUSH2 0x1A08 PUSH2 0x1A03 DUP3 PUSH2 0x14DD JUMP JUMPDEST PUSH2 0x19EE JUMP JUMPDEST DUP3 MSTORE POP POP JUMP JUMPDEST PUSH0 DUP2 SWAP1 POP SWAP2 SWAP1 POP JUMP JUMPDEST PUSH2 0x1A28 PUSH2 0x1A23 DUP3 PUSH2 0x16A6 JUMP JUMPDEST PUSH2 0x1A0E JUMP JUMPDEST DUP3 MSTORE POP POP JUMP JUMPDEST PUSH0 PUSH2 0x1A39 DUP3 DUP6 PUSH2 0x19F7 JUMP JUMPDEST PUSH1 0x20 DUP3 ADD SWAP2 POP PUSH2 0x1A49 DUP3 DUP5 PUSH2 0x1A17 JUMP JUMPDEST PUSH1 0x20 DUP3 ADD SWAP2 POP DUP2 SWAP1 POP SWAP4 SWAP3 POP POP POP JUMP JUMPDEST PUSH32 0x4E487B7100000000000000000000000000000000000000000000000000000000 PUSH0 MSTORE PUSH1 0x11 PUSH1 0x4 MSTORE PUSH1 0x24 PUSH0 REVERT JUMPDEST PUSH0 PUSH2 0x1A90 DUP3 PUSH2 0x14DD JUMP JUMPDEST SWAP2 POP PUSH32 0xFFFFFFFFFFFFFFFFFFFFFFFFFFFFFFFFFFFFFFFFFFFFFFFFFFFFFFFFFFFFFFFF DUP3 SUB PUSH2 0x1AC2 JUMPI PUSH2 0x1AC1 PUSH2 0x1A59 JUMP JUMPDEST JUMPDEST PUSH1 0x1 DUP3 ADD SWAP1 POP SWAP2 SWAP1 POP JUMP JUMPDEST PUSH0 PUSH2 0x1AD7 DUP3 PUSH2 0x14DD JUMP JUMPDEST SWAP2 POP PUSH2 0x1AE2 DUP4 PUSH2 0x14DD JUMP JUMPDEST SWAP3 POP DUP3 DUP3 ADD SWAP1 POP DUP1 DUP3 GT ISZERO PUSH2 0x1AFA JUMPI PUSH2 0x1AF9 PUSH2 0x1A59 JUMP JUMPDEST JUMPDEST SWAP3 SWAP2 POP POP JUMP JUMPDEST PUSH0 DUP2 PUSH1 0x60 SHL SWAP1 POP SWAP2 SWAP1 POP JUMP JUMPDEST PUSH0 PUSH2 0x1B16 DUP3 PUSH2 0x1B00 JUMP JUMPDEST SWAP1 POP SWAP2 SWAP1 POP JUMP JUMPDEST PUSH0 PUSH2 0x1B27 DUP3 PUSH2 0x1B0C JUMP JUMPDEST SWAP1 POP SWAP2 SWAP1 POP JUMP JUMPDEST PUSH2 0x1B3F PUSH2 0x1B3A DUP3 PUSH2 0x1886 JUMP JUMPDEST PUSH2 0x1B1D JUMP JUMPDEST DUP3 MSTORE POP POP JUMP JUMPDEST PUSH0 PUSH2 0x1B50 DUP3 DUP6 PUSH2 0x1B2E JUMP JUMPDEST PUSH1 0x14 DUP3 ADD SWAP2 POP PUSH2 0x1B60 DUP3 DUP5 PUSH2 0x1A17 JUMP JUMPDEST PUSH1 0x20 DUP3 ADD SWAP2 POP DUP2 SWAP1 POP SWAP4 SWAP3 POP POP POP JUMP JUMPDEST PUSH0 PUSH2 0x1B7A DUP3 PUSH2 0x14DD JUMP JUMPDEST SWAP2 POP PUSH2 0x1B85 DUP4 PUSH2 0x14DD JUMP JUMPDEST SWAP3 POP DUP3 DUP3 SUB SWAP1 POP DUP2 DUP2 GT ISZERO PUSH2 0x1B9D JUMPI PUSH2 0x1B9C PUSH2 0x1A59 JUMP JUMPDEST JUMPDEST SWAP3 SWAP2 POP POP JUMP JUMPDEST PUSH32 0x4E487B7100000000000000000000000000000000000000000000000000000000 PUSH0 MSTORE PUSH1 0x12 PUSH1 0x4 MSTORE PUSH1 0x24 PUSH0 REVERT JUMPDEST PUSH0 PUSH2 0x1BDA DUP3 PUSH2 0x14DD JUMP JUMPDEST SWAP2 POP PUSH2 0x1BE5 DUP4 PUSH2 0x14DD JUMP JUMPDEST SWAP3 POP DUP3 PUSH2 0x1BF5 JUMPI PUSH2 0x1BF4 PUSH2 0x1BA3 JUMP JUMPDEST JUMPDEST DUP3 DUP3 DIV SWAP1 POP SWAP3 SWAP2 POP POP JUMP JUMPDEST PUSH0 PUSH2 0x1C0B DUP3 DUP7 PUSH2 0x1B2E JUMP JUMPDEST PUSH1 0x14 DUP3 ADD SWAP2 POP PUSH2 0x1C1B DUP3 DUP6 PUSH2 0x1A17 JUMP JUMPDEST PUSH1 0x20 DUP3 ADD SWAP2 POP PUSH2 0x1C2B DUP3 DUP5 PUSH2 0x1A17 JUMP JUMPDEST PUSH1 0x20 DUP3 ADD SWAP2 POP DUP2 SWAP1 POP SWAP5 SWAP4 POP POP POP POP JUMP JUMPDEST PUSH0 DUP3 DUP3 MSTORE PUSH1 0x20 DUP3 ADD SWAP1 POP SWAP3 SWAP2 POP POP JUMP JUMPDEST PUSH32 0x436F6D6D697452657665616C3A3A72657665616C3A20416C7265616479207265 PUSH0 DUP3 ADD MSTORE PUSH32 0x7665616C65640000000000000000000000000000000000000000000000000000 PUSH1 0x20 DUP3 ADD MSTORE POP JUMP JUMPDEST PUSH0 PUSH2 0x1CA6 PUSH1 0x26 DUP4 PUSH2 0x1C3C JUMP JUMPDEST SWAP2 POP PUSH2 0x1CB1 DUP3 PUSH2 0x1C4C JUMP JUMPDEST PUSH1 0x40 DUP3 ADD SWAP1 POP SWAP2 SWAP1 POP JUMP JUMPDEST PUSH0 PUSH1 0x20 DUP3 ADD SWAP1 POP DUP2 DUP2 SUB PUSH0 DUP4 ADD MSTORE PUSH2 0x1CD3 DUP2 PUSH2 0x1C9A JUMP JUMPDEST SWAP1 POP SWAP2 SWAP1 POP JUMP JUMPDEST PUSH32 0x436F6D6D697452657665616C3A3A72657665616C3A2052657665616C65642068 PUSH0 DUP3 ADD MSTORE PUSH32 0x61736820646F6573206E6F74206D6174636820636F6D6D697400000000000000 PUSH1 0x20 DUP3 ADD MSTORE POP JUMP JUMPDEST PUSH0 PUSH2 0x1D34 PUSH1 0x39 DUP4 PUSH2 0x1C3C JUMP JUMPDEST SWAP2 POP PUSH2 0x1D3F DUP3 PUSH2 0x1CDA JUMP JUMPDEST PUSH1 0x40 DUP3 ADD SWAP1 POP SWAP2 SWAP1 POP JUMP JUMPDEST PUSH0 PUSH1 0x20 DUP3 ADD SWAP1 POP DUP2 DUP2 SUB PUSH0 DUP4 ADD MSTORE PUSH2 0x1D61 DUP2 PUSH2 0x1D28 JUMP JUMPDEST SWAP1 POP SWAP2 SWAP1 POP JUMP JUMPDEST PUSH32 0x436F6D6D697452657665616C3A3A72657665616C3A2052657665616C20616E64 PUSH0 DUP3 ADD MSTORE PUSH32 0x20636F6D6D69742068617070656E6564206F6E207468652073616D6520626C6F PUSH1 0x20 DUP3 ADD MSTORE PUSH32 0x636B000000000000000000000000000000000000000000000000000000000000 PUSH1 0x40 DUP3 ADD MSTORE POP JUMP JUMPDEST PUSH0 PUSH2 0x1DE8 PUSH1 0x42 DUP4 PUSH2 0x1C3C JUMP JUMPDEST SWAP2 POP PUSH2 0x1DF3 DUP3 PUSH2 0x1D68 JUMP JUMPDEST PUSH1 0x60 DUP3 ADD SWAP1 POP SWAP2 SWAP1 POP JUMP JUMPDEST PUSH0 PUSH1 0x20 DUP3 ADD SWAP1 POP DUP2 DUP2 SUB PUSH0 DUP4 ADD MSTORE PUSH2 0x1E15 DUP2 PUSH2 0x1DDC JUMP JUMPDEST SWAP1 POP SWAP2 SWAP1 POP JUMP JUMPDEST PUSH0 PUSH8 0xFFFFFFFFFFFFFFFF DUP3 AND SWAP1 POP SWAP2 SWAP1 POP JUMP JUMPDEST PUSH0 PUSH2 0x1E39 DUP3 PUSH2 0x1E1C JUMP JUMPDEST SWAP2 POP PUSH2 0x1E44 DUP4 PUSH2 0x1E1C JUMP JUMPDEST SWAP3 POP DUP3 DUP3 ADD SWAP1 POP PUSH8 0xFFFFFFFFFFFFFFFF DUP2 GT ISZERO PUSH2 0x1E64 JUMPI PUSH2 0x1E63 PUSH2 0x1A59 JUMP JUMPDEST JUMPDEST SWAP3 SWAP2 POP POP JUMP JUMPDEST PUSH32 0x436F6D6D697452657665616C3A3A72657665616C3A2052657665616C65642074 PUSH0 DUP3 ADD MSTORE PUSH32 0x6F6F206C61746500000000000000000000000000000000000000000000000000 PUSH1 0x20 DUP3 ADD MSTORE POP JUMP JUMPDEST PUSH0 PUSH2 0x1EC4 PUSH1 0x27 DUP4 PUSH2 0x1C3C JUMP JUMPDEST SWAP2 POP PUSH2 0x1ECF DUP3 PUSH2 0x1E6A JUMP JUMPDEST PUSH1 0x40 DUP3 ADD SWAP1 POP SWAP2 SWAP1 POP JUMP JUMPDEST PUSH0 PUSH1 0x20 DUP3 ADD SWAP1 POP DUP2 DUP2 SUB PUSH0 DUP4 ADD MSTORE PUSH2 0x1EF1 DUP2 PUSH2 0x1EB8 JUMP JUMPDEST SWAP1 POP SWAP2 SWAP1 POP JUMP JUMPDEST PUSH0 PUSH2 0x1F03 DUP3 DUP6 PUSH2 0x1A17 JUMP JUMPDEST PUSH1 0x20 DUP3 ADD SWAP2 POP PUSH2 0x1F13 DUP3 DUP5 PUSH2 0x1A17 JUMP JUMPDEST PUSH1 0x20 DUP3 ADD SWAP2 POP DUP2 SWAP1 POP SWAP4 SWAP3 POP POP POP JUMP JUMPDEST PUSH0 PUSH2 0x1F2D DUP3 PUSH2 0x14DD JUMP JUMPDEST SWAP2 POP PUSH2 0x1F38 DUP4 PUSH2 0x14DD JUMP JUMPDEST SWAP3 POP DUP3 PUSH2 0x1F48 JUMPI PUSH2 0x1F47 PUSH2 0x1BA3 JUMP JUMPDEST JUMPDEST DUP3 DUP3 MOD SWAP1 POP SWAP3 SWAP2 POP POP JUMP JUMPDEST PUSH0 PUSH1 0x60 DUP3 ADD SWAP1 POP PUSH2 0x1F66 PUSH0 DUP4 ADD DUP7 PUSH2 0x1897 JUMP JUMPDEST PUSH2 0x1F73 PUSH1 0x20 DUP4 ADD DUP6 PUSH2 0x16AF JUMP JUMPDEST PUSH2 0x1F80 PUSH1 0x40 DUP4 ADD DUP5 PUSH2 0x16D7 JUMP JUMPDEST SWAP5 SWAP4 POP POP POP POP JUMP JUMPDEST PUSH2 0x1F91 DUP2 PUSH2 0x1E1C JUMP JUMPDEST DUP3 MSTORE POP POP JUMP JUMPDEST PUSH0 PUSH1 0x60 DUP3 ADD SWAP1 POP PUSH2 0x1FAA PUSH0 DUP4 ADD DUP7 PUSH2 0x1897 JUMP JUMPDEST PUSH2 0x1FB7 PUSH1 0x20 DUP4 ADD DUP6 PUSH2 0x16AF JUMP JUMPDEST PUSH2 0x1FC4 PUSH1 0x40 DUP4 ADD DUP5 PUSH2 0x1F88 JUMP JUMPDEST SWAP5 SWAP4 POP POP POP POP JUMP INVALID LOG2 PUSH5 0x6970667358 0x22 SLT KECCAK256 GAS LOG0 0xE6 PUSH4 0x42ABC4B MUL 0xE 0xE 0xB1 PUSH5 0x637668ECEE 0xE SHL PUSH13 0xB835378490316807B57BE66473 PUSH16 0x6C634300081800330000000000000000 "
				},
				"gasEstimates": {
					"creation": {
						"codeDepositCost": "1638800",
						"executionCost": "68111",
						"totalCost": "1706911"
					},
					"external": {
						"IDLE_TIME()": "370",
						"addPlayer()": "infinite",
						"getHash(bytes32)": "infinite",
						"getHashChoice(uint256,string)": "infinite",
						"getSaltedHash(bytes32,bytes32)": "infinite",
						"input(uint256,string,uint256)": "infinite",
						"inputHashChoice(bytes32,uint256)": "infinite",
						"latestActionTime()": "2492",
						"numHashedInput()": "2513",
						"numInput()": "2471",
						"numPlayer()": "2469",
						"player(uint256)": "infinite",
						"refund()": "infinite",
						"reward()": "2448"
					},
					"internal": {
						"_checkWinnerAndPay()": "infinite",
						"_resetGame()": "113151"
					}
				},
				"methodIdentifiers": {
					"IDLE_TIME()": "2703da2f",
					"addPlayer()": "27b5db8a",
					"getHash(bytes32)": "3cf5040a",
					"getHashChoice(uint256,string)": "073d8ff3",
					"getSaltedHash(bytes32,bytes32)": "8dddbf36",
					"input(uint256,string,uint256)": "1c99b3aa",
					"inputHashChoice(bytes32,uint256)": "5940e9e7",
					"latestActionTime()": "7bab61bc",
					"numHashedInput()": "bac4b2b4",
					"numInput()": "086f7815",
					"numPlayer()": "90d5d0c3",
					"player(uint256)": "9e0551c6",
					"refund()": "590e1ae3",
					"reward()": "228cb733"
				}
			},
			"storageLayout": {
				"storage": [
					{
						"astId": 4,
						"contract": "RWAPSSF.sol:RWAPSSF",
						"label": "max",
						"offset": 0,
						"slot": "0",
						"type": "t_uint8"
					},
					{
						"astId": 16,
						"contract": "RWAPSSF.sol:RWAPSSF",
						"label": "commits",
						"offset": 0,
						"slot": "1",
						"type": "t_mapping(t_address,t_struct(Commit)11_storage)"
					},
					{
						"astId": 296,
						"contract": "RWAPSSF.sol:RWAPSSF",
						"label": "player",
						"offset": 0,
						"slot": "2",
						"type": "t_mapping(t_uint256,t_struct(Player)291_storage)"
					},
					{
						"astId": 299,
						"contract": "RWAPSSF.sol:RWAPSSF",
						"label": "numPlayer",
						"offset": 0,
						"slot": "3",
						"type": "t_uint256"
					},
					{
						"astId": 302,
						"contract": "RWAPSSF.sol:RWAPSSF",
						"label": "reward",
						"offset": 0,
						"slot": "4",
						"type": "t_uint256"
					},
					{
						"astId": 305,
						"contract": "RWAPSSF.sol:RWAPSSF",
						"label": "numInput",
						"offset": 0,
						"slot": "5",
						"type": "t_uint256"
					},
					{
						"astId": 308,
						"contract": "RWAPSSF.sol:RWAPSSF",
						"label": "numHashedInput",
						"offset": 0,
						"slot": "6",
						"type": "t_uint256"
					},
					{
						"astId": 312,
						"contract": "RWAPSSF.sol:RWAPSSF",
						"label": "latestActionTime",
						"offset": 0,
						"slot": "7",
						"type": "t_uint256"
					}
				],
				"types": {
					"t_address": {
						"encoding": "inplace",
						"label": "address",
						"numberOfBytes": "20"
					},
					"t_bool": {
						"encoding": "inplace",
						"label": "bool",
						"numberOfBytes": "1"
					},
					"t_bytes32": {
						"encoding": "inplace",
						"label": "bytes32",
						"numberOfBytes": "32"
					},
					"t_mapping(t_address,t_struct(Commit)11_storage)": {
						"encoding": "mapping",
						"key": "t_address",
						"label": "mapping(address => struct CommitReveal.Commit)",
						"numberOfBytes": "32",
						"value": "t_struct(Commit)11_storage"
					},
					"t_mapping(t_uint256,t_struct(Player)291_storage)": {
						"encoding": "mapping",
						"key": "t_uint256",
						"label": "mapping(uint256 => struct RWAPSSF.Player)",
						"numberOfBytes": "32",
						"value": "t_struct(Player)291_storage"
					},
					"t_struct(Commit)11_storage": {
						"encoding": "inplace",
						"label": "struct CommitReveal.Commit",
						"members": [
							{
								"astId": 6,
								"contract": "RWAPSSF.sol:RWAPSSF",
								"label": "commit",
								"offset": 0,
								"slot": "0",
								"type": "t_bytes32"
							},
							{
								"astId": 8,
								"contract": "RWAPSSF.sol:RWAPSSF",
								"label": "block",
								"offset": 0,
								"slot": "1",
								"type": "t_uint64"
							},
							{
								"astId": 10,
								"contract": "RWAPSSF.sol:RWAPSSF",
								"label": "revealed",
								"offset": 8,
								"slot": "1",
								"type": "t_bool"
							}
						],
						"numberOfBytes": "64"
					},
					"t_struct(Player)291_storage": {
						"encoding": "inplace",
						"label": "struct RWAPSSF.Player",
						"members": [
							{
								"astId": 288,
								"contract": "RWAPSSF.sol:RWAPSSF",
								"label": "choice",
								"offset": 0,
								"slot": "0",
								"type": "t_uint256"
							},
							{
								"astId": 290,
								"contract": "RWAPSSF.sol:RWAPSSF",
								"label": "addr",
								"offset": 0,
								"slot": "1",
								"type": "t_address"
							}
						],
						"numberOfBytes": "64"
					},
					"t_uint256": {
						"encoding": "inplace",
						"label": "uint256",
						"numberOfBytes": "32"
					},
					"t_uint64": {
						"encoding": "inplace",
						"label": "uint64",
						"numberOfBytes": "8"
					},
					"t_uint8": {
						"encoding": "inplace",
						"label": "uint8",
						"numberOfBytes": "1"
					}
				}
			},
			"userdoc": {
				"kind": "user",
				"methods": {},
				"version": 1
			}
		}
	}
}